:0400000057EF00F0C6
:10000800F709F709F709F709F709F709F709F709E8
:10001800F709F709F709F709F70984094808FB07F9
:10002800F709F709F709F709F709F709F709F709C8
:10003800F709F709F7097C086D08F709F709F709BF
:10004800F709F709F709F7092B00F709F709F7097D
:10005800F709F709F709F709F709F709F709F70998
:10006800F709F709F709F709F709F709F709F70988
:100078009908F7092B00F709F709F7092B002B0056
:100088002B002B002B002B002B002B00F709F70867
:10009800F709A708F709F7092B002B002B002B00FD
:1000A800B508F709FF0098EF0FF00001AD51800B7C
:1000B800B26FAD51AD25B46FACAF65EF00F067EF2F
:1000C80000F068EF00F0B481B451D8B46EEF00F0DE
:1000D80070EF00F085EF00F0B429D8A476EF00F0B7
:1000E80078EF00F080EF00F0000EAA6F000EAB6F03
:1000F800000EAC6F000EAD6FAC8F000EAD6F8DEFC4
:1001080000F0000EAA6F000EAB6F000EAC6F000E71
:10011800AD6FB151800BB36FB251B319D8B497EF2B
:1001280000F099EF00F09AEF00F0B28DB151B125CF
:10013800B36FB0AFA2EF00F0A4EF00F0A5EF00F0AE
:10014800B381B351D8B4ABEF00F0ADEF00F0C2EF1C
:1001580000F0B329D8A4B3EF00F0B5EF00F0BDEF7D
:1001680000F0000EAE6F000EAF6F000EB06F000E05
:10017800B16FB08F000EB16FCAEF00F0000EAE6F16
:10018800000EAF6F000EB06F000EB16FB451B35DCB
:10019800D8B0D1EF00F0D3EF00F0FAEF00F0B2AD35
:1001A800D8EF00F0DAEF00F0DCEF00F0800EB21BC1
:1001B800B4C0B5F0B3C0B4F0B5C0B3F0AAC0B5F0E0
:1001C800AEC0AAF0B5C0AEF0ABC0B5F0AFC0ABF0F2
:1001D800B5C0AFF0ACC0B5F0B0C0ACF0B5C0B0F0D1
:1001E800ADC0B5F0B1C0ADF0B5C0B1F0000EB56F9F
:1001F800B451B3C036F0376A365E000E375A37BE90
:100208000FEF01F0375009E11A0E365CD8A00FEF56
:1002180001F011EF01F048EF01F0AA51AB11AC1158
:10022800AD11D8A41AEF01F01DEF01F0010E1EEF79
:1002380001F0000EB56F000EAA6F000EAB6F000E36
:10024800AC6F000EAD6FB3C0B4F051EF01F0B5A1C3
:1002580030EF01F032EF01F038EF01F0D890B5310E
:100268000109B56F3AEF01F0D890B533AAA13FEF75
:1002780001F041EF01F042EF01F0B58FAD35AD333C
:10028800AC33AB33AA33B42BB351B45DD8A04FEF22
:1002980001F051EF01F02BEF01F0B2BD56EF01F084
:1002A80058EF01F098EF01F0B451D8A45EEF01F0D7
:1002B80060EF01F06AEF01F0000EAA6F000EAB6F5D
:1002C800000EAC6F000EAD6FB9EF02F0AE51AA2769
:1002D800AF51AB23B051AC23B151AD23ADA177EFF2
:1002E80001F079EF01F025EF02F0B5A17EEF01F002
:1002F80080EF01F086EF01F0D890B5310109B56FB4
:1003080088EF01F0D890B533AAA18DEF01F08FEFF7
:1003180001F090EF01F0B58FAD35AD33AC33AB33B1
:10032800AA33B42B25EF02F0AE51AA5DAF51AB59F9
:10033800B051AC59AD51800A366EB151800A365869
:10034800D8B0A9EF01F0ABEF01F0D6EF01F0AA5158
:10035800AE5D366EAB51AF59376EAC51B059386E91
:10036800AD51B159396EFF0E3624AA6FFF0E3720F2
:10037800AB6FFF0E3820AC6FFF0E3920AD6F800ECB
:10038800B21BB56DB551D8A4CCEF01F0CEEF01F09A
:10039800DEEF01F0010EAA27000EAB23AC23AD233C
:1003A800DEEF01F0AE51AA5FAF51AB5BB051AC5B71
:1003B800B151AD5BAA51AB11AC11AD11D8A4E7EFA7
:1003C80001F0E9EF01F01EEF02F0B551D8A4EFEF0C
:1003D80001F0F1EF01F01EEF02F0000EAA6F000E1F
:1003E800AB6F000EAC6F000EAD6FB9EF02F0D89096
:1003F800AA37AB37AC37AD37B5AF05EF02F007EF2B
:1004080002F008EF02F0AA81B5A10DEF02F00FEF9C
:1004180002F013EF02F0D880B53715EF02F0D8904C
:10042800B537B451D8B41BEF02F01DEF02F01EEF40
:1004380002F0B407ACAF23EF02F025EF02F0FBEFB8
:1004480001F0000EB36FB5AF2CEF02F02EEF02F003
:1004580046EF02F0B5C036F07F0E3616D8B437EF47
:1004680002F039EF02F03DEF02F0010EB36F46EFF4
:1004780002F0AAA142EF02F044EF02F046EF02F0C8
:1004880039EF02F0B351D8B44CEF02F04EEF02F05E
:1004980079EF02F0010EAA27000EAB23AC23AD239F
:1004A800ADA159EF02F05BEF02F079EF02F0AAC0BC
:1004B80036F0ABC037F0ACC038F0ADC039F03934E5
:1004C800393238323732363236C0AAF037C0ABF05C
:1004D80038C0ACF039C0ADF0B429D8B476EF02F02A
:1004E80078EF02F079EF02F0B42BB429D8B47FEF9B
:1004F80002F081EF02F089EF02F0B451D8A487EF3F
:1005080002F089EF02F09BEF02F0000EAA6F000ED6
:10051800AB6F000EAC6F000EAD6FB451D8A497EF5F
:1005280002F099EF02F09BEF02F0000EB26FB4A157
:10053800A0EF02F0A2EF02F0A5EF02F0AC8FA6EF59
:1005480002F0AC9FD890B431AD6FB2AFAEEF02F00D
:10055800B0EF02F0B1EF02F0AD8FAAC0AAF0ABC0C5
:10056800ABF0ACC0ACF0ADC0ADF012002D50800BBC
:1005780000019D6F2D502D24A36F2CAEC6EF02F005
:10058800C8EF02F0C9EF02F0A381A351D8B4CFEFAE
:1005980002F0D1EF02F0E4EF02F0A329D8A4D7EFDC
:1005A80002F0D9EF02F0E1EF02F0000E2A6E000E21
:1005B8002B6E000E2C6E000E2D6E2C8EECEF02F0C2
:1005C800000E2A6E000E2B6E000E2C6E000E2D6E85
:1005D8003150800B9D1B315031249E6F30AEF7EFA8
:1005E80002F0F9EF02F0FAEF02F09E819E51D8B4C2
:1005F80000EF03F002EF03F015EF03F09E29D8A4F3
:1006080008EF03F00AEF03F012EF03F0000E2E6E6E
:10061800000E2F6E000E306E000E316E308E1DEF04
:1006280003F0000E2E6E000E2F6E000E306E000EC0
:10063800316E9E51D8B423EF03F025EF03F02DEF70
:1006480003F0A351D8A42BEF03F02DEF03F037EFFD
:1006580003F0000E2A6E000E2B6E000E2C6E000E9C
:100668002D6EE1EF04F030502A026F00CCFFA8F0A5
:100678006F00D0FFA9F0A8519F6FA06BA16BA26B70
:10068800A951A46FA56BA66BA76B2F502B026F0007
:10069800CCFFA8F06F00D0FFA9F0A8519F27000E4B
:1006A800A023A123A223A951A427000EA523A62392
:1006B800A7232E502C026F00CCFFA8F06F00D0FFAC
:1006C800A9F0A8519F27000EA023A123A223A95176
:1006D800A427000EA523A623A723A1C0A2F0A0C08B
:1006E800A1F09FC0A0F09F6B2E502B026F00CCFF93
:1006F800A8F06F00D0FFA9F0A8519F27A951A02307
:10070800000EA123000EA2232F502A026F00CCFF57
:10071800A8F06F00D0FFA9F0A8519F27A951A023E6
:10072800000EA123000EA223A1C0A2F0A0C0A1F038
:100738009FC0A0F09F6B2E502A026F00CCFFA8F03C
:100748006F00D0FFA9F0A8519F27A951A023000E40
:10075800A123000EA22330502B026F00CCFFA8F07B
:100768006F00D0FFA9F0A851A427A951A523000E16
:10077800A623000EA7232F502C026F00CCFFA8F051
:100788006F00D0FFA9F0A851A427A951A523000EF6
:10079800A623000EA72330502C026F00CCFFA8F030
:1007A8006F00D0FFA9F0A851326EA951336E346A98
:1007B800356A34C035F033C034F032C033F0326AB1
:1007C8003250A4273350A5233450A6233550A723ED
:1007D8009FC032F0A0C033F0A1C034F0A2C035F001
:1007E800190EFCEF03F0D8903532343233323232FE
:1007F800E82EF7EF03F03250A4273350A5233450E6
:10080800A6233550A723A1C0A2F0A0C0A1F09FC085
:10081800A0F09F6B9E51A3C032F0336A3226000EBF
:100828003322820E3224A86FFF0E3320A96F32EFD5
:1008380004F0D890A437A537A637A737A2AF27EF7B
:1008480004F029EF04F02AEF04F0A481D8909F3730
:10085800A037A137A237A807D8A0A907A6AF37EFB6
:1008680004F039EF04F01DEF04F0000E9E6FA2AF04
:1008780040EF04F042EF04F066EF04F0FF0E9F151E
:10088800326EFF0EA015336EFF0EA115346E7F0E6B
:10089800A215356E3250331034103510D8B457EFD6
:1008A80004F059EF04F05DEF04F0010E9E6F66EF5F
:1008B80004F0A4A162EF04F064EF04F066EF04F022
:1008C80059EF04F09E51D8B46CEF04F06EEF04F0C9
:1008D80092EF04F0010EA427000EA523A623A72358
:1008E800A7A179EF04F07BEF04F092EF04F0A4C025
:1008F80032F0A5C033F0A6C034F0A7C035F03534C7
:10090800353234323332323232C0A4F033C0A5F03B
:1009180034C0A6F035C0A7F0A84BA92BA9BF9DEFFE
:1009280004F0A95108E1A829D8A09DEF04F09FEF91
:1009380004F0A9EF04F0000EA46F000EA56F800E5E
:10094800A66F7F0EA76FD7EF04F0A9BFB6EF04F02C
:10095800A95106E1A805D8B0B4EF04F0B6EF04F049
:10096800C2EF04F0000EA46F000EA56F000EA66F74
:10097800000EA76F000E9D6FD7EF04F0A8C0A3F07C
:10098800FF0EA417FF0EA5177F0EA617000EA717B8
:10099800A3A1D1EF04F0D3EF04F0D4EF04F0A68FB5
:1009A800D890A331A76F9D51A713A4C02AF0A5C062
:1009B8002BF0A6C02CF0A7C02DF012003A50000171
:1009C8009A5D186E3B509B59196E9051965D166E44
:1009D80091519759176ED0EF05F019BEFDEF04F04D
:1009E800195009E11F0E185CD8A0FDEF04F0FFEFC5
:1009F80004F020EF05F019BE0DEF05F02C0E185C81
:100A0800010E1958D8B00BEF05F00DEF05F020EFE7
:100A180005F03B5007E17D0E3A5CD8B016EF05F0C3
:100A280018EF05F020EF05F0000E3E6E010E3F6E48
:100A3800050E4C6EEDEF05F017BE2CEF05F01750C4
:100A480009E11F0E165CD8A02CEF05F02EEF05F07B
:100A5800EDEF05F017BE3CEF05F02C0E165C010E0D
:100A68001758D8B03AEF05F03CEF05F0EDEF05F078
:100A7800915107E17D0E905DD8B045EF05F047EF45
:100A880005F0EDEF05F0000E3E6E010E3F6E060E0E
:100A98004C6EEDEF05F0130E3E6455EF05F057EF81
:100AA80005F05DEF05F0000E3E6E020E3F6EEDEFB5
:100AB80005F03E2AEDEF05F0180E3E6466EF05F0EE
:100AC80068EF05F05DEF05F0050E4C18D8A46FEF40
:100AD80005F071EF05F07CEF05F09B5109E12D0E53
:100AE8009A5DD8A07AEF05F07CEF05F09BEF05F052
:100AF800060E4C18D8A483EF05F085EF05F090EFAB
:100B080005F0975109E12D0E965DD8A08EEF05F0FE
:100B180090EF05F09BEF05F04B5009E1970E4A5C0A
:100B2800D8A099EF05F09BEF05F0A3EF05F0000EB4
:100B38003E6E030E3F6E010E4C6E5DEF05F0060E25
:100B48004C18D8A4AAEF05F0ACEF05F05DEF05F05E
:100B580019BEB8EF05F0195009E11F0E185CD8A0AE
:100B6800B8EF05F0BAEF05F05DEF05F0000E3E6E48
:100B7800010E3F6E050E4C6E5DEF05F03E50D8B489
:100B8800C8EF05F0CAEF05F05DEF05F0000E3E6E08
:100B9800000E3F6EEDEF05F03F50146E156A1550CC
:100BA800000AD8B4DAEF05F0EDEF05F01450000AAA
:100BB800D8B4F1EF04F0010AD8B44FEF05F0030AF6
:100BC800D8B460EF05F0010AD8B4C2EF05F0EDEF34
:100BD80005F09AC03AF09BC03BF096C090F097C0E1
:100BE80091F01200000E0001C56F000EC46FACEF4B
:100BF80006F04B5009E11F0E4A5CD8A006EF06F03C
:100C080008EF06F00AEF06F0010E4C6E8BBF16EFE8
:100C180006F08B5109E1650E8A5DD8A016EF06F043
:100C280018EF06F033EF06F08AC0C4F08BC0C5F0A9
:100C38004B5007E10F0E4A5CD8B025EF06F027EFBE
:100C480006F02DEF06F0FC0EC427FF0EC523D5EFE6
:100C580006F0FE0EC427FF0EC523D5EF06F0000EE2
:100C6800C56F640EC46FD5EF06F04B5007E11E0E3A
:100C78004A5CD8B042EF06F044EF06F046EF06F0C3
:100C8800020E4C6E4B5009E1960E4A5CD8A04FEF0D
:100C980006F051EF06F09AEF06F0000EAE6F800EE8
:100CA800AF6F890EB06F430EB16F000E2E6E000E3F
:100CB8002F6E000E306E3F0E316E6A0EC06FFF0E43
:100CC800C16F4AC0C2F04BC0C3F0C051C227C15166
:100CD800C323C2C01CF0C3C01DF01E6A1F6A000EE9
:100CE800E9EC07F01CC02AF01DC02BF01EC02CF048
:100CF8001FC02DF0BAEC02F02AC0AAF02BC0ABF04E
:100D08002CC0ACF02DC0ADF059EC00F0AAC0B6F084
:100D1800ABC0B7F0ACC0B8F0ADC0B9F0DCEC0BF0CC
:100D2800B6C0C4F0B7C0C5F0D5EF06F0010EC56F68
:100D3800130EC46FD5EF06F0FF0EC56F830EC46F98
:100D4800D5EF06F0000EC56FC80EC46FD5EF06F0DC
:100D58004C50C06FC16BC151000AD8B4B6EF06F051
:100D6800D5EF06F0C051000AD8B439EF06F0010AF1
:100D7800D8B439EF06F0030AD8B4FDEF05F0010A3C
:100D8800D8B4A0EF06F0070AD8B4A0EF06F0010A1D
:100D9800D8B4A6EF06F0030AD8B4A6EF06F0D5EF4C
:100DA80006F00001C5BFE2EF06F0910EC45D010E2A
:100DB800C559D8A0E2EF06F0E4EF06F0E8EF06F038
:100DC800010EC56F900EC46FC5AFF4EF06F0060EA6
:100DD800C45DFF0EC559D8B0F4EF06F0F6EF06F083
:100DE800FAEF06F0FF0EC56F060EC46FC4C08AF096
:100DF800C5C08BF01200000196519A5D256E97517F
:100E08009B59266E150E2524296E000E26202A6E63
:100E180036EF07F02ABE1AEF07F02A5009E11A0E3A
:100E2800295CD8A01AEF07F01CEF07F022EF07F0B3
:100E3800000E2A6E190E296EBFEF07F02AAE2EEFAC
:100E480007F0E70E295CFF0E2A58D8B02EEF07F0FE
:100E580030EF07F057EF07F0FF0E2A6EE70E296E06
:100E6800BFEF07F04C50256E266A2650000AD8B40A
:100E780040EF07F0BFEF07F02550000AD8B40EEF97
:100E880007F0010AD8B40EEF07F0030AD8B40EEF42
:100E980007F0070AD8B40EEF07F0030AD8B40EEF2C
:100EA80007F0BFEF07F0BFEF07F029C01CF02AC01A
:100EB8001DF0020E1E6EC3EC08F0E8EF07F029C023
:100EC8001CF02AC01DF0030E1E6EC3EC08F0E8EFFC
:100ED80007F029C014F02AC015F0000E176E020E94
:100EE800166E99EC0EF014C027F015C028F027C034
:100EF8001CF028C01DF0030E1E6EC3EC08F0E8EFCE
:100F080007F0FF0E1D6EC40E1C6E000E1E6EC3ECA5
:100F180008F0E8EF07F0000E1D6E3C0E1C6E000E88
:100F28001E6EC3EC08F0E8EF07F0020E3F18D8A4D5
:100F3800A0EF07F0A2EF07F059EF07F0000E1D6EC3
:100F48003C0E1C6E020E1E6EC3EC08F0E8EF07F0B4
:100F5800020E3F18D8A4B3EF07F0B5EF07F059EF2A
:100F680007F0FF0E1D6EC40E1C6E020E1E6EC3EC43
:100F780008F0E8EF07F04C50256E266A2650000A64
:100F8800D8B4C9EF07F0E8EF07F02550000AD8B445
:100F98006DEF07F0010AD8B463EF07F0030AD8B47D
:100FA80059EF07F0010AD8B485EF07F0070AD8B45B
:100FB8008FEF07F0010AD8B499EF07F0030AD8B405
:100FC800ACEF07F0E8EF07F01200246E2450D8B415
:100FD800F0EF07F0F2EF07F014EF08F01FBEF9EF9B
:100FE80007F0F7EF07F014EF08F01CC020F01DC061
:100FF80021F01EC022F01FC023F0201E211E221E39
:10100800231E202A000E21222222232220C026F07D
:1010180021C027F022C028F023C029F01CEF08F0D7
:101028001CC026F01DC027F01EC028F01FC029F0E4
:101038001C501D101E101F10D8A425EF08F027EF14
:1010480008F031EF08F0000E1C6E000E1D6E000E49
:101058001E6E000E1F6EC2EF08F0960E256E3BEF57
:1010680008F0252AD8902932283227322632000E55
:101078002614206E000E2714216E000E2814226EEE
:10108800FE0E2914236E2050211022102310D8A4FC
:1010980050EF08F052EF08F035EF08F060EF08F075
:1010A800252A010E2626000E272228222922D8903A
:1010B8002932283227322632000E2614206E000EDE
:1010C8002714216E000E2814226EFF0E2914236E99
:1010D8002050211022102310D8A475EF08F077EFC4
:1010E80008F054EF08F07FEF08F02506D890263670
:1010F80027362836293628BE84EF08F086EF08F010
:101108008EEF08F0020E25608CEF08F08EEF08F0E5
:1011180079EF08F025B093EF08F095EF08F096EF17
:1011280008F0289ED890253225C020F0216A226A2E
:10113800236A20C023F0226A216A206A20502612DE
:101148002150271222502812235029122450D8B493
:10115800B0EF08F0B2EF08F0BAEF08F01FBEB9EF31
:1011680008F0B7EF08F0BAEF08F0298E26C01CF097
:1011780027C01DF028C01EF029C01FF01200000E65
:10118800246E000E236E17EF09F01CC021F01DC05D
:1011980022F01CC01FF01DC020F01F1E201E1F4A79
:1011A800202A1FC023F020C024F038EF09F01CC00B
:1011B80021F01DC022F01CC023F01DC024F038EF20
:1011C80009F01CC021F01DC022F01CC014F01DC085
:1011D80015F0FF0E176EFE0E166E99EC0EF014C089
:1011E80023F015C024F038EF09F01CC021F01DC011
:1011F80022F0000E246E000E236E38EF09F0000E68
:10120800226E000E216E1CC023F01DC024F038EFA2
:1012180009F0000E226E000E216E000E246E000EE4
:10122800236E38EF09F01E501F6E206A2050000A06
:10123800D8B421EF09F00DEF09F01F50000AD8B417
:10124800C9EF08F0010AD8B4DBEF08F0030AD8B4F4
:10125800E5EF08F0010AD8B4F9EF08F0070AD8B4A6
:1012680003EF09F00DEF09F022BE44EF09F0225018
:1012780009E1420E215CD8A044EF09F046EF09F0DD
:101288004CEF09F0000E226E410E216E5EEF09F060
:1012980022AE58EF09F0BF0E215CFF0E2258D8B0DD
:1012A80058EF09F05AEF09F05EEF09F0FF0E226ED1
:1012B800BF0E216E24BE6AEF09F0245009E1290E01
:1012C800235CD8A06AEF09F06CEF09F072EF09F01F
:1012D800000E246E280E236E84EF09F024AE7EEFF4
:1012E80009F0D80E235CFF0E2458D8B07EEF09F021
:1012F80080EF09F084EF09F0FF0E246ED80E236EFC
:10130800600E2124146E010E2220156E85EC11F05A
:10131800650E2324146E010E2420156E9FEC11F027
:1013280012004EEC0FF022C088F023C089F00001B3
:1013380088518A5DC26F89518B59C36F8651885D08
:10134800C46F87518959C56F0A0E2E6ED70E2F6E3E
:10135800A30E306E3C0E316E000E176E020E166E26
:10136800C4C014F0C5C015F099EC0EF0C2C0C0F0AE
:10137800C3C0C1F014500001C05F1550C15BC0C0AC
:101388001CF0C1C01DF0000E1DBEFF0E1E6E1F6EAC
:10139800010EE9EC07F01CC02AF01DC02BF01EC09E
:1013A8002CF01FC02DF0BAEC02F02AC0B6F02BC00A
:1013B800B7F02CC0B8F02DC0B9F0DCEC0BF0000190
:1013C800B651C66FC651800A7A0FD8A0EEEF09F061
:1013D800F0EF09F0F4EF09F0050EC66F00EF0AF020
:1013E800C651800A850FD8B0FCEF09F0FEEF09F06E
:1013F80000EF0AF0FB0EC66FC6518427000EC6BF69
:10140800FF0E852385BF12EF0AF0BD0E845D020E24
:101418008559D8A012EF0AF014EF0AF01AEF0AF073
:10142800020E856FBC0E846F2CEF0AF085AF26EF95
:101438000AF0700E845DFE0E8559D8B026EF0AF0CA
:1014480028EF0AF02CEF0AF0FE0E856F700E846FFD
:1014580084C018F085C019F060EC0DF088C086F0E3
:1014680089C087F01200000E1D6E000E1C6E030E60
:101478001E6EC3EC08F0000E4C6E000E0001856F66
:10148800280E846F84C01CF085C01DF0000E1DBEA0
:10149800FF0E1E6E1F6E010EE9EC07F01CC0C0F0B7
:1014A8001DC0C1F01EC0C2F01FC0C3F097EF0AF004
:1014B800C0C02AF0C1C02BF0C2C02CF0C3C02DF0B0
:1014C800CD0E2E6ECC0E2F6E8C0E306E3F0E316E02
:1014D800BAEC02F02AC0C0F02BC0C1F02CC0C2F098
:1014E8002DC0C3F0C0C0B6F0C1C0B7F0C2C0B8F0DC
:1014F800C3C0B9F0DCEC0BF0B6C084F0B7C085F01F
:1015080084C018F085C019F060EC0DF0FFEC06F00F
:10151800000E00019C6F9C51D8B495EF0AF097EF2C
:101528000AF08FEF0AF0C0C02AF0C1C02BF0C2C089
:101538002CF0C3C02DF0000E2E6E000E2F6E7A0E0A
:10154800306E430E316E60EC0CF0D8A0AEEF0AF0AE
:10155800B0EF0AF05CEF0AF0000E0001856FFA0E9A
:10156800846F84C018F085C019F060EC0DF0000E8F
:1015780000019C6FC2EF0AF0FFEC06F01D0E00019F
:101588009C65C9EF0AF0CBEF0AF0C0EF0AF0010E34
:101598004C6EFFEC06F01200000E196E000E186E6D
:1015A80060EC0DF0000E1D6E000E1C6E030E1E6E1C
:1015B800C3EC08F0CBB8E3EF0AF0E5EF0AF0DEEF92
:1015C8000AF000019C51D8B4ECEF0AF0EEEF0AF0F3
:1015D800E5EF0AF0000E9C6FA8EC13F080C01CF039
:1015E80081C01DF01E6A1F6A000EE9EC07F01CC0DE
:1015F8002AF01DC02BF01EC02CF01FC02DF07B0E52
:101608002E6E140E2F6E2E0E306E450E316E60EC5F
:101618000CF0D8A012EF0BF014EF0BF0E5EF0AF086
:1016280037EC0AF0010E4C6E000E3F6E9AC03AF08D
:101638009BC03BF096C090F097C091F0000E00015F
:101648009C6F00019C51D8B42CEF0BF02EEF0BF0DF
:1016580025EF0BF0000E9C6FCBBA35EF0BF037EF90
:101668000BF049EF0BF0000E8B6F000E8A6F000E27
:10167800856F000E846F000E1D6E000E1C6E030E2B
:101688001E6EC3EC08F055EF0BF0E2EC04F0E2EC50
:101698000CF0FFEC06F0F6EC05F095EC09F025EF00
:1016A8000BF01200000E1D6E1BBE5FEF0BF05DEF1E
:1016B8000BF069EF0BF01B1E1A1E191E186C000E9A
:1016C80019221A221B22010E1D6E17BE70EF0BF095
:1016D8006EEF0BF07AEF0BF0171E161E151E146C2A
:1016E800000E152216221722010E1D1A000E1E6E5C
:1016F800000E1F6E000E206E000E216E185019107D
:101708001A101B10D8B48BEF0BF08DEF0BF0C3EF52
:101718000BF0010E1C6E97EF0BF0D89018361936A7
:101728001A361B361C2A1BAE9CEF0BF09EEF0BF0F3
:1017380091EF0BF0D8901E361F3620362136185000
:10174800145C195015581A5016581B501758D8A021
:10175800B0EF0BF0B2EF0BF0BBEF0BF01850145ECC
:101768001950155A1A50165A1B50175A1E80D890DD
:101778001B321A32193218321C2E9EEF0BF01D50F4
:10178800D8B4C9EF0BF0CBEF0BF0D3EF0BF0211E61
:10179800201E1F1E1E6C000E1F22202221221EC08A
:1017A80014F01FC015F020C016F021C017F0120069
:1017B8000001B835B935BF6FBF51D8A4E6EF0BF0BB
:1017C800E8EF0BF0F2EF0BF0000EB66F000EB76FFC
:1017D800000EB86F000EB96F5FEF0CF0B6C0BAF02C
:1017E800B7C0BBF0B8C0BCF0B9C0BDF0200E02EF66
:1017F8000CF0D890BD33BC33BB33BA33E82EFDEFC1
:101808000BF0BA51BE6FB88FFF0EB617FF0EB717A1
:10181800FF0EB817000EB917960EBF5FBFBF19EFBE
:101828000CF017EF0CF02FEF0CF0BF51800A970F58
:10183800D8B021EF0CF023EF0CF025EF0CF0E8EF17
:101848000BF0D890B933B833B733B633BF3F25EF71
:101858000CF047EF0CF01F0EBF6535EF0CF037EFBB
:101868000CF03FEF0CF0E8EF0BF0D890B637B73735
:10187800B837B937BF07BF51D8A445EF0CF047EFC9
:101888000CF039EF0CF0BE51D8B44DEF0CF04FEF1F
:101898000CF057EF0CF0B91FB81FB71FB66D000E4C
:1018A800B723B823B923B6C0B6F0B7C0B7F0B8C0ED
:1018B800B8F0B9C0B9F01200000E2A14326E000E4A
:1018C8002B14336E800E2C14346E7F0E2D14356E4F
:1018D8003250331034103510D8A475EF0CF077EF70
:1018E8000CF07FEF0CF0000E2A6E000E2B6E000E2F
:1018F8002C6E000E2D6E000E2E14326E000E2F145C
:10190800336E800E3014346E7F0E3114356E3250C3
:10191800331034103510D8A494EF0CF096EF0CF077
:101928009EEF0CF0000E2E6E000E2F6E000E306E25
:10193800000E316E2DAEA3EF0CF0A5EF0CF0AEEF5C
:101948000CF02A6C2B1ED8B02B2A2C1ED8B02C2AAF
:10195800800E2D5631AEB3EF0CF0B5EF0CF0BEEFA4
:101968000CF02E6C2F1ED8B02F2A301ED8B0302A7B
:10197800800E3156000E2A1A000E2B1A000E2C1A51
:10198800800E2D1A000E2E1A000E2F1A000E301A75
:10199800800E311A2E502A5C2F502B5830502C585C
:1019A80031502D58D8B0DBEF0CF0DDEF0CF0E0EF44
:1019B8000CF0D890E1EF0CF0D88012004B5007E102
:1019C8000F0E4A5CD8B0EBEF0CF0EDEF0CF0F2EF35
:1019D8000CF00001924B932B09EF0DF0030E4C18FD
:1019E800D8B4F9EF0CF0FBEF0CF009EF0DF0040E92
:1019F8004C18D8B402EF0DF004EF0DF009EF0DF01C
:101A0800000E0001936F000E926F0001935109E1DF
:101A1800330E925DD8A013EF0DF015EF0DF05FEFC8
:101A28000DF0824B832B030E4C18D8B41EEF0DF02B
:101A380020EF0DF03AEF0DF0040E4C18D8B427EF54
:101A48000DF029EF0DF03AEF0DF09A51965D9B518C
:101A58009759D8B032EF0DF034EF0DF038EF0DF0A4
:101A6800030E4C6E3AEF0DF0040E4C6E4B5007E12E
:101A7800240E4A5CD8B043EF0DF045EF0DF055EF5A
:101A88000DF083BF51EF0DF02D0E825D010E8359CD
:101A9800D8A051EF0DF053EF0DF05FEF0DF055EFBB
:101AA8000DF0010E4C6E000E936F000E926F000E3B
:101AB800836F000E826F120019BE6CEF0DF0195083
:101AC80009E1280E185CD8A06CEF0DF06EEF0DF050
:101AD8008EEF0DF019BE7AEF0DF0BD0E185C020EF8
:101AE8001958D8A07AEF0DF07CEF0DF080EF0DF0CB
:101AF800020E196EBC0E186E18C014F019C015F03D
:101B0800D3EC11F0000E156E000E146EB9EC11F046
:101B1800D0EF0DF019AE9AEF0DF0D90E185CFF0E4C
:101B28001958D8B09AEF0DF09CEF0DF0C4EF0DF0F6
:101B380019AEA8EF0DF0700E185CFE0E1958D8B04B
:101B4800A8EF0DF0AAEF0DF0AEEF0DF0FE0E196E36
:101B5800700E186E000E156E000E146ED3EC11F098
:101B680018C01AF019C01BF01A1E1B1E1A4A1B2A8D
:101B78001AC014F01BC015F0B9EC11F0D0EF0DF03D
:101B8800000E156E000E146ED3EC11F0000E156EDB
:101B9800000E146EB9EC11F01200000EBE6E000EAD
:101BA800BD6E240EBA6E000EBB6E000EBC6E070E24
:101BB800C66EC00EC26EF70EC36EC468C5681F0E2F
:101BC8003A01706F6069C00E506F070E806F7F0E0C
:101BD800406F000E716F000E816F000E516F000E86
:101BE800416F000E616F000E5A6F000E5B6F000EA2
:101BF8006A6F000E6B6F000E7A6F000E7B6F000E1F
:101C0800826F000E426F000E526F000E626F000E60
:101C1800726F4369536963697369070E836F446917
:101C28005469646974690F0E846F1F0ECF6F090EB3
:101C3800DC6F0E0E016F0A0EE56F0D0E006F1D0EA4
:101C4800C96F100E046F070ED96F090ED16F0F0EF2
:101C5800036F130E0B6F080EDB6F080ED26F1E0E8C
:101C6800D06F1200600E4324D96EDA6A000EDA22B1
:101C7800000EDF6E3D01F9A744EF0EF046EF0EF0BF
:101C88005BEF0EF0600E4324D96EDA6A000EDA229A
:101C98000001DF8202D85BEF0EF00500FA6ED75123
:101CA800FD6ED851FE6EF850FF6EFA5012003D01DD
:101CB800F9A361EF0EF063EF0EF078EF0EF0600E0F
:101CC8004324D96EDA6A000EDA220001DF8402D8D2
:101CD80078EF0EF00500FA6ED551FD6ED651FE6E06
:101CE800F850FF6EFA501200600E4324D96EDA6A7B
:101CF800000EDA22DF50D8B484EF0EF086EF0EF033
:101D080096EF0EF002D894EF0EF005000001FA6E7F
:101D1800D351FD6ED451FE6EF850FF6EFA5012008A
:101D280098EF0EF0DBEC12F01200000E196E17BEE1
:101D3800A2EF0EF0A0EF0EF0A8EF0EF0166C171E33
:101D4800D8B0172A010E196E15BEAFEF0EF0ADEF21
:101D58000EF0B5EF0EF0146C151ED8B0152A010E52
:101D6800191A000E1B6E000E1A6E16501710D8B4F2
:101D7800C0EF0EF0C2EF0EF0EAEF0EF0010E186E93
:101D8800CAEF0EF0D89016361736182A17AECFEFCE
:101D98000EF0D1EF0EF0C6EF0EF0D8901A361B36C3
:101DA8001650145C17501558D8A0DDEF0EF0DFEF71
:101DB8000EF0E4EF0EF01650145E1750155A1A8004
:101DC800D89017321632182ED1EF0EF01950D8B419
:101DD800F0EF0EF0F2EF0EF0F6EF0EF01A6C1B1E9D
:101DE800D8B01B2A1AC014F01BC015F01200390114
:101DF80093976C0E146E1C0E156EBCEC13F0390123
:101E080093996A0E146E210E156EB7EC13F0000E3E
:101E18003D01EC6F000EED6F000EEE6F000EEF6FE0
:101E2800000EF06F000EF16FB00EF26F800EF36FC0
:101E3800000EF46F8A0EF56F000EF66F000EF76F46
:101E4800000EF86F000EF96F000EFA6FD80E146EC0
:101E5800270E156EC6EC13F0D60E146E270E156EEF
:101E6800C1EC13F0C80E146E270E156ECBEC13F0F0
:101E7800000E406E000E456E000E446E080E000106
:101E8800DD6F000E436E000E426E000E416E39018A
:101E980093871200000E256E000E246E46504710E0
:101EA80048104910D8B45BEF0FF05DEF0FF093EFD7
:101EB8000FF03C0160AB63EF0FF065EF0FF07DEFC3
:101EC8000FF0200E146EA10E156E070E166E000E82
:101ED800176E46C018F047C019F048C01AF049C03C
:101EE8001BF056EC0BF014C024F015C025F093EF4E
:101EF8000FF0E00E146E5E0E156EF80E166EFF0EE5
:101F0800176E46C018F047C019F048C01AF049C00B
:101F18001BF056EC0BF014C024F015C025F024C0BB
:101F280022F025C023F01200D40EF66E270EF76EAD
:101F3800000EF86E09006F00D4FFDEF009006F0094
:101F4800D4FFDFF0DE0EF66E270EF76E000EF86E89
:101F580009006F00D4FF4CF000EE60F03D0EEE6A11
:101F6800E806FDE100EE3AF0120EEE6AE806FDE141
:101F7800080ED56E000ED66E000ED76E000EF86EE7
:101F8800000140EF13F0000E3E01DE6F000EDF6F20
:101F9800000EE06F000EE16F000EE46F000EE56FBB
:101FA800000EEA6F000EEC6F000EF16F580EF36F23
:101FB800020EF46F000EF56F000EF66F000EF76F4D
:101FC800000EF96F000EFA6F000EFB6F000EFC6F2B
:101FD800000EFD6F000EFE6F1F0EFF6F840EF86F70
:021FE8001200E5
:101FEC003901A19F3F01185100017C6F3F0119512C
:101FFC0000017D6F3F011A5100017E6F7F6B3C0128
:10200C0060AB0BEF10F00DEF10F016EF10F0010EAF
:10201C0000017827000E79237A237B231FEF10F021
:10202C00FF0E00017827FF0E7923FF0E7A23FF0E97
:10203C007B231100D28A000ED2BE010E146ED29EEA
:10204C00550ED46EAA0ED46ED490000ED76E000E20
:10205C00D66E080ED56E550ED46EAA0ED46ED480E4
:10206C0014B002D0D29E01D0D28E390183998397BD
:10207C00818F818B818D8A81888F879189831200D2
:10208C0020EC10F01CEC13F0D1EC0DF09CEC13F0E8
:10209C0098EC12F0C7EC0FF0AFEC12F021EC12F050
:1020AC0050EC13F06CEC13F084EC13F081EC12F0A8
:1020BC00C5EC12F016EC11F090EC13F06BEC10F088
:1020CC0078EC13F0FBEC0EF01200C00E9B6E000EC1
:1020DC009C6E050E9D6E000E996E000E986E390169
:1020EC00A89D98506F0064FE16F0176A16C017F082
:1020FC00166A16100001CD6F1750CE6F3901A89FCC
:10210C00988FBC0E146E260E156ED0EC13F0030EC9
:10211C009A6E12003901A19D3F011551466E165160
:10212C00476E1751486E496A3C0160ABA0EF10F046
:10213C00A2EF10F0ABEF10F0010E00017827000EAB
:10214C0079237A237B23B4EF10F0FF0E000178275C
:10215C00FF0E7923FF0E7A23FF0E7B231100080E4E
:10216C000001DD61BCEF10F0BEEF10F0D6EF10F007
:10217C00700E4424D96EDA6A000EDA22DF503D016B
:10218C00EA6F442A070E4464CEEF10F0D0EF10F043
:10219C00D2EF10F0000E446E0001DD2BD8EF10F0E2
:0621AC00390193991200B5
:1021B4006F0060FF11F00001D951DA11D8B4E5EFD6
:1021C40010F0E7EF10F0F4EF10F002D8F4EF10F095
:1021D4000500FA6ED951FD6EDA51FE6EF850FF6EAD
:1021E400FA501200600047F0D8FF11006F0060FF42
:1021F40012F00001DB51DC11D8B403EF11F005EF4C
:1022040011F012EF11F002D812EF11F00500FA6E7E
:10221400DB51FD6EDC51FE6EF850FF6EFA50120079
:1022240060004BF0D8FF1100000EA76E000EA86EE0
:10223400050EA96E000EA56E000EA46E3901A69DB2
:10224400A4506F0094FE14F0156A14C015F0146ABB
:1022540014100001C96F1550CA6F010EA66E12004A
:102264006F0060FF13F03901A7913C4A3D2A3D50AD
:1022740009E10A0E3C5CD8A042EF11F044EF11F0E2
:102284004AEF11F039EC12F0000E3D6E000E3C6E78
:1022940060004FF0D8FF11003901A9936F00D0FD01
:1022A40003F06F00D4FD04F003C001F004C002F099
:1022B40002D868EF11F005000001FA6ED151FD6EED
:0E22C400D251FE6EF850FF6EFA50120011005B
:1022D4003901AA916F00C0FD07F06F00C4FD08F03A
:1022E40007C005F008C006F002D884EF11F005001D
:1022F4000001FA6ECF51FD6ED051FE6EF850FF6EA4
:10230400FA501200110014C016F015C017F0D8903E
:1023140017321632D890173216321650696E14C01E
:1023240016F0030E1616060E176ED8901636172ED4
:1023340097EF11F01650686E120014C016F015C015
:1023440017F0D89017321632D8901732163216502A
:102354006D6E14C016F0030E1616060E176ED89086
:102364001636172EB1EF11F016506C6E120014C011
:1023740016F015C017F0D89017321632D8901732CD
:1023840016321650616E14C016F0030E1616060EA1
:10239400176ED8901636172ECBEF11F01650606ECC
:1023A400120014C016F015C017F0D8901732163268
:1023B400D890173216321650656E14C016F0030EFC
:1023C4001616060E176ED8901636172EE5EF11F076
:0623D4001650646E1200B9
:1023DC003901A89F0001CB51CC11D8B4F8EF11F002
:1023EC00FAEF11F007EF12F002D807EF12F0050028
:1023FC00FA6ECB51FD6ECC51FE6EF850FF6EFA505A
:10240C0012001100186E600063F0F1FE3E01F88FAF
:10241C00F89DF881F8B115EF12F017EF12F010EFEC
:10242C0012F0F051176E166AEF511624146E000E4E
:10243C001720156E1200800E3F011E6F420E1F6F8B
:10244C00000E206F040E216F000E236F000E226F02
:10245C00010E1D6F1C691B693901918B918F918D38
:10246C003F011F8F12000001C751C811D8B441EFB2
:10247C0012F043EF12F050EF12F002D850EF12F0BE
:10248C000500FA6EC751FD6EC851FE6EF850FF6E16
:10249C00FA5012001200CDAE56EF12F058EF12F0B7
:1024AC005EEF12F001C098F002C099F068EF12F0E4
:1024BC0000019851015C9A6F995102589B6FD8900A
:1024CC009B339A331200CDAC6EEF12F070EF12F01A
:1024DC0076EF12F005C094F006C095F080EF12F084
:1024EC0000019451055C966F95510658976FD890E2
:1024FC00973396331200830E726E000E736E000EBD
:10250C00716E000E706ED20E146E240E156EDAEC17
:10251C0013F03F015E513F0B80095E6F3901AA91A8
:10252C009A811200830E766E000E776E000E756E19
:10253C00000E746EA20E146E240E156EDFEC13F0EA
:10254C003F015E51CF0B20095E6F3901A99399832E
:10255C001200010EA26E000EA16E000EA36EF90EFB
:10256C009F6E000E9E6E3901A7919781DA0E146E44
:10257C00270E156ED5EC13F0E00EA06E1200000EB7
:10258C003C01616F030E626F020E636F000E646F8D
:10259C00000E656F020E666F080E676F000E686F97
:1025AC00000E696F850E606F1200680E4324D96EA1
:1025BC00DA6A000EDA226F00A3F7DFFF432A070E58
:1025CC004364EBEF12F0EDEF12F0EFEF12F0000EB0
:1025DC00436E412A12009AA4F6EF12F0F8EF12F0B3
:1025EC0001EF13F09A900A50996E600027F098FF53
:1025FC009A8006EF13F00A50996E600027F098FF4E
:02260C001200BA
:102610003901A19B000E466E000E476E000E486EFB
:10262000000E496E000E00017C6F000E7D6F000EE3
:102630007E6F000E7F6F1100000E3901C06F000E1B
:10264000C16F000EC26F000EC36F000EC46F000E8C
:10265000C56F000EC66F000EC76F12009A826F0022
:1026600060FE10F06F0064FE0FF00F500B6E105004
:102670000D6E0BC00EF00DC009F00EC00AF0120076
:1026800046EC10F0D28ED28CCE0E146E270E156E44
:10269000D5EC13F0D0EC0AF04AEF13F057EF00F04E
:1026A000050EAE6E000EAD6E000EAF6EAB68000E86
:1026B000AA6E3901A495B00EAC6E12002EEC13F088
:1026C00009C04AF00AC04BF0D8904B324A32B0EC05
:1026D00013F03901A89F1200800E626E000E616E29
:1026E000000E606E3F015F513F0B80095F6F12006B
:1026F000800E666E000E656E000E646E3F015F51C7
:10270000CF0B20095F6F1200800E6A6E590E696E42
:10271000400E686E3F015F51F30B04095F6F1200BA
:10272000800E6E6E590E6D6E400E6C6E3F015F51E5
:10273000FC0B01095F6F1200600E3901D96F000EAA
:10274000DB6F000EDD6F080EDF6F000EDE6F120014
:10275000220E08EC12F014C080F015C081F01200B7
:10276000CDC009F0CEC00AF0F1EC12F0120014C096
:10277000D9F015C0DAF0120014C0DBF015C0DCF09F
:10278000120014C0D5F015C0D6F0120014C0D7F056
:1027900015C0D8F0120014C0D3F015C0D4F0120048
:1027A00014C0CBF015C0CCF0120014C0C7F015C097
:1027B000C8F0120014C0CFF015C0D0F0120014C041
:1027C000D1F015C0D2F01200DBEC12F012000001C3
:0F27D0009C2B1200F1FF120012001200110001E9
:020000040020DA
:10000000FF0FFF0FFF0FFF0FFF0FFF0FFF0FFF0F80
:020000040030CA
:0A0000008CFFFFFF9FFFFFFFFFFFD3
:00000001FF
