:0400000057EF00F0C6
:10000800AC17AC17AC17AC17AC17AC17AC17AC17D0
:10001800AC17AC17AC17AC17AC17361797154A15B1
:10002800AC17AC17AC17AC17AC17AC17AC17AC17B0
:10003800AC17AC17AC170B16FC15AC17AC17AC17F4
:10004800AC17AC17AC17AC172B00AC17AC17AC1728
:10005800AC17AC17AC17AC17AC17AC17AC17AC1780
:10006800AC17AC17AC17AC17AC17AC17AC17AC1770
:100078004416AC172B00AC17AC17AC172B002B0091
:100088002B002B002B002B002B002B00AC17AD16E0
:10009800AC178616AC17AC172B002B002B002B00C7
:0A00A8009316AC17FF00D5EF29F006
:101000000073746172416363656C506F7765723A07
:101010002025640A0054696D653A20092564202062
:1010200020202009006163744D506F773A202564B9
:101030000A00737461792052696768740A0042611A
:101040007474657279204C6F770073746179204CE9
:101050006566740A004D506F773A2025660A00498C
:101060004E46004E414E00696E66006E616E006C29
:0310700066000017
:10107400000E0001AA6F000EA96F85C0BBF086C0E8
:10108400BCF087C0BDF088C0BEF0BEBF4EEF08F014
:101094004CEF08F064EF08F0000EAA6F010EA96F80
:1010A400BBC014F0BCC015F0BDC016F0BEC017F034
:1010B4004FEC2CF014C0BBF015C0BCF016C0BDF052
:1010C40017C0BEF0000E0001C26F000EC16F3AC01F
:1010D400ADF03BC0AEF0A951AA11D8A474EF08F04A
:1010E40076EF08F07DEF08F03EA47BEF08F07DEF8B
:1010F40008F097EF08F0A951AA11D8A484EF08F0DA
:1011040086EF08F08CEF08F0000E906F2B0E8F6FB7
:1011140090EF08F0000E906F2D0E8F6F8FC034F19A
:10112400C14BC22BAD07D8A0AE07BBC014F0BCC0E6
:1011340015F0BDC016F0BEC017F099EC24F01404ED
:101144001510D8A4A8EF08F0AAEF08F001EF09F0F1
:10115400BF0E00018A6FFF0E8B6F89518C6F8D6BF0
:101164008A518C278B518D238D510AE11A0E8C5D87
:10117400D8A0BFEF08F0C2EF08F0010EC3EF08F0EB
:10118400000E916F926B91519211D8B4CCEF08F08C
:10119400CEEF08F0DCEF08F0340EC125146E010E1A
:1011A400C221156E5F0E166E100E176EA0EC29F09C
:1011B400E8EF08F0340EC125146E010EC221156E3D
:1011C400670E166E100E176EA0EC29F00001FD0ECE
:1011D400AD27FF0EAE2383C026F084C027F0340E63
:1011E400286E010E296EADC02AF0AEC02BF0CAECF9
:1011F40026F026C083F027C084F090EF0EF0BBC029
:1012040014F0BCC015F0BDC016F0BEC017F099ECC8
:1012140024F014501510D8A412EF09F014EF09F0BB
:101224006BEF09F0BF0E00018A6FFF0E8B6F8951BF
:101234008C6F8D6B8A518C278B518D238D510AE1D4
:101244001A0E8C5DD8A029EF09F02CEF09F0010EDD
:101254002DEF09F0000E936F946B93519411D8B451
:1012640036EF09F038EF09F046EF09F0340EC125E6
:10127400146E010EC221156E630E166E100E176EDB
:10128400A0EC29F052EF09F0340EC125146E010EC2
:10129400C221156E6B0E166E100E176EA0EC29F09F
:1012A4000001FD0EAD27FF0EAE2383C026F084C0DF
:1012B40027F0340E286E010E296EADC02AF0AEC0A0
:1012C4002BF0CAEC26F026C083F027C084F090EF00
:1012D4000EF0000E0001C36F000EC46F800EC56FC8
:1012E4003F0EC66F000EC06F000EBF6FBBC014F080
:1012F400BCC015F0BDC016F0BEC017F0000E186ECD
:10130400000E196E000E1A6E000E1B6EE3EC27F031
:10131400D8B08FEF09F091EF09F016EF0AF0B0EFB3
:1013240009F0C3C02AF0C4C02BF0C5C02CF0C6C05D
:101334002DF0000E2E6E000E2F6E200E306E410E1C
:10134400316E83EC13F02AC0C3F02BC0C4F02CC060
:10135400C5F02DC0C6F00001BF4BC02BBBC06DF063
:10136400BCC06EF0BDC06FF0BEC070F0000E2E6E3B
:10137400000E2F6E200E306E410E316EC3C02AF067
:10138400C4C02BF0C5C02CF0C6C02DF083EC13F004
:101394002AC071F02BC072F02CC073F02DC074F011
:1013A40016EC24F00001D8B0DAEF09F0DCEF09F014
:1013B40093EF09F0FCEF09F0C3C014F0C4C015F0BA
:1013C400C5C016F0C6C017F0000E186E000E196ED8
:1013D400200E1A6E410E1B6EABEC15F014C0C3F058
:1013E40015C0C4F016C0C5F017C0C6F00001BF0791
:1013F400D8A0C007BBC06DF0BCC06EF0BDC06FF01C
:10140400BEC070F0C3C071F0C4C072F0C5C073F048
:10141400C6C074F016EC24F00001D8A014EF0AF052
:1014240016EF0AF0DEEF09F089C01AF01B6A08EC27
:101434002AF01A500001B06FB0C0AFF0670EB019B7
:10144400D8A427EF0AF029EF0AF04FEF0AF03C5036
:101454003D10D8A430EF0AF032EF0AF036EF0AF06C
:10146400000E3D6E010E3C6E3DBE43EF0AF03D5052
:1014740006E13C04D8B041EF0AF043EF0AF049EF2B
:101484000AF0000EAC6F060EAB6F58EF0AF03CC0CA
:10149400ABF03DC0ACF058EF0AF03DBE54EF0AF09B
:1014A40056EF0AF043EF0AF049EF0AF0670EB0195D
:1014B400D8A45FEF0AF061EF0AF090EF0AF0C0AF32
:1014C4006FEF0AF0FC0EBF5DFF0EC059D8A06DEFA0
:1014D4000AF06FEF0AF08EEF0AF0FF0E8A6FFF0E2C
:1014E4008B6FABC08CF0ACC08DF08A518C278B51C4
:1014F4008D23BF518C5D8D51800A8E6FC051800A3F
:101504008E59D8A088EF0AF08AEF0AF08EEF0AF01D
:10151400660EAF6F90EF0AF0650EAF6FABC0A1F02F
:10152400ACC0A2F0670EB019D8A49BEF0AF09DEFEF
:101534000AF0ADEF0AF0660EAF19D8A4A4EF0AF0D2
:10154400A6EF0AF0AFEF0AF0C0BFADEF0AF0ABEFC1
:101554000AF0AFEF0AF0A14BA22B660EAF19D8A484
:10156400B6EF0AF0B8EF0AF0D8EF0AF0C0BFBFEF49
:101574000AF0BDEF0AF0CBEF0AF0000EC36F000EC5
:10158400C46F800EC56F3F0EC66F000EC06F000E95
:10159400BF6F670EB019D8B4D2EF0AF0D4EF0AF0D7
:1015A400D8EF0AF0BF51A127C051A223000EBA6F91
:1015B400000EB96FBBC0B1F0BCC0B2F0BDC0B3F097
:1015C400BEC0B4F0C3C0A3F0C4C0A4F0C5C0A5F0AD
:1015D400C6C0A6F069EF0BF0B1C014F0B2C015F0AC
:1015E400B3C016F0B4C017F0C3C018F0C4C019F0EB
:1015F400C5C01AF0C6C01BF0ABEC15F014C02DF03A
:1016040015C02EF016C02FF017C030F057EC1BF0A9
:101614002DC0B5F02EC0B6F02FC0B7F030C0B8F072
:10162400B5C079F0B6C07AF0B7C07BF0B8C07CF032
:101634000FEC23F079C0A7F07AC0A8F0B1C079F01C
:10164400B2C07AF0B3C07BF0B4C07CF0C3C02EF05B
:10165400C4C02FF0C5C030F0C6C031F0B5C02AF008
:10166400B6C02BF0B7C02CF0B8C02DF083EC13F04B
:101674002AC07DF02BC07EF02CC07FF02DC080F0FE
:1016840053EC2BF079C0B1F07AC0B2F07BC0B3F068
:101694007CC0B4F0C3C014F0C4C015F0C5C016F0CB
:1016A400C6C017F0000E186E000E196E200E1A6ECA
:1016B400410E1B6EABEC15F014C0C3F015C0C4F0A2
:1016C40016C0C5F017C0C6F00001B94BBA2BA15122
:1016D400B95DBA51800A8A6FA251800A8A59D8A08A
:1016E40076EF0BF078EF0BF0EEEF0AF0C3C02AF0C0
:1016F400C4C02BF0C5C02CF0C6C02DF0000E2E6E59
:10170400000E2F6EA00E306E400E316E83EC13F07F
:101714002AC0B5F02BC0B6F02CC0B7F02DC0B8F07D
:10172400B1C06DF0B2C06EF0B3C06FF0B4C070F071
:10173400B5C071F0B6C072F0B7C073F0B8C074F041
:1017440016EC24F00001D8B0AAEF0BF0ACEF0BF0CC
:10175400B6EF0BF0000EB56F000EB66F000EB76F4C
:10176400000EB86FDFEF0BF0B1C014F0B2C015F08B
:10177400B3C016F0B4C017F0B5C018F0B6C019F075
:10178400B7C01AF0B8C01BF0E3EC27F0D8A0CDEF37
:101794000BF0CFEF0BF0DFEF0BF00001A7B1D5EFAB
:1017A4000BF0D7EF0BF0DFEF0BF0000EB56F000E70
:1017B400B66F000EB76F000EB86FBBC06DF0BCC043
:1017C4006EF0BDC06FF0BEC070F0B5C071F0B6C0B1
:1017D40072F0B7C073F0B8C074F022EC11F06DC0B1
:1017E400B1F06EC0B2F06FC0B3F070C0B4F0B1C06D
:1017F4006DF0B2C06EF0B3C06FF0B4C070F0000E04
:101804002E6E000E2F6E200E306E410E316EA3C070
:101814002AF0A4C02BF0A5C02CF0A6C02DF083ECB8
:1018240013F02AC071F02BC072F02CC073F02DC0DD
:1018340074F016EC24F00001D8A023EF0CF025EF8F
:101844000CF04DEF0CF0BF4BC02BA3C02AF0A4C08A
:101854002BF0A5C02CF0A6C02DF0000E2E6E000EAD
:101864002F6E200E306E410E316E83EC13F02AC0C1
:10187400A3F02BC0A4F02CC0A5F02DC0A6F0660EDA
:101884000001AF19D8A449EF0CF04BEF0CF04DEF69
:101894000CF0A14BA22BA3C0C3F0A4C0C4F0A5C0FC
:1018A400C5F0A6C0C6F0650EAF19D8B45CEF0CF055
:1018B4005EEF0CF064EF0CF0BFC09FF0C0C0A0F06E
:1018C40068EF0CF0000EA06F000E9F6F000E9E6F6D
:1018D400000E9D6F000E9C6F000E9B6F000EBA6F82
:1018E400000EB96F64EF0DF0B1C014F0B2C015F082
:1018F400B3C016F0B4C017F0C3C018F0C4C019F0D8
:10190400C5C01AF0C6C01BF0ABEC15F014C02DF026
:1019140015C02EF016C02FF017C030F057EC1BF096
:101924002DC0B5F02EC0B6F02FC0B7F030C0B8F05F
:10193400B5C079F0B6C07AF0B7C07BF0B8C07CF01F
:101944000FEC23F079C0A7F07AC0A8F03EB8ADEF51
:101954000CF0AFEF0CF0CDEF0CF00001A751A81183
:10196400D8A4B7EF0CF0B9EF0CF0CDEF0CF0670E84
:10197400B019D8A4C0EF0CF0C2EF0CF0CDEF0CF00E
:10198400A0BFC9EF0CF0C7EF0CF0CDEF0CF09B4BF0
:101994009C2B18EF0DF000019D519E11D8A4D5EF9A
:1019A4000CF0D7EF0CF001EF0DF0A0BFDEEF0CF060
:1019B400DCEF0CF001EF0DF0340EC125D96E010EF1
:1019C400C221DA6E2E0EDF6EC14BC22BAD07D8A03A
:1019D400AE07000E9E6F010E9D6F01EF0DF0340EE9
:1019E400C125D96E010EC221DA6E300EDF6EC14BF5
:1019F400C22BAD07D8A0AE079B07D8A09C079B516C
:101A04009C11D8A408EF0DF00AEF0DF0F1EF0CF0E3
:101A1400340EC125D96E010EC221DA6EA751300FE2
:101A2400DF6EC14BC22BAD07D8A0AE07B1C079F0B1
:101A3400B2C07AF0B3C07BF0B4C07CF0C3C02EF067
:101A4400C4C02FF0C5C030F0C6C031F0B5C02AF014
:101A5400B6C02BF0B7C02CF0B8C02DF083EC13F057
:101A64002AC07DF02BC07EF02CC07FF02DC080F00A
:101A740053EC2BF079C0B1F07AC0B2F07BC0B3F074
:101A84007CC0B4F0C3C014F0C4C015F0C5C016F0D7
:101A9400C6C017F0000E186E000E196E200E1A6ED6
:101AA400410E1B6EABEC15F014C0C3F015C0C4F0AE
:101AB40016C0C5F017C0C6F000019F07D8A0A00744
:101AC400B94BBA2BA151B95DBA51800A8A6FA251A0
:101AD400800A8A59D8B071EF0DF073EF0DF081EFE1
:101AE4000DF0C2BF7FEF0DF0C25109E14B0EC15D95
:101AF400D8A07FEF0DF081EF0DF076EF0CF09D5143
:101B04009E11D8A488EF0DF08AEF0DF09BEF0DF035
:101B14003EA88FEF0DF091EF0DF09BEF0DF0340E1A
:101B2400C125D96E010EC221DA6E2E0EDF6EC14BB5
:101B3400C22B340EC125D96E010EC221DA6E000EFD
:101B4400DF6E650EAF19D8A4AAEF0DF0ACEF0DF05F
:101B54007EEF0EF0000EBA6F4F0EB96F340EB9253A
:101B6400D96E010EBA21DA6E000EDF6E000EAA6F76
:101B7400000EA96FC0BFC3EF0DF0C1EF0DF0CBEFA6
:101B84000DF0000EAA6F010EA96FBF6DC01FD8B073
:101B9400C02B000EAC6F020EAB6FFCEF0DF0B9075B
:101BA400D8A0BA07340EB925D96E010EBA21DA6E5F
:101BB400BFC014F0C0C015F0000E176E0A0E166EEA
:101BC4008BEC27F01450300FDF6EBFC014F0C0C090
:101BD40015F0000E176E0A0E166E68EC26F014C08F
:101BE400BFF015C0C0F00001AB07D8A0AC07AD072B
:101BF400D8A0AE07BF51C011D8A403EF0EF005EF73
:101C04000EF0D1EF0DF0ACBF12EF0EF0AC5106E1C7
:101C1400AB05D8B010EF0EF012EF0EF0D1EF0DF0CF
:101C2400B907D8A0BA07A951AA11D8A41CEF0EF07D
:101C34001EEF0EF024EF0EF0000E966F2B0E956F34
:101C440028EF0EF0000E966F2D0E956F340EB92509
:101C5400D96E010EBA21DA6E600057F2DFFFAD07CC
:101C6400D8A0AE07B907D8A0BA07BF0E8A6FFF0E77
:101C74008B6F89518C6F8D6B8A518C278B518D237F
:101C84008D510AE11A0E8C5DD8A04BEF0EF04EEF89
:101C94000EF0010E4FEF0EF0000E996F9A6B9951F2
:101CA4009A11D8A458EF0EF05AEF0EF060EF0EF030
:101CB400000E986F650E976F64EF0EF0000E986F2C
:101CC400450E976F340EB925D96E010EBA21DA6E1E
:101CD40060005FF2DFFFAD07D8A0AE07340EC12568
:101CE400146E010EC221156E340EB925166E010E46
:101CF400BA21176EA0EC29F083C026F084C027F027
:101D0400340E286E010E296EADC02AF0AEC02BF041
:101D1400CAEC26F026C083F027C084F012006000CD
:101D240027F3D9FF60002BF3DAFF6F007BFFF6FF88
:101D34006F0077FFF7FFF86A0800F550250AD8A46A
:101D4400A6EF0EF0A8EF0EF0FFEF10F0600027F3FF
:101D5400D9FF60002BF3DAFFDE2A000EDD22000E2D
:101D64003B6E000E3A6E3AC03EF03BC03FF03C681A
:101D74003D68600027F3D9FF60002BF3DAFF6F00A2
:101D84007BFFF6FF6F0077FFF7FFF86A0800F55056
:101D94001A6E1B6A08EC2AF01A500001DF6FDF513B
:101DA400D8B4D7EF0EF0D9EF0EF021EF0FF06000AA
:101DB40027F3D9FF60002BF3DAFF6F0078FFCDF033
:101DC4006F0074FFCEF0010ECD27000ECE2360000D
:101DD40037F3F6FF60003BF3F7FFF86A0800F550AD
:101DE4001A6E1B6A08EC2AF01A500001E06FE051E9
:101DF400D8B4FFEF0EF001EF0FF021EF0FF0600009
:101E040027F3D9FF60002BF3DAFF6F0078FFCDF0E2
:101E14006F0074FFCEF0020ECD27000ECE236000BB
:101E240037F3F6FF60003BF3F7FFF86A0800F5505C
:101E34001A6E1B6A08EC2AF01A500001E16F600068
:101E440027F3D9FF60002BF3DAFF6F007BFFF6FF67
:101E54006F0077FFF7FFF86A0800F550640AD8B4FA
:101E640036EF0FF038EF0FF04FEF0FF0600027F36D
:101E7400D9FF60002BF3DAFF6F007BFFF6FF6F00E2
:101E840077FFF7FFF86A0800F550690AD8A44DEF08
:101E94000FF04FEF0FF099EF0FF0600027F3D9FF29
:101EA40060002BF3DAFFDE2A000EDD2260002FF340
:101EB400D9FF600033F3DAFF6F007CFFCDF0020E30
:101EC400DE266F007CFFCEF0000EDD22600037F3CB
:101ED400D9FF60003BF3DAFF6F0078FFD1F06F00A9
:101EE40074FFD2F0000ED2BFFF0ED36FD46FD56F44
:101EF400D66FD76FD86FC7C060F0C8C061F0D1C0CB
:101F040062F0D2C063F0D3C064F0D4C065F0D5C031
:101F140066F0D6C067F0D7C068F0D8C069F078EC36
:101F240017F060C0C7F061C0C8F021EF11F0660E71
:101F3400DF19D8A4A0EF0FF0A2EF0FF0F4EF0FF029
:101F4400600027F3D9FF60002BF3DAFF6F007BFFFB
:101F5400F6FF6F0077FFF7FFF86A08006F00D4FF01
:101F6400E2F0600027F3D9FF60002BF3DAFFDE2AEA
:101F7400000EDD2260002FF3D9FF600033F3DAFF97
:101F84006F007CFFCDF0040EDE266F007CFFCEF0E8
:101F9400000EDD22600037F3D9FF60003BF3DAFF67
:101FA4006F0078FFDBF06F0078FFDCF06F0078FFE4
:101FB400DDF06F0078FFDEF0C7C083F0C8C084F0A6
:101FC400DBC085F0DCC086F0DDC087F0DEC088F0C1
:101FD400E2C089F03AEC08F083C0C7F084C0C8F0CE
:101FE40021EF11F0DF0E146E000E156E6F0E166EDB
:101FF400100E176E000E196E020E186E18EC25F0F6
:1020040014501510D8A409EF10F00BEF10F0BEEF28
:1020140010F0600027F3D9FF60002BF3DAFF6F00A4
:1020240078FFCDF06F0074FFCEF0010E0001CD27D4
:10203400000ECE23600037F3F6FF60003BF3F7FF9A
:10204400F86A08006F00D4FFE2F0BF0ECD6FFF0EF8
:10205400CE6F600027F3D9FF60002BF3DAFF6F0027
:102064007BFFF6FF6F0077FFF7FFF86A0800F55073
:10207400CF6FD06BCD51CF27CE51D023D0510AE1B1
:102084001A0ECF5DD8A049EF10F04CEF10F0010EFE
:102094004DEF10F0000ED96FDA6BD951DA11D8B4C4
:1020A40056EF10F058EF10F07CEF10F060002FF3B3
:1020B400D9FF600033F3DAFF6F007CFFCDF0040E2C
:1020C400DE266F007CFFCEF0000EDD22600037F3C9
:1020D400D9FF60003BF3DAFF6F0078FFDBF06F009D
:1020E40078FFDCF06F0078FFDDF06F0078FFDEF042
:1020F4009EEF10F060002FF3D9FF600033F3DAFF96
:102104006F007CFFCDF0040EDE266F007CFFCEF066
:10211400000EDD22600037F3D9FF60003BF3DAFFE5
:102124006F0078FFDBF06F0078FFDCF06F0078FF62
:10213400DDF06F0078FFDEF0020E600027F3D9FFB8
:1021440060002BF3DAFFDE26000EDD22C7C083F029
:10215400C8C084F0DBC085F0DCC086F0DDC087F049
:10216400DEC088F0E2C089F03AEC08F083C0C7F022
:1021740084C0C8F021EF11F0600027F3D9FF60009C
:102184002BF3DAFF6F007BFFF6FF6F0077FFF7FF9B
:10219400F86A0800F550250AD8A4D3EF10F0D5EF5B
:1021A40010F0EFEF10F0600027F3D9FF60002BF37D
:1021B400DAFFDE2A000EDD22000E176E250E166EE3
:1021C400C7C018F0C8C019F08AEC28F0000E00014E
:1021D400C86F010EC76F21EF11F0600027F3D9FF1C
:1021E40060002BF3DAFFDE2A000EDD22000E000170
:1021F400C86F000EC76F21EF11F0600027F3D9FFFD
:1022040060002BF3DAFF6F007BFFF6FF6F0077FFB0
:10221400F7FFF86A0800F550166E176AC7C018F081
:10222400C8C019F08AEC28F0600027F3D9FF6000D9
:102234002BF3DAFFDE2A000EDD22E8EF10F01200A5
:1022440000017051800B756F70517025776F6FAFFF
:102254002EEF11F030EF11F031EF11F0778177515B
:10226400D8B437EF11F039EF11F04EEF11F07729B0
:10227400D8A43FEF11F041EF11F049EF11F0000E37
:102284006D6F000E6E6F000E6F6F000E706F6F8FAC
:10229400000E706F56EF11F0000E6D6F000E6E6F32
:1022A400000E6F6F000E706F7451800B766F755156
:1022B4007619D8B460EF11F062EF11F063EF11F00A
:1022C400758D74517425766F73AF6BEF11F06DEFEC
:1022D40011F06EEF11F076817651D8B474EF11F0ED
:1022E40076EF11F08BEF11F07629D8A47CEF11F082
:1022F4007EEF11F086EF11F0000E716F000E726F19
:10230400000E736F000E746F738F000E746F93EF73
:1023140011F0000E716F000E726F000E736F000EDD
:10232400746F7751765DD8B09AEF11F09CEF11F08D
:10233400C3EF11F075ADA1EF11F0A3EF11F0A5EF0C
:1023440011F0800E751B77C078F076C077F078C0F6
:1023540076F06DC078F071C06DF078C071F06EC029
:1023640078F072C06EF078C072F06FC078F073C00D
:102374006FF078C073F070C078F074C070F078C0FB
:1023840074F0000E786F775176C036F0376A365E97
:10239400000E375A37BED8EF11F0375009E11A0E44
:1023A400365CD8A0D8EF11F0DAEF11F011EF12F08B
:1023B4006D516E116F117011D8A4E3EF11F0E6EFB7
:1023C40011F0010EE7EF11F0000E786F000E6D6F43
:1023D400000E6E6F000E6F6F000E706F76C077F098
:1023E4001AEF12F078A1F9EF11F0FBEF11F001EF01
:1023F40012F0D89078310109786F03EF12F0D89079
:1024040078336DA108EF12F00AEF12F00BEF12F01F
:10241400788F703570336F336E336D33772B76511D
:10242400775DD8A018EF12F01AEF12F0F4EF11F064
:1024340075BD1FEF12F021EF12F061EF12F077512A
:10244400D8A427EF12F029EF12F033EF12F0000EA8
:102454006D6F000E6E6F000E6F6F000E706F82EF67
:1024640013F071516D2772516E2373516F237451A0
:10247400702370A140EF12F042EF12F0EEEF12F071
:1024840078A147EF12F049EF12F04FEF12F0D89015
:1024940078310109786F51EF12F0D89078336DA13B
:1024A40056EF12F058EF12F059EF12F0788F7035A2
:1024B40070336F336E336D33772BEEEF12F071514F
:1024C4006D5D72516E5973516F597051800A366E39
:1024D4007451800A3658D8B072EF12F074EF12F0CB
:1024E4009FEF12F06D51715D366E6E517259376EF9
:1024F4006F517359386E70517459396EFF0E36240A
:102504006D6FFF0E37206E6FFF0E38206F6FFF0E5A
:102514003920706F800E751B786D7851D8A495EFB3
:1025240012F097EF12F0A7EF12F0010E6D27000ED4
:102534006E236F237023A7EF12F071516D5F7251F8
:102544006E5B73516F5B7451705B6D516E116F11E3
:102554007011D8A4B0EF12F0B2EF12F0E7EF12F05E
:102564007851D8A4B8EF12F0BAEF12F0E7EF12F0F6
:10257400000E6D6F000E6E6F000E6F6F000E706FA9
:1025840082EF13F0D8906D376E376F37703778AFAE
:10259400CEEF12F0D0EF12F0D1EF12F06D8178A1EE
:1025A400D6EF12F0D8EF12F0DCEF12F0D8807837C3
:1025B400DEEF12F0D89078377751D8B4E4EF12F008
:1025C400E6EF12F0E7EF12F077076FAFECEF12F0DF
:1025D400EEEF12F0C4EF12F0000E766F78AFF5EF65
:1025E40012F0F7EF12F00FEF13F078C036F07F0E11
:1025F4003616D8B400EF13F002EF13F006EF13F021
:10260400010E766F0FEF13F06DA10BEF13F00DEFCA
:1026140013F00FEF13F002EF13F07651D8B415EF67
:1026240013F017EF13F042EF13F0010E6D27000EB5
:102634006E236F23702370A122EF13F024EF13F0A5
:1026440042EF13F06DC036F06EC037F06FC038F053
:1026540070C039F03934393238323732363236C014
:102664006DF037C06EF038C06FF039C070F0772964
:10267400D8B43FEF13F041EF13F042EF13F0772B90
:102684007729D8B448EF13F04AEF13F052EF13F060
:102694007751D8A450EF13F052EF13F064EF13F016
:1026A400000E6D6F000E6E6F000E6F6F000E706F78
:1026B4007751D8A460EF13F062EF13F064EF13F0D6
:1026C400000E756F77A169EF13F06BEF13F06EEFE7
:1026D40013F06F8F6FEF13F06F9FD8907731706F97
:1026E40075AF77EF13F079EF13F07AEF13F0708F83
:1026F4006DC06DF06EC06EF06FC06FF070C070F0A2
:1027040012002D50800B0001606F2D502D24666F38
:102714002CAE8FEF13F091EF13F092EF13F066816C
:102724006651D8B498EF13F09AEF13F0ADEF13F0AD
:102734006629D8A4A0EF13F0A2EF13F0AAEF13F0C8
:10274400000E2A6E000E2B6E000E2C6E000E2D6EE7
:102754002C8EB5EF13F0000E2A6E000E2B6E000EB9
:102764002C6E000E2D6E3150800B601B31503124C5
:10277400616F30AEC0EF13F0C2EF13F0C3EF13F08C
:1027840061816151D8B4C9EF13F0CBEF13F0DEEFE0
:1027940013F06129D8A4D1EF13F0D3EF13F0DBEFDA
:1027A40013F0000E2E6E000E2F6E000E306E000E13
:1027B400316E308EE6EF13F0000E2E6E000E2F6E8B
:1027C400000E306E000E316E6151D8B4ECEF13F090
:1027D400EEEF13F0F6EF13F06651D8A4F4EF13F014
:1027E400F6EF13F000EF14F0000E2A6E000E2B6EBD
:1027F400000E2C6E000E2D6EAAEF15F030502A023A
:102804006F00CCFF6BF06F00D0FF6CF06B51626F08
:10281400636B646B656B6C51676F686B696B6A6B38
:102824002F502B026F00CCFF6BF06F00D0FF6CF0C9
:102834006B516227000E6323642365236C51672761
:10284400000E682369236A232E502C026F00CCFFEC
:102854006BF06F00D0FF6CF06B516227000E6323A6
:10286400642365236C516727000E682369236A2358
:1028740064C065F063C064F062C063F0626B2E50A4
:102884002B026F00CCFF6BF06F00D0FF6CF06B512C
:1028940062276C516323000E6423000E65232F50BE
:1028A4002A026F00CCFF6BF06F00D0FF6CF06B510D
:1028B40062276C516323000E6423000E652364C0F9
:1028C40065F063C064F062C063F0626B2E502A024C
:1028D4006F00CCFF6BF06F00D0FF6CF06B51622780
:1028E4006C516323000E6423000E652330502B02C9
:1028F4006F00CCFF6BF06F00D0FF6CF06B5167275B
:102904006C516823000E6923000E6A232F502C0299
:102914006F00CCFF6BF06F00D0FF6CF06B5167273A
:102924006C516823000E6923000E6A2330502C0278
:102934006F00CCFF6BF06F00D0FF6CF06B51326E08
:102944006C51336E346A356A34C035F033C034F0B8
:1029540032C033F0326A3250672733506823345020
:10296400692335506A2362C032F063C033F064C017
:1029740034F065C035F0190EC5EF14F0D890353237
:10298400343233323232E82EC0EF14F0325067273B
:10299400335068233450692335506A2364C065F08A
:1029A40063C064F062C063F0626B615166C032F070
:1029B400336A3226000E3322820E32246B6FFF0EEE
:1029C40033206C6FFBEF14F0D890673768376937A2
:1029D4006A3765AFF0EF14F0F2EF14F0F3EF14F090
:1029E4006781D89062376337643765376B07D8A03F
:1029F4006C0769AF00EF15F002EF15F0E6EF14F085
:102A0400000E616F65AF09EF15F00BEF15F02FEFB6
:102A140015F0FF0E6215326EFF0E6315336EFF0E56
:102A24006415346E7F0E6515356E325033103410D4
:102A34003510D8B420EF15F022EF15F026EF15F07D
:102A4400010E616F2FEF15F067A12BEF15F02DEF3D
:102A540015F02FEF15F022EF15F06151D8B435EFD2
:102A640015F037EF15F05BEF15F0010E6727000E38
:102A7400682369236A236AA142EF15F044EF15F035
:102A84005BEF15F067C032F068C033F069C034F012
:102A94006AC035F03534353234323332323232C0F2
:102AA40067F033C068F034C069F035C06AF06B4B2E
:102AB4006C2B6CBF66EF15F06C5108E16B29D8A044
:102AC40066EF15F068EF15F072EF15F0000E676F02
:102AD400000E686F800E696F7F0E6A6FA0EF15F0AD
:102AE4006CBF7FEF15F06C5106E16B05D8B07DEF3C
:102AF40015F07FEF15F08BEF15F0000E676F000EE9
:102B0400686F000E696F000E6A6F000E606FA0EFB1
:102B140015F06BC066F0FF0E6717FF0E68177F0E87
:102B24006917000E6A1766A19AEF15F09CEF15F06D
:102B34009DEF15F0698FD89066316A6F60516A1302
:102B440067C02AF068C02BF069C02CF06AC02DF071
:102B540012001750800B246E175017242B6E16AEDC
:102B6400B6EF15F0B8EF15F0B9EF15F02B802B5038
:102B7400D8B4BFEF15F0C1EF15F0D6EF15F02B2840
:102B8400D8A4C7EF15F0C9EF15F0D1EF15F0000E7A
:102B9400146E000E156E000E166E000E176E168E55
:102BA400000E176EDEEF15F0000E146E000E156E9B
:102BB400000E166E000E176E1B50800B241A1B504D
:102BC4001B242C6E1AAEE9EF15F0EBEF15F0ECEFC9
:102BD40015F02C802C50D8B4F2EF15F0F4EF15F06A
:102BE40009EF16F02C28D8A4FAEF15F0FCEF15F035
:102BF40004EF16F0000E186E000E196E000E1A6E19
:102C0400000E1B6E1A8E000E1B6E11EF16F0000ED6
:102C1400186E000E196E000E1A6E000E1B6E185000
:102C240019101A101B10D8A41AEF16F01CEF16F086
:102C340034EF16F0000E146E000E156E000E166EB4
:102C4400000E176E800E16127F0E171224501712E4
:102C540014C014F015C015F016C016F017C017F004
:102C640077EF17F02B50D8A43AEF16F03CEF16F09C
:102C740046EF16F0000E146E000E156E000E166E62
:102C8400000E176E77EF17F02C502BC01CF01D6A46
:102C94001C5E000E1D5A7F0E1C24256E000E1D2086
:102CA400266E14C020F015C021F016C022F017C003
:102CB40023F0000E146E000E156E000E166E000E3C
:102CC400176E000E276E000E286E000E296E000E81
:102CD4002A6E000E2C6EA7EF16F02C50D8B475EFA8
:102CE40016F077EF16F08EEF16F0D89020362136D6
:102CF40022362336D89014361536163617362AAEB1
:102D040086EF16F088EF16F089EF16F01480D8904D
:102D14002736283629362A361850205C195021586F
:102D24001A5022581B502358D8A09BEF16F09DEF41
:102D340016F0A6EF16F02A8C1850205E1950215A6E
:102D44001A50225A1B50235A2C2A190E2C64ADEF08
:102D540016F0AFEF16F06FEF16F02050211022108E
:102D64002310D8B4B8EF16F0BAEF16F0D2EF16F07D
:102D74002780D2EF16F0D89014361536163617364B
:102D84002AAEC7EF16F0C9EF16F0CAEF16F014809A
:102D9400D8902736283629362A362506D8A026067E
:102DA40016AED7EF16F0D9EF16F0BDEF16F0000E01
:102DB4002C6E2AAEE0EF16F0E2EF16F006EF17F0F5
:102DC400FF0E27141C6EFF0E28141D6EFF0E29140F
:102DD4001E6E7F0E2A141F6E1C501D101E101F1015
:102DE400D8B4F7EF16F0F9EF16F0FDEF16F0010E78
:102DF4002C6E06EF17F014A002EF17F004EF17F093
:102E040006EF17F0F9EF16F02C50D8B40CEF17F0CA
:102E14000EEF17F032EF17F0010E1426000E1522F4
:102E24001622172217A019EF17F01BEF17F032EF35
:102E340017F014C01CF015C01DF016C01EF017C00A
:102E44001FF01F341F321E321D321C321CC014F0FE
:102E54001DC015F01EC016F01FC017F0254A262A03
:102E640026BE3DEF17F0265008E12528D8A03DEFF7
:102E740017F03FEF17F04AEF17F0000E266E2568A3
:102E8400000E146E000E156E000E166E000E176EF8
:102E940026BE57EF17F0265006E12504D8B055EFAB
:102EA40017F057EF17F065EF17F0000E266E000EBF
:102EB400256E000E146E000E156E000E166E000EBA
:102EC400176E000E246E25C02BF02BA06CEF17F0AC
:102ED4006EEF17F071EF17F0168E72EF17F0169E63
:102EE400D8902B30176E28EF16F0120062C072F0E3
:102EF40063C073F064C074F065C075F066C076F0AA
:102F040067C077F068C078F069C079F0000179BFD4
:102F14008EEF17F091EF17F0010E92EF17F0000EFD
:102F2400706F716B70517111D8B49BEF17F09DEFF6
:102F340017F0ADEF17F0791F781F771F761F751FF5
:102F4400741F731F726D000E73237423752376230D
:102F54007723782379233DBEB2EF17F0B4EF17F04F
:102F6400B5EF17F03E923DBEC2EF17F03D5006E1BB
:102F74003C04D8B0C0EF17F0C2EF17F0C8EF17F059
:102F8400000E6D6F010E6C6FCCEF17F03CC06CF04F
:102F94003DC06DF03AC06EF03BC06FF070517111DE
:102FA400D8A4D7EF17F0D9EF17F0E0EF17F03EA44D
:102FB400DEEF17F0E0EF17F0E3EF17F06E07D8A09D
:102FC4006F07000E7B6F4F0E7A6F000E0101836F47
:102FD40069EF18F07A07D8A07B07340E7A25D96EEA
:102FE400010E7B21DA6E72C014F073C015F074C048
:102FF40016F075C017F076C018F077C019F078C0D5
:103004001AF079C01BF00A0E1C6E000E1D6E000E25
:103014001E6E000E1F6E000E206E000E216E000E3E
:10302400226E000E236E96EC20F014C031F015C011
:1030340032F016C033F017C034F018C035F019C0A0
:1030440036F01AC037F01BC038F031C026F033C058
:1030540027F0BBEC2BF02650300FDF6E00016C071D
:10306400D8A06D076E07D8A06F0772C014F073C0A4
:1030740015F074C016F075C017F076C018F077C05C
:1030840019F078C01AF079C01BF00A0E1C6E000EFD
:103094001D6E000E1E6E000E1F6E000E206E000EC2
:1030A400216E000E226E000E236E13EC1FF014C06E
:1030B40072F015C073F016C074F017C075F018C024
:1030C40076F019C077F01AC078F01BC079F00001CF
:1030D4007BBF75EF18F07B5108E17A05D8A075EF36
:1030E40018F077EF18F0A7EF18F0725173117411FC
:1030F40075117611771178117911D8A484EF18F02D
:1031040086EF18F0ECEF17F06DBF93EF18F06D51E8
:1031140006E16C05D8B091EF18F093EF18F0ECEFDE
:1031240017F06FBF9EEF18F06F5108E16E05D8A03D
:103134009EEF18F0A0EF18F0A7EF18F03EB2A5EF3D
:1031440018F0A7EF18F0ECEF17F070517111D8A434
:10315400AEEF18F0B0EF18F0B7EF18F03EA4B5EFEB
:1031640018F0B7EF18F0D6EF18F07A07D8A07B075D
:1031740070517111D8A4C1EF18F0C3EF18F0C9EF62
:1031840018F0000E6B6F2B0E6A6FCDEF18F0000E67
:103194006B6F2D0E6A6F340E7A25D96E010E7B216A
:1031A400DA6E6000ABF1DFFF60C026F061C027F08B
:1031B400340E7A25286E010E7B21296E6EC02AF00A
:1031C4006FC02BF0CAEC26F026C060F027C061F077
:1031D40012000001EF51F75D0101AC6F0001F051E5
:1031E400F8590101AD6F0001ED51F35D0101AA6FC2
:1031F4000001EE51F4590101AB6F17EF1AF0ADBFA6
:103204000DEF19F0AD5109E11F0EAC5DD8A00DEF23
:1032140019F00FEF19F031EF19F0ADBF1DEF19F0F0
:103224002C0EAC5D010EAD59D8B01BEF19F01DEF9B
:1032340019F031EF19F00001F05107E17D0EEF5D57
:10324400D8B027EF19F029EF19F031EF19F0000E7B
:10325400F96F010EFB6F050EFE6F36EF1AF00101D8
:10326400ABBF3EEF19F0AB5109E11F0EAA5DD8A028
:103274003EEF19F040EF19F036EF1AF0ABBF4EEF06
:1032840019F02C0EAA5D010EAB59D8B04CEF19F011
:103294004EEF19F036EF1AF00001EE5107E17D0E02
:1032A400ED5DD8B058EF19F05AEF19F036EF1AF077
:1032B400000EF96F010EFB6F060EFE6F36EF1AF06B
:1032C4000E0E0001F96569EF19F06BEF19F071EF5B
:1032D40019F0000EF96F020EFB6F36EF1AF00001C1
:1032E400F92B36EF1AF01D0E0001F9657CEF19F089
:1032F4007EEF19F071EF19F0050EFE19D8A485EFD1
:1033040019F087EF19F092EF19F0F85109E12D0E39
:10331400F75DD8A090EF19F092EF19F0B1EF19F022
:10332400060EFE19D8A499EF19F09BEF19F0A6EF39
:1033340019F0F45109E12D0EF35DD8A0A4EF19F0B2
:10334400A6EF19F0B1EF19F02D0EFC5D010EFD5939
:10335400D8A0AFEF19F0B1EF19F0E7EF19F0150E9F
:103364000101A06F100EA16FF9C0A2F1A36B58EC7C
:103374002EF0450E0001F965C2EF19F0C4EF19F003
:10338400D2EF19F04A0E0101A06F100EA16F58EC94
:103394002EF0FF0E0101AF6FF60EAE6FDEEF19F0E7
:1033A400320E0101A06F100EA16F58EC2EF0000E2A
:1033B4000101AF6F0A0EAE6F000E0001F96F030E2C
:1033C400FB6F010EFE6F71EF19F0060EFE19D8A403
:1033D400EEEF19F0F0EF19F071EF19F00101ADBF44
:1033E400FDEF19F0AD5109E11F0EAC5DD8A0FDEF62
:1033F40019F0FFEF19F071EF19F0000E0001F96FE9
:10340400010EFB6F050EFE6F71EF19F00001F9510B
:10341400D8B40FEF1AF011EF1AF071EF19F0000E93
:10342400F96F000EFB6F36EF1AF00001FB5101013A
:10343400A86FA96BA951000AD8B423EF1AF036EF8C
:103444001AF0A851000AD8B401EF19F0010AD8B44F
:1034540062EF19F0030AD8B475EF19F0010AD8B471
:1034640008EF1AF036EF1AF0F7C0EFF0F8C0F0F0FA
:10347400F3C0EDF0F4C0EEF01200F30E2E6E040E65
:103484002F6EB50E306E3F0E316EAEC11CF0AFC163
:103494001DF0000E1DBEFF0E1E6E1F6E010E67ECAA
:1034A4001DF01CC02AF01DC02BF01EC02CF01FC044
:1034B4002DF083EC13F02AC079F02BC07AF02CC0E5
:1034C4007BF02DC07CF00FEC23F0F3C083F0F4C04C
:1034D40084F00001831F841F834B842B7951835F05
:1034E4007A51845BF7518325876FF8518421886F63
:1034F400A4EF1AF088BF88EF1AF0885109E1290E69
:10350400875DD8A088EF1AF08AEF1AF090EF1AF0CE
:10351400000E886F280E876F2DEF1BF088AF9CEF8D
:103524001AF0D80E875DFF0E8859D8B09CEF1AF0B8
:103534009EEF1AF0C5EF1AF0FF0E886FD80E876F52
:103544002DEF1BF0FE51836F846B8451000AD8B4B5
:10355400AEEF1AF02DEF1BF08351000AD8B47CEFC4
:103564001AF0010AD8B47CEF1AF0030AD8B47CEF3D
:103574001AF0070AD8B47CEF1AF0030AD8B47CEF27
:103584001AF02DEF1BF02DEF1BF087C01CF088C044
:103594001DF0020E1E6E41EC1EF056EF1BF087C0AC
:1035A4001CF088C01DF0030E1E6E41EC1EF056EF99
:1035B4001BF087C014F088C015F0000E176E020EC1
:1035C400166E68EC26F014C085F015C086F085C030
:1035D4001CF086C01DF0030E1E6E41EC1EF056EF6B
:1035E4001BF0FF0E1D6EBF0E1C6E000E1E6E41EC16
:1035F4001EF056EF1BF0000E1D6E410E1C6E000EE9
:103604001E6E41EC1EF056EF1BF0020EFB19D8A4FF
:103614000EEF1BF010EF1BF0C7EF1AF0000E1D6E3B
:10362400410E1C6E020E1E6E41EC1EF056EF1BF096
:10363400020EFB19D8A421EF1BF023EF1BF0C7EFF8
:103644001AF0FF0E1D6EBF0E1C6E020E1E6E41ECB4
:103654001EF056EF1BF0FE51836F846B8451000AF9
:10366400D8B437EF1BF056EF1BF08351000AD8B4DF
:10367400DBEF1AF0010AD8B4D1EF1AF0030AD8B478
:10368400C7EF1AF0010AD8B4F3EF1AF0070AD8B456
:10369400FDEF1AF0010AD8B407EF1BF0030AD8B4FF
:1036A4001AEF1BF056EF1BF0120018C166F019C197
:1036B40067F01AC168F01BC169F02DC066F02EC016
:1036C40067F02FC068F030C069F0810E316EFF0ED4
:1036D400326E66C033F067C034F068C035F069C03C
:1036E40036F0180E7BEF1BF0D89036323532343278
:1036F4003332E82E76EF1BF0335031240001646F2F
:10370400000E3220656F65BF91EF1BF0655109E132
:10371400170E645DD8A091EF1BF093EF1BF09DEFA3
:103724001BF02DC02DF02EC02EF02FC02FF030C076
:1037340030F061EF1CF065BFA2EF1BF0A4EF1BF0AB
:1037440015EF1CF064C031F0FF0E326EFF0E336EC5
:103754007F0E346E000E356E3166B3EF1BF0BBEF97
:103764001BF035343532343233323232312EAEEF4F
:103774001BF032C060F033C061F034C062F035C079
:1037840063F0000160516615316E61516715326E48
:1037940062516815336E63516915346E31503210BD
:1037A40033103410D8A4D9EF1BF0DBEF1BF0DDEF9E
:1037B4001BF093EF1BF066C031F067C032F068C0B5
:1037C40033F069C034F0200EEDEF1BF0D8903432A2
:1037D400333232323132E82EE8EF1BF031503210FE
:1037E40033103410D8B4F9EF1BF0FBEF1BF003EFE8
:1037F4001CF060516627615167236251682363514D
:103804006923601D316E611D326E621D336E631D4E
:10381400346E31506617325067173350681734507E
:10382400691759EF1CF066C031F067C032F068C008
:1038340033F069C034F0200E25EF1CF0D8903432F8
:10384400333232323132E82E20EF1CF03150321054
:1038540033103410D8A431EF1CF033EF1CF03DEFDB
:103864001CF0000E666F000E676F000E686F000E8E
:10387400696F59EF1CF0D8906635316E6735326E3A
:103884006835336E6935346E31503210331034106C
:10389400D8B44FEF1CF051EF1CF059EF1CF0000EA0
:1038A400666F000E676F800E686FBF0E696F66C02B
:1038B4002DF067C02EF068C02FF069C030F0120000
:1038C400000E0001886F000E876F18EF1DF0FD5188
:1038D40009E11F0EFC5DD8A072EF1CF074EF1CF020
:1038E40076EF1CF0010EFE6FECBF82EF1CF0EC5182
:1038F40009E1650EEB5DD8A082EF1CF084EF1CF0AB
:103904009FEF1CF0EBC087F0ECC088F0FD5107E19D
:103914000F0EFC5DD8B091EF1CF093EF1CF099EF03
:103924001CF0FC0E8727FF0E88233DEF1DF0FE0ED2
:103934008727FF0E88233DEF1DF0000E886F640E6D
:10394400876F3DEF1DF0FD5107E11E0EFC5DD8B001
:10395400AEEF1CF0B0EF1CF0B2EF1CF0020EFE6FE5
:10396400FD5109E1960EFC5DD8A0BBEF1CF0BDEF44
:103974001CF006EF1DF0000E716F800E726F890E41
:10398400736F430E746F330E2E6E330E2F6E330E21
:10399400306E3F0E316E6A0E836FFF0E846FFCC073
:1039A40085F0FDC086F0835185278451862385C028
:1039B4001CF086C01DF01E6A1F6A000E67EC1DF025
:1039C4001CC02AF01DC02BF01EC02CF01FC02DF00F
:1039D40083EC13F02AC06DF02BC06EF02CC06FF096
:1039E4002DC070F022EC11F06DC079F06EC07AF049
:1039F4006FC07BF070C07CF00FEC23F079C087F0CF
:103A04007AC088F03DEF1DF0010E886F130E876FAA
:103A14003DEF1DF0FF0E886F830E876F3DEF1DF0A5
:103A2400000E886FC80E876F3DEF1DF0FE51836F47
:103A3400846B8451000AD8B422EF1DF03DEF1DF0D1
:103A44008351010AD8B4A5EF1CF0030AD8B469EF76
:103A54001CF0010AD8B40CEF1DF0070AD8B40CEF1F
:103A64001DF0010AD8B412EF1DF0030AD8B412EF06
:103A74001DF03DEF1DF0000188BF4AEF1DF0910ECF
:103A8400875D010E8859D8A04AEF1DF04CEF1DF058
:103A940050EF1DF0010E886F900E876F88AF5CEFBA
:103AA4001DF0060E875DFF0E8859D8B05CEF1DF03F
:103AB4005EEF1DF062EF1DF0FF0E886F060E876F3C
:103AC40087C0EBF088C0ECF01200246E2450D8B408
:103AD4006EEF1DF070EF1DF092EF1DF01FBE77EF3B
:103AE4001DF075EF1DF092EF1DF01CC020F01DC0FD
:103AF40021F01EC022F01FC023F0201E211E221E12
:103B0400231E202A000E21222222232220C026F056
:103B140021C027F022C028F023C029F09AEF1DF01D
:103B24001CC026F01DC027F01EC028F01FC029F0BD
:103B34001C501D101E101F10D8A4A3EF1DF0A5EFDC
:103B44001DF0AFEF1DF0000E1C6E000E1D6E000E7A
:103B54001E6E000E1F6E40EF1EF0960E256EB9EF1E
:103B64001DF0252AD8902932283227322632000E19
:103B74002614206E000E2714216E000E2814226EC7
:103B8400FE0E2914236E2050211022102310D8A4D5
:103B9400CEEF1DF0D0EF1DF0B3EF1DF0DEEF1DF002
:103BA400252A010E2626000E272228222922D89013
:103BB4002932283227322632000E2614206E000EB7
:103BC4002714216E000E2814226EFF0E2914236E72
:103BD4002050211022102310D8A4F3EF1DF0F5EF8C
:103BE4001DF0D2EF1DF0FDEF1DF02506D89026360E
:103BF40027362836293628BE02EF1EF004EF1EF0C1
:103C04000CEF1EF0020E25600AEF1EF00CEF1EF002
:103C1400F7EF1DF025B011EF1EF013EF1EF014EFB7
:103C24001EF0289ED890253225C020F0216A226AF1
:103C3400236A20C023F0226A216A206A20502612B7
:103C44002150271222502812235029122450D8B46C
:103C54002EEF1EF030EF1EF038EF1EF01FBE37EFD0
:103C64001EF035EF1EF038EF1EF0298E26C01CF032
:103C740027C01DF028C01EF029C01FF01200000E3E
:103C8400246E000E236E95EF1EF01CC021F01DC0A3
:103C940022F01CC01FF01DC020F01F1E201E1F4A52
:103CA400202A1FC023F020C024F0B6EF1EF01CC051
:103CB40021F01DC022F01CC023F01DC024F0B6EF7B
:103CC4001EF01CC021F01DC022F01CC014F01DC049
:103CD40015F0FF0E176EFE0E166E68EC26F014C07B
:103CE40023F015C024F0B6EF1EF01CC021F01DC057
:103CF40022F0000E246E000E236EB6EF1EF0000EAE
:103D0400226E000E216E1CC023F01DC024F0B6EFFD
:103D14001EF0000E226E000E216E000E246E000EA8
:103D2400236EB6EF1EF01E501F6E206A2050000A4C
:103D3400D8B49FEF1EF08BEF1EF01F50000AD8B4CA
:103D440047EF1EF0010AD8B459EF1EF0030AD8B4A5
:103D540063EF1EF0010AD8B477EF1EF0070AD8B457
:103D640081EF1EF08BEF1EF022BEC2EF1EF0225038
:103D740009E1420E215CD8A0C2EF1EF0C4EF1EF090
:103D8400CAEF1EF0000E226E410E216EDCEF1EF013
:103D940022AED6EF1EF0BF0E215CFF0E2258D8B023
:103DA400D6EF1EF0D8EF1EF0DCEF1EF0FF0E226EF1
:103DB400BF0E216E24BEE8EF1EF0245009E1290E47
:103DC400235CD8A0E8EF1EF0EAEF1EF0F0EF1EF03F
:103DD400000E246E280E236E02EF1FF024AEFCEFBB
:103DE4001EF0D80E235CFF0E2458D8B0FCEF1EF052
:103DF400FEEF1EF002EF1FF0FF0E246ED80E236EAE
:103E0400600E2124146E010E2220156EA4EC2CF0F9
:103E1400650E2324146E010E2420156EBEEC2CF0C6
:103E24001200000E256E23BE1CEF1FF01AEF1FF0C8
:103E34002EEF1FF0231E221E211E201E1F1E1E1EDB
:103E44001D1E1C6C000E1D221E221F222022212258
:103E540022222322010E256E1BBE35EF1FF033EF05
:103E64001FF047EF1FF01B1E1A1E191E181E171EE7
:103E7400161E151E146C000E152216221722182267
:103E840019221A221B22010E251A20EE26F0070EF3
:103E9400DE6AE806FDE21C501D101E101F102010E3
:103EA400211022102310D8B45AEF1FF05CEF1FF03A
:103EB400AEEF1FF0010E246E6AEF1FF0D8901C368F
:103EC4001D361E361F362036213622362336242A46
:103ED40023AE6FEF1FF071EF1FF060EF1FF0D8906B
:103EE40026362736283629362A362B362C362D36D2
:103EF4001C50145C1D5015581E5016581F5017584E
:103F0400205018582150195822501A5823501B5821
:103F1400D8A08FEF1FF091EF1FF0A2EF1FF01C50FD
:103F2400145E1D50155A1E50165A1F50175A205011
:103F3400185A2150195A22501A5A23501B5A2680B3
:103F4400D89023322232213220321F321E321D32C7
:103F54001C32242E71EF1FF02550D8B4B4EF1FF09B
:103F6400B6EF1FF0C6EF1FF02D1E2C1E2B1E2A1EAF
:103F7400291E281E271E266C000E272228222922ED
:103F84002A222B222C222D2226C014F027C015F021
:103F940028C016F029C017F02AC018F02BC019F059
:103FA4002CC01AF02DC01BF01200000E1D6E000E66
:103FB4001C6E030E1E6E41EC1EF0000E0001FE6F1F
:103FC400000EE86F280EE76FE7C01CF0E8C01DF094
:103FD400000E1DBEFF0E1E6E1F6E010E67EC1DF05F
:103FE4001CC0A8F11DC0A9F11EC0AAF11FC0ABF1ED
:103FF400550E0101A06F100EA16FA8C1A2F1A9C1B5
:10400400A3F1AAC1A4F1ABC1A5F158EC2EF051EF74
:1040140020F0A8C12AF0A9C12BF0AAC12CF0ABC191
:104024002DF0CD0E2E6ECC0E2F6E8C0E306E3F0EFC
:10403400316E83EC13F02AC0A8F12BC0A9F12CC077
:10404400AAF12DC0ABF1A8C179F0A9C17AF0AAC137
:104054007BF0ABC17CF00FEC23F079C0E7F07AC0C1
:10406400E8F0E7C018F0E8C019F092EC25F0250E4E
:104074000101A06F100EA16FE7C0A2F1E8C0A3F187
:1040840058EC2EF03FEC1AF0000E0001FA6FFA51D2
:10409400D8B44FEF20F051EF20F049EF20F0A8C141
:1040A4006DF0A9C16EF0AAC16FF0ABC170F0000E43
:1040B4000001716F000E726F7A0E736F430E746F8E
:1040C40016EC24F00001D8A06AEF20F06CEF20F089
:1040D4000BEF20F0000EE86FFA0EE76FE7C018F060
:1040E400E8C019F092EC25F0010E0101A06F100E4A
:1040F400A16FE7C0A2F1E8C0A3F158EC2EF0000EC6
:104104000001FA6F88EF20F03FEC1AF01D0E000159
:10411400FA658FEF20F091EF20F086EF20F0010E8A
:10412400FE6F3FEC1AF01200000E256E1BBE9FEFCF
:1041340020F09DEF20F0B1EF20F01B1E1A1E191E77
:10414400181E171E161E151E146C000E152216229C
:104154001722182219221A221B22010E256E23BEB1
:10416400B8EF20F0B6EF20F0C8EF20F0231E221E97
:10417400211E201E1F1E1E1E1D1E1C6C000E1D2235
:104184001E221F2220222122222223221C501D1003
:104194001E101F102010211022102310D8B4D5EFA8
:1041A40020F0D7EF20F01FEF21F0010E246EE5EF91
:1041B40020F0D8901C361D361E361F362036213688
:1041C40022362336242A23AEEAEF20F0ECEF20F047
:1041D400DBEF20F01C50145C1D5015581E5016586F
:1041E4001F501758205018582150195822501A5847
:1041F40023501B58D8A001EF21F003EF21F013EF57
:1042040021F01C50145E1D50155A1E50165A1F5092
:10421400175A2050185A2150195A22501A5A23500A
:104224001B5AD89023322232213220321F321E32BE
:104234001D321C32242EECEF20F02550D8B425EF8B
:1042440021F027EF21F037EF21F01B1E1A1E191E53
:10425400181E171E161E151E146C000E152216228B
:104264001722182219221A221B2214C014F015C076
:1042740015F016C016F017C017F018C018F019C0C2
:1042840019F01AC01AF01BC01BF01200D5EC28F06C
:1042940022C0E9F023C0EAF00001E951EB5D856F2B
:1042A400EA51EC59866F01012C510001E95D876FD9
:1042B40001012D510001EA59886F0A0E2E6ED70EA6
:1042C4002F6EA30E306E3C0E316E000E176E020E72
:1042D400166E87C014F088C015F068EC26F085C00F
:1042E40083F086C084F014500001835F1550845B12
:1042F40083C01CF084C01DF0000E1DBEFF0E1E6E98
:104304001F6E010E67EC1DF01CC02AF01DC02BF0BF
:104314001EC02CF01FC02DF083EC13F02AC079F0DE
:104324002BC07AF02CC07BF02DC07CF00FEC23F076
:1043340000017951896F8951800A7C0FD8A0A5EFBB
:1043440021F0A7EF21F0ABEF21F0030E896FB7EF57
:1043540021F08951800A830FD8B0B3EF21F0B5EF73
:1043640021F0B7EF21F0FD0E896F8951E727000E88
:1043740089BFFF0EE823E8BFC9EF21F0BD0EE75D5A
:10438400020EE859D8A0C9EF21F0CBEF21F0D1EF0C
:1043940021F0020EE86FBC0EE76FE3EF21F0E8AF07
:1043A400DDEF21F0700EE75DFE0EE859D8B0DDEFC9
:1043B40021F0DFEF21F0E3EF21F0FE0EE86F700E45
:1043C400E76FE7C018F0E8C019F092EC25F0E9C0F7
:1043D4002CF1EAC02DF11200000E196E000E186EB9
:1043E40092EC25F0000E1D6E000E1C6E030E1E6E68
:1043F40041EC1EF0CBB801EF22F003EF22F0FCEF0A
:1044040021F00001FA51D8B40AEF22F00CEF22F0A7
:1044140003EF22F0000EFA6F0DEC2FF0E5C01CF054
:10442400E6C01DF01E6A1F6A000E67EC1DF01CC07A
:104434006DF01DC06EF01EC06FF01FC070F07B0EDB
:104444000001716F140E726F2E0E736F450E746F30
:1044540016EC24F00001D8A032EF22F034EF22F061
:1044640003EF22F0D7EC1FF0010E0001FE6F000EE7
:10447400FB6FF7C0EFF0F8C0F0F0F3C0EDF0F4C05C
:10448400EEF0000EFA6F0001FA51D8B44CEF22F0AE
:104494004EEF22F045EF22F0000EFA6FCBBA55EF43
:1044A40022F057EF22F069EF22F0000EEC6F000EBD
:1044B400EB6F000EE86F000EE76F000E1D6E000E2E
:1044C4001C6E030E1E6E41EC1EF088EF22F01FECF2
:1044D40029F00009D8B471EF22F073EF22F07CEFD9
:1044E40022F03E0E0101A06F100EA16F58EC2EF0C9
:1044F40088EF22F0EBEC18F093EC23F03FEC1AF089
:1045040062EC1CF048EC21F045EF22F01200000EA2
:104514001D6E1BBE92EF22F090EF22F09CEF22F072
:104524001B1E1A1E191E186C000E19221A221B2299
:10453400010E1D6E17BEA3EF22F0A1EF22F0ADEF26
:1045440022F0171E161E151E146C000E15221622BC
:104554001722010E1D1A000E1E6E000E1F6E000E95
:10456400206E000E216E185019101A101B10D8B4AA
:10457400BEEF22F0C0EF22F0F6EF22F0010E1C6E27
:10458400CAEF22F0D890183619361A361B361C2A70
:104594001BAECFEF22F0D1EF22F0C4EF22F0D8907F
:1045A4001E361F36203621361850145C1950155803
:1045B4001A5016581B501758D8A0E3EF22F0E5EF15
:1045C40022F0EEEF22F01850145E1950155A1A50CA
:1045D400165A1B50175A1E80D8901B321A321932A1
:1045E40018321C2ED1EF22F01D50D8B4FCEF22F06B
:1045F400FEEF22F006EF23F0211E201E1F1E1E6C6C
:10460400000E1F22202221221EC014F01FC015F00C
:1046140020C016F021C017F0120000017B357C3554
:10462400826F8251D8A419EF23F01BEF23F025EFFA
:1046340023F0000E796F000E7A6F000E7B6F000E70
:104644007C6F92EF23F079C07DF07AC07EF07BC05E
:104654007FF07CC080F0200E35EF23F0D8908033BB
:104664007F337E337D33E82E30EF23F07D51816F2D
:104674007B8FFF0E7917FF0E7A17FF0E7B17000E44
:104684007C17960E825F82BF4CEF23F04AEF23F033
:1046940062EF23F08251800A970FD8B054EF23F0D1
:1046A40056EF23F058EF23F01BEF23F0D8907C3320
:1046B4007B337A337933823F58EF23F07AEF23F058
:1046C4001F0E826568EF23F06AEF23F072EF23F088
:1046D4001BEF23F0D89079377A377B377C37820702
:1046E4008251D8A478EF23F07AEF23F06CEF23F013
:1046F4008151D8B480EF23F082EF23F08AEF23F0C6
:104704007C1F7B1F7A1F796D000E7A237B237C2309
:1047140079C079F07AC07AF07BC07BF07CC07CF001
:1047240012000001FD5107E10F0EFC5DD8B09DEFB2
:1047340023F09FEF23F0A4EF23F00101324B332B3E
:10474400BBEF23F0030EFE19D8B4ABEF23F0ADEFAB
:1047540023F0BBEF23F0040EFE19D8B4B4EF23F01A
:10476400B6EF23F0BBEF23F0000E0101336F000E10
:10477400326F0101335109E1330E325DD8A0C5EF28
:1047840023F0C7EF23F015EF24F02A4B2B2B030E55
:104794000001FE19D8B4D1EF23F0D3EF23F0EDEFED
:1047A40023F0040EFE19D8B4DAEF23F0DCEF23F083
:1047B400EDEF23F0F751F35DF851F459D8B0E5EF7C
:1047C40023F0E7EF23F0EBEF23F0030EFE6FEDEFA2
:1047D40023F0040EFE6FFD5107E1240EFC5DD8B0FA
:1047E400F6EF23F0F8EF23F009EF24F001012BBFDB
:1047F40005EF24F02D0E2A5D010E2B59D8A005EFEC
:1048040024F007EF24F015EF24F009EF24F0010E53
:104814000001FE6F000E0101336F000E326F000EB7
:104824002B6F000E2A6F1200000E00016D15366EFC
:10483400000E6E15376E800E6F15386E7F0E701574
:10484400396E3650371038103910D8A42CEF24F0B4
:104854002EEF24F036EF24F0000E6D6F000E6E6F15
:10486400000E6F6F000E706F000E7115366E000E25
:104874007215376E800E7315386E7F0E7415396E8F
:104884003650371038103910D8A44BEF24F04DEFC0
:1048940024F055EF24F0000E716F000E726F000EBD
:1048A400736F000E746F70AF5AEF24F05CEF24F056
:1048B40065EF24F06D6D6E1FD8B06E2B6F1FD8B0EE
:1048C4006F2B800E705774AF6AEF24F06CEF24F0F6
:1048D40075EF24F0716D721FD8B0722B731FD8B0AE
:1048E400732B800E7457000E6D1B000E6E1B000E92
:1048F4006F1B800E701B000E711B000E721B000ECE
:10490400731B800E741B71516D5D72516E5973511E
:104914006F5974517059D8B092EF24F094EF24F089
:1049240097EF24F0D89098EF24F0D88012001CC19F
:104934001EF01DC11FF01EC120F01FC121F014C0C4
:104944001EF015C01FF016C020F017C021F01EC0C5
:1049540018F01FC019F020C01AF021C01BF0180E67
:10496400B9EF24F0D8901B321A3219321832E82EDB
:10497400B4EF24F018501C6E1D6A1C501D10D8A4EE
:10498400C6EF24F0C8EF24F0E8EF24F0D8901E34EA
:10499400186E1F34196E20341A6E21341B6E185091
:1049A40019101A101B10D8A4DAEF24F0DCEF24F04D
:1049B400E2EF24F0000E156E020E146E17EF25F0D0
:1049C400000E156E030E146E17EF25F01C281D1033
:1049D400D8A4EFEF24F0F1EF24F013EF25F01EC07C
:1049E40018F01FC019F020C01AF021C01BF0090EE6
:1049F400D890183619361A361B36E82EFAEF24F0FA
:104A0400185019101A101B10D8B40BEF25F00EEF24
:104A140025F0010E0FEF25F0000E146E156A17EF46
:104A240025F0000E156E040E146E120014C01BF057
:104A340015C01CF016C01DF017C01EF01806D8A033
:104A44001906182806E11928D8A42BEF25F02DEF14
:104A540025F03AEF25F0000E156E000E146E91EF5E
:104A640025F01B4A1C2A1D4A1E2A1806D8A019061E
:104A740060006FF0D9FF600073F0DAFFDF50D8B444
:104A840046EF25F048EF25F07BEF25F0600077F046
:104A9400F6FF60007BF0F7FFF86A0800F5500009A4
:104AA400D8B457EF25F059EF25F07BEF25F01850D7
:104AB4001910D8B460EF25F062EF25F07BEF25F0F4
:104AC40060006FF0D9FF600073F0DAFFDF501A6EF8
:104AD400600077F0F6FF60007BF0F7FFF86A0800EB
:104AE400F5501A18D8B479EF25F07BEF25F033EFA1
:104AF40025F060006FF0D9FF600073F0DAFFDF503B
:104B04001A6E600077F0F6FF60007BF0F7FFF86A3A
:104B14000800F5501A5C146E156AD8A01506120028
:104B240019BE9EEF25F0195009E1280E185CD8A093
:104B34009EEF25F0A0EF25F0C0EF25F019BEACEFF5
:104B440025F0BD0E185C020E1958D8A0ACEF25F064
:104B5400AEEF25F0B2EF25F0020E196EBC0E186E02
:104B640018C014F019C015F0F2EC2CF0000E156EFC
:104B7400000E146ED8EC2CF002EF26F019AECCEF38
:104B840025F0D90E185CFF0E1958D8B0CCEF25F0DB
:104B9400CEEF25F0F6EF25F019AEDAEF25F0700E22
:104BA400185CFE0E1958D8B0DAEF25F0DCEF25F0CA
:104BB400E0EF25F0FE0E196E700E186E000E156EE5
:104BC400000E146EF2EC2CF018C01AF019C01BF091
:104BD4001A1E1B1E1A4A1B2A1AC014F01BC015F0F9
:104BE400D8EC2CF002EF26F0000E156E000E146EB9
:104BF400F2EC2CF0000E156E000E146ED8EC2CF0B6
:104C04001200000EBE6E000EBD6E240EBA6E000EB3
:104C1400BB6E000EBC6E070EC66EC00EC26EF70EE3
:104C2400C36EC468C5681F0E3A01706F6069C00E18
:104C3400506F070E806F7F0E406F000E716F000E75
:104C4400816F000E516F000E416F000E616F000EF8
:104C54005A6F000E5B6F000E6A6F000E6B6F000ED2
:104C64007A6F000E7B6F000E826F000E426F000E93
:104C7400526F000E626F000E726F4369536963696D
:104C84007369070E836F44695469646974690F0E0C
:104C9400846F1F0ECF6F090EDC6F0E0E016F0A0EAC
:104CA400E56F0D0E006F1D0EC96F100E046F070E19
:104CB400D96F090ED16F0F0E036F130E0B6F080E11
:104CC400DB6F080ED26F1E0ED06F1200000E196E2D
:104CD40017BE71EF26F06FEF26F077EF26F0166C13
:104CE400171ED8B0172A010E196E15BE7EEF26F0D6
:104CF4007CEF26F084EF26F0146C151ED8B0152A2C
:104D0400010E191A000E1B6E000E1A6E16501710A3
:104D1400D8B48FEF26F091EF26F0B9EF26F0010E0C
:104D2400186E99EF26F0D89016361736182A17AE53
:104D34009EEF26F0A0EF26F095EF26F0D8901A36D5
:104D44001B361650145C17501558D8A0ACEF26F03B
:104D5400AEEF26F0B3EF26F01650145E1750155A36
:104D64001A80D89017321632182EA0EF26F0195058
:104D7400D8B4BFEF26F0C1EF26F0C5EF26F01A6CC9
:104D84001B1ED8B01B2A1AC014F01BC015F0120049
:104D94003EA0CFEF26F0D1EF26F0DBEF26F028C0BF
:104DA4001FF029C020F026C021F027C022F077ECA4
:104DB4002BF02BBEE0EF26F0E2EF26F0E8EF26F032
:104DC4002AC02FF02BC030F0ECEF26F0000E306E2E
:104DD400000E2F6E000E2E6E000E2D6EFEEF26F0CE
:104DE400000E176E200E166E26C018F027C019F09C
:104DF4008AEC28F02D4A2E2A2F502D5C2E50800A42
:104E04002C6E3050800A2C58D8A00BEF27F00DEFF1
:104E140027F0F2EF26F03EB012EF27F014EF27F060
:104E24001EEF27F028C01FF029C020F026C021F073
:104E340027C022F077EC2BF028C014F029C015F01D
:104E4400DBEC2BF02F501424266E30501520276EE7
:104E54001200000E4524D96EDA6A010EDA22000E21
:104E6400DF6E3D01F9A739EF27F03BEF27F04FEF55
:104E740027F0000E4524D96EDA6A010EDA22010108
:104E8400DF8202D84FEF27F00500FA6E9451FD6ED1
:104E94009551FE6EFF6AFA5012003D01F9A355EFD9
:104EA40027F057EF27F06BEF27F0000E4524D96E5B
:104EB400DA6A010EDA220101DF8402D86BEF27F0EF
:104EC4000500FA6E9251FD6E9351FE6EFF6AFA5020
:104ED4001200000E4524D96EDA6A010EDA22DF5080
:104EE400D8B477EF27F079EF27F088EF27F002D8CE
:104EF40086EF27F00500FA6E01019051FD6E915185
:104F0400FE6EFF6AFA5012008AEF27F02CEC2EF0A6
:104F14001200000E196E15BE94EF27F092EF27F0E1
:104F24009AEF27F0146C151ED8B0152A010E196ECD
:104F340017BEA1EF27F09FEF27F0A5EF27F0166C1F
:104F4400171ED8B0172A16501710D8B4ACEF27F094
:104F5400AEEF27F0D2EF27F0010E186EB6EF27F070
:104F6400D89016361736182A17AEBBEF27F0BDEFC8
:104F740027F0B2EF27F01650145C17501558D8A03C
:104F8400C6EF27F0C8EF27F0CCEF27F01650145ED9
:104F94001750155AD89017321632182EBDEF27F035
:104FA4001950D8B4D8EF27F0DAEF27F0DEEF27F066
:104FB400146C151ED8B0152A14C014F015C015F0C1
:104FC4001200000E14141C6E000E15141D6E800EBB
:104FD40016141E6E7F0E17141F6E1C501D101E100B
:104FE4001F10D8A4F8EF27F0FAEF27F002EF28F00B
:104FF400000E146E000E156E000E166E000E176E67
:10500400000E18141C6E000E19141D6E800E1A1456
:105014001E6E7F0E1B141F6E1C501D101E101F10C1
:10502400D8A417EF28F019EF28F021EF28F0000E8C
:10503400186E000E196E000E1A6E000E1B6E1850BC
:1050440014180FE1195015180CE11A50161809E13B
:105054001B501718D8B431EF28F033EF28F036EF8F
:1050640028F0D89037EF28F0D880120039019397B0
:10507400560E146E4E0E156E26EC2FF039019399D0
:10508400320E146E570E156E21EC2FF0000E3D01FA
:10509400EC6F000EED6F000EEE6F000EEF6F000E62
:1050A400F06F000EF16FB00EF26F800EF36F000E12
:1050B400F46F8A0EF56F000EF66F000EF76F000E98
:1050C400F86F000EF96F000EFA6FAC0E146E5E0EE0
:1050D400156E30EC2FF0AA0E146E5E0E156E2BECCE
:1050E4002FF09C0E146E5E0E156E35EC2FF0000E34
:1050F400426E000E476E000E466E080E4C6E000E99
:10510400456E000E446E000E436E39019387120003
:1051140018501910D8B491EF28F093EF28F09CEFB1
:1051240028F018501910D8A49AEF28F09CEF28F012
:10513400A1EF28F016501CEC2FF0D4EF28F020EE4D
:1051440004F01850D9261950DA22DE50DE10D8B4F3
:10515400AEEF28F0B0EF28F0CBEF28F020EE04F00B
:105164001850D9261950DA2210EE02F01850E12610
:105174001950E222DE50E65CE650800A1E6EDE50D4
:10518400800A1E58D8B0C9EF28F0CBEF28F0D4EF2E
:1051940028F020EE02F01850D9261950DA22DE2A1F
:1051A400000EDD221200000E256E000E246E485003
:1051B40049104A104B10D8B4E2EF28F0E4EF28F07D
:1051C4001AEF29F03C0160ABEAEF28F0ECEF28F08D
:1051D40004EF29F0200E146EA10E156E070E166E44
:1051E400000E176E48C018F049C019F04AC01AF0F2
:1051F4004BC01BF089EC22F014C024F015C025F03C
:105204001AEF29F0E00E146E5E0E156EF80E166E8F
:10521400FF0E176E48C018F049C019F04AC01AF0C2
:105224004BC01BF089EC22F014C024F015C025F00B
:1052340024C022F025C023F012000101304B312B91
:10524400F50E305D010E3159D8A02BEF29F02DEF6A
:1052540029F066EF29F0000E316F000E306F0DEC6F
:105264002FF0E5C01CF0E6C01DF01E6A1F6A000E98
:1052740067EC1DF01CC06DF01DC06EF01EC06FF019
:105284001FC070F07B0E0001716F140E726F2E0E32
:10529400736F450E746F16EC24F00001D8B055EF0F
:1052A40029F057EF29F066EF29F0000EEC6F000E9D
:1052B400EB6F000E1D6E000E1C6E030E1E6E41EC95
:1052C4001EF0010E67EF29F0000E12009CC1E3F0FE
:1052D4009DC1E4F0000E0101296F000E286F8AEFD2
:1052E40029F09AC1C7F09BC1C8F0E30E0001C96F51
:1052F400000ECA6F9EC1CBF09FC1CCF091EC0EF0B2
:105304000001C751010128270001C85101012923C7
:1053140060008FF3F6FF600093F3F7FFF86A08006C
:10532400F5500009D8A499EF29F09BEF29F073EF09
:1053340029F028C19AF129C19BF1120016C01AF074
:1053440017C01BF014C01CF015C01DF01A50186EC5
:105354001B50196E1A4A1B2A600063F0F6FF6000A6
:1053640067F0F7FF000EF86E600073F0D9FF60007D
:1053740077F0DAFF1C4A1D2A0F0EF76403D00800E9
:10538400F55007D06F00DBFFE1FF6F00DFFFE2FFA6
:10539400E750DF6EDF50D8A4D2EF29F0D4EF29F024
:1053A400A8EF29F01200A80EF66E5E0EF76E000E3E
:1053B400F86E09006F00D4FFAEF109006F00D4FF4E
:1053C400AFF1B20EF66E5E0EF76E000EF86E0900C7
:1053D4006F00D4FFFEF000EE00F1840EEE6AE806E2
:1053E400FDE100EEE5F0190EEE6AE806FDE100EEDF
:1053F4003AF0120EEE6AE806FDE1080ED56E000ED4
:10540400D66E000ED76E0001A4EF2EF0BF0E1C6EF8
:10541400FF0E1D6E1AC01EF01BC01FF01C501E266E
:105424001D501F221F500AE11A0E1E5CD8A01DEF4A
:105434002AF020EF2AF0010E21EF2AF0000E206E50
:10544400216A20502110D8B42AEF2AF02CEF2AF038
:1054540033EF2AF0200E1A101A6E1B501B6E37EF12
:105464002AF01AC01AF01BC01BF01200146E4C5024
:10547400D8B43FEF2AF041EF2AF039EF2AF039018E
:1054840093B947EF2AF049EF2AF04EEF2AF0600073
:1054940053F0EAFD64EF2AF09399100E4724D96E75
:1054A400DA6A010EDA22600053F0DFFF472A070EA2
:1054B40047645FEF2AF061EF2AF063EF2AF0000EF1
:1054C400476E4C0693891200000E3E01DE6F000EFB
:1054D400DF6F000EE06F000EE16F000EE46F000E50
:1054E400E56F000EEA6F000EEC6F000EF16F580EC0
:1054F400F36F020EF46F000EF56F000EF66F000EE0
:10550400F76F000EF96F000EFA6F000EFB6F000EBE
:10551400FC6F000EFD6F000EFE6F1F0EFF6F840EFA
:10552400F86F12003901A19F3F0118510101246F46
:105534003F0119510101256F3F011A510101266FE5
:10554400276B3C0160ABA9EF2AF0ABEF2AF0B4EF74
:105554002AF0010E01012027000E212322232323F8
:10556400BDEF2AF0FF0E01012027FF0E2123FF0EBD
:105574002223FF0E23231100D28A000ED2BE010E75
:10558400146ED29E550ED46EAA0ED46ED490000E14
:10559400D76E000ED66E080ED56E550ED46EAA0EBA
:1055A400D46ED48014B002D0D29E01D0D28E3901F0
:1055B40083998397818F818B818D8A81888F87914D
:1055C40089831200BEEC2AF080EC2EF003EC26F066
:1055D40001EC2FF0D2EC2DF066EC2AF000EC2EF06A
:1055E40073EC2DF0D1EC2EF0C3EC2EF0E9EC2EF0A0
:1055F400BBEC2DF016EC2EF06BEC2CF0F5EC2EF051
:1056040009EC2BF0DDEC2EF038EC28F01200C00E83
:105614009B6E000E9C6E050E9D6E000E996E000E24
:10562400986E3901A89D98506F0064FE16F0176AB1
:1056340016C017F0166A161001018A6F17508B6F87
:105644003901A89F988F680E146E5D0E156E3AECA2
:105654002FF0030E9A6E12003901A19D3F011551DE
:10566400486E1651496E17514A6E4B6A3C0160AB45
:105674003EEF2BF040EF2BF049EF2BF0010E010130
:105684002027000E21232223232352EF2BF0FF0E89
:1056940001012027FF0E2123FF0E2223FF0E2323C7
:1056A4001100000E00017D1B000E7E1B000E7F1BEF
:1056B400800E801B79C06DF07AC06EF07BC06FF0F5
:1056C4007CC070F07DC071F07EC072F07FC073F05A
:1056D40080C074F022EC11F06DC079F06EC07AF0E5
:1056E4006FC07BF070C07CF01200000E256E000EBF
:1056F400246E88EF2BF023C016F0176A21C018F02F
:1057040022C019F08AEC28F0244A252A24501F24A8
:10571400D96E25502020DA6EDF50236E2350D8A492
:1057240096EF2BF098EF2BF07DEF2BF01200080E84
:105734004C609FEF2BF0A1EF2BF0B8EF2BF0100E85
:105744004624D96EDA6A010EDA22DF503D01EA6F8F
:10575400462A070E4664B1EF2BF0B3EF2BF0B5EFFA
:105764002BF0000E466E4C2ABAEF2BF039019399B8
:10577400120027BEC8EF2BF0275006E12604D8B04C
:10578400C6EF2BF0C8EF2BF0D6EF2BF026C028F095
:1057940027C029F0281E291E284A292A28C026F0B5
:1057A40029C027F0DAEF2BF026C026F027C027F017
:1057B400120014C016F015C017F0E3EF2BF0144AD2
:1057C400152A600053F0D9FF600057F0DAFFDF506C
:1057D400D8A4EFEF2BF0F1EF2BF0E1EF2BF0165004
:1057E400145C146E17501558156E12006F0060FF8C
:1057F40011F0010196519711D8B403EF2CF005EF85
:105804002CF011EF2CF002D811EF2CF00500FA6EF9
:105814009651FD6E9751FE6EFF6AFA5012006000B9
:0658240047F0D8FF11005F
:10582C006F0060FF12F0010198519911D8B421EF6B
:10583C002CF023EF2CF02FEF2CF002D82FEF2CF0C4
:10584C000500FA6E9851FD6E9951FE6EFF6AFA5082
:10585C00120060004BF0D8FF1100BF0E166EFF0E49
:10586C00176E14C018F015C019F0165018261750E2
:10587C00192219500AE11A0E185CD8A048EF2CF026
:10588C004BEF2CF0010E4CEF2CF0000E146E156A41
:10589C0012001450151016101710D8B458EF2CF025
:1058AC005AEF2CF062EF2CF0000E141A000E151AA1
:1058BC00000E161A800E171A14C014F015C015F02D
:1058CC0016C016F017C017F01200000EA76E000ECF
:1058DC00A86E050EA96E000EA56E000EA46E390101
:1058EC00A69DA4506F0094FE14F0156A14C015F018
:1058FC00146A14100101866F1550876F010EA66E85
:02590C00120087
:105910006F0060FF13F03901A791404A412A4150BE
:1059200009E10A0E405CD8A098EF2CF09AEF2CF019
:10593000A0EF2CF0E9EC2DF0000E416E000E406E51
:1059400060004FF0D8FF110014C016F015C017F01A
:10595000D89017321632D890173216321650696E18
:1059600014C016F0030E1616060E176ED8901636D3
:10597000172EB6EF2CF01650686E120014C016F0F9
:1059800015C017F0D89017321632D8901732163249
:1059900016506D6E14C016F0030E1616060E176E16
:1059A000D8901636172ED0EF2CF016506C6E1200D1
:1059B00014C016F015C017F0D89017321632D890D0
:1059C000173216321650616E14C016F0030E1616FA
:1059D000060E176ED8901636172EEAEF2CF01650DA
:1059E000606E120014C016F015C017F0D890173270
:1059F0001632D890173216321650656E14C016F053
:105A0000030E1616060E176ED8901636172E04EFD4
:105A10002DF01650646E12003901A9936F00D0FD6D
:105A200003F06F00D4FD04F003C001F004C002F0E5
:105A300002D825EF2DF00500FA6E01018E51FD6EA2
:105A40008F51FE6EFF6AFA50120011003901AA91BF
:105A50006F00C0FD07F06F00C4FD08F007C005F03F
:105A600008C006F002D83FEF2DF00500FA6E0101E4
:105A70008C51FD6E8D51FE6EFF6AFA5012001100BE
:105A8000186E600063F0F1FE3E01F88FF89DF8811A
:105A9000F8B14DEF2DF04FEF2DF048EF2DF0F05114
:105AA000176E166AEF511624146E000E1720156E2D
:025AB0001200E2
:105AB4003901A89F010188518911D8B464EF2DF0F0
:105AC40066EF2DF072EF2DF002D872EF2DF0050085
:105AD400FA6E8851FD6E8951FE6EFF6AFA5012000B
:105AE4001100800E3F011E6F420E1F6F000E206FCB
:105AF400040E216F000E236F000E226F010E1D6F26
:105B04001C691B693901918B918F918D3F011F8F06
:105B14001200CDAE90EF2DF092EF2DF098EF2DF016
:105B240001C0F5F002C0F6F0A2EF2DF00001F5512E
:105B3400015CF76FF6510258F86FD890F833F733D9
:105B44001200CDACA8EF2DF0AAEF2DF0B0EF2DF0A0
:105B540005C0F1F006C0F2F0BAEF2DF00001F151EA
:105B6400055CF36FF2510658F46FD890F433F333B5
:105B74001200830E726E000E736E000E716E000EB4
:105B8400706E460E146E5B0E156E44EC2FF03F01E2
:105B94005E513F0B80095E6F3901AA919A81120010
:105BA400830E766E000E776E000E756E000E746EA8
:105BB400160E146E5B0E156E49EC2FF03F015E510C
:105BC400CF0B20095E6F3901A9939983120001015B
:105BD40084518511D8B4F1EF2DF0F3EF2DF0FFEFE0
:105BE4002DF002D8FFEF2DF00500FA6E8451FD6E02
:105BF4008551FE6EFF6AFA5012001200010EA26E69
:105C0400000EA16E000EA36EF90E9F6E000E9E6E26
:105C14003901A7919781AE0E146E5E0E156E3FEC9E
:105C24002FF0E00EA06E1200000E3C01616F030E17
:105C3400626F020E636F000E646F000E656F020EDA
:105C4400666F080E676F000E686F000E696F850E31
:105C5400606F1200080E4524D96EDA6A010EDA224A
:105C64006F00A3F7DFFF452A070E45643CEF2EF0D3
:105C74003EEF2EF040EF2EF0000E456E432A120048
:105C84009AA447EF2EF049EF2EF052EF2EF09A909F
:105C94000A50996E600027F098FF9A8057EF2EF013
:105CA4000A50996E600027F098FF1200A20E0101BD
:105CB400A66F010EA76F000E9A6F000E9B6FA0C116
:105CC4009CF1A1C19DF1A60E9E6F010E9F6F68EC21
:105CD40029F012003901A19B000E486E000E496E96
:105CE400000E4A6E000E4B6E000E0101246F000E72
:105CF400256F000E266F000E276F1100000E39016C
:105D0400C06F000EC16F000EC26F000EC36F000E95
:105D1400C46F000EC56F000EC66F000EC76F120071
:105D24009A826F0060FE10F06F0064FE0FF00F5057
:105D34000B6E10500D6E0BC00EF00DC009F00EC0AE
:105D44000AF01200E4EC2AF0D28ED28CA20E146E69
:105D54005E0E156E3FEC2FF0EEEC21F0AEEF2EF060
:105D640057EF00F092EC2EF009C0FCF00AC0FDF0F1
:105D74000001D890FD33FC3315EC2FF03901A89FB6
:105D84001200050EAE6E000EAD6E000EAF6EAB6867
:105D9400000EAA6E3901A495B00EAC6E1200800EEE
:105DA400626E000E616E000E606E3F015F513F0B2C
:105DB40080095F6F1200800E666E000E656E000E25
:105DC400646E3F015F51CF0B20095F6F1200800E9C
:105DD4006A6E590E696E400E686E3F015F51F30B97
:105DE40004095F6F1200800E6E6E590E6D6E400EC8
:105DF4006C6E3F015F51FC0B01095F6F1200600E76
:105E04003901D96F000EDB6F000EDD6F080EDF6FF6
:105E1400000EDE6F1200220E40EC2DF014C0E5F0EF
:105E240015C0E6F012008AC109F08BC10AF042ECF9
:105E34002EF01200156E155038EC2AF0120014C022
:105E440096F115C097F1120014C098F115C099F19C
:105E5400120014C092F115C093F1120014C094F111
:105E640015C095F1120014C090F115C091F1120003
:105E740014C088F115C089F1120014C084F115C052
:105E840085F1120014C08CF115C08DF1120014C0FC
:105E94008EF115C08FF112002CEC2EF012000001CF
:0F5EA400FA2B1200F6FF1200120012001100017B
:020000040020DA
:10000000FF0FFF0FFF0FFF0FFF0FFF0FFF0FFF0F80
:020000040030CA
:0A0000008CFFFFFF9FFFFFFFFFFFD3
:00000001FF
