:0400000057EF00F0C6
:100008007F177F177F177F177F177F177F177F1738
:100018007F177F177F177F177F1709176A151D1519
:100028007F177F177F177F177F177F177F177F1718
:100038007F177F177F17DE15CF157F177F177F175D
:100048007F177F177F177F172B007F177F177F1763
:100058007F177F177F177F177F177F177F177F17E8
:100068007F177F177F177F177F177F177F177F17D8
:1000780017167F172B007F177F177F172B002B0072
:100088002B002B002B002B002B002B007F1780163A
:100098007F1759167F177F172B002B002B002B007B
:0A00A80066167F17FF007BEF29F0BA
:101000000073746172416363656C506F7765723A07
:101010002025640A0054696D653A2025642020204B
:101020002020006163744D506F773A2025640A00D8
:1010300042617474657279204C6F77004D506F7700
:101040003A2025660A00494E46004E414E00696E20
:1010500066006E616E006C660000000E0001AA6FF3
:10106000000EA96F85C0BBF086C0BCF087C0BDF084
:1010700088C0BEF0BEBF41EF08F03FEF08F057EF69
:1010800008F0000EAA6F010EA96FBBC014F0BCC01F
:1010900015F0BDC016F0BEC017F0F5EC2BF014C073
:1010A000BBF015C0BCF016C0BDF017C0BEF0000EFE
:1010B0000001C26F000EC16F3AC0ADF03BC0AEF090
:1010C000A951AA11D8A467EF08F069EF08F070EFF2
:1010D00008F03EA46EEF08F070EF08F08AEF08F019
:1010E000A951AA11D8A477EF08F079EF08F07FEFA3
:1010F00008F0000E906F2B0E8F6F83EF08F0000E3C
:10110000906F2D0E8F6F8FC034F1C14BC22BAD0786
:10111000D8A0AE07BBC014F0BCC015F0BDC016F01F
:10112000BEC017F03FEC24F014041510D8A49BEFB8
:1011300008F09DEF08F0F4EF08F0BF0E00018A6F91
:10114000FF0E8B6F89518C6F8D6B8A518C278B5161
:101150008D238D510AE11A0E8C5DD8A0B2EF08F0F4
:10116000B5EF08F0010EB6EF08F0000E916F926B2C
:1011700091519211D8B4BFEF08F0C1EF08F0CFEF52
:1011800008F0340EC125146E010EC221156E460EF4
:10119000166E100E176E46EC29F0DBEF08F0340ED9
:1011A000C125146E010EC221156E4E0E166E100E64
:1011B000176E46EC29F00001FD0EAD27FF0EAE23A1
:1011C00083C026F084C027F0340E286E010E296EED
:1011D000ADC02AF0AEC02BF070EC26F026C083F034
:1011E00027C084F083EF0EF0BBC014F0BCC015F034
:1011F000BDC016F0BEC017F03FEC24F0145015101F
:10120000D8A405EF09F007EF09F05EEF09F0BF0E73
:1012100000018A6FFF0E8B6F89518C6F8D6B8A5125
:101220008C278B518D238D510AE11A0E8C5DD8A02D
:101230001CEF09F01FEF09F0010E20EF09F0000E7E
:10124000936F946B93519411D8B429EF09F02BEF5D
:1012500009F039EF09F0340EC125146E010EC221D8
:10126000156E4A0E166E100E176E46EC29F045EFFD
:1012700009F0340EC125146E010EC221156E520EF6
:10128000166E100E176E46EC29F00001FD0EAD270C
:10129000FF0EAE2383C026F084C027F0340E286EE4
:1012A000010E296EADC02AF0AEC02BF070EC26F016
:1012B00026C083F027C084F083EF0EF0000E0001FB
:1012C000C36F000EC46F800EC56F3F0EC66F000E59
:1012D000C06F000EBF6FBBC014F0BCC015F0BDC026
:1012E00016F0BEC017F0000E186E000E196E000E3C
:1012F0001A6E000E1B6E89EC27F0D8B082EF09F051
:1013000084EF09F009EF0AF0A3EF09F0C3C02AF057
:10131000C4C02BF0C5C02CF0C6C02DF0000E2E6E40
:10132000000E2F6E200E306E410E316E76EC13F0F3
:101330002AC0C3F02BC0C4F02CC0C5F02DC0C6F02D
:101340000001BF4BC02BBBC06DF0BCC06EF0BDC078
:101350006FF0BEC070F0000E2E6E000E2F6E200ECD
:10136000306E410E316EC3C02AF0C4C02BF0C5C030
:101370002CF0C6C02DF076EC13F02AC071F02BC013
:1013800072F02CC073F02DC074F0BCEC23F000019F
:10139000D8B0CDEF09F0CFEF09F086EF09F0EFEF0D
:1013A00009F0C3C014F0C4C015F0C5C016F0C6C023
:1013B00017F0000E186E000E196E200E1A6E410EF8
:1013C0001B6E9EEC15F014C0C3F015C0C4F016C01F
:1013D000C5F017C0C6F00001BF07D8A0C007BBC04A
:1013E0006DF0BCC06EF0BDC06FF0BEC070F0C3C089
:1013F00071F0C4C072F0C5C073F0C6C074F0BCEC2C
:1014000023F00001D8A007EF0AF009EF0AF0D1EFAE
:1014100009F089C01AF01B6AAEEC29F01A500001DD
:10142000B06FB0C0AFF0670EB019D8A41AEF0AF0D1
:101430001CEF0AF042EF0AF03C503D10D8A423EF15
:101440000AF025EF0AF029EF0AF0000E3D6E010EBA
:101450003C6E3DBE36EF0AF03D5006E13C04D8B08C
:1014600034EF0AF036EF0AF03CEF0AF0000EAC6FF2
:10147000060EAB6F4BEF0AF03CC0ABF03DC0ACF0DA
:101480004BEF0AF03DBE47EF0AF049EF0AF036EFA6
:101490000AF03CEF0AF0670EB019D8A452EF0AF038
:1014A00054EF0AF083EF0AF0C0AF62EF0AF0FC0ECF
:1014B000BF5DFF0EC059D8A060EF0AF062EF0AF0DE
:1014C00081EF0AF0FF0E8A6FFF0E8B6FABC08CF0BE
:1014D000ACC08DF08A518C278B518D23BF518C5D10
:1014E0008D51800A8E6FC051800A8E59D8A07BEF33
:1014F0000AF07DEF0AF081EF0AF0660EAF6F83EF1E
:101500000AF0650EAF6FABC0A1F0ACC0A2F0670EE1
:10151000B019D8A48EEF0AF090EF0AF0A0EF0AF00D
:10152000660EAF19D8A497EF0AF099EF0AF0A2EF70
:101530000AF0C0BFA0EF0AF09EEF0AF0A2EF0AF097
:10154000A14BA22B660EAF19D8A4A9EF0AF0ABEFFE
:101550000AF0CBEF0AF0C0BFB2EF0AF0B0EF0AF02A
:10156000BEEF0AF0000EC36F000EC46F800EC56F91
:101570003F0EC66F000EC06F000EBF6F670EB01932
:10158000D8B4C5EF0AF0C7EF0AF0CBEF0AF0BF51AD
:10159000A127C051A223000EBA6F000EB96FBBC0C5
:1015A000B1F0BCC0B2F0BDC0B3F0BEC0B4F0C3C0B7
:1015B000A3F0C4C0A4F0C5C0A5F0C6C0A6F05CEFFF
:1015C0000BF0B1C014F0B2C015F0B3C016F0B4C047
:1015D00017F0C3C018F0C4C019F0C5C01AF0C6C0D7
:1015E0001BF09EEC15F014C02DF015C02EF016C0A7
:1015F0002FF017C030F00FEC1AF02DC0B5F02EC050
:10160000B6F02FC0B7F030C0B8F0B5C079F0B6C0B2
:101610007AF0B7C07BF0B8C07CF0B5EC22F079C0AE
:10162000A7F07AC0A8F0B1C079F0B2C07AF0B3C028
:101630007BF0B4C07CF0C3C02EF0C4C02FF0C5C096
:1016400030F0C6C031F0B5C02AF0B6C02BF0B7C03C
:101650002CF0B8C02DF076EC13F02AC07DF02BC032
:101660007EF02CC07FF02DC080F0F9EC2AF079C01C
:10167000B1F07AC0B2F07BC0B3F07CC0B4F0C3C0AC
:1016800014F0C4C015F0C5C016F0C6C017F0000EA7
:10169000186E000E196E200E1A6E410E1B6E9EEC17
:1016A00015F014C0C3F015C0C4F016C0C5F017C0C3
:1016B000C6F00001B94BBA2BA151B95DBA51800AED
:1016C0008A6FA251800A8A59D8A069EF0BF06BEF9C
:1016D0000BF0E1EF0AF0C3C02AF0C4C02BF0C5C084
:1016E0002CF0C6C02DF0000E2E6E000E2F6EA00E38
:1016F000306E400E316E76EC13F02AC0B5F02BC080
:10170000B6F02CC0B7F02DC0B8F0B1C06DF0B2C0CB
:101710006EF0B3C06FF0B4C070F0B5C071F0B6C079
:1017200072F0B7C073F0B8C074F0BCEC23F00001E5
:10173000D8B09DEF0BF09FEF0BF0A9EF0BF0000E70
:10174000B56F000EB66F000EB76F000EB86FD2EF18
:101750000BF0B1C014F0B2C015F0B3C016F0B4C0B5
:1017600017F0B5C018F0B6C019F0B7C01AF0B8C07D
:101770001BF089EC27F0D8A0C0EF0BF0C2EF0BF004
:10178000D2EF0BF00001A7B1C8EF0BF0CAEF0BF0DE
:10179000D2EF0BF0000EB56F000EB66F000EB76FF4
:1017A000000EB86FBBC06DF0BCC06EF0BDC06FF076
:1017B000BEC070F0B5C071F0B6C072F0B7C073F0C3
:1017C000B8C074F015EC11F06DC0B1F06EC0B2F09D
:1017D0006FC0B3F070C0B4F0B1C06DF0B2C06EF0C5
:1017E000B3C06FF0B4C070F0000E2E6E000E2F6EFE
:1017F000200E306E410E316EA3C02AF0A4C02BF033
:10180000A5C02CF0A6C02DF076EC13F02AC071F024
:101810002BC072F02CC073F02DC074F0BCEC23F020
:101820000001D8A016EF0CF018EF0CF040EF0CF010
:10183000BF4BC02BA3C02AF0A4C02BF0A5C02CF036
:10184000A6C02DF0000E2E6E000E2F6E200E306EF4
:10185000410E316E76EC13F02AC0A3F02BC0A4F039
:101860002CC0A5F02DC0A6F0660E0001AF19D8A4BB
:101870003CEF0CF03EEF0CF040EF0CF0A14BA22B34
:10188000A3C0C3F0A4C0C4F0A5C0C5F0A6C0C6F0F4
:10189000650EAF19D8B44FEF0CF051EF0CF057EFC5
:1018A0000CF0BFC09FF0C0C0A0F05BEF0CF0000ECA
:1018B000A06F000E9F6F000E9E6F000E9D6F000EBA
:1018C0009C6F000E9B6F000EBA6F000EB96F57EF42
:1018D0000DF0B1C014F0B2C015F0B3C016F0B4C032
:1018E00017F0C3C018F0C4C019F0C5C01AF0C6C0C4
:1018F0001BF09EEC15F014C02DF015C02EF016C094
:101900002FF017C030F00FEC1AF02DC0B5F02EC03C
:10191000B6F02FC0B7F030C0B8F0B5C079F0B6C09F
:101920007AF0B7C07BF0B8C07CF0B5EC22F079C09B
:10193000A7F07AC0A8F03EB8A0EF0CF0A2EF0CF030
:10194000C0EF0CF00001A751A811D8A4AAEF0CF029
:10195000ACEF0CF0C0EF0CF0670EB019D8A4B3EFE9
:101960000CF0B5EF0CF0C0EF0CF0A0BFBCEF0CF02A
:10197000BAEF0CF0C0EF0CF09B4B9C2B0BEF0DF073
:1019800000019D519E11D8A4C8EF0CF0CAEF0CF0D5
:10199000F4EF0CF0A0BFD1EF0CF0CFEF0CF0F4EFB0
:1019A0000CF0340EC125D96E010EC221DA6E2E0E56
:1019B000DF6EC14BC22BAD07D8A0AE07000E9E6FE5
:1019C000010E9D6FF4EF0CF0340EC125D96E010E9F
:1019D000C221DA6E300EDF6EC14BC22BAD07D8A02C
:1019E000AE079B07D8A09C079B519C11D8A4FBEF86
:1019F0000CF0FDEF0CF0E4EF0CF0340EC125D96EC5
:101A0000010EC221DA6EA751300FDF6EC14BC22B1F
:101A1000AD07D8A0AE07B1C079F0B2C07AF0B3C0BC
:101A20007BF0B4C07CF0C3C02EF0C4C02FF0C5C0A2
:101A300030F0C6C031F0B5C02AF0B6C02BF0B7C048
:101A40002CF0B8C02DF076EC13F02AC07DF02BC03E
:101A50007EF02CC07FF02DC080F0F9EC2AF079C028
:101A6000B1F07AC0B2F07BC0B3F07CC0B4F0C3C0B8
:101A700014F0C4C015F0C5C016F0C6C017F0000EB3
:101A8000186E000E196E200E1A6E410E1B6E9EEC23
:101A900015F014C0C3F015C0C4F016C0C5F017C0CF
:101AA000C6F000019F07D8A0A007B94BBA2BA151DF
:101AB000B95DBA51800A8A6FA251800A8A59D8B09A
:101AC00064EF0DF066EF0DF074EF0DF0C2BF72EF32
:101AD0000DF0C25109E14B0EC15DD8A072EF0DF0BF
:101AE00074EF0DF069EF0CF09D519E11D8A47BEFBF
:101AF0000DF07DEF0DF08EEF0DF03EA882EF0DF0B2
:101B000084EF0DF08EEF0DF0340EC125D96E010E6D
:101B1000C221DA6E2E0EDF6EC14BC22B340EC125F0
:101B2000D96E010EC221DA6E000EDF6E650EAF199E
:101B3000D8A49DEF0DF09FEF0DF071EF0EF0000EA9
:101B4000BA6F4F0EB96F340EB925D96E010EBA2196
:101B5000DA6E000EDF6E000EAA6F000EA96FC0BF16
:101B6000B6EF0DF0B4EF0DF0BEEF0DF0000EAA6F62
:101B7000010EA96FBF6DC01FD8B0C02B000EAC6F97
:101B8000020EAB6FEFEF0DF0B907D8A0BA07340E15
:101B9000B925D96E010EBA21DA6EBFC014F0C0C0EB
:101BA00015F0000E176E0A0E166E31EC27F0145069
:101BB000300FDF6EBFC014F0C0C015F0000E176EFE
:101BC0000A0E166E0EEC26F014C0BFF015C0C0F061
:101BD0000001AB07D8A0AC07AD07D8A0AE07BF5136
:101BE000C011D8A4F6EF0DF0F8EF0DF0C4EF0DF032
:101BF000ACBF05EF0EF0AC5106E1AB05D8B003EF7A
:101C00000EF005EF0EF0C4EF0DF0B907D8A0BA073B
:101C1000A951AA11D8A40FEF0EF011EF0EF017EF93
:101C20000EF0000E966F2B0E956F1BEF0EF0000E50
:101C3000966F2D0E956F340EB925D96E010EBA210F
:101C4000DA6E600057F2DFFFAD07D8A0AE07B90724
:101C5000D8A0BA07BF0E8A6FFF0E8B6F89518C6FA9
:101C60008D6B8A518C278B518D238D510AE11A0E71
:101C70008C5DD8A03EEF0EF041EF0EF0010E42EF6A
:101C80000EF0000E996F9A6B99519A11D8A44BEFF0
:101C90000EF04DEF0EF053EF0EF0000E986F650E44
:101CA000976F57EF0EF0000E986F450E976F340E3A
:101CB000B925D96E010EBA21DA6E60005FF2DFFF3E
:101CC000AD07D8A0AE07340EC125146E010EC22197
:101CD000156E340EB925166E010EBA21176E46EC3C
:101CE00029F083C026F084C027F0340E286E010E40
:101CF000296EADC02AF0AEC02BF070EC26F026C0E5
:101D000083F027C084F01200600027F3D9FF600041
:101D10002BF3DAFF6F007BFFF6FF6F0077FFF7FF13
:101D2000F86A0800F550250AD8A499EF0EF09BEF49
:101D30000EF0F2EF10F0600027F3D9FF60002BF3F4
:101D4000DAFFDE2A000EDD22000E3B6E000E3A6E38
:101D50003AC03EF03BC03FF03C683D68600027F36E
:101D6000D9FF60002BF3DAFF6F007BFFF6FF6F00F7
:101D700077FFF7FFF86A0800F5501A6E1B6AAEECA1
:101D800029F01A500001DF6FDF51D8B4CAEF0EF00E
:101D9000CCEF0EF014EF0FF0600027F3D9FF6000D6
:101DA0002BF3DAFF6F0078FFCDF06F0074FFCEF0F9
:101DB000010ECD27000ECE23600037F3F6FF600042
:101DC0003BF3F7FFF86A0800F5501A6E1B6AAEEC99
:101DD00029F01A500001E06FE051D8B4F2EF0EF094
:101DE000F4EF0EF014EF0FF0600027F3D9FF60005E
:101DF0002BF3DAFF6F0078FFCDF06F0074FFCEF0A9
:101E0000020ECD27000ECE23600037F3F6FF6000F0
:101E10003BF3F7FFF86A0800F5501A6E1B6AAEEC48
:101E200029F01A500001E16F600027F3D9FF60002C
:101E30002BF3DAFF6F007BFFF6FF6F0077FFF7FFF2
:101E4000F86A0800F550640AD8B429EF0FF02BEFB8
:101E50000FF042EF0FF0600027F3D9FF60002BF383
:101E6000DAFF6F007BFFF6FF6F0077FFF7FFF86A7E
:101E70000800F550690AD8A440EF0FF042EF0FF0C8
:101E80008CEF0FF0600027F3D9FF60002BF3DAFF2F
:101E9000DE2A000EDD2260002FF3D9FF600033F34D
:101EA000DAFF6F007CFFCDF0020EDE266F007CFFB4
:101EB000CEF0000EDD22600037F3D9FF60003BF367
:101EC000DAFF6F0078FFD1F06F0074FFD2F0000EE0
:101ED000D2BFFF0ED36FD46FD56FD66FD76FD86FC9
:101EE000C7C060F0C8C061F0D1C062F0D2C063F07A
:101EF000D3C064F0D4C065F0D5C066F0D6C067F03A
:101F0000D7C068F0D8C069F06BEC17F060C0C7F0BC
:101F100061C0C8F014EF11F0660EDF19D8A493EF7A
:101F20000FF095EF0FF0E7EF0FF0600027F3D9FF08
:101F300060002BF3DAFF6F007BFFF6FF6F0077FF87
:101F4000F7FFF86A08006F00D4FFE2F0600027F3A3
:101F5000D9FF60002BF3DAFFDE2A000EDD226000DD
:101F60002FF3D9FF600033F3DAFF6F007CFFCDF071
:101F7000040EDE266F007CFFCEF0000EDD22600036
:101F800037F3D9FF60003BF3DAFF6F0078FFDBF037
:101F90006F0078FFDCF06F0078FFDDF06F0078FFF6
:101FA000DEF0C7C083F0C8C084F0DBC085F0DCC0C1
:101FB00086F0DDC087F0DEC088F0E2C089F02DEC4D
:101FC00008F083C0C7F084C0C8F014EF11F0DF0E32
:101FD000146E000E156E560E166E100E176E000E55
:101FE000196E020E186EBEEC24F014501510D8A411
:101FF000FCEF0FF0FEEF0FF0B1EF10F0600027F3F1
:10200000D9FF60002BF3DAFF6F0078FFCDF06F008F
:1020100074FFCEF0010E0001CD27000ECE2360002C
:1020200037F3F6FF60003BF3F7FFF86A08006F0034
:10203000D4FFE2F0BF0ECD6FFF0ECE6F600027F32E
:10204000D9FF60002BF3DAFF6F007BFFF6FF6F0014
:1020500077FFF7FFF86A0800F550CF6FD06BCD51CE
:10206000CF27CE51D023D0510AE11A0ECF5DD8A090
:102070003CEF10F03FEF10F0010E40EF10F0000EBB
:10208000D96FDA6BD951DA11D8B449EF10F04BEFB0
:1020900010F06FEF10F060002FF3D9FF600033F302
:1020A000DAFF6F007CFFCDF0040EDE266F007CFFB0
:1020B000CEF0000EDD22600037F3D9FF60003BF365
:1020C000DAFF6F0078FFDBF06F0078FFDCF06F0065
:1020D00078FFDDF06F0078FFDEF091EF10F0600028
:1020E0002FF3D9FF600033F3DAFF6F007CFFCDF0F0
:1020F000040EDE266F007CFFCEF0000EDD226000B5
:1021000037F3D9FF60003BF3DAFF6F0078FFDBF0B5
:102110006F0078FFDCF06F0078FFDDF06F0078FF74
:10212000DEF0020E600027F3D9FF60002BF3DAFF28
:10213000DE26000EDD22C7C083F0C8C084F0DBC0FD
:1021400085F0DCC086F0DDC087F0DEC088F0E2C03C
:1021500089F02DEC08F083C0C7F084C0C8F014EFFC
:1021600011F0600027F3D9FF60002BF3DAFF6F0056
:102170007BFFF6FF6F0077FFF7FFF86A0800F55066
:10218000250AD8A4C6EF10F0C8EF10F0E2EF10F067
:10219000600027F3D9FF60002BF3DAFFDE2A000E80
:1021A000DD22000E176E250E166EC7C018F0C8C0CF
:1021B00019F030EC28F0000E0001C86F010EC76F57
:1021C00014EF11F0600027F3D9FF60002BF3DAFF62
:1021D000DE2A000EDD22000E0001C86F000EC76F60
:1021E00014EF11F0600027F3D9FF60002BF3DAFF42
:1021F0006F007BFFF6FF6F0077FFF7FFF86A0800BC
:10220000F550166E176AC7C018F0C8C019F030EC48
:1022100028F0600027F3D9FF60002BF3DAFFDE2AF5
:10222000000EDD22DBEF10F0120000017051800B78
:10223000756F70517025776F6FAF21EF11F023EF3D
:1022400011F024EF11F077817751D8B42AEF11F013
:102250002CEF11F041EF11F07729D8A432EF11F0F3
:1022600034EF11F03CEF11F0000E6D6F000E6E6F49
:10227000000E6F6F000E706F6F8F000E706F49EF62
:1022800011F0000E6D6F000E6E6F000E6F6F000E7E
:10229000706F7451800B766F75517619D8B453EF07
:1022A00011F055EF11F056EF11F0758D7451742542
:1022B000766F73AF5EEF11F060EF11F061EF11F028
:1022C00076817651D8B467EF11F069EF11F07EEFA7
:1022D00011F07629D8A46FEF11F071EF11F079EFBA
:1022E00011F0000E716F000E726F000E736F000E12
:1022F000746F738F000E746F86EF11F0000E716FA4
:10230000000E726F000E736F000E746F7751765D62
:10231000D8B08DEF11F08FEF11F0B6EF11F075AD71
:1023200094EF11F096EF11F098EF11F0800E751BFD
:1023300077C078F076C077F078C076F06DC078F02E
:1023400071C06DF078C071F06EC078F072C06EF040
:1023500078C072F06FC078F073C06FF078C073F01F
:1023600070C078F074C070F078C074F0000E786FB0
:10237000775176C036F0376A365E000E375A37BE70
:10238000CBEF11F0375009E11A0E365CD8A0CBEF35
:1023900011F0CDEF11F004EF12F06D516E116F11CD
:1023A0007011D8A4D6EF11F0D9EF11F0010EDAEFC9
:1023B00011F0000E786F000E6D6F000E6E6F000E44
:1023C0006F6F000E706F76C077F00DEF12F078A18E
:1023D000ECEF11F0EEEF11F0F4EF11F0D89078314E
:1023E0000109786FF6EF11F0D89078336DA1FBEF0B
:1023F00011F0FDEF11F0FEEF11F0788F70357033B2
:102400006F336E336D33772B7651775DD8A00BEF3A
:1024100012F00DEF12F0E7EF11F075BD12EF12F0B0
:1024200014EF12F054EF12F07751D8A41AEF12F013
:102430001CEF12F026EF12F0000E6D6F000E6E6FA3
:10244000000E6F6F000E706F75EF13F071516D27F6
:1024500072516E2373516F237451702370A133EF47
:1024600012F035EF12F0E1EF12F078A13AEF12F02E
:102470003CEF12F042EF12F0D89078310109786FFA
:1024800044EF12F0D89078336DA149EF12F04BEF82
:1024900012F04CEF12F0788F703570336F336E336B
:1024A0006D33772BE1EF12F071516D5D72516E5902
:1024B00073516F597051800A366E7451800A3658C4
:1024C000D8B065EF12F067EF12F092EF12F06D5195
:1024D000715D366E6E517259376E6F517359386E29
:1024E00070517459396EFF0E36246D6FFF0E372010
:1024F0006E6FFF0E38206F6FFF0E3920706F800EE9
:10250000751B786D7851D8A488EF12F08AEF12F01D
:102510009AEF12F0010E6D27000E6E236F237023C9
:102520009AEF12F071516D5F72516E5B73516F5B78
:102530007451705B6D516E116F117011D8A4A3EFBF
:1025400012F0A5EF12F0DAEF12F07851D8A4ABEF49
:1025500012F0ADEF12F0DAEF12F0000E6D6F000E18
:102560006E6F000E6F6F000E706F75EF13F0D890E6
:102570006D376E376F37703778AFC1EF12F0C3EF3A
:1025800012F0C4EF12F06D8178A1C9EF12F0CBEF19
:1025900012F0CFEF12F0D8807837D1EF12F0D89048
:1025A00078377751D8B4D7EF12F0D9EF12F0DAEFCD
:1025B00012F077076FAFDFEF12F0E1EF12F0B7EF35
:1025C00012F0000E766F78AFE8EF12F0EAEF12F03B
:1025D00002EF13F078C036F07F0E3616D8B4F3EF62
:1025E00012F0F5EF12F0F9EF12F0010E766F02EF34
:1025F00013F06DA1FEEF12F000EF13F002EF13F0F5
:10260000F5EF12F07651D8B408EF13F00AEF13F09B
:1026100035EF13F0010E6D27000E6E236F2370232C
:1026200070A115EF13F017EF13F035EF13F06DC035
:1026300036F06EC037F06FC038F070C039F0393402
:10264000393238323732363236C06DF037C06EF03C
:1026500038C06FF039C070F07729D8B432EF13F07A
:1026600034EF13F035EF13F0772B7729D8B43BEF25
:1026700013F03DEF13F045EF13F07751D8A443EF7B
:1026800013F045EF13F057EF13F0000E6D6F000ECF
:102690006E6F000E6F6F000E706F7751D8A453EFFE
:1026A00013F055EF13F057EF13F0000E756F77A18D
:1026B0005CEF13F05EEF13F061EF13F06F8F62EFDA
:1026C00013F06F9FD8907731706F75AF6AEF13F08A
:1026D0006CEF13F06DEF13F0708F6DC06DF06EC086
:1026E0006EF06FC06FF070C070F012002D50800B54
:1026F0000001606F2D502D24666F2CAE82EF13F019
:1027000084EF13F085EF13F066816651D8B48BEF38
:1027100013F08DEF13F0A0EF13F06629D8A493EF18
:1027200013F095EF13F09DEF13F0000E2A6E000EDC
:102730002B6E000E2C6E000E2D6E2C8EA8EF13F05B
:10274000000E2A6E000E2B6E000E2C6E000E2D6EEB
:102750003150800B601B31503124616F30AEB3EFCC
:1027600013F0B5EF13F0B6EF13F061816151D8B4F7
:10277000BCEF13F0BEEF13F0D1EF13F06129D8A432
:10278000C4EF13F0C6EF13F0CEEF13F0000E2E6E71
:10279000000E2F6E000E306E000E316E308ED9EFAF
:1027A00013F0000E2E6E000E2F6E000E306E000E17
:1027B000316E6151D8B4DFEF13F0E1EF13F0E9EFC0
:1027C00013F06651D8A4E7EF13F0E9EF13F0F3EF3D
:1027D00013F0000E2A6E000E2B6E000E2C6E000EF3
:1027E0002D6E9DEF15F030502A026F00CCFF6BF07C
:1027F0006F00D0FF6CF06B51626F636B646B656B45
:102800006C51676F686B696B6A6B2F502B026F009E
:10281000CCFF6BF06F00D0FF6CF06B516227000EA5
:102820006323642365236C516727000E68236923A3
:102830006A232E502C026F00CCFF6BF06F00D0FF8C
:102840006CF06B516227000E6323642365236C5187
:102850006727000E682369236A2364C065F063C09C
:1028600064F062C063F0626B2E502B026F00CCFFED
:102870006BF06F00D0FF6CF06B5162276C516323DB
:10288000000E6423000E65232F502A026F00CCFF38
:102890006BF06F00D0FF6CF06B5162276C516323BB
:1028A000000E6423000E652364C065F063C064F00D
:1028B00062C063F0626B2E502A026F00CCFF6BF097
:1028C0006F00D0FF6CF06B5162276C516323000ED8
:1028D0006423000E652330502B026F00CCFF6BF099
:1028E0006F00D0FF6CF06B5167276C516823000EAE
:1028F0006923000E6A232F502C026F00CCFF6BF06F
:102900006F00D0FF6CF06B5167276C516823000E8D
:102910006923000E6A2330502C026F00CCFF6BF04D
:102920006F00D0FF6CF06B51326E6C51336E346AB5
:10293000356A34C035F033C034F032C033F0326A17
:1029400032506727335068233450692335506A2347
:1029500062C032F063C033F064C034F065C035F05B
:10296000190EB8EF14F0D890353234323332323297
:10297000E82EB3EF14F032506727335068233450F9
:10298000692335506A2364C065F063C064F062C097
:1029900063F0626B615166C032F0336A3226000E1A
:1029A0003322820E32246B6FFF0E33206C6FEEEFFA
:1029B00014F0D8906737683769376A3765AFE3EF47
:1029C00014F0E5EF14F0E6EF14F06781D890623769
:1029D0006337643765376B07D8A06C0769AFF3EFCF
:1029E00014F0F5EF14F0D9EF14F0000E616F65AF3D
:1029F000FCEF14F0FEEF14F022EF15F0FF0E62155D
:102A0000326EFF0E6315336EFF0E6415346E7F0E4B
:102A10006515356E3250331034103510D8B413EFBD
:102A200015F015EF15F019EF15F0010E616F22EF9B
:102A300015F067A11EEF15F020EF15F022EF15F04D
:102A400015EF15F06151D8B428EF15F02AEF15F005
:102A50004EEF15F0010E6727000E682369236A23E5
:102A60006AA135EF15F037EF15F04EEF15F067C09E
:102A700032F068C033F069C034F06AC035F03534E4
:102A8000353234323332323232C067F033C068F01C
:102A900034C069F035C06AF06B4B6C2B6CBF59EFDA
:102AA00015F06C5108E16B29D8A059EF15F05BEFD8
:102AB00015F065EF15F0000E676F000E686F800E61
:102AC000696F7F0E6A6F93EF15F06CBF72EF15F0B0
:102AD0006C5106E16B05D8B070EF15F072EF15F090
:102AE0007EEF15F0000E676F000E686F000E696FC5
:102AF000000E6A6F000E606F93EF15F06BC066F00A
:102B0000FF0E6717FF0E68177F0E6917000E6A1712
:102B100066A18DEF15F08FEF15F090EF15F0698F2E
:102B2000D89066316A6F60516A1367C02AF068C036
:102B30002BF069C02CF06AC02DF012001750800BEA
:102B4000246E175017242B6E16AEA9EF15F0ABEFBD
:102B500015F0ACEF15F02B802B50D8B4B2EF15F078
:102B6000B4EF15F0C9EF15F02B28D8A4BAEF15F083
:102B7000BCEF15F0C4EF15F0000E146E000E156ECC
:102B8000000E166E000E176E168E000E176ED1EF29
:102B900015F0000E146E000E156E000E166E000E6F
:102BA000176E1B50800B241A1B501B242C6E1AAE60
:102BB000DCEF15F0DEEF15F0DFEF15F02C802C5078
:102BC000D8B4E5EF15F0E7EF15F0FCEF15F02C2881
:102BD000D8A4EDEF15F0EFEF15F0F7EF15F0000EBC
:102BE000186E000E196E000E1A6E000E1B6E1A8EF5
:102BF000000E1B6E04EF16F0000E186E000E196E1C
:102C0000000E1A6E000E1B6E185019101A101B10B1
:102C1000D8A40DEF16F00FEF16F027EF16F0000E08
:102C2000146E000E156E000E166E000E176E800EDE
:102C300016127F0E17122450171214C014F015C06C
:102C400015F016C016F017C017F06AEF17F02B50EA
:102C5000D8A42DEF16F02FEF16F039EF16F0000E76
:102C6000146E000E156E000E166E000E176E6AEFD3
:102C700017F02C502BC01CF01D6A1C5E000E1D5A54
:102C80007F0E1C24256E000E1D20266E14C020F021
:102C900015C021F016C022F017C023F0000E146EEC
:102CA000000E156E000E166E000E176E000E276ECB
:102CB000000E286E000E296E000E2A6E000E2C6E7D
:102CC0009AEF16F02C50D8B468EF16F06AEF16F0B1
:102CD00081EF16F0D8902036213622362336D89050
:102CE00014361536163617362AAE79EF16F07BEF06
:102CF00016F07CEF16F01480D89027362836293647
:102D00002A361850205C195021581A5022581B504E
:102D10002358D8A08EEF16F090EF16F099EF16F02A
:102D20002A8C1850205E1950215A1A50225A1B50D2
:102D3000235A2C2A190E2C64A0EF16F0A2EF16F0DD
:102D400062EF16F02050211022102310D8B4ABEF00
:102D500016F0ADEF16F0C5EF16F02780C5EF16F0B0
:102D6000D89014361536163617362AAEBAEF16F046
:102D7000BCEF16F0BDEF16F01480D8902736283639
:102D800029362A362506D8A0260616AECAEF16F032
:102D9000CCEF16F0B0EF16F0000E2C6E2AAED3EF8B
:102DA00016F0D5EF16F0F9EF16F0FF0E27141C6E93
:102DB000FF0E28141D6EFF0E29141E6E7F0E2A149E
:102DC0001F6E1C501D101E101F10D8B4EAEF16F015
:102DD000ECEF16F0F0EF16F0010E2C6EF9EF16F096
:102DE00014A0F5EF16F0F7EF16F0F9EF16F0ECEF90
:102DF00016F02C50D8B4FFEF16F001EF17F025EFC6
:102E000017F0010E1426000E15221622172217A005
:102E10000CEF17F00EEF17F025EF17F014C01CF0B1
:102E200015C01DF016C01EF017C01FF01F341F3252
:102E30001E321D321C321CC014F01DC015F01EC005
:102E400016F01FC017F0254A262A26BE30EF17F0CD
:102E5000265008E12528D8A030EF17F032EF17F000
:102E60003DEF17F0000E266E2568000E146E000E62
:102E7000156E000E166E000E176E26BE4AEF17F086
:102E8000265006E12504D8B048EF17F04AEF17F0B6
:102E900058EF17F0000E266E000E256E000E146E11
:102EA000000E156E000E166E000E176E000E246ECC
:102EB00025C02BF02BA05FEF17F061EF17F064EF48
:102EC00017F0168E65EF17F0169ED8902B30176E00
:102ED0001BEF16F0120062C072F063C073F064C0A2
:102EE00074F065C075F066C076F067C077F068C0B2
:102EF00078F069C079F0000179BF81EF17F084EFB5
:102F000017F0010E85EF17F0000E706F716B7051A6
:102F10007111D8B48EEF17F090EF17F0A0EF17F003
:102F2000791F781F771F761F751F741F731F726DAF
:102F3000000E732374237523762377237823792354
:102F40003DBEA5EF17F0A7EF17F0A8EF17F03E92E0
:102F50003DBEB5EF17F03D5006E13C04D8B0B3EFED
:102F600017F0B5EF17F0BBEF17F0000E6D6F010E05
:102F70006C6FBFEF17F03CC06CF03DC06DF03AC015
:102F80006EF03BC06FF070517111D8A4CAEF17F00A
:102F9000CCEF17F0D3EF17F03EA4D1EF17F0D3EF3B
:102FA00017F0D6EF17F06E07D8A06F07000E7B6FF3
:102FB0004F0E7A6F000E0101836F5CEF18F07A07F5
:102FC000D8A07B07340E7A25D96E010E7B21DA6EEC
:102FD00072C014F073C015F074C016F075C017F00D
:102FE00076C018F077C019F078C01AF079C01BF0DD
:102FF0000A0E1C6E000E1D6E000E1E6E000E1F6E61
:10300000000E206E000E216E000E226E000E236E4A
:103010003CEC20F014C031F015C032F016C033F093
:1030200017C034F018C035F019C036F01AC037F0A8
:103030001BC038F031C026F033C027F061EC2BF014
:103040002650300FDF6E00016C07D8A06D076E07A9
:10305000D8A06F0772C014F073C015F074C016F0DA
:1030600075C017F076C018F077C019F078C01AF064
:1030700079C01BF00A0E1C6E000E1D6E000E1E6E37
:10308000000E1F6E000E206E000E216E000E226ECE
:10309000000E236EB9EC1EF014C072F015C073F070
:1030A00016C074F017C075F018C076F019C077F02C
:1030B0001AC078F01BC079F000017BBF68EF18F0F0
:1030C0007B5108E17A05D8A068EF18F06AEF18F094
:1030D0009AEF18F0725173117411751176117711FE
:1030E00078117911D8A477EF18F079EF18F0DFEFA5
:1030F00017F06DBF86EF18F06D5106E16C05D8B082
:1031000084EF18F086EF18F0DFEF17F06FBF91EF44
:1031100018F06F5108E16E05D8A091EF18F093EF09
:1031200018F09AEF18F03EB298EF18F09AEF18F0F6
:10313000DFEF17F070517111D8A4A1EF18F0A3EFD1
:1031400018F0AAEF18F03EA4A8EF18F0AAEF18F0B4
:10315000C9EF18F07A07D8A07B0770517111D8A475
:10316000B4EF18F0B6EF18F0BCEF18F0000E6B6F6C
:103170002B0E6A6FC0EF18F0000E6B6F2D0E6A6F8A
:10318000340E7A25D96E010E7B21DA6E6000ABF128
:10319000DFFF60C026F061C027F0340E7A25286E6C
:1031A000010E7B21296E6EC02AF06FC02BF070ECEF
:1031B00026F026C060F027C061F012000001EF5138
:1031C000F75D0101AC6F0001F051F8590101AD6FDD
:1031D0000001ED51F35D0101AA6F0001EE51F459B8
:1031E0000101AB6FE7EF19F0ADBF00EF19F0AD5182
:1031F00009E11F0EAC5DD8A000EF19F002EF19F045
:1032000024EF19F0ADBF10EF19F02C0EAC5D010EDC
:10321000AD59D8B00EEF19F010EF19F024EF19F0F6
:103220000001F05107E17D0EEF5DD8B01AEF19F003
:103230001CEF19F024EF19F0000EF96F010EFB6F6F
:10324000050EFE6F06EF1AF00101ABBF31EF19F06A
:10325000AB5109E11F0EAA5DD8A031EF19F033EF91
:1032600019F006EF1AF0ABBF41EF19F02C0EAA5D72
:10327000010EAB59D8B03FEF19F041EF19F006EF4E
:103280001AF00001EE5107E17D0EED5DD8B04BEF75
:1032900019F04DEF19F006EF1AF0000EF96F010E5C
:1032A000FB6F060EFE6F06EF1AF0130E0001F965B4
:1032B0005CEF19F05EEF19F064EF19F0000EF96F92
:1032C000020EFB6F06EF1AF00001F92B06EF1AF061
:1032D000180E0001F9656FEF19F071EF19F064EF46
:1032E00019F0050EFE19D8A478EF19F07AEF19F04D
:1032F00085EF19F0F85109E12D0EF75DD8A083EFA5
:1033000019F085EF19F0A4EF19F0060EFE19D8A4F4
:103310008CEF19F08EEF19F099EF19F0F45109E1E3
:103320002D0EF35DD8A097EF19F099EF19F0A4EFE7
:1033300019F0FD5109E1970EFC5DD8A0A2EF19F03C
:10334000A4EF19F0B7EF19F0150E0101A06F100EE0
:10335000A16FF9C0A2F1A36BFEEC2DF0000E0001ED
:10336000F96F030EFB6F010EFE6F64EF19F0060E8E
:10337000FE19D8A4BEEF19F0C0EF19F064EF19F0F0
:103380000101ADBFCDEF19F0AD5109E11F0EAC5DEC
:10339000D8A0CDEF19F0CFEF19F064EF19F0000EBF
:1033A0000001F96F010EFB6F050EFE6F64EF19F05F
:1033B0000001F951D8B4DFEF19F0E1EF19F064EF33
:1033C00019F0000EF96F000EFB6F06EF1AF0000106
:1033D000FB510101A86FA96BA951000AD8B4F3EF02
:1033E00019F006EF1AF0A851000AD8B4F4EF18F05B
:1033F000010AD8B455EF19F0030AD8B468EF19F0F0
:10340000010AD8B4D8EF19F006EF1AF0F7C0EFF0C0
:10341000F8C0F0F0F3C0EDF0F4C0EEF0120018C107
:1034200066F019C167F01AC168F01BC169F02DC0C0
:1034300066F02EC067F02FC068F030C069F0810ED2
:10344000316EFF0E326E66C033F067C034F068C074
:1034500035F069C036F0180E33EF1AF0D8903632D6
:10346000353234323332E82E2EEF1AF03350312415
:103470000001646F000E3220656F65BF49EF1AF0DE
:10348000655109E1170E645DD8A049EF1AF04BEFC2
:103490001AF055EF1AF02DC02DF02EC02EF02FC0CF
:1034A0002FF030C030F019EF1BF065BF5AEF1AF063
:1034B0005CEF1AF0CDEF1AF064C031F0FF0E326EFF
:1034C000FF0E336E7F0E346E000E356E31666BEF7D
:1034D0001AF073EF1AF03534353234323332323277
:1034E000312E66EF1AF032C060F033C061F034C0A4
:1034F00062F035C063F0000160516615316E6151B4
:103500006715326E62516815336E63516915346EFA
:103510003150321033103410D8A491EF1AF093EFD9
:103520001AF095EF1AF04BEF1AF066C031F067C051
:1035300032F068C033F069C034F0200EA5EF1AF005
:10354000D8903432333232323132E82EA0EF1AF0D2
:103550003150321033103410D8B4B1EF1AF0B3EF49
:103560001AF0BBEF1AF06051662761516723625170
:10357000682363516923601D316E611D326E621DC7
:10358000336E631D346E31506617325067173350F7
:1035900068173450691711EF1BF066C031F067C02F
:1035A00032F068C033F069C034F0200EDDEF1AF05D
:1035B000D8903432333232323132E82ED8EF1AF02A
:1035C0003150321033103410D8A4E9EF1AF0EBEF79
:1035D0001AF0F5EF1AF0000E666F000E676F000E1E
:1035E000686F000E696F11EF1BF0D8906635316E71
:1035F0006735326E6835336E6935346E315032104E
:1036000033103410D8B407EF1BF009EF1BF011EFA3
:103610001BF0000E666F000E676F800E686FBF0EA6
:10362000696F66C02DF067C02EF068C02FF069C0CA
:1036300030F01200000E0001886F000E876FD0EF8F
:103640001BF0FD5109E11F0EFC5DD8A02AEF1BF015
:103650002CEF1BF02EEF1BF0010EFE6FECBF3AEFCC
:103660001BF0EC5109E1650EEB5DD8A03AEF1BF0C1
:103670003CEF1BF057EF1BF0EBC087F0ECC088F07D
:10368000FD5107E10F0EFC5DD8B049EF1BF04BEF89
:103690001BF051EF1BF0FC0E8727FF0E8823F9EF7C
:1036A0001BF0FE0E8727FF0E8823F9EF1BF0000E9C
:1036B000886F640E876FF9EF1BF0FD5107E11E0E56
:1036C000FC5DD8B066EF1BF068EF1BF06AEF1BF0F3
:1036D000020EFE6FFD5109E1960EFC5DD8A073EF5E
:1036E0001BF075EF1BF0BEEF1BF0000E716F800E2C
:1036F000726F890E736F430E746F000E2E6E000E84
:103700002F6E000E306E3F0E316E6A0E836FFF0E0D
:10371000846FFCC085F0FDC086F0835185278451FD
:10372000862385C01CF086C01DF01E6A1F6A000E2D
:103730000DEC1DF01CC02AF01DC02BF01EC02CF09B
:103740001FC02DF076EC13F02AC06DF02BC06EF088
:103750002CC06FF02DC070F015EC11F06DC079F039
:103760006EC07AF06FC07BF070C07CF0B5EC22F0D8
:1037700079C087F07AC088F0F9EF1BF0010E886FEE
:10378000130E876FF9EF1BF0FF0E886F830E876FA4
:10379000F9EF1BF0000E886FC80E876FF9EF1BF072
:1037A000FE51836F846B8451000AD8B4DAEF1BF0AA
:1037B000F9EF1BF08351000AD8B45DEF1BF0010A4A
:1037C000D8B45DEF1BF0030AD8B421EF1BF0010A57
:1037D000D8B4C4EF1BF0070AD8B4C4EF1BF0010A39
:1037E000D8B4CAEF1BF0030AD8B4CAEF1BF0F9EF44
:1037F0001BF0000188BF06EF1CF0910E875D010EE3
:103800008859D8A006EF1CF008EF1CF00CEF1CF054
:10381000010E886F900E876F88AF18EF1CF0060EB0
:10382000875DFF0E8859D8B018EF1CF01AEF1CF016
:103830001EEF1CF0FF0E886F060E876F87C0EBF03F
:1038400088C0ECF012000001F351F75D256EF451D1
:10385000F859266E150E2524296E000E26202A6E94
:103860005AEF1CF02ABE3EEF1CF02A5009E11A0E56
:10387000295CD8A03EEF1CF040EF1CF046EF1CF096
:10388000000E2A6E190E296EE3EF1CF02AAE52EFDD
:103890001CF0E70E295CFF0E2A58D8B052EF1CF03E
:1038A00054EF1CF07BEF1CF0FF0E2A6EE70E296E22
:1038B000E3EF1CF0FE51256E266A2650000AD8B4AC
:1038C00064EF1CF0E3EF1CF02550000AD8B432EF8F
:1038D0001CF0010AD8B432EF1CF0030AD8B432EF5E
:1038E0001CF0070AD8B432EF1CF0030AD8B432EF48
:1038F0001CF0E3EF1CF0E3EF1CF029C01CF02AC021
:103900001DF0020E1E6EE7EC1DF00CEF1DF029C03D
:103910001CF02AC01DF0030E1E6EE7EC1DF00CEF2C
:103920001DF029C014F02AC015F0000E176E020E0B
:10393000166E0EEC26F014C027F015C028F027C034
:103940001CF028C01DF0030E1E6EE7EC1DF00CEFFE
:103950001DF0FF0E1D6EC40E1C6E000E1E6EE7ECF9
:103960001DF00CEF1DF0000E1D6E3C0E1C6E000EC7
:103970001E6EE7EC1DF00CEF1DF0020EFB19D8A433
:10398000C4EF1CF0C6EF1CF07DEF1CF0000E1D6EA6
:103990003C0E1C6E020E1E6EE7EC1DF00CEF1DF0CF
:1039A000020EFB19D8A4D7EF1CF0D9EF1CF07DEF65
:1039B0001CF0FF0E1D6EC40E1C6E020E1E6EE7EC98
:1039C0001DF00CEF1DF0FE51256E266A2650000AF0
:1039D000D8B4EDEF1CF00CEF1DF02550000AD8B460
:1039E00091EF1CF0010AD8B487EF1CF0030AD8B499
:1039F0007DEF1CF0010AD8B4A9EF1CF0070AD8B477
:103A0000B3EF1CF0010AD8B4BDEF1CF0030AD8B420
:103A1000D0EF1CF00CEF1DF01200246E2450D8B42F
:103A200014EF1DF016EF1DF038EF1DF01FBE1DEF57
:103A30001DF01BEF1DF038EF1DF01CC020F01DC065
:103A400021F01EC022F01FC023F0201E211E221EC6
:103A5000231E202A000E21222222232220C026F00B
:103A600021C027F022C028F023C029F040EF1DF02C
:103A70001CC026F01DC027F01EC028F01FC029F072
:103A80001C501D101E101F10D8A449EF1DF04BEF45
:103A90001DF055EF1DF0000E1C6E000E1D6E000E89
:103AA0001E6E000E1F6EE6EF1DF0960E256E5FEF88
:103AB0001DF0252AD8902932283227322632000ECE
:103AC0002614206E000E2714216E000E2814226E7C
:103AD000FE0E2914236E2050211022102310D8A48A
:103AE00074EF1DF076EF1DF059EF1DF084EF1DF01F
:103AF000252A010E2626000E272228222922D890C8
:103B00002932283227322632000E2614206E000E6B
:103B10002714216E000E2814226EFF0E2914236E26
:103B20002050211022102310D8A499EF1DF09BEFF4
:103B30001DF078EF1DF0A3EF1DF02506D890263676
:103B400027362836293628BEA8EF1DF0AAEF1DF02B
:103B5000B2EF1DF0020E2560B0EF1DF0B2EF1DF0C8
:103B60009DEF1DF025B0B7EF1DF0B9EF1DF0BAEFD6
:103B70001DF0289ED890253225C020F0216A226AA7
:103B8000236A20C023F0226A216A206A205026126C
:103B90002150271222502812235029122450D8B421
:103BA000D4EF1DF0D6EF1DF0DEEF1DF01FBEDDEFF0
:103BB0001DF0DBEF1DF0DEEF1DF0298E26C01CF09E
:103BC00027C01DF028C01EF029C01FF01200000EF3
:103BD000246E000E236E3BEF1EF01CC021F01DC0B2
:103BE00022F01CC01FF01DC020F01F1E201E1F4A07
:103BF000202A1FC023F020C024F05CEF1EF01CC060
:103C000021F01DC022F01CC023F01DC024F05CEF89
:103C10001EF01CC021F01DC022F01CC014F01DC0FD
:103C200015F0FF0E176EFE0E166E0EEC26F014C089
:103C300023F015C024F05CEF1EF01CC021F01DC065
:103C400022F0000E246E000E236E5CEF1EF0000EBC
:103C5000226E000E216E1CC023F01DC024F05CEF0C
:103C60001EF0000E226E000E216E000E246E000E5D
:103C7000236E5CEF1EF01E501F6E206A2050000A5B
:103C8000D8B445EF1EF031EF1EF01F50000AD8B433
:103C9000EDEF1DF0010AD8B4FFEF1DF0030AD8B410
:103CA00009EF1EF0010AD8B41DEF1EF0070AD8B4C0
:103CB00027EF1EF031EF1EF022BE68EF1EF02250FB
:103CC00009E1420E215CD8A068EF1EF06AEF1EF0F9
:103CD00070EF1EF0000E226E410E216E82EF1EF07C
:103CE00022AE7CEF1EF0BF0E215CFF0E2258D8B032
:103CF0007CEF1EF07EEF1EF082EF1EF0FF0E226EB4
:103D0000BF0E216E24BE8EEF1EF0245009E1290E55
:103D1000235CD8A08EEF1EF090EF1EF096EF1EF001
:103D2000000E246E280E236EA8EF1EF024AEA2EF24
:103D30001EF0D80E235CFF0E2458D8B0A2EF1EF060
:103D4000A4EF1EF0A8EF1EF0FF0E246ED80E236E17
:103D5000600E2124146E010E2220156E4AEC2CF008
:103D6000650E2324146E010E2420156E64EC2CF0D5
:103D70001200000E256E23BEC2EF1EF0C0EF1EF033
:103D8000D4EF1EF0231E221E211E201E1F1E1E1EEB
:103D90001D1E1C6C000E1D221E221F22202221220D
:103DA00022222322010E256E1BBEDBEF1EF0D9EF6F
:103DB0001EF0EDEF1EF01B1E1A1E191E181E171EF8
:103DC000161E151E146C000E15221622172218221C
:103DD00019221A221B22010E251A20EE26F0070EA8
:103DE000DE6AE806FDE21C501D101E101F10201098
:103DF000211022102310D8B400EF1FF002EF1FF0A3
:103E000054EF1FF0010E246E10EF1FF0D8901C36F7
:103E10001D361E361F362036213622362336242AFA
:103E200023AE15EF1FF017EF1FF006EF1FF0D8902D
:103E300026362736283629362A362B362C362D3686
:103E40001C50145C1D5015581E5016581F50175802
:103E5000205018582150195822501A5823501B58D6
:103E6000D8A035EF1FF037EF1FF048EF1FF01C50C0
:103E7000145E1D50155A1E50165A1F50175A2050C6
:103E8000185A2150195A22501A5A23501B5A268068
:103E9000D89023322232213220321F321E321D327C
:103EA0001C32242E17EF1FF02550D8B45AEF1FF004
:103EB0005CEF1FF06CEF1FF02D1E2C1E2B1E2A1E18
:103EC000291E281E271E266C000E272228222922A2
:103ED0002A222B222C222D2226C014F027C015F0D6
:103EE00028C016F029C017F02AC018F02BC019F00E
:103EF0002CC01AF02DC01BF01200000E1D6E000E1B
:103F00001C6E030E1E6EE7EC1DF0000E0001FE6F2E
:103F1000000EE86F280EE76FE7C01CF0E8C01DF048
:103F2000000E1DBEFF0E1E6E1F6E010E0DEC1DF06D
:103F30001CC0A8F11DC0A9F11EC0AAF11FC0ABF1A1
:103F40003C0E0101A06F100EA16FA8C1A2F1A9C182
:103F5000A3F1AAC1A4F1ABC1A5F1FEEC2DF0F7EFDE
:103F60001FF0A8C12AF0A9C12BF0AAC12CF0ABC147
:103F70002DF0CD0E2E6ECC0E2F6E8C0E306E3F0EB1
:103F8000316E76EC13F02AC0A8F12BC0A9F12CC039
:103F9000AAF12DC0ABF1A8C179F0A9C17AF0AAC1EC
:103FA0007BF0ABC17CF0B5EC22F079C0E7F07AC0D1
:103FB000E8F0E7C018F0E8C019F038EC25F0230E5F
:103FC0000101A06F100EA16FE7C0A2F1E8C0A3F13C
:103FD000FEEC2DF023EC1CF0000E0001FA6FFA51FC
:103FE000D8B4F5EF1FF0F7EF1FF0EFEF1FF0A8C107
:103FF0006DF0A9C16EF0AAC16FF0ABC170F0000EF8
:104000000001716F000E726F7A0E736F430E746F42
:10401000BCEC23F00001D8A010EF20F012EF20F04C
:10402000B1EF1FF0000EE86FFA0EE76FE7C018F06F
:10403000E8C019F038EC25F0010E0101A06F100E58
:10404000A16FE7C0A2F1E8C0A3F1FEEC2DF0000ED5
:104050000001FA6F2EEF20F023EC1CF01D0E000182
:10406000FA6535EF20F037EF20F02CEF20F0010E4D
:10407000FE6F23EC1CF01200000E256E1BBE45EFF8
:1040800020F043EF20F057EF20F01B1E1A1E191EE0
:10409000181E171E161E151E146C000E1522162251
:1040A0001722182219221A221B22010E256E23BE66
:1040B0005EEF20F05CEF20F06EEF20F0231E221E5A
:1040C000211E201E1F1E1E1E1D1E1C6C000E1D22EA
:1040D0001E221F2220222122222223221C501D10B8
:1040E0001E101F102010211022102310D8B47BEFB7
:1040F00020F07DEF20F0C5EF20F0010E246E8BEF55
:1041000020F0D8901C361D361E361F36203621363C
:1041100022362336242A23AE90EF20F092EF20F0AF
:1041200081EF20F01C50145C1D5015581E5016587D
:104130001F501758205018582150195822501A58FB
:1041400023501B58D8A0A7EF20F0A9EF20F0B9EF1B
:1041500020F01C50145E1D50155A1E50165A1F5048
:10416000175A2050185A2150195A22501A5A2350BF
:104170001B5AD89023322232213220321F321E3273
:104180001D321C32242E92EF20F02550D8B4CBEFF4
:1041900020F0CDEF20F0DDEF20F01B1E1A1E191EBF
:1041A000181E171E161E151E146C000E1522162240
:1041B0001722182219221A221B2214C014F015C02B
:1041C00015F016C016F017C017F018C018F019C077
:1041D00019F01AC01AF01BC01BF012007BEC28F07B
:1041E00022C0E9F023C0EAF00001E951EB5D856FE0
:1041F000EA51EC59866F01012C510001E95D876F8E
:1042000001012D510001EA59886F0A0E2E6ED70E5A
:104210002F6EA30E306E3C0E316E000E176E020E26
:10422000166E87C014F088C015F00EEC26F085C01D
:1042300083F086C084F014500001835F1550845BC6
:1042400083C01CF084C01DF0000E1DBEFF0E1E6E4C
:104250001F6E010E0DEC1DF01CC02AF01DC02BF0CE
:104260001EC02CF01FC02DF076EC13F02AC079F0A0
:104270002BC07AF02CC07BF02DC07CF0B5EC22F086
:1042800000017951896F8951800A7A0FD8A04BEFCC
:1042900021F04DEF21F051EF21F0050E896F5DEF18
:1042A00021F08951800A850FD8B059EF21F05BEFDA
:1042B00021F05DEF21F0FB0E896F8951E727000E99
:1042C00089BFFF0EE823E8BF6FEF21F0BD0EE75D69
:1042D000020EE859D8A06FEF21F071EF21F077EFCF
:1042E00021F0020EE86FBC0EE76F89EF21F0E8AF16
:1042F00083EF21F0700EE75DFE0EE859D8B083EF32
:1043000021F085EF21F089EF21F0FE0EE86F700EAD
:10431000E76FE7C018F0E8C019F038EC25F0E9C005
:104320002CF1EAC02DF11200000E196E000E186E6D
:1043300038EC25F0000E1D6E000E1C6E030E1E6E76
:10434000E7EC1DF0CBB8A7EF21F0A9EF21F0A2EF29
:1043500021F00001FA51D8B4B0EF21F0B2EF21F012
:10436000A9EF21F0000EFA6FB3EC2EF0E5C01CF0BF
:10437000E6C01DF01E6A1F6A000E0DEC1DF01CC089
:104380006DF01DC06EF01EC06FF01FC070F07B0E90
:104390000001716F140E726F2E0E736F450E746FE5
:1043A000BCEC23F00001D8A0D8EF21F0DAEF21F027
:1043B000A9EF21F07DEC1FF0010E0001FE6F000E51
:1043C000FB6FF7C0EFF0F8C0F0F0F3C0EDF0F4C011
:1043D000EEF0000EFA6F0001FA51D8B4F2EF21F0BE
:1043E000F4EF21F0EBEF21F0000EFA6FCBBAFBEF08
:1043F00021F0FDEF21F00FEF22F0000EEC6F000E28
:10440000EB6F000EE86F000EE76F000E1D6E000EE2
:104410001C6E030E1E6EE7EC1DF02EEF22F0C5ECB5
:1044200028F00009D8B417EF22F019EF22F022EF9C
:1044300022F0300E0101A06F100EA16FFEEC2DF0E6
:104440002EEF22F0DEEC18F039EC23F023EC1CF018
:104450001AEC1BF0EEEC20F0EBEF21F01200000E56
:104460001D6E1BBE38EF22F036EF22F042EF22F035
:104470001B1E1A1E191E186C000E19221A221B224E
:10448000010E1D6E17BE49EF22F047EF22F053EFE9
:1044900022F0171E161E151E146C000E1522162271
:1044A0001722010E1D1A000E1E6E000E1F6E000E4A
:1044B000206E000E216E185019101A101B10D8B45F
:1044C00064EF22F066EF22F09CEF22F0010E1C6EEA
:1044D00070EF22F0D890183619361A361B361C2A7F
:1044E0001BAE75EF22F077EF22F06AEF22F0D89042
:1044F0001E361F36203621361850145C19501558B8
:104500001A5016581B501758D8A089EF22F08BEF7D
:1045100022F094EF22F01850145E1950155A1A50D8
:10452000165A1B50175A1E80D8901B321A32193255
:1045300018321C2E77EF22F01D50D8B4A2EF22F0D3
:10454000A4EF22F0ACEF22F0211E201E1F1E1E6CD5
:10455000000E1F22202221221EC014F01FC015F0C1
:1045600020C016F021C017F0120000017B357C3509
:10457000826F8251D8A4BFEF22F0C1EF22F0CBEFBF
:1045800022F0000E796F000E7A6F000E7B6F000E26
:104590007C6F38EF23F079C07DF07AC07EF07BC06D
:1045A0007FF07CC080F0200EDBEF22F0D8908033CB
:1045B0007F337E337D33E82ED6EF22F07D51816F3D
:1045C0007B8FFF0E7917FF0E7A17FF0E7B17000EF9
:1045D0007C17960E825F82BFF2EF22F0F0EF22F09E
:1045E00008EF23F08251800A970FD8B0FAEF22F03B
:1045F000FCEF22F0FEEF22F0C1EF22F0D8907C33E6
:104600007B337A337933823FFEEF22F020EF23F0C1
:104610001F0E82650EEF23F010EF23F018EF23F04A
:10462000C1EF22F0D89079377A377B377C37820711
:104630008251D8A41EEF23F020EF23F012EF23F0D5
:104640008151D8B426EF23F028EF23F030EF23F088
:104650007C1F7B1F7A1F796D000E7A237B237C23BE
:1046600079C079F07AC07AF07BC07BF07CC07CF0B6
:1046700012000001FD5107E10F0EFC5DD8B043EFC1
:1046800023F045EF23F04AEF23F00101324B332BA7
:1046900061EF23F0030EFE19D8B451EF23F053EF6E
:1046A00023F061EF23F0040EFE19D8B45AEF23F083
:1046B0005CEF23F061EF23F0000E0101336F000E79
:1046C000326F0101335109E1330E325DD8A06BEF37
:1046D00023F06DEF23F0BBEF23F02A4B2B2B030EBF
:1046E0000001FE19D8B477EF23F079EF23F093EFB0
:1046F00023F0040EFE19D8B480EF23F082EF23F0EC
:1047000093EF23F0F751F35DF851F459D8B08BEFE4
:1047100023F08DEF23F091EF23F0030EFE6F93EF64
:1047200023F0040EFE6FFD5107E1240EFC5DD8B0AE
:104730009CEF23F09EEF23F0AFEF23F001012BBF9E
:10474000ABEF23F02D0E2A5D010E2B59D8A0ABEF55
:1047500023F0ADEF23F0BBEF23F0AFEF23F0010E1A
:104760000001FE6F000E0101336F000E326F000E6C
:104770002B6F000E2A6F1200000E00016D15366EB1
:10478000000E6E15376E800E6F15386E7F0E701529
:10479000396E3650371038103910D8A4D2EF23F0C4
:1047A000D4EF23F0DCEF23F0000E6D6F000E6E6F80
:1047B000000E6F6F000E706F000E7115366E000EDA
:1047C0007215376E800E7315386E7F0E7415396E44
:1047D0003650371038103910D8A4F1EF23F0F3EF2A
:1047E00023F0FBEF23F0000E716F000E726F000ECE
:1047F000736F000E746F70AF00EF24F002EF24F0BF
:104800000BEF24F06D6D6E1FD8B06E2B6F1FD8B0FC
:104810006F2B800E705774AF10EF24F012EF24F05E
:104820001BEF24F0716D721FD8B0722B731FD8B0BC
:10483000732B800E7457000E6D1B000E6E1B000E46
:104840006F1B800E701B000E711B000E721B000E82
:10485000731B800E741B71516D5D72516E597351D3
:104860006F5974517059D8B038EF24F03AEF24F0F2
:104870003DEF24F0D8903EEF24F0D88012001CC108
:104880001EF01DC11FF01EC120F01FC121F014C079
:104890001EF015C01FF016C020F017C021F01EC07A
:1048A00018F01FC019F020C01AF021C01BF0180E1C
:1048B0005FEF24F0D8901B321A3219321832E82EEA
:1048C0005AEF24F018501C6E1D6A1C501D10D8A4FD
:1048D0006CEF24F06EEF24F08EEF24F0D8901E34AD
:1048E000186E1F34196E20341A6E21341B6E185046
:1048F00019101A101B10D8A480EF24F082EF24F0B6
:1049000088EF24F0000E156E020E146EBDEF24F039
:10491000000E156E030E146EBDEF24F01C281D1042
:10492000D8A495EF24F097EF24F0B9EF24F01EC03F
:1049300018F01FC019F020C01AF021C01BF0090E9A
:10494000D890183619361A361B36E82EA0EF24F008
:10495000185019101A101B10D8B4B1EF24F0B4EF8E
:1049600024F0010EB5EF24F0000E146E156ABDEFB1
:1049700024F0000E156E040E146E120014C01BF00D
:1049800015C01CF016C01DF017C01EF01806D8A0E8
:104990001906182806E11928D8A4D1EF24F0D3EF7E
:1049A00024F0E0EF24F0000E156E000E146E37EFC9
:1049B00025F01B4A1C2A1D4A1E2A1806D8A01906D3
:1049C00060006FF0D9FF600073F0DAFFDF50D8B4F9
:1049D000ECEF24F0EEEF24F021EF25F0600077F00B
:1049E000F6FF60007BF0F7FFF86A0800F550000959
:1049F000D8B4FDEF24F0FFEF24F021EF25F018509C
:104A00001910D8B406EF25F008EF25F021EF25F0B6
:104A100060006FF0D9FF600073F0DAFFDF501A6EAC
:104A2000600077F0F6FF60007BF0F7FFF86A08009F
:104A3000F5501A18D8B41FEF25F021EF25F0D9EF63
:104A400024F060006FF0D9FF600073F0DAFFDF50F0
:104A50001A6E600077F0F6FF60007BF0F7FFF86AEF
:104A60000800F5501A5C146E156AD8A015061200DD
:104A700019BE44EF25F0195009E1280E185CD8A0A2
:104A800044EF25F046EF25F066EF25F019BE52EF12
:104A900025F0BD0E185C020E1958D8A052EF25F073
:104AA00054EF25F058EF25F0020E196EBC0E186E6B
:104AB00018C014F019C015F098EC2CF0000E156E0B
:104AC000000E146E7EEC2CF0A8EF25F019AE72EFFC
:104AD00025F0D90E185CFF0E1958D8B072EF25F0EA
:104AE00074EF25F09CEF25F019AE80EF25F0700EE5
:104AF000185CFE0E1958D8B080EF25F082EF25F033
:104B000086EF25F0FE0E196E700E186E000E156EF3
:104B1000000E146E98EC2CF018C01AF019C01BF09F
:104B20001A1E1B1E1A4A1B2A1AC014F01BC015F0AD
:104B30007EEC2CF0A8EF25F0000E156E000E146E22
:104B400098EC2CF0000E156E000E146E7EEC2CF01E
:104B50001200000EBE6E000EBD6E240EBA6E000E68
:104B6000BB6E000EBC6E070EC66EC00EC26EF70E98
:104B7000C36EC468C5681F0E3A01706F6069C00ECD
:104B8000506F070E806F7F0E406F000E716F000E2A
:104B9000816F000E516F000E416F000E616F000EAD
:104BA0005A6F000E5B6F000E6A6F000E6B6F000E87
:104BB0007A6F000E7B6F000E826F000E426F000E48
:104BC000526F000E626F000E726F43695369636922
:104BD0007369070E836F44695469646974690F0EC1
:104BE000846F1F0ECF6F090EDC6F0E0E016F0A0E61
:104BF000E56F0D0E006F1D0EC96F100E046F070ECE
:104C0000D96F090ED16F0F0E036F130E0B6F080EC5
:104C1000DB6F080ED26F1E0ED06F1200000E196EE1
:104C200017BE17EF26F015EF26F01DEF26F0166CD5
:104C3000171ED8B0172A010E196E15BE24EF26F0E4
:104C400022EF26F02AEF26F0146C151ED8B0152A94
:104C5000010E191A000E1B6E000E1A6E1650171058
:104C6000D8B435EF26F037EF26F05FEF26F0010ECF
:104C7000186E3FEF26F0D89016361736182A17AE62
:104C800044EF26F046EF26F03BEF26F0D8901A3698
:104C90001B361650145C17501558D8A052EF26F04A
:104CA00054EF26F059EF26F01650145E1750155A9F
:104CB0001A80D89017321632182E46EF26F0195067
:104CC000D8B465EF26F067EF26F06BEF26F01A6C8C
:104CD0001B1ED8B01B2A1AC014F01BC015F01200FE
:104CE0003EA075EF26F077EF26F081EF26F028C082
:104CF0001FF029C020F026C021F027C022F01DECB3
:104D00002BF02BBE86EF26F088EF26F08EEF26F0F4
:104D10002AC02FF02BC030F092EF26F0000E306E3C
:104D2000000E2F6E000E2E6E000E2D6EA4EF26F0DC
:104D3000000E176E200E166E26C018F027C019F050
:104D400030EC28F02D4A2E2A2F502D5C2E50800A50
:104D50002C6E3050800A2C58D8A0B1EF26F0B3EF5B
:104D600026F098EF26F03EB0B8EF26F0BAEF26F026
:104D7000C4EF26F028C01FF029C020F026C021F083
:104D800027C022F01DEC2BF028C014F029C015F02C
:104D900081EC2BF02F501424266E30501520276EF6
:104DA0001200000E4524D96EDA6A010EDA22000ED6
:104DB000DF6E3D01F9A7DFEF26F0E1EF26F0F5EF1A
:104DC00026F0000E4524D96EDA6A010EDA220101BE
:104DD000DF8202D8F5EF26F00500FA6E9451FD6EE1
:104DE0009551FE6EFF6AFA5012003D01F9A3FBEFE8
:104DF00026F0FDEF26F011EF27F0000E4524D96EC6
:104E0000DA6A010EDA220101DF8402D811EF27F0FD
:104E10000500FA6E9251FD6E9351FE6EFF6AFA50D4
:104E20001200000E4524D96EDA6A010EDA22DF5034
:104E3000D8B41DEF27F01FEF27F02EEF27F002D890
:104E40002CEF27F00500FA6E01019051FD6E915193
:104E5000FE6EFF6AFA50120030EF27F0D2EC2DF010
:104E60001200000E196E15BE3AEF27F038EF27F04A
:104E700040EF27F0146C151ED8B0152A010E196EDC
:104E800017BE47EF27F045EF27F04BEF27F0166CE2
:104E9000171ED8B0172A16501710D8B452EF27F0A3
:104EA00054EF27F078EF27F0010E186E5CEF27F033
:104EB000D89016361736182A17AE61EF27F063EF31
:104EC00027F058EF27F01650145C17501558D8A04B
:104ED0006CEF27F06EEF27F072EF27F01650145E9C
:104EE0001750155AD89017321632182E63EF27F044
:104EF0001950D8B47EEF27F080EF27F084EF27F029
:104F0000146C151ED8B0152A14C014F015C015F075
:104F10001200000E14141C6E000E15141D6E800E6F
:104F200016141E6E7F0E17141F6E1C501D101E10BF
:104F30001F10D8A49EEF27F0A0EF27F0A8EF27F0CE
:104F4000000E146E000E156E000E166E000E176E1B
:104F5000000E18141C6E000E19141D6E800E1A140B
:104F60001E6E7F0E1B141F6E1C501D101E101F1076
:104F7000D8A4BDEF27F0BFEF27F0C7EF27F0000E52
:104F8000186E000E196E000E1A6E000E1B6E185071
:104F900014180FE1195015180CE11A50161809E1F0
:104FA0001B501718D8B4D7EF27F0D9EF27F0DCEF54
:104FB00027F0D890DDEF27F0D880120039019397C1
:104FC000A20E146E4D0E156ECCEC2EF03901939995
:104FD0007E0E146E560E156EC7EC2EF0000E3D01BF
:104FE000EC6F000EED6F000EEE6F000EEF6F000E17
:104FF000F06F000EF16FB00EF26F800EF36F000EC7
:10500000F46F8A0EF56F000EF66F000EF76F000E4C
:10501000F86F000EF96F000EFA6FF80E146E5D0E49
:10502000156ED6EC2EF0F60E146E5D0E156ED1ECEC
:105030002EF0E80E146E5D0E156EDBEC2EF0000EF9
:10504000426E000E476E000E466E080E4C6E000E4D
:10505000456E000E446E000E436E390193871200B8
:1050600018501910D8B437EF28F039EF28F042EF74
:1050700028F018501910D8A440EF28F042EF28F07B
:1050800047EF28F01650C2EC2EF07AEF28F020EE11
:1050900004F01850D9261950DA22DE50DE10D8B4A8
:1050A00054EF28F056EF28F071EF28F020EE04F0CE
:1050B0001850D9261950DA2210EE02F01850E126C5
:1050C0001950E222DE50E65CE650800A1E6EDE5089
:1050D000800A1E58D8B06FEF28F071EF28F07AEFF1
:1050E00028F020EE02F01850D9261950DA22DE2AD4
:1050F000000EDD221200000E256E000E246E4850B8
:1051000049104A104B10D8B488EF28F08AEF28F0E5
:10511000C0EF28F03C0160AB90EF28F092EF28F050
:10512000AAEF28F0200E146EA10E156E070E166E53
:10513000000E176E48C018F049C019F04AC01AF0A6
:105140004BC01BF02FEC22F014C024F015C025F04A
:10515000C0EF28F0E00E146E5E0E156EF80E166E9F
:10516000FF0E176E48C018F049C019F04AC01AF077
:105170004BC01BF02FEC22F014C024F015C025F01A
:1051800024C022F025C023F012000101304B312B46
:10519000F50E305D010E3159D8A0D1EF28F0D3EFD4
:1051A00028F00CEF29F0000E316F000E306FB3ECD9
:1051B0002EF0E5C01CF0E6C01DF01E6A1F6A000E4E
:1051C0000DEC1DF01CC06DF01DC06EF01EC06FF028
:1051D0001FC070F07B0E0001716F140E726F2E0EE7
:1051E000736F450E746FBCEC23F00001D8B0FBEF79
:1051F00028F0FDEF28F00CEF29F0000EEC6F000E08
:10520000EB6F000E1D6E000E1C6E030E1E6EE7ECA3
:105210001DF0010E0DEF29F0000E12009CC1E3F00D
:105220009DC1E4F0000E0101296F000E286F30EFE0
:1052300029F09AC1C7F09BC1C8F0E30E0001C96F05
:10524000000ECA6F9EC1CBF09FC1CCF084EC0EF073
:105250000001C751010128270001C851010129237C
:1052600060008FF3F6FF600093F3F7FFF86A080021
:10527000F5500009D8A43FEF29F041EF29F019EFCC
:1052800029F028C19AF129C19BF1120016C01AF029
:1052900017C01BF014C01CF015C01DF01A50186E7A
:1052A0001B50196E1A4A1B2A600063F0F6FF60005B
:1052B00067F0F7FF000EF86E600073F0D9FF600032
:1052C00077F0DAFF1C4A1D2A0F0EF76403D008009E
:1052D000F55007D06F00DBFFE1FF6F00DFFFE2FF5B
:1052E000E750DF6EDF50D8A478EF29F07AEF29F08D
:1052F0004EEF29F01200F40EF66E5D0EF76E000E02
:10530000F86E09006F00D4FFAEF109006F00D4FF02
:10531000AFF1FE0EF66E5D0EF76E000EF86E090030
:105320006F00D4FFFEF000EE00F1840EEE6AE80696
:10533000FDE100EEE5F0190EEE6AE806FDE100EE93
:105340003AF0120EEE6AE806FDE1080ED56E000E88
:10535000D66E000ED76E00014AEF2EF0BF0E1C6E07
:10536000FF0E1D6E1AC01EF01BC01FF01C501E2623
:105370001D501F221F500AE11A0E1E5CD8A0C3EF59
:1053800029F0C6EF29F0010EC7EF29F0000E206EBC
:10539000216A20502110D8B4D0EF29F0D2EF29F0A3
:1053A000D9EF29F0200E1A101A6E1B501B6EDDEF7C
:1053B00029F01AC01AF01BC01BF01200146E4C50DA
:1053C000D8B4E5EF29F0E7EF29F0DFEF29F0390154
:1053D00093B9EDEF29F0EFEF29F0F4EF29F0600039
:1053E00053F0EAFD0AEF2AF09399100E4724D96E84
:1053F000DA6A010EDA22600053F0DFFF472A070E57
:10540000476405EF2AF007EF2AF009EF2AF0000EB3
:10541000476E4C0693891200000E3E01DE6F000EAF
:10542000DF6F000EE06F000EE16F000EE46F000E04
:10543000E56F000EEA6F000EEC6F000EF16F580E74
:10544000F36F020EF46F000EF56F000EF66F000E94
:10545000F76F000EF96F000EFA6F000EFB6F000E73
:10546000FC6F000EFD6F000EFE6F1F0EFF6F840EAF
:10547000F86F12003901A19F3F0118510101246FFB
:105480003F0119510101256F3F011A510101266F9A
:10549000276B3C0160AB4FEF2AF051EF2AF05AEF37
:1054A0002AF0010E01012027000E212322232323AD
:1054B00063EF2AF0FF0E01012027FF0E2123FF0ECC
:1054C0002223FF0E23231100D28A000ED2BE010E2A
:1054D000146ED29E550ED46EAA0ED46ED490000EC9
:1054E000D76E000ED66E080ED56E550ED46EAA0E6F
:1054F000D46ED48014B002D0D29E01D0D28E3901A5
:1055000083998397818F818B818D8A81888F879101
:105510008983120064EC2AF026EC2EF0A9EC25F029
:10552000A7EC2EF078EC2DF00CEC2AF0A6EC2DF088
:1055300019EC2DF069EC2EF077EC2EF08FEC2EF0BC
:1055400061EC2DF0BCEC2DF011EC2CF09BEC2EF06E
:10555000AFEC2AF083EC2EF0DEEC27F01200C00E48
:105560009B6E000E9C6E050E9D6E000E996E000ED9
:10557000986E3901A89D98506F0064FE16F0176A66
:1055800016C017F0166A161001018A6F17508B6F3C
:105590003901A89F988FB40E146E5C0E156EE0EC66
:1055A0002EF0030E9A6E12003901A19D3F01155194
:1055B000486E1651496E17514A6E4B6A3C0160ABFA
:1055C000E4EF2AF0E6EF2AF0EFEF2AF0010E0101F6
:1055D0002027000E212322232323F8EF2AF0FF0E99
:1055E00001012027FF0E2123FF0E2223FF0E23237C
:1055F0001100000E00017D1B000E7E1B000E7F1BA4
:10560000800E801B79C06DF07AC06EF07BC06FF0A9
:105610007CC070F07DC071F07EC072F07FC073F00E
:1056200080C074F015EC11F06DC079F06EC07AF0A6
:105630006FC07BF070C07CF01200000E256E000E73
:10564000246E2EEF2BF023C016F0176A21C018F03D
:1056500022C019F030EC28F0244A252A24501F24B7
:10566000D96E25502020DA6EDF50236E2350D8A447
:105670003CEF2BF03EEF2BF023EF2BF01200080E47
:105680004C6045EF2BF047EF2BF05EEF2BF0100E48
:105690004624D96EDA6A010EDA22DF503D01EA6F44
:1056A000462A070E466457EF2BF059EF2BF05BEFBD
:1056B0002BF0000E466E4C2A60EF2BF039019399C7
:1056C000120027BE6EEF2BF0275006E12604D8B05B
:1056D0006CEF2BF06EEF2BF07CEF2BF026C028F058
:1056E00027C029F0281E291E284A292A28C026F06A
:1056F00029C027F080EF2BF026C026F027C027F026
:10570000120014C016F015C017F089EF2BF0144AE0
:10571000152A600053F0D9FF600057F0DAFFDF5020
:10572000D8A495EF2BF097EF2BF087EF2BF01650C6
:10573000145C146E17501558156E12006F0060FF40
:1057400011F0010196519711D8B4A9EF2BF0ABEFEE
:105750002BF0B7EF2BF002D8B7EF2BF00500FA6E65
:105760009651FD6E9751FE6EFF6AFA50120060006E
:0657700047F0D8FF110014
:105778006F0060FF12F0010198519911D8B4C7EF7A
:105788002BF0C9EF2BF0D5EF2BF002D8D5EF2BF08B
:105798000500FA6E9851FD6E9951FE6EFF6AFA5037
:1057A800120060004BF0D8FF1100BF0E166EFF0EFE
:1057B800176E14C018F015C019F016501826175097
:1057C800192219500AE11A0E185CD8A0EEEF2BF036
:1057D800F1EF2BF0010EF2EF2BF0000E146E156AAC
:1057E80012001450151016101710D8B4FEEF2BF035
:1057F80000EF2CF008EF2CF0000E141A000E151A0A
:10580800000E161A800E171A14C014F015C015F0E1
:1058180016C016F017C017F01200000EA76E000E83
:10582800A86E050EA96E000EA56E000EA46E3901B5
:10583800A69DA4506F0094FE14F0156A14C015F0CC
:10584800146A14100101866F1550876F010EA66E39
:0258580012003C
:10585C006F0060FF13F03901A791404A412A415073
:10586C0009E10A0E405CD8A03EEF2CF040EF2CF082
:10587C0046EF2CF08FEC2DF0000E416E000E406EBA
:10588C0060004FF0D8FF110014C016F015C017F0CF
:10589C00D89017321632D890173216321650696ECD
:1058AC0014C016F0030E1616060E176ED890163688
:1058BC00172E5CEF2CF01650686E120014C016F008
:1058CC0015C017F0D89017321632D89017321632FE
:1058DC0016506D6E14C016F0030E1616060E176ECB
:1058EC00D8901636172E76EF2CF016506C6E1200E0
:1058FC0014C016F015C017F0D89017321632D89085
:10590C00173216321650616E14C016F0030E1616AE
:10591C00060E176ED8901636172E90EF2CF01650E8
:10592C00606E120014C016F015C017F0D890173224
:10593C001632D890173216321650656E14C016F007
:10594C00030E1616060E176ED8901636172EAAEFE3
:10595C002CF01650646E12003901A9936F00D0FD23
:10596C0003F06F00D4FD04F003C001F004C002F09A
:10597C0002D8CBEF2CF00500FA6E01018E51FD6EB2
:10598C008F51FE6EFF6AFA50120011003901AA9174
:10599C006F00C0FD07F06F00C4FD08F007C005F0F4
:1059AC0008C006F002D8E5EF2CF00500FA6E0101F4
:1059BC008C51FD6E8D51FE6EFF6AFA501200110073
:1059CC00186E600063F0F1FE3E01F88FF89DF881CF
:1059DC00F8B1F3EF2CF0F5EF2CF0EEEF2CF0F051DA
:1059EC00176E166AEF511624146E000E1720156EE2
:0259FC00120097
:105A00003901A89F010188518911D8B40AEF2DF0FE
:105A10000CEF2DF018EF2DF002D818EF2DF0050047
:105A2000FA6E8851FD6E8951FE6EFF6AFA501200BF
:105A30001100800E3F011E6F420E1F6F000E206F7F
:105A4000040E216F000E236F000E226F010E1D6FDA
:105A50001C691B693901918B918F918D3F011F8FBB
:105A60001200CDAE36EF2DF038EF2DF03EEF2DF0D9
:105A700001C0F5F002C0F6F048EF2DF00001F5513D
:105A8000015CF76FF6510258F86FD890F833F7338E
:105A90001200CDAC4EEF2DF050EF2DF056EF2DF063
:105AA00005C0F1F006C0F2F060EF2DF00001F151F9
:105AB000055CF36FF2510658F46FD890F433F3336A
:105AC0001200830E726E000E736E000E716E000E69
:105AD000706E920E146E5A0E156EEAEC2EF03F01A7
:105AE0005E513F0B80095E6F3901AA919A811200C5
:105AF000830E766E000E776E000E756E000E746E5D
:105B0000620E146E5A0E156EEFEC2EF03F015E51D0
:105B1000CF0B20095E6F3901A9939983120001010F
:105B200084518511D8B497EF2DF099EF2DF0A5EFA2
:105B30002DF002D8A5EF2DF00500FA6E8451FD6E10
:105B40008551FE6EFF6AFA5012001200010EA26E1D
:105B5000000EA16E000EA36EF90E9F6E000E9E6EDB
:105B60003901A7919781FA0E146E5D0E156EE5EC62
:105B70002EF0E00EA06E1200000E3C01616F030ECD
:105B8000626F020E636F000E646F000E656F020E8F
:105B9000666F080E676F000E686F000E696F850EE6
:105BA000606F1200080E4524D96EDA6A010EDA22FF
:105BB0006F00A3F7DFFF452A070E4564E2EF2DF0E3
:105BC000E4EF2DF0E6EF2DF0000E456E432A1200B3
:105BD0009AA4EDEF2DF0EFEF2DF0F8EF2DF09A9065
:105BE0000A50996E600027F098FF9A80FDEF2DF023
:105BF0000A50996E600027F098FF1200A20E010172
:105C0000A66F010EA76F000E9A6F000E9B6FA0C1CA
:105C10009CF1A1C19DF1A60E9E6F010E9F6F0EEC2F
:105C200029F012003901A19B000E486E000E496E4A
:105C3000000E4A6E000E4B6E000E0101246F000E26
:105C4000256F000E266F000E276F1100000E390120
:105C5000C06F000EC16F000EC26F000EC36F000E4A
:105C6000C46F000EC56F000EC66F000EC76F120026
:105C70009A826F0060FE10F06F0064FE0FF00F500C
:105C80000B6E10500D6E0BC00EF00DC009F00EC063
:105C90000AF012008AEC2AF0D28ED28CEE0E146E2C
:105CA0005D0E156EE5EC2EF094EC21F054EF2EF025
:105CB00057EF00F038EC2EF009C0FCF00AC0FDF000
:105CC0000001D890FD33FC33BBEC2EF03901A89FC6
:105CD0001200050EAE6E000EAD6E000EAF6EAB681C
:105CE000000EAA6E3901A495B00EAC6E1200800EA3
:105CF000626E000E616E000E606E3F015F513F0BE1
:105D000080095F6F1200800E666E000E656E000ED9
:105D1000646E3F015F51CF0B20095F6F1200800E50
:105D20006A6E590E696E400E686E3F015F51F30B4B
:105D300004095F6F1200800E6E6E590E6D6E400E7C
:105D40006C6E3F015F51FC0B01095F6F1200600E2A
:105D50003901D96F000EDB6F000EDD6F080EDF6FAB
:105D6000000EDE6F1200220EE6EC2CF014C0E5F0FF
:105D700015C0E6F012008AC109F08BC10AF0E8EC08
:105D80002DF01200156E1550DEEC29F0120014C033
:105D900096F115C097F1120014C098F115C099F151
:105DA000120014C092F115C093F1120014C094F1C6
:105DB00015C095F1120014C090F115C091F11200B8
:105DC00014C088F115C089F1120014C084F115C007
:105DD00085F1120014C08CF115C08DF1120014C0B1
:105DE0008EF115C08FF11200D2EC2DF012000001DF
:0F5DF000FA2B1200F1FF12001200120011000135
:020000040020DA
:10000000FF0FFF0FFF0FFF0FFF0FFF0FFF0FFF0F80
:020000040030CA
:0A0000008CFFFFFF9FFFFFFFFFFFD3
:00000001FF
