:0400000057EF00F0C6
:10000800A117A117A117A117A117A117A117A11728
:10001800A117A117A117A117A1172E177E15311522
:10002800A117A117A117A117A117A117A117A11708
:10003800A117A117A117F215E315A117A117A11769
:10004800A117A117A117A1172B00A117A117A11775
:10005800A117A117A117A117A117A117A117A117D8
:10006800A117A117A117A117A117A117A117A117C8
:100078002B16A1172B00A117A117A1172B002B00D6
:100088002B002B002B002B002B002B00A117BD16DB
:10009800A1179616A117A1172B002B002B002B00D8
:0A00A800A316A117FF0072EF2CF061
:10100000004F7574207C20644C3D202564207C209A
:1010100064523D20256400437572766554696D65A0
:101020003A2025640A0020202043757276655269B3
:101030006768740A0053746F702052657665727326
:10104000650A005265766572736552696774680A4D
:101050000020202043757276654C6566740A005244
:101060006576657273654C6566740A0052696768D7
:1010700074204F7574210A0046726F6E74204F758C
:1010800074210A00416674657243757276650A00C0
:101090004C656674204F7574210A0042566F6C745B
:1010A0003A2025660A004F757443757276650A000A
:1010B000496E43757276650A00494E46004E414EB0
:0D10C00000696E66006E616E006C660000D7
:1010CE00000E0001AA6F000EA96F85C0BBF086C08E
:1010DE00BCF087C0BDF088C0BEF0BEBF7BEF08F08D
:1010EE0079EF08F091EF08F0000EAA6F010EA96FCC
:1010FE00BBC014F0BCC015F0BDC016F0BEC017F0DA
:10110E001DEC2CF014C0BBF015C0BCF016C0BDF029
:10111E0017C0BEF0000E0001C26F000EC16FE5C019
:10112E00ADF0E6C0AEF0A951AA11D8A4A1EF08F017
:10113E00A3EF08F0AAEF08F03CA4A8EF08F0AAEF7E
:10114E0008F0C4EF08F0A951AA11D8A4B1EF08F025
:10115E00B3EF08F0B9EF08F0000E906F2B0E8F6F03
:10116E00BDEF08F0000E906F2D0E8F6F8FC03AF10D
:10117E00C14BC22BAD07D8A0AE07BBC014F0BCC08C
:10118E0015F0BDC016F0BEC017F01BEC24F0140411
:10119E001510D8A4D5EF08F0D7EF08F02EEF09F010
:1011AE00BF0E00018A6FFF0E8B6F89518C6F8D6B96
:1011BE008A518C278B518D238D510AE11A0E8C5D2D
:1011CE00D8A0ECEF08F0EFEF08F0010EF0EF08F00A
:1011DE00000E916F926B91519211D8B4F9EF08F005
:1011EE00FBEF08F009EF09F03A0EC125146E010E5F
:1011FE00C221156EB90E166E100E176EA0EC29F0E8
:10120E0015EF09F03A0EC125146E010EC221156EAE
:10121E00C10E166E100E176EA0EC29F00001FD0E19
:10122E00AD27FF0EAE2383C026F084C027F03A0E02
:10123E00286E010E296EADC02AF0AEC02BF04CEC1C
:10124E0026F026C083F027C084F0BDEF0EF0BBC0A1
:10125E0014F0BCC015F0BDC016F0BEC017F01BECEC
:10126E0024F014501510D8A43FEF09F041EF09F007
:10127E0098EF09F0BF0E00018A6FFF0E8B6F895138
:10128E008C6F8D6B8A518C278B518D238D510AE17A
:10129E001A0E8C5DD8A056EF09F059EF09F0010E29
:1012AE005AEF09F0000E936F946B93519411D8B4CA
:1012BE0063EF09F065EF09F073EF09F03A0EC125FF
:1012CE00146E010EC221156EBD0E166E100E176E27
:1012DE00A0EC29F07FEF09F03A0EC125146E010E35
:1012EE00C221156EC50E166E100E176EA0EC29F0EB
:1012FE000001FD0EAD27FF0EAE2383C026F084C085
:10130E0027F03A0E286E010E296EADC02AF0AEC03F
:10131E002BF04CEC26F026C083F027C084F0BDEFF6
:10132E000EF0000E0001C36F000EC46F800EC56F6D
:10133E003F0EC66F000EC06F000EBF6FBBC014F025
:10134E00BCC015F0BDC016F0BEC017F0000E186E72
:10135E00000E196E000E1A6E000E1B6E65EC27F055
:10136E00D8B0BCEF09F0BEEF09F043EF0AF0DDEFA5
:10137E0009F0C3C02AF0C4C02BF0C5C02CF0C6C003
:10138E002DF0000E2E6E000E2F6E200E306E410EC2
:10139E00316EB1EC13F02AC0C3F02BC0C4F02CC0D8
:1013AE00C5F02DC0C6F00001BF4BC02BBBC06DF009
:1013BE00BCC06EF0BDC06FF0BEC070F0000E2E6EE1
:1013CE00000E2F6E200E306E410E316EC3C02AF00D
:1013DE00C4C02BF0C5C02CF0C6C02DF0B1EC13F07C
:1013EE002AC071F02BC072F02CC073F02DC074F0B7
:1013FE0098EC23F00001D8B007EF0AF009EF0AF0DD
:10140E00C0EF09F029EF0AF0C3C02AF0C4C02BF0D8
:10141E00C5C02CF0C6C02DF0000E2E6E000E2F6E25
:10142E00200E306E410E316ED9EC15F02AC0C3F08D
:10143E002BC0C4F02CC0C5F02DC0C6F00001BF07F4
:10144E00D8A0C007BBC06DF0BCC06EF0BDC06FF0C1
:10145E00BEC070F0C3C071F0C4C072F0C5C073F0EE
:10146E00C6C074F098EC23F00001D8A041EF0AF04A
:10147E0043EF0AF00BEF0AF089C01AF01B6AD5ECA5
:10148E0029F01A500001B06FB0C0AFF0670EB0195E
:10149E00D8A454EF0AF056EF0AF07CEF0AF03A5057
:1014AE003B10D8A45DEF0AF05FEF0AF063EF0AF08D
:1014BE00000E3B6E010E3A6E3BBE70EF0AF03B50D3
:1014CE0006E13A04D8B06EEF0AF070EF0AF076EF4C
:1014DE000AF0000EAC6F060EAB6F85EF0AF03AC045
:1014EE00ABF03BC0ACF085EF0AF03BBE81EF0AF0EB
:1014FE0083EF0AF070EF0AF076EF0AF0670EB0197C
:10150E00D8A48CEF0AF08EEF0AF0BDEF0AF0C0AF50
:10151E009CEF0AF0FC0EBF5DFF0EC059D8A09AEFEB
:10152E000AF09CEF0AF0BBEF0AF0FF0E8A6FFF0E77
:10153E008B6FABC08CF0ACC08DF08A518C278B5169
:10154E008D23BF518C5D8D51800A8E6FC051800AE4
:10155E008E59D8A0B5EF0AF0B7EF0AF0BBEF0AF03C
:10156E00660EAF6FBDEF0AF0650EAF6FABC0A1F0A8
:10157E00ACC0A2F0670EB019D8A4C8EF0AF0CAEF3B
:10158E000AF0DAEF0AF0660EAF19D8A4D1EF0AF01E
:10159E00D3EF0AF0DCEF0AF0C0BFDAEF0AF0D8EFB3
:1015AE000AF0DCEF0AF0A14BA22B660EAF19D8A4FD
:1015BE00E3EF0AF0E5EF0AF005EF0BF0C0BFECEF3A
:1015CE000AF0EAEF0AF0F8EF0AF0000EC36F000E11
:1015DE00C46F800EC56F3F0EC66F000EC06F000E3B
:1015EE00BF6F670EB019D8B4FFEF0AF001EF0BF022
:1015FE0005EF0BF0BF51A127C051A223000EBA6F09
:10160E00000EB96FBBC0B1F0BCC0B2F0BDC0B3F03C
:10161E00BEC0B4F0C3C0A3F0C4C0A4F0C5C0A5F052
:10162E00C6C0A6F096EF0BF0B1C02AF0B2C02BF0F8
:10163E00B3C02CF0B4C02DF0C3C02EF0C4C02FF038
:10164E00C5C030F0C6C031F0D9EC15F02AC036F066
:10165E002BC037F02CC038F02DC039F0A0EC1AF0AA
:10166E0036C0B5F037C0B6F038C0B7F039C0B8F0F4
:10167E00B5C079F0B6C07AF0B7C07BF0B8C07CF0D8
:10168E0014EC23F079C0A7F07AC0A8F0B1C079F0BD
:10169E00B2C07AF0B3C07BF0B4C07CF0C3C02EF001
:1016AE00C4C02FF0C5C030F0C6C031F0B5C02AF0AE
:1016BE00B6C02BF0B7C02CF0B8C02DF0B1EC13F0C3
:1016CE002AC07DF02BC07EF02CC07FF02DC080F0A4
:1016DE0021EC2BF079C0B1F07AC0B2F07BC0B3F040
:1016EE007CC0B4F0C3C02AF0C4C02BF0C5C02CF02F
:1016FE00C6C02DF0000E2E6E000E2F6E200E306E18
:10170E00410E316ED9EC15F02AC0C3F02BC0C4F0D7
:10171E002CC0C5F02DC0C6F00001B94BBA2BA1519B
:10172E00B95DBA51800A8A6FA251800A8A59D8A02F
:10173E00A3EF0BF0A5EF0BF01BEF0BF0C3C02AF0DD
:10174E00C4C02BF0C5C02CF0C6C02DF0000E2E6EFE
:10175E00000E2F6EA00E306E400E316EB1EC13F0F7
:10176E002AC0B5F02BC0B6F02CC0B7F02DC0B8F023
:10177E00B1C06DF0B2C06EF0B3C06FF0B4C070F017
:10178E00B5C071F0B6C072F0B7C073F0B8C074F0E7
:10179E0098EC23F00001D8B0D7EF0BF0D9EF0BF097
:1017AE00E3EF0BF0000EB56F000EB66F000EB76FC5
:1017BE00000EB86F0CEF0CF0B1C014F0B2C015F003
:1017CE00B3C016F0B4C017F0B5C018F0B6C019F01B
:1017DE00B7C01AF0B8C01BF065EC27F0D8A0FAEF2E
:1017EE000BF0FCEF0BF00CEF0CF00001A7B102EFC9
:1017FE000CF004EF0CF00CEF0CF0000EB56F000EB9
:10180E00B66F000EB76F000EB86FBBC06DF0BCC0E8
:10181E006EF0BDC06FF0BEC070F0B5C071F0B6C056
:10182E0072F0B7C073F0B8C074F050EC11F06DC028
:10183E00B1F06EC0B2F06FC0B3F070C0B4F0B1C012
:10184E006DF0B2C06EF0B3C06FF0B4C070F0000EA9
:10185E002E6E000E2F6E200E306E410E316EA3C016
:10186E002AF0A4C02BF0A5C02CF0A6C02DF0B1EC30
:10187E0013F02AC071F02BC072F02CC073F02DC083
:10188E0074F098EC23F00001D8A050EF0CF052EF5A
:10189E000CF07AEF0CF0BF4BC02BA3C02AF0A4C003
:1018AE002BF0A5C02CF0A6C02DF0000E2E6E000E53
:1018BE002F6E200E306E410E316EB1EC13F02AC039
:1018CE00A3F02BC0A4F02CC0A5F02DC0A6F0660E80
:1018DE000001AF19D8A476EF0CF078EF0CF07AEF88
:1018EE000CF0A14BA22BA3C0C3F0A4C0C4F0A5C0A2
:1018FE00C5F0A6C0C6F0650EAF19D8B489EF0CF0CE
:10190E008BEF0CF091EF0CF0BFC09FF0C0C0A0F0B9
:10191E0095EF0CF0000EA06F000E9F6F000E9E6FE5
:10192E00000E9D6F000E9C6F000E9B6F000EBA6F27
:10193E00000EB96F91EF0DF0B1C02AF0B2C02BF0CE
:10194E00B3C02CF0B4C02DF0C3C02EF0C4C02FF025
:10195E00C5C030F0C6C031F0D9EC15F02AC036F053
:10196E002BC037F02CC038F02DC039F0A0EC1AF097
:10197E0036C0B5F037C0B6F038C0B7F039C0B8F0E1
:10198E00B5C079F0B6C07AF0B7C07BF0B8C07CF0C5
:10199E0014EC23F079C0A7F07AC0A8F03CB8DAEFC7
:1019AE000CF0DCEF0CF0FAEF0CF00001A751A811CF
:1019BE00D8A4E4EF0CF0E6EF0CF0FAEF0CF0670EA3
:1019CE00B019D8A4EDEF0CF0EFEF0CF0FAEF0CF02D
:1019DE00A0BFF6EF0CF0F4EF0CF0FAEF0CF09B4B0F
:1019EE009C2B45EF0DF000019D519E11D8A402EFE6
:1019FE000DF004EF0DF02EEF0DF0A0BF0BEF0DF07C
:101A0E0009EF0DF02EEF0DF03A0EC125D96E010E35
:101A1E00C221DA6E2E0EDF6EC14BC22BAD07D8A0DF
:101A2E00AE07000E9E6F010E9D6F2EEF0DF03A0E5B
:101A3E00C125D96E010EC221DA6E300EDF6EC14B9A
:101A4E00C22BAD07D8A0AE079B07D8A09C079B5111
:101A5E009C11D8A435EF0DF037EF0DF01EEF0DF001
:101A6E003A0EC125D96E010EC221DA6EA751300F82
:101A7E00DF6EC14BC22BAD07D8A0AE07B1C079F057
:101A8E00B2C07AF0B3C07BF0B4C07CF0C3C02EF00D
:101A9E00C4C02FF0C5C030F0C6C031F0B5C02AF0BA
:101AAE00B6C02BF0B7C02CF0B8C02DF0B1EC13F0CF
:101ABE002AC07DF02BC07EF02CC07FF02DC080F0B0
:101ACE0021EC2BF079C0B1F07AC0B2F07BC0B3F04C
:101ADE007CC0B4F0C3C02AF0C4C02BF0C5C02CF03B
:101AEE00C6C02DF0000E2E6E000E2F6E200E306E24
:101AFE00410E316ED9EC15F02AC0C3F02BC0C4F0E4
:101B0E002CC0C5F02DC0C6F000019F07D8A0A007BD
:101B1E00B94BBA2BA151B95DBA51800A8A6FA25145
:101B2E00800A8A59D8B09EEF0DF0A0EF0DF0AEEFFF
:101B3E000DF0C2BFACEF0DF0C25109E14B0EC15D0D
:101B4E00D8A0ACEF0DF0AEEF0DF0A3EF0CF09D5161
:101B5E009E11D8A4B5EF0DF0B7EF0DF0C8EF0DF054
:101B6E003CA8BCEF0DF0BEEF0DF0C8EF0DF03A0E35
:101B7E00C125D96E010EC221DA6E2E0EDF6EC14B5B
:101B8E00C22B3A0EC125D96E010EC221DA6E000E9D
:101B9E00DF6E650EAF19D8A4D7EF0DF0D9EF0DF0AB
:101BAE00ABEF0EF0000EBA6F4F0EB96F3A0EB925AD
:101BBE00D96E010EBA21DA6E000EDF6E000EAA6F1C
:101BCE00000EA96FC0BFF0EF0DF0EEEF0DF0F8EFC5
:101BDE000DF0000EAA6F010EA96FBF6DC01FD8B019
:101BEE00C02B000EAC6F020EAB6F29EF0EF0B907D3
:101BFE00D8A0BA073A0EB925D96E010EBA21DA6EFF
:101C0E00BFC014F0C0C015F0000E176E0A0E166E8F
:101C1E000DEC27F01450300FDF6EBFC014F0C0C0B3
:101C2E0015F0000E176E0A0E166EEAEC25F014C0B3
:101C3E00BFF015C0C0F00001AB07D8A0AC07AD07D0
:101C4E00D8A0AE07BF51C011D8A430EF0EF032EFBE
:101C5E000EF0FEEF0DF0ACBF3FEF0EF0AC5106E113
:101C6E00AB05D8B03DEF0EF03FEF0EF0FEEF0DF0EE
:101C7E00B907D8A0BA07A951AA11D8A449EF0EF0F6
:101C8E004BEF0EF051EF0EF0000E966F2B0E956F80
:101C9E0055EF0EF0000E966F2D0E956F3A0EB9257C
:101CAE00D96E010EBA21DA6E600057F2DFFFAD0772
:101CBE00D8A0AE07B907D8A0BA07BF0E8A6FFF0E1D
:101CCE008B6F89518C6F8D6B8A518C278B518D2325
:101CDE008D510AE11A0E8C5DD8A078EF0EF07BEFD5
:101CEE000EF0010E7CEF0EF0000E996F9A6B99516B
:101CFE009A11D8A485EF0EF087EF0EF08DEF0EF04F
:101D0E00000E986F650E976F91EF0EF0000E986FA4
:101D1E00450E976F3A0EB925D96E010EBA21DA6EBD
:101D2E0060005FF2DFFFAD07D8A0AE073A0EC12507
:101D3E00146E010EC221156E3A0EB925166E010EE5
:101D4E00BA21176EA0EC29F083C026F084C027F0CC
:101D5E003A0E286E010E296EADC02AF0AEC02BF0E1
:101D6E004CEC26F026C083F027C084F012006000F1
:101D7E0027F3D9FF60002BF3DAFF6F007BFFF6FF2E
:101D8E006F0077FFF7FFF86A0800F550250AD8A410
:101D9E00D3EF0EF0D5EF0EF02DEF11F0600027F31C
:101DAE00D9FF60002BF3DAFFDE2A000EDD22000ED3
:101DBE000001E66F000EE56FE5C03CF0E6C03DF0B9
:101DCE003A683B68600027F3D9FF60002BF3DAFF17
:101DDE006F007BFFF6FF6F0077FFF7FFF86A0800D2
:101DEE00F5501A6E1B6AD5EC29F01A500001DF6F00
:101DFE00DF51D8B405EF0FF007EF0FF04FEF0FF0F4
:101E0E00600027F3D9FF60002BF3DAFF6F0078FF35
:101E1E00CDF06F0074FFCEF0010ECD27000ECE2355
:101E2E00600037F3F6FF60003BF3F7FFF86A080037
:101E3E00F5501A6E1B6AD5EC29F01A500001E06FAE
:101E4E00E051D8B42DEF0FF02FEF0FF04FEF0FF052
:101E5E00600027F3D9FF60002BF3DAFF6F0078FFE5
:101E6E00CDF06F0074FFCEF0020ECD27000ECE2304
:101E7E00600037F3F6FF60003BF3F7FFF86A0800E7
:101E8E00F5501A6E1B6AD5EC29F01A500001E16F5D
:101E9E00600027F3D9FF60002BF3DAFF6F007BFFA2
:101EAE00F6FF6F0077FFF7FFF86A0800F550640A37
:101EBE00D8B464EF0FF066EF0FF07DEF0FF0600017
:101ECE0027F3D9FF60002BF3DAFF6F007BFFF6FFDD
:101EDE006F0077FFF7FFF86A0800F550690AD8A47B
:101EEE007BEF0FF07DEF0FF0C7EF0FF0600027F3E1
:101EFE00D9FF60002BF3DAFFDE2A000EDD22600030
:101F0E002FF3D9FF600033F3DAFF6F007CFFCDF0C3
:101F1E00020EDE266F007CFFCEF0000EDD2260008A
:101F2E0037F3D9FF60003BF3DAFF6F0078FFD1F093
:101F3E006F0074FFD2F0000ED2BFFF0ED36FD46FBE
:101F4E00D56FD66FD76FD86FC7C060F0C8C061F0BD
:101F5E00D1C062F0D2C063F0D3C064F0D4C065F0DB
:101F6E00D5C066F0D6C067F0D7C068F0D8C069F0AB
:101F7E002DEC19F060C0C7F061C0C8F04FEF11F042
:101F8E00660EDF19D8A4CEEF0FF0D0EF0FF022EFD0
:101F9E0010F0600027F3D9FF60002BF3DAFF6F001B
:101FAE007BFFF6FF6F0077FFF7FFF86A08006F0000
:101FBE00D4FFE2F0600027F3D9FF60002BF3DAFFC5
:101FCE00DE2A000EDD2260002FF3D9FF600033F30E
:101FDE00DAFF6F007CFFCDF0040EDE266F007CFF73
:101FEE00CEF0000EDD22600037F3D9FF60003BF328
:101FFE00DAFF6F0078FFDBF06F0078FFDCF06F0028
:10200E0078FFDDF06F0078FFDEF0C7C083F0C8C048
:10201E0084F0DBC085F0DCC086F0DDC087F0DEC06A
:10202E0088F0E2C089F067EC08F083C0C7F084C086
:10203E00C8F04FEF11F0DF0E146E000E156EC90EC4
:10204E00166E100E176E000E196E020E186E9AECAA
:10205E0024F014501510D8A437EF10F039EF10F00B
:10206E00ECEF10F0600027F3D9FF60002BF3DAFFDE
:10207E006F0078FFCDF06F0074FFCEF0010E0001FF
:10208E00CD27000ECE23600037F3F6FF60003BF342
:10209E00F7FFF86A08006F00D4FFE2F0BF0ECD6FB5
:1020AE00FF0ECE6F600027F3D9FF60002BF3DAFF2F
:1020BE006F007BFFF6FF6F0077FFF7FFF86A0800EF
:1020CE00F550CF6FD06BCD51CF27CE51D023D051FD
:1020DE000AE11A0ECF5DD8A077EF10F07AEF10F06C
:1020EE00010E7BEF10F0000ED96FDA6BD951DA11B9
:1020FE00D8B484EF10F086EF10F0AAEF10F0600065
:10210E002FF3D9FF600033F3DAFF6F007CFFCDF0C1
:10211E00040EDE266F007CFFCEF0000EDD22600086
:10212E0037F3D9FF60003BF3DAFF6F0078FFDBF087
:10213E006F0078FFDCF06F0078FFDDF06F0078FF46
:10214E00DEF0CCEF10F060002FF3D9FF600033F318
:10215E00DAFF6F007CFFCDF0040EDE266F007CFFF1
:10216E00CEF0000EDD22600037F3D9FF60003BF3A6
:10217E00DAFF6F0078FFDBF06F0078FFDCF06F00A6
:10218E0078FFDDF06F0078FFDEF0020E600027F3BF
:10219E00D9FF60002BF3DAFFDE26000EDD22C7C06A
:1021AE0083F0C8C084F0DBC085F0DCC086F0DDC0F3
:1021BE0087F0DEC088F0E2C089F067EC08F083C0DB
:1021CE00C7F084C0C8F04FEF11F0600027F3D9FFBD
:1021DE0060002BF3DAFF6F007BFFF6FF6F0077FFD7
:1021EE00F7FFF86A0800F550250AD8A401EF11F0A0
:1021FE0003EF11F01DEF11F0600027F3D9FF60001F
:10220E002BF3DAFFDE2A000EDD22000E176E250EEE
:10221E00166EC7C018F0C8C019F00CEC28F0000EEE
:10222E000001C86F010EC76F4FEF11F0600027F36A
:10223E00D9FF60002BF3DAFFDE2A000EDD22000E3E
:10224E000001C86F000EC76F4FEF11F0600027F34B
:10225E00D9FF60002BF3DAFF6F007BFFF6FF6F00F4
:10226E0077FFF7FFF86A0800F550166E176AC7C0B9
:10227E0018F0C8C019F00CEC28F0600027F3D9FF55
:10228E0060002BF3DAFFDE2A000EDD2216EF11F0CE
:10229E00120000017051800B756F70517025776FB1
:1022AE006FAF5CEF11F05EEF11F05FEF11F0778121
:1022BE007751D8B465EF11F067EF11F07CEF11F0A4
:1022CE007729D8A46DEF11F06FEF11F077EF11F0C1
:1022DE00000E6D6F000E6E6F000E6F6F000E706F42
:1022EE006F8F000E706F84EF11F0000E6D6F000E89
:1022FE006E6F000E6F6F000E706F7451800B766FE5
:10230E0075517619D8B48EEF11F090EF11F091EF60
:10231E0011F0758D74517425766F73AF99EF11F0BE
:10232E009BEF11F09CEF11F076817651D8B4A2EFAD
:10233E0011F0A4EF11F0B9EF11F07629D8A4AAEF9D
:10234E0011F0ACEF11F0B4EF11F0000E716F000E42
:10235E00726F000E736F000E746F738F000E746FBA
:10236E00C1EF11F0000E716F000E726F000E736FE1
:10237E00000E746F7751765DD8B0C8EF11F0CAEFCA
:10238E0011F0F1EF11F075ADCFEF11F0D1EF11F0BB
:10239E00D3EF11F0800E751B77C078F076C077F012
:1023AE0078C076F06DC078F071C06DF078C071F0C5
:1023BE006EC078F072C06EF078C072F06FC078F0B8
:1023CE0073C06FF078C073F070C078F074C070F0A6
:1023DE0078C074F0000E786F775176C036F0376A99
:1023EE00365E000E375A37BE06EF12F0375009E14F
:1023FE001A0E365CD8A006EF12F008EF12F03FEF7F
:10240E0012F06D516E116F117011D8A411EF12F000
:10241E0014EF12F0010E15EF12F0000E786F000E91
:10242E006D6F000E6E6F000E6F6F000E706F76C0C8
:10243E0077F048EF12F078A127EF12F029EF12F0A3
:10244E002FEF12F0D89078310109786F31EF12F03A
:10245E00D89078336DA136EF12F038EF12F039EFD5
:10246E0012F0788F703570336F336E336D33772B88
:10247E007651775DD8A046EF12F048EF12F022EFBA
:10248E0012F075BD4DEF12F04FEF12F08FEF12F00C
:10249E007751D8A455EF12F057EF12F061EF12F00A
:1024AE00000E6D6F000E6E6F000E6F6F000E706F70
:1024BE00B0EF13F071516D2772516E2373516F236C
:1024CE007451702370A16EEF12F070EF12F01CEFCA
:1024DE0013F078A175EF12F077EF12F07DEF12F096
:1024EE00D89078310109786F7FEF12F0D890783359
:1024FE006DA184EF12F086EF12F087EF12F0788F55
:10250E00703570336F336E336D33772B1CEF13F0E2
:10251E0071516D5D72516E5973516F597051800AC0
:10252E00366E7451800A3658D8B0A0EF12F0A2EF72
:10253E0012F0CDEF12F06D51715D366E6E51725913
:10254E00376E6F517359386E70517459396EFF0E64
:10255E0036246D6FFF0E37206E6FFF0E38206F6FB3
:10256E00FF0E3920706F800E751B786D7851D8A4D0
:10257E00C3EF12F0C5EF12F0D5EF12F0010E6D277A
:10258E00000E6E236F237023D5EF12F071516D5F25
:10259E0072516E5B73516F5B7451705B6D516E1146
:1025AE006F117011D8A4DEEF12F0E0EF12F015EFFC
:1025BE0013F07851D8A4E6EF12F0E8EF12F015EF11
:1025CE0013F0000E6D6F000E6E6F000E6F6F000E2B
:1025DE00706FB0EF13F0D8906D376E376F3770376E
:1025EE0078AFFCEF12F0FEEF12F0FFEF12F06D81FC
:1025FE0078A104EF13F006EF13F00AEF13F0D88072
:10260E0078370CEF13F0D89078377751D8B412EFA3
:10261E0013F014EF13F015EF13F077076FAF1AEFF7
:10262E0013F01CEF13F0F2EF12F0000E766F78AF8E
:10263E0023EF13F025EF13F03DEF13F078C036F0D3
:10264E007F0E3616D8B42EEF13F030EF13F034EFB2
:10265E0013F0010E766F3DEF13F06DA139EF13F00D
:10266E003BEF13F03DEF13F030EF13F07651D8B48B
:10267E0043EF13F045EF13F070EF13F0010E6D27DB
:10268E00000E6E236F23702370A150EF13F052EFE4
:10269E0013F070EF13F06DC036F06EC037F06FC0F0
:1026AE0038F070C039F03934393238323732363288
:1026BE0036C06DF037C06EF038C06FF039C070F0B4
:1026CE007729D8B46DEF13F06FEF13F070EF13F0AE
:1026DE00772B7729D8B476EF13F078EF13F080EFDD
:1026EE0013F07751D8A47EEF13F080EF13F092EF32
:1026FE0013F0000E6D6F000E6E6F000E6F6F000EFA
:10270E00706F7751D8A48EEF13F090EF13F092EF15
:10271E0013F0000E756F77A197EF13F099EF13F08A
:10272E009CEF13F06F8F9DEF13F06F9FD890773162
:10273E00706F75AFA5EF13F0A7EF13F0A8EF13F0BE
:10274E00708F6DC06DF06EC06EF06FC06FF070C0A8
:10275E0070F012002D50800B0001606F2D502D2453
:10276E00666F2CAEBDEF13F0BFEF13F0C0EF13F09A
:10277E0066816651D8B4C6EF13F0C8EF13F0DBEFE5
:10278E0013F06629D8A4CEEF13F0D0EF13F0D8EFE4
:10279E0013F0000E2A6E000E2B6E000E2C6E000E25
:1027AE002D6E2C8EE3EF13F0000E2A6E000E2B6EA4
:1027BE00000E2C6E000E2D6E3150800B601B3150B2
:1027CE003124616F30AEEEEF13F0F0EF13F0F1EF56
:1027DE0013F061816151D8B4F7EF13F0F9EF13F0F4
:1027EE000CEF14F06129D8A4FFEF13F001EF14F0F1
:1027FE0009EF14F0000E2E6E000E2F6E000E306ECE
:10280E00000E316E308E14EF14F0000E2E6E000E90
:10281E002F6E000E306E000E316E6151D8B41AEF6D
:10282E0014F01CEF14F024EF14F06651D8A422EF2C
:10283E0014F024EF14F02EEF14F0000E2A6E000E9A
:10284E002B6E000E2C6E000E2D6ED8EF15F0305044
:10285E002A026F00CCFF6BF06F00D0FF6CF06B5153
:10286E00626F636B646B656B6C51676F686B696BE2
:10287E006A6B2F502B026F00CCFF6BF06F00D0FFF6
:10288E006CF06B516227000E6323642365236C5139
:10289E006727000E682369236A232E502C026F00CF
:1028AE00CCFF6BF06F00D0FF6CF06B516227000E07
:1028BE006323642365236C516727000E6823692305
:1028CE006A2364C065F063C064F062C063F0626B3B
:1028DE002E502B026F00CCFF6BF06F00D0FF6CF010
:1028EE006B5162276C516323000E6423000E652327
:1028FE002F502A026F00CCFF6BF06F00D0FF6CF0F0
:10290E006B5162276C516323000E6423000E652306
:10291E0064C065F063C064F062C063F0626B2E50F9
:10292E002A026F00CCFF6BF06F00D0FF6CF06B5182
:10293E0062276C516323000E6423000E6523305012
:10294E002B026F00CCFF6BF06F00D0FF6CF06B5161
:10295E0067276C516823000E6923000E6A232F50DF
:10296E002C026F00CCFF6BF06F00D0FF6CF06B5140
:10297E0067276C516823000E6923000E6A233050BE
:10298E002C026F00CCFF6BF06F00D0FF6CF06B5120
:10299E00326E6C51336E346A356A34C035F033C0E2
:1029AE0034F032C033F0326A325067273350682326
:1029BE003450692335506A2362C032F063C033F05D
:1029CE0064C034F065C035F0190EF3EF14F0D890F2
:1029DE003532343233323232E82EEEEF14F03250DA
:1029EE006727335068233450692335506A2364C0F7
:1029FE0065F063C064F062C063F0626B615166C0E3
:102A0E0032F0336A3226000E3322820E32246B6F7E
:102A1E00FF0E33206C6F29EF15F0D89067376837AB
:102A2E0069376A3765AF1EEF15F020EF15F021EF0D
:102A3E0015F06781D89062376337643765376B0757
:102A4E00D8A06C0769AF2EEF15F030EF15F014EF2C
:102A5E0015F0000E616F65AF37EF15F039EF15F019
:102A6E005DEF15F0FF0E6215326EFF0E6315336EBD
:102A7E00FF0E6415346E7F0E6515356E32503310B1
:102A8E0034103510D8B44EEF15F050EF15F054EF5A
:102A9E0015F0010E616F5DEF15F067A159EF15F09E
:102AAE005BEF15F05DEF15F050EF15F06151D8B4F6
:102ABE0063EF15F065EF15F089EF15F0010E67273E
:102ACE00000E682369236A236AA170EF15F072EF76
:102ADE0015F089EF15F067C032F068C033F069C0A9
:102AEE0034F06AC035F03534353234323332323266
:102AFE0032C067F033C068F034C069F035C06AF098
:102B0E006B4B6C2B6CBF94EF15F06C5108E16B297D
:102B1E00D8A094EF15F096EF15F0A0EF15F0000E7B
:102B2E00676F000E686F800E696F7F0E6A6FCEEF53
:102B3E0015F06CBFADEF15F06C5106E16B05D8B01A
:102B4E00ABEF15F0ADEF15F0B9EF15F0000E676FA6
:102B5E00000E686F000E696F000E6A6F000E606FD8
:102B6E00CEEF15F06BC066F0FF0E6717FF0E6817FD
:102B7E007F0E6917000E6A1766A1C8EF15F0CAEF2F
:102B8E0015F0CBEF15F0698FD89066316A6F6051F2
:102B9E006A1367C02AF068C02BF069C02CF06AC0B7
:102BAE002DF012002D50800B0001646F2D502D243E
:102BBE006B6F2CAEE5EF15F0E7EF15F0E8EF15F0C3
:102BCE006B816B51D8B4EEEF15F0F0EF15F005EF09
:102BDE0016F06B29D8A4F6EF15F0F8EF15F000EF0C
:102BEE0016F0000E2A6E000E2B6E000E2C6E000ECE
:102BFE002D6E2C8E000E2D6E0DEF16F0000E2A6E21
:102C0E00000E2B6E000E2C6E000E2D6E3150800BB2
:102C1E00641B315031246C6F30AE18EF16F01AEF82
:102C2E0016F01BEF16F06C816C51D8B421EF16F034
:102C3E0023EF16F038EF16F06C29D8A429EF16F012
:102C4E002BEF16F033EF16F0000E2E6E000E2F6ED9
:102C5E00000E306E000E316E308E000E316E40EF73
:102C6E0016F0000E2E6E000E2F6E000E306E000E41
:102C7E00316E2E502F1030103110D8A449EF16F0AF
:102C8E004BEF16F063EF16F0000E2A6E000E2B6E51
:102C9E00000E2C6E000E2D6E800E2C127F0E2D123D
:102CAE0064512D122AC02AF02BC02BF02CC02CF010
:102CBE002DC02DF0A6EF17F06B51D8A469EF16F0CA
:102CCE006BEF16F075EF16F0000E2A6E000E2B6EDF
:102CDE00000E2C6E000E2D6EA6EF17F06C516BC011
:102CEE0032F0336A325E000E335A7F0E3224656F35
:102CFE00000E3320666F2AC060F02BC061F02CC02E
:102D0E0062F02DC063F0000E2A6E000E2B6E000EC8
:102D1E002C6E000E2D6E000E676F000E686F000E8B
:102D2E00696F000E6A6F000E6C6FD6EF16F06C5165
:102D3E00D8B4A4EF16F0A6EF16F0BDEF16F0D890AB
:102D4E006037613762376337D8902A362B362C3688
:102D5E002D366AAFB5EF16F0B7EF16F0B8EF16F0E6
:102D6E002A80D8906737683769376A372E50605D8A
:102D7E002F5061593050625931506359D8A0CAEF63
:102D8E0016F0CCEF16F0D5EF16F06A8D2E50605F70
:102D9E002F50615B3050625B3150635B6C2B190EB0
:102DAE006C65DCEF16F0DEEF16F09EEF16F060515C
:102DBE00611162116311D8B4E7EF16F0E9EF16F066
:102DCE0001EF17F0678101EF17F0D8902A362B36F6
:102DDE002C362D366AAFF6EF16F0F8EF16F0F9EF47
:102DEE0016F02A80D8906737683769376A376507D3
:102DFE00D8A066072CAE06EF17F008EF17F0ECEF31
:102E0E0016F0000E6C6F6AAF0FEF17F011EF17F0A0
:102E1E0035EF17F0FF0E6715326EFF0E6815336E25
:102E2E00FF0E6915346E7F0E6A15356E32503310F3
:102E3E0034103510D8B426EF17F028EF17F02CEF1A
:102E4E0017F0010E6C6F35EF17F02AA031EF17F067
:102E5E0033EF17F035EF17F028EF17F06C51D8B4A9
:102E6E003BEF17F03DEF17F061EF17F0010E2A263A
:102E7E00000E2B222C222D222DA048EF17F04AEF08
:102E8E0017F061EF17F02AC032F02BC033F02CC0D0
:102E9E0034F02DC035F035343532343233323232EF
:102EAE0032C02AF033C02BF034C02CF035C02DF0D8
:102EBE00654B662B66BF6CEF17F0665108E165290E
:102ECE00D8A06CEF17F06EEF17F079EF17F0000E39
:102EDE00666F6569000E2A6E000E2B6E000E2C6E4C
:102EEE00000E2D6E66BF86EF17F0665106E1650582
:102EFE00D8B084EF17F086EF17F094EF17F0000EAE
:102F0E00666F000E656F000E2A6E000E2B6E000EA1
:102F1E002C6E000E2D6E000E646F65C06BF06BA1F3
:102F2E009BEF17F09DEF17F0A0EF17F02C8EA1EF8F
:102F3E0017F02C9ED8906B312D6E57EF16F01200B5
:102F4E0005EF19F00001F151F55D0101B06F0001BF
:102F5E00F251F6590101B16F0001EF51F35D01011C
:102F6E00B26F0001F051F4590101B36F000E000170
:102F7E00F76F0101B1BFCDEF17F0B15109E11F0E8F
:102F8E00B05DD8A0CDEF17F0CFEF17F008EF18F027
:102F9E00B1BFDDEF17F02C0EB05D010EB159D8B0F8
:102FAE00DBEF17F0DDEF17F008EF18F00001F2512C
:102FBE0007E17D0EF15DD8B0E7EF17F0E9EF17F0FE
:102FCE0008EF18F0000EF76F010EFB6F040EFC6F8A
:102FDE00F92B010E0101A66F100EA76FB0C1A8F15B
:102FEE00B1C1A9F1B2C1AAF1B3C1ABF148EC2EF057
:102FFE00510E0101A66F100EA76F48EC2EF024EFB4
:10300E0019F00101B3BF15EF18F0B35109E11F0E0E
:10301E00B25DD8A015EF18F017EF18F024EF19F0E5
:10302E00B3BF25EF18F02C0EB25D010EB359D8B018
:10303E0023EF18F025EF18F024EF19F00001F051EE
:10304E0007E17D0EEF5DD8B02FEF18F031EF18F0DD
:10305E0024EF19F0000EF76F010EFB6F050EFC6FDB
:10306E00F82B010E0101A66F100EA76FB0C1A8F1CB
:10307E00B1C1A9F1B2C1AAF1B3C1ABF148EC2EF0C6
:10308E00260E0101A66F100EA76F48EC2EF024EF4E
:10309E0019F0090E0001F76557EF18F059EF18F007
:1030AE0066EF18F0000EF76F020EFB6FB00E010107
:1030BE00A66F100EA76F48EC2EF024EF19F000014A
:1030CE00F72B24EF19F0130E0001F76571EF18F0CE
:1030DE0073EF18F066EF18F0040EFC19D8A47AEF0F
:1030EE0018F07CEF18F087EF18F0F65109E12D0E6D
:1030FE00F55DD8A085EF18F087EF18F0A6EF18F061
:10310E00050EFC19D8A48EEF18F090EF18F09BEF77
:10311E0018F0F45109E12D0EF35DD8A099EF18F0D7
:10312E009BEF18F0A6EF18F02D0EFD5D010EFE5967
:10313E00D8A0A4EF18F0A6EF18F066EF18F0F6512D
:10314E0007E12D0EF55DD8B0AFEF18F0B1EF18F026
:10315E00BAEF18F0900E0101A66F100EA76F48EC93
:10316E002EF0D5EF18F0F45107E12D0EF35DD8B027
:10317E00C3EF18F0C5EF18F0CEEF18F06C0E01018A
:10318E00A66F100EA76F48EC2EF0D5EF18F0780E44
:10319E000101A66F100EA76F48EC2EF0170E01015D
:1031AE00A66F100EA76FF7C0A8F1A96B48EC2EF012
:1031BE00000E0001F76F030EFB6F000EFC6F840E06
:1031CE000101A66F100EA76F48EC2EF066EF18F0F7
:1031DE000001F751D8B4F6EF18F0F8EF18F066EFDB
:1031EE0018F0000EF76F000EFB6FA60E0101A66F12
:1031FE00100EA76F48EC2EF024EF19F00001FB51D2
:10320E000101AE6FAF6BAF51000AD8B411EF19F0D8
:10321E0024EF19F0AE51000AD8B4A9EF17F0010A45
:10322E00D8B450EF18F0030AD8B46AEF18F0010AB8
:10323E00D8B4EFEF18F024EF19F0F5C0F1F0F6C0A6
:10324E00F2F0F3C0EFF0F4C0F0F0120062C072F0D2
:10325E0063C073F064C074F065C075F066C076F03C
:10326E0067C077F068C078F069C079F0000179BF67
:10327E0043EF19F046EF19F0010E47EF19F0000E6B
:10328E00706F716B70517111D8B450EF19F052EF1D
:10329E0019F062EF19F0791F781F771F761F751FCF
:1032AE00741F731F726D000E7323742375237623A0
:1032BE007723782379233BBE67EF19F069EF19F076
:1032CE006AEF19F03C923BBE77EF19F03B5006E1E6
:1032DE003A04D8B075EF19F077EF19F07DEF19F0C9
:1032EE00000E6D6F010E6C6F81EF19F03AC06CF02D
:1032FE003BC06DF0E5C06EF0E6C06FF0705171111D
:10330E00D8A48CEF19F08EEF19F095EF19F03CA4BC
:10331E0093EF19F095EF19F098EF19F06E07D8A00A
:10332E006F07000E7B6F4F0E7A6F000E0101896FD3
:10333E001EEF1AF07A07D8A07B073A0E7A25D96EBF
:10334E00010E7B21DA6E72C014F073C015F074C0DA
:10335E0016F075C017F076C018F077C019F078C067
:10336E001AF079C01BF00A0E1C6E000E1D6E000EB8
:10337E001E6E000E1F6E000E206E000E216E000ED1
:10338E00226E000E236E0DEC20F014C031F015C02D
:10339E0032F016C033F017C034F018C035F019C033
:1033AE0036F01AC037F01BC038F031C026F033C0EB
:1033BE0027F089EC2BF02650300FDF6E00016C07E2
:1033CE00D8A06D076E07D8A06F0772C014F073C037
:1033DE0015F074C016F075C017F076C018F077C0EF
:1033EE0019F078C01AF079C01BF00A0E1C6E000E90
:1033FE001D6E000E1E6E000E1F6E000E206E000E55
:10340E00216E000E226E000E236E49EC1FF014C0CA
:10341E0072F015C073F016C074F017C075F018C0B6
:10342E0076F019C077F01AC078F01BC079F0000161
:10343E007BBF2AEF1AF07B5108E17A05D8A02AEF5C
:10344E001AF02CEF1AF05CEF1AF07251731174111E
:10345E0075117611771178117911D8A439EF1AF008
:10346E003BEF1AF0A1EF19F06DBF48EF1AF06D5156
:10347E0006E16C05D8B046EF1AF048EF1AF0A1EF4E
:10348E0019F06FBF53EF1AF06F5108E16E05D8A017
:10349E0053EF1AF055EF1AF05CEF1AF03CB25AEFF8
:1034AE001AF05CEF1AF0A1EF19F070517111D8A457
:1034BE0063EF1AF065EF1AF06CEF1AF03CA46AEFA6
:1034CE001AF06CEF1AF08BEF1AF07A07D8A07B0780
:1034DE0070517111D8A476EF1AF078EF1AF07EEFD2
:1034EE001AF0000E6B6F2B0E6A6F82EF1AF0000E41
:1034FE006B6F2D0E6A6F3A0E7A25D96E010E7B21F7
:10350E00DA6E6000ABF1DFFF60C026F061C027F01D
:10351E003A0E7A25286E010E7B21296E6EC02AF096
:10352E006FC02BF04CEC26F026C060F027C061F087
:10353E00120018C179F019C17AF01AC17BF01BC1C3
:10354E007CF036C079F037C07AF038C07BF039C0E5
:10355E007CF0810E00016D6FFF0E6E6F79C06FF003
:10356E007AC070F07BC071F07CC072F0180EC5EF9F
:10357E001AF0D8907233713370336F33E82EC0EF78
:10358E001AF06F516D25776F000E6E21786F78BF30
:10359E00DAEF1AF0785109E1170E775DD8A0DAEF5D
:1035AE001AF0DCEF1AF0E6EF1AF036C036F037C03C
:1035BE0037F038C038F039C039F0AAEF1BF078BFB9
:1035CE00EBEF1AF0EDEF1AF05EEF1BF077C06DF037
:1035DE00FF0E6E6FFF0E6F6F7F0E706F000E716FAE
:1035EE006D67FCEF1AF004EF1BF071357133703319
:1035FE006F336E336D2FF7EF1AF06EC073F06FC02E
:10360E0074F070C075F071C076F0000173517915C9
:10361E006D6F74517A156E6F75517B156F6F765194
:10362E007C15706F6D516E116F117011D8A422EF51
:10363E001BF024EF1BF026EF1BF0DCEF1AF079C025
:10364E006DF07AC06EF07BC06FF07CC070F0200E13
:10365E0036EF1BF0D89070336F336E336D33E82E28
:10366E0031EF1BF06D516E116F117011D8B442EF26
:10367E001BF044EF1BF04CEF1BF073517927745184
:10368E007A2375517B2376517C23731D6D6F741DC8
:10369E006E6F751D6F6F761D706F6D5179176E5150
:1036AE007A176F517B1770517C17A2EF1BF079C000
:1036BE006DF07AC06EF07BC06FF07CC070F0200EA3
:1036CE006EEF1BF0D89070336F336E336D33E82E80
:1036DE0069EF1BF06D516E116F117011D8A47AEF56
:1036EE001BF07CEF1BF086EF1BF0000E796F000EC7
:1036FE007A6F000E7B6F000E7C6FA2EF1BF0D890DE
:10370E0079356D6F7A356E6F7B356F6F7C35706F77
:10371E006D516E116F117011D8B498EF1BF09AEFB6
:10372E001BF0A2EF1BF0000E796F000E7A6F800E69
:10373E007B6FBF0E7C6F79C036F07AC037F07BC0DE
:10374E0038F07CC039F01200000E0001886F000EB8
:10375E00876F61EF1CF0FE5109E11F0EFD5DD8A0D1
:10376E00BBEF1BF0BDEF1BF0BFEF1BF0000EFC6FAD
:10377E00EEBFCBEF1BF0EE5109E1650EED5DD8A06B
:10378E00CBEF1BF0CDEF1BF0E8EF1BF0EDC087F099
:10379E00EEC088F0FE5107E10F0EFD5DD8B0DAEFF6
:1037AE001BF0DCEF1BF0E2EF1BF0FC0E8727FF0E89
:1037BE00882386EF1CF0FE0E8727FF0E882386EFE8
:1037CE001CF0000E886F640E876F86EF1CF0FE51A2
:1037DE0007E11E0EFD5DD8B0F7EF1BF0F9EF1BF001
:1037EE00FBEF1BF0010EFC6FFE5109E1960EFD5D25
:1037FE00D8A004EF1CF006EF1CF04FEF1CF0000EEB
:10380E00716F800E726F890E736F430E746F000EA0
:10381E002E6E000E2F6E000E306E000E316E6A0E82
:10382E00836FFF0E846FFDC085F0FEC086F083515E
:10383E0085278451862385C01CF086C01DF01E6A24
:10384E001F6A000EABEC1DF01CC02AF01DC02BF041
:10385E001EC02CF01FC02DF0B1EC13F02AC06DF07D
:10386E002BC06EF02CC06FF02DC070F050EC11F02C
:10387E006DC079F06EC07AF06FC07BF070C07CF0D6
:10388E0014EC23F079C087F07AC088F086EF1CF034
:10389E00010E886F130E876F86EF1CF0FF0E886F78
:1038AE00830E876F86EF1CF0000E886FC80E876F31
:1038BE0086EF1CF0FC51836F846B8451000AD8B4E0
:1038CE006BEF1CF086EF1CF08351000AD8B4EEEFBC
:1038DE001BF0010AD8B4B2EF1BF0030AD8B455EFAF
:1038EE001CF0010AD8B455EF1CF0070AD8B45BEFF0
:1038FE001CF0010AD8B45BEF1CF086EF1CF000013F
:10390E0088BF93EF1CF0910E875D010E8859D8A0E9
:10391E0093EF1CF095EF1CF099EF1CF0010E886FE1
:10392E00900E876F88AFA5EF1CF0060E875DFF0E19
:10393E008859D8B0A5EF1CF0A7EF1CF0ABEF1CF028
:10394E00FF0E886F060E876F87C0EDF088C0EEF011
:10395E001200000E00018B6F000E8A6F2BEF1DF010
:10396E0083C088F084C089F083C086F084C087F05D
:10397E00861F871F864B872B86C08AF087C08BF0E9
:10398E004CEF1DF083C088F084C089F083C08AF0AC
:10399E0084C08BF04CEF1DF083C088F084C089F09A
:1039AE00000E2E6E000E2F6EA00E306E3F0E316E7C
:1039BE0083C086F084C087F0861F871F864B872BB7
:1039CE0086C01CF087C01DF0000E1DBEFF0E1E6EC1
:1039DE001F6E010EABEC1DF01CC02AF01DC02BF0AB
:1039EE001EC02CF01FC02DF0D9EC15F02AC079F0B6
:1039FE002BC07AF02CC07BF02DC07CF014EC23F0A1
:103A0E0079C08AF07AC08BF04CEF1DF083C088F03D
:103A1E0084C089F0000E8B6F000E8A6F4CEF1DF084
:103A2E00000E896F000E886F83C08AF084C08BF001
:103A3E004CEF1DF0000E896F000E886F000E8B6F1D
:103A4E00000E8A6F4CEF1DF08551866F876B875184
:103A5E00000AD8B435EF1DF021EF1DF08651000A93
:103A6E00D8B4B7EF1CF0010AD8B4C9EF1CF0030AA2
:103A7E00D8B4D3EF1CF0010AD8B40DEF1DF0070A2D
:103A8E00D8B417EF1DF021EF1DF0000189BF59EFDB
:103A9E001DF0895109E1420E885DD8A059EF1DF045
:103AAE005BEF1DF061EF1DF0000E896F410E886F08
:103ABE0073EF1DF089AF6DEF1DF0BF0E885DFF0E29
:103ACE008959D8B06DEF1DF06FEF1DF073EF1DF03B
:103ADE00FF0E896FBF0E886F8BBF7FEF1DF08B516E
:103AEE0009E1290E8A5DD8A07FEF1DF081EF1DF050
:103AFE0087EF1DF0000E8B6F280E8A6F99EF1DF069
:103B0E008BAF93EF1DF0D80E8A5DFF0E8B59D8B098
:103B1E0093EF1DF095EF1DF099EF1DF0FF0E8B6FDB
:103B2E00D80E8A6F600E8825146E010E8921156ECF
:103B3E00C3EC2CF0650E00018A25146E010E8B214C
:103B4E00156EDDEC2CF01200246E2450D8B4B2EFBA
:103B5E001DF0B4EF1DF0D6EF1DF01FBEBBEF1DF034
:103B6E00B9EF1DF0D6EF1DF01CC020F01DC021F0E6
:103B7E001EC022F01FC023F0201E211E221E231E57
:103B8E00202A000E21222222232220C026F021C02C
:103B9E0027F022C028F023C029F0DEEF1DF01CC054
:103BAE0026F01DC027F01EC028F01FC029F01C50A3
:103BBE001D101E101F10D8A4E7EF1DF0E9EF1DF029
:103BCE00F3EF1DF0000E1C6E000E1D6E000E1E6E2D
:103BDE00000E1F6E84EF1EF0960E256EFDEF1DF08B
:103BEE00252AD8902932283227322632000E261462
:103BFE00206E000E2714216E000E2814226EFE0E6B
:103C0E002914236E2050211022102310D8A412EF55
:103C1E001EF014EF1EF0F7EF1DF022EF1EF0252A16
:103C2E00010E2626000E272228222922D89029327C
:103C3E00283227322632000E2614206E000E27144C
:103C4E00216E000E2814226EFF0E2914236E2050B2
:103C5E00211022102310D8A437EF1EF039EF1EF0DA
:103C6E0016EF1EF041EF1EF02506D89026362736A9
:103C7E002836293628BE46EF1EF048EF1EF050EFCC
:103C8E001EF0020E25604EEF1EF050EF1EF03BEFC1
:103C9E001EF025B055EF1EF057EF1EF058EF1EF038
:103CAE00289ED890253225C020F0216A226A236AE8
:103CBE0020C023F0226A216A206A20502612215049
:103CCE00271222502812235029122450D8B472EFF2
:103CDE001EF074EF1EF07CEF1EF01FBE7BEF1EF089
:103CEE0079EF1EF07CEF1EF0298E26C01CF027C047
:103CFE001DF028C01EF029C01FF012000001F35164
:103D0E00F55D8E6FF451F6598F6FB6EF1EF08FBFC3
:103D1E009AEF1EF08F5109E1290E8E5DD8A09AEF11
:103D2E001EF09CEF1EF0A2EF1EF0000E8F6F280EFD
:103D3E008E6F23EF1FF08FAFAEEF1EF0D80E8E5D9D
:103D4E00FF0E8F59D8B0AEEF1EF0B0EF1EF0D3EFCE
:103D5E001EF0FF0E8F6FD80E8E6F23EF1FF0FC51EB
:103D6E008C6F8D6B8D51000AD8B4C0EF1EF023EF0F
:103D7E001FF08C51000AD8B48EEF1EF0010AD8B491
:103D8E008EEF1EF0050AD8B48EEF1EF0010AD8B4DD
:103D9E008EEF1EF023EF1FF023EF1FF08EC083F087
:103DAE008FC084F0020E856FB0EC1CF048EF1FF050
:103DBE008EC083F08FC084F0030E856FB0EC1CF0C4
:103DCE0048EF1FF0FF0E846FCE0E836F000E856FCF
:103DDE00B0EC1CF048EF1FF0000E846F320E836FB4
:103DEE00000E856FB0EC1CF048EF1FF0020EFB19B1
:103DFE00D8A404EF1FF006EF1FF0D5EF1EF0000E53
:103E0E00846F320E836F020E856FB0EC1CF048EF9C
:103E1E001FF0020EFB19D8A417EF1FF019EF1FF0B9
:103E2E00D5EF1EF0FF0E846FCE0E836F020E856FE0
:103E3E00B0EC1CF048EF1FF0FC518C6F8D6B8D5168
:103E4E00000AD8B42DEF1FF048EF1FF08C51000A76
:103E5E00D8B4DFEF1EF0010AD8B4D5EF1EF0030A76
:103E6E00D8B4E9EF1EF0010AD8B4F3EF1EF0070A3A
:103E7E00D8B4FDEF1EF0010AD8B410EF1FF048EFD2
:103E8E001FF01200000E256E23BE52EF1FF050EFF2
:103E9E001FF064EF1FF0231E221E211E201E1F1E68
:103EAE001E1E1D1E1C6C000E1D221E221F222022F5
:103EBE00212222222322010E256E1BBE6BEF1FF044
:103ECE0069EF1FF07DEF1FF01B1E1A1E191E181E24
:103EDE00171E161E151E146C000E15221622172202
:103EEE00182219221A221B22010E251A20EE26F064
:103EFE00070EDE6AE806FDE21C501D101E101F1094
:103F0E002010211022102310D8B490EF1FF092EF42
:103F1E001FF0E4EF1FF0010E246EA0EF1FF0D890FB
:103F2E001C361D361E361F362036213622362336D7
:103F3E00242A23AEA5EF1FF0A7EF1FF096EF1FF078
:103F4E00D89026362736283629362A362B362C3662
:103F5E002D361C50145C1D5015581E5016581F50EF
:103F6E001758205018582150195822501A582350BB
:103F7E001B58D8A0C5EF1FF0C7EF1FF0D8EF1FF0EA
:103F8E001C50145E1D50155A1E50165A1F50175AAB
:103F9E002050185A2150195A22501A5A23501B5A7F
:103FAE002680D89023322232213220321F321E3206
:103FBE001D321C32242EA7EF1FF02550D8B4EAEF85
:103FCE001FF0ECEF1FF0FCEF1FF02D1E2C1E2B1E12
:103FDE002A1E291E281E271E266C000E2722282286
:103FEE0029222A222B222C222D2226C014F027C071
:103FFE0015F028C016F029C017F02AC018F02BC0F3
:10400E0019F02CC01AF02DC01BF01200000E256EF8
:10401E001BBE16EF20F014EF20F028EF20F01B1E31
:10402E001A1E191E181E171E161E151E146C000EB3
:10403E00152216221722182219221A221B22010ECD
:10404E00256E23BE2FEF20F02DEF20F03FEF20F056
:10405E00231E221E211E201E1F1E1E1E1D1E1C6C18
:10406E00000E1D221E221F22202221222222232266
:10407E001C501D101E101F10201021102210231076
:10408E00D8B44CEF20F04EEF20F096EF20F0010E5A
:10409E00246E5CEF20F0D8901C361D361E361F366F
:1040AE002036213622362336242A23AE61EF20F025
:1040BE0063EF20F052EF20F01C50145C1D50155889
:1040CE001E5016581F501758205018582150195866
:1040DE0022501A5823501B58D8A078EF20F07AEFB0
:1040EE0020F08AEF20F01C50145E1D50155A1E5001
:1040FE00165A1F50175A2050185A2150195A22502A
:10410E001A5A23501B5AD89023322232213220328F
:10411E001F321E321D321C32242E63EF20F025502A
:10412E00D8B49CEF20F09EEF20F0AEEF20F01B1ED7
:10413E001A1E191E181E171E161E151E146C000EA2
:10414E00152216221722182219221A221B2214C0F7
:10415E0014F015C015F016C016F017C017F018C0E1
:10416E0018F019C019F01AC01AF01BC01BF012007B
:10417E0057EC28F022C0EBF023C0ECF00001EB511D
:10418E00ED5D856FEC51EE59866F01012C510001EA
:10419E00EB5D876F01012D510001EC59886F0A0EFE
:1041AE002E6ED70E2F6EA30E306E3C0E316E000E9D
:1041BE00176E020E166E87C014F088C015F0EAEC6A
:1041CE0025F085C083F086C084F014500001835F13
:1041DE001550845B83C01CF084C01DF0000E1DBE04
:1041EE00FF0E1E6E1F6E010EABEC1DF01CC02AF0F2
:1041FE001DC02BF01EC02CF01FC02DF0B1EC13F023
:10420E002AC079F02BC07AF02CC07BF02DC07CF048
:10421E0014EC23F000017951896F8951800A7C0FCB
:10422E00D8A01CEF21F01EEF21F022EF21F0030E9B
:10423E00896F2EEF21F08951800A830FD8B02AEFB3
:10424E0021F02CEF21F02EEF21F0FD0E896F895118
:10425E00E927000E89BFFF0EEA23EABF40EF21F0E7
:10426E00BD0EE95D020EEA59D8A040EF21F042EFF3
:10427E0021F048EF21F0020EEA6FBC0EE96F5AEF03
:10428E0021F0EAAF54EF21F0700EE95DFE0EEA590F
:10429E00D8B054EF21F056EF21F05AEF21F0FE0E78
:1042AE00EA6F700EE96FE9C018F0EAC019F014EC6D
:1042BE0025F0EBC02CF1ECC02DF112000001FE51E7
:1042CE0007E10F0EFD5DD8B06FEF21F071EF21F019
:1042DE0076EF21F00101344B352B8DEF21F0020EDC
:1042EE00FC19D8B47DEF21F07FEF21F08DEF21F096
:1042FE00030EFC19D8B486EF21F088EF21F08DEF74
:10430E0021F0000E0101356F000E346F01013551A1
:10431E0009E1330E345DD8A097EF21F099EF21F02B
:10432E00FCEF21F02A4B2B2B020E0001FC19D8B406
:10433E00A3EF21F0A5EF21F0CFEF21F0030EFC1932
:10434E00D8B4ACEF21F0AEEF21F0CFEF21F0F55164
:10435E00F35DF651F459D8B0B7EF21F0B9EF21F073
:10436E00C5EF21F0430E0101A66F100EA76F48ECAA
:10437E002EF0020E0001FC6FCFEF21F05F0E010157
:10438E00A66F100EA76F48EC2EF0030E0001FC6F07
:10439E00FE5107E1240EFD5DD8B0D8EF21F0DAEF23
:1043AE0021F0E9EF21F001012BBFE7EF21F02D0EF7
:1043BE002A5D010E2B59D8A0E7EF21F0E9EF21F08D
:1043CE00FCEF21F0350E0101A66F100EA76F48EC21
:1043DE002EF0000E0001FC6F000E0101356F000E75
:1043EE00346F000E2B6F000E2A6F1200000E196E26
:1043FE00000E186E14EC25F0000E0001846F000EF6
:10440E00836F030E856FB0EC1CF0CBB811EF22F06A
:10441E0013EF22F00CEF22F00001FA51D8B41AEF8C
:10442E0022F01CEF22F013EF22F0000EFA6F2EECAA
:10443E0029F0E7C01CF0E8C01DF01E6A1F6A000ECE
:10444E00ABEC1DF01CC06DF01DC06EF01EC06FF009
:10445E001FC070F07B0E0001716F140E726F2E0E66
:10446E00736F450E746F98EC23F00001D8A042EFE5
:10447E0022F044EF22F013EF22F0EAEC28F0F5C020
:10448E00F1F0F6C0F2F0F3C0EFF0F4C0F0F0000E71
:10449E000001FA6F0001FA51D8B458EF22F05AEF2A
:1044AE0022F051EF22F0000EFA6FCBBA61EF22F03C
:1044BE0063EF22F075EF22F0000EEE6F000EED6F3F
:1044CE00000EEA6F000EE96F000E846F000E836F10
:1044DE00030E856FB0EC1CF08DEF22F0A1EC28F0EE
:1044EE000009D8B47DEF22F07FEF22F081EF22F0A9
:1044FE008DEF22F0A7EC17F065EC21F085EC1EF0A5
:10450E00ABEC1BF0BFEC20F051EF22F01200000ECE
:10451E001D6E1BBE97EF22F095EF22F0A1EF22F059
:10452E001B1E1A1E191E186C000E19221A221B228F
:10453E00010E1D6E17BEA8EF22F0A6EF22F0B2EF0D
:10454E0022F0171E161E151E146C000E15221622B2
:10455E001722010E1D1A000E1E6E000E1F6E000E8B
:10456E00206E000E216E185019101A101B10D8B4A0
:10457E00C3EF22F0C5EF22F0FBEF22F0010E1C6E0E
:10458E00CFEF22F0D890183619361A361B361C2A61
:10459E001BAED4EF22F0D6EF22F0C9EF22F0D89066
:1045AE001E361F36203621361850145C19501558F9
:1045BE001A5016581B501758D8A0E8EF22F0EAEF01
:1045CE0022F0F3EF22F01850145E1950155A1A50BB
:1045DE00165A1B50175A1E80D8901B321A32193297
:1045EE0018321C2ED6EF22F01D50D8B401EF23F056
:1045FE0003EF23F00BEF23F0211E201E1F1E1E6C57
:10460E00000E1F22202221221EC014F01FC015F002
:10461E0020C016F021C017F0120000017B357C354A
:10462E00826F8251D8A41EEF23F020EF23F02AEFE1
:10463E0023F0000E796F000E7A6F000E7B6F000E66
:10464E007C6F97EF23F079C07DF07AC07EF07BC04F
:10465E007FF07CC080F0200E3AEF23F0D8908033AC
:10466E007F337E337D33E82E35EF23F07D51816F1E
:10467E007B8FFF0E7917FF0E7A17FF0E7B17000E3A
:10468E007C17960E825F82BF51EF23F04FEF23F01F
:10469E0067EF23F08251800A970FD8B059EF23F0BD
:1046AE005BEF23F05DEF23F020EF23F0D8907C3307
:1046BE007B337A337933823F5DEF23F07FEF23F044
:1046CE001F0E82656DEF23F06FEF23F077EF23F06F
:1046DE0020EF23F0D89079377A377B377C378207F3
:1046EE008251D8A47DEF23F07FEF23F071EF23F0FA
:1046FE008151D8B485EF23F087EF23F08FEF23F0AD
:10470E007C1F7B1F7A1F796D000E7A237B237C23FF
:10471E0079C079F07AC07AF07BC07BF07CC07CF0F7
:10472E001200000E00016D15366E000E6E15376EFE
:10473E00800E6F15386E7F0E7015396E365037102D
:10474E0038103910D8A4AEEF23F0B0EF23F0B8EF45
:10475E0023F0000E6D6F000E6E6F000E6F6F000E69
:10476E00706F000E7115366E000E7215376E800E5C
:10477E007315386E7F0E7415396E3650371038102B
:10478E003910D8A4CDEF23F0CFEF23F0D7EF23F0DD
:10479E00000E716F000E726F000E736F000E746F4D
:1047AE0070AFDCEF23F0DEEF23F0E7EF23F06D6D5B
:1047BE006E1FD8B06E2B6F1FD8B06F2B800E705738
:1047CE0074AFECEF23F0EEEF23F0F7EF23F0716D03
:1047DE00721FD8B0722B731FD8B0732B800E745704
:1047EE00000E6D1B000E6E1B000E6F1B800E701BDD
:1047FE00000E711B000E721B000E731B800E741BBD
:10480E0071516D5D72516E5973516F59745170596A
:10481E00D8B014EF24F016EF24F019EF24F0D8904E
:10482E001AEF24F0D88012001CC11EF01DC11FF01B
:10483E001EC120F01FC121F014C01EF015C01FF0C4
:10484E0016C020F017C021F01EC018F01FC019F0BE
:10485E0020C01AF021C01BF0180E3BEF24F0D890A8
:10486E001B321A3219321832E82E36EF24F0185055
:10487E001C6E1D6A1C501D10D8A448EF24F04AEF80
:10488E0024F06AEF24F0D8901E34186E1F34196E7F
:10489E0020341A6E21341B6E185019101A101B106A
:1048AE00D8A45CEF24F05EEF24F064EF24F0000E49
:1048BE00156E020E146E99EF24F0000E156E030E97
:1048CE00146E99EF24F01C281D10D8A471EF24F05B
:1048DE0073EF24F095EF24F01EC018F01FC019F0EE
:1048EE0020C01AF021C01BF0090ED89018361936C8
:1048FE001A361B36E82E7CEF24F0185019101A10B9
:10490E001B10D8B48DEF24F090EF24F0010E91EF30
:10491E0024F0000E146E156A99EF24F0000E156E39
:10492E00040E146E120014C01BF015C01CF016C03D
:10493E001DF017C01EF01806D8A01906182806E19B
:10494E001928D8A4ADEF24F0AFEF24F0BCEF24F07B
:10495E00000E156E000E146E13EF25F01B4A1C2A66
:10496E001D4A1E2A1806D8A0190660006FF0D9FF3E
:10497E00600073F0DAFFDF50D8B4C8EF24F0CAEF4E
:10498E0024F0FDEF24F0600077F0F6FF60007BF07E
:10499E00F7FFF86A0800F5500009D8B4D9EF24F0F3
:1049AE00DBEF24F0FDEF24F018501910D8B4E2EF2D
:1049BE0024F0E4EF24F0FDEF24F060006FF0D9FF57
:1049CE00600073F0DAFFDF501A6E600077F0F6FFCA
:1049DE0060007BF0F7FFF86A0800F5501A18D8B49B
:1049EE00FBEF24F0FDEF24F0B5EF24F060006FF044
:1049FE00D9FF600073F0DAFFDF501A6E600077F0B7
:104A0E00F6FF60007BF0F7FFF86A0800F5501A5CBD
:104A1E00146E156AD8A01506120019BE20EF25F0E7
:104A2E00195009E1280E185CD8A020EF25F022EFCE
:104A3E0025F042EF25F019BE2EEF25F0BD0E185CC5
:104A4E00020E1958D8A02EEF25F030EF25F034EFD6
:104A5E0025F0020E196EBC0E186E18C014F019C097
:104A6E0015F011EC2DF0000E156E000E146EF7EC15
:104A7E002CF084EF25F019AE4EEF25F0D90E185C10
:104A8E00FF0E1958D8B04EEF25F050EF25F078EF05
:104A9E0025F019AE5CEF25F0700E185CFE0E19585D
:104AAE00D8B05CEF25F05EEF25F062EF25F0FE0E3C
:104ABE00196E700E186E000E156E000E146E11EC3F
:104ACE002DF018C01AF019C01BF01A1E1B1E1A4A20
:104ADE001B2A1AC014F01BC015F0F7EC2CF084EF53
:104AEE0025F0000E156E000E146E11EC2DF0000E5A
:104AFE00156E000E146EF7EC2CF01200000EBE6E4A
:104B0E00000EBD6E240EBA6E000EBB6E000EBC6E95
:104B1E00070EC66EC00EC26EF70EC36EC468C568B1
:104B2E001F0E3A01706F6069C00E506F070E806FD6
:104B3E007F0E406F000E716F000E816F000E516F71
:104B4E00000E416F000E616F000E5A6F000E5B6F0C
:104B5E00000E6A6F000E6B6F000E7A6F000E7B6F89
:104B6E00000E826F000E426F000E526F000E626FCB
:104B7E00000E726F4369536963697369070E836F21
:104B8E0044695469646974690F0E846F1F0ECF6F88
:104B9E00090EDC6F0E0E016F0A0EE56F0D0E006F23
:104BAE001D0EC96F100E046F070ED96F090ED16F4F
:104BBE000F0E036F130E0B6F080EDB6F080ED26F06
:104BCE001E0ED06F1200000E196E17BEF3EF25F0F9
:104BDE00F1EF25F0F9EF25F0166C171ED8B0172A55
:104BEE00010E196E15BE00EF26F0FEEF25F006EF52
:104BFE0026F0146C151ED8B0152A010E191A000EC7
:104C0E001B6E000E1A6E16501710D8B411EF26F048
:104C1E0013EF26F03BEF26F0010E186E1BEF26F079
:104C2E00D89016361736182A17AE20EF26F022EF38
:104C3E0026F017EF26F0D8901A361B361650145C55
:104C4E0017501558D8A02EEF26F030EF26F035EF7E
:104C5E0026F01650145E1750155A1A80D890173237
:104C6E001632182E22EF26F01950D8B441EF26F046
:104C7E0043EF26F047EF26F01A6C1B1ED8B01B2A06
:104C8E001AC014F01BC015F012003CA051EF26F014
:104C9E0053EF26F05DEF26F028C01FF029C020F05C
:104CAE0026C021F027C022F045EC2BF02BBE62EF80
:104CBE0026F064EF26F06AEF26F02AC02FF02BC004
:104CCE0030F06EEF26F0000E306E000E2F6E000EDE
:104CDE002E6E000E2D6E80EF26F0000E176E200E3B
:104CEE00166E26C018F027C019F00CEC28F02D4ACD
:104CFE002E2A2F502D5C2E50800A2C6E3050800A9A
:104D0E002C58D8A08DEF26F08FEF26F074EF26F0FA
:104D1E003CB094EF26F096EF26F0A0EF26F028C0D8
:104D2E001FF029C020F026C021F027C022F045EC4C
:104D3E002BF028C014F029C015F0A9EC2BF02F5041
:104D4E001424266E30501520276E1200000E4524B6
:104D5E00D96EDA6A010EDA22000EDF6E3D01F9A776
:104D6E00BBEF26F0BDEF26F0D1EF26F0000E452466
:104D7E00D96EDA6A010EDA220101DF8202D8D1EF92
:104D8E0026F00500FA6E9A51FD6E9B51FE6EFF6A7B
:104D9E00FA5012003D01F9A3D7EF26F0D9EF26F015
:104DAE00EDEF26F0000E4524D96EDA6A010EDA22F6
:104DBE000101DF8402D8EDEF26F00500FA6E98515E
:104DCE00FD6E9951FE6EFF6AFA501200000E4524D8
:104DDE00D96EDA6A010EDA22DF50D8B4F9EF26F076
:104DEE00FBEF26F00AEF27F002D808EF27F00500B8
:104DFE00FA6E01019651FD6E9751FE6EFF6AFA50E2
:104E0E0012000CEF27F01CEC2EF01200000E196EA3
:104E1E0015BE16EF27F014EF27F01CEF27F0146CD9
:104E2E00151ED8B0152A010E196E17BE23EF27F0E6
:104E3E0021EF27F027EF27F0166C171ED8B0172A90
:104E4E0016501710D8B42EEF27F030EF27F054EF8E
:104E5E0027F0010E186E38EF27F0D8901636173659
:104E6E00182A17AE3DEF27F03FEF27F034EF27F06B
:104E7E001650145C17501558D8A048EF27F04AEF7B
:104E8E0027F04EEF27F01650145E1750155AD89093
:104E9E0017321632182E3FEF27F01950D8B45AEFAA
:104EAE0027F05CEF27F060EF27F0146C151ED8B0DA
:104EBE00152A14C014F015C015F01200000E1414AB
:104ECE001C6E000E15141D6E800E16141E6E7F0EB7
:104EDE0017141F6E1C501D101E101F10D8A47AEF31
:104EEE0027F07CEF27F084EF27F0000E146E000EF3
:104EFE00156E000E166E000E176E000E18141C6E38
:104F0E00000E19141D6E800E1A141E6E7F0E1B14C9
:104F1E001F6E1C501D101E101F10D8A499EF27F0E5
:104F2E009BEF27F0A3EF27F0000E186E000E196E00
:104F3E00000E1A6E000E1B6E185014180FE1195049
:104F4E0015180CE11A50161809E11B501718D8B491
:104F5E00B3EF27F0B5EF27F0B8EF27F0D890B9EF01
:104F6E0027F0D8801200390193975A0E146E4D0E09
:104F7E00156E0EEC2FF039019399CE0E146E560E5F
:104F8E00156E09EC2FF0000E3D01EC6F000EED6F6B
:104F9E00000EEE6F000EEF6F000EF06F000EF16F51
:104FAE00B00EF26F800EF36F000EF46F8A0EF56F77
:104FBE00000EF66F000EF76F000EF86F000EF96F11
:104FCE00000EFA6F7E0E146E5E0E156E18EC2FF03C
:104FDE007C0E146E5E0E156E13EC2FF0760E146EA4
:104FEE005E0E156E1DEC2FF0000E426E000E476E1B
:104FFE00000E466E080E4C6E000E456E000E446E90
:10500E00000E436E39019387120018501910D8B450
:10501E0013EF28F015EF28F01EEF28F01850191096
:10502E00D8A41CEF28F01EEF28F023EF28F016501E
:10503E0004EC2FF056EF28F020EE04F01850D9268D
:10504E001950DA22DE50DE10D8B430EF28F032EFED
:10505E0028F04DEF28F020EE04F01850D926195004
:10506E00DA2210EE02F01850E1261950E222DE503C
:10507E00E65CE650800A1E6EDE50800A1E58D8B0DE
:10508E004BEF28F04DEF28F056EF28F020EE02F00F
:10509E001850D9261950DA22DE2A000EDD2212000F
:1050AE00000E256E000E246E485049104A104B100B
:1050BE00D8B464EF28F066EF28F09CEF28F03C019E
:1050CE0060AB6CEF28F06EEF28F086EF28F0200E24
:1050DE00146EA10E156E070E166E000E176E48C0DA
:1050EE0018F049C019F04AC01AF04BC01BF08EECF4
:1050FE0022F014C024F015C025F09CEF28F0E00E2D
:10510E00146E5E0E156EF80E166EFF0E176E48C0FC
:10511E0018F049C019F04AC01AF04BC01BF08EECC3
:10512E0022F014C024F015C025F024C022F025C0B2
:10513E0023F012000101324B332BF50E325D010EBE
:10514E003359D8A0ADEF28F0AFEF28F0E8EF28F0F4
:10515E00000E336F000E326F2EEC29F0E7C01CF0FC
:10516E00E8C01DF01E6A1F6A000EABEC1DF01CC0DD
:10517E006DF01DC06EF01EC06FF01FC070F07B0E84
:10518E000001716F140E726F2E0E736F450E746FD9
:10519E0098EC23F00001D8B0D7EF28F0D9EF28F023
:1051AE00E8EF28F0000EEE6F000EED6F000E846F2C
:1051BE00000E836F030E856FB0EC1CF0010EE9EF4D
:1051CE0028F0000E1200000E0001846F000E836F97
:1051DE00030E856FB0EC1CF0000E0001EA6F1C0E82
:1051EE00E96F000E916F000E906F0C0EE927000E06
:1051FE00EA23E9C018F0EAC019F014EC25F085ECAA
:10520E001EF0000E0001FA6FFA51D8B411EF29F01A
:10521E0013EF29F00BEF29F0904B912B91BF21EF5B
:10522E0029F0915109E1120E905DD8A021EF29F0DD
:10523E0023EF29F0FCEF28F0000EFA6F0D0EFA6541
:10524E002BEF29F02DEF29F025EF29F01200220E79
:10525E0060EC2DF014C0E7F015C0E8F0E7C01CF0CC
:10526E00E8C01DF01E6A1F6A000EABEC1DF01CC0DC
:10527E002AF01DC02BF01EC02CF01FC02DF0CD0E3D
:10528E002E6ECC0E2F6ECC0E306E430E316ED9ECD0
:10529E0015F02AC0AEF12BC0AFF12CC0B0F12DC06D
:1052AE00B1F19B0E0101A66F100EA76FAEC1A8F152
:1052BE00AFC1A9F1B0C1AAF1B1C1ABF148EC2EF06A
:1052CE001200A2C1E3F0A3C1E4F0000E0101296FA8
:1052DE00000E286F8AEF29F0A0C1C7F0A1C1C8F057
:1052EE00E30E0001C96F000ECA6FA4C1CBF0A5C1B9
:1052FE00CCF0BEEC0EF00001C751010128270001D1
:10530E00C8510101292360008FF3F6FF600093F36B
:10531E00F7FFF86A0800F5500009D8A499EF29F0B4
:10532E009BEF29F073EF29F028C1A0F129C1A1F15B
:10533E00120016C01AF017C01BF014C01CF015C0D6
:10534E001DF01A50186E1B50196E1A4A1B2A600057
:10535E0063F0F6FF600067F0F7FF000EF86E600076
:10536E0073F0D9FF600077F0DAFF1C4A1D2A0F0E8A
:10537E00F76403D00800F55007D06F00DBFFE9FF9C
:10538E006F00DFFFEAFFEF50DF6EDF50D8A4D2EFE1
:10539E0029F0D4EF29F0A8EF29F01200BF0E1C6EF1
:1053AE00FF0E1D6E1AC01EF01BC01FF01C501E26D5
:1053BE001D501F221F500AE11A0E1E5CD8A0EAEFE4
:1053CE0029F0EDEF29F0010EEEEF29F0000E206E20
:1053DE00216A20502110D8B4F7EF29F0F9EF29F007
:1053EE0000EF2AF0200E1A101A6E1B501B6E04EFDF
:1053FE002AF01AC01AF01BC01BF01200146E4C508B
:10540E00D8B40CEF2AF00EEF2AF006EF2AF039018D
:10541E0093B914EF2AF016EF2AF01BEF2AF0600072
:10542E0053F0EAFD31EF2AF09399100E4724D96E0E
:10543E00DA6A010EDA22600053F0DFFF472A070E08
:10544E0047642CEF2AF02EEF2AF030EF2AF0000EF0
:10545E00476E4C0693891200000E3E01DE6F000E61
:10546E00DF6F000EE06F000EE16F000EE46F000EB6
:10547E00E56F000EEA6F000EEC6F000EF16F580E26
:10548E00F36F020EF46F000EF56F000EF66F000E46
:10549E00F76F000EF96F000EFA6F000EFB6F000E25
:1054AE00FC6F000EFD6F000EFE6F1F0EFF6F840E61
:0454BE00F86F120071
:1054C4003901A19F3F0118510101246F3F01195176
:1054D4000101256F3F011A510101266F276B3C0121
:1054E40060AB77EF2AF079EF2AF082EF2AF0010E11
:1054F40001012027000E2123222323238BEF2AF0EE
:10550400FF0E01012027FF0E2123FF0E2223FF0E91
:1055140023231100D28A000ED2BE010E146ED29E35
:10552400550ED46EAA0ED46ED490000ED76E000E13
:10553400D66E080ED56E550ED46EAA0ED46ED480D7
:1055440014B002D0D29E01D0D28E390183998397B0
:10555400818F818B818D8A81888F879189831200C5
:105564008CEC2AF070EC2EF085EC25F0F1EC2EF0AA
:10557400C2EC2DF033EC2AF0F0EC2DF093EC2DF08E
:10558400C1EC2EF0B3EC2EF0D9EC2EF0ABEC2DF0F8
:1055940006EC2EF039EC2CF0E5EC2EF0D7EC2AF0EA
:1055A400CDEC2EF0BAEC27F01200C00E9B6E000E6C
:1055B4009C6E050E9D6E000E996E000E986E39015C
:1055C400A89D98506F0064FE16F0176A16C017F075
:1055D400166A16100101906F1750916F3901A89F38
:1055E400988F480E146E5D0E156E22EC2FF0030E8C
:1055F4009A6E12003901A19D3F011551486E165152
:10560400496E17514A6E4B6A3C0160AB0CEF2BF0AC
:105614000EEF2BF017EF2BF0010E01012027000EE7
:1056240021232223232320EF2BF0FF0E0101202727
:10563400FF0E2123FF0E2223FF0E23231100000E51
:1056440000017D1B000E7E1B000E7F1B800E801B45
:1056540079C06DF07AC06EF07BC06FF07CC070F0E2
:105664007DC071F07EC072F07FC073F080C074F0B2
:1056740050EC11F06DC079F06EC07AF06FC07BF021
:1056840070C07CF01200000E256E000E246E56EFE2
:105694002BF023C016F0176A21C018F022C019F0AD
:1056A4000CEC28F0244A252A24501F24D96E2550B6
:1056B4002020DA6EDF50236E2350D8A464EF2BF041
:1056C40066EF2BF04BEF2BF01200080E4C606DEFE1
:1056D4002BF06FEF2BF086EF2BF0100E4624D96ED3
:1056E400DA6A010EDA22DF503D01EA6F462A070E1C
:1056F40046647FEF2BF081EF2BF083EF2BF0000E4D
:10570400466E4C2A88EF2BF039019399120027BE7C
:1057140096EF2BF0275006E12604D8B094EF2BF037
:1057240096EF2BF0A4EF2BF026C028F027C029F029
:10573400281E291E284A292A28C026F029C027F015
:10574400A8EF2BF026C026F027C027F0120014C0C3
:1057540016F015C017F0B1EF2BF0144A152A6000AB
:1057640053F0D9FF600057F0DAFFDF50D8A4BDEF43
:105774002BF0BFEF2BF0AFEF2BF01650145C146E30
:1057840017501558156E12006F0060FF11F00101DB
:105794009C519D11D8B4D1EF2BF0D3EF2BF0DFEF58
:1057A4002BF002D8DFEF2BF00500FA6E9C51FD6E52
:1057B4009D51FE6EFF6AFA501200600047F0D8FF58
:0257C4001100D2
:1057C8006F0060FF12F001019E519F11D8B4EFEFF6
:1057D8002BF0F1EF2BF0FDEF2BF002D8FDEF2BF0C3
:1057E8000500FA6E9E51FD6E9F51FE6EFF6AFA50DB
:1057F800120060004BF0D8FF1100BF0E166EFF0EAE
:10580800176E14C018F015C019F016501826175046
:10581800192219500AE11A0E185CD8A016EF2CF0BC
:1058280019EF2CF0010E1AEF2CF0000E146E156A09
:1058380012001450151016101710D8B426EF2CF0BB
:1058480028EF2CF030EF2CF0000E141A000E151A69
:10585800000E161A800E171A14C014F015C015F091
:1058680016C016F017C017F01200000EA76E000E33
:10587800A86E050EA96E000EA56E000EA46E390165
:10588800A69DA4506F0094FE14F0156A14C015F07C
:10589800146A141001018C6F15508D6F010EA66EDD
:0258A8001200EC
:1058AC006F0060FF13F03901A791404A412A415023
:1058BC0009E10A0E405CD8A066EF2CF068EF2CF0E2
:1058CC006EEF2CF0D9EC2DF0000E416E000E406EF8
:1058DC0060004FF0D8FF110000EE00F18A0EEE6A66
:1058EC00E806FDE100EEE5F01A0EEE6AE806FDE1D1
:1058FC0000EE3AF0120EEE6AE806FDE1080ED56EE7
:10590C00000ED66E000ED76E000194EF2EF0CDAEC9
:10591C0092EF2CF094EF2CF09AEF2CF001C038F1B0
:10592C0002C039F1A7EF2CF001013851015C0001E4
:10593C00F56F0101395102580001F66FD890F6331A
:10594C00F5331200CDACADEF2CF0AFEF2CF0B5EF82
:10595C002CF005C036F106C037F1C2EF2CF0010176
:10596C003651055C0001F36F0101375106580001F7
:10597C00F46FD890F433F333120014C016F015C042
:10598C0017F0D89017321632D890173216321650AC
:10599C00696E14C016F0030E1616060E176ED8900C
:1059AC001636172ED5EF2CF01650686E120014C058
:1059BC0016F015C017F0D89017321632D89017324F
:1059CC00163216506D6E14C016F0030E1616060E17
:1059DC00176ED8901636172EEFEF2CF016506C6E03
:1059EC00120014C016F015C017F0D89017321632EA
:1059FC00D890173216321650616E14C016F0030E82
:105A0C001616060E176ED8901636172E09EF2DF0B7
:105A1C001650606E120014C016F015C017F0D89016
:105A2C0017321632D890173216321650656E14C0D3
:105A3C0016F0030E1616060E176ED8901636172E85
:0A5A4C0023EF2DF01650646E1200D7
:105A58003901A9936F00D0FD03F06F00D4FD04F065
:105A680003C001F004C002F002D845EF2DF0050094
:105A7800FA6E01019451FD6E9551FE6EFF6AFA505F
:105A8800120011003901AA916F00C0FD07F06F00E4
:105A9800C4FD08F007C005F008C006F002D85FEFA3
:105AA8002DF00500FA6E01019251FD6E9351FE6EC4
:105AB800FF6AFA5012001100186E600063F0F1FEE0
:105AC8003E01F88FF89DF881F8B16DEF2DF06FEF7A
:105AD8002DF068EF2DF0F051176E166AEF5116246D
:0A5AE800146E000E1720156E120058
:105AF4003901A89F01018E518F11D8B484EF2DF084
:105B040086EF2DF092EF2DF002D892EF2DF00500E4
:105B1400FA6E8E51FD6E8F51FE6EFF6AFA501200BE
:105B24001100800E3F011E6F420E1F6F000E206F8A
:105B3400040E216F000E236F000E226F010E1D6FE5
:105B44001C691B693901918B918F918D3F011F8FC6
:105B54001200830E726E000E736E000E716E000ED4
:105B6400706E500E146E590E156E2CEC2FF03F0112
:105B74005E513F0B80095E6F3901AA919A81120030
:105B8400830E766E000E776E000E756E000E746EC8
:105B94001A0E146E590E156E31EC2FF03F015E5142
:105BA400CF0B20095E6F3901A9939983120001017B
:105BB4008A518B11D8B4E1EF2DF0E3EF2DF0EFEF24
:105BC4002DF002D8EFEF2DF00500FA6E8A51FD6E2C
:105BD4008B51FE6EFF6AFA5012001200010EA26E83
:105BE400000EA16E000EA36EF90E9F6E000E9E6E47
:105BF4003901A7919781800E146E5E0E156E27EC05
:105C04002FF0E00EA06E1200000E3C01616F030E37
:105C1400626F020E636F000E646F000E656F020EFA
:105C2400666F080E676F000E686F000E696F850E51
:105C3400606F1200080E4524D96EDA6A010EDA226A
:105C44006F00A3F7DFFF452A070E45642CEF2EF003
:105C54002EEF2EF030EF2EF0000E456E432A120088
:105C64009AA437EF2EF039EF2EF042EF2EF09A90EF
:105C74000A50996E600027F098FF9A8047EF2EF043
:105C84000A50996E600027F098FF1200A80E0101D7
:105C9400AC6F010EAD6F000EA06F000EA16FA6C118
:105CA400A2F1A7C1A3F1AC0EA46F010EA56F68EC1D
:105CB40029F012003901A19B000E486E000E496EB6
:105CC400000E4A6E000E4B6E000E0101246F000E92
:105CD400256F000E266F000E276F1100000E39018C
:105CE400C06F000EC16F000EC26F000EC36F000EB6
:105CF400C46F000EC56F000EC66F000EC76F120092
:105D04009A826F0060FE10F06F0064FE0FF00F5077
:105D14000B6E10500D6E0BC00EF00DC009F00EC0CE
:105D24000AF01200B2EC2AF0D28ED28C6C0E146EF1
:105D34005E0E156E27EC2FF0FDEC21F09EEF2EF099
:105D440057EF00F082EC2EF009C0FDF00AC0FEF01F
:105D54000001D890FE33FD33FDEC2EF03901A89FED
:105D64001200050EAE6E000EAD6E000EAF6EAB6887
:105D7400000EAA6E3901A495B00EAC6E1200800E0E
:105D8400626E000E616E000E606E3F015F513F0B4C
:105D940080095F6F1200800E666E000E656E000E45
:105DA400646E3F015F51CF0B20095F6F1200800EBC
:105DB4006A6E590E696E400E686E3F015F51F30BB7
:105DC40004095F6F1200800E6E6E590E6D6E400EE8
:105DD4006C6E3F015F51FC0B01095F6F1200600E96
:105DE4003901D96F000EDB6F000EDD6F080EDF6F17
:105DF400000EDE6F120090C109F091C10AF032EC7E
:105E04002EF01200156E155005EC2AF0120014C085
:105E14009CF115C09DF1120014C09EF115C09FF1B4
:105E2400120014C098F115C099F1120014C09AF12F
:105E340015C09BF1120014C096F115C097F1120021
:105E440014C08EF115C08FF1120014C08AF115C070
:105E54008BF1120014C092F115C093F1120014C01A
:105E640094F115C095F112000001FA2B3E4A3F2A25
:0E5E740012001CEC2EF01200120012001200A0
:025E840011000B
:020000040020DA
:10000000FF0FFF0FFF0FFF0FFF0FFF0FFF0FFF0F80
:020000040030CA
:0A0000008CFFFFFF9FFFFFFFFFFFD3
:00000001FF
