:0400000057EF00F0C6
:100008000D100D100D100D100D100D100D100D1000
:100018000D100D100D100D100D10920F4D0E9E0DA0
:100028000D100D100D100D100D100D100D100D10E0
:100038000D100D100D10C70DB30D0D100D100D1076
:100048000D100D100D100D102B000D100D100D10B2
:100058000D100D100D100D100D100D100D100D10B0
:100068000D100D100D100D100D100D100D100D10A0
:10007800DB0D0D102B000D100D100D102B002B009B
:100088002B002B002B002B002B002B000D10720EC9
:100098000D10020E0D100D102B002B002B002B0045
:0A00A800150E0D10FF00A3EF1DF070
:10100000004F7574207C20644C3D202564207C209A
:1010100064523D202564002020204375727665527D
:10102000696768740020202043757276654C656698
:101030007400416674657243757276650A004256A3
:101040006F6C743A2025640A00646973744C3D2007
:1010500025640A0064697374523D2025640A004FB8
:10106000757443757276650A00496E4375727665CC
:031070000A000073
:1010740000018A51800B936F8A518A25956F89AF3D
:1010840046EF08F048EF08F049EF08F095819551D4
:10109400D8B44FEF08F051EF08F066EF08F0952947
:1010A400D8A457EF08F059EF08F061EF08F0000EEC
:1010B400876F000E886F000E896F000E8A6F898F0C
:1010C400000E8A6F6EEF08F0000E876F000E886FB7
:1010D400000E896F000E8A6F8E51800B946F9351AE
:1010E4009419D8B478EF08F07AEF08F07BEF08F0A1
:1010F400938D8E518E25946F8DAF83EF08F085EF1D
:1011040008F086EF08F094819451D8B48CEF08F07D
:101114008EEF08F0A3EF08F09429D8A494EF08F018
:1011240096EF08F09EEF08F0000E8B6F000E8C6FA8
:10113400000E8D6F000E8E6F8D8F000E8E6FABEFD5
:1011440008F0000E8B6F000E8C6F000E8D6F000E7A
:101154008E6F9551945DD8B0B2EF08F0B4EF08F0FB
:10116400DBEF08F093ADB9EF08F0BBEF08F0BDEF8B
:1011740008F0800E931B95C096F094C095F096C02D
:1011840094F087C096F08BC087F096C08BF088C02F
:1011940096F08CC088F096C08CF089C096F08DC013
:1011A40089F096C08DF08AC096F08EC08AF096C001
:1011B4008EF0000E966F955194C08FF0906B8F5FF8
:1011C400000E905B90BFF0EF08F0905109E11A0E09
:1011D4008F5DD8A0F0EF08F0F2EF08F029EF09F0E6
:1011E4008751881189118A11D8A4FBEF08F0FEEF0A
:1011F40008F0010EFFEF08F0000E966F000E876FE7
:10120400000E886F000E896F000E8A6F94C095F0EF
:1012140032EF09F096A111EF09F013EF09F019EF7D
:1012240009F0D89096310109966F1BEF09F0D89018
:10123400963387A120EF09F022EF09F023EF09F09C
:10124400968F8A358A33893388338733952B945123
:10125400955DD8A030EF09F032EF09F00CEF09F0FA
:1012640093BD37EF09F039EF09F079EF09F09551A3
:10127400D8A43FEF09F041EF09F04BEF09F0000E5D
:10128400876F000E886F000E896F000E8A6F9AEFC9
:101294000AF08B5187278C5188238D5189238E51D5
:1012A4008A238AA158EF09F05AEF09F006EF0AF0F1
:1012B40096A15FEF09F061EF09F067EF09F0D890AC
:1012C40096310109966F69EF09F0D890963387A19A
:1012D4006EEF09F070EF09F071EF09F0968F8A351F
:1012E4008A33893388338733952B06EF0AF08B5181
:1012F400875D8C5188598D5189598A51800A8F6F25
:101304008E51800A8F59D8B08AEF09F08CEF09F01A
:10131400B7EF09F087518B5D8F6F88518C59906FAF
:1013240089518D59916F8A518E59926FFF0E8F2575
:10133400876FFF0E9021886FFF0E9121896FFF0E3A
:1013440092218A6F800E931B966D9651D8A4ADEFAF
:1013540009F0AFEF09F0BFEF09F0010E8727000E87
:10136400882389238A23BFEF09F08B51875F8C512F
:10137400885B8D51895B8E518A5B875188118911F5
:101384008A11D8A4C8EF09F0CAEF09F0FFEF09F0F9
:101394009651D8A4D0EF09F0D2EF09F0FFEF09F08D
:1013A400000E876F000E886F000E896F000E8A6F23
:1013B4009AEF0AF0D8908737883789378A3796AFFB
:1013C400E6EF09F0E8EF09F0E9EF09F0878196A16B
:1013D400EEEF09F0F0EF09F0F4EF09F0D88096375A
:1013E400F6EF09F0D89096379551D8B4FCEF09F090
:1013F400FEEF09F0FFEF09F0950789AF04EF0AF05B
:1014040006EF0AF0DCEF09F0000E946F96AF0DEFD3
:101414000AF00FEF0AF027EF0AF096C08FF07F0E64
:101424008F17D8B418EF0AF01AEF0AF01EEF0AF07B
:10143400010E946F27EF0AF087A123EF0AF025EF3E
:101444000AF027EF0AF01AEF0AF09451D8B42DEFFE
:101454000AF02FEF0AF05AEF0AF0010E8727000E68
:10146400882389238A238AA13AEF0AF03CEF0AF001
:101474005AEF0AF087C08FF088C090F089C091F0CD
:101484008AC092F092359233913390338F338FC068
:1014940087F090C088F091C089F092C08AF09529B5
:1014A400D8B457EF0AF059EF0AF05AEF0AF0952B27
:1014B4009529D8B460EF0AF062EF0AF06AEF0AF0F7
:1014C4009551D8A468EF0AF06AEF0AF07CEF0AF0AD
:1014D400000E876F000E886F000E896F000E8A6FF2
:1014E4009551D8A478EF0AF07AEF0AF07CEF0AF06D
:1014F400000E936F95A181EF0AF083EF0AF086EF57
:101504000AF0898F87EF0AF0899FD89095318A6F06
:1015140093AF8FEF0AF091EF0AF092EF0AF08A8FFF
:1015240087C087F088C088F089C089F08AC08AF0B3
:10153400120000017151800B7A6F71517125806F17
:1015440070AFA7EF0AF0A9EF0AF0AAEF0AF08081C2
:101554008051D8B4B0EF0AF0B2EF0AF0C5EF0AF048
:101564008029D8A4B8EF0AF0BAEF0AF0C2EF0AF063
:10157400000E6E6F000E6F6F000E706F000E716FB5
:10158400708FCDEF0AF0000E6E6F000E6F6F000EBD
:10159400706F000E716F7551800B7A1B7551752534
:1015A4007B6F74AFD8EF0AF0DAEF0AF0DBEF0AF0E2
:1015B4007B817B51D8B4E1EF0AF0E3EF0AF0F6EF58
:1015C4000AF07B29D8A4E9EF0AF0EBEF0AF0F3EF75
:1015D4000AF0000E726F000E736F000E746F000E2F
:1015E400756F748FFEEF0AF0000E726F000E736F4A
:1015F400000E746F000E756F7B51D8B404EF0BF0BE
:1016040006EF0BF00EEF0BF08051D8A40CEF0BF0AB
:101614000EEF0BF018EF0BF0000E6E6F000E6F6FF5
:10162400000E706F000E716FC2EF0CF074516E03F8
:101634006F00CCFF85F06F00D0FF86F085517C6F82
:101644007D6B7E6B7F6B8651816F826B836B846B4A
:1016540073516F036F00CCFF85F06F00D0FF86F0ED
:1016640085517C27000E7D237E237F23865181278D
:10167400000E822383238423725170036F00CCFFF6
:1016840085F06F00D0FF86F085517C27000E7D2306
:101694007E237F2386518127000E82238323842384
:1016A4007EC07FF07DC07EF07CC07DF07C6B72518B
:1016B4006F036F00CCFF85F06F00D0FF86F085517B
:1016C4007C2786517D23000E7E23000E7F237351D9
:1016D4006E036F00CCFF85F06F00D0FF86F085515C
:1016E4007C2786517D23000E7E23000E7F237EC03F
:1016F4007FF07DC07EF07CC07DF07C6B72516E0308
:101704006F00CCFF85F06F00D0FF86F085517C27F9
:1017140086517D23000E7E23000E7F2374516F03B8
:101724006F00CCFF85F06F00D0FF86F085518127D4
:1017340086518223000E8323000E84237351700389
:101744006F00CCFF85F06F00D0FF86F085518127B4
:1017540086518223000E8323000E84237451700368
:101764006F00CCFF85F06F00D0FF86F08551766F57
:101774008651776F786B796B78C079F077C078F0A1
:1017840076C077F0766B7651812777518223785132
:101794008323795184237CC076F07DC077F07EC0AA
:1017A40078F07FC079F0190EDDEF0BF0D890793323
:1017B400783377337633E82ED8EF0BF076518127E0
:1017C4007751822378518323795184237EC07FF01B
:1017D4007DC07EF07CC07DF07C6B7B5180C076F058
:1017E400776B7627000E7723820E7625856FFF0EA2
:1017F4007721866F13EF0CF0D890813782378337C7
:1018040084377FAF08EF0CF00AEF0CF00BEF0CF00D
:101814008181D8907C377D377E377F378507D8A084
:10182400860783AF18EF0CF01AEF0CF0FEEF0BF005
:10183400000E7B6F7FAF21EF0CF023EF0CF047EF2E
:101844000CF0FF0E7C15766FFF0E7D15776FFF0E83
:101854007E15786F7F0E7F15796F76517711781129
:101864007911D8B438EF0CF03AEF0CF03EEF0CF0ED
:10187400010E7B6F47EF0CF081A143EF0CF045EFB5
:101884000CF047EF0CF03AEF0CF07B51D8B44DEF6D
:101894000CF04FEF0CF073EF0CF0010E8127000EEB
:1018A40082238323842384A15AEF0CF05CEF0CF091
:1018B40073EF0CF081C076F082C077F083C078F0CB
:1018C40084C079F07935793378337733763376C0D9
:1018D40081F077C082F078C083F079C084F0854BC2
:1018E400862B86BF7EEF0CF0865108E18529D8A0AF
:1018F4007EEF0CF080EF0CF08AEF0CF0000E816F9D
:10190400000E826F800E836F7F0E846FB8EF0CF031
:1019140086BF97EF0CF0865106E18505D8B095EFA8
:101924000CF097EF0CF0A3EF0CF0000E816F000E9B
:10193400826F000E836F000E846F000E7A6FB8EF13
:101944000CF085C080F0FF0E8117FF0E82177F0E0A
:101954008317000E841780A1B2EF0CF0B4EF0CF0E3
:10196400B5EF0CF0838FD8908031846F7A51841353
:1019740081C06EF082C06FF083C070F084C071F0DB
:1019840012007CC094F07DC095F07EC096F07FC0BC
:1019940097F080C098F081C099F082C09AF083C01B
:1019A4009BF000019BBFD9EF0CF0DCEF0CF0010EB3
:1019B400DDEF0CF0000E926F936B92519311D8B43B
:1019C400E6EF0CF0E8EF0CF0F8EF0CF09B1F9A1F19
:1019D400991F981F971F961F951F946D000E9523AE
:1019E40096239723982399239A239B23D9BFFDEF0A
:1019F4000CF0FFEF0CF000EF0DF02392D9BF0DEFC8
:101A04000DF0D95106E1D805D8B00BEF0DF00DEF6C
:101A14000DF013EF0DF0000E8F6F010E8E6F17EFA8
:101A24000DF0D8C08EF0D9C08FF0D6C090F0D7C0DA
:101A340091F092519311D8A422EF0DF024EF0DF000
:101A44002BEF0DF023A429EF0DF02BEF0DF02EEF6B
:101A54000DF09007D8A09107000E9D6F1F0E9C6F8C
:101A6400000E01011F6FB4EF0DF09C07D8A09D0775
:101A7400000E9C25D96E010E9D21DA6E94C060F093
:101A840095C061F096C062F097C063F098C064F0AE
:101A940099C065F09AC066F09BC067F00A0E686F43
:101AA400000E696F000E6A6F000E6B6F000E6C6F94
:101AB400000E6D6F000E6E6F000E6F6FDCEC13F096
:101AC40060C084F061C085F062C086F063C087F0B6
:101AD40064C088F065C089F066C08AF067C08BF086
:101AE40084C070F086C071F02AEC1DF000017051C2
:101AF400300FDF6E8E07D8A08F079007D8A091070C
:101B040094C060F095C061F096C062F097C063F035
:101B140098C064F099C065F09AC066F09BC067F005
:101B24000A0E686F000E696F000E6A6F000E6B6F0D
:101B3400000E6C6F000E6D6F000E6E6F000E6F6FF7
:101B440017EC13F060C094F061C095F062C096F099
:101B540063C097F064C098F065C099F066C09AF0CD
:101B640067C09BF000019DBFC0EF0DF09D5108E1DF
:101B74009C05D8A0C0EF0DF0C2EF0DF0F2EF0DF010
:101B84009451951196119711981199119A119B11CD
:101B9400D8A4CFEF0DF0D1EF0DF037EF0DF08FBFDC
:101BA400DEEF0DF08F5106E18E05D8B0DCEF0DF0BD
:101BB400DEEF0DF037EF0DF091BFE9EF0DF091512D
:101BC40008E19005D8A0E9EF0DF0EBEF0DF0F2EF8E
:101BD4000DF023B2F0EF0DF0F2EF0DF037EF0DF052
:101BE40092519311D8A4F9EF0DF0FBEF0DF002EF31
:101BF4000EF023A400EF0EF002EF0EF021EF0EF032
:101C04009C07D8A09D0792519311D8A40CEF0EF015
:101C14000EEF0EF014EF0EF0000E8D6F2B0E8C6F86
:101C240018EF0EF0000E8D6F2D0E8C6F000E9C259C
:101C3400D96E010E9D21DA6E600033F2DFFF7AC0A7
:101C440070F07BC071F0000E9C25726F010E9D2117
:101C5400736F90C074F091C075F01FEC18F070C0F1
:101C64007AF071C07BF012002EEF0FF00001E45106
:101C7400E85D01012C6F0001E551E95901012D6F67
:101C84000001E251E65D01012E6F0001E351E759C5
:101C940001012F6F2DBF58EF0EF02D5109E1330EC6
:101CA4002C5DD8A058EF0EF05AEF0EF079EF0EF03D
:101CB400000E0001EA6F010EEC6F030EED6F010ED2
:101CC4000101226F100E236F2CC124F12DC125F1C7
:101CD4002EC126F12FC127F10FEC1FF0250E0101B3
:101CE400226F100E236F0FEC1FF04DEF0FF02FBF7C
:101CF40085EF0EF02F5109E1330E2E5DD8A085EF4C
:101D04000EF087EF0EF04DEF0FF0000E0001EA6FBA
:101D1400010EEC6F040EED6F010E0101226F100E27
:101D2400236F2CC124F12DC125F12EC126F12FC121
:101D340027F10FEC1FF0170E0101226F100E236F15
:101D44000FEC1FF04DEF0FF04B0E0001EA65ADEF05
:101D54000EF0AFEF0EF0BCEF0EF0000EEA6F020EC5
:101D6400EC6F690E0101226F100E236F0FEC1FF050
:101D74004DEF0FF0EA2B4DEF0FF0320E0001EA6544
:101D8400C6EF0EF0C8EF0EF0BCEF0EF0030EED1927
:101D9400D8A4CFEF0EF0D1EF0EF0DEEF0EF0490E27
:101DA4000101226F100E236FE8C024F1E9C025F170
:101DB4000FEC1FF0F2EF0EF0030EED19D8A4E5EFCF
:101DC4000EF0E7EF0EF0F2EF0EF0540E0101226F69
:101DD400100E236FE6C024F1E7C025F10FEC1FF0CD
:101DE4000001E95109E1280EE85DD8A0FCEF0EF0EE
:101DF400FEEF0EF009EF0FF0E75107E1280EE65D64
:101E0400D8B007EF0FF009EF0FF04DEF0FF0000E11
:101E1400EA6F030EEC6F000EED6F320E0101226FBC
:101E2400100E236F0FEC1FF04DEF0FF0640E000146
:101E3400EA651FEF0FF021EF0FF0BCEF0EF0000E7C
:101E4400EA6F000EEC6F5F0E0101226F100E236F1C
:101E54000FEC1FF04DEF0FF00001EC5101012A6F60
:101E64002B6B2B51000AD8B43AEF0FF04DEF0FF063
:101E74002A51000AD8B438EF0EF0010AD8B4A6EFFC
:101E84000EF0030AD8B4BFEF0EF0010AD8B418EF6D
:101E94000FF04DEF0FF0E8C0E4F0E9C0E5F0E6C064
:101EA400E2F0E7C0E3F01200600083F2D9FF6000C3
:101EB40087F2DAFF6F007BFFF6FF6F0077FFF7FF13
:101EC400F86A0800F550250AD8A46BEF0FF06DEFFF
:101ED4000FF039EF10F0600083F2D9FF600087F251
:101EE400DAFFDE2A000EDD22000E0001D76F000E9D
:101EF400D66FD6C023F0D7C024F0D869D969600062
:101F040083F2D9FF600087F2DAFF6F007BFFF6FFF0
:101F14006F0077FFF7FFF86A0800F550640AD8B439
:101F240096EF0FF098EF0FF0AFEF0FF0600083F231
:101F3400D9FF600087F2DAFF6F007BFFF6FF6F00C6
:101F440077FFF7FFF86A0800F550690AD8A4ADEFE7
:101F54000FF0AFEF0FF0F9EF0FF0600083F2D9FF4D
:101F6400600087F2DAFFDE2A000EDD2260008BF2C9
:101F7400D9FF60008FF2DAFF6F007CFFA4F0020E3D
:101F8400DE266F007CFFA5F0000EDD22600093F2D8
:101F9400D9FF600097F2DAFF6F0078FFA6F06F00B8
:101FA40074FFA7F0000EA7BFFF0EA86FA96FAA6F5A
:101FB400AB6FAC6FAD6F9EC07AF09FC07BF0A6C0D4
:101FC4007CF0A7C07DF0A8C07EF0A9C07FF0AAC0B5
:101FD40080F0ABC081F0ACC082F0ADC083F0C3EC44
:101FE4000CF07AC09EF07BC09FF05CEF10F06000B4
:101FF40083F2D9FF600087F2DAFF6F007BFFF6FF00
:102004006F0077FFF7FFF86A0800F550250AD8A497
:102014000EEF10F010EF10F02AEF10F0600083F2D2
:10202400D9FF600087F2DAFFDE2A000EDD22000EFF
:10203400616F250E606F9EC062F09FC063F0E5EC97
:1020440019F0000E00019F6F010E9E6F5CEF10F0FF
:10205400600083F2D9FF600087F2DAFFDE2A000E07
:10206400DD22000E9F6F000E9E6F5CEF10F060008B
:1020740083F2D9FF600087F2DAFF6F007BFFF6FF7F
:102084006F0077FFF7FFF86A0800F5500001606FF2
:10209400616B9EC062F09FC063F0E5EC19F06000D4
:1020A40083F2D9FF600087F2DAFFDE2A000EDD2218
:1020B40023EF10F01200000E00016E6F000E6D6F22
:1020C400000E706F000E6F6FCCEF10F068C06BF0F5
:1020D40069C06CF06B1F6C1F6B4B6C2B6BC06DF08D
:1020E4006CC06EF068C06FF069C070F0EDEF10F076
:1020F40068C06BF069C06CF06B1F6C1F6B4B6C2B72
:102104006BC06DF06CC06EF068C06BF069C06CF0B1
:102114006B1F6C1F6B4B6C2B6BC06FF06CC070F043
:10212400EDEF10F068C06BF069C06CF06B1F6C1FB2
:102134006B4B6C2B6BC06DF06CC06EF068C060F0C4
:1021440069C061F0000E636F030E626F83EC18F0D8
:1021540060C06FF061C070F0EDEF10F068C06BF01C
:1021640069C06CF06B1F6C1F6B4B6C2B6BC06DF0FC
:102174006CC06EF0EDEF10F068C06BF069C06CF0ED
:102184006B1F6C1F6B4B6C2B6BC06FF06CC070F0D3
:10219400EDEF10F06A516B6F6C6B6C51000AD8B4A0
:1021A400D6EF10F0EDEF10F06B51000AD8B468EFE1
:1021B40010F0010AD8B47AEF10F0030AD8B494EFFF
:1021C40010F0010AD8B4B0EF10F0070AD8B4BEEF8B
:1021D40010F0EDEF10F000016EBFFAEF10F06E5149
:1021E40009E1420E6D5DD8A0FAEF10F0FCEF10F09B
:1021F40002EF11F0000E6E6F410E6D6F14EF11F0CF
:102204006EAF0EEF11F0BF0E6D5DFF0E6E59D8B0BC
:102214000EEF11F010EF11F014EF11F0FF0E6E6FCE
:10222400BF0E6D6F70BF20EF11F0705109E12E0EDB
:102234006F5DD8A020EF11F022EF11F028EF11F01C
:10224400000E706F2D0E6F6F3AEF11F070AF34EF18
:1022540011F0D30E6F5DFF0E7059D8B034EF11F04A
:1022640036EF11F03AEF11F0FF0E706FD30E6F6F6F
:102274006D516008206E6E51D8A0E82A0108216EC5
:10228400BEEC1DF000016F516508206E7051D8A09E
:10229400E82A0108216ED9EC1DF01200000E00019D
:1022A400A26F000EA16FF0EF11F0EF5109E1290EBA
:1022B400EE5DD8A060EF11F062EF11F064EF11F061
:1022C400000EED6FEF5107E1280EEE5DD8B06DEF13
:1022D40011F06FEF11F085EF11F0E1BF7AEF11F01B
:1022E400E15108E1E005D8A07AEF11F07CEF11F09C
:1022F40085EF11F0E0C0A1F0E1C0A2F0A107D8A0E1
:10230400A20711EF12F0EF5107E1140EEE5DD8B001
:102314008EEF11F090EF11F011EF12F0E0C0A1F088
:10232400E1C0A2F0FE0EA127FF0EA22311EF12F0CE
:10233400EF5107E1280EEE5DD8B0A3EF11F0A5EF41
:1023440011F0A7EF11F0010EED6F000E8B6F000E70
:102354008C6F160E8D6F430E8E6FCD0E726FCC0E7A
:10236400736F4C0E746F3F0E756FEEC060F0EFC06C
:1023740061F0626B636B000E3BEC12F060C06EF0B8
:1023840061C06FF062C070F063C071F09BEC0AF042
:102394006EC087F06FC088F070C089F071C08AF099
:1023A4003AEC08F087C097F088C098F089C099F09B
:1023B4008AC09AF041EC16F097C0A1F098C0A2F040
:1023C40011EF12F0FF0EA26F6A0EA16F11EF12F05F
:1023D400000EA26F960EA16F11EF12F0ED519F6FD8
:1023E400A06BA051000AD8B4FAEF11F011EF12F06B
:1023F4009F51000AD8B49AEF11F0010AD8B457EFEC
:1024040011F0030AD8B4E4EF11F0010AD8B4EAEFEA
:1024140011F0070AD8B4EAEF11F011EF12F000013D
:10242400A2BF1EEF12F0910EA15D010EA259D8A019
:102434001EEF12F020EF12F024EF12F0010EA26F43
:10244400900EA16FA2AF30EF12F0060EA15DFF0E49
:10245400A259D8B030EF12F032EF12F036EF12F08A
:10246400FF0EA26F060EA16FA1C0E0F0A2C0E1F0C2
:1024740012000001686F00016851D8B444EF12F0F3
:1024840046EF12F068EF12F063BF4DEF12F04BEF1E
:1024940012F068EF12F060C064F061C065F062C0D1
:1024A40066F063C067F0641F651F661F671F642BB7
:1024B400000E65236623672364C06AF065C06BF071
:1024C40066C06CF067C06DF070EF12F060C06AF027
:1024D40061C06BF062C06CF063C06DF0605161115B
:1024E40062116311D8A479EF12F07BEF12F085EF3B
:1024F40012F0000E606F000E616F000E626F000E2E
:10250400636F16EF13F0960E696F8FEF12F0692B5D
:10251400D8906D336C336B336A33000E6A15646F75
:10252400000E6B15656F000E6C15666FFE0E6D1553
:10253400676F6451651166116711D8A4A4EF12F096
:10254400A6EF12F089EF12F0B4EF12F0692B010E2E
:102554006A27000E6B236C236D23D8906D336C3384
:102564006B336A33000E6A15646F000E6B15656F6A
:10257400000E6C15666FFF0E6D15676F6451651163
:1025840066116711D8A4C9EF12F0CBEF12F0A8EFCF
:1025940012F0D3EF12F06907D8906A376B376C37B3
:1025A4006D376CBFD8EF12F0DAEF12F0E2EF12F0F1
:1025B400020E6961E0EF12F0E2EF12F0CDEF12F0DB
:1025C40069B1E7EF12F0E9EF12F0EAEF12F06C9F55
:1025D400D890693369C064F0656B666B676B64C0DF
:1025E40067F0666B656B646B64516A1365516B13BA
:1025F40066516C1367516D136851D8B404EF13F02E
:1026040006EF13F00EEF13F063BF0DEF13F00BEFB3
:1026140013F00EEF13F06D8F6AC060F06BC061F0C1
:102624006CC062F06DC063F01200000E0001716FA7
:102634006FBF21EF13F01FEF13F033EF13F06F1F91
:102644006E1F6D1F6C1F6B1F6A1F691F686D000E64
:1026540069236A236B236C236D236E236F23010E7E
:10266400716F67BF3AEF13F038EF13F04CEF13F0CC
:10267400671F661F651F641F631F621F611F606DF4
:10268400000E612362236323642365236623672387
:10269400010E711B20EE72F0070EDE6AE806FDE201
:1026A400685169116A116B116C116D116E116F1102
:1026B400D8B45FEF13F061EF13F0B3EF13F0010E32
:1026C400706F6FEF13F0D890683769376A376B37DC
:1026D4006C376D376E376F37702B6FAF74EF13F045
:1026E40076EF13F065EF13F0D890723773377437C1
:1026F400753776377737783779376851605D695140
:1027040061596A5162596B5163596C5164596D51E5
:1027140065596E5166596F516759D8A094EF13F0FB
:1027240096EF13F0A7EF13F06851605F6951615B96
:102734006A51625B6B51635B6C51645B6D51655BA9
:102744006E51665B6F51675B7281D8906F336E33E5
:102754006D336C336B336A3369336833702F76EFC0
:1027640013F07151D8B4B9EF13F0BBEF13F0CBEF02
:1027740013F0791F781F771F761F751F741F731F3F
:10278400726D000E732374237523762377237823C5
:10279400792372C060F073C061F074C062F075C0D8
:1027A40063F076C064F077C065F078C066F079C0F5
:1027B40067F01200000E216E000167BFE6EF13F010
:1027C400E4EF13F0F8EF13F0671F661F651F641F33
:1027D400631F621F611F606D000E61236223632308
:1027E4006423652366236723010E216E6FBFFFEF09
:1027F40013F0FDEF13F00FEF14F06F1F6E1F6D1F3A
:102804006C1F6B1F6A1F691F686D000E69236A23A2
:102814006B236C236D236E236F23685169116A1136
:102824006B116C116D116E116F11D8B41CEF14F093
:102834001EEF14F066EF14F0010E206E2CEF14F06E
:10284400D890683769376A376B376C376D376E37AE
:102854006F37202A6FAF31EF14F033EF14F022EF0B
:1028640014F06851605D695161596A5162596B5144
:1028740063596C5164596D5165596E5166596F5164
:102884006759D8A048EF14F04AEF14F05AEF14F047
:102894006851605F6951615B6A51625B6B51635B54
:1028A4006C51645B6D51655B6E51665B6F51675B28
:1028B400D8906F336E336D336C336B336A33693353
:1028C4006833202E33EF14F02150D8B46CEF14F099
:1028D4006EEF14F07EEF14F0671F661F651F641F10
:1028E400631F621F611F606D000E612362236323F7
:1028F400642365236623672360C060F061C061F0D0
:1029040062C062F063C063F064C064F065C065F0E7
:1029140066C066F067C067F012000001DE51E05D3A
:10292400A16FDF51E159A26FDC51DE5DA36FDD5170
:10293400DF59A46F98EC19F020C0DEF021C0DFF05D
:10294400CD0E0001726FCC0E736FCC0E746F3C0E03
:10295400756FA351A15D9F6FA451A259A06F9FC031
:1029640060F0A0C061F0000E61BFFF0E626F636F84
:10297400010E3BEC12F060C06EF061C06FF062C0FB
:1029840070F063C071F09BEC0AF06EC097F06FC0FA
:1029940098F070C099F071C09AF041EC16F0000103
:1029A4009751A56FA551800A7D0FD8A0DCEF14F0D4
:1029B400DEEF14F0E2EF14F0020EA56FEEEF14F068
:1029C400A551800A820FD8B0EAEF14F0ECEF14F0AE
:1029D400EEEF14F0FE0EA56FDA51A525DA6F000EA6
:1029E400A5BFFF0EDB21DB6FDBBF02EF15F0590E35
:1029F400DA5D020EDB59D8A002EF15F004EF15F0F2
:102A04000AEF15F0020EDB6F580EDA6F1CEF15F0AB
:102A1400DBAF16EF15F0D40EDA5DFE0EDB59D8B03D
:102A240016EF15F018EF15F01CEF15F0FE0EDB6F26
:102A3400D40EDA6FDAC062F0DBC063F048EC17F052
:102A4400DEC0DCF0DFC0DDF012000001E651E85D1D
:102A5400736FE751E959746F73C060F074C061F02B
:102A6400000E636F020E626F83EC18F060C073F0A7
:102A740061C074F097EF15F073C068F074C069F02A
:102A8400020E6A6F5DEC10F0B9EF15F073C068F0D8
:102A940074C069F0030E6A6F5DEC10F0B9EF15F0C5
:102AA400E651E85DE751E959D8B05BEF15F05DEF09
:102AB40015F067EF15F0FF0E696FBF0E686F030E18
:102AC4006A6F5DEC10F0B9EF15F0000E696F410EFE
:102AD400686F030E6A6F5DEC10F0B9EF15F0020E2B
:102AE400EC19D8A478EF15F07AEF15F048EF15F04B
:102AF400000E696F410E686F020E6A6F5DEC10F094
:102B0400B9EF15F0020EEC19D8A48BEF15F08DEF88
:102B140015F048EF15F0FF0E696FBF0E686F020ED7
:102B24006A6F5DEC10F0B9EF15F00001ED51716FB3
:102B3400726B7251000AD8B4A2EF15F0B9EF15F018
:102B44007151000AD8B448EF15F0010AD8B43EEF29
:102B540015F0030AD8B452EF15F0010AD8B471EF96
:102B640015F0070AD8B484EF15F0B9EF15F0120088
:102B7400000E0001696F67BFC4EF15F0C2EF15F0D6
:102B8400CEEF15F0671F661F651F646D000E652389
:102B940066236723010E696F63BFD5EF15F0D3EF8A
:102BA40015F0DFEF15F0631F621F611F606D000EEB
:102BB400612362236323010E691B000E6A6F000EFA
:102BC4006B6F000E6C6F000E6D6F645165116611B2
:102BD4006711D8B4F0EF15F0F2EF15F028EF16F006
:102BE400010E686FFCEF15F0D890643765376637CF
:102BF4006737682B67AF01EF16F003EF16F0F6EFB7
:102C040015F0D8906A376B376C376D376451605D57
:102C1400655161596651625967516359D8A015EFDE
:102C240016F017EF16F020EF16F06451605F65514F
:102C3400615B6651625B6751635B6A81D8906733FD
:102C4400663365336433682F03EF16F06951D8B4E3
:102C54002EEF16F030EF16F038EF16F06D1F6C1FE4
:102C64006B1F6A6D000E6B236C236D236AC060F0CA
:102C74006BC061F06CC062F06DC063F012000001C3
:102C840099359A35216E2150D8A44BEF16F04DEFAB
:102C940016F057EF16F0000E976F000E986F000EA7
:102CA400996F000E9A6FC4EF16F097C09BF098C00E
:102CB4009CF099C09DF09AC09EF0200E67EF16F02C
:102CC400D8909E339D339C339B33E82E62EF16F0ED
:102CD4009B51206E998FFF0E9717FF0E9817FF0ECA
:102CE4009917000E9A17960E215E21BE7EEF16F0FC
:102CF4007CEF16F094EF16F02150800A970FD8B0AD
:102D040086EF16F088EF16F08AEF16F04DEF16F006
:102D1400D8909A33993398339733213E8AEF16F03B
:102D2400ACEF16F01F0E21649AEF16F09CEF16F02C
:102D3400A4EF16F04DEF16F0D890973798379937DF
:102D44009A3721062150D8A4AAEF16F0ACEF16F05A
:102D54009EEF16F02050D8B4B2EF16F0B4EF16F090
:102D6400BCEF16F09A1F991F981F976D000E9823B9
:102D740099239A2397C097F098C098F099C099F036
:102D84009AC09AF01200000E00016E15766F000EC4
:102D94006F15776F800E7015786F7F0E7115796FD0
:102DA4007651771178117911D8A4DBEF16F0DDEFA5
:102DB40016F0E5EF16F0000E6E6F000E6F6F000E4A
:102DC400706F000E716F000E7215766F000E731522
:102DD400776F800E7415786F7F0E7515796F765145
:102DE400771178117911D8A4FAEF16F0FCEF16F0E8
:102DF40004EF17F0000E726F000E736F000E746F05
:102E0400000E756F71AF09EF17F00BEF17F014EFA9
:102E140017F06E6D6F1FD8B06F2B701FD8B0702B6A
:102E2400800E715775AF19EF17F01BEF17F024EFF1
:102E340017F0726D731FD8B0732B741FD8B0742B36
:102E4400800E7557000E6E1B000E6F1B000E701B5C
:102E5400800E711B000E721B000E731B000E741B80
:102E6400800E751B72516E5D73516F597451705998
:102E740075517159D8B041EF17F043EF17F046EF91
:102E840017F0D89047EF17F0D8801200000163BF05
:102E940055EF17F0635109E1020E625DD8A055EFBA
:102EA40017F057EF17F077EF17F063BF63EF17F0E2
:102EB400590E625D020E6359D8A063EF17F065EFF7
:102EC40017F069EF17F0020E636F580E626F62C05D
:102ED40020F063C021F00FEC1EF0000E216E000EF6
:102EE400206EF4EC1DF0B9EF17F063AF82EF17F02A
:102EF4006229FF0E6359D8B082EF17F084EF17F000
:102F0400ADEF17F063AF90EF17F0D40E625DFE0ED5
:102F14006359D8B090EF17F092EF17F096EF17F0CF
:102F2400FE0E636FD40E626F000E216E000E206ED3
:102F34000FEC1EF062C064F063C065F00001641F12
:102F4400651F644B652B64C020F065C021F0F4EC70
:102F54001DF0B9EF17F0000E216E000E206E0FEC7D
:102F64001EF0000E216E000E206EF4EC1DF0120017
:102F7400000EBE6E000EBD6E240EBA6E000EBB6E49
:102F8400000EBC6E070EC66EC00EC26EF70EC36E88
:102F9400C468C5681F0E3A01706F6069C00E506F37
:102FA400070E806F7F0E406F000E716F000E816FF1
:102FB400000E516F000E416F000E616F000E5A6FCC
:102FC400000E5B6F000E6A6F000E6B6F000E7A6F5F
:102FD400000E7B6F000E826F000E426F000E526F68
:102FE400000E626F000E726F4369536963697369FF
:102FF400070E836F44695469646974690F0E846FA2
:103004001F0ECF6F090EDC6F0E0E016F0A0EE56FF7
:103014000D0E006F1D0EC96F100E046F070ED96FD1
:10302400090ED16F0F0E036F130E0B6F080EDB6FBB
:10303400080ED26F1E0ED06F120023A024EF18F0DA
:1030440026EF18F030EF18F072C069F073C06AF020
:1030540070C06BF071C06CF0BFEC1CF0000175BF68
:1030640036EF18F038EF18F03EEF18F074C078F02F
:1030740075C079F042EF18F0000E796F000E786F8A
:10308400000E776F000E766F55EF18F0000E616F2B
:10309400200E606F70C062F071C063F0E5EC19F04F
:1030A4000001764B772B7851765D7751800A226E3A
:1030B4007951800A2258D8A062EF18F064EF18F012
:1030C40048EF18F023B069EF18F06BEF18F075EFC4
:1030D40018F072C069F073C06AF070C06BF071C010
:1030E4006CF0BFEC1CF072C020F073C021F04BEC0C
:1030F4001DF0000178512024706F79512120716FE7
:103104001200000E0001656F63BF8DEF18F08BEFA6
:1031140018F093EF18F0626D631FD8B0632B010EA3
:10312400656F61BF9AEF18F098EF18F0A0EF18F0F0
:10313400606D611FD8B0612B010E651B000E676FB7
:10314400000E666F62516311D8B4ABEF18F0ADEFA7
:1031540018F0D5EF18F0010E646FB5EF18F0D890A1
:1031640062376337642B63AFBAEF18F0BCEF18F023
:10317400B1EF18F0D890663767376251605D6351DC
:103184006159D8A0C8EF18F0CAEF18F0CFEF18F0C3
:103194006251605F6351615B6681D89063336233CF
:1031A400642FBCEF18F06551D8B4DBEF18F0DDEFF5
:1031B40018F0E1EF18F0666D671FD8B0672B66C092
:1031C40060F067C061F01200B40E3124D96EDA6A7F
:1031D400000EDA22000EDF6E3D01F9A7F4EF18F0BD
:1031E400F6EF18F00AEF19F0B40E3124D96EDA6A4A
:1031F400000EDA220001DF8202D80AEF19F005007E
:10320400FA6EFE51FD6EFF51FE6EFF6AFA50120017
:103214003D01F9A310EF19F012EF19F026EF19F0A0
:10322400B40E3124D96EDA6A000EDA220001DF848A
:1032340002D826EF19F00500FA6EFC51FD6EFD511F
:10324400FE6EFF6AFA501200B40E3124D96EDA6AA7
:10325400000EDA22DF50D8B432EF19F034EF19F04F
:1032640043EF19F002D841EF19F00500FA6E00019E
:10327400FA51FD6EFB51FE6EFF6AFA50120045EFE3
:1032840019F0E3EC1EF0120039019397CC0E206E76
:10329400310E216EE9EC1FF039019399100E206E66
:1032A4003A0E216EE4EC1FF0000E3D01EC6F000EAF
:1032B400ED6F000EEE6F000EEF6F000EF06F000E5C
:1032C400F16FB00EF26F800EF36F000EF46F8A0E82
:1032D400F56F000EF66F000EF76F000EF86F000E1C
:1032E400F96F000EFA6F300E206E400E216EF3EC73
:1032F4001FF02E0E206E400E216EEEEC1FF0220EFB
:10330400206E400E216EF8EC1FF0000E2E6E000EA3
:10331400336E000E326E080E406E000E316E000EDB
:10332400306E000E2F6E390193871200000E0001DB
:103334006F6F000E6E6F3450351036103710D8B4DE
:10334400A6EF19F0A8EF19F0E0EF19F03C0160AB1B
:10335400AEEF19F0B0EF19F0C9EF19F0200E00012B
:10336400606FA10E616F070E626F000E636F34C051
:1033740064F035C065F036C066F037C067F0BAEC6B
:1033840015F060C06EF061C06FF0E0EF19F0E00E70
:103394000001606F5E0E616FF80E626FFF0E636F67
:1033A40034C064F035C065F036C066F037C067F0ED
:1033B400BAEC15F060C06EF061C06FF06EC020F022
:1033C4006FC021F01200000162516311D8B4EDEF17
:1033D40019F0EFEF19F0F8EF19F062516311D8A466
:1033E400F6EF19F0F8EF19F0FDEF19F06051DFEC8A
:1033F4001FF030EF1AF020EE09F06251D926635124
:10340400DA22DE50DE10D8B40AEF1AF00CEF1AF00C
:1034140027EF1AF020EE09F06251D9266351DA221F
:1034240010EE03F06251E1266351E222DE50E65CC5
:10343400E650800A686FDE50800A6859D8B025EFDC
:103444001AF027EF1AF030EF1AF020EE03F0625171
:10345400D9266351DA22DE2A000EDD22120038EC6E
:103464001FF0F0C060F0F1C061F00001626B636BAB
:10347400000E3BEC12F060C06EF061C06FF062C0F1
:1034840070F063C071F09A0E0001726F990E736F41
:10349400190E746F450E756FC5EC16F00001D8A0B7
:1034A40056EF1AF058EF1AF031EF1AF0E8C0E4F0D2
:1034B400E9C0E5F0E6C0E2F0E7C0E3F00001EB515B
:1034C400D8B467EF1AF069EF1AF060EF1AF0000E43
:1034D400EB6F36EC0EF078EC1AF027EC15F050ECAC
:1034E40011F08FEC14F060EF1AF012000001EF51AC
:1034F40007E10A0EEE5DD8B082EF1AF084EF1AF0FD
:1035040087EF1AF02D2A92EF1AF0020EED19D8B4B3
:103514008EEF1AF090EF1AF092EF1AF0000E2D6E63
:10352400640E2D6498EF1AF09AEF1AF0ABEF1AF0CC
:10353400020EED6FEF5109E1330EEE5DD8A0A5EF59
:103544001AF0A7EF1AF0ABEF1AF0000EED6F000EB1
:103554002D6E1200B0C020F1B1C021F1000E0001A7
:10356400D56F000ED46FCAEF1AF0AEC09EF0AFC094
:103574009FF0200EA06F010EA16FB2C0A2F0B3C0E5
:10358400A3F056EC0FF000019E51D4279F51D52390
:10359400600083F4F6FF600087F4F7FFF86A080020
:1035A400F5500009D8A4D9EF1AF0DBEF1AF0B7EF01
:1035B4001AF0D4C0AEF0D5C0AFF01200206E405067
:1035C400D8B4E7EF1AF0E9EF1AF0E1EF1AF0390195
:1035D40093B9EFEF1AF0F1EF1AF0F6EF1AF060007A
:1035E40083F0EAFD0CEF1BF09399C40E3324D96EDB
:1035F400DA6A000EDA22600083F0DFFF332A070E56
:10360400336407EF1BF009EF1BF00BEF1BF0000E08
:10361400336E400693891200000E3E01DE6F000EE9
:10362400DF6F000EE06F000EE16F000EE46F000E1E
:10363400E56F000EEA6F000EEC6F000EF16F580E8E
:10364400F36F020EF46F000EF56F000EF66F000EAE
:10365400F76F000EF96F000EFA6F000EFB6F000E8D
:10366400FC6F000EFD6F000EFE6F1F0EFF6F840EC9
:10367400F86F12003901A19F3F0118510001D06F6A
:103684003F0119510001D16F3F011A510001D26F5E
:10369400D36B3C0160AB51EF1BF053EF1BF05CEFBD
:1036A4001BF0010E0001CC27000ECD23CE23CF2327
:1036B40065EF1BF0FF0E0001CC27FF0ECD23FF0E9C
:1036C400CE23FF0ECF2311006F0060FF17F06F00B1
:1036D400E8FF18F06F00ECFF19F03C503D10D8B42F
:1036E40076EF1BF078EF1BF084EF1BF002D884EF29
:1036F4001BF00500FA6E3C50FD6E3D50FE6EFF6AF5
:10370400FA501200600067F0FBFF600063F0FAFFFC
:1037140060005FF0D8FF11006F0060FF1AF06F00C7
:10372400E8FF1BF06F00ECFF1CF03E503F10D8B4D4
:103734009EEF1BF0A0EF1BF0ACEF1BF002D8ACEF38
:103744001BF00500FA6E3E50FD6E3F50FE6EFF6AA0
:10375400FA501200600073F0FBFF60006FF0FAFF94
:1037640060006BF0D8FF11006F0060FF1DF06F0068
:10377400E8FF1EF06F00ECFF1FF03901A791274A04
:10378400282A285009E10A0E275CD8A0CCEF1BF0A8
:10379400CEEF1BF0D4EF1BF0A0EC1EF0000E286E51
:1037A400000E276E60007FF0FBFF60007BF0FAFFE5
:1037B400600077F0D8FF1100D28A000ED2BE010E4D
:1037C400206ED29E550ED46EAA0ED46ED490000EE6
:1037D400D76E000ED66E080ED56E550ED46EAA0E98
:1037E400D46ED48020B002D0D29E01D0D28E3901C2
:1037F40083998397818F818B818D8A81888F87912B
:10380400898312006F00E8FF03F06F00ECFF04F0FF
:103814003901A9936F00D0FD05F06F00D4FD06F0C7
:1038240005C001F006C002F002D823EF1CF0050029
:10383400FA6E0001F851FD6EF951FE6EFF6AFA50FE
:103844001200600013F0FBFF60000FF0FAFF11009C
:103854006F00E8FF09F06F00ECFF0AF03901AA914C
:103864006F00C0FD0BF06F00C4FD0CF00BC007F03F
:103874000CC008F002D849EF1CF00500FA6E0001F4
:10388400F651FD6EF751FE6EFF6AFA5012006000A9
:103894002BF0FBFF600027F0FAFF1100DEEC1BF0B9
:1038A4004BEC1FF0BAEC17F0CCEC1FF089EC1EF0D7
:1038B4000EEC1BF0B7EC1EF02AEC1EF09CEC1FF093
:1038C4008EEC1FF0B4EC1FF072EC1EF0CDEC1EF089
:1038D40087EC1DF0C0EC1FF075EC1CF0A8EC1FF099
:1038E40046EC19F01200C00E9B6E000E9C6E050E85
:1038F4009D6E000E996E000E986E3901A89D985029
:103904006F0064FE60F00001616B60C061F0606B89
:1039140060113A6E61513B6E3901A89F988FFE0E7B
:10392400206E3E0E216EFDEC1FF0030E9A6E120007
:103934003901A19D3F011551346E1651356E175151
:10394400366E376A3C0160ABAAEF1CF0ACEF1CF09A
:10395400B5EF1CF0010E0001CC27000ECD23CE23C1
:10396400CF23BEEF1CF0FF0E0001CC27FF0ECD23AA
:10397400FF0ECE23FF0ECF231100000E00016F6F48
:10398400000E6E6FD2EF1CF06DC060F0616B6BC007
:1039940062F06CC063F0E5EC19F000016E4B6F2B24
:1039A4006E516925D96E6F516A21DA6EDF506D6FE1
:1039B4006D51D8A4E0EF1CF0E2EF1CF0C6EF1CF050
:0239C4001200EF
:1039C8006F00E8FF15F06F00ECFF16F03901A89FB3
:1039D80038503910D8B4F3EF1CF0F5EF1CF001EFB4
:1039E8001DF002D801EF1DF00500FA6E3850FD6E8B
:1039F8003950FE6EFF6AFA50120060005BF0FBFF60
:103A0800600057F0FAFF1100080E40600EEF1DF03D
:103A180010EF1DF027EF1DF0C40E3224D96EDA6ABC
:103A2800000EDA22DF503D01EA6F322A070E3264B7
:103A380020EF1DF022EF1DF024EF1DF0000E326E76
:103A4800402A29EF1DF0390193991200000171BF36
:103A580038EF1DF0715106E17005D8B036EF1DF052
:103A680038EF1DF046EF1DF070C072F071C073F0B2
:103A7800721F731F724B732B72C070F073C071F09A
:103A88004AEF1DF070C070F071C071F0120020C0D4
:103A980060F021C061F053EF1DF0204A212A600038
:103AA80083F0D9FF600087F0DAFFDF50D8A45FEF1A
:103AB8001DF061EF1DF051EF1DF000016051205C19
:103AC800206E61512158216E1200226E60008BF029
:103AD800F1FE3E01F88FF89DF881F8B176EF1DF000
:103AE80078EF1DF071EF1DF0F0510001616F606B10
:103AF8003E01EF5100016025206E3E01000E0001DD
:103B08006121216E1200000EA76E000EA86E050E30
:103B1800A96E000EA56E000EA46E3901A69DA450D4
:103B28006F0094FE20F0216A20C021F0206A201046
:103B38000001F46F2150F56F010EA66E120000EE21
:103B480000F1200EEE6AE806FDE100EEB4F03C0E4E
:103B5800EE6AE806FDE100EE23F0150EEE6AE806CF
:103B6800FDE1080ED56E000ED66E000ED76E000170
:103B78006FEF1FF020C060F021C061F00001D89005
:103B880061336033D890613360336051696E20C00F
:103B980060F0030E6017060E616FD8906037612FD2
:103BA800D1EF1DF06051686E120020C060F021C096
:103BB80061F00001D89061336033D890613360338D
:103BC80060516D6E20C060F0030E6017060E616FC5
:103BD800D8906037612FECEF1DF060516C6E1200C9
:103BE80020C060F021C061F00001D89061336033DB
:103BF800D890613360336051616E20C060F0030E6D
:103C08006017060E616FD8906037612F07EF1EF0BE
:103C18006051606E120020C060F021C061F00001A8
:103C2800D89061336033D890613360336051656EEA
:103C380020C060F0030E6017060E616FD8906037E1
:103C4800612F22EF1EF06051646E1200800E3F015A
:103C58001E6F420E1F6F000E206F040E216F000EA4
:103C6800236F000E226F010E1D6F1C691B6939013D
:103C7800918B918F918D3F011F8F1200CDAE47EF31
:103C88001EF049EF1EF04FEF1EF001C02BF002C0EE
:103C98002CF059EF1EF02B50015C0001E86F2C50FE
:103CA8000258E96FD890E933E8331200CDAC5FEFE2
:103CB8001EF061EF1EF067EF1EF007C029F008C084
:103CC8002AF071EF1EF02950075C0001E66F2A50B8
:103CD8000858E76FD890E733E6331200830E726E08
:103CE800000E736E000E716E000E706EB40E206EB4
:103CF8003C0E216E07EC20F03F015E513F0B80091E
:103D08005E6F3901AA919A811200830E766E000EB9
:103D1800776E000E756E000E746E840E206E3C0E6B
:103D2800216E0CEC20F03F015E51CF0B20095E6F35
:103D38003901A993998312000001F251F311D8B403
:103D4800A8EF1EF0AAEF1EF0B6EF1EF002D8B6EFED
:103D58001EF00500FA6EF251FD6EF351FE6EFF6A19
:103D6800FA5012001200010EA26E000EA16E000E93
:103D7800A36EF90E9F6E000E9E6E3901A791978172
:103D8800320E206E400E216E02EC20F0E00EA06E86
:103D98001200000E3C01616F030E626F020E636F2A
:103DA800000E646F000E656F020E666F080E676F77
:103DB800000E686F000E696F850E606F1200BC0EF2
:103DC8003124D96EDA6A000EDA226F00A3F7DFFF1A
:103DD800312A070E3164F3EF1EF0F5EF1EF0F7EF0E
:103DE8001EF0000E316E2F2A12009AA4FEEF1EF06C
:103DF80000EF1FF009EF1FF09A900E50996E6000C7
:103E080037F098FF9A800EEF1FF00E50996E600001
:103E180037F098FF1200240E0101286F010E296F58
:103E2800000E0001AE6F000EAF6F22C1B0F023C1CB
:103E3800B1F0280EB26F010EB36FACEC1AF012009D
:103E48003901A19B000E346E000E356E000E366EE1
:103E5800000E376E000E0001D06F000ED16F000EFD
:103E6800D26F000ED36F1100220E69EC1DF020C036
:103E7800F0F021C0F1F03E0E0101226F100E236F09
:103E8800F0C024F1F1C025F10FEC1FF01200000E74
:103E98003901C06F000EC16F000EC26F000EC36FF4
:103EA800000EC46F000EC56F000EC66F000EC76F00
:103EB80012009A826F0060FE14F06F0064FE13F027
:103EC80013500F6E1450116E0FC012F011C00DF088
:103ED80012C00EF0120050EC1CF0D28ED28C280EBC
:103EE800206E400E216E02EC20F031EC1AF079EFD2
:103EF8001FF057EF00F05DEC1FF00DC0EEF00EC0A4
:103F0800EFF00001D890EF33EE33D8EC1FF0390111
:103F1800A89F1200050EAE6E000EAD6E000EAF6EBD
:103F2800AB68000EAA6E3901A495B00EAC6E1200F3
:103F3800800E626E000E616E000E606E3F015F5172
:103F48003F0B80095F6F1200800E666E000E656E73
:103F5800000E646E3F015F51CF0B20095F6F1200A6
:103F6800800E6A6E590E696E400E686E3F015F5191
:103F7800F30B04095F6F1200800E6E6E590E6D6EA2
:103F8800400E6C6E3F015F51FC0B01095F6F120020
:103F9800600E3901D96F000EDB6F000EDD6F080E61
:103FA800DF6F000EDE6F12003AC00DF03BC00EF05E
:103FB800F9EC1EF01200216E2150E0EC1AF012000C
:103FC80020C03CF021C03DF0120020C03EF021C0CE
:103FD8003FF0120020C0FCF021C0FDF0120020C00C
:103FE800FEF021C0FFF0120020C0FAF021C0FBF063
:103FF800120020C038F021C039F0120020C0F2F0C1
:1040080021C0F3F0120020C0F6F021C0F7F0120032
:1040180020C0F8F021C0F9F01200E3EC1EF0120005
:0E4028000001EB2B120012001200120011001A
:020000040020DA
:10000000FF0FFF0FFF0FFF0FFF0FFF0FFF0FFF0F80
:020000040030CA
:0A0000008CFFFFFF9FFFFFFFFFFFD3
:00000001FF
