:0400000057EF00F0C6
:10000800A917A917A917A917A917A917A917A917E8
:10001800A917A917A917A917A917331794154715C9
:10002800A917A917A917A917A917A917A917A917C8
:10003800A917A917A9170816F915A917A917A9170C
:10004800A917A917A917A9172B00A917A917A9173D
:10005800A917A917A917A917A917A917A917A91798
:10006800A917A917A917A917A917A917A917A91788
:100078004116A9172B00A917A917A9172B002B00A0
:100088002B002B002B002B002B002B00A917AA16E6
:10009800A9178316A917A9172B002B002B002B00D3
:0A00A8009016A917FF00CEEF29F013
:101000000073746172416363656C506F7765723A07
:101010002025640A0054696D653A20092564202062
:1010200020202009006163744D506F773A202564B9
:101030000A00737461792052696768740A0042611A
:101040007474657279204C6F770073746179204CE9
:101050006566740A004D506F773A2025660A00498C
:101060004E46004E414E00696E66006E616E006C29
:0310700066000017
:10107400000E0001AA6F000EA96F85C0BBF086C0E8
:10108400BCF087C0BDF088C0BEF0BEBF4EEF08F014
:101094004CEF08F064EF08F0000EAA6F010EA96F80
:1010A400BBC014F0BCC015F0BDC016F0BEC017F034
:1010B40049EC2CF014C0BBF015C0BCF016C0BDF058
:1010C40017C0BEF0000E0001C26F000EC16F3AC01F
:1010D400ADF03BC0AEF0A951AA11D8A474EF08F04A
:1010E40076EF08F07DEF08F03EA47BEF08F07DEF8B
:1010F40008F097EF08F0A951AA11D8A484EF08F0DA
:1011040086EF08F08CEF08F0000E906F2B0E8F6FB7
:1011140090EF08F0000E906F2D0E8F6F8FC034F19A
:10112400C14BC22BAD07D8A0AE07BBC014F0BCC0E6
:1011340015F0BDC016F0BEC017F092EC24F01404F4
:101144001510D8A4A8EF08F0AAEF08F001EF09F0F1
:10115400BF0E00018A6FFF0E8B6F89518C6F8D6BF0
:101164008A518C278B518D238D510AE11A0E8C5D87
:10117400D8A0BFEF08F0C2EF08F0010EC3EF08F0EB
:10118400000E916F926B91519211D8B4CCEF08F08C
:10119400CEEF08F0DCEF08F0340EC125146E010E1A
:1011A400C221156E5F0E166E100E176E99EC29F0A3
:1011B400E8EF08F0340EC125146E010EC221156E3D
:1011C400670E166E100E176E99EC29F00001FD0ED5
:1011D400AD27FF0EAE2383C026F084C027F0340E63
:1011E400286E010E296EADC02AF0AEC02BF0C3EC00
:1011F40026F026C083F027C084F090EF0EF0BBC029
:1012040014F0BCC015F0BDC016F0BEC017F092ECCF
:1012140024F014501510D8A412EF09F014EF09F0BB
:101224006BEF09F0BF0E00018A6FFF0E8B6F8951BF
:101234008C6F8D6B8A518C278B518D238D510AE1D4
:101244001A0E8C5DD8A029EF09F02CEF09F0010EDD
:101254002DEF09F0000E936F946B93519411D8B451
:1012640036EF09F038EF09F046EF09F0340EC125E6
:10127400146E010EC221156E630E166E100E176EDB
:1012840099EC29F052EF09F0340EC125146E010EC9
:10129400C221156E6B0E166E100E176E99EC29F0A6
:1012A4000001FD0EAD27FF0EAE2383C026F084C0DF
:1012B40027F0340E286E010E296EADC02AF0AEC0A0
:1012C4002BF0C3EC26F026C083F027C084F090EF07
:1012D4000EF0000E0001C36F000EC46F800EC56FC8
:1012E4003F0EC66F000EC06F000EBF6FBBC014F080
:1012F400BCC015F0BDC016F0BEC017F0000E186ECD
:10130400000E196E000E1A6E000E1B6EDCEC27F038
:10131400D8B08FEF09F091EF09F016EF0AF0B0EFB3
:1013240009F0C3C02AF0C4C02BF0C5C02CF0C6C05D
:101334002DF0000E2E6E000E2F6E200E306E410E1C
:10134400316E83EC13F02AC0C3F02BC0C4F02CC060
:10135400C5F02DC0C6F00001BF4BC02BBBC06DF063
:10136400BCC06EF0BDC06FF0BEC070F0000E2E6E3B
:10137400000E2F6E200E306E410E316EC3C02AF067
:10138400C4C02BF0C5C02CF0C6C02DF083EC13F004
:101394002AC071F02BC072F02CC073F02DC074F011
:1013A4000FEC24F00001D8B0DAEF09F0DCEF09F01B
:1013B40093EF09F0FCEF09F0C3C014F0C4C015F0BA
:1013C400C5C016F0C6C017F0000E186E000E196ED8
:1013D400200E1A6E410E1B6EABEC15F014C0C3F058
:1013E40015C0C4F016C0C5F017C0C6F00001BF0791
:1013F400D8A0C007BBC06DF0BCC06EF0BDC06FF01C
:10140400BEC070F0C3C071F0C4C072F0C5C073F048
:10141400C6C074F00FEC24F00001D8A014EF0AF059
:1014240016EF0AF0DEEF09F089C01AF01B6A01EC2E
:101434002AF01A500001B06FB0C0AFF0670EB019B7
:10144400D8A427EF0AF029EF0AF04FEF0AF03C5036
:101454003D10D8A430EF0AF032EF0AF036EF0AF06C
:10146400000E3D6E010E3C6E3DBE43EF0AF03D5052
:1014740006E13C04D8B041EF0AF043EF0AF049EF2B
:101484000AF0000EAC6F060EAB6F58EF0AF03CC0CA
:10149400ABF03DC0ACF058EF0AF03DBE54EF0AF09B
:1014A40056EF0AF043EF0AF049EF0AF0670EB0195D
:1014B400D8A45FEF0AF061EF0AF090EF0AF0C0AF32
:1014C4006FEF0AF0FC0EBF5DFF0EC059D8A06DEFA0
:1014D4000AF06FEF0AF08EEF0AF0FF0E8A6FFF0E2C
:1014E4008B6FABC08CF0ACC08DF08A518C278B51C4
:1014F4008D23BF518C5D8D51800A8E6FC051800A3F
:101504008E59D8A088EF0AF08AEF0AF08EEF0AF01D
:10151400660EAF6F90EF0AF0650EAF6FABC0A1F02F
:10152400ACC0A2F0670EB019D8A49BEF0AF09DEFEF
:101534000AF0ADEF0AF0660EAF19D8A4A4EF0AF0D2
:10154400A6EF0AF0AFEF0AF0C0BFADEF0AF0ABEFC1
:101554000AF0AFEF0AF0A14BA22B660EAF19D8A484
:10156400B6EF0AF0B8EF0AF0D8EF0AF0C0BFBFEF49
:101574000AF0BDEF0AF0CBEF0AF0000EC36F000EC5
:10158400C46F800EC56F3F0EC66F000EC06F000E95
:10159400BF6F670EB019D8B4D2EF0AF0D4EF0AF0D7
:1015A400D8EF0AF0BF51A127C051A223000EBA6F91
:1015B400000EB96FBBC0B1F0BCC0B2F0BDC0B3F097
:1015C400BEC0B4F0C3C0A3F0C4C0A4F0C5C0A5F0AD
:1015D400C6C0A6F069EF0BF0B1C014F0B2C015F0AC
:1015E400B3C016F0B4C017F0C3C018F0C4C019F0EB
:1015F400C5C01AF0C6C01BF0ABEC15F014C02DF03A
:1016040015C02EF016C02FF017C030F050EC1BF0B0
:101614002DC0B5F02EC0B6F02FC0B7F030C0B8F072
:10162400B5C079F0B6C07AF0B7C07BF0B8C07CF032
:1016340008EC23F079C0A7F07AC0A8F0B1C079F023
:10164400B2C07AF0B3C07BF0B4C07CF0C3C02EF05B
:10165400C4C02FF0C5C030F0C6C031F0B5C02AF008
:10166400B6C02BF0B7C02CF0B8C02DF083EC13F04B
:101674002AC07DF02BC07EF02CC07FF02DC080F0FE
:101684004DEC2BF079C0B1F07AC0B2F07BC0B3F06E
:101694007CC0B4F0C3C014F0C4C015F0C5C016F0CB
:1016A400C6C017F0000E186E000E196E200E1A6ECA
:1016B400410E1B6EABEC15F014C0C3F015C0C4F0A2
:1016C40016C0C5F017C0C6F00001B94BBA2BA15122
:1016D400B95DBA51800A8A6FA251800A8A59D8A08A
:1016E40076EF0BF078EF0BF0EEEF0AF0C3C02AF0C0
:1016F400C4C02BF0C5C02CF0C6C02DF0000E2E6E59
:10170400000E2F6EA00E306E400E316E83EC13F07F
:101714002AC0B5F02BC0B6F02CC0B7F02DC0B8F07D
:10172400B1C06DF0B2C06EF0B3C06FF0B4C070F071
:10173400B5C071F0B6C072F0B7C073F0B8C074F041
:101744000FEC24F00001D8B0AAEF0BF0ACEF0BF0D3
:10175400B6EF0BF0000EB56F000EB66F000EB76F4C
:10176400000EB86FDFEF0BF0B1C014F0B2C015F08B
:10177400B3C016F0B4C017F0B5C018F0B6C019F075
:10178400B7C01AF0B8C01BF0DCEC27F0D8A0CDEF3E
:101794000BF0CFEF0BF0DFEF0BF00001A7B1D5EFAB
:1017A4000BF0D7EF0BF0DFEF0BF0000EB56F000E70
:1017B400B66F000EB76F000EB86FBBC06DF0BCC043
:1017C4006EF0BDC06FF0BEC070F0B5C071F0B6C0B1
:1017D40072F0B7C073F0B8C074F022EC11F06DC0B1
:1017E400B1F06EC0B2F06FC0B3F070C0B4F0B1C06D
:1017F4006DF0B2C06EF0B3C06FF0B4C070F0000E04
:101804002E6E000E2F6E200E306E410E316EA3C070
:101814002AF0A4C02BF0A5C02CF0A6C02DF083ECB8
:1018240013F02AC071F02BC072F02CC073F02DC0DD
:1018340074F00FEC24F00001D8A023EF0CF025EF96
:101844000CF04DEF0CF0BF4BC02BA3C02AF0A4C08A
:101854002BF0A5C02CF0A6C02DF0000E2E6E000EAD
:101864002F6E200E306E410E316E83EC13F02AC0C1
:10187400A3F02BC0A4F02CC0A5F02DC0A6F0660EDA
:101884000001AF19D8A449EF0CF04BEF0CF04DEF69
:101894000CF0A14BA22BA3C0C3F0A4C0C4F0A5C0FC
:1018A400C5F0A6C0C6F0650EAF19D8B45CEF0CF055
:1018B4005EEF0CF064EF0CF0BFC09FF0C0C0A0F06E
:1018C40068EF0CF0000EA06F000E9F6F000E9E6F6D
:1018D400000E9D6F000E9C6F000E9B6F000EBA6F82
:1018E400000EB96F64EF0DF0B1C014F0B2C015F082
:1018F400B3C016F0B4C017F0C3C018F0C4C019F0D8
:10190400C5C01AF0C6C01BF0ABEC15F014C02DF026
:1019140015C02EF016C02FF017C030F050EC1BF09D
:101924002DC0B5F02EC0B6F02FC0B7F030C0B8F05F
:10193400B5C079F0B6C07AF0B7C07BF0B8C07CF01F
:1019440008EC23F079C0A7F07AC0A8F03EB8ADEF58
:101954000CF0AFEF0CF0CDEF0CF00001A751A81183
:10196400D8A4B7EF0CF0B9EF0CF0CDEF0CF0670E84
:10197400B019D8A4C0EF0CF0C2EF0CF0CDEF0CF00E
:10198400A0BFC9EF0CF0C7EF0CF0CDEF0CF09B4BF0
:101994009C2B18EF0DF000019D519E11D8A4D5EF9A
:1019A4000CF0D7EF0CF001EF0DF0A0BFDEEF0CF060
:1019B400DCEF0CF001EF0DF0340EC125D96E010EF1
:1019C400C221DA6E2E0EDF6EC14BC22BAD07D8A03A
:1019D400AE07000E9E6F010E9D6F01EF0DF0340EE9
:1019E400C125D96E010EC221DA6E300EDF6EC14BF5
:1019F400C22BAD07D8A0AE079B07D8A09C079B516C
:101A04009C11D8A408EF0DF00AEF0DF0F1EF0CF0E3
:101A1400340EC125D96E010EC221DA6EA751300FE2
:101A2400DF6EC14BC22BAD07D8A0AE07B1C079F0B1
:101A3400B2C07AF0B3C07BF0B4C07CF0C3C02EF067
:101A4400C4C02FF0C5C030F0C6C031F0B5C02AF014
:101A5400B6C02BF0B7C02CF0B8C02DF083EC13F057
:101A64002AC07DF02BC07EF02CC07FF02DC080F00A
:101A74004DEC2BF079C0B1F07AC0B2F07BC0B3F07A
:101A84007CC0B4F0C3C014F0C4C015F0C5C016F0D7
:101A9400C6C017F0000E186E000E196E200E1A6ED6
:101AA400410E1B6EABEC15F014C0C3F015C0C4F0AE
:101AB40016C0C5F017C0C6F000019F07D8A0A00744
:101AC400B94BBA2BA151B95DBA51800A8A6FA251A0
:101AD400800A8A59D8B071EF0DF073EF0DF081EFE1
:101AE4000DF0C2BF7FEF0DF0C25109E14B0EC15D95
:101AF400D8A07FEF0DF081EF0DF076EF0CF09D5143
:101B04009E11D8A488EF0DF08AEF0DF09BEF0DF035
:101B14003EA88FEF0DF091EF0DF09BEF0DF0340E1A
:101B2400C125D96E010EC221DA6E2E0EDF6EC14BB5
:101B3400C22B340EC125D96E010EC221DA6E000EFD
:101B4400DF6E650EAF19D8A4AAEF0DF0ACEF0DF05F
:101B54007EEF0EF0000EBA6F4F0EB96F340EB9253A
:101B6400D96E010EBA21DA6E000EDF6E000EAA6F76
:101B7400000EA96FC0BFC3EF0DF0C1EF0DF0CBEFA6
:101B84000DF0000EAA6F010EA96FBF6DC01FD8B073
:101B9400C02B000EAC6F020EAB6FFCEF0DF0B9075B
:101BA400D8A0BA07340EB925D96E010EBA21DA6E5F
:101BB400BFC014F0C0C015F0000E176E0A0E166EEA
:101BC40084EC27F01450300FDF6EBFC014F0C0C097
:101BD40015F0000E176E0A0E166E61EC26F014C096
:101BE400BFF015C0C0F00001AB07D8A0AC07AD072B
:101BF400D8A0AE07BF51C011D8A403EF0EF005EF73
:101C04000EF0D1EF0DF0ACBF12EF0EF0AC5106E1C7
:101C1400AB05D8B010EF0EF012EF0EF0D1EF0DF0CF
:101C2400B907D8A0BA07A951AA11D8A41CEF0EF07D
:101C34001EEF0EF024EF0EF0000E966F2B0E956F34
:101C440028EF0EF0000E966F2D0E956F340EB92509
:101C5400D96E010EBA21DA6E600057F2DFFFAD07CC
:101C6400D8A0AE07B907D8A0BA07BF0E8A6FFF0E77
:101C74008B6F89518C6F8D6B8A518C278B518D237F
:101C84008D510AE11A0E8C5DD8A04BEF0EF04EEF89
:101C94000EF0010E4FEF0EF0000E996F9A6B9951F2
:101CA4009A11D8A458EF0EF05AEF0EF060EF0EF030
:101CB400000E986F650E976F64EF0EF0000E986F2C
:101CC400450E976F340EB925D96E010EBA21DA6E1E
:101CD40060005FF2DFFFAD07D8A0AE07340EC12568
:101CE400146E010EC221156E340EB925166E010E46
:101CF400BA21176E99EC29F083C026F084C027F02E
:101D0400340E286E010E296EADC02AF0AEC02BF041
:101D1400C3EC26F026C083F027C084F012006000D4
:101D240027F3D9FF60002BF3DAFF6F007BFFF6FF88
:101D34006F0077FFF7FFF86A0800F550250AD8A46A
:101D4400A6EF0EF0A8EF0EF0FFEF10F0600027F3FF
:101D5400D9FF60002BF3DAFFDE2A000EDD22000E2D
:101D64003B6E000E3A6E3AC03EF03BC03FF03C681A
:101D74003D68600027F3D9FF60002BF3DAFF6F00A2
:101D84007BFFF6FF6F0077FFF7FFF86A0800F55056
:101D94001A6E1B6A01EC2AF01A500001DF6FDF5142
:101DA400D8B4D7EF0EF0D9EF0EF021EF0FF06000AA
:101DB40027F3D9FF60002BF3DAFF6F0078FFCDF033
:101DC4006F0074FFCEF0010ECD27000ECE2360000D
:101DD40037F3F6FF60003BF3F7FFF86A0800F550AD
:101DE4001A6E1B6A01EC2AF01A500001E06FE051F0
:101DF400D8B4FFEF0EF001EF0FF021EF0FF0600009
:101E040027F3D9FF60002BF3DAFF6F0078FFCDF0E2
:101E14006F0074FFCEF0020ECD27000ECE236000BB
:101E240037F3F6FF60003BF3F7FFF86A0800F5505C
:101E34001A6E1B6A01EC2AF01A500001E16F60006F
:101E440027F3D9FF60002BF3DAFF6F007BFFF6FF67
:101E54006F0077FFF7FFF86A0800F550640AD8B4FA
:101E640036EF0FF038EF0FF04FEF0FF0600027F36D
:101E7400D9FF60002BF3DAFF6F007BFFF6FF6F00E2
:101E840077FFF7FFF86A0800F550690AD8A44DEF08
:101E94000FF04FEF0FF099EF0FF0600027F3D9FF29
:101EA40060002BF3DAFFDE2A000EDD2260002FF340
:101EB400D9FF600033F3DAFF6F007CFFCDF0020E30
:101EC400DE266F007CFFCEF0000EDD22600037F3CB
:101ED400D9FF60003BF3DAFF6F0078FFD1F06F00A9
:101EE40074FFD2F0000ED2BFFF0ED36FD46FD56F44
:101EF400D66FD76FD86FC7C060F0C8C061F0D1C0CB
:101F040062F0D2C063F0D3C064F0D4C065F0D5C031
:101F140066F0D6C067F0D7C068F0D8C069F078EC36
:101F240017F060C0C7F061C0C8F021EF11F0660E71
:101F3400DF19D8A4A0EF0FF0A2EF0FF0F4EF0FF029
:101F4400600027F3D9FF60002BF3DAFF6F007BFFFB
:101F5400F6FF6F0077FFF7FFF86A08006F00D4FF01
:101F6400E2F0600027F3D9FF60002BF3DAFFDE2AEA
:101F7400000EDD2260002FF3D9FF600033F3DAFF97
:101F84006F007CFFCDF0040EDE266F007CFFCEF0E8
:101F9400000EDD22600037F3D9FF60003BF3DAFF67
:101FA4006F0078FFDBF06F0078FFDCF06F0078FFE4
:101FB400DDF06F0078FFDEF0C7C083F0C8C084F0A6
:101FC400DBC085F0DCC086F0DDC087F0DEC088F0C1
:101FD400E2C089F03AEC08F083C0C7F084C0C8F0CE
:101FE40021EF11F0DF0E146E000E156E6F0E166EDB
:101FF400100E176E000E196E020E186E11EC25F0FD
:1020040014501510D8A409EF10F00BEF10F0BEEF28
:1020140010F0600027F3D9FF60002BF3DAFF6F00A4
:1020240078FFCDF06F0074FFCEF0010E0001CD27D4
:10203400000ECE23600037F3F6FF60003BF3F7FF9A
:10204400F86A08006F00D4FFE2F0BF0ECD6FFF0EF8
:10205400CE6F600027F3D9FF60002BF3DAFF6F0027
:102064007BFFF6FF6F0077FFF7FFF86A0800F55073
:10207400CF6FD06BCD51CF27CE51D023D0510AE1B1
:102084001A0ECF5DD8A049EF10F04CEF10F0010EFE
:102094004DEF10F0000ED96FDA6BD951DA11D8B4C4
:1020A40056EF10F058EF10F07CEF10F060002FF3B3
:1020B400D9FF600033F3DAFF6F007CFFCDF0040E2C
:1020C400DE266F007CFFCEF0000EDD22600037F3C9
:1020D400D9FF60003BF3DAFF6F0078FFDBF06F009D
:1020E40078FFDCF06F0078FFDDF06F0078FFDEF042
:1020F4009EEF10F060002FF3D9FF600033F3DAFF96
:102104006F007CFFCDF0040EDE266F007CFFCEF066
:10211400000EDD22600037F3D9FF60003BF3DAFFE5
:102124006F0078FFDBF06F0078FFDCF06F0078FF62
:10213400DDF06F0078FFDEF0020E600027F3D9FFB8
:1021440060002BF3DAFFDE26000EDD22C7C083F029
:10215400C8C084F0DBC085F0DCC086F0DDC087F049
:10216400DEC088F0E2C089F03AEC08F083C0C7F022
:1021740084C0C8F021EF11F0600027F3D9FF60009C
:102184002BF3DAFF6F007BFFF6FF6F0077FFF7FF9B
:10219400F86A0800F550250AD8A4D3EF10F0D5EF5B
:1021A40010F0EFEF10F0600027F3D9FF60002BF37D
:1021B400DAFFDE2A000EDD22000E176E250E166EE3
:1021C400C7C018F0C8C019F083EC28F0000E000155
:1021D400C86F010EC76F21EF11F0600027F3D9FF1C
:1021E40060002BF3DAFFDE2A000EDD22000E000170
:1021F400C86F000EC76F21EF11F0600027F3D9FFFD
:1022040060002BF3DAFF6F007BFFF6FF6F0077FFB0
:10221400F7FFF86A0800F550166E176AC7C018F081
:10222400C8C019F083EC28F0600027F3D9FF6000E0
:102234002BF3DAFFDE2A000EDD22E8EF10F01200A5
:1022440000017051800B756F70517025776F6FAFFF
:102254002EEF11F030EF11F031EF11F0778177515B
:10226400D8B437EF11F039EF11F04EEF11F07729B0
:10227400D8A43FEF11F041EF11F049EF11F0000E37
:102284006D6F000E6E6F000E6F6F000E706F6F8FAC
:10229400000E706F56EF11F0000E6D6F000E6E6F32
:1022A400000E6F6F000E706F7451800B766F755156
:1022B4007619D8B460EF11F062EF11F063EF11F00A
:1022C400758D74517425766F73AF6BEF11F06DEFEC
:1022D40011F06EEF11F076817651D8B474EF11F0ED
:1022E40076EF11F08BEF11F07629D8A47CEF11F082
:1022F4007EEF11F086EF11F0000E716F000E726F19
:10230400000E736F000E746F738F000E746F93EF73
:1023140011F0000E716F000E726F000E736F000EDD
:10232400746F7751765DD8B09AEF11F09CEF11F08D
:10233400C3EF11F075ADA1EF11F0A3EF11F0A5EF0C
:1023440011F0800E751B77C078F076C077F078C0F6
:1023540076F06DC078F071C06DF078C071F06EC029
:1023640078F072C06EF078C072F06FC078F073C00D
:102374006FF078C073F070C078F074C070F078C0FB
:1023840074F0000E786F775176C036F0376A365E97
:10239400000E375A37BED8EF11F0375009E11A0E44
:1023A400365CD8A0D8EF11F0DAEF11F011EF12F08B
:1023B4006D516E116F117011D8A4E3EF11F0E6EFB7
:1023C40011F0010EE7EF11F0000E786F000E6D6F43
:1023D400000E6E6F000E6F6F000E706F76C077F098
:1023E4001AEF12F078A1F9EF11F0FBEF11F001EF01
:1023F40012F0D89078310109786F03EF12F0D89079
:1024040078336DA108EF12F00AEF12F00BEF12F01F
:10241400788F703570336F336E336D33772B76511D
:10242400775DD8A018EF12F01AEF12F0F4EF11F064
:1024340075BD1FEF12F021EF12F061EF12F077512A
:10244400D8A427EF12F029EF12F033EF12F0000EA8
:102454006D6F000E6E6F000E6F6F000E706F82EF67
:1024640013F071516D2772516E2373516F237451A0
:10247400702370A140EF12F042EF12F0EEEF12F071
:1024840078A147EF12F049EF12F04FEF12F0D89015
:1024940078310109786F51EF12F0D89078336DA13B
:1024A40056EF12F058EF12F059EF12F0788F7035A2
:1024B40070336F336E336D33772BEEEF12F071514F
:1024C4006D5D72516E5973516F597051800A366E39
:1024D4007451800A3658D8B072EF12F074EF12F0CB
:1024E4009FEF12F06D51715D366E6E517259376EF9
:1024F4006F517359386E70517459396EFF0E36240A
:102504006D6FFF0E37206E6FFF0E38206F6FFF0E5A
:102514003920706F800E751B786D7851D8A495EFB3
:1025240012F097EF12F0A7EF12F0010E6D27000ED4
:102534006E236F237023A7EF12F071516D5F7251F8
:102544006E5B73516F5B7451705B6D516E116F11E3
:102554007011D8A4B0EF12F0B2EF12F0E7EF12F05E
:102564007851D8A4B8EF12F0BAEF12F0E7EF12F0F6
:10257400000E6D6F000E6E6F000E6F6F000E706FA9
:1025840082EF13F0D8906D376E376F37703778AFAE
:10259400CEEF12F0D0EF12F0D1EF12F06D8178A1EE
:1025A400D6EF12F0D8EF12F0DCEF12F0D8807837C3
:1025B400DEEF12F0D89078377751D8B4E4EF12F008
:1025C400E6EF12F0E7EF12F077076FAFECEF12F0DF
:1025D400EEEF12F0C4EF12F0000E766F78AFF5EF65
:1025E40012F0F7EF12F00FEF13F078C036F07F0E11
:1025F4003616D8B400EF13F002EF13F006EF13F021
:10260400010E766F0FEF13F06DA10BEF13F00DEFCA
:1026140013F00FEF13F002EF13F07651D8B415EF67
:1026240013F017EF13F042EF13F0010E6D27000EB5
:102634006E236F23702370A122EF13F024EF13F0A5
:1026440042EF13F06DC036F06EC037F06FC038F053
:1026540070C039F03934393238323732363236C014
:102664006DF037C06EF038C06FF039C070F0772964
:10267400D8B43FEF13F041EF13F042EF13F0772B90
:102684007729D8B448EF13F04AEF13F052EF13F060
:102694007751D8A450EF13F052EF13F064EF13F016
:1026A400000E6D6F000E6E6F000E6F6F000E706F78
:1026B4007751D8A460EF13F062EF13F064EF13F0D6
:1026C400000E756F77A169EF13F06BEF13F06EEFE7
:1026D40013F06F8F6FEF13F06F9FD8907731706F97
:1026E40075AF77EF13F079EF13F07AEF13F0708F83
:1026F4006DC06DF06EC06EF06FC06FF070C070F0A2
:1027040012002D50800B0001606F2D502D24666F38
:102714002CAE8FEF13F091EF13F092EF13F066816C
:102724006651D8B498EF13F09AEF13F0ADEF13F0AD
:102734006629D8A4A0EF13F0A2EF13F0AAEF13F0C8
:10274400000E2A6E000E2B6E000E2C6E000E2D6EE7
:102754002C8EB5EF13F0000E2A6E000E2B6E000EB9
:102764002C6E000E2D6E3150800B601B31503124C5
:10277400616F30AEC0EF13F0C2EF13F0C3EF13F08C
:1027840061816151D8B4C9EF13F0CBEF13F0DEEFE0
:1027940013F06129D8A4D1EF13F0D3EF13F0DBEFDA
:1027A40013F0000E2E6E000E2F6E000E306E000E13
:1027B400316E308EE6EF13F0000E2E6E000E2F6E8B
:1027C400000E306E000E316E6151D8B4ECEF13F090
:1027D400EEEF13F0F6EF13F06651D8A4F4EF13F014
:1027E400F6EF13F000EF14F0000E2A6E000E2B6EBD
:1027F400000E2C6E000E2D6EAAEF15F030502A023A
:102804006F00CCFF6BF06F00D0FF6CF06B51626F08
:10281400636B646B656B6C51676F686B696B6A6B38
:102824002F502B026F00CCFF6BF06F00D0FF6CF0C9
:102834006B516227000E6323642365236C51672761
:10284400000E682369236A232E502C026F00CCFFEC
:102854006BF06F00D0FF6CF06B516227000E6323A6
:10286400642365236C516727000E682369236A2358
:1028740064C065F063C064F062C063F0626B2E50A4
:102884002B026F00CCFF6BF06F00D0FF6CF06B512C
:1028940062276C516323000E6423000E65232F50BE
:1028A4002A026F00CCFF6BF06F00D0FF6CF06B510D
:1028B40062276C516323000E6423000E652364C0F9
:1028C40065F063C064F062C063F0626B2E502A024C
:1028D4006F00CCFF6BF06F00D0FF6CF06B51622780
:1028E4006C516323000E6423000E652330502B02C9
:1028F4006F00CCFF6BF06F00D0FF6CF06B5167275B
:102904006C516823000E6923000E6A232F502C0299
:102914006F00CCFF6BF06F00D0FF6CF06B5167273A
:102924006C516823000E6923000E6A2330502C0278
:102934006F00CCFF6BF06F00D0FF6CF06B51326E08
:102944006C51336E346A356A34C035F033C034F0B8
:1029540032C033F0326A3250672733506823345020
:10296400692335506A2362C032F063C033F064C017
:1029740034F065C035F0190EC5EF14F0D890353237
:10298400343233323232E82EC0EF14F0325067273B
:10299400335068233450692335506A2364C065F08A
:1029A40063C064F062C063F0626B615166C032F070
:1029B400336A3226000E3322820E32246B6FFF0EEE
:1029C40033206C6FFBEF14F0D890673768376937A2
:1029D4006A3765AFF0EF14F0F2EF14F0F3EF14F090
:1029E4006781D89062376337643765376B07D8A03F
:1029F4006C0769AF00EF15F002EF15F0E6EF14F085
:102A0400000E616F65AF09EF15F00BEF15F02FEFB6
:102A140015F0FF0E6215326EFF0E6315336EFF0E56
:102A24006415346E7F0E6515356E325033103410D4
:102A34003510D8B420EF15F022EF15F026EF15F07D
:102A4400010E616F2FEF15F067A12BEF15F02DEF3D
:102A540015F02FEF15F022EF15F06151D8B435EFD2
:102A640015F037EF15F05BEF15F0010E6727000E38
:102A7400682369236A236AA142EF15F044EF15F035
:102A84005BEF15F067C032F068C033F069C034F012
:102A94006AC035F03534353234323332323232C0F2
:102AA40067F033C068F034C069F035C06AF06B4B2E
:102AB4006C2B6CBF66EF15F06C5108E16B29D8A044
:102AC40066EF15F068EF15F072EF15F0000E676F02
:102AD400000E686F800E696F7F0E6A6FA0EF15F0AD
:102AE4006CBF7FEF15F06C5106E16B05D8B07DEF3C
:102AF40015F07FEF15F08BEF15F0000E676F000EE9
:102B0400686F000E696F000E6A6F000E606FA0EFB1
:102B140015F06BC066F0FF0E6717FF0E68177F0E87
:102B24006917000E6A1766A19AEF15F09CEF15F06D
:102B34009DEF15F0698FD89066316A6F60516A1302
:102B440067C02AF068C02BF069C02CF06AC02DF071
:102B540012001750800B246E175017242B6E16AEDC
:102B6400B6EF15F0B8EF15F0B9EF15F02B802B5038
:102B7400D8B4BFEF15F0C1EF15F0D6EF15F02B2840
:102B8400D8A4C7EF15F0C9EF15F0D1EF15F0000E7A
:102B9400146E000E156E000E166E000E176E168E55
:102BA400000E176EDEEF15F0000E146E000E156E9B
:102BB400000E166E000E176E1B50800B241A1B504D
:102BC4001B242C6E1AAEE9EF15F0EBEF15F0ECEFC9
:102BD40015F02C802C50D8B4F2EF15F0F4EF15F06A
:102BE40009EF16F02C28D8A4FAEF15F0FCEF15F035
:102BF40004EF16F0000E186E000E196E000E1A6E19
:102C0400000E1B6E1A8E000E1B6E11EF16F0000ED6
:102C1400186E000E196E000E1A6E000E1B6E185000
:102C240019101A101B10D8A41AEF16F01CEF16F086
:102C340034EF16F0000E146E000E156E000E166EB4
:102C4400000E176E800E16127F0E171224501712E4
:102C540014C014F015C015F016C016F017C017F004
:102C640077EF17F02B50D8A43AEF16F03CEF16F09C
:102C740046EF16F0000E146E000E156E000E166E62
:102C8400000E176E77EF17F02C502BC01CF01D6A46
:102C94001C5E000E1D5A7F0E1C24256E000E1D2086
:102CA400266E14C020F015C021F016C022F017C003
:102CB40023F0000E146E000E156E000E166E000E3C
:102CC400176E000E276E000E286E000E296E000E81
:102CD4002A6E000E2C6EA7EF16F02C50D8B475EFA8
:102CE40016F077EF16F08EEF16F0D89020362136D6
:102CF40022362336D89014361536163617362AAEB1
:102D040086EF16F088EF16F089EF16F01480D8904D
:102D14002736283629362A361850205C195021586F
:102D24001A5022581B502358D8A09BEF16F09DEF41
:102D340016F0A6EF16F02A8C1850205E1950215A6E
:102D44001A50225A1B50235A2C2A190E2C64ADEF08
:102D540016F0AFEF16F06FEF16F02050211022108E
:102D64002310D8B4B8EF16F0BAEF16F0D2EF16F07D
:102D74002780D2EF16F0D89014361536163617364B
:102D84002AAEC7EF16F0C9EF16F0CAEF16F014809A
:102D9400D8902736283629362A362506D8A026067E
:102DA40016AED7EF16F0D9EF16F0BDEF16F0000E01
:102DB4002C6E2AAEE0EF16F0E2EF16F006EF17F0F5
:102DC400FF0E27141C6EFF0E28141D6EFF0E29140F
:102DD4001E6E7F0E2A141F6E1C501D101E101F1015
:102DE400D8B4F7EF16F0F9EF16F0FDEF16F0010E78
:102DF4002C6E06EF17F014A002EF17F004EF17F093
:102E040006EF17F0F9EF16F02C50D8B40CEF17F0CA
:102E14000EEF17F032EF17F0010E1426000E1522F4
:102E24001622172217A019EF17F01BEF17F032EF35
:102E340017F014C01CF015C01DF016C01EF017C00A
:102E44001FF01F341F321E321D321C321CC014F0FE
:102E54001DC015F01EC016F01FC017F0254A262A03
:102E640026BE3DEF17F0265008E12528D8A03DEFF7
:102E740017F03FEF17F04AEF17F0000E266E2568A3
:102E8400000E146E000E156E000E166E000E176EF8
:102E940026BE57EF17F0265006E12504D8B055EFAB
:102EA40017F057EF17F065EF17F0000E266E000EBF
:102EB400256E000E146E000E156E000E166E000EBA
:102EC400176E000E246E25C02BF02BA06CEF17F0AC
:102ED4006EEF17F071EF17F0168E72EF17F0169E63
:102EE400D8902B30176E28EF16F0120062C072F0E3
:102EF40063C073F064C074F065C075F066C076F0AA
:102F040067C077F068C078F069C079F0000179BFD4
:102F14008EEF17F091EF17F0010E92EF17F0000EFD
:102F2400706F716B70517111D8B49BEF17F09DEFF6
:102F340017F0ADEF17F0791F781F771F761F751FF5
:102F4400741F731F726D000E73237423752376230D
:102F54007723782379233DBEB2EF17F0B4EF17F04F
:102F6400B5EF17F03E923DBEC2EF17F03D5006E1BB
:102F74003C04D8B0C0EF17F0C2EF17F0C8EF17F059
:102F8400000E6D6F010E6C6FCCEF17F03CC06CF04F
:102F94003DC06DF03AC06EF03BC06FF070517111DE
:102FA400D8A4D7EF17F0D9EF17F0E0EF17F03EA44D
:102FB400DEEF17F0E0EF17F0E3EF17F06E07D8A09D
:102FC4006F07000E7B6F4F0E7A6F000E0101836F47
:102FD40069EF18F07A07D8A07B07340E7A25D96EEA
:102FE400010E7B21DA6E72C014F073C015F074C048
:102FF40016F075C017F076C018F077C019F078C0D5
:103004001AF079C01BF00A0E1C6E000E1D6E000E25
:103014001E6E000E1F6E000E206E000E216E000E3E
:10302400226E000E236E8FEC20F014C031F015C018
:1030340032F016C033F017C034F018C035F019C0A0
:1030440036F01AC037F01BC038F031C026F033C058
:1030540027F0B5EC2BF02650300FDF6E00016C0723
:10306400D8A06D076E07D8A06F0772C014F073C0A4
:1030740015F074C016F075C017F076C018F077C05C
:1030840019F078C01AF079C01BF00A0E1C6E000EFD
:103094001D6E000E1E6E000E1F6E000E206E000EC2
:1030A400216E000E226E000E236E0CEC1FF014C075
:1030B40072F015C073F016C074F017C075F018C024
:1030C40076F019C077F01AC078F01BC079F00001CF
:1030D4007BBF75EF18F07B5108E17A05D8A075EF36
:1030E40018F077EF18F0A7EF18F0725173117411FC
:1030F40075117611771178117911D8A484EF18F02D
:1031040086EF18F0ECEF17F06DBF93EF18F06D51E8
:1031140006E16C05D8B091EF18F093EF18F0ECEFDE
:1031240017F06FBF9EEF18F06F5108E16E05D8A03D
:103134009EEF18F0A0EF18F0A7EF18F03EB2A5EF3D
:1031440018F0A7EF18F0ECEF17F070517111D8A434
:10315400AEEF18F0B0EF18F0B7EF18F03EA4B5EFEB
:1031640018F0B7EF18F0D6EF18F07A07D8A07B075D
:1031740070517111D8A4C1EF18F0C3EF18F0C9EF62
:1031840018F0000E6B6F2B0E6A6FCDEF18F0000E67
:103194006B6F2D0E6A6F340E7A25D96E010E7B216A
:1031A400DA6E6000ABF1DFFF60C026F061C027F08B
:1031B400340E7A25286E010E7B21296E6EC02AF00A
:1031C4006FC02BF0C3EC26F026C060F027C061F07E
:1031D40012000001EF51F75D0101AC6F0001F051E5
:1031E400F8590101AD6F0001ED51F35D0101AA6FC2
:1031F4000001EE51F4590101AB6F10EF1AF0ADBFAD
:103204000DEF19F0AD5109E11F0EAC5DD8A00DEF23
:1032140019F00FEF19F032EF19F0ADBF1DEF19F0EF
:103224002C0EAC5D010EAD59D8B01BEF19F01DEF9B
:1032340019F032EF19F00001F05107E17D0EEF5D56
:10324400D8B027EF19F029EF19F032EF19F0000E7A
:103254000001F96F010EFB6F050EFE6F2FEF1AF0E0
:103264000101ABBF3FEF19F0AB5109E11F0EAA5D9D
:10327400D8A03FEF19F041EF19F02FEF1AF0ABBFD0
:103284004FEF19F02C0EAA5D010EAB59D8B04DEFDB
:1032940019F04FEF19F02FEF1AF00001EE5107E18A
:1032A4007D0EED5DD8B059EF19F05BEF19F02FEFFB
:1032B4001AF0000EF96F010EFB6F060EFE6F2FEF72
:1032C4001AF00E0E0001F9656AEF19F06CEF19F0AF
:1032D40072EF19F0000EF96F020EFB6F2FEF1AF068
:1032E400F92B2FEF1AF01D0E0001F9657CEF19F090
:1032F4007EEF19F072EF19F0050EFE19D8A485EFD0
:1033040019F087EF19F092EF19F0F85109E12D0E39
:10331400F75DD8A090EF19F092EF19F0B1EF19F022
:10332400060EFE19D8A499EF19F09BEF19F0A6EF39
:1033340019F0F45109E12D0EF35DD8A0A4EF19F0B2
:10334400A6EF19F0B1EF19F02D0EFC5D010EFD5939
:10335400D8A0AFEF19F0B1EF19F0E7EF19F0150E9F
:103364000101A06F100EA16FF9C0A2F1A36B52EC82
:103374002EF0590E0001F965C2EF19F0C4EF19F0EF
:10338400D2EF19F04A0E0101A06F100EA16F52EC9A
:103394002EF0FF0E0101AF6FF60EAE6FDEEF19F0E7
:1033A400320E0101A06F100EA16F52EC2EF0000E30
:1033B4000101AF6F0A0EAE6F000E0001F96F030E2C
:1033C400FB6F010EFE6F2FEF1AF0060EFE19D8A444
:1033D400EEEF19F0F0EF19F02FEF1AF00101ADBF85
:1033E400FDEF19F0AD5109E11F0EAC5DD8A0FDEF62
:1033F40019F0FFEF19F02FEF1AF029EF19F000017F
:10340400F951D8B408EF1AF00AEF1AF072EF19F074
:10341400000EF96F000EFB6F2FEF1AF00001FB5145
:103424000101A86FA96BA951000AD8B41CEF1AF0C6
:103434002FEF1AF0A851000AD8B401EF19F0010ACD
:10344400D8B463EF19F0030AD8B475EF19F0010A80
:10345400D8B401EF1AF02FEF1AF0F7C0EFF0F8C06C
:10346400F0F0F3C0EDF0F4C0EEF01200F30E2E6EA7
:10347400040E2F6EB50E306E3F0E316EAEC11CF0D1
:10348400AFC11DF0000E1DBEFF0E1E6E1F6E010E9D
:1034940060EC1DF01CC02AF01DC02BF01EC02CF0E7
:1034A4001FC02DF083EC13F02AC079F02BC07AF002
:1034B4002CC07BF02DC07CF008EC23F0F3C083F02B
:1034C400F4C084F00001831F841F834B842B795143
:1034D400835F7A51845BF7518325876FF851842188
:1034E400886F9DEF1AF088BF81EF1AF0885109E1C7
:1034F400290E875DD8A081EF1AF083EF1AF089EFC7
:103504001AF0000E886F280E876F26EF1BF088AF25
:1035140095EF1AF0D80E875DFF0E8859D8B095EF55
:103524001AF097EF1AF0BEEF1AF0FF0E886FD80E5C
:10353400876F26EF1BF0FE51836F846B8451000A62
:10354400D8B4A7EF1AF026EF1BF08351000AD8B4C1
:1035540075EF1AF0010AD8B475EF1AF0030AD8B45B
:1035640075EF1AF0070AD8B475EF1AF0030AD8B445
:1035740075EF1AF026EF1BF026EF1BF087C01CF046
:1035840088C01DF0020E1E6E3AEC1EF04FEF1BF0C9
:1035940087C01CF088C01DF0030E1E6E3AEC1EF0AE
:1035A4004FEF1BF087C014F088C015F0000E176EA3
:1035B400020E166E61EC26F014C085F015C086F07C
:1035C40085C01CF086C01DF0030E1E6E3AEC1EF082
:1035D4004FEF1BF0FF0E1D6EBF0E1C6E000E1E6E15
:1035E4003AEC1EF04FEF1BF0000E1D6E410E1C6EE8
:1035F400000E1E6E3AEC1EF04FEF1BF0020EFB198C
:10360400D8A407EF1BF009EF1BF0C0EF1AF0000E6F
:103614001D6E410E1C6E020E1E6E3AEC1EF04FEF34
:103624001BF0020EFB19D8A41AEF1BF01CEF1BF0C1
:10363400C0EF1AF0FF0E1D6EBF0E1C6E020E1E6E42
:103644003AEC1EF04FEF1BF0FE51836F846B8451F4
:10365400000AD8B430EF1BF04FEF1BF08351000A7F
:10366400D8B4D4EF1AF0010AD8B4CAEF1AF0030A96
:10367400D8B4C0EF1AF0010AD8B4ECEF1AF0070A74
:10368400D8B4F6EF1AF0010AD8B400EF1BF0030A1D
:10369400D8B413EF1BF04FEF1BF0120018C166F003
:1036A40019C167F01AC168F01BC169F02DC066F03A
:1036B4002EC067F02FC068F030C069F0810E316E03
:1036C400FF0E326E66C033F067C034F068C035F068
:1036D40069C036F0180E74EF1BF0D89036323532CC
:1036E40034323332E82E6FEF1BF0335031240001B3
:1036F400646F000E3220656F65BF8AEF1BF0655161
:1037040009E1170E645DD8A08AEF1BF08CEF1BF063
:1037140096EF1BF02DC02DF02EC02EF02FC02FF0F1
:1037240030C030F05AEF1CF065BF9BEF1BF09DEFEB
:103734001BF00EEF1CF064C031F0FF0E326EFF0E72
:10374400336E7F0E346E000E356E3166ACEF1BF0B7
:10375400B4EF1BF035343532343233323232312E59
:10376400A7EF1BF032C060F033C061F034C062F0E8
:1037740035C063F0000160516615316E6151671503
:10378400326E62516815336E63516915346E31506F
:10379400321033103410D8A4D2EF1BF0D4EF1BF046
:1037A400D6EF1BF08CEF1BF066C031F067C032F02F
:1037B40068C033F069C034F0200EE6EF1BF0D890F7
:1037C4003432333232323132E82EE1EF1BF03150F1
:1037D400321033103410D8B4F2EF1BF0F4EF1BF0B6
:1037E400FCEF1BF060516627615167236251682327
:1037F40063516923601D316E611D326E621D336E2B
:10380400631D346E31506617325067173350681792
:103814003450691752EF1CF066C031F067C032F0C3
:1038240068C033F069C034F0200E1EEF1CF0D8904D
:103834003432333232323132E82E19EF1CF0315047
:10384400321033103410D8A42AEF1CF02CEF1CF0E3
:1038540036EF1CF0000E666F000E676F000E686F87
:10386400000E696F52EF1CF0D8906635316E6735E3
:10387400326E6835336E6935346E31503210331020
:103884003410D8B448EF1CF04AEF1CF052EF1CF08F
:10389400000E666F000E676F800E686FBF0E696F53
:1038A40066C02DF067C02EF068C02FF069C030F0FC
:1038B4001200000E0001886F000E876F11EF1DF0DB
:1038C400FD5109E11F0EFC5DD8A06BEF1CF06DEFFC
:1038D4001CF06FEF1CF0010EFE6FECBF7BEF1CF0D1
:1038E400EC5109E1650EEB5DD8A07BEF1CF07DEF98
:1038F4001CF098EF1CF0EBC087F0ECC088F0FD5191
:1039040007E10F0EFC5DD8B08AEF1CF08CEF1CF0C1
:1039140092EF1CF0FC0E8727FF0E882336EF1DF074
:10392400FE0E8727FF0E882336EF1DF0000E886FEA
:10393400640E876F36EF1DF0FD5107E11E0EFC5D2E
:10394400D8B0A7EF1CF0A9EF1CF0ABEF1CF0020EEF
:10395400FE6FFD5109E1960EFC5DD8A0B4EF1CF09A
:10396400B6EF1CF0FFEF1CF0000E716F800E726F4B
:10397400890E736F430E746F330E2E6E330E2F6EDB
:10398400330E306E3F0E316E6A0E836FFF0E846FFE
:10399400FCC085F0FDC086F08351852784518623C1
:1039A40085C01CF086C01DF01E6A1F6A000E60EC04
:1039B4001DF01CC02AF01DC02BF01EC02CF01FC02F
:1039C4002DF083EC13F02AC06DF02BC06EF02CC0E8
:1039D4006FF02DC070F022EC11F06DC079F06EC064
:1039E4007AF06FC07BF070C07CF008EC23F079C0F3
:1039F40087F07AC088F036EF1DF0010E886F130E41
:103A0400876F36EF1DF0FF0E886F830E876F36EFDA
:103A14001DF0000E886FC80E876F36EF1DF0FE5143
:103A2400836F846B8451000AD8B41BEF1DF036EF0A
:103A34001DF08351010AD8B49EEF1CF0030AD8B4D8
:103A440062EF1CF0010AD8B405EF1DF0070AD8B4E0
:103A540005EF1DF0010AD8B40BEF1DF0030AD8B42A
:103A64000BEF1DF036EF1DF0000188BF43EF1DF092
:103A7400910E875D010E8859D8A043EF1DF045EFE4
:103A84001DF049EF1DF0010E886F900E876F88AF0F
:103A940055EF1DF0060E875DFF0E8859D8B055EF1F
:103AA4001DF057EF1DF05BEF1DF0FF0E886F060E43
:103AB400876F87C0EBF088C0ECF01200246E2450AE
:103AC400D8B467EF1DF069EF1DF08BEF1DF01FBE3A
:103AD40070EF1DF06EEF1DF08BEF1DF01CC020F099
:103AE4001DC021F01EC022F01FC023F0201E211E85
:103AF400221E231E202A000E21222222232220C03D
:103B040026F021C027F022C028F023C029F093EF2B
:103B14001DF01CC026F01DC027F01EC028F01FC0D9
:103B240029F01C501D101E101F10D8A49CEF1DF06E
:103B34009EEF1DF0A8EF1DF0000E1C6E000E1D6E12
:103B4400000E1E6E000E1F6E39EF1EF0960E256ECF
:103B5400B2EF1DF0252AD890293228322732263296
:103B6400000E2614206E000E2714216E000E281459
:103B7400226EFE0E2914236E2050211022102310D1
:103B8400D8A4C7EF1DF0C9EF1DF0ACEF1DF0D7EFBF
:103B94001DF0252A010E2626000E2722282229227E
:103BA400D8902932283227322632000E2614206E6D
:103BB400000E2714216E000E2814226EFF0E291405
:103BC400236E2050211022102310D8A4ECEF1DF0F6
:103BD400EEEF1DF0CBEF1DF0F6EF1DF02506D890AB
:103BE400263627362836293628BEFBEF1DF0FDEF92
:103BF4001DF005EF1EF0020E256003EF1EF005EF29
:103C04001EF0F0EF1DF025B00AEF1EF00CEF1EF0D1
:103C14000DEF1EF0289ED890253225C020F0216A91
:103C2400226A236A20C023F0226A216A206A205073
:103C340026122150271222502812235029122450D0
:103C4400D8B427EF1EF029EF1EF031EF1EF01FBE8F
:103C540030EF1EF02EEF1EF031EF1EF0298E26C03D
:103C64001CF027C01DF028C01EF029C01FF0120050
:103C7400000E246E000E236E8EEF1EF01CC021F089
:103C84001DC022F01CC01FF01DC020F01F1E201EEE
:103C94001F4A202A1FC023F020C024F0AFEF1EF0DB
:103CA4001CC021F01DC022F01CC023F01DC024F054
:103CB400AFEF1EF01CC021F01DC022F01CC014F098
:103CC4001DC015F0FF0E176EFE0E166E61EC26F089
:103CD40014C023F015C024F0AFEF1EF01CC021F077
:103CE4001DC022F0000E246E000E236EAFEF1EF0F6
:103CF400000E226E000E216E1CC023F01DC024F0A5
:103D0400AFEF1EF0000E226E000E216E000E246E28
:103D1400000E236EAFEF1EF01E501F6E206A20505F
:103D2400000AD8B498EF1EF084EF1EF01F50000A6A
:103D3400D8B440EF1EF0010AD8B452EF1EF0030AC3
:103D4400D8B45CEF1EF0010AD8B470EF1EF0070A75
:103D5400D8B47AEF1EF084EF1EF022BEBBEF1EF043
:103D6400225009E1420E215CD8A0BBEF1EF0BDEF4A
:103D74001EF0C3EF1EF0000E226E410E216ED5EF31
:103D84001EF022AECFEF1EF0BF0E215CFF0E2258B4
:103D9400D8B0CFEF1EF0D1EF1EF0D5EF1EF0FF0E1E
:103DA400226EBF0E216E24BEE1EF1EF0245009E105
:103DB400290E235CD8A0E1EF1EF0E3EF1EF0E9EF3B
:103DC4001EF0000E246E280E236EFBEF1EF024AEB0
:103DD400F5EF1EF0D80E235CFF0E2458D8B0F5EF93
:103DE4001EF0F7EF1EF0FBEF1EF0FF0E246ED80E50
:103DF400236E600E2124146E010E2220156E9EEC9B
:103E04002CF0650E2324146E010E2420156EB8ECDC
:103E14002CF01200000E256E23BE15EF1FF013EFD9
:103E24001FF027EF1FF0231E221E211E201E1F1E1F
:103E34001E1E1D1E1C6C000E1D221E221F2220226F
:103E4400212222222322010E256E1BBE2EEF1FF0FB
:103E54002CEF1FF040EF1FF01B1E1A1E191E181E18
:103E6400171E161E151E146C000E1522162217227C
:103E7400182219221A221B22010E251A20EE26F0DE
:103E8400070EDE6AE806FDE21C501D101E101F100E
:103E94002010211022102310D8B453EF1FF055EF37
:103EA4001FF0A7EF1FF0010E246E63EF1FF0D890F0
:103EB4001C361D361E361F36203621362236233652
:103EC400242A23AE68EF1FF06AEF1FF059EF1FF0AA
:103ED400D89026362736283629362A362B362C36DD
:103EE4002D361C50145C1D5015581E5016581F506A
:103EF4001758205018582150195822501A58235036
:103F04001B58D8A088EF1FF08AEF1FF09BEF1FF01B
:103F14001C50145E1D50155A1E50165A1F50175A25
:103F24002050185A2150195A22501A5A23501B5AF9
:103F34002680D89023322232213220321F321E3280
:103F44001D321C32242E6AEF1FF02550D8B4ADEF79
:103F54001FF0AFEF1FF0BFEF1FF02D1E2C1E2B1E06
:103F64002A1E291E281E271E266C000E2722282200
:103F740029222A222B222C222D2226C014F027C0EB
:103F840015F028C016F029C017F02AC018F02BC06D
:103F940019F02CC01AF02DC01BF01200000E1D6E7B
:103FA400000E1C6E030E1E6E3AEC1EF0000E000195
:103FB400FE6F000EE86F280EE76FE7C01CF0E8C044
:103FC4001DF0000E1DBEFF0E1E6E1F6E010E60EC76
:103FD4001DF01CC0A8F11DC0A9F11EC0AAF11FC08C
:103FE400ABF1550E0101A06F100EA16FA8C1A2F193
:103FF400A9C1A3F1AAC1A4F1ABC1A5F152EC2EF061
:104004004AEF20F0A8C12AF0A9C12BF0AAC12CF0D4
:10401400ABC12DF0CD0E2E6ECC0E2F6E8C0E306EED
:104024003F0E316E83EC13F02AC0A8F12BC0A9F126
:104034002CC0AAF12DC0ABF1A8C179F0A9C17AF0C6
:10404400AAC17BF0ABC17CF008EC23F079C0E7F0A7
:104054007AC0E8F0E7C018F0E8C019F08BEC25F05E
:10406400250E0101A06F100EA16FE7C0A2F1E8C0F8
:10407400A3F152EC2EF038EC1AF0000E0001FA6FA6
:10408400FA51D8B448EF20F04AEF20F042EF20F084
:10409400A8C16DF0A9C16EF0AAC16FF0ABC170F0F8
:1040A400000E0001716F000E726F7A0E736F430E73
:1040B400746F0FEC24F00001D8A063EF20F065EFDB
:1040C40020F004EF20F0000EE86FFA0EE76FE7C06F
:1040D40018F0E8C019F08BEC25F0010E0101A06F77
:1040E400100EA16FE7C0A2F1E8C0A3F152EC2EF0CC
:1040F400000E0001FA6F81EF20F038EC1AF01D0E6B
:104104000001FA6588EF20F08AEF20F07FEF20F0BD
:10411400010EFE6F38EC1AF01200000E256E1BBE65
:1041240098EF20F096EF20F0AAEF20F01B1E1A1E45
:10413400191E181E171E161E151E146C000E1522AD
:1041440016221722182219221A221B22010E256E6A
:1041540023BEB1EF20F0AFEF20F0C1EF20F0231E1B
:10416400221E211E201E1F1E1E1E1D1E1C6C000E44
:104174001D221E221F2220222122222223221C5001
:104184001D101E101F102010211022102310D8B44F
:10419400CEEF20F0D0EF20F018EF21F0010E246EC6
:1041A400DEEF20F0D8901C361D361E361F36203622
:1041B400213622362336242A23AEE3EF20F0E5EF1E
:1041C40020F0D4EF20F01C50145C1D5015581E50E4
:1041D40016581F501758205018582150195822505B
:1041E4001A5823501B58D8A0FAEF20F0FCEF20F007
:1041F4000CEF21F01C50145E1D50155A1E50165A17
:104204001F50175A2050185A2150195A22501A5A1E
:1042140023501B5AD89023322232213220321F32AB
:104224001E321D321C32242EE5EF20F02550D8B466
:104234001EEF21F020EF21F030EF21F01B1E1A1E9B
:10424400191E181E171E161E151E146C000E15229C
:1042540016221722182219221A221B2214C014F023
:1042640015C015F016C016F017C017F018C018F0D6
:1042740019C019F01AC01AF01BC01BF01200CEECC2
:1042840028F022C0E9F023C0EAF00001E951EB5D17
:10429400856FEA51EC59866F01012C510001E95DEB
:1042A400876F01012D510001EA59886F0A0E2E6EA5
:1042B400D70E2F6EA30E306E3C0E316E000E176EAD
:1042C400020E166E87C014F088C015F061EC26F05B
:1042D40085C083F086C084F014500001835F1550BC
:1042E400845B83C01CF084C01DF0000E1DBEFF0E55
:1042F4001E6E1F6E010E60EC1DF01CC02AF01DC066
:104304002BF01EC02CF01FC02DF083EC13F02AC03C
:1043140079F02BC07AF02CC07BF02DC07CF008EC37
:1043240023F000017951896F8951800A7C0FD8A04C
:104334009EEF21F0A0EF21F0A4EF21F0030E896F8E
:10434400B0EF21F08951800A830FD8B0ACEF21F08F
:10435400AEEF21F0B0EF21F0FD0E896F8951E72710
:10436400000E89BFFF0EE823E8BFC2EF21F0BD0EA7
:10437400E75D020EE859D8A0C2EF21F0C4EF21F0A6
:10438400CAEF21F0020EE86FBC0EE76FDCEF21F0FC
:10439400E8AFD6EF21F0700EE75DFE0EE859D8B015
:1043A400D6EF21F0D8EF21F0DCEF21F0FE0EE86F1C
:1043B400700EE76FE7C018F0E8C019F08BEC25F039
:1043C400E9C02CF1EAC02DF11200000E196E000EA6
:1043D400186E8BEC25F0000E1D6E000E1C6E030E85
:1043E4001E6E3AEC1EF0CBB8FAEF21F0FCEF21F090
:1043F400F5EF21F00001FA51D8B403EF22F005EFF4
:1044040022F0FCEF21F0000EFA6F07EC2FF0E5C06C
:104414001CF0E6C01DF01E6A1F6A000E60EC1DF061
:104424001CC06DF01DC06EF01EC06FF01FC070F098
:104434007B0E0001716F140E726F2E0E736F450E9A
:10444400746F0FEC24F00001D8A02BEF22F02DEFB5
:1044540022F0FCEF21F0D0EC1FF0010E0001FE6F02
:10446400000EFB6FF7C0EFF0F8C0F0F0F3C0EDF012
:10447400F4C0EEF0000EFA6F0001FA51D8B445EF23
:1044840022F047EF22F03EEF22F0000EFA6FCBBA93
:104494004EEF22F050EF22F062EF22F0000EEC6FAC
:1044A400000EEB6F000EE86F000EE76F000E1D6E3E
:1044B400000E1C6E030E1E6E3AEC1EF081EF22F00D
:1044C40018EC29F00009D8B46AEF22F06CEF22F05E
:1044D40075EF22F03E0E0101A06F100EA16F52EC99
:1044E4002EF081EF22F0EBEC18F08CEC23F038EC9A
:1044F4001AF05BEC1CF041EC21F03EEF22F01200CC
:10450400000E1D6E1BBE8BEF22F089EF22F095EF9B
:1045140022F01B1E1A1E191E186C000E19221A22D4
:104524001B22010E1D6E17BE9CEF22F09AEF22F0A3
:10453400A6EF22F0171E161E151E146C000E15226F
:1045440016221722010E1D1A000E1E6E000E1F6E7B
:10455400000E206E000E216E185019101A101B1038
:10456400D8B4B7EF22F0B9EF22F0EFEF22F0010E4A
:104574001C6EC3EF22F0D890183619361A361B3643
:104584001C2A1BAEC8EF22F0CAEF22F0BDEF22F0C6
:10459400D8901E361F36203621361850145C195018
:1045A40015581A5016581B501758D8A0DCEF22F093
:1045B400DEEF22F0E7EF22F01850145E1950155A7E
:1045C4001A50165A1B50175A1E80D8901B321A3292
:1045D400193218321C2ECAEF22F01D50D8B4F5EF50
:1045E40022F0F7EF22F0FFEF22F0211E201E1F1E03
:1045F4001E6C000E1F22202221221EC014F01FC098
:1046040015F020C016F021C017F0120000017B3510
:104614007C35826F8251D8A412EF23F014EF23F07B
:104624001EEF23F0000E796F000E7A6F000E7B6F81
:10463400000E7C6F8BEF23F079C07DF07AC07EF0A2
:104644007BC07FF07CC080F0200E2EEF23F0D8904A
:1046540080337F337E337D33E82E29EF23F07D5181
:10466400816F7B8FFF0E7917FF0E7A17FF0E7B1772
:10467400000E7C17960E825F82BF45EF23F043EF56
:1046840023F05BEF23F08251800A970FD8B04DEFEF
:1046940023F04FEF23F051EF23F014EF23F0D890E1
:1046A4007C337B337A337933823F51EF23F073EFDA
:1046B40023F01F0E826561EF23F063EF23F06BEFAD
:1046C40023F014EF23F0D89079377A377B377C378F
:1046D40082078251D8A471EF23F073EF23F065EFC2
:1046E40023F08151D8B479EF23F07BEF23F083EFEB
:1046F40023F07C1F7B1F7A1F796D000E7A237B23A6
:104704007C2379C079F07AC07AF07BC07BF07CC0DE
:104714007CF012000001FD5107E10F0EFC5DD8B0E2
:1047240096EF23F098EF23F09DEF23F00101324B35
:10473400332BB4EF23F0030EFE19D8B4A4EF23F007
:10474400A6EF23F0B4EF23F0040EFE19D8B4ADEFB6
:1047540023F0AFEF23F0B4EF23F0000E0101336F29
:10476400000E326F0101335109E1330E325DD8A0DE
:10477400BEEF23F0C0EF23F00EEF24F02A4B2B2BD7
:10478400030E0001FE19D8B4CAEF23F0CCEF23F0D6
:10479400E6EF23F0040EFE19D8B4D3EF23F0D5EFDF
:1047A40023F0E6EF23F0F751F35DF851F459D8B054
:1047B400DEEF23F0E0EF23F0E4EF23F0030EFE6FCF
:1047C400E6EF23F0040EFE6FFD5107E1240EFC5DBD
:1047D400D8B0EFEF23F0F1EF23F002EF24F0010162
:1047E4002BBFFEEF23F02D0E2A5D010E2B59D8A00E
:1047F400FEEF23F000EF24F00EEF24F002EF24F09C
:10480400010E0001FE6F000E0101336F000E326FC6
:10481400000E2B6F000E2A6F1200000E00016D15A2
:10482400366E000E6E15376E800E6F15386E7F0E65
:104834007015396E3650371038103910D8A425EF5A
:1048440024F027EF24F02FEF24F0000E6D6F000EFC
:104854006E6F000E6F6F000E706F000E7115366E66
:10486400000E7215376E800E7315386E7F0E741538
:10487400396E3650371038103910D8A444EF24F06C
:1048840046EF24F04EEF24F0000E716F000E726FAD
:10489400000E736F000E746F70AF53EF24F055EF7A
:1048A40024F05EEF24F06D6D6E1FD8B06E2B6F1F79
:1048B400D8B06F2B800E705774AF63EF24F065EFA0
:1048C40024F06EEF24F0716D721FD8B0722B731F39
:1048D400D8B0732B800E7457000E6D1B000E6E1B28
:1048E400000E6F1B800E701B000E711B000E721BDE
:1048F400000E731B800E741B71516D5D72516E59E5
:1049040073516F5974517059D8B08BEF24F08DEFF7
:1049140024F090EF24F0D89091EF24F0D880120086
:104924001CC11EF01DC11FF01EC120F01FC121F0CB
:1049340014C01EF015C01FF016C020F017C021F0DF
:104944001EC018F01FC019F020C01AF021C01BF0BF
:10495400180EB2EF24F0D8901B321A3219321832E2
:10496400E82EADEF24F018501C6E1D6A1C501D106B
:10497400D8A4BFEF24F0C1EF24F0E1EF24F0D890E5
:104984001E34186E1F34196E20341A6E21341B6EB7
:10499400185019101A101B10D8A4D3EF24F0D5EF17
:1049A40024F0DBEF24F0000E156E020E146E10EFEF
:1049B40025F0000E156E030E146E10EF25F01C2862
:1049C4001D10D8A4E8EF24F0EAEF24F00CEF25F052
:1049D4001EC018F01FC019F020C01AF021C01BF02F
:1049E400090ED890183619361A361B36E82EF3EF0E
:1049F40024F0185019101A101B10D8B404EF25F025
:104A040007EF25F0010E08EF25F0000E146E156A6D
:104A140010EF25F0000E156E040E146E120014C073
:104A24001BF015C01CF016C01DF017C01EF01806B0
:104A3400D8A01906182806E11928D8A424EF25F0CF
:104A440026EF25F033EF25F0000E156E000E146EE0
:104A54008AEF25F01B4A1C2A1D4A1E2A1806D8A0D4
:104A6400190660006FF0D9FF600073F0DAFFDF50C1
:104A7400D8B43FEF25F041EF25F074EF25F0600046
:104A840077F0F6FF60007BF0F7FFF86A0800F55056
:104A94000009D8B450EF25F052EF25F074EF25F05B
:104AA40018501910D8B459EF25F05BEF25F074EFC6
:104AB40025F060006FF0D9FF600073F0DAFFDF507B
:104AC4001A6E600077F0F6FF60007BF0F7FFF86A7B
:104AD4000800F5501A18D8B472EF25F074EF25F0D9
:104AE4002CEF25F060006FF0D9FF600073F0DAFF5F
:104AF400DF501A6E600077F0F6FF60007BF0F7FF7E
:104B0400F86A0800F5501A5C146E156AD8A01506E8
:104B1400120019BE97EF25F0195009E1280E185C10
:104B2400D8A097EF25F099EF25F0B9EF25F019BE3D
:104B3400A5EF25F0BD0E185C020E1958D8A0A5EFFC
:104B440025F0A7EF25F0ABEF25F0020E196EBC0E91
:104B5400186E18C014F019C015F0ECEC2CF0000E0F
:104B6400156E000E146ED2EC2CF0FBEF25F019AE8E
:104B7400C5EF25F0D90E185CFF0E1958D8B0C5EF53
:104B840025F0C7EF25F0EFEF25F019AED3EF25F0B0
:104B9400700E185CFE0E1958D8B0D3EF25F0D5EF7F
:104BA40025F0D9EF25F0FE0E196E700E186E000E6A
:104BB400156E000E146EECEC2CF018C01AF019C02F
:104BC4001BF01A1E1B1E1A4A1B2A1AC014F01BC003
:104BD40015F0D2EC2CF0FBEF25F0000E156E000E54
:104BE400146EECEC2CF0000E156E000E146ED2EC6C
:104BF4002CF01200000EBE6E000EBD6E240EBA6EB6
:104C0400000EBB6E000EBC6E070EC66EC00EC26EEA
:104C1400F70EC36EC468C5681F0E3A01706F6069F1
:104C2400C00E506F070E806F7F0E406F000E716FC5
:104C3400000E816F000E516F000E416F000E616F08
:104C4400000E5A6F000E5B6F000E6A6F000E6B6FE2
:104C5400000E7A6F000E7B6F000E826F000E426FA3
:104C6400000E526F000E626F000E726F436953693B
:104C740063697369070E836F44695469646974696D
:104C84000F0E846F1F0ECF6F090EDC6F0E0E016FB7
:104C94000A0EE56F0D0E006F1D0EC96F100E046F26
:104CA400070ED96F090ED16F0F0E036F130E0B6F22
:104CB400080EDB6F080ED26F1E0ED06F1200000EAE
:104CC400196E17BE6AEF26F068EF26F070EF26F033
:104CD400166C171ED8B0172A010E196E15BE77EF81
:104CE40026F075EF26F07DEF26F0146C151ED8B073
:104CF400152A010E191A000E1B6E000E1A6E16509C
:104D04001710D8B488EF26F08AEF26F0B2EF26F019
:104D1400010E186E92EF26F0D89016361736182A20
:104D240017AE97EF26F099EF26F08EEF26F0D89085
:104D34001A361B361650145C17501558D8A0A5EF18
:104D440026F0A7EF26F0ACEF26F01650145E1750AD
:104D5400155A1A80D89017321632182E99EF26F069
:104D64001950D8B4B8EF26F0BAEF26F0BEEF26F00B
:104D74001A6C1B1ED8B01B2A1AC014F01BC015F0E5
:104D840012003EA0C8EF26F0CAEF26F0D4EF26F0BA
:104D940028C01FF029C020F026C021F027C022F02F
:104DA40071EC2BF02BBED9EF26F0DBEF26F0E1EF10
:104DB40026F02AC02FF02BC030F0E5EF26F0000ECD
:104DC400306E000E2F6E000E2E6E000E2D6EF7EF5D
:104DD40026F0000E176E200E166E26C018F027C09F
:104DE40019F083EC28F02D4A2E2A2F502D5C2E50DA
:104DF400800A2C6E3050800A2C58D8A004EF27F07B
:104E040006EF27F0EBEF26F03EB00BEF27F00DEFA7
:104E140027F017EF27F028C01FF029C020F026C084
:104E240021F027C022F071EC2BF028C014F029C027
:104E340015F0D5EC2BF02F501424266E305015208D
:104E4400276E1200000E4524D96EDA6A010EDA22AA
:104E5400000EDF6E3D01F9A732EF27F034EF27F0A3
:104E640048EF27F0000E4524D96EDA6A010EDA22E3
:104E74000101DF8202D848EF27F00500FA6E945151
:104E8400FD6E9551FE6EFF6AFA5012003D01F9A3C2
:104E94004EEF27F050EF27F064EF27F0000E452483
:104EA400D96EDA6A010EDA220101DF8402D864EFD6
:104EB40027F00500FA6E9251FD6E9351FE6EFF6A63
:104EC400FA501200000E4524D96EDA6A010EDA2275
:104ED400DF50D8B470EF27F072EF27F081EF27F09E
:104EE40002D87FEF27F00500FA6E01019051FD6EA4
:104EF4009151FE6EFF6AFA50120083EF27F026EC00
:104F04002EF01200000E196E15BE8DEF27F08BEFF8
:104F140027F093EF27F0146C151ED8B0152A010E54
:104F2400196E17BE9AEF27F098EF27F09EEF27F03F
:104F3400166C171ED8B0172A16501710D8B4A5EF40
:104F440027F0A7EF27F0CBEF27F0010E186EAFEF95
:104F540027F0D89016361736182A17AEB4EF27F074
:104F6400B6EF27F0ABEF27F01650145C1750155826
:104F7400D8A0BFEF27F0C1EF27F0C5EF27F01650F8
:104F8400145E1750155AD89017321632182EB6EFF1
:104F940027F01950D8B4D1EF27F0D3EF27F0D7EF8B
:104FA40027F0146C151ED8B0152A14C014F015C0BF
:104FB40015F01200000E14141C6E000E15141D6E54
:104FC400800E16141E6E7F0E17141F6E1C501D10BB
:104FD4001E101F10D8A4F1EF27F0F3EF27F0FBEF1A
:104FE40027F0000E146E000E156E000E166E000EE5
:104FF400176E000E18141C6E000E19141D6E800E10
:105004001A141E6E7F0E1B141F6E1C501D101E10D2
:105014001F10D8A410EF28F012EF28F01AEF28F090
:10502400000E186E000E196E000E1A6E000E1B6E26
:10503400185014180FE1195015180CE11A501618CD
:1050440009E11B501718D8B42AEF28F02CEF28F0E8
:105054002FEF28F0D89030EF28F0D88012003901D3
:105064009397480E146E4E0E156E20EC2FF03901F6
:105074009399260E146E570E156E1BEC2FF0000E2E
:105084003D01EC6F000EED6F000EEE6F000EEF6F42
:10509400000EF06F000EF16FB00EF26F800EF36F22
:1050A400000EF46F8A0EF56F000EF66F000EF76FA8
:1050B400000EF86F000EF96F000EFA6FA00E146E5A
:1050C4005E0E156E2AEC2FF09E0E146E5E0E156E9B
:1050D40025EC2FF0900E146E5E0E156E2FEC2FF053
:1050E400000E426E000E476E000E466E080E4C6EA9
:1050F400000E456E000E446E000E436E3901938718
:10510400120018501910D8B48AEF28F08CEF28F048
:1051140095EF28F018501910D8A493EF28F095EFC4
:1051240028F09AEF28F0165016EC2FF0CDEF28F067
:1051340020EE04F01850D9261950DA22DE50DE1081
:10514400D8B4A7EF28F0A9EF28F0C4EF28F020EE98
:1051540004F01850D9261950DA2210EE02F0185033
:10516400E1261950E222DE50E65CE650800A1E6E0B
:10517400DE50800A1E58D8B0C2EF28F0C4EF28F0E1
:10518400CDEF28F020EE02F01850D9261950DA227B
:10519400DE2A000EDD221200000E256E000E246EA3
:1051A400485049104A104B10D8B4DBEF28F0DDEF1B
:1051B40028F013EF29F03C0160ABE3EF28F0E5EFB2
:1051C40028F0FDEF28F0200E146EA10E156E070EC8
:1051D400166E000E176E48C018F049C019F04AC088
:1051E4001AF04BC01BF082EC22F014C024F015C05E
:1051F40025F013EF29F0E00E146E5E0E156EF80E16
:10520400166EFF0E176E48C018F049C019F04AC058
:105214001AF04BC01BF082EC22F014C024F015C02D
:1052240025F024C022F025C023F012000101304BE8
:10523400312BF50E305D010E3159D8A024EF29F041
:1052440026EF29F05FEF29F0000E316F000E306F6A
:1052540007EC2FF0E5C01CF0E6C01DF01E6A1F6AC3
:10526400000E60EC1DF01CC06DF01DC06EF01EC081
:105274006FF01FC070F07B0E0001716F140E726F1F
:105284002E0E736F450E746F0FEC24F00001D8B02E
:105294004EEF29F050EF29F05FEF29F0000EEC6F8C
:1052A400000EEB6F000E1D6E000E1C6E030E1E6EC4
:1052B4003AEC1EF0010E60EF29F0000E12009CC1C2
:1052C400E3F09DC1E4F0000E0101296F000E286F88
:1052D40083EF29F09AC1C7F09BC1C8F0E30E000127
:1052E400C96F000ECA6F9EC1CBF09FC1CCF091EC88
:1052F4000EF00001C751010128270001C851010126
:10530400292360008FF3F6FF600093F3F7FFF86A38
:105314000800F5500009D8A492EF29F094EF29F081
:105324006CEF29F028C19AF129C19BF1120016C033
:105334001AF017C01BF014C01CF015C01DF01A5051
:10534400186E1B50196E1A4A1B2A600063F0F6FF90
:10535400600067F0F7FF000EF86E600073F0D9FF8D
:10536400600077F0DAFF1C4A1D2A0F0EF76403D0A1
:105374000800F55007D06F00DBFFE1FF6F00DFFF8F
:10538400E2FFE750DF6EDF50D8A4CBEF29F0CDEF7A
:1053940029F0A1EF29F012009C0EF66E5E0EF76E56
:1053A400000EF86E09006F00D4FFAEF109006F0023
:1053B400D4FFAFF1A60EF66E5E0EF76E000EF86E19
:1053C40009006F00D4FFFEF000EE00F1840EEE6AD7
:1053D400E806FDE100EEE5F0190EEE6AE806FDE1EF
:1053E40000EE3AF0120EEE6AE806FDE1080ED56E04
:1053F400000ED66E000ED76E00019EEF2EF0BF0E8B
:105404001C6EFF0E1D6E1AC01EF01BC01FF01C5038
:105414001E261D501F221F500AE11A0E1E5CD8A022
:1054240016EF2AF019EF2AF0010E1AEF2AF0000EF7
:10543400206E216A20502110D8B423EF2AF025EFE2
:105444002AF02CEF2AF0200E1A101A6E1B501B6E35
:1054540030EF2AF01AC01AF01BC01BF01200146EB1
:105464004C50D8B438EF2AF03AEF2AF032EF2AF051
:10547400390193B940EF2AF042EF2AF047EF2AF0BE
:10548400600053F0EAFD5DEF2AF09399100E472473
:10549400D96EDA6A010EDA22600053F0DFFF472A80
:1054A400070E476458EF2AF05AEF2AF05CEF2AF00F
:1054B400000E476E4C0693891200000E3E01DE6F0B
:1054C400000EDF6F000EE06F000EE16F000EE46F60
:1054D400000EE56F000EEA6F000EEC6F000EF16F28
:1054E400580EF36F020EF46F000EF56F000EF66F98
:1054F400000EF76F000EF96F000EFA6F000EFB6FCF
:10550400000EFC6F000EFD6F000EFE6F1F0EFF6F8E
:06551400840EF86F120086
:10551C003901A19F3F0118510101246F3F0119511D
:10552C000101256F3F011A510101266F276B3C01C8
:10553C0060ABA3EF2AF0A5EF2AF0AEEF2AF0010E34
:10554C0001012027000E212322232323B7EF2AF069
:10555C00FF0E01012027FF0E2123FF0E2223FF0E39
:10556C0023231100D28A000ED2BE010E146ED29EDD
:10557C00550ED46EAA0ED46ED490000ED76E000EBB
:10558C00D66E080ED56E550ED46EAA0ED46ED4807F
:10559C0014B002D0D29E01D0D28E39018399839758
:1055AC00818F818B818D8A81888F8791898312006D
:1055BC00B8EC2AF07AEC2EF0FCEC25F0FBEC2EF09B
:1055CC00CCEC2DF05FEC2AF0FAEC2DF06DEC2DF01C
:1055DC00CBEC2EF0BDEC2EF0E3EC2EF0B5EC2DF078
:1055EC0010EC2EF065EC2CF0EFEC2EF003EC2BF025
:1055FC00D7EC2EF031EC28F01200C00E9B6E000E92
:10560C009C6E050E9D6E000E996E000E986E390103
:10561C00A89D98506F0064FE16F0176A16C017F01C
:10562C00166A161001018A6F17508B6F3901A89FEB
:10563C00988F5C0E146E5D0E156E34EC2FF0030E0D
:10564C009A6E12003901A19D3F011551486E1651F9
:10565C00496E17514A6E4B6A3C0160AB38EF2BF028
:10566C003AEF2BF043EF2BF0010E01012027000E37
:10567C002123222323234CEF2BF0FF0E01012027A3
:10568C00FF0E2123FF0E2223FF0E23231100000EF9
:10569C0000017D1B000E7E1B000E7F1B800E801BED
:1056AC0079C06DF07AC06EF07BC06FF07CC070F08A
:1056BC007DC071F07EC072F07FC073F080C074F05A
:1056CC0022EC11F06DC079F06EC07AF06FC07BF0F7
:1056DC0070C07CF01200000E256E000E246E82EF5E
:1056EC002BF023C016F0176A21C018F022C019F055
:1056FC0083EC28F0244A252A24501F24D96E2550E7
:10570C002020DA6EDF50236E2350D8A490EF2BF0BC
:10571C0092EF2BF077EF2BF01200080E4C6099EF04
:10572C002BF09BEF2BF0B2EF2BF0100E4624D96E22
:10573C00DA6A010EDA22DF503D01EA6F462A070EC3
:10574C004664ABEF2BF0ADEF2BF0AFEF2BF0000E70
:10575C00466E4C2AB4EF2BF039019399120027BEF8
:10576C00C2EF2BF0275006E12604D8B0C0EF2BF087
:10577C00C2EF2BF0D0EF2BF026C028F027C029F079
:10578C00281E291E284A292A28C026F029C027F0BD
:10579C00D4EF2BF026C026F027C027F0120014C03F
:1057AC0016F015C017F0DDEF2BF0144A152A600027
:1057BC0053F0D9FF600057F0DAFFDF50D8A4E9EFBF
:1057CC002BF0EBEF2BF0DBEF2BF01650145C146E80
:1057DC0017501558156E12006F0060FF11F0010183
:1057EC0096519711D8B4FDEF2BF0FFEF2BF00BEF88
:1057FC002CF002D80BEF2CF00500FA6E9651FD6ED2
:10580C009751FE6EFF6AFA501200600047F0D8FF05
:02581C00110079
:105820006F0060FF12F0010198519911D8B41BEF7D
:105830002CF01DEF2CF029EF2CF002D829EF2CF0E2
:105840000500FA6E9851FD6E9951FE6EFF6AFA508E
:10585000120060004BF0D8FF1100BF0E166EFF0E55
:10586000176E14C018F015C019F0165018261750EE
:10587000192219500AE11A0E185CD8A042EF2CF038
:1058800045EF2CF0010E46EF2CF0000E146E156A59
:1058900012001450151016101710D8B452EF2CF037
:1058A00054EF2CF05CEF2CF0000E141A000E151AB9
:1058B000000E161A800E171A14C014F015C015F039
:1058C00016C016F017C017F01200000EA76E000EDB
:1058D000A86E050EA96E000EA56E000EA46E39010D
:1058E000A69DA4506F0094FE14F0156A14C015F024
:1058F000146A14100101866F1550876F010EA66E91
:02590000120093
:105904006F0060FF13F03901A791404A412A4150CA
:1059140009E10A0E405CD8A092EF2CF094EF2CF031
:105924009AEF2CF0E3EC2DF0000E416E000E406E69
:1059340060004FF0D8FF110014C016F015C017F026
:10594400D89017321632D890173216321650696E24
:1059540014C016F0030E1616060E176ED8901636DF
:10596400172EB0EF2CF01650686E120014C016F00B
:1059740015C017F0D89017321632D8901732163255
:1059840016506D6E14C016F0030E1616060E176E22
:10599400D8901636172ECAEF2CF016506C6E1200E3
:1059A40014C016F015C017F0D89017321632D890DC
:1059B400173216321650616E14C016F0030E161606
:1059C400060E176ED8901636172EE4EF2CF01650EC
:1059D400606E120014C016F015C017F0D89017327C
:1059E4001632D890173216321650656E14C016F05F
:1059F400030E1616060E176ED8901636172EFEEFE7
:105A04002CF01650646E12003901A9936F00D0FD7A
:105A140003F06F00D4FD04F003C001F004C002F0F1
:105A240002D81FEF2DF00500FA6E01018E51FD6EB4
:105A34008F51FE6EFF6AFA50120011003901AA91CB
:105A44006F00C0FD07F06F00C4FD08F007C005F04B
:105A540008C006F002D839EF2DF00500FA6E0101F6
:105A64008C51FD6E8D51FE6EFF6AFA5012001100CA
:105A7400186E600063F0F1FE3E01F88FF89DF88126
:105A8400F8B147EF2DF049EF2DF042EF2DF0F05132
:105A9400176E166AEF511624146E000E1720156E39
:025AA4001200EE
:105AA8003901A89F010188518911D8B45EEF2DF002
:105AB80060EF2DF06CEF2DF002D86CEF2DF00500A3
:105AC800FA6E8851FD6E8951FE6EFF6AFA50120017
:105AD8001100800E3F011E6F420E1F6F000E206FD7
:105AE800040E216F000E236F000E226F010E1D6F32
:105AF8001C691B693901918B918F918D3F011F8F13
:105B08001200CDAE8AEF2DF08CEF2DF092EF2DF034
:105B180001C0F5F002C0F6F09CEF2DF00001F55140
:105B2800015CF76FF6510258F86FD890F833F733E5
:105B38001200CDACA2EF2DF0A4EF2DF0AAEF2DF0BE
:105B480005C0F1F006C0F2F0B4EF2DF00001F151FC
:105B5800055CF36FF2510658F46FD890F433F333C1
:105B68001200830E726E000E736E000E716E000EC0
:105B7800706E3A0E146E5B0E156E3EEC2FF03F0100
:105B88005E513F0B80095E6F3901AA919A8112001C
:105B9800830E766E000E776E000E756E000E746EB4
:105BA8000A0E146E5B0E156E43EC2FF03F015E512A
:105BB800CF0B20095E6F3901A99399831200010167
:105BC80084518511D8B4EBEF2DF0EDEF2DF0F9EFFE
:105BD8002DF002D8F9EF2DF00500FA6E8451FD6E14
:105BE8008551FE6EFF6AFA5012001200010EA26E75
:105BF800000EA16E000EA36EF90E9F6E000E9E6E33
:105C08003901A7919781A20E146E5E0E156E39ECBC
:105C18002FF0E00EA06E1200000E3C01616F030E23
:105C2800626F020E636F000E646F000E656F020EE6
:105C3800666F080E676F000E686F000E696F850E3D
:105C4800606F1200080E4524D96EDA6A010EDA2256
:105C58006F00A3F7DFFF452A070E456436EF2EF0E5
:105C680038EF2EF03AEF2EF0000E456E432A120060
:105C78009AA441EF2EF043EF2EF04CEF2EF09A90BD
:105C88000A50996E600027F098FF9A8051EF2EF025
:105C98000A50996E600027F098FF1200A20E0101C9
:105CA800A66F010EA76F000E9A6F000E9B6FA0C122
:105CB8009CF1A1C19DF1A60E9E6F010E9F6F61EC34
:105CC80029F012003901A19B000E486E000E496EA2
:105CD800000E4A6E000E4B6E000E0101246F000E7E
:105CE800256F000E266F000E276F1100000E390178
:105CF800C06F000EC16F000EC26F000EC36F000EA2
:105D0800C46F000EC56F000EC66F000EC76F12007D
:105D18009A826F0060FE10F06F0064FE0FF00F5063
:105D28000B6E10500D6E0BC00EF00DC009F00EC0BA
:105D38000AF01200DEEC2AF0D28ED28C960E146E87
:105D48005E0E156E39EC2FF0E7EC21F0A8EF2EF07F
:105D580057EF00F08CEC2EF009C0FCF00AC0FDF003
:105D68000001D890FD33FC330FEC2FF03901A89FC8
:105D78001200050EAE6E000EAD6E000EAF6EAB6873
:105D8800000EAA6E3901A495B00EAC6E1200800EFA
:105D9800626E000E616E000E606E3F015F513F0B38
:105DA80080095F6F1200800E666E000E656E000E31
:105DB800646E3F015F51CF0B20095F6F1200800EA8
:105DC8006A6E590E696E400E686E3F015F51F30BA3
:105DD80004095F6F1200800E6E6E590E6D6E400ED4
:105DE8006C6E3F015F51FC0B01095F6F1200600E82
:105DF8003901D96F000EDB6F000EDD6F080EDF6F03
:105E0800000EDE6F1200220E3AEC2DF014C0E5F001
:105E180015C0E6F012008AC109F08BC10AF03CEC0B
:105E28002EF01200156E155031EC2AF0120014C035
:105E380096F115C097F1120014C098F115C099F1A8
:105E4800120014C092F115C093F1120014C094F11D
:105E580015C095F1120014C090F115C091F112000F
:105E680014C088F115C089F1120014C084F115C05E
:105E780085F1120014C08CF115C08DF1120014C008
:105E88008EF115C08FF1120026EC2EF012000001E1
:0F5E9800FA2B1200F6FF12001200120011000187
:020000040020DA
:10000000FF0FFF0FFF0FFF0FFF0FFF0FFF0FFF0F80
:020000040030CA
:0A0000008CFFFFFF9FFFFFFFFFFFD3
:00000001FF
