:0400000057EF00F0C6
:100008008811881188118811881188118811881120
:10001800881188118811881188111211CD0F1E0FAF
:100028008811881188118811881188118811881100
:10003800881188118811470F330F8811881188118A
:1000480088118811881188112B008811881188114E
:1000580088118811881188118811881188118811D0
:1000680088118811881188118811881188118811C0
:100078005B0F88112B008811881188112B002B0029
:100088002B002B002B002B002B002B008811F20FCC
:100098008811820F881188112B002B002B002B0050
:0A00A800950F8811FF00A3EF20F070
:10100000004F7574207C20644C3D202564207C209A
:1010100064523D202564002020204375727665527D
:10102000696768740020202043757276654C656698
:101030007400416674657243757276650A0064696E
:1010400073744C3D2025640A0064697374523D201A
:1010500025640A0042566F6C743A2025750A004FC9
:10106000757443757276650A00496E4375727665CC
:031070000A000073
:1010740000019251800B9B6F925192259D6F91AF0D
:1010840046EF08F048EF08F049EF08F09D819D51C4
:10109400D8B44FEF08F051EF08F066EF08F09D293F
:1010A400D8A457EF08F059EF08F061EF08F0000EEC
:1010B4008F6F000E906F000E916F000E926F918FE4
:1010C400000E926F6EEF08F0000E8F6F000E906F9F
:1010D400000E916F000E926F9651800B9C6F9B5186
:1010E4009C19D8B478EF08F07AEF08F07BEF08F099
:1010F4009B8D965196259C6F95AF83EF08F085EFF5
:1011040008F086EF08F09C819C51D8B48CEF08F06D
:101114008EEF08F0A3EF08F09C29D8A494EF08F010
:1011240096EF08F09EEF08F0000E936F000E946F98
:10113400000E956F000E966F958F000E966FABEFB5
:1011440008F0000E936F000E946F000E956F000E62
:10115400966F9D519C5DD8B0B2EF08F0B4EF08F0E3
:10116400DBEF08F09BADB9EF08F0BBEF08F0BDEF83
:1011740008F0800E9B1B9DC09EF09CC09DF09EC0FD
:101184009CF08FC09EF093C08FF09EC093F090C0EF
:101194009EF094C090F09EC094F091C09EF095C0D3
:1011A40091F09EC095F092C09EF096C092F09EC0C1
:1011B40096F0000E9E6F9D519CC097F0986B975FC0
:1011C400000E985B98BFF0EF08F0985109E11A0EF1
:1011D400975DD8A0F0EF08F0F2EF08F029EF09F0DE
:1011E4008F51901191119211D8A4FBEF08F0FEEFEA
:1011F40008F0010EFFEF08F0000E9E6F000E8F6FD7
:10120400000E906F000E916F000E926F9CC09DF0C7
:1012140032EF09F09EA111EF09F013EF09F019EF75
:1012240009F0D8909E3101099E6F1BEF09F0D89008
:101234009E338FA120EF09F022EF09F023EF09F08C
:101244009E8F92359233913390338F339D2B9C51E3
:101254009D5DD8A030EF09F032EF09F00CEF09F0F2
:101264009BBD37EF09F039EF09F079EF09F09D5193
:10127400D8A43FEF09F041EF09F04BEF09F0000E5D
:101284008F6F000E906F000E916F000E926F9AEFA9
:101294000AF093518F27945190239551912396519D
:1012A400922392A158EF09F05AEF09F006EF0AF0E1
:1012B4009EA15FEF09F061EF09F067EF09F0D890A4
:1012C4009E3101099E6F69EF09F0D8909E338FA17A
:1012D4006EEF09F070EF09F071EF09F09E8F92350F
:1012E4009233913390338F339D2B06EF0AF0935151
:1012F4008F5D94519059955191599251800A976FED
:101304009651800A9759D8B08AEF09F08CEF09F00A
:10131400B7EF09F08F51935D976F90519459986F7F
:1013240091519559996F925196599A6FFF0E97253D
:101334008F6FFF0E9821906FFF0E9921916FFF0E12
:101344009A21926F800E9B1B9E6D9E51D8A4ADEF87
:1013540009F0AFEF09F0BFEF09F0010E8F27000E7F
:10136400902391239223BFEF09F093518F5F9451FF
:10137400905B9551915B9651925B8F5190119111B5
:101384009211D8A4C8EF09F0CAEF09F0FFEF09F0F1
:101394009E51D8A4D0EF09F0D2EF09F0FFEF09F085
:1013A400000E8F6F000E906F000E916F000E926F03
:1013B4009AEF0AF0D8908F379037913792379EAFD3
:1013C400E6EF09F0E8EF09F0E9EF09F08F819EA15B
:1013D400EEEF09F0F0EF09F0F4EF09F0D8809E3752
:1013E400F6EF09F0D8909E379D51D8B4FCEF09F080
:1013F400FEEF09F0FFEF09F09D0791AF04EF0AF04B
:1014040006EF0AF0DCEF09F0000E9C6F9EAF0DEFC3
:101414000AF00FEF0AF027EF0AF09EC097F07F0E54
:101424009717D8B418EF0AF01AEF0AF01EEF0AF073
:10143400010E9C6F27EF0AF08FA123EF0AF025EF2E
:101444000AF027EF0AF01AEF0AF09C51D8B42DEFF6
:101454000AF02FEF0AF05AEF0AF0010E8F27000E60
:1014640090239123922392A13AEF0AF03CEF0AF0E1
:101474005AEF0AF08FC097F090C098F091C099F09D
:1014840092C09AF09A359A3399339833973397C028
:101494008FF098C090F099C091F09AC092F09D2975
:1014A400D8B457EF0AF059EF0AF05AEF0AF09D2B1F
:1014B4009D29D8B460EF0AF062EF0AF06AEF0AF0EF
:1014C4009D51D8A468EF0AF06AEF0AF07CEF0AF0A5
:1014D400000E8F6F000E906F000E916F000E926FD2
:1014E4009D51D8A478EF0AF07AEF0AF07CEF0AF065
:1014F400000E9B6F9DA181EF0AF083EF0AF086EF47
:101504000AF0918F87EF0AF0919FD8909D31926FE6
:101514009BAF8FEF0AF091EF0AF092EF0AF0928FEF
:101524008FC08FF090C090F091C091F092C092F073
:10153400120000017951800B826F79517925886FEF
:1015440078AFA7EF0AF0A9EF0AF0AAEF0AF08881B2
:101554008851D8B4B0EF0AF0B2EF0AF0C5EF0AF040
:101564008829D8A4B8EF0AF0BAEF0AF0C2EF0AF05B
:10157400000E766F000E776F000E786F000E796F95
:10158400788FCDEF0AF0000E766F000E776F000EA5
:10159400786F000E796F7D51800B821B7D517D2504
:1015A400836F7CAFD8EF0AF0DAEF0AF0DBEF0AF0D2
:1015B40083818351D8B4E1EF0AF0E3EF0AF0F6EF48
:1015C4000AF08329D8A4E9EF0AF0EBEF0AF0F3EF6D
:1015D4000AF0000E7A6F000E7B6F000E7C6F000E17
:1015E4007D6F7C8FFEEF0AF0000E7A6F000E7B6F2A
:1015F400000E7C6F000E7D6F8351D8B404EF0BF0A6
:1016040006EF0BF00EEF0BF08851D8A40CEF0BF0A3
:101614000EEF0BF018EF0BF0000E766F000E776FE5
:10162400000E786F000E796FC2EF0CF07C517603D8
:101634006F00CCFF8DF06F00D0FF8EF08D51846F62
:10164400856B866B876B8E51896F8A6B8B6B8C6B0A
:101654007B5177036F00CCFF8DF06F00D0FF8EF0CD
:101664008D518427000E8523862387238E51892755
:10167400000E8A238B238C237A5178036F00CCFFCE
:101684008DF06F00D0FF8EF08D518427000E8523DE
:10169400862387238E518927000E8A238B238C234C
:1016A40086C087F085C086F084C085F0846B7A514B
:1016B40077036F00CCFF8DF06F00D0FF8EF08D515B
:1016C40084278E518523000E8623000E87237B51A9
:1016D40076036F00CCFF8DF06F00D0FF8EF08D513C
:1016E40084278E518523000E8623000E872386C00F
:1016F40087F085C086F084C085F0846B7A517603C8
:101704006F00CCFF8DF06F00D0FF8EF08D518427D9
:101714008E518523000E8623000E87237C51770388
:101724006F00CCFF8DF06F00D0FF8EF08D518927B4
:101734008E518A23000E8B23000E8C237B51780359
:101744006F00CCFF8DF06F00D0FF8EF08D51892794
:101754008E518A23000E8B23000E8C237C51780338
:101764006F00CCFF8DF06F00D0FF8EF08D517E6F37
:101774008E517F6F806B816B80C081F07FC080F061
:101784007EC07FF07E6B7E5189277F518A238051F2
:101794008B2381518C2384C07EF085C07FF086C06A
:1017A40080F087C081F0190EDDEF0BF0D890813303
:1017B40080337F337E33E82ED8EF0BF07E518927B8
:1017C4007F518A2380518B2381518C2386C087F0DB
:1017D40085C086F084C085F0846B835188C07EF018
:1017E4007F6B7E27000E7F23820E7E258D6FFF0E7A
:1017F4007F218E6F13EF0CF0D89089378A378B379F
:101804008C3787AF08EF0CF00AEF0CF00BEF0CF0FD
:101814008981D89084378537863787378D07D8A054
:101824008E078BAF18EF0CF01AEF0CF0FEEF0BF0F5
:10183400000E836F87AF21EF0CF023EF0CF047EF1E
:101844000CF0FF0E84157E6FFF0E85157F6FFF0E63
:101854008615806F7F0E8715816F7E517F118011F1
:101864008111D8B438EF0CF03AEF0CF03EEF0CF0E5
:10187400010E836F47EF0CF089A143EF0CF045EFA5
:101884000CF047EF0CF03AEF0CF08351D8B44DEF65
:101894000CF04FEF0CF073EF0CF0010E8927000EE3
:1018A4008A238B238C238CA15AEF0CF05CEF0CF071
:1018B40073EF0CF089C07EF08AC07FF08BC080F09B
:1018C4008CC081F08135813380337F337E337EC099
:1018D40089F07FC08AF080C08BF081C08CF08D4B82
:1018E4008E2B8EBF7EEF0CF08E5108E18D29D8A08F
:1018F4007EEF0CF080EF0CF08AEF0CF0000E896F95
:10190400000E8A6F800E8B6F7F0E8C6FB8EF0CF019
:101914008EBF97EF0CF08E5106E18D05D8B095EF90
:101924000CF097EF0CF0A3EF0CF0000E896F000E93
:101934008A6F000E8B6F000E8C6F000E826FB8EFF3
:101944000CF08DC088F0FF0E8917FF0E8A177F0EEA
:101954008B17000E8C1788A1B2EF0CF0B4EF0CF0CB
:10196400B5EF0CF08B8FD89088318C6F82518C132B
:1019740089C076F08AC077F08BC078F08CC079F09B
:1019840012007CC094F07DC095F07EC096F07FC0BC
:1019940097F080C098F081C099F082C09AF083C01B
:1019A4009BF000019BBFD9EF0CF0DCEF0CF0010EB3
:1019B400DDEF0CF0000E926F936B92519311D8B43B
:1019C400E6EF0CF0E8EF0CF0F8EF0CF09B1F9A1F19
:1019D400991F981F971F961F951F946D000E9523AE
:1019E40096239723982399239A239B23D7BFFDEF0C
:1019F4000CF0FFEF0CF000EF0DF02392D7BF0DEFCA
:101A04000DF0D75106E1D605D8B00BEF0DF00DEF70
:101A14000DF013EF0DF0000E8F6F010E8E6F17EFA8
:101A24000DF0D6C08EF0D7C08FF0D4C090F0D5C0E2
:101A340091F092519311D8A422EF0DF024EF0DF000
:101A44002BEF0DF023A429EF0DF02BEF0DF02EEF6B
:101A54000DF09007D8A09107000E9D6F1F0E9C6F8C
:101A6400000E01011F6FB4EF0DF09C07D8A09D0775
:101A7400000E9C25D96E010E9D21DA6E94C060F093
:101A840095C061F096C062F097C063F098C064F0AE
:101A940099C065F09AC066F09BC067F00A0E686F43
:101AA400000E696F000E6A6F000E6B6F000E6C6F94
:101AB400000E6D6F000E6E6F000E6F6F25EC16F04A
:101AC40060C084F061C085F062C086F063C087F0B6
:101AD40064C088F065C089F066C08AF067C08BF086
:101AE40084C070F086C071F02AEC20F000017051BF
:101AF400300FDF6E8E07D8A08F079007D8A091070C
:101B040094C060F095C061F096C062F097C063F035
:101B140098C064F099C065F09AC066F09BC067F005
:101B24000A0E686F000E696F000E6A6F000E6B6F0D
:101B3400000E6C6F000E6D6F000E6E6F000E6F6FF7
:101B440060EC15F060C094F061C095F062C096F04E
:101B540063C097F064C098F065C099F066C09AF0CD
:101B640067C09BF000019DBFC0EF0DF09D5108E1DF
:101B74009C05D8A0C0EF0DF0C2EF0DF0F2EF0DF010
:101B84009451951196119711981199119A119B11CD
:101B9400D8A4CFEF0DF0D1EF0DF037EF0DF08FBFDC
:101BA400DEEF0DF08F5106E18E05D8B0DCEF0DF0BD
:101BB400DEEF0DF037EF0DF091BFE9EF0DF091512D
:101BC40008E19005D8A0E9EF0DF0EBEF0DF0F2EF8E
:101BD4000DF023B2F0EF0DF0F2EF0DF037EF0DF052
:101BE40092519311D8A4F9EF0DF0FBEF0DF002EF31
:101BF4000EF023A400EF0EF002EF0EF021EF0EF032
:101C04009C07D8A09D0792519311D8A40CEF0EF015
:101C14000EEF0EF014EF0EF0000E8D6F2B0E8C6F86
:101C240018EF0EF0000E8D6F2D0E8C6F000E9C259C
:101C3400D96E010E9D21DA6E600033F2DFFF7AC0A7
:101C440070F07BC071F0000E9C25726F010E9D2117
:101C5400736F90C074F091C075F056EC1BF070C0B7
:101C64007AF071C07BF01200600083F2D9FF60004B
:101C740087F2DAFF6F007BFFF6FF6F0077FFF7FF55
:101C8400F86A0800F550250AD8A44BEF0EF04DEF82
:101C94000EF07DEF0FF0600083F2D9FF600087F251
:101CA400DAFFDE2A000EDD22000E0001D56F000EE1
:101CB400D46FD4C023F0D5C024F0D669D7696000AE
:101CC40083F2D9FF600087F2DAFF6F007BFFF6FF33
:101CD4006F0077FFF7FFF86A0800F550640AD8B47C
:101CE40076EF0EF078EF0EF08FEF0EF0600083F2D7
:101CF400D9FF600087F2DAFF6F007BFFF6FF6F0009
:101D040077FFF7FFF86A0800F550690AD8A48DEF49
:101D14000EF08FEF0EF0DAEF0EF0600083F2D9FFD1
:101D2400600087F2DAFFDE2A000EDD2260008BF20B
:101D3400D9FF60008FF2DAFF6F007CFFA4F0020E7F
:101D4400DE266F007CFFA5F0000EDD22600093F21A
:101D5400D9FF600097F2DAFF6F0078FF20F16F007F
:101D640074FF21F10101000E21BFFF0E226F236FCA
:101D7400246F256F266F276F9EC07AF09FC07BF07B
:101D840020C17CF021C17DF022C17EF023C17FF00F
:101D940024C180F025C181F026C182F027C183F0DF
:101DA400C3EC0CF07AC09EF07BC09FF0A0EF0FF064
:101DB400600083F2D9FF600087F2DAFF6F007BFFD7
:101DC400F6FF6F0077FFF7FFF86A0800F550750A11
:101DD400D8A4EFEF0EF0F1EF0EF03DEF0FF060003E
:101DE40083F2D9FF600087F2DAFFDE2A000EDD22DB
:101DF40060008BF2D9FF60008FF2DAFF6F007CFF86
:101E0400A4F0020EDE266F007CFFA5F0000EDD229A
:101E1400600093F2D9FF600097F2DAFF6F0078FF59
:101E2400A6F06F0074FFA7F0A6C028F1A7C029F19F
:101E340001012A6B2B6B2C6B2D6B2E6B2F6B9EC0B1
:101E44007AF09FC07BF028C17CF029C17DF02AC1C3
:101E54007EF02BC17FF02CC180F02DC181F02EC10A
:101E640082F02FC183F0E7EC11F07AC09EF07BC0C2
:101E74009FF0A0EF0FF0600083F2D9FF600087F2BB
:101E8400DAFF6F007BFFF6FF6F0077FFF7FFF86A5A
:101E94000800F550250AD8A452EF0FF054EF0FF0C4
:101EA4006EEF0FF0600083F2D9FF600087F2DAFF73
:101EB400DE2A000EDD22000E616F250E606F9EC0CB
:101EC40062F09FC063F01CEC1DF0000E00019F6FD8
:101ED400010E9E6FA0EF0FF0600083F2D9FF600047
:101EE40087F2DAFFDE2A000EDD22000E9F6F000E5D
:101EF4009E6FA0EF0FF0600083F2D9FF600087F2BD
:101F0400DAFF6F007BFFF6FF6F0077FFF7FFF86AD9
:101F14000800F5500001606F616B9EC062F09FC0C5
:101F240063F01CEC1DF0600083F2D9FF600087F2BF
:101F3400DAFFDE2A000EDD2267EF0FF01200B0EFA9
:101F440010F00001E251E65D0101386F0001E35138
:101F5400E7590101396F0001E051E45D01013A6F75
:101F64000001E151E55901013B6F39BFC3EF0FF0A7
:101F7400395109E13D0E385DD8A0C3EF0FF0C5EF2C
:101F84000FF0EFEF0FF00001E35107E1C80EE25D3F
:101F9400D8B0CFEF0FF0D1EF0FF0EFEF0FF0000E4E
:101FA400E96F010EEB6F040EEC6F010E0101306F4F
:101FB400100E316F38C132F139C133F13AC134F105
:101FC4003BC135F10FEC22F0250E0101306F100EEC
:101FD400316F0FEC22F0CFEF10F001013BBFFCEFAB
:101FE4000FF03B5109E13D0E3A5DD8A0FCEF0FF034
:101FF400FEEF0FF0CFEF10F00001E15107E1C80E42
:10200400E05DD8B008EF10F00AEF10F0CFEF10F059
:10201400000EE96F010EEB6F050EEC6F010E01016E
:10202400306F100E316F38C132F139C133F13AC11A
:1020340034F13BC135F10FEC22F0170E0101306F82
:10204400100E316F0FEC22F0CFEF10F00F0E0001E5
:10205400E9652FEF10F031EF10F03EEF10F0000EB5
:10206400E96F020EEB6F690E0101306F100E316FD4
:102074000FEC22F0CFEF10F0E92BCFEF10F03C0E75
:102084000001E96548EF10F04AEF10F03EEF10F060
:10209400040EEC19D8A451EF10F053EF10F060EFD8
:1020A40010F03E0E0101306F100E316FE6C032F1B8
:1020B400E7C033F10FEC22F074EF10F0040EEC19CA
:1020C400D8A467EF10F069EF10F074EF10F0490E28
:1020D4000101306F100E316FE4C032F1E5C033F10D
:1020E4000FEC22F00001E75109E1280EE65DD8A0CB
:1020F4007EEF10F080EF10F08BEF10F0E55107E168
:10210400280EE45DD8B089EF10F08BEF10F0CFEF1C
:1021140010F0000EE96F030EEB6F000EEC6F320E41
:102124000101306F100E316F0FEC22F0CFEF10F081
:10213400320E0001E965A1EF10F0A3EF10F03EEFBD
:1021440010F0000EE96F000EEB6F5F0E0101306FAF
:10215400100E316F0FEC22F0CFEF10F00001EB51B5
:102164000101366F376B3751000AD8B4BCEF10F059
:10217400CFEF10F03651000AD8B4A3EF0FF0010AE4
:10218400D8B428EF10F0030AD8B441EF10F0010AD4
:10219400D8B49AEF10F0CFEF10F0E6C0E2F0E7C049
:1021A400E3F0E4C0E0F0E5C0E1F01200000E00014D
:1021B400AC6F000EAB6F98EF11F0EE5109E1290EF0
:1021C400ED5DD8A0E8EF10F0EAEF10F0ECEF10F0BE
:1021D400000EEC6FDFBFF7EF10F0DF5108E1DE0512
:1021E400D8A0F7EF10F0F9EF10F003EF11F0DEC014
:1021F400ABF0DFC0ACF0FE0EAB27FF0EAC23BDEF9F
:1022040011F0DFBF0EEF11F0DF5108E1DE05D8A0B9
:102214000EEF11F010EF11F0BDEF11F0EE5107E1E8
:10222400140EED5DD8B019EF11F01BEF11F0BDEFF6
:1022340011F0DEC0ABF0DFC0ACF0FC0EAB27FF0E3C
:10224400AC23BDEF11F0EE5107E1280EED5DD8B0DF
:102254002EEF11F030EF11F032EF11F0010EEC6FB0
:10226400EE5109E1650EED5DD8A03BEF11F03DEFB5
:1022740011F086EF11F0000E936F000E946F480E6C
:10228400956F430E966FCD0E7A6FCC0E7B6F4C0E0E
:102294007C6F3F0E7D6F9C0EA76FFF0EA86FEDC085
:1022A400A9F0EEC0AAF0A751A927A851AA23A9C052
:1022B40068F0AAC069F06A6B6B6B000EEAEC12F06E
:1022C40068C076F069C077F06AC078F06BC079F0C6
:1022D4009BEC0AF076C08FF077C090F078C091F054
:1022E40079C092F03AEC08F08FC09FF090C0A0F053
:1022F40091C0A1F092C0A2F095EC18F09FC0ABF091
:10230400A0C0ACF0BDEF11F0000EAC6FC80EAB6F07
:10231400BDEF11F0FF0EAC6F6A0EAB6FBDEF11F0A5
:10232400000EAC6F960EAB6FBDEF11F0EC51A76FC2
:10233400A86BA851000AD8B4A2EF11F0BDEF11F0B8
:10234400A751000AD8B425EF11F0010AD8B4DFEF81
:1023540010F0030AD8B48CEF11F0010AD8B48CEF52
:1023640011F0070AD8B492EF11F0010AD8B492EF31
:1023740011F0BDEF11F00001ACBFCAEF11F0C30EB4
:10238400AB5D010EAC59D8A0CAEF11F0CCEF11F03F
:10239400D0EF11F0010EAC6FC20EAB6FACAFDCEF3F
:1023A40011F0380EAB5DFF0EAC59D8B0DCEF11F074
:1023B400DEEF11F0E2EF11F0FF0EAC6F380EAB6FF1
:1023C400ABC0DEF0ACC0DFF012000001D7BFEDEF10
:1023D40011F0EFEF11F0F0EF11F02392D7BFFDEF02
:1023E40011F0D75106E1D605D8B0FBEF11F0FDEF9F
:1023F40011F003EF12F0000E8D6F010E8C6F07EFDA
:1024040012F0D6C08CF0D7C08DF0D4C08EF0D5C0F9
:102414008FF07CC090F07DC091F07EC092F07FC0C0
:1024240093F080C094F081C095F082C096F083C090
:1024340097F0000E996F1F0E986F000E01011F6F29
:102444009BEF12F09807D8A09907000E9825D96E33
:10245400010E9921DA6E90C060F091C061F092C0D3
:1024640062F093C063F094C064F095C065F096C0C8
:1024740066F097C067F00A0E686F000E696F000E71
:102484006A6F000E6B6F000E6C6F000E6D6F000EA6
:102494006E6F000E6F6F88EC1AF060C084F061C03C
:1024A40085F062C086F063C087F064C088F065C0C0
:1024B40089F066C08AF067C08BF000018451300F48
:1024C400DF6E8C07D8A08D078E07D8A08F0790C029
:1024D40060F091C061F092C062F093C063F094C068
:1024E40064F095C065F096C066F097C067F00A0E78
:1024F400686F000E696F000E6A6F000E6B6F000E3E
:102504006C6F000E6D6F000E6E6F000E6F6F9CECA3
:1025140019F060C090F061C091F062C092F063C0A5
:1025240093F064C094F065C095F066C096F067C0FF
:1025340097F0000198519911D8B4A3EF12F0A5EFC8
:1025440012F0D5EF12F09051911192119311941150
:10255400951196119711D8A4B2EF12F0B4EF12F0BE
:1025640024EF12F08DBFC1EF12F08D5106E18C05FE
:10257400D8B0BFEF12F0C1EF12F024EF12F08FBF0A
:10258400CCEF12F08F5108E18E05D8A0CCEF12F0F9
:10259400CEEF12F0D5EF12F023B2D3EF12F0D5EF55
:1025A40012F024EF12F07AC070F07BC071F0000ECC
:1025B4009825726F010E9921736F8EC074F08FC0CD
:1025C40075F056EC1BF070C07AF071C07BF012000D
:1025D4000001706F00017051D8B4F3EF12F0F5EF01
:1025E40012F017EF13F06BBFFCEF12F0FAEF12F0DA
:1025F40017EF13F068C06CF069C06DF06AC06EF03C
:102604006BC06FF06C1F6D1F6E1F6F1F6C2B000E65
:102614006D236E236F236CC072F06DC073F06EC0B7
:1026240074F06FC075F01FEF13F068C072F069C0EA
:1026340073F06AC074F06BC075F0685169116A1167
:102644006B11D8A428EF13F02AEF13F034EF13F032
:10265400000E686F000E696F000E6A6F000E6B6FDC
:10266400C5EF13F0960E716F3EEF13F0712BD890F7
:102674007533743373337233000E72156C6F000E3E
:1026840073156D6F000E74156E6FFE0E75156F6FFA
:102694006C516D116E116F11D8A453EF13F055EFF7
:1026A40013F038EF13F063EF13F0712B010E722760
:1026B400000E732374237523D890753374337333E6
:1026C4007233000E72156C6F000E73156D6F000E71
:1026D40074156E6FFF0E75156F6F6C516D116E1161
:1026E4006F11D8A478EF13F07AEF13F057EF13F0CB
:1026F40082EF13F07107D8907237733774377537D8
:1027040074BF87EF13F089EF13F091EF13F0020E0B
:1027140071618FEF13F091EF13F07CEF13F071B14F
:1027240096EF13F098EF13F099EF13F0749FD8908D
:10273400713371C06CF06D6B6E6B6F6B6CC06FF04E
:102744006E6B6D6B6C6B6C5172136D5173136E51B8
:1027540074136F5175137051D8B4B3EF13F0B5EF10
:1027640013F0BDEF13F06BBFBCEF13F0BAEF13F02F
:10277400BDEF13F0758F72C068F073C069F074C058
:102784006AF075C06BF01200000E00016E6F000E4F
:102794006D6F000E706F000E6F6F17EF14F068C04E
:1027A4006DF069C06EF068C06BF069C06CF06B1FAF
:1027B4006C1F6B4B6C2B6BC06FF06CC070F038EF00
:1027C40014F068C06DF069C06EF068C06FF069C045
:1027D40070F038EF14F068C06DF069C06EF068C036
:1027E40060F069C061F0FF0E636FFD0E626FBAECBA
:1027F4001BF060C06FF061C070F038EF14F068C077
:102804006DF069C06EF038EF14F068C06FF069C005
:1028140070F038EF14F0000E6E6F000E6D6F000E46
:10282400706F000E6F6F38EF14F06A516B6F6C6B42
:102834006C51000AD8B421EF14F00DEF14F06B5171
:10284400000AD8B4D1EF13F0010AD8B4E3EF13F0BF
:10285400030AD8B4EDEF13F0010AD8B401EF14F071
:10286400070AD8B407EF14F00DEF14F000016EBF9F
:1028740045EF14F06E5109E1420E6D5DD8A045EFAD
:1028840014F047EF14F04DEF14F0000E6E6F410E8C
:102894006D6F5FEF14F06EAF59EF14F0BF0E6D5D06
:1028A400FF0E6E59D8B059EF14F05BEF14F05FEFE0
:1028B40014F0FF0E6E6FBF0E6D6F70BF6BEF14F0F0
:1028C400705109E1290E6F5DD8A06BEF14F06DEF24
:1028D40014F073EF14F0000E706F280E6F6F85EF15
:1028E40014F070AF7FEF14F0D80E6F5DFF0E7059C7
:1028F400D8B07FEF14F081EF14F085EF14F0FF0EE1
:10290400706FD80E6F6F600E6D25206E010E6E21F4
:10291400216EBEEC20F0650E00016F25206E010EC5
:102924007021216ED9EC20F012000001E451E65D23
:10293400736FE551E759746F73C060F074C061F050
:10294400000E636F020E626FBAEC1BF060C073F08E
:1029540061C074F0D6EF14F074BFBAEF14F0745180
:1029640009E11F0E735DD8A0BAEF14F0BCEF14F0A8
:10297400C2EF14F0000E746F1E0E736F3AEF15F071
:1029840074AFCEEF14F0E20E735DFF0E7459D8B03D
:10299400CEEF14F0D0EF14F0F4EF14F0FF0E746FD8
:1029A400E20E736F3AEF15F00001EC51716F726B28
:1029B4007251000AD8B4E1EF14F03AEF15F07151F6
:1029C400000AD8B4AEEF14F0010AD8B4AEEF14F094
:1029D400050AD8B4AEEF14F0010AD8B4AEEF14F07F
:1029E4003AEF15F03AEF15F073C068F074C069F06F
:1029F400020E6A6FC6EC13F05FEF15F073C068F057
:102A040074C069F0030E6A6FC6EC13F05FEF15F043
:102A1400000E696F280E686F000E6A6FC6EC13F023
:102A24005FEF15F0020EEB19D8A41BEF15F01DEFA4
:102A340015F000EF15F0000E696F410E686F020E7D
:102A44006A6FC6EC13F05FEF15F0020EEB19D8A411
:102A54002EEF15F030EF15F000EF15F0FF0E696F53
:102A6400BF0E686F020E6A6FC6EC13F05FEF15F0CD
:102A7400EC51716F726B7251000AD8B444EF15F0C7
:102A84005FEF15F07151000AD8B400EF15F0010A98
:102A9400D8B4F6EF14F0030AD8B40AEF15F0010A1B
:102AA400D8B40AEF15F0070AD8B414EF15F0010AE8
:102AB400D8B427EF15F05FEF15F01200000E0001F7
:102AC400716F6FBF6AEF15F068EF15F07CEF15F0CA
:102AD4006F1F6E1F6D1F6C1F6B1F6A1F691F686D50
:102AE400000E69236A236B236C236D236E236F23EB
:102AF400010E716F67BF83EF15F081EF15F095EF4D
:102B040015F0671F661F651F641F631F621F611F27
:102B1400606D000E612362236323642365236623AF
:102B24006723010E711B20EE72F0070EDE6AE806C1
:102B3400FDE2685169116A116B116C116D116E110E
:102B44006F11D8B4A8EF15F0AAEF15F0FCEF15F04B
:102B5400010E706FB8EF15F0D890683769376A378F
:102B64006B376C376D376E376F37702B6FAFBDEFC8
:102B740015F0BFEF15F0AEEF15F0D890723773373C
:102B84007437753776377737783779376851605DBA
:102B9400695161596A5162596B5163596C51645955
:102BA4006D5165596E5166596F516759D8A0DDEF63
:102BB40015F0DFEF15F0F0EF15F06851605F695123
:102BC400615B6A51625B6B51635B6C51645B6D5119
:102BD400655B6E51665B6F51675B7281D8906F3332
:102BE4006E336D336C336B336A3369336833702FF0
:102BF400BFEF15F07151D8B402EF16F004EF16F0E0
:102C040014EF16F0791F781F771F761F751F741F36
:102C1400731F726D000E7323742375237623772339
:102C24007823792372C060F073C061F074C062F0DD
:102C340075C063F076C064F077C065F078C066F064
:102C440079C067F01200000E216E000167BF2FEFFC
:102C540016F02DEF16F041EF16F0671F661F651F83
:102C6400641F631F621F611F606D000E6123622376
:102C740063236423652366236723010E216E6FBFDC
:102C840048EF16F046EF16F058EF16F06F1F6E1F60
:102C94006D1F6C1F6B1F6A1F691F686D000E69230F
:102CA4006A236B236C236D236E236F236851691190
:102CB4006A116B116C116D116E116F11D8B465EF3F
:102CC40016F067EF16F0AFEF16F0010E206E75EFF9
:102CD40016F0D890683769376A376B376C376D37B9
:102CE4006E376F37202A6FAF7AEF16F07CEF16F04D
:102CF4006BEF16F06851605D695161596A51625910
:102D04006B5163596C5164596D5165596E516659D3
:102D14006F516759D8A091EF16F093EF16F0A3EF17
:102D240016F06851605F6951615B6A51625B6B5177
:102D3400635B6C51645B6D51655B6E51665B6F5197
:102D4400675BD8906F336E336D336C336B336A3398
:102D540069336833202E7CEF16F02150D8B4B5EFD8
:102D640016F0B7EF16F0C7EF16F0671F661F651F62
:102D7400641F631F621F611F606D000E6123622365
:102D84006323642365236623672360C060F061C006
:102D940061F062C062F063C063F064C064F065C057
:102DA40065F066C066F067C067F012000001DC5190
:102DB400DE5DA96FDD51DF59AA6FDA51DC5DAB6FBF
:102DC400DB51DD59AC6FCFEC1CF020C0DCF021C02E
:102DD400DDF0CD0E00017A6FCC0E7B6FCC0E7C6FD4
:102DE4003C0E7D6F000E636F020E626FABC060F02D
:102DF400ACC061F0BAEC1BF0A9C0A7F0AAC0A8F05F
:102E040000016051A75F6151A85BA7C068F0A8C02A
:102E140069F0000E69BFFF0E6A6F6B6F010EEAEC7A
:102E240012F068C076F069C077F06AC078F06BC0C1
:102E340079F09BEC0AF076C09FF077C0A0F078C0E0
:102E4400A1F079C0A2F095EC18F000019F51AD6F8C
:102E5400AD51800A7D0FD8A032EF17F034EF17F090
:102E640038EF17F0020EAD6F44EF17F0AD51800A42
:102E7400820FD8B040EF17F042EF17F044EF17F08D
:102E8400FE0EAD6FD851AD25D86F000EADBFFF0E4D
:102E9400D921D96FD9BF58EF17F0BD0ED85D020EF6
:102EA400D959D8A058EF17F05AEF17F060EF17F080
:102EB400020ED96FBC0ED86F72EF17F0D9AF6CEF5A
:102EC40017F0D40ED85DFE0ED959D8B06CEF17F0B8
:102ED4006EEF17F072EF17F0FE0ED96FD40ED86FA5
:102EE400D8C062F0D9C063F015EC1AF0DCC0DAF097
:102EF400DDC0DBF01200C5EC22F0540E0101306F8E
:102F0400100E316FEFC032F1F0C033F10FEC22F04C
:102F1400EFC068F0F0C069F000016A6B6B6B000EE3
:102F2400EAEC12F068C076F069C077F06AC078F015
:102F34006BC079F0000E00017A6F000E7B6F400EBB
:102F44007C6F450E7D6F19EC19F00001D8A0ADEF30
:102F540017F0AFEF17F07DEF17F0E6C0E2F0E7C02F
:102F6400E3F0E4C0E0F0E5C0E1F0000EEA6F000138
:102F7400EA51D8B4C0EF17F0C2EF17F0B9EF17F069
:102F8400000EEA6F640EE865CAEF17F0CCEF17F095
:102F940000EF18F0000EE86FEFC068F0F0C069F0C1
:102FA4006A6B6B6B000EEAEC12F068C076F069C0D5
:102FB40077F06AC078F06BC079F0000E00017A6F88
:102FC400000E7B6F400E7C6F450E7D6F19EC19F07F
:102FD4000001D8B0F0EF17F0F2EF17F001EF18F09E
:102FE400000EDF6F000EDE6F000E696F000E686F5B
:102FF400030E6A6FC6EC13F00DEF18F0E82BA1EC8A
:103004000FF068EC1DF097EC14F0D8EC10F0D8EC4D
:1030140016F0B9EF17F01200000E0001696F67BFD8
:1030240018EF18F016EF18F022EF18F0671F661F5C
:10303400651F646D000E652366236723010E696FA7
:1030440063BF29EF18F027EF18F033EF18F0631F70
:10305400621F611F606D000E612362236323010EF2
:10306400691B000E6A6F000E6B6F000E6C6F000E12
:103074006D6F6451651166116711D8B444EF18F08F
:1030840046EF18F07CEF18F0010E686F50EF18F05F
:10309400D8906437653766376737682B67AF55EF65
:1030A40018F057EF18F04AEF18F0D8906A376B37DA
:1030B4006C376D376451605D655161596651625971
:1030C40067516359D8A069EF18F06BEF18F074EFEB
:1030D40018F06451605F6551615B6651625B6751D2
:1030E400635B6A81D8906733663365336433682FD2
:1030F40057EF18F06951D8B482EF18F084EF18F044
:103104008CEF18F06D1F6C1F6B1F6A6D000E6B2324
:103114006C236D236AC060F06BC061F06CC062F018
:103124006DC063F012000001A135A235216E21505B
:10313400D8A49FEF18F0A1EF18F0ABEF18F0000E31
:103144009F6F000EA06F000EA16F000EA26F18EF0C
:1031540019F09FC0A3F0A0C0A4F0A1C0A5F0A2C024
:10316400A6F0200EBBEF18F0D890A633A533A433F5
:10317400A333E82EB6EF18F0A351206EA18FFF0EF3
:103184009F17FF0EA017FF0EA117000EA217960E91
:10319400215E21BED2EF18F0D0EF18F0E8EF18F05E
:1031A4002150800A970FD8B0DAEF18F0DCEF18F04E
:1031B400DEEF18F0A1EF18F0D890A233A133A033BA
:1031C4009F33213EDEEF18F000EF19F01F0E21644B
:1031D400EEEF18F0F0EF18F0F8EF18F0A1EF18F098
:1031E400D8909F37A037A137A23721062150D8A401
:1031F400FEEF18F000EF19F0F2EF18F02050D8B4F9
:1032040006EF19F008EF19F010EF19F0A21FA11F33
:10321400A01F9F6D000EA023A123A2239FC09FF097
:10322400A0C0A0F0A1C0A1F0A2C0A2F01200000EA4
:10323400000176157E6F000E77157F6F800E78156E
:10324400806F7F0E7915816F7E517F1180118111FE
:10325400D8A42FEF19F031EF19F039EF19F0000E5F
:10326400766F000E776F000E786F000E796F000E88
:103274007A157E6F000E7B157F6F800E7C15806F34
:103284007F0E7D15816F7E517F1180118111D8A42D
:103294004EEF19F050EF19F058EF19F0000E7A6F55
:1032A400000E7B6F000E7C6F000E7D6F79AF5DEFBB
:1032B40019F05FEF19F068EF19F0766D771FD8B049
:1032C400772B781FD8B0782B800E79577DAF6DEFB0
:1032D40019F06FEF19F078EF19F07A6D7B1FD8B001
:1032E4007B2B7C1FD8B07C2B800E7D57000E761B69
:1032F400000E771B000E781B800E791B000E7A1BC4
:10330400000E7B1B000E7C1B800E7D1B7A51765DAC
:103314007B5177597C5178597D517959D8B095EFC3
:1033240019F097EF19F09AEF19F0D8909BEF19F074
:10333400D880120020EE70F0070EDE6AE806FDE287
:103344000001685169116A116B116C116D116E11D4
:103354006F11D8B4B0EF19F0B2EF19F004EF1AF00E
:10336400010E786FC0EF19F0D890683769376A3763
:103374006B376C376D376E376F37782B6FAFC5EFA0
:1033840019F0C7EF19F0B6EF19F0D890703771370C
:103394007237733774377537763777376851605DAE
:1033A400695161596A5162596B5163596C5164593D
:1033B4006D5165596E5166596F516759D8A0E5EF43
:1033C40019F0E7EF19F0F8EF19F06851605F6951EF
:1033D400615B6A51625B6B51635B6C51645B6D5101
:1033E400655B6E51665B6F51675B7081D8906F331C
:1033F4006E336D336C336B336A3369336833782FD0
:10340400C7EF19F070C060F071C061F072C062F073
:1034140073C063F074C064F075C065F076C066F084
:1034240077C067F01200000163BF22EF1AF0635106
:1034340009E1330E625DD8A022EF1AF024EF1AF0EE
:1034440044EF1AF063BF30EF1AF0BD0E625D020E56
:103454006359D8A030EF1AF032EF1AF036EF1AF0B1
:10346400020E636FBC0E626F62C020F063C021F075
:103474000FEC21F0000E216E000E206EF4EC20F013
:1034840087EF1AF063BF52EF1AF0635107E1320E6F
:10349400625DD8B050EF1AF052EF1AF07BEF1AF0D9
:1034A40063AF5EEF1AF0D40E625DFE0E6359D8B0BE
:1034B4005EEF1AF060EF1AF064EF1AF0FE0E636F1D
:1034C400D40E626F000E216E000E206E0FEC21F000
:1034D40062C064F063C065F00001641F651F644B43
:1034E400652B64C020F065C021F0F4EC20F087EF78
:1034F4001AF0000E216E000E206E0FEC21F0000E6B
:10350400216E000E206EF4EC20F0120000016851D0
:1035140069116A116B116C116D116E116F11D8B4B0
:1035240096EF1AF098EF1AF0E0EF1AF0010E206E01
:10353400A6EF1AF0D890683769376A376B376C375B
:103544006D376E376F37202A6FAFABEF1AF0ADEFE0
:103554001AF09CEF1AF06851605D695161596A5123
:1035640062596B5163596C5164596D5165596E516F
:1035740066596F516759D8A0C2EF1AF0C4EF1AF018
:10358400D4EF1AF06851605F6951615B6A51625B04
:103594006B51635B6C51645B6D51655B6E51665B33
:1035A4006F51675BD8906F336E336D336C336B330D
:1035B4006A3369336833202EADEF1AF060C060F0CF
:1035C40061C061F062C062F063C063F064C064F023
:1035D40065C065F066C066F067C067F01200000E53
:1035E400BE6E000EBD6E240EBA6E000EBB6E000ED3
:1035F400BC6E070EC66EC00EC26EF70EC36EC468F4
:10360400C5681F0E3A01706F6069C00E506F070ED7
:10361400806F7F0E406F000E716F000E816F000E81
:10362400516F000E416F000E616F000E5A6F000E55
:103634005B6F000E6A6F000E6B6F000E7A6F000EE8
:103644007B6F000E826F000E426F000E526F000EF1
:10365400626F000E726F4369536963697369070E81
:10366400836F44695469646974690F0E846F1F0E13
:10367400CF6F090EDC6F0E0E016F0A0EE56F0D0E93
:10368400006F1D0EC96F100E046F070ED96F090E5F
:10369400D16F0F0E036F130E0B6F080EDB6F080E46
:1036A400D26F1E0ED06F120023A05BEF1BF05DEFF4
:1036B4001BF067EF1BF072C069F073C06AF070C052
:1036C4006BF071C06CF0BFEC1FF0000175BF6DEFC3
:1036D4001BF06FEF1BF075EF1BF074C078F075C032
:1036E40079F079EF1BF0000E796F000E786F000E01
:1036F400776F000E766F8CEF1BF0000E616F200E5B
:10370400606F70C062F071C063F01CEC1DF00001CA
:10371400764B772B7851765D7751800A226E7951FA
:10372400800A2258D8A099EF1BF09BEF1BF07FEF83
:103734001BF023B0A0EF1BF0A2EF1BF0ACEF1BF0CB
:1037440072C069F073C06AF070C06BF071C06CF045
:10375400BFEC1FF072C020F073C021F04BEC20F0DE
:10376400000178512024706F79512120716F12006B
:10377400000E0001656F63BFC4EF1BF0C2EF1BF0C6
:10378400CAEF1BF0626D631FD8B0632B010E656F27
:1037940061BFD1EF1BF0CFEF1BF0D7EF1BF0606DD3
:1037A400611FD8B0612B010E651B000E676F000E00
:1037B400666F62516311D8B4E2EF1BF0E4EF1BF0C3
:1037C4000CEF1CF0010E646FECEF1BF0D890623725
:1037D4006337642B63AFF1EF1BF0F3EF1BF0E8EFFB
:1037E4001BF0D890663767376251605D6351615949
:1037F400D8A0FFEF1BF001EF1CF006EF1CF06251A4
:10380400605F6351615B6681D89063336233642F78
:10381400F3EF1BF06551D8B412EF1CF014EF1CF059
:1038240018EF1CF0666D671FD8B0672B66C060F098
:1038340067C061F01200B20E3124D96EDA6A000E4C
:10384400DA22000EDF6E3D01F9A72BEF1CF02DEFFD
:103854001CF041EF1CF0B20E3124D96EDA6A000E6E
:10386400DA220001DF8202D841EF1CF00500FA6E73
:10387400FD51FD6EFE51FE6EFF6AFA5012003D01CD
:10388400F9A347EF1CF049EF1CF05DEF1CF0B20EFA
:103894003124D96EDA6A000EDA220001DF8402D8FC
:1038A4005DEF1CF00500FA6EFB51FD6EFC51FE6EDF
:1038B400FF6AFA501200B20E3124D96EDA6A000E91
:1038C400DA22DF50D8B469EF1CF06BEF1CF07AEF0A
:1038D4001CF002D878EF1CF00500FA6E0001F951D3
:1038E400FD6EFA51FE6EFF6AFA5012007CEF1CF076
:1038F400E3EC21F01200390193973A0E206E380E52
:10390400216EDEEC22F039019399100E206E400EE8
:10391400216ED9EC22F0000E3D01EC6F000EED6F2C
:10392400000EEE6F000EEF6F000EF06F000EF16FE1
:10393400B00EF26F800EF36F000EF46F8A0EF56F07
:10394400000EF66F000EF76F000EF86F000EF96FA1
:10395400000EFA6F1A0E206E460E216EE8EC22F06D
:10396400180E206E460E216EE3EC22F00C0E206E33
:10397400460E216EEDEC22F0000E2E6E000E336E1C
:10398400000E326E080E406E000E316E000E306E68
:10399400000E2F6E390193871200000E00016F6F25
:1039A400000E6E6F3450351036103710D8B4DDEF7A
:1039B4001CF0DFEF1CF017EF1DF03C0160ABE5EFEE
:1039C4001CF0E7EF1CF000EF1DF0200E0001606F0B
:1039D400A10E616F070E626F000E636F34C064F056
:1039E40035C065F036C066F037C067F00EEC18F0ED
:1039F40060C06EF061C06FF017EF1DF0E00E0001C3
:103A0400606F5E0E616FF80E626FFF0E636F34C0FD
:103A140064F035C065F036C066F037C067F00EEC70
:103A240018F060C06EF061C06FF06EC020F06FC01F
:103A340021F01200000162516311D8B424EF1DF08B
:103A440026EF1DF02FEF1DF062516311D8A42DEF66
:103A54001DF02FEF1DF034EF1DF06051D4EC22F077
:103A640067EF1DF020EE09F06251D9266351DA2286
:103A7400DE50DE10D8B441EF1DF043EF1DF05EEFD1
:103A84001DF020EE09F06251D9266351DA2210EEBE
:103A940003F06251E1266351E222DE50E65CE65017
:103AA400800A686FDE50800A6859D8B05CEF1DF058
:103AB4005EEF1DF067EF1DF020EE03F06251D92692
:103AC4006351DA22DE2A000EDD2212000001EE51DB
:103AD40007E10A0EED5DD8B072EF1DF074EF1DF032
:103AE40077EF1DF02D2A82EF1DF0020EEC19D8B4E9
:103AF4007EEF1DF080EF1DF082EF1DF0000E2D6EA5
:103B0400640E2D6488EF1DF08AEF1DF0AAEF1DF0FE
:103B1400E651E45DE751E559D8B093EF1DF095EF18
:103B24001DF099EF1DF0020EEC6F9BEF1DF0030EDC
:103B3400EC6FEE5109E1290EED5DD8A0A4EF1DF064
:103B4400A6EF1DF0AAEF1DF0000EEC6F000E2D6E17
:103B54001200AAC0AEF0ABC0AFF0000E0001D36FEC
:103B6400000ED26FC9EF1DF0A8C09EF0A9C09FF04F
:103B7400AE0EA06F000EA16FACC0A2F0ADC0A3F05A
:103B840036EC0EF000019E51D2279F51D3236000E2
:103B9400BBF2F6FF6000BFF2F7FFF86A0800F550C9
:103BA4000009D8A4D8EF1DF0DAEF1DF0B6EF1DF030
:103BB400D2C0A8F0D3C0A9F01200206E4050D8B4EF
:103BC400E6EF1DF0E8EF1DF0E0EF1DF0390193B9C9
:103BD400EEEF1DF0F0EF1DF0F5EF1DF0600083F047
:103BE400EAFD0BEF1EF09399C20E3324D96EDA6A04
:103BF400000EDA22600083F0DFFF332A070E3364FD
:103C040006EF1EF008EF1EF00AEF1EF0000E336EF2
:103C1400400693891200000E3E01DE6F000EDF6F36
:103C2400000EE06F000EE16F000EE46F000EE56F12
:103C3400000EEA6F000EEC6F000EF16F580EF36F7A
:103C4400020EF46F000EF56F000EF66F000EF76FA4
:103C5400000EF96F000EFA6F000EFB6F000EFC6F82
:103C6400000EFD6F000EFE6F1F0EFF6F840EF86FC7
:023C740012003C
:103C78003901A19F3F0118510001CE6F3F01195131
:103C88000001CF6F3F011A510001D06FD16B3C0189
:103C980060AB51EF1EF053EF1EF05CEF1EF0010E0B
:103CA8000001CA27000ECB23CC23CD2365EF1EF0DD
:103CB800FF0E0001CA27FF0ECB23FF0ECC23FF0EF9
:103CC800CD2311006F0060FF17F06F00E8FF18F0B8
:103CD8006F00ECFF19F03C503D10D8B476EF1EF0A1
:103CE80078EF1EF084EF1EF002D884EF1EF0050076
:103CF800FA6E3C50FD6E3D50FE6EFF6AFA5012009F
:103D0800600067F0FBFF600063F0FAFF60005FF09F
:103D1800D8FF11006F0060FF1AF06F00E8FF1BF07A
:103D28006F00ECFF1CF03E503F10D8B49EEF1EF021
:103D3800A0EF1EF0ACEF1EF002D8ACEF1EF00500AD
:103D4800FA6E3E50FD6E3F50FE6EFF6AFA5012004A
:103D5800600073F0FBFF60006FF0FAFF60006BF02B
:103D6800D8FF11006F0060FF1DF06F00E8FF1EF024
:103D78006F00ECFF1FF03901A791274A282A285025
:103D880009E10A0E275CD8A0CCEF1EF0CEEF1EF09A
:103D9800D4EF1EF0A0EC21F0000E286E000E276E66
:103DA80060007FF0FBFF60007BF0FAFF600077F0B7
:103DB800D8FF1100D28A000ED2BE010E206ED29E0C
:103DC800550ED46EAA0ED46ED490000ED76E000E87
:103DD800D66E080ED56E550ED46EAA0ED46ED4804B
:103DE80020B002D0D29E01D0D28E39018399839718
:103DF800818F818B818D8A81888F87918983120039
:103E08006F00E8FF03F06F00ECFF04F03901A9939D
:103E18006F00D0FD05F06F00D4FD06F005C001F07D
:103E280006C002F002D823EF1FF00500FA6E000169
:103E3800F751FD6EF851FE6EFF6AFA5012006000ED
:103E480013F0FBFF60000FF0FAFF11006F00E8FFAE
:103E580009F06F00ECFF0AF03901AA916F00C0FD6C
:103E68000BF06F00C4FD0CF00BC007F00CC008F09D
:103E780002D849EF1FF00500FA6E0001F551FD6EFA
:103E8800F651FE6EFF6AFA50120060002BF0FBFF3D
:103E9800600027F0FAFF1100DEEC1EF038EC22F08B
:103EA800F1EC1AF0B9EC22F089EC21F00DEC1EF0DF
:103EB800B7EC21F02AEC21F089EC22F07BEC22F01F
:103EC800A1EC22F072EC21F0CDEC21F087EC20F08F
:103ED800ADEC22F075EC1FF095EC22F07DEC1CF0B7
:103EE8001200C00E9B6E000E9C6E050E9D6E000E9D
:103EF800996E000E986E3901A89D98506F0064FE67
:103F080060F00001616B60C061F0606B60113A6E37
:103F180061513B6E3901A89F988FD80E206E440ED0
:103F2800216EF2EC22F0030E9A6E12003901A19D67
:103F38003F011551346E1651356E1751366E376A7A
:103F48003C0160ABAAEF1FF0ACEF1FF0B5EF1FF01C
:103F5800010E0001CA27000ECB23CC23CD23BEEFD0
:103F68001FF0FF0E0001CA27FF0ECB23FF0ECC2344
:103F7800FF0ECD231100000E00016F6F000E6E6F53
:103F8800D2EF1FF06DC060F0616B6BC062F06CC067
:103F980063F01CEC1DF000016E4B6F2B6E51692510
:103FA800D96E6F516A21DA6EDF506D6F6D51D8A4EA
:0E3FB800E0EF1FF0E2EF1FF0C6EF1FF0120067
:103FC8006F00E8FF15F06F00ECFF16F03901A89FAD
:103FD80038503910D8B4F3EF1FF0F5EF1FF001EFA8
:103FE80020F002D801EF20F00500FA6E3850FD6E7F
:103FF8003950FE6EFF6AFA50120060005BF0FBFF5A
:10400800600057F0FAFF1100080E40600EEF20F034
:1040180010EF20F027EF20F0C20E3224D96EDA6AB2
:10402800000EDA22DF503D01EA6F322A070E3264B1
:1040380020EF20F022EF20F024EF20F0000E326E67
:10404800402A29EF20F0390193991200000171BF2D
:1040580038EF20F0715106E17005D8B036EF20F046
:1040680038EF20F046EF20F070C072F071C073F0A6
:10407800721F731F724B732B72C070F073C071F094
:104088004AEF20F070C070F071C071F0120020C0CB
:1040980060F021C061F053EF20F0204A212A60002F
:1040A80083F0D9FF600087F0DAFFDF50D8A45FEF14
:1040B80020F061EF20F051EF20F000016051205C0A
:1040C800206E61512158216E1200226E60008BF023
:1040D800F1FE3E01F88FF89DF881F8B176EF20F0F7
:1040E80078EF20F071EF20F0F0510001616F606B04
:1040F8003E01EF5100016025206E3E01000E0001D7
:104108006121216E1200000EA76E000EA86E050E2A
:10411800A96E000EA56E000EA46E3901A69DA450CE
:104128006F0094FE20F0216A20C021F0206A201040
:104138000001F36F2150F46F010EA66E120000EE1D
:1041480000F1200EEE6AE806FDE100EEB2F03D0E49
:10415800EE6AE806FDE100EE23F0150EEE6AE806C9
:10416800FDE1080ED56E000ED66E000ED76E00016A
:104178005CEF22F020C060F021C061F00001D8900F
:1041880061336033D890613360336051696E20C009
:1041980060F0030E6017060E616FD8906037612FCC
:1041A800D1EF20F06051686E120020C060F021C08D
:1041B80061F00001D89061336033D8906133603387
:1041C80060516D6E20C060F0030E6017060E616FBF
:1041D800D8906037612FECEF20F060516C6E1200C0
:1041E80020C060F021C061F00001D89061336033D5
:1041F800D890613360336051616E20C060F0030E67
:104208006017060E616FD8906037612F07EF21F0B5
:104218006051606E120020C060F021C061F00001A2
:10422800D89061336033D890613360336051656EE4
:1042380020C060F0030E6017060E616FD8906037DB
:10424800612F22EF21F06051646E1200800E3F0151
:104258001E6F420E1F6F000E206F040E216F000E9E
:10426800236F000E226F010E1D6F1C691B69390137
:10427800918B918F918D3F011F8F1200CDAE47EF2B
:1042880021F049EF21F04FEF21F001C02BF002C0DF
:104298002CF059EF21F02B50015C0001E66F2C50F7
:1042A8000258E76FD890E733E6331200CDAC5FEFE2
:1042B80021F061EF21F067EF21F007C029F008C075
:1042C8002AF071EF21F02950075C0001E46F2A50B1
:1042D8000858E56FD890E533E4331200830E726E08
:1042E800000E736E000E716E000E706EB40E206EAE
:1042F800420E216EFCEC22F03F015E513F0B80091B
:104308005E6F3901AA919A811200830E766E000EB3
:10431800776E000E756E000E746E840E206E420E5F
:10432800216E01EC23F03F015E51CF0B20095E6F37
:104338003901A993998312000001F151F211D8B4FF
:10434800A8EF21F0AAEF21F0B6EF21F002D8B6EFDE
:1043580021F00500FA6EF151FD6EF251FE6EFF6A12
:10436800FA5012001200010EA26E000EA16E000E8D
:10437800A36EF90E9F6E000E9E6E3901A79197816C
:104388001C0E206E460E216EF7EC22F0E00EA06E99
:104398001200000E3C01616F030E626F020E636F24
:1043A800000E646F000E656F020E666F080E676F71
:1043B800000E686F000E696F850E606F1200BA0EEE
:1043C8003124D96EDA6A000EDA226F00A3F7DFFF14
:1043D800312A070E3164F3EF21F0F5EF21F0F7EF02
:1043E80021F0000E316E2F2A12009AA4FEEF21F060
:1043F80000EF22F009EF22F09A900E50996E6000BB
:1044080037F098FF9A800EEF22F00E50996E6000F8
:1044180037F098FF1200320E0001B06F010EB16F35
:10442800000EA86F000EA96F30C1AAF031C1ABF021
:0E443800B00EAC6F000EAD6FABEC1DF01200BD
:104448003901A19B000E346E000E356E000E366EDB
:10445800000E376E000E0001CE6F000ECF6F000EFB
:10446800D06F000ED16F1100000E3901C06F000E21
:10447800C16F000EC26F000EC36F000EC46F000E36
:10448800C56F000EC66F000EC76F12009A826F00CC
:1044980060FE14F06F0064FE13F013500F6E14509A
:1044A800116E0FC012F011C00DF012C00EF0120004
:1044B80050EC1FF0D28ED28C120E206E460E216E5A
:1044C800F7EC22F07DEC17F066EF22F057EF00F0E2
:1044D8004AEC22F00DC0EDF00EC0EEF00001D890CD
:1044E800EE33ED33CDEC22F03901A89F1200050E12
:1044F800AE6E000EAD6E000EAF6EAB68000EAA6E0B
:104508003901A495B00EAC6E1200800E626E000EDA
:10451800616E000E606E3F015F513F0B80095F6F57
:104528001200800E666E000E656E000E646E3F010E
:104538005F51CF0B20095F6F1200800E6A6E590E13
:10454800696E400E686E3F015F51F30B04095F6F9F
:104558001200800E6E6E590E6D6E400E6C6E3F012D
:104568005F51FC0B01095F6F1200600E3901D96FB2
:10457800000EDB6F000EDD6F080EDF6F000EDE6FC2
:104588001200220E69EC20F020C0EFF021C0F0F0FC
:1045980012003AC00DF03BC00EF0F9EC21F0120009
:1045A800216E2150DFEC1DF0120020C03CF021C02C
:1045B8003DF0120020C03EF021C03FF0120020C0A4
:1045C800FBF021C0FCF0120020C0FDF021C0FEF07D
:1045D800120020C0F9F021C0FAF0120020C038F013
:1045E80021C039F0120020C0F1F021C0F2F0120011
:1045F80020C0F5F021C0F6F0120020C0F7F021C06D
:10460800F8F01200E3EC21F012000001EA2B12008E
:0646180012001200120066
:02462000110087
:020000040030CA
:0A0000008CFFFFFF9FFFFFFFFFFFD3
:00000001FF
