:0400000057EF00F0C6
:100008004410441044104410441044104410441048
:1000180044104410441044104410C90F840ED50DE8
:100028004410441044104410441044104410441028
:10003800441044104410FE0DEA0D441044104410BE
:1000480044104410441044102B0044104410441031
:1000580044104410441044104410441044104410F8
:1000680044104410441044104410441044104410E8
:10007800120E44102B004410441044102B002B0087
:100088002B002B002B002B002B002B004410A90E5B
:100098004410390E441044102B002B002B002B0069
:0A00A8004C0E4410FF0011EF1EF093
:10100000004F7574207C20644C3D202564207C209A
:1010100064523D202564002020204375727665527D
:10102000696768740020202043757276654C656698
:101030007400416674657243757276650A004256A3
:101040006F6C743A2025640A00646973744C3D2007
:1010500025640A0064697374523D2025640A004FB8
:10106000757443757276650A00496E4375727665CC
:031070000A000073
:1010740000019251800B9B6F925192259D6F91AF0D
:1010840046EF08F048EF08F049EF08F09D819D51C4
:10109400D8B44FEF08F051EF08F066EF08F09D293F
:1010A400D8A457EF08F059EF08F061EF08F0000EEC
:1010B4008F6F000E906F000E916F000E926F918FE4
:1010C400000E926F6EEF08F0000E8F6F000E906F9F
:1010D400000E916F000E926F9651800B9C6F9B5186
:1010E4009C19D8B478EF08F07AEF08F07BEF08F099
:1010F4009B8D965196259C6F95AF83EF08F085EFF5
:1011040008F086EF08F09C819C51D8B48CEF08F06D
:101114008EEF08F0A3EF08F09C29D8A494EF08F010
:1011240096EF08F09EEF08F0000E936F000E946F98
:10113400000E956F000E966F958F000E966FABEFB5
:1011440008F0000E936F000E946F000E956F000E62
:10115400966F9D519C5DD8B0B2EF08F0B4EF08F0E3
:10116400DBEF08F09BADB9EF08F0BBEF08F0BDEF83
:1011740008F0800E9B1B9DC09EF09CC09DF09EC0FD
:101184009CF08FC09EF093C08FF09EC093F090C0EF
:101194009EF094C090F09EC094F091C09EF095C0D3
:1011A40091F09EC095F092C09EF096C092F09EC0C1
:1011B40096F0000E9E6F9D519CC097F0986B975FC0
:1011C400000E985B98BFF0EF08F0985109E11A0EF1
:1011D400975DD8A0F0EF08F0F2EF08F029EF09F0DE
:1011E4008F51901191119211D8A4FBEF08F0FEEFEA
:1011F40008F0010EFFEF08F0000E9E6F000E8F6FD7
:10120400000E906F000E916F000E926F9CC09DF0C7
:1012140032EF09F09EA111EF09F013EF09F019EF75
:1012240009F0D8909E3101099E6F1BEF09F0D89008
:101234009E338FA120EF09F022EF09F023EF09F08C
:101244009E8F92359233913390338F339D2B9C51E3
:101254009D5DD8A030EF09F032EF09F00CEF09F0F2
:101264009BBD37EF09F039EF09F079EF09F09D5193
:10127400D8A43FEF09F041EF09F04BEF09F0000E5D
:101284008F6F000E906F000E916F000E926F9AEFA9
:101294000AF093518F27945190239551912396519D
:1012A400922392A158EF09F05AEF09F006EF0AF0E1
:1012B4009EA15FEF09F061EF09F067EF09F0D890A4
:1012C4009E3101099E6F69EF09F0D8909E338FA17A
:1012D4006EEF09F070EF09F071EF09F09E8F92350F
:1012E4009233913390338F339D2B06EF0AF0935151
:1012F4008F5D94519059955191599251800A976FED
:101304009651800A9759D8B08AEF09F08CEF09F00A
:10131400B7EF09F08F51935D976F90519459986F7F
:1013240091519559996F925196599A6FFF0E97253D
:101334008F6FFF0E9821906FFF0E9921916FFF0E12
:101344009A21926F800E9B1B9E6D9E51D8A4ADEF87
:1013540009F0AFEF09F0BFEF09F0010E8F27000E7F
:10136400902391239223BFEF09F093518F5F9451FF
:10137400905B9551915B9651925B8F5190119111B5
:101384009211D8A4C8EF09F0CAEF09F0FFEF09F0F1
:101394009E51D8A4D0EF09F0D2EF09F0FFEF09F085
:1013A400000E8F6F000E906F000E916F000E926F03
:1013B4009AEF0AF0D8908F379037913792379EAFD3
:1013C400E6EF09F0E8EF09F0E9EF09F08F819EA15B
:1013D400EEEF09F0F0EF09F0F4EF09F0D8809E3752
:1013E400F6EF09F0D8909E379D51D8B4FCEF09F080
:1013F400FEEF09F0FFEF09F09D0791AF04EF0AF04B
:1014040006EF0AF0DCEF09F0000E9C6F9EAF0DEFC3
:101414000AF00FEF0AF027EF0AF09EC097F07F0E54
:101424009717D8B418EF0AF01AEF0AF01EEF0AF073
:10143400010E9C6F27EF0AF08FA123EF0AF025EF2E
:101444000AF027EF0AF01AEF0AF09C51D8B42DEFF6
:101454000AF02FEF0AF05AEF0AF0010E8F27000E60
:1014640090239123922392A13AEF0AF03CEF0AF0E1
:101474005AEF0AF08FC097F090C098F091C099F09D
:1014840092C09AF09A359A3399339833973397C028
:101494008FF098C090F099C091F09AC092F09D2975
:1014A400D8B457EF0AF059EF0AF05AEF0AF09D2B1F
:1014B4009D29D8B460EF0AF062EF0AF06AEF0AF0EF
:1014C4009D51D8A468EF0AF06AEF0AF07CEF0AF0A5
:1014D400000E8F6F000E906F000E916F000E926FD2
:1014E4009D51D8A478EF0AF07AEF0AF07CEF0AF065
:1014F400000E9B6F9DA181EF0AF083EF0AF086EF47
:101504000AF0918F87EF0AF0919FD8909D31926FE6
:101514009BAF8FEF0AF091EF0AF092EF0AF0928FEF
:101524008FC08FF090C090F091C091F092C092F073
:10153400120000017951800B826F79517925886FEF
:1015440078AFA7EF0AF0A9EF0AF0AAEF0AF08881B2
:101554008851D8B4B0EF0AF0B2EF0AF0C5EF0AF040
:101564008829D8A4B8EF0AF0BAEF0AF0C2EF0AF05B
:10157400000E766F000E776F000E786F000E796F95
:10158400788FCDEF0AF0000E766F000E776F000EA5
:10159400786F000E796F7D51800B821B7D517D2504
:1015A400836F7CAFD8EF0AF0DAEF0AF0DBEF0AF0D2
:1015B40083818351D8B4E1EF0AF0E3EF0AF0F6EF48
:1015C4000AF08329D8A4E9EF0AF0EBEF0AF0F3EF6D
:1015D4000AF0000E7A6F000E7B6F000E7C6F000E17
:1015E4007D6F7C8FFEEF0AF0000E7A6F000E7B6F2A
:1015F400000E7C6F000E7D6F8351D8B404EF0BF0A6
:1016040006EF0BF00EEF0BF08851D8A40CEF0BF0A3
:101614000EEF0BF018EF0BF0000E766F000E776FE5
:10162400000E786F000E796FC2EF0CF07C517603D8
:101634006F00CCFF8DF06F00D0FF8EF08D51846F62
:10164400856B866B876B8E51896F8A6B8B6B8C6B0A
:101654007B5177036F00CCFF8DF06F00D0FF8EF0CD
:101664008D518427000E8523862387238E51892755
:10167400000E8A238B238C237A5178036F00CCFFCE
:101684008DF06F00D0FF8EF08D518427000E8523DE
:10169400862387238E518927000E8A238B238C234C
:1016A40086C087F085C086F084C085F0846B7A514B
:1016B40077036F00CCFF8DF06F00D0FF8EF08D515B
:1016C40084278E518523000E8623000E87237B51A9
:1016D40076036F00CCFF8DF06F00D0FF8EF08D513C
:1016E40084278E518523000E8623000E872386C00F
:1016F40087F085C086F084C085F0846B7A517603C8
:101704006F00CCFF8DF06F00D0FF8EF08D518427D9
:101714008E518523000E8623000E87237C51770388
:101724006F00CCFF8DF06F00D0FF8EF08D518927B4
:101734008E518A23000E8B23000E8C237B51780359
:101744006F00CCFF8DF06F00D0FF8EF08D51892794
:101754008E518A23000E8B23000E8C237C51780338
:101764006F00CCFF8DF06F00D0FF8EF08D517E6F37
:101774008E517F6F806B816B80C081F07FC080F061
:101784007EC07FF07E6B7E5189277F518A238051F2
:101794008B2381518C2384C07EF085C07FF086C06A
:1017A40080F087C081F0190EDDEF0BF0D890813303
:1017B40080337F337E33E82ED8EF0BF07E518927B8
:1017C4007F518A2380518B2381518C2386C087F0DB
:1017D40085C086F084C085F0846B835188C07EF018
:1017E4007F6B7E27000E7F23820E7E258D6FFF0E7A
:1017F4007F218E6F13EF0CF0D89089378A378B379F
:101804008C3787AF08EF0CF00AEF0CF00BEF0CF0FD
:101814008981D89084378537863787378D07D8A054
:101824008E078BAF18EF0CF01AEF0CF0FEEF0BF0F5
:10183400000E836F87AF21EF0CF023EF0CF047EF1E
:101844000CF0FF0E84157E6FFF0E85157F6FFF0E63
:101854008615806F7F0E8715816F7E517F118011F1
:101864008111D8B438EF0CF03AEF0CF03EEF0CF0E5
:10187400010E836F47EF0CF089A143EF0CF045EFA5
:101884000CF047EF0CF03AEF0CF08351D8B44DEF65
:101894000CF04FEF0CF073EF0CF0010E8927000EE3
:1018A4008A238B238C238CA15AEF0CF05CEF0CF071
:1018B40073EF0CF089C07EF08AC07FF08BC080F09B
:1018C4008CC081F08135813380337F337E337EC099
:1018D40089F07FC08AF080C08BF081C08CF08D4B82
:1018E4008E2B8EBF7EEF0CF08E5108E18D29D8A08F
:1018F4007EEF0CF080EF0CF08AEF0CF0000E896F95
:10190400000E8A6F800E8B6F7F0E8C6FB8EF0CF019
:101914008EBF97EF0CF08E5106E18D05D8B095EF90
:101924000CF097EF0CF0A3EF0CF0000E896F000E93
:101934008A6F000E8B6F000E8C6F000E826FB8EFF3
:101944000CF08DC088F0FF0E8917FF0E8A177F0EEA
:101954008B17000E8C1788A1B2EF0CF0B4EF0CF0CB
:10196400B5EF0CF08B8FD89088318C6F82518C132B
:1019740089C076F08AC077F08BC078F08CC079F09B
:1019840012007CC094F07DC095F07EC096F07FC0BC
:1019940097F080C098F081C099F082C09AF083C01B
:1019A4009BF000019BBFD9EF0CF0DCEF0CF0010EB3
:1019B400DDEF0CF0000E926F936B92519311D8B43B
:1019C400E6EF0CF0E8EF0CF0F8EF0CF09B1F9A1F19
:1019D400991F981F971F961F951F946D000E9523AE
:1019E40096239723982399239A239B23D9BFFDEF0A
:1019F4000CF0FFEF0CF000EF0DF02392D9BF0DEFC8
:101A04000DF0D95106E1D805D8B00BEF0DF00DEF6C
:101A14000DF013EF0DF0000E8F6F010E8E6F17EFA8
:101A24000DF0D8C08EF0D9C08FF0D6C090F0D7C0DA
:101A340091F092519311D8A422EF0DF024EF0DF000
:101A44002BEF0DF023A429EF0DF02BEF0DF02EEF6B
:101A54000DF09007D8A09107000E9D6F1F0E9C6F8C
:101A6400000E01011F6FB4EF0DF09C07D8A09D0775
:101A7400000E9C25D96E010E9D21DA6E94C060F093
:101A840095C061F096C062F097C063F098C064F0AE
:101A940099C065F09AC066F09BC067F00A0E686F43
:101AA400000E696F000E6A6F000E6B6F000E6C6F94
:101AB400000E6D6F000E6E6F000E6F6FBEEC14F0B3
:101AC40060C084F061C085F062C086F063C087F0B6
:101AD40064C088F065C089F066C08AF067C08BF086
:101AE40084C070F086C071F098EC1DF00001705154
:101AF400300FDF6E8E07D8A08F079007D8A091070C
:101B040094C060F095C061F096C062F097C063F035
:101B140098C064F099C065F09AC066F09BC067F005
:101B24000A0E686F000E696F000E6A6F000E6B6F0D
:101B3400000E6C6F000E6D6F000E6E6F000E6F6FF7
:101B4400F9EC13F060C094F061C095F062C096F0B7
:101B540063C097F064C098F065C099F066C09AF0CD
:101B640067C09BF000019DBFC0EF0DF09D5108E1DF
:101B74009C05D8A0C0EF0DF0C2EF0DF0F2EF0DF010
:101B84009451951196119711981199119A119B11CD
:101B9400D8A4CFEF0DF0D1EF0DF037EF0DF08FBFDC
:101BA400DEEF0DF08F5106E18E05D8B0DCEF0DF0BD
:101BB400DEEF0DF037EF0DF091BFE9EF0DF091512D
:101BC40008E19005D8A0E9EF0DF0EBEF0DF0F2EF8E
:101BD4000DF023B2F0EF0DF0F2EF0DF037EF0DF052
:101BE40092519311D8A4F9EF0DF0FBEF0DF002EF31
:101BF4000EF023A400EF0EF002EF0EF021EF0EF032
:101C04009C07D8A09D0792519311D8A40CEF0EF015
:101C14000EEF0EF014EF0EF0000E8D6F2B0E8C6F86
:101C240018EF0EF0000E8D6F2D0E8C6F000E9C259C
:101C3400D96E010E9D21DA6E600033F2DFFF7AC0A7
:101C440070F07BC071F0000E9C25726F010E9D2117
:101C5400736F90C074F091C075F07CEC18F070C094
:101C64007AF071C07BF0120045EF0FF00001E451EF
:101C7400E85D01012C6F0001E551E95901012D6F67
:101C84000001E251E65D01012E6F0001E351E759C5
:101C940001012F6F2DBF58EF0EF02D5109E13D0EBC
:101CA4002C5DD8A058EF0EF05AEF0EF084EF0EF032
:101CB4000001E55107E1C80EE45DD8B064EF0EF011
:101CC40066EF0EF084EF0EF0000EEA6F010EEC6F7B
:101CD400040EED6F010E0101226F100E236F2CC153
:101CE40024F12DC125F12EC126F12FC127F17DEC60
:101CF4001FF0250E0101226F100E236F7DEC1FF0E3
:101D040064EF0FF001012FBF91EF0EF02F5109E1A5
:101D14003D0E2E5DD8A091EF0EF093EF0EF064EF20
:101D24000FF00001E35107E1C80EE25DD8B09DEF6A
:101D34000EF09FEF0EF064EF0FF0000EEA6F010E4D
:101D4400EC6F050EED6F010E0101226F100E236F73
:101D54002CC124F12DC125F12EC126F12FC127F16B
:101D64007DEC1FF0170E0101226F100E236F7DEC26
:101D74001FF064EF0FF00F0E0001EA65C4EF0EF0E0
:101D8400C6EF0EF0D3EF0EF0000EEA6F020EEC6F0A
:101D9400690E0101226F100E236F7DEC1FF064EFBA
:101DA4000FF0EA2B64EF0FF03C0E0001EA65DDEF63
:101DB4000EF0DFEF0EF0D3EF0EF0040EED19D8A401
:101DC400E6EF0EF0E8EF0EF0F5EF0EF0490E01012C
:101DD400226F100E236FE8C024F1E9C025F17DECD9
:101DE4001FF009EF0FF0040EED19D8A4FCEF0EF06C
:101DF400FEEF0EF009EF0FF0540E0101226F100EEA
:101E0400236FE6C024F1E7C025F17DEC1FF000014B
:101E1400E95109E1280EE85DD8A013EF0FF015EFA2
:101E24000FF020EF0FF0E75107E1280EE65DD8B080
:101E34001EEF0FF020EF0FF064EF0FF0000EEA6FCB
:101E4400030EEC6F000EED6F320E0101226F100EC7
:101E5400236F7DEC1FF064EF0FF0320E0001EA6592
:101E640036EF0FF038EF0FF0D3EF0EF0000EEA6FFD
:101E7400000EEC6F5F0E0101226F100E236F7DECDC
:101E84001FF064EF0FF00001EC5101012A6F2B6B7E
:101E94002B51000AD8B451EF0FF064EF0FF02A5120
:101EA400000AD8B438EF0EF0010AD8B4BDEF0EF032
:101EB400030AD8B4D6EF0EF0010AD8B42FEF0FF00E
:101EC40064EF0FF0E8C0E4F0E9C0E5F0E6C0E2F04A
:101ED400E7C0E3F01200000E0001AC6F000EAB6F20
:101EE4002DEF10F0EF5109E1290EEE5DD8A07DEF42
:101EF4000FF07FEF0FF081EF0FF0000EED6FE1BFF9
:101F04008CEF0FF0E15108E1E005D8A08CEF0FF061
:101F14008EEF0FF098EF0FF0E0C0ABF0E1C0ACF043
:101F2400FE0EAB27FF0EAC2352EF10F0E1BFA3EF80
:101F34000FF0E15108E1E005D8A0A3EF0FF0A5EF01
:101F44000FF052EF10F0EF5107E1140EEE5DD8B030
:101F5400AEEF0FF0B0EF0FF052EF10F0E0C0ABF0C7
:101F6400E1C0ACF0FC0EAB27FF0EAC2352EF10F037
:101F7400EF5107E1280EEE5DD8B0C3EF0FF0C5EFC7
:101F84000FF0C7EF0FF0010EED6FEF5109E1650E91
:101F9400EE5DD8A0D0EF0FF0D2EF0FF01BEF10F0F2
:101FA400000E936F000E946F480E956F430E966F5C
:101FB400CD0E7A6FCC0E7B6F4C0E7C6F3F0E7D6F17
:101FC4009C0EA76FFF0EA86FEEC0A9F0EFC0AAF099
:101FD400A751A927A851AA23A9C068F0AAC069F0EB
:101FE4006A6B6B6B000E83EC11F068C076F069C00D
:101FF40077F06AC078F06BC079F09BEC0AF076C099
:102004008FF077C090F078C091F079C092F03AECFC
:1020140008F08FC09FF090C0A0F091C0A1F092C0D2
:10202400A2F09DEC16F09FC0ABF0A0C0ACF052EF54
:1020340010F0000EAC6FC80EAB6F52EF10F0FF0E35
:10204400AC6F6A0EAB6F52EF10F0000EAC6F960ED1
:10205400AB6F52EF10F0ED51A76FA86BA851000AB7
:10206400D8B437EF10F052EF10F0A751000AD8B4EB
:10207400BAEF0FF0010AD8B474EF0FF0030AD8B422
:1020840021EF10F0010AD8B421EF10F0070AD8B4F8
:1020940027EF10F0010AD8B427EF10F052EF10F038
:1020A4000001ACBF5FEF10F0C30EAB5D010EAC5985
:1020B400D8A05FEF10F061EF10F065EF10F0010EA3
:1020C400AC6FC20EAB6FACAF71EF10F0380EAB5DFE
:1020D400FF0EAC59D8B071EF10F073EF10F077EF3A
:1020E40010F0FF0EAC6F380EAB6FABC0E0F0ACC0BD
:1020F400E1F01200600083F2D9FF600087F2DAFF9A
:102104006F007BFFF6FF6F0077FFF7FFF86A0800A8
:10211400F550250AD8A491EF10F093EF10F05FEF7B
:1021240011F0600083F2D9FF600087F2DAFFDE2A43
:10213400000EDD22000E0001D76F000ED66FD6C050
:1021440023F0D7C024F0D869D969600083F2D9FF9D
:10215400600087F2DAFF6F007BFFF6FF6F0077FF06
:10216400F7FFF86A0800F550640AD8B4BCEF10F021
:10217400BEEF10F0D5EF10F0600083F2D9FF6000DD
:1021840087F2DAFF6F007BFFF6FF6F0077FFF7FF40
:10219400F86A0800F550690AD8A4D3EF10F0D5EF17
:1021A40010F01FEF11F0600083F2D9FF600087F296
:1021B400DAFFDE2A000EDD2260008BF2D9FF600018
:1021C4008FF2DAFF6F007CFFA4F0020EDE266F00B0
:1021D4007CFFA5F0000EDD22600093F2D9FF6000C1
:1021E40097F2DAFF6F0078FFA6F06F0074FFA7F094
:1021F400000EA7BFFF0EA86FA96FAA6FAB6FAC6FDD
:10220400AD6F9EC07AF09FC07BF0A6C07CF0A7C0E3
:102214007DF0A8C07EF0A9C07FF0AAC080F0ABC05A
:1022240081F0ACC082F0ADC083F0C3EC0CF07AC096
:102234009EF07BC09FF082EF11F0600083F2D9FF23
:10224400600087F2DAFF6F007BFFF6FF6F0077FF15
:10225400F7FFF86A0800F550250AD8A434EF11F006
:1022640036EF11F050EF11F0600083F2D9FF6000F7
:1022740087F2DAFFDE2A000EDD22000E616F250EE2
:10228400606F9EC062F09FC063F042EC1AF0000ED3
:1022940000019F6F010E9E6F82EF11F0600083F2C8
:1022A400D9FF600087F2DAFFDE2A000EDD22000E7D
:1022B4009F6F000E9E6F82EF11F0600083F2D9FFD2
:1022C400600087F2DAFF6F007BFFF6FF6F0077FF95
:1022D400F7FFF86A0800F5500001606F616B9EC05B
:1022E40062F09FC063F042EC1AF0600083F2D9FF01
:1022F400600087F2DAFFDE2A000EDD2249EF11F0DA
:1023040012000001706F00017051D8B48CEF11F00D
:102314008EEF11F0B0EF11F06BBF95EF11F093EF6A
:1023240011F0B0EF11F068C06CF069C06DF06AC0D4
:102334006EF06BC06FF06C1F6D1F6E1F6F1F6C2BE8
:10234400000E6D236E236F236CC072F06DC073F0AA
:102354006EC074F06FC075F0B8EF11F068C072F021
:1023640069C073F06AC074F06BC075F0685169118C
:102374006A116B11D8A4C1EF11F0C3EF11F0CDEFC6
:1023840011F0000E686F000E696F000E6A6F000E88
:102394006B6F5EEF12F0960E716FD7EF11F0712B29
:1023A400D8907533743373337233000E72156C6FB7
:1023B400000E73156D6F000E74156E6FFE0E75159D
:1023C4006F6F6C516D116E116F11D8A4ECEF11F099
:1023D400EEEF11F0D1EF11F0FCEF11F0712B010EC3
:1023E4007227000E732374237523D89075337433C6
:1023F40073337233000E72156C6F000E73156D6FAC
:10240400000E74156E6FFF0E75156F6F6C516D11A4
:102414006E116F11D8A411EF12F013EF12F0F0EF58
:1024240011F01BEF12F07107D890723773377437BD
:10243400753774BF20EF12F022EF12F02AEF12F07A
:10244400020E716128EF12F02AEF12F015EF12F06C
:1024540071B12FEF12F031EF12F032EF12F0749FDE
:10246400D890713371C06CF06D6B6E6B6F6B6CC018
:102474006FF06E6B6D6B6C6B6C5172136D517313EB
:102484006E5174136F5175137051D8B44CEF12F030
:102494004EEF12F056EF12F06BBF55EF12F053EF00
:1024A40012F056EF12F0758F72C068F073C069F0C5
:1024B40074C06AF075C06BF01200000E00016E6FFC
:1024C400000E6D6F000E706F000E6F6FB0EF12F0A4
:1024D40068C06DF069C06EF068C06BF069C06CF0E4
:1024E4006B1F6C1F6B4B6C2B6BC06FF06CC070F070
:1024F400D1EF12F068C06DF069C06EF068C06FF083
:1025040069C070F0D1EF12F068C06DF069C06EF070
:1025140068C060F069C061F0FF0E636FFD0E626F0A
:10252400E0EC18F060C06FF061C070F0D1EF12F011
:1025340068C06DF069C06EF0D1EF12F068C06FF042
:1025440069C070F0D1EF12F0000E6E6F000E6D6F67
:10255400000E706F000E6F6FD1EF12F06A516B6F47
:102564006C6B6C51000AD8B4BAEF12F0A6EF12F0FB
:102574006B51000AD8B46AEF12F0010AD8B47CEFA8
:1025840012F0030AD8B486EF12F0010AD8B49AEF15
:1025940012F0070AD8B4A0EF12F0A6EF12F000016F
:1025A4006EBFDEEF12F06E5109E1420E6D5DD8A0F0
:1025B400DEEF12F0E0EF12F0E6EF12F0000E6E6FB5
:1025C400410E6D6FF8EF12F06EAFF2EF12F0BF0E26
:1025D4006D5DFF0E6E59D8B0F2EF12F0F4EF12F009
:1025E400F8EF12F0FF0E6E6FBF0E6D6F70BF04EF49
:1025F40013F0705109E1290E6F5DD8A004EF13F0B8
:1026040006EF13F00CEF13F0000E706F280E6F6FCF
:102614001EEF13F070AF18EF13F0D80E6F5DFF0EBE
:102624007059D8B018EF13F01AEF13F01EEF13F02F
:10263400FF0E706FD80E6F6F600E6D25206E010E49
:102644006E21216E2CEC1EF0650E00016F25206EAC
:10265400010E7021216E47EC1EF012000001E651BC
:10266400E85D736FE751E959746F73C060F074C02B
:1026740061F0000E636F020E626FE0EC18F060C050
:1026840073F061C074F06FEF13F074BF53EF13F085
:10269400745109E11F0E735DD8A053EF13F055EF89
:1026A40013F05BEF13F0000E746F1E0E736FD3EF15
:1026B40013F074AF67EF13F0E20E735DFF0E7459FD
:1026C400D8B067EF13F069EF13F08DEF13F0FF0E3E
:1026D400746FE20E736FD3EF13F00001ED51716F5D
:1026E400726B7251000AD8B47AEF13F0D3EF13F07F
:1026F4007151000AD8B447EF13F0010AD8B447EF78
:1027040013F0050AD8B447EF13F0010AD8B447EF21
:1027140013F0D3EF13F0D3EF13F073C068F074C069
:1027240069F0020E6A6F5FEC12F0F8EF13F073C0F9
:1027340068F074C069F0030E6A6F5FEC12F0F8EF92
:1027440013F0000E696F280E686F000E6A6F5FEC5D
:1027540012F0F8EF13F0020EEC19D8A4B4EF13F052
:10276400B6EF13F099EF13F0000E696F410E686F26
:10277400020E6A6F5FEC12F0F8EF13F0020EEC1920
:10278400D8A4C7EF13F0C9EF13F099EF13F0FF0EBD
:10279400696FBF0E686F020E6A6F5FEC12F0F8EF9C
:1027A40013F0ED51716F726B7251000AD8B4DDEF02
:1027B40013F0F8EF13F07151000AD8B499EF13F045
:1027C400010AD8B48FEF13F0030AD8B4A3EF13F0BF
:1027D400010AD8B4A3EF13F0070AD8B4ADEF13F08D
:1027E400010AD8B4C0EF13F0F8EF13F01200000E92
:1027F4000001716F6FBF03EF14F001EF14F015EFD8
:1028040014F06F1F6E1F6D1F6C1F6B1F6A1F691FF3
:10281400686D000E69236A236B236C236D236E237A
:102824006F23010E716F67BF1CEF14F01AEF14F0E1
:102834002EEF14F0671F661F651F641F631F621F5E
:10284400611F606D000E612362236323642365238B
:1028540066236723010E711B20EE72F0070EDE6AF9
:10286400E806FDE2685169116A116B116C116D1172
:102874006E116F11D8B441EF14F043EF14F095EFDB
:1028840014F0010E706F51EF14F0D8906837693767
:102894006A376B376C376D376E376F37702B6FAFA6
:1028A40056EF14F058EF14F047EF14F0D890723745
:1028B40073377437753776377737783779376851A0
:1028C400605D695161596A5162596B5163596C5128
:1028D40064596D5165596E5166596F516759D8A045
:1028E40076EF14F078EF14F089EF14F06851605F1C
:1028F4006951615B6A51625B6B51635B6C51645BF0
:102904006D51655B6E51665B6F51675B7281D890E8
:102914006F336E336D336C336B336A3369336833BF
:10292400702F58EF14F07151D8B49BEF14F09DEF51
:1029340014F0ADEF14F0791F781F771F761F751F01
:10294400741F731F726D000E732374237523762313
:1029540077237823792372C060F073C061F074C068
:1029640062F075C063F076C064F077C065F078C03B
:1029740066F079C067F01200000E216E000167BF97
:10298400C8EF14F0C6EF14F0DAEF14F0671F661FF7
:10299400651F641F631F621F611F606D000E61234A
:1029A400622363236423652366236723010E216E58
:1029B4006FBFE1EF14F0DFEF14F0F1EF14F06F1FCD
:1029C4006E1F6D1F6C1F6B1F6A1F691F686D000EE1
:1029D40069236A236B236C236D236E236F23685151
:1029E40069116A116B116C116D116E116F11D8B4EC
:1029F400FEEF14F000EF15F048EF15F0010E206E15
:102A04000EEF15F0D890683769376A376B376C3733
:102A14006D376E376F37202A6FAF13EF15F015EF50
:102A240015F004EF15F06851605D695161596A5100
:102A340062596B5163596C5164596D5165596E51AA
:102A440066596F516759D8A02AEF15F02CEF15F08D
:102A54003CEF15F06851605F6951615B6A51625BDC
:102A64006B51635B6C51645B6D51655B6E51665B6E
:102A74006F51675BD8906F336E336D336C336B3348
:102A84006A3369336833202E15EF15F02150D8B41A
:102A94004EEF15F050EF15F060EF15F0671F661F4D
:102AA400651F641F631F621F611F606D000E612339
:102AB40062236323642365236623672360C060F075
:102AC40061C061F062C062F063C063F064C064F02E
:102AD40065C065F066C066F067C067F0120000016B
:102AE400DE51E05DA96FDF51E159AA6FDC51DE5D73
:102AF400AB6FDD51DF59AC6FF5EC19F020C0DEF09F
:102B040021C0DFF0CD0E00017A6FCC0E7B6FCC0EAE
:102B14007C6F3C0E7D6F000E636F020E626FABC064
:102B240060F0ACC061F0E0EC18F0A9C0A7F0AAC056
:102B3400A8F000016051A75F6151A85BA7C068F0CD
:102B4400A8C069F0000E69BFFF0E6A6F6B6F010EBB
:102B540083EC11F068C076F069C077F06AC078F051
:102B64006BC079F09BEC0AF076C09FF077C0A0F0C0
:102B740078C0A1F079C0A2F09DEC16F000019F513D
:102B8400AD6FAD51800A7D0FD8A0CBEF15F0CDEF1E
:102B940015F0D1EF15F0020EAD6FDDEF15F0AD516C
:102BA400800A820FD8B0D9EF15F0DBEF15F0DDEF16
:102BB40015F0FE0EAD6FDA51AD25DA6F000EADBF24
:102BC400FF0EDB21DB6FDBBFF1EF15F0BD0EDA5D2D
:102BD400020EDB59D8A0F1EF15F0F3EF15F0F9EF81
:102BE40015F0020EDB6FBC0EDA6F0BEF16F0DBAFE5
:102BF40005EF16F0D40EDA5DFE0EDB59D8B005EF02
:102C040016F007EF16F00BEF16F0FE0EDB6FD40E86
:102C1400DA6FDAC062F0DBC063F0A4EC17F0DEC058
:102C2400DCF0DFC0DDF01200000E0001696F67BF49
:102C340020EF16F01EEF16F02AEF16F0671F661F3E
:102C4400651F646D000E652366236723010E696F9B
:102C540063BF31EF16F02FEF16F03BEF16F0631F52
:102C6400621F611F606D000E612362236323010EE6
:102C7400691B000E6A6F000E6B6F000E6C6F000E06
:102C84006D6F6451651166116711D8B44CEF16F07D
:102C94004EEF16F084EF16F0010E686F58EF16F041
:102CA400D8906437653766376737682B67AF5DEF51
:102CB40016F05FEF16F052EF16F0D8906A376B37C4
:102CC4006C376D376451605D655161596651625965
:102CD40067516359D8A071EF16F073EF16F07CEFCB
:102CE40016F06451605F6551615B6651625B6751C8
:102CF400635B6A81D8906733663365336433682FC6
:102D04005FEF16F06951D8B48AEF16F08CEF16F025
:102D140094EF16F06D1F6C1F6B1F6A6D000E6B2312
:102D24006C236D236AC060F06BC061F06CC062F00C
:102D34006DC063F012000001A135A235216E21504F
:102D4400D8A4A7EF16F0A9EF16F0B3EF16F0000E13
:102D54009F6F000EA06F000EA16F000EA26F20EFF8
:102D640017F09FC0A3F0A0C0A4F0A1C0A5F0A2C01A
:102D7400A6F0200EC3EF16F0D890A633A533A433E3
:102D8400A333E82EBEEF16F0A351206EA18FFF0EE1
:102D94009F17FF0EA017FF0EA117000EA217960E85
:102DA400215E21BEDAEF16F0D8EF16F0F0EF16F040
:102DB4002150800A970FD8B0E2EF16F0E4EF16F036
:102DC400E6EF16F0A9EF16F0D890A233A133A033A2
:102DD4009F33213EE6EF16F008EF17F01F0E216433
:102DE400F6EF16F0F8EF16F000EF17F0A9EF16F073
:102DF400D8909F37A037A137A23721062150D8A4F5
:102E040006EF17F008EF17F0FAEF16F02050D8B4D9
:102E14000EEF17F010EF17F018EF17F0A21FA11F15
:102E2400A01F9F6D000EA023A123A2239FC09FF08B
:102E3400A0C0A0F0A1C0A1F0A2C0A2F01200000E98
:102E4400000176157E6F000E77157F6F800E781562
:102E5400806F7F0E7915816F7E517F1180118111F2
:102E6400D8A437EF17F039EF17F041EF17F0000E41
:102E7400766F000E776F000E786F000E796F000E7C
:102E84007A157E6F000E7B157F6F800E7C15806F28
:102E94007F0E7D15816F7E517F1180118111D8A421
:102EA40056EF17F058EF17F060EF17F0000E7A6F37
:102EB400000E7B6F000E7C6F000E7D6F79AF65EFA7
:102EC40017F067EF17F070EF17F0766D771FD8B033
:102ED400772B781FD8B0782B800E79577DAF75EF9C
:102EE40017F077EF17F080EF17F07A6D7B1FD8B0EB
:102EF4007B2B7C1FD8B07C2B800E7D57000E761B5D
:102F0400000E771B000E781B800E791B000E7A1BB7
:102F1400000E7B1B000E7C1B800E7D1B7A51765DA0
:102F24007B5177597C5178597D517959D8B09DEFAF
:102F340017F09FEF17F0A2EF17F0D890A3EF17F058
:102F4400D8801200000163BFB1EF17F0635109E1AB
:102F5400330E625DD8A0B1EF17F0B3EF17F0D3EFE3
:102F640017F063BFBFEF17F0BD0E625D020E635929
:102F7400D8A0BFEF17F0C1EF17F0C5EF17F0020E9E
:102F8400636FBC0E626F62C020F063C021F07DEC01
:102F94001EF0000E216E000E206E62EC1EF016EF85
:102FA40018F063BFE1EF17F0635107E1320E625D81
:102FB400D8B0DFEF17F0E1EF17F00AEF18F063AFC6
:102FC400EDEF17F0D40E625DFE0E6359D8B0EDEF4D
:102FD40017F0EFEF17F0F3EF17F0FE0E636FD40E58
:102FE400626F000E216E000E206E7DEC1EF062C03A
:102FF40064F063C065F00001641F651F644B652BBA
:1030040064C020F065C021F062EC1EF016EF18F0E9
:10301400000E216E000E206E7DEC1EF0000E216E5F
:10302400000E206E62EC1EF01200000EBE6E000E4A
:10303400BD6E240EBA6E000EBB6E000EBC6E070E83
:10304400C66EC00EC26EF70EC36EC468C5681F0E8E
:103054003A01706F6069C00E506F070E806F7F0E6B
:10306400406F000E716F000E816F000E516F000EE5
:10307400416F000E616F000E5A6F000E5B6F000E01
:103084006A6F000E6B6F000E7A6F000E7B6F000E7E
:10309400826F000E426F000E526F000E626F000EC0
:1030A400726F4369536963697369070E836F446977
:1030B4005469646974690F0E846F1F0ECF6F090E13
:1030C400DC6F0E0E016F0A0EE56F0D0E006F1D0E04
:1030D400C96F100E046F070ED96F090ED16F0F0E52
:1030E400036F130E0B6F080EDB6F080ED26F1E0EEC
:1030F400D06F120023A081EF18F083EF18F08DEF4A
:1031040018F072C069F073C06AF070C06BF071C0DF
:103114006CF02DEC1DF0000175BF93EF18F095EFE6
:1031240018F09BEF18F074C078F075C079F09FEF39
:1031340018F0000E796F000E786F000E776F000E96
:10314400766FB2EF18F0000E616F200E606F70C0E2
:1031540062F071C063F042EC1AF00001764B772BF9
:103164007851765D7751800A226E7951800A22580F
:10317400D8A0BFEF18F0C1EF18F0A5EF18F023B0F6
:10318400C6EF18F0C8EF18F0D2EF18F072C069F06B
:1031940073C06AF070C06BF071C06CF02DEC1DF060
:1031A40072C020F073C021F0B9EC1DF00001785119
:1031B4002024706F79512120716F1200000E0001DC
:1031C400656F63BFEAEF18F0E8EF18F0F0EF18F05E
:1031D400626D631FD8B0632B010E656F61BFF7EF9B
:1031E40018F0F5EF18F0FDEF18F0606D611FD8B01E
:1031F400612B010E651B000E676F000E666F625136
:103204006311D8B408EF19F00AEF19F032EF19F08E
:10321400010E646F12EF19F0D89062376337642B94
:1032240063AF17EF19F019EF19F00EEF19F0D890FA
:10323400663767376251605D63516159D8A025EFE5
:1032440019F027EF19F02CEF19F06251605F635108
:10325400615B6681D89063336233642F19EF19F090
:103264006551D8B438EF19F03AEF19F03EEF19F080
:10327400666D671FD8B0672B66C060F067C061F0E9
:103284001200B40E3124D96EDA6A000EDA22000E6E
:10329400DF6E3D01F9A751EF19F053EF19F067EF15
:1032A40019F0B40E3124D96EDA6A000EDA22000164
:1032B400DF8202D867EF19F00500FA6EFE51FD6E49
:1032C400FF51FE6EFF6AFA5012003D01F9A36DEF43
:1032D40019F06FEF19F083EF19F0B40E3124D96EA1
:1032E400DA6A000EDA220001DF8402D883EF19F0D3
:1032F4000500FA6EFC51FD6EFD51FE6EFF6AFA5038
:103304001200B40E3124D96EDA6A000EDA22DF50CC
:10331400D8B48FEF19F091EF19F0A0EF19F002D89B
:103324009EEF19F00500FA6E0001FA51FD6EFB5193
:10333400FE6EFF6AFA501200A2EF19F051EC1FF072
:10334400120039019397860E206E320E216E57ECCF
:1033540020F039019399EC0E206E3A0E216E52EC56
:1033640020F0000E3D01EC6F000EED6F000EEE6FCD
:10337400000EEF6F000EF06F000EF16FB00EF26FE3
:10338400800EF36F000EF46F8A0EF56F000EF66F69
:10339400000EF76F000EF86F000EF96F000EFA6F53
:1033A4000C0E206E410E216E61EC20F00A0E206E90
:1033B400410E216E5CEC20F0FE0E206E400E216E5C
:1033C40066EC20F0000E2E6E000E336E000E326E90
:1033D400080E406E000E316E000E306E000E2F6E21
:1033E400390193871200000E00016F6F000E6E6F9B
:1033F4003450351036103710D8B403EF1AF005EFF7
:103404001AF03DEF1AF03C0160AB0BEF1AF00DEF30
:103414001AF026EF1AF0200E0001606FA10E616F02
:10342400070E626F000E636F34C064F035C065F040
:1034340036C066F037C067F016EC16F060C06EF068
:1034440061C06FF03DEF1AF0E00E0001606F5E0E98
:10345400616FF80E626FFF0E636F34C064F035C0A5
:1034640065F036C066F037C067F016EC16F060C041
:103474006EF061C06FF06EC020F06FC021F01200DA
:10348400000162516311D8B44AEF1AF04CEF1AF0FC
:1034940055EF1AF062516311D8A453EF1AF055EFA7
:1034A4001AF05AEF1AF060514DEC20F08DEF1AF03B
:1034B40020EE09F06251D9266351DA22DE50DE1083
:1034C400D8B467EF1AF069EF1AF084EF1AF020EE1F
:1034D40009F06251D9266351DA2210EE03F06251E9
:1034E400E1266351E222DE50E65CE650800A686F12
:1034F400DE50800A6859D8B082EF1AF084EF1AF0CF
:103504008DEF1AF020EE03F06251D9266351DA22CE
:10351400DE2A000EDD221200A6EC1FF0F0C068F0D7
:10352400F1C069F000016A6B6B6B000E83EC11F063
:1035340068C076F069C077F06AC078F06BC079F043
:10354400000E00017A6F000E7B6F400E7C6F450EFB
:103554007D6F21EC17F00001D8A0B3EF1AF0B5EF9E
:103564001AF08EEF1AF0E8C0E4F0E9C0E5F0E6C026
:10357400E2F0E7C0E3F0000EEB6F0001EB51D8B4CA
:10358400C6EF1AF0C8EF1AF0BFEF1AF0000EEB6F97
:1035940036EC0EF0D7EC1AF030EC13F06DEC0FF0C3
:1035A40071EC15F0BFEF1AF012000001EF5107E1C2
:1035B4000A0EEE5DD8B0E1EF1AF0E3EF1AF0E6EF91
:1035C4001AF02D2AF1EF1AF0020EED19D8B4EDEF2E
:1035D4001AF0EFEF1AF0F1EF1AF0000E2D6E640EF0
:1035E4002D64F7EF1AF0F9EF1AF019EF1BF0E85118
:1035F400E65DE951E759D8B002EF1BF004EF1BF088
:1036040008EF1BF0020EED6F0AEF1BF0030EED6FD7
:10361400EF5109E1290EEE5DD8A013EF1BF015EF71
:103624001BF019EF1BF0000EED6F000E2D6E120053
:10363400B0C020F1B1C021F1000E0001D56F000E21
:10364400D46F38EF1BF0AEC09EF0AFC09FF0200ED9
:10365400A06F010EA16FB2C0A2F0B3C0A3F07CECC6
:1036640010F000019E51D4279F51D523600083F4AC
:10367400F6FF600087F4F7FFF86A0800F5500009C8
:10368400D8A447EF1BF049EF1BF025EF1BF0D4C083
:10369400AEF0D5C0AFF01200206E4050D8B455EF54
:1036A4001BF057EF1BF04FEF1BF0390193B95DEF9F
:1036B4001BF05FEF1BF064EF1BF0600083F0EAFD8A
:1036C4007AEF1BF09399C40E3324D96EDA6A000E94
:1036D400DA22600083F0DFFF332A070E336475EFCC
:1036E4001BF077EF1BF079EF1BF0000E336E4006F2
:1036F40093891200000E3E01DE6F000EDF6F000E94
:10370400E06F000EE16F000EE46F000EE56F000E37
:10371400EA6F000EEC6F000EF16F580EF36F020E9D
:10372400F46F000EF56F000EF66F000EF76F000ECB
:10373400F96F000EFA6F000EFB6F000EFC6F000EA7
:10374400FD6F000EFE6F1F0EFF6F840EF86F1200E8
:103754003901A19F3F0118510001D06F3F01195158
:103764000001D16F3F011A510001D26FD36B3C01AC
:1037740060ABBFEF1BF0C1EF1BF0CAEF1BF0010EF3
:103784000001CC27000ECD23CE23CF23D3EF1BF093
:10379400FF0E0001CC27FF0ECD23FF0ECE23FF0E1C
:1037A400CF2311006F0060FF17F06F00E8FF18F0DF
:1037B4006F00ECFF19F03C503D10D8B4E4EF1BF05F
:1037C400E6EF1BF0F2EF1BF002D8F2EF1BF005005E
:1037D400FA6E3C50FD6E3D50FE6EFF6AFA501200C8
:1037E400600067F0FBFF600063F0FAFF60005FF0C9
:1037F400D8FF11006F0060FF1AF06F00E8FF1BF0A4
:103804006F00ECFF1CF03E503F10D8B40CEF1CF0DE
:103814000EEF1CF01AEF1CF002D81AEF1CF0050092
:10382400FA6E3E50FD6E3F50FE6EFF6AFA50120073
:10383400600073F0FBFF60006FF0FAFF60006BF054
:10384400D8FF11006F0060FF1DF06F00E8FF1EF04D
:103854006F00ECFF1FF03901A791274A282A28504E
:1038640009E10A0E275CD8A03AEF1CF03CEF1CF0EB
:1038740042EF1CF00EEC1FF0000E286E000E276EB7
:1038840060007FF0FBFF60007BF0FAFF600077F0E0
:10389400D8FF1100D28A000ED2BE010E206ED29E35
:1038A400550ED46EAA0ED46ED490000ED76E000EB0
:1038B400D66E080ED56E550ED46EAA0ED46ED48074
:1038C40020B002D0D29E01D0D28E39018399839741
:1038D400818F818B818D8A81888F87918983120062
:1038E4006F00E8FF03F06F00ECFF04F03901A993C7
:1038F4006F00D0FD05F06F00D4FD06F005C001F0A7
:1039040006C002F002D891EF1CF00500FA6E000127
:10391400F851FD6EF951FE6EFF6AFA501200600014
:1039240013F0FBFF60000FF0FAFF11006F00E8FFD7
:1039340009F06F00ECFF0AF03901AA916F00C0FD95
:103944000BF06F00C4FD0CF00BC007F00CC008F0C6
:1039540002D8B7EF1CF00500FA6E0001F651FD6EB7
:10396400F751FE6EFF6AFA50120060002BF0FBFF65
:10397400600027F0FAFF11004CEC1CF0B9EC1FF0CA
:1039840017EC18F03AEC20F0F7EC1EF07CEC1BF08E
:1039940025EC1FF098EC1EF00AEC20F0FCEC1FF074
:1039A40022EC20F0E0EC1EF03BEC1FF0F5EC1DF0F7
:1039B4002EEC20F0E3EC1CF016EC20F0A3EC19F054
:1039C4001200C00E9B6E000E9C6E050E9D6E000EC6
:1039D400996E000E986E3901A89D98506F0064FE90
:1039E40060F00001616B60C061F0606B60113A6E61
:1039F40061513B6E3901A89F988FDA0E206E3F0EFD
:103A0400216E6BEC20F0030E9A6E12003901A19D19
:103A14003F011551346E1651356E1751366E376AA3
:103A24003C0160AB18EF1DF01AEF1DF023EF1DF001
:103A3400010E0001CC27000ECD23CE23CF232CEF83
:103A44001DF0FF0E0001CC27FF0ECD23FF0ECE2369
:103A5400FF0ECF231100000E00016F6F000E6E6F7A
:103A640040EF1DF06DC060F0616B6BC062F06CC024
:103A740063F042EC1AF000016E4B6F2B6E51692516
:103A8400D96E6F516A21DA6EDF506D6F6D51D8A413
:0E3A94004EEF1DF050EF1DF034EF1DF012004C
:103AA4006F00E8FF15F06F00ECFF16F03901A89FD6
:103AB40038503910D8B461EF1DF063EF1DF06FEF8B
:103AC4001DF002D86FEF1DF00500FA6E3850FD6E40
:103AD4003950FE6EFF6AFA50120060005BF0FBFF83
:103AE400600057F0FAFF1100080E40607CEF1DF0F3
:103AF4007EEF1DF095EF1DF0C40E3224D96EDA6A04
:103B0400000EDA22DF503D01EA6F322A070E3264DA
:103B14008EEF1DF090EF1DF092EF1DF0000E326E4F
:103B2400402A97EF1DF0390193991200000171BFEB
:103B3400A6EF1DF0715106E17005D8B0A4EF1DF099
:103B4400A6EF1DF0B4EF1DF070C072F071C073F0F9
:103B5400721F731F724B732B72C070F073C071F0BD
:103B6400B8EF1DF070C070F071C071F0120020C089
:103B740060F021C061F0C1EF1DF0204A212A6000ED
:103B840083F0D9FF600087F0DAFFDF50D8A4CDEFCF
:103B94001DF0CFEF1DF0BFEF1DF000016051205C60
:103BA400206E61512158216E1200226E60008BF04C
:103BB400F1FE3E01F88FF89DF881F8B1E4EF1DF0B5
:103BC400E6EF1DF0DFEF1DF0F0510001616F606B57
:103BD4003E01EF5100016025206E3E01000E000100
:103BE4006121216E1200000EA76E000EA86E050E54
:103BF400A96E000EA56E000EA46E3901A69DA450F8
:103C04006F0094FE20F0216A20C021F0206A201069
:103C14000001F46F2150F56F010EA66E120000EE44
:103C240000F1200EEE6AE806FDE100EEB4F03C0E71
:103C3400EE6AE806FDE100EE23F0150EEE6AE806F2
:103C4400FDE1080ED56E000ED66E000ED76E000193
:103C5400DDEF1FF020C060F021C061F00001D890BA
:103C640061336033D890613360336051696E20C032
:103C740060F0030E6017060E616FD8906037612FF5
:103C84003FEF1EF06051686E120020C060F021C04A
:103C940061F00001D89061336033D89061336033B0
:103CA40060516D6E20C060F0030E6017060E616FE8
:103CB400D8906037612F5AEF1EF060516C6E12007D
:103CC40020C060F021C061F00001D89061336033FE
:103CD400D890613360336051616E20C060F0030E90
:103CE4006017060E616FD8906037612F75EF1EF074
:103CF4006051606E120020C060F021C061F00001CC
:103D0400D89061336033D890613360336051656E0D
:103D140020C060F0030E6017060E616FD890603704
:103D2400612F90EF1EF06051646E1200800E3F010F
:103D34001E6F420E1F6F000E206F040E216F000EC7
:103D4400236F000E226F010E1D6F1C691B69390160
:103D5400918B918F918D3F011F8F1200CDAEB5EFE6
:103D64001EF0B7EF1EF0BDEF1EF001C02BF002C035
:103D74002CF0C7EF1EF02B50015C0001E86F2C50B3
:103D84000258E96FD890E933E8331200CDACCDEF97
:103D94001EF0CFEF1EF0D5EF1EF007C029F008C0CB
:103DA4002AF0DFEF1EF02950075C0001E66F2A506D
:103DB4000858E76FD890E733E6331200830E726E2B
:103DC400000E736E000E716E000E706E900E206EFB
:103DD4003D0E216E75EC20F03F015E513F0B8009D2
:103DE4005E6F3901AA919A811200830E766E000EDD
:103DF400776E000E756E000E746E600E206E3D0EB2
:103E0400216E7AEC20F03F015E51CF0B20095E6FEA
:103E14003901A993998312000001F251F311D8B426
:103E240016EF1FF018EF1FF024EF1FF002D824EF55
:103E34001FF00500FA6EF251FD6EF351FE6EFF6A3B
:103E4400FA5012001200010EA26E000EA16E000EB6
:103E5400A36EF90E9F6E000E9E6E3901A791978195
:103E64000E0E206E410E216E70EC20F0E00EA06E5E
:103E74001200000E3C01616F030E626F020E636F4D
:103E8400000E646F000E656F020E666F080E676F9A
:103E9400000E686F000E696F850E606F1200BC0E15
:103EA4003124D96EDA6A000EDA226F00A3F7DFFF3D
:103EB400312A070E316461EF1FF063EF1FF065EFE5
:103EC4001FF0000E316E2F2A12009AA46CEF1FF01F
:103ED4006EEF1FF077EF1FF09A900E50996E60000E
:103EE40037F098FF9A807CEF1FF00E50996E6000B7
:103EF40037F098FF1200240E0101286F010E296F7C
:103F0400000E0001AE6F000EAF6F22C1B0F023C1EE
:103F1400B1F0280EB26F010EB36F1AEC1BF0120051
:103F24003901A19B000E346E000E356E000E366E04
:103F3400000E376E000E0001D06F000ED16F000E20
:103F4400D26F000ED36F1100220ED7EC1DF020C0EB
:103F5400F0F021C0F1F03E0E0101226F100E236F2C
:103F6400F0C024F1F1C025F17DEC1FF01200000E29
:103F74003901C06F000EC16F000EC26F000EC36F17
:103F8400000EC46F000EC56F000EC66F000EC76F23
:103F940012009A826F0060FE14F06F0064FE13F04A
:103FA40013500F6E1450116E0FC012F011C00DF0AB
:103FB40012C00EF01200BEEC1CF0D28ED28C040E95
:103FC400206E410E216E70EC20F08EEC1AF0E7EFBB
:103FD4001FF057EF00F0CBEC1FF00DC0EEF00EC059
:103FE400EFF00001D890EF33EE3346EC20F03901C6
:103FF400A89F1200050EAE6E000EAD6E000EAF6EE1
:10400400AB68000EAA6E3901A495B00EAC6E120016
:10401400800E626E000E616E000E606E3F015F5195
:104024003F0B80095F6F1200800E666E000E656E96
:10403400000E646E3F015F51CF0B20095F6F1200C9
:10404400800E6A6E590E696E400E686E3F015F51B4
:10405400F30B04095F6F1200800E6E6E590E6D6EC5
:10406400400E6C6E3F015F51FC0B01095F6F120043
:10407400600E3901D96F000EDB6F000EDD6F080E84
:10408400DF6F000EDE6F12003AC00DF03BC00EF081
:1040940067EC1FF01200216E21504EEC1BF0120051
:1040A40020C03CF021C03DF0120020C03EF021C0F1
:1040B4003FF0120020C0FCF021C0FDF0120020C02F
:1040C400FEF021C0FFF0120020C0FAF021C0FBF086
:1040D400120020C038F021C039F0120020C0F2F0E4
:1040E40021C0F3F0120020C0F6F021C0F7F0120056
:1040F40020C0F8F021C0F9F0120051EC1FF01200BA
:0E4104000001EB2B120012001200120011003D
:020000040030CA
:0A0000008CFFFFFF9FFFFFFFFFFFD3
:00000001FF
