:0400000057EF00F0C6
:10000800AC17AC17AC17AC17AC17AC17AC17AC17D0
:10001800AC17AC17AC17AC17AC17361797154A15B1
:10002800AC17AC17AC17AC17AC17AC17AC17AC17B0
:10003800AC17AC17AC170B16FC15AC17AC17AC17F4
:10004800AC17AC17AC17AC172B00AC17AC17AC1728
:10005800AC17AC17AC17AC17AC17AC17AC17AC1780
:10006800AC17AC17AC17AC17AC17AC17AC17AC1770
:100078004416AC172B00AC17AC17AC172B002B0091
:100088002B002B002B002B002B002B00AC17AD16E0
:10009800AC178616AC17AC172B002B002B002B00C7
:0A00A8009316AC17FF00D4EF29F007
:101000000073746172416363656C506F7765723A07
:101010002025640A0054696D653A2025642020204B
:101020002020006163744D506F773A2025640A00D8
:10103000737461792052696768740A00426174743C
:10104000657279204C6F770073746179204C656606
:10105000740A004D506F773A2025660A00494E46C3
:10106000004E414E00696E66006E616E006C660057
:01107000007F
:10107200000E0001AA6F000EA96F85C0BBF086C0EA
:10108200BCF087C0BDF088C0BEF0BEBF4DEF08F017
:101092004BEF08F063EF08F0000EAA6F010EA96F84
:1010A200BBC014F0BCC015F0BDC016F0BEC017F036
:1010B2004FEC2CF014C0BBF015C0BCF016C0BDF054
:1010C20017C0BEF0000E0001C26F000EC16F3AC021
:1010D200ADF03BC0AEF0A951AA11D8A473EF08F04D
:1010E20075EF08F07CEF08F03EA47AEF08F07CEF91
:1010F20008F096EF08F0A951AA11D8A483EF08F0DE
:1011020085EF08F08BEF08F0000E906F2B0E8F6FBB
:101112008FEF08F0000E906F2D0E8F6F8FC034F19D
:10112200C14BC22BAD07D8A0AE07BBC014F0BCC0E8
:1011320015F0BDC016F0BEC017F098EC24F01404F0
:101142001510D8A4A7EF08F0A9EF08F000EF09F0F6
:10115200BF0E00018A6FFF0E8B6F89518C6F8D6BF2
:101162008A518C278B518D238D510AE11A0E8C5D89
:10117200D8A0BEEF08F0C1EF08F0010EC2EF08F0F0
:10118200000E916F926B91519211D8B4CBEF08F08F
:10119200CDEF08F0DBEF08F0340EC125146E010E1E
:1011A200C221156E5D0E166E100E176E9FEC29F0A1
:1011B200E7EF08F0340EC125146E010EC221156E40
:1011C200650E166E100E176E9FEC29F00001FD0ED3
:1011D200AD27FF0EAE2383C026F084C027F0340E65
:1011E200286E010E296EADC02AF0AEC02BF0C9ECFC
:1011F20026F026C083F027C084F08FEF0EF0BBC02C
:1012020014F0BCC015F0BDC016F0BEC017F098ECCB
:1012120024F014501510D8A411EF09F013EF09F0BF
:101222006AEF09F0BF0E00018A6FFF0E8B6F8951C2
:101232008C6F8D6B8A518C278B518D238D510AE1D6
:101242001A0E8C5DD8A028EF09F02BEF09F0010EE1
:101252002CEF09F0000E936F946B93519411D8B454
:1012620035EF09F037EF09F045EF09F0340EC125EB
:10127200146E010EC221156E610E166E100E176EDF
:101282009FEC29F051EF09F0340EC125146E010EC6
:10129200C221156E690E166E100E176E9FEC29F0A4
:1012A2000001FD0EAD27FF0EAE2383C026F084C0E1
:1012B20027F0340E286E010E296EADC02AF0AEC0A2
:1012C2002BF0C9EC26F026C083F027C084F08FEF04
:1012D2000EF0000E0001C36F000EC46F800EC56FCA
:1012E2003F0EC66F000EC06F000EBF6FBBC014F082
:1012F200BCC015F0BDC016F0BEC017F0000E186ECF
:10130200000E196E000E1A6E000E1B6EE2EC27F034
:10131200D8B08EEF09F090EF09F015EF0AF0AFEFB9
:1013220009F0C3C02AF0C4C02BF0C5C02CF0C6C05F
:101332002DF0000E2E6E000E2F6E200E306E410E1E
:10134200316E82EC13F02AC0C3F02BC0C4F02CC063
:10135200C5F02DC0C6F00001BF4BC02BBBC06DF065
:10136200BCC06EF0BDC06FF0BEC070F0000E2E6E3D
:10137200000E2F6E200E306E410E316EC3C02AF069
:10138200C4C02BF0C5C02CF0C6C02DF082EC13F007
:101392002AC071F02BC072F02CC073F02DC074F013
:1013A20015EC24F00001D8B0D9EF09F0DBEF09F019
:1013B20092EF09F0FBEF09F0C3C014F0C4C015F0BE
:1013C200C5C016F0C6C017F0000E186E000E196EDA
:1013D200200E1A6E410E1B6EAAEC15F014C0C3F05B
:1013E20015C0C4F016C0C5F017C0C6F00001BF0793
:1013F200D8A0C007BBC06DF0BCC06EF0BDC06FF01E
:10140200BEC070F0C3C071F0C4C072F0C5C073F04A
:10141200C6C074F015EC24F00001D8A013EF0AF056
:1014220015EF0AF0DDEF09F089C01AF01B6A07EC2C
:101432002AF01A500001B06FB0C0AFF0670EB019B9
:10144200D8A426EF0AF028EF0AF04EEF0AF03C503B
:101452003D10D8A42FEF0AF031EF0AF035EF0AF071
:10146200000E3D6E010E3C6E3DBE42EF0AF03D5055
:1014720006E13C04D8B040EF0AF042EF0AF048EF30
:101482000AF0000EAC6F060EAB6F57EF0AF03CC0CD
:10149200ABF03DC0ACF057EF0AF03DBE53EF0AF09F
:1014A20055EF0AF042EF0AF048EF0AF0670EB01962
:1014B200D8A45EEF0AF060EF0AF08FEF0AF0C0AF37
:1014C2006EEF0AF0FC0EBF5DFF0EC059D8A06CEFA4
:1014D2000AF06EEF0AF08DEF0AF0FF0E8A6FFF0E30
:1014E2008B6FABC08CF0ACC08DF08A518C278B51C6
:1014F2008D23BF518C5D8D51800A8E6FC051800A41
:101502008E59D8A087EF0AF089EF0AF08DEF0AF022
:10151200660EAF6F8FEF0AF0650EAF6FABC0A1F032
:10152200ACC0A2F0670EB019D8A49AEF0AF09CEFF3
:101532000AF0ACEF0AF0660EAF19D8A4A3EF0AF0D6
:10154200A5EF0AF0AEEF0AF0C0BFACEF0AF0AAEFC7
:101552000AF0AEEF0AF0A14BA22B660EAF19D8A487
:10156200B5EF0AF0B7EF0AF0D7EF0AF0C0BFBEEF4F
:101572000AF0BCEF0AF0CAEF0AF0000EC36F000EC9
:10158200C46F800EC56F3F0EC66F000EC06F000E97
:10159200BF6F670EB019D8B4D1EF0AF0D3EF0AF0DB
:1015A200D7EF0AF0BF51A127C051A223000EBA6F94
:1015B200000EB96FBBC0B1F0BCC0B2F0BDC0B3F099
:1015C200BEC0B4F0C3C0A3F0C4C0A4F0C5C0A5F0AF
:1015D200C6C0A6F068EF0BF0B1C014F0B2C015F0AF
:1015E200B3C016F0B4C017F0C3C018F0C4C019F0ED
:1015F200C5C01AF0C6C01BF0AAEC15F014C02DF03D
:1016020015C02EF016C02FF017C030F056EC1BF0AC
:101612002DC0B5F02EC0B6F02FC0B7F030C0B8F074
:10162200B5C079F0B6C07AF0B7C07BF0B8C07CF034
:101632000EEC23F079C0A7F07AC0A8F0B1C079F01F
:10164200B2C07AF0B3C07BF0B4C07CF0C3C02EF05D
:10165200C4C02FF0C5C030F0C6C031F0B5C02AF00A
:10166200B6C02BF0B7C02CF0B8C02DF082EC13F04E
:101672002AC07DF02BC07EF02CC07FF02DC080F000
:1016820053EC2BF079C0B1F07AC0B2F07BC0B3F06A
:101692007CC0B4F0C3C014F0C4C015F0C5C016F0CD
:1016A200C6C017F0000E186E000E196E200E1A6ECC
:1016B200410E1B6EAAEC15F014C0C3F015C0C4F0A5
:1016C20016C0C5F017C0C6F00001B94BBA2BA15124
:1016D200B95DBA51800A8A6FA251800A8A59D8A08C
:1016E20075EF0BF077EF0BF0EDEF0AF0C3C02AF0C5
:1016F200C4C02BF0C5C02CF0C6C02DF0000E2E6E5B
:10170200000E2F6EA00E306E400E316E82EC13F082
:101712002AC0B5F02BC0B6F02CC0B7F02DC0B8F07F
:10172200B1C06DF0B2C06EF0B3C06FF0B4C070F073
:10173200B5C071F0B6C072F0B7C073F0B8C074F043
:1017420015EC24F00001D8B0A9EF0BF0ABEF0BF0D1
:10175200B5EF0BF0000EB56F000EB66F000EB76F4F
:10176200000EB86FDEEF0BF0B1C014F0B2C015F08E
:10177200B3C016F0B4C017F0B5C018F0B6C019F077
:10178200B7C01AF0B8C01BF0E2EC27F0D8A0CCEF3B
:101792000BF0CEEF0BF0DEEF0BF00001A7B1D4EFB0
:1017A2000BF0D6EF0BF0DEEF0BF0000EB56F000E74
:1017B200B66F000EB76F000EB86FBBC06DF0BCC045
:1017C2006EF0BDC06FF0BEC070F0B5C071F0B6C0B3
:1017D20072F0B7C073F0B8C074F021EC11F06DC0B4
:1017E200B1F06EC0B2F06FC0B3F070C0B4F0B1C06F
:1017F2006DF0B2C06EF0B3C06FF0B4C070F0000E06
:101802002E6E000E2F6E200E306E410E316EA3C072
:101812002AF0A4C02BF0A5C02CF0A6C02DF082ECBB
:1018220013F02AC071F02BC072F02CC073F02DC0DF
:1018320074F015EC24F00001D8A022EF0CF024EF94
:101842000CF04CEF0CF0BF4BC02BA3C02AF0A4C08D
:101852002BF0A5C02CF0A6C02DF0000E2E6E000EAF
:101862002F6E200E306E410E316E82EC13F02AC0C4
:10187200A3F02BC0A4F02CC0A5F02DC0A6F0660EDC
:101882000001AF19D8A448EF0CF04AEF0CF04CEF6E
:101892000CF0A14BA22BA3C0C3F0A4C0C4F0A5C0FE
:1018A200C5F0A6C0C6F0650EAF19D8B45BEF0CF058
:1018B2005DEF0CF063EF0CF0BFC09FF0C0C0A0F072
:1018C20067EF0CF0000EA06F000E9F6F000E9E6F70
:1018D200000E9D6F000E9C6F000E9B6F000EBA6F84
:1018E200000EB96F63EF0DF0B1C014F0B2C015F085
:1018F200B3C016F0B4C017F0C3C018F0C4C019F0DA
:10190200C5C01AF0C6C01BF0AAEC15F014C02DF029
:1019120015C02EF016C02FF017C030F056EC1BF099
:101922002DC0B5F02EC0B6F02FC0B7F030C0B8F061
:10193200B5C079F0B6C07AF0B7C07BF0B8C07CF021
:101942000EEC23F079C0A7F07AC0A8F03EB8ACEF55
:101952000CF0AEEF0CF0CCEF0CF00001A751A81187
:10196200D8A4B6EF0CF0B8EF0CF0CCEF0CF0670E89
:10197200B019D8A4BFEF0CF0C1EF0CF0CCEF0CF013
:10198200A0BFC8EF0CF0C6EF0CF0CCEF0CF09B4BF5
:101992009C2B17EF0DF000019D519E11D8A4D4EF9E
:1019A2000CF0D6EF0CF000EF0DF0A0BFDDEF0CF065
:1019B200DBEF0CF000EF0DF0340EC125D96E010EF5
:1019C200C221DA6E2E0EDF6EC14BC22BAD07D8A03C
:1019D200AE07000E9E6F010E9D6F00EF0DF0340EEC
:1019E200C125D96E010EC221DA6E300EDF6EC14BF7
:1019F200C22BAD07D8A0AE079B07D8A09C079B516E
:101A02009C11D8A407EF0DF009EF0DF0F0EF0CF0E8
:101A1200340EC125D96E010EC221DA6EA751300FE4
:101A2200DF6EC14BC22BAD07D8A0AE07B1C079F0B3
:101A3200B2C07AF0B3C07BF0B4C07CF0C3C02EF069
:101A4200C4C02FF0C5C030F0C6C031F0B5C02AF016
:101A5200B6C02BF0B7C02CF0B8C02DF082EC13F05A
:101A62002AC07DF02BC07EF02CC07FF02DC080F00C
:101A720053EC2BF079C0B1F07AC0B2F07BC0B3F076
:101A82007CC0B4F0C3C014F0C4C015F0C5C016F0D9
:101A9200C6C017F0000E186E000E196E200E1A6ED8
:101AA200410E1B6EAAEC15F014C0C3F015C0C4F0B1
:101AB20016C0C5F017C0C6F000019F07D8A0A00746
:101AC200B94BBA2BA151B95DBA51800A8A6FA251A2
:101AD200800A8A59D8B070EF0DF072EF0DF080EFE6
:101AE2000DF0C2BF7EEF0DF0C25109E14B0EC15D98
:101AF200D8A07EEF0DF080EF0DF075EF0CF09D5148
:101B02009E11D8A487EF0DF089EF0DF09AEF0DF03A
:101B12003EA88EEF0DF090EF0DF09AEF0DF0340E1F
:101B2200C125D96E010EC221DA6E2E0EDF6EC14BB7
:101B3200C22B340EC125D96E010EC221DA6E000EFF
:101B4200DF6E650EAF19D8A4A9EF0DF0ABEF0DF063
:101B52007DEF0EF0000EBA6F4F0EB96F340EB9253D
:101B6200D96E010EBA21DA6E000EDF6E000EAA6F78
:101B7200000EA96FC0BFC2EF0DF0C0EF0DF0CAEFAB
:101B82000DF0000EAA6F010EA96FBF6DC01FD8B075
:101B9200C02B000EAC6F020EAB6FFBEF0DF0B9075E
:101BA200D8A0BA07340EB925D96E010EBA21DA6E61
:101BB200BFC014F0C0C015F0000E176E0A0E166EEC
:101BC2008AEC27F01450300FDF6EBFC014F0C0C093
:101BD20015F0000E176E0A0E166E67EC26F014C092
:101BE200BFF015C0C0F00001AB07D8A0AC07AD072D
:101BF200D8A0AE07BF51C011D8A402EF0EF004EF77
:101C02000EF0D0EF0DF0ACBF11EF0EF0AC5106E1CB
:101C1200AB05D8B00FEF0EF011EF0EF0D0EF0DF0D4
:101C2200B907D8A0BA07A951AA11D8A41BEF0EF080
:101C32001DEF0EF023EF0EF0000E966F2B0E956F38
:101C420027EF0EF0000E966F2D0E956F340EB9250C
:101C5200D96E010EBA21DA6E600057F2DFFFAD07CE
:101C6200D8A0AE07B907D8A0BA07BF0E8A6FFF0E79
:101C72008B6F89518C6F8D6B8A518C278B518D2381
:101C82008D510AE11A0E8C5DD8A04AEF0EF04DEF8D
:101C92000EF0010E4EEF0EF0000E996F9A6B9951F5
:101CA2009A11D8A457EF0EF059EF0EF05FEF0EF035
:101CB200000E986F650E976F63EF0EF0000E986F2F
:101CC200450E976F340EB925D96E010EBA21DA6E20
:101CD20060005FF2DFFFAD07D8A0AE07340EC1256A
:101CE200146E010EC221156E340EB925166E010E48
:101CF200BA21176E9FEC29F083C026F084C027F02A
:101D0200340E286E010E296EADC02AF0AEC02BF043
:101D1200C9EC26F026C083F027C084F012006000D0
:101D220027F3D9FF60002BF3DAFF6F007BFFF6FF8A
:101D32006F0077FFF7FFF86A0800F550250AD8A46C
:101D4200A5EF0EF0A7EF0EF0FEEF10F0600027F304
:101D5200D9FF60002BF3DAFFDE2A000EDD22000E2F
:101D62003B6E000E3A6E3AC03EF03BC03FF03C681C
:101D72003D68600027F3D9FF60002BF3DAFF6F00A4
:101D82007BFFF6FF6F0077FFF7FFF86A0800F55058
:101D92001A6E1B6A07EC2AF01A500001DF6FDF513E
:101DA200D8B4D6EF0EF0D8EF0EF020EF0FF06000AF
:101DB20027F3D9FF60002BF3DAFF6F0078FFCDF035
:101DC2006F0074FFCEF0010ECD27000ECE2360000F
:101DD20037F3F6FF60003BF3F7FFF86A0800F550AF
:101DE2001A6E1B6A07EC2AF01A500001E06FE051EC
:101DF200D8B4FEEF0EF000EF0FF020EF0FF060000E
:101E020027F3D9FF60002BF3DAFF6F0078FFCDF0E4
:101E12006F0074FFCEF0020ECD27000ECE236000BD
:101E220037F3F6FF60003BF3F7FFF86A0800F5505E
:101E32001A6E1B6A07EC2AF01A500001E16F60006B
:101E420027F3D9FF60002BF3DAFF6F007BFFF6FF69
:101E52006F0077FFF7FFF86A0800F550640AD8B4FC
:101E620035EF0FF037EF0FF04EEF0FF0600027F372
:101E7200D9FF60002BF3DAFF6F007BFFF6FF6F00E4
:101E820077FFF7FFF86A0800F550690AD8A44CEF0B
:101E92000FF04EEF0FF098EF0FF0600027F3D9FF2D
:101EA20060002BF3DAFFDE2A000EDD2260002FF342
:101EB200D9FF600033F3DAFF6F007CFFCDF0020E32
:101EC200DE266F007CFFCEF0000EDD22600037F3CD
:101ED200D9FF60003BF3DAFF6F0078FFD1F06F00AB
:101EE20074FFD2F0000ED2BFFF0ED36FD46FD56F46
:101EF200D66FD76FD86FC7C060F0C8C061F0D1C0CD
:101F020062F0D2C063F0D3C064F0D4C065F0D5C033
:101F120066F0D6C067F0D7C068F0D8C069F077EC39
:101F220017F060C0C7F061C0C8F020EF11F0660E74
:101F3200DF19D8A49FEF0FF0A1EF0FF0F3EF0FF02E
:101F4200600027F3D9FF60002BF3DAFF6F007BFFFD
:101F5200F6FF6F0077FFF7FFF86A08006F00D4FF03
:101F6200E2F0600027F3D9FF60002BF3DAFFDE2AEC
:101F7200000EDD2260002FF3D9FF600033F3DAFF99
:101F82006F007CFFCDF0040EDE266F007CFFCEF0EA
:101F9200000EDD22600037F3D9FF60003BF3DAFF69
:101FA2006F0078FFDBF06F0078FFDCF06F0078FFE6
:101FB200DDF06F0078FFDEF0C7C083F0C8C084F0A8
:101FC200DBC085F0DCC086F0DDC087F0DEC088F0C3
:101FD200E2C089F039EC08F083C0C7F084C0C8F0D1
:101FE20020EF11F0DF0E146E000E156E6D0E166EE0
:101FF200100E176E000E196E020E186E17EC25F0F9
:1020020014501510D8A408EF10F00AEF10F0BDEF2D
:1020120010F0600027F3D9FF60002BF3DAFF6F00A6
:1020220078FFCDF06F0074FFCEF0010E0001CD27D6
:10203200000ECE23600037F3F6FF60003BF3F7FF9C
:10204200F86A08006F00D4FFE2F0BF0ECD6FFF0EFA
:10205200CE6F600027F3D9FF60002BF3DAFF6F0029
:102062007BFFF6FF6F0077FFF7FFF86A0800F55075
:10207200CF6FD06BCD51CF27CE51D023D0510AE1B3
:102082001A0ECF5DD8A048EF10F04BEF10F0010E02
:102092004CEF10F0000ED96FDA6BD951DA11D8B4C7
:1020A20055EF10F057EF10F07BEF10F060002FF3B8
:1020B200D9FF600033F3DAFF6F007CFFCDF0040E2E
:1020C200DE266F007CFFCEF0000EDD22600037F3CB
:1020D200D9FF60003BF3DAFF6F0078FFDBF06F009F
:1020E20078FFDCF06F0078FFDDF06F0078FFDEF044
:1020F2009DEF10F060002FF3D9FF600033F3DAFF99
:102102006F007CFFCDF0040EDE266F007CFFCEF068
:10211200000EDD22600037F3D9FF60003BF3DAFFE7
:102122006F0078FFDBF06F0078FFDCF06F0078FF64
:10213200DDF06F0078FFDEF0020E600027F3D9FFBA
:1021420060002BF3DAFFDE26000EDD22C7C083F02B
:10215200C8C084F0DBC085F0DCC086F0DDC087F04B
:10216200DEC088F0E2C089F039EC08F083C0C7F025
:1021720084C0C8F020EF11F0600027F3D9FF60009F
:102182002BF3DAFF6F007BFFF6FF6F0077FFF7FF9D
:10219200F86A0800F550250AD8A4D2EF10F0D4EF5F
:1021A20010F0EEEF10F0600027F3D9FF60002BF380
:1021B200DAFFDE2A000EDD22000E176E250E166EE5
:1021C200C7C018F0C8C019F089EC28F0000E000151
:1021D200C86F010EC76F20EF11F0600027F3D9FF1F
:1021E20060002BF3DAFFDE2A000EDD22000E000172
:1021F200C86F000EC76F20EF11F0600027F3D9FF00
:1022020060002BF3DAFF6F007BFFF6FF6F0077FFB2
:10221200F7FFF86A0800F550166E176AC7C018F083
:10222200C8C019F089EC28F0600027F3D9FF6000DC
:102232002BF3DAFFDE2A000EDD22E7EF10F01200A8
:1022420000017051800B756F70517025776F6FAF01
:102252002DEF11F02FEF11F030EF11F07781775160
:10226200D8B436EF11F038EF11F04DEF11F07729B5
:10227200D8A43EEF11F040EF11F048EF11F0000E3C
:102282006D6F000E6E6F000E6F6F000E706F6F8FAE
:10229200000E706F55EF11F0000E6D6F000E6E6F35
:1022A200000E6F6F000E706F7451800B766F755158
:1022B2007619D8B45FEF11F061EF11F062EF11F00F
:1022C200758D74517425766F73AF6AEF11F06CEFF0
:1022D20011F06DEF11F076817651D8B473EF11F0F1
:1022E20075EF11F08AEF11F07629D8A47BEF11F087
:1022F2007DEF11F085EF11F0000E716F000E726F1D
:10230200000E736F000E746F738F000E746F92EF76
:1023120011F0000E716F000E726F000E736F000EDF
:10232200746F7751765DD8B099EF11F09BEF11F091
:10233200C2EF11F075ADA0EF11F0A2EF11F0A4EF12
:1023420011F0800E751B77C078F076C077F078C0F8
:1023520076F06DC078F071C06DF078C071F06EC02B
:1023620078F072C06EF078C072F06FC078F073C00F
:102372006FF078C073F070C078F074C070F078C0FD
:1023820074F0000E786F775176C036F0376A365E99
:10239200000E375A37BED7EF11F0375009E11A0E47
:1023A200365CD8A0D7EF11F0D9EF11F010EF12F090
:1023B2006D516E116F117011D8A4E2EF11F0E5EFBB
:1023C20011F0010EE6EF11F0000E786F000E6D6F46
:1023D200000E6E6F000E6F6F000E706F76C077F09A
:1023E20019EF12F078A1F8EF11F0FAEF11F000EF07
:1023F20012F0D89078310109786F02EF12F0D8907C
:1024020078336DA107EF12F009EF12F00AEF12F024
:10241200788F703570336F336E336D33772B76511F
:10242200775DD8A017EF12F019EF12F0F3EF11F069
:1024320075BD1EEF12F020EF12F060EF12F077512F
:10244200D8A426EF12F028EF12F032EF12F0000EAD
:102452006D6F000E6E6F000E6F6F000E706F81EF6A
:1024620013F071516D2772516E2373516F237451A2
:10247200702370A13FEF12F041EF12F0EDEF12F076
:1024820078A146EF12F048EF12F04EEF12F0D8901A
:1024920078310109786F50EF12F0D89078336DA13E
:1024A20055EF12F057EF12F058EF12F0788F7035A7
:1024B20070336F336E336D33772BEDEF12F0715152
:1024C2006D5D72516E5973516F597051800A366E3B
:1024D2007451800A3658D8B071EF12F073EF12F0CF
:1024E2009EEF12F06D51715D366E6E517259376EFC
:1024F2006F517359386E70517459396EFF0E36240C
:102502006D6FFF0E37206E6FFF0E38206F6FFF0E5C
:102512003920706F800E751B786D7851D8A494EFB6
:1025220012F096EF12F0A6EF12F0010E6D27000ED8
:102532006E236F237023A6EF12F071516D5F7251FB
:102542006E5B73516F5B7451705B6D516E116F11E5
:102552007011D8A4AFEF12F0B1EF12F0E6EF12F063
:102562007851D8A4B7EF12F0B9EF12F0E6EF12F0FB
:10257200000E6D6F000E6E6F000E6F6F000E706FAB
:1025820081EF13F0D8906D376E376F37703778AFB1
:10259200CDEF12F0CFEF12F0D0EF12F06D8178A1F3
:1025A200D5EF12F0D7EF12F0DBEF12F0D8807837C8
:1025B200DDEF12F0D89078377751D8B4E3EF12F00C
:1025C200E5EF12F0E6EF12F077076FAFEBEF12F0E4
:1025D200EDEF12F0C3EF12F0000E766F78AFF4EF6A
:1025E20012F0F6EF12F00EEF13F078C036F07F0E15
:1025F2003616D8B4FFEF12F001EF13F005EF13F027
:10260200010E766F0EEF13F06DA10AEF13F00CEFCF
:1026120013F00EEF13F001EF13F07651D8B414EF6C
:1026220013F016EF13F041EF13F0010E6D27000EB9
:102632006E236F23702370A121EF13F023EF13F0A9
:1026420041EF13F06DC036F06EC037F06FC038F056
:1026520070C039F03934393238323732363236C016
:102662006DF037C06EF038C06FF039C070F0772966
:10267200D8B43EEF13F040EF13F041EF13F0772B95
:102682007729D8B447EF13F049EF13F051EF13F065
:102692007751D8A44FEF13F051EF13F063EF13F01B
:1026A200000E6D6F000E6E6F000E6F6F000E706F7A
:1026B2007751D8A45FEF13F061EF13F063EF13F0DB
:1026C200000E756F77A168EF13F06AEF13F06DEFEC
:1026D20013F06F8F6EEF13F06F9FD8907731706F9A
:1026E20075AF76EF13F078EF13F079EF13F0708F88
:1026F2006DC06DF06EC06EF06FC06FF070C070F0A4
:1027020012002D50800B0001606F2D502D24666F3A
:102712002CAE8EEF13F090EF13F091EF13F0668171
:102722006651D8B497EF13F099EF13F0ACEF13F0B2
:102732006629D8A49FEF13F0A1EF13F0A9EF13F0CD
:10274200000E2A6E000E2B6E000E2C6E000E2D6EE9
:102752002C8EB4EF13F0000E2A6E000E2B6E000EBC
:102762002C6E000E2D6E3150800B601B31503124C7
:10277200616F30AEBFEF13F0C1EF13F0C2EF13F091
:1027820061816151D8B4C8EF13F0CAEF13F0DDEFE5
:1027920013F06129D8A4D0EF13F0D2EF13F0DAEFDF
:1027A20013F0000E2E6E000E2F6E000E306E000E15
:1027B200316E308EE5EF13F0000E2E6E000E2F6E8E
:1027C200000E306E000E316E6151D8B4EBEF13F093
:1027D200EDEF13F0F5EF13F06651D8A4F3EF13F019
:1027E200F5EF13F0FFEF13F0000E2A6E000E2B6EC2
:1027F200000E2C6E000E2D6EA9EF15F030502A023D
:102802006F00CCFF6BF06F00D0FF6CF06B51626F0A
:10281200636B646B656B6C51676F686B696B6A6B3A
:102822002F502B026F00CCFF6BF06F00D0FF6CF0CB
:102832006B516227000E6323642365236C51672763
:10284200000E682369236A232E502C026F00CCFFEE
:102852006BF06F00D0FF6CF06B516227000E6323A8
:10286200642365236C516727000E682369236A235A
:1028720064C065F063C064F062C063F0626B2E50A6
:102882002B026F00CCFF6BF06F00D0FF6CF06B512E
:1028920062276C516323000E6423000E65232F50C0
:1028A2002A026F00CCFF6BF06F00D0FF6CF06B510F
:1028B20062276C516323000E6423000E652364C0FB
:1028C20065F063C064F062C063F0626B2E502A024E
:1028D2006F00CCFF6BF06F00D0FF6CF06B51622782
:1028E2006C516323000E6423000E652330502B02CB
:1028F2006F00CCFF6BF06F00D0FF6CF06B5167275D
:102902006C516823000E6923000E6A232F502C029B
:102912006F00CCFF6BF06F00D0FF6CF06B5167273C
:102922006C516823000E6923000E6A2330502C027A
:102932006F00CCFF6BF06F00D0FF6CF06B51326E0A
:102942006C51336E346A356A34C035F033C034F0BA
:1029520032C033F0326A3250672733506823345022
:10296200692335506A2362C032F063C033F064C019
:1029720034F065C035F0190EC4EF14F0D89035323A
:10298200343233323232E82EBFEF14F0325067273E
:10299200335068233450692335506A2364C065F08C
:1029A20063C064F062C063F0626B615166C032F072
:1029B200336A3226000E3322820E32246B6FFF0EF0
:1029C20033206C6FFAEF14F0D890673768376937A5
:1029D2006A3765AFEFEF14F0F1EF14F0F2EF14F095
:1029E2006781D89062376337643765376B07D8A041
:1029F2006C0769AFFFEF14F001EF15F0E5EF14F08B
:102A0200000E616F65AF08EF15F00AEF15F02EEFBB
:102A120015F0FF0E6215326EFF0E6315336EFF0E58
:102A22006415346E7F0E6515356E325033103410D6
:102A32003510D8B41FEF15F021EF15F025EF15F082
:102A4200010E616F2EEF15F067A12AEF15F02CEF42
:102A520015F02EEF15F021EF15F06151D8B434EFD7
:102A620015F036EF15F05AEF15F0010E6727000E3C
:102A7200682369236A236AA141EF15F043EF15F039
:102A82005AEF15F067C032F068C033F069C034F015
:102A92006AC035F03534353234323332323232C0F4
:102AA20067F033C068F034C069F035C06AF06B4B30
:102AB2006C2B6CBF65EF15F06C5108E16B29D8A047
:102AC20065EF15F067EF15F071EF15F0000E676F07
:102AD200000E686F800E696F7F0E6A6F9FEF15F0B0
:102AE2006CBF7EEF15F06C5106E16B05D8B07CEF40
:102AF20015F07EEF15F08AEF15F0000E676F000EED
:102B0200686F000E696F000E6A6F000E606F9FEFB4
:102B120015F06BC066F0FF0E6717FF0E68177F0E89
:102B22006917000E6A1766A199EF15F09BEF15F071
:102B32009CEF15F0698FD89066316A6F60516A1305
:102B420067C02AF068C02BF069C02CF06AC02DF073
:102B520012001750800B246E175017242B6E16AEDE
:102B6200B5EF15F0B7EF15F0B8EF15F02B802B503D
:102B7200D8B4BEEF15F0C0EF15F0D5EF15F02B2845
:102B8200D8A4C6EF15F0C8EF15F0D0EF15F0000E7F
:102B9200146E000E156E000E166E000E176E168E57
:102BA200000E176EDDEF15F0000E146E000E156E9E
:102BB200000E166E000E176E1B50800B241A1B504F
:102BC2001B242C6E1AAEE8EF15F0EAEF15F0EBEFCE
:102BD20015F02C802C50D8B4F1EF15F0F3EF15F06E
:102BE20008EF16F02C28D8A4F9EF15F0FBEF15F03A
:102BF20003EF16F0000E186E000E196E000E1A6E1C
:102C0200000E1B6E1A8E000E1B6E10EF16F0000ED9
:102C1200186E000E196E000E1A6E000E1B6E185002
:102C220019101A101B10D8A419EF16F01BEF16F08A
:102C320033EF16F0000E146E000E156E000E166EB7
:102C4200000E176E800E16127F0E171224501712E6
:102C520014C014F015C015F016C016F017C017F006
:102C620076EF17F02B50D8A439EF16F03BEF16F0A1
:102C720045EF16F0000E146E000E156E000E166E65
:102C8200000E176E76EF17F02C502BC01CF01D6A49
:102C92001C5E000E1D5A7F0E1C24256E000E1D2088
:102CA200266E14C020F015C021F016C022F017C005
:102CB20023F0000E146E000E156E000E166E000E3E
:102CC200176E000E276E000E286E000E296E000E83
:102CD2002A6E000E2C6EA6EF16F02C50D8B474EFAC
:102CE20016F076EF16F08DEF16F0D89020362136DA
:102CF20022362336D89014361536163617362AAEB3
:102D020085EF16F087EF16F088EF16F01480D89052
:102D12002736283629362A361850205C1950215871
:102D22001A5022581B502358D8A09AEF16F09CEF45
:102D320016F0A5EF16F02A8C1850205E1950215A71
:102D42001A50225A1B50235A2C2A190E2C64ACEF0B
:102D520016F0AEEF16F06EEF16F020502110221092
:102D62002310D8B4B7EF16F0B9EF16F0D1EF16F082
:102D72002780D1EF16F0D89014361536163617364E
:102D82002AAEC6EF16F0C8EF16F0C9EF16F014809F
:102D9200D8902736283629362A362506D8A0260680
:102DA20016AED6EF16F0D8EF16F0BCEF16F0000E06
:102DB2002C6E2AAEDFEF16F0E1EF16F005EF17F0FA
:102DC200FF0E27141C6EFF0E28141D6EFF0E291411
:102DD2001E6E7F0E2A141F6E1C501D101E101F1017
:102DE200D8B4F6EF16F0F8EF16F0FCEF16F0010E7D
:102DF2002C6E05EF17F014A001EF17F003EF17F098
:102E020005EF17F0F8EF16F02C50D8B40BEF17F0CF
:102E12000DEF17F031EF17F0010E1426000E1522F8
:102E22001622172217A018EF17F01AEF17F031EF3A
:102E320017F014C01CF015C01DF016C01EF017C00C
:102E42001FF01F341F321E321D321C321CC014F000
:102E52001DC015F01EC016F01FC017F0254A262A05
:102E620026BE3CEF17F0265008E12528D8A03CEFFB
:102E720017F03EEF17F049EF17F0000E266E2568A7
:102E8200000E146E000E156E000E166E000E176EFA
:102E920026BE56EF17F0265006E12504D8B054EFAF
:102EA20017F056EF17F064EF17F0000E266E000EC3
:102EB200256E000E146E000E156E000E166E000EBC
:102EC200176E000E246E25C02BF02BA06BEF17F0AF
:102ED2006DEF17F070EF17F0168E71EF17F0169E68
:102EE200D8902B30176E27EF16F0120062C072F0E6
:102EF20063C073F064C074F065C075F066C076F0AC
:102F020067C077F068C078F069C079F0000179BFD6
:102F12008DEF17F090EF17F0010E91EF17F0000E02
:102F2200706F716B70517111D8B49AEF17F09CEFFA
:102F320017F0ACEF17F0791F781F771F761F751FF8
:102F4200741F731F726D000E73237423752376230F
:102F52007723782379233DBEB1EF17F0B3EF17F053
:102F6200B4EF17F03E923DBEC1EF17F03D5006E1BF
:102F72003C04D8B0BFEF17F0C1EF17F0C7EF17F05E
:102F8200000E6D6F010E6C6FCBEF17F03CC06CF052
:102F92003DC06DF03AC06EF03BC06FF070517111E0
:102FA200D8A4D6EF17F0D8EF17F0DFEF17F03EA452
:102FB200DDEF17F0DFEF17F0E2EF17F06E07D8A0A2
:102FC2006F07000E7B6F4F0E7A6F000E0101836F49
:102FD20068EF18F07A07D8A07B07340E7A25D96EED
:102FE200010E7B21DA6E72C014F073C015F074C04A
:102FF20016F075C017F076C018F077C019F078C0D7
:103002001AF079C01BF00A0E1C6E000E1D6E000E27
:103012001E6E000E1F6E000E206E000E216E000E40
:10302200226E000E236E95EC20F014C031F015C014
:1030320032F016C033F017C034F018C035F019C0A2
:1030420036F01AC037F01BC038F031C026F033C05A
:1030520027F0BBEC2BF02650300FDF6E00016C071F
:10306200D8A06D076E07D8A06F0772C014F073C0A6
:1030720015F074C016F075C017F076C018F077C05E
:1030820019F078C01AF079C01BF00A0E1C6E000EFF
:103092001D6E000E1E6E000E1F6E000E206E000EC4
:1030A200216E000E226E000E236E12EC1FF014C071
:1030B20072F015C073F016C074F017C075F018C026
:1030C20076F019C077F01AC078F01BC079F00001D1
:1030D2007BBF74EF18F07B5108E17A05D8A074EF3A
:1030E20018F076EF18F0A6EF18F072517311741100
:1030F20075117611771178117911D8A483EF18F030
:1031020085EF18F0EBEF17F06DBF92EF18F06D51ED
:1031120006E16C05D8B090EF18F092EF18F0EBEFE3
:1031220017F06FBF9DEF18F06F5108E16E05D8A040
:103132009DEF18F09FEF18F0A6EF18F03EB2A4EF43
:1031420018F0A6EF18F0EBEF17F070517111D8A438
:10315200ADEF18F0AFEF18F0B6EF18F03EA4B4EFF1
:1031620018F0B6EF18F0D5EF18F07A07D8A07B0761
:1031720070517111D8A4C0EF18F0C2EF18F0C8EF67
:1031820018F0000E6B6F2B0E6A6FCCEF18F0000E6A
:103192006B6F2D0E6A6F340E7A25D96E010E7B216C
:1031A200DA6E6000ABF1DFFF60C026F061C027F08D
:1031B200340E7A25286E010E7B21296E6EC02AF00C
:1031C2006FC02BF0C9EC26F026C060F027C061F07A
:1031D20012000001EF51F75D0101AC6F0001F051E7
:1031E200F8590101AD6F0001ED51F35D0101AA6FC4
:1031F2000001EE51F4590101AB6F16EF1AF0ADBFA9
:103202000CEF19F0AD5109E11F0EAC5DD8A00CEF27
:1032120019F00EEF19F030EF19F0ADBF1CEF19F0F5
:103222002C0EAC5D010EAD59D8B01AEF19F01CEF9F
:1032320019F030EF19F00001F05107E17D0EEF5D5A
:10324200D8B026EF19F028EF19F030EF19F0000E80
:10325200F96F010EFB6F050EFE6F35EF1AF00101DB
:10326200ABBF3DEF19F0AB5109E11F0EAA5DD8A02B
:103272003DEF19F03FEF19F035EF1AF0ABBF4DEF0C
:1032820019F02C0EAA5D010EAB59D8B04BEF19F014
:103292004DEF19F035EF1AF00001EE5107E17D0E06
:1032A200ED5DD8B057EF19F059EF19F035EF1AF07C
:1032B200000EF96F010EFB6F060EFE6F35EF1AF06E
:1032C200130E0001F96568EF19F06AEF19F070EF5B
:1032D20019F0000EF96F020EFB6F35EF1AF00001C4
:1032E200F92B35EF1AF0180E0001F9657BEF19F092
:1032F2007DEF19F070EF19F0050EFE19D8A484EFD6
:1033020019F086EF19F091EF19F0F85109E12D0E3D
:10331200F75DD8A08FEF19F091EF19F0B0EF19F027
:10332200060EFE19D8A498EF19F09AEF19F0A5EF3E
:1033320019F0F45109E12D0EF35DD8A0A3EF19F0B5
:10334200A5EF19F0B0EF19F0FD5109E1970EFC5D00
:10335200D8A0AEEF19F0B0EF19F0E6EF19F0150EA4
:103362000101A06F100EA16FF9C0A2F1A36B58EC7E
:103372002EF0450E0001F965C1EF19F0C3EF19F007
:10338200D1EF19F0480E0101A06F100EA16F58EC99
:103392002EF0FF0E0101AF6FF10EAE6FDDEF19F0EF
:1033A200300E0101A06F100EA16F58EC2EF0000E2E
:1033B2000101AF6F0F0EAE6F000E0001F96F030E29
:1033C200FB6F010EFE6F70EF19F0060EFE19D8A406
:1033D200EDEF19F0EFEF19F070EF19F00101ADBF49
:1033E200FCEF19F0AD5109E11F0EAC5DD8A0FCEF66
:1033F20019F0FEEF19F070EF19F0000E0001F96FED
:10340200010EFB6F050EFE6F70EF19F00001F9510E
:10341200D8B40EEF1AF010EF1AF070EF19F0000E98
:10342200F96F000EFB6F35EF1AF00001FB5101013D
:10343200A86FA96BA951000AD8B422EF1AF035EF90
:103442001AF0A851000AD8B400EF19F0010AD8B452
:1034520061EF19F0030AD8B474EF19F0010AD8B475
:1034620007EF1AF035EF1AF0F7C0EFF0F8C0F0F0FE
:10347200F3C0EDF0F4C0EEF01200F30E2E6E040E67
:103482002F6EB50E306E3F0E316EAEC11CF0AFC165
:103492001DF0000E1DBEFF0E1E6E1F6E010E66ECAD
:1034A2001DF01CC02AF01DC02BF01EC02CF01FC046
:1034B2002DF082EC13F02AC079F02BC07AF02CC0E8
:1034C2007BF02DC07CF00EEC23F0F3C083F0F4C04F
:1034D20084F00001831F841F834B842B7951835F07
:1034E2007A51845BF7518325876FF8518421886F65
:1034F200A3EF1AF088BF87EF1AF0885109E11A0E7C
:10350200875DD8A087EF1AF089EF1AF08FEF1AF0D3
:10351200000E886F190E876F2CEF1BF088AF9BEFA0
:103522001AF0E70E875DFF0E8859D8B09BEF1AF0AC
:103532009DEF1AF0C4EF1AF0FF0E886FE70E876F47
:103542002CEF1BF0FE51836F846B8451000AD8B4B8
:10355200ADEF1AF02CEF1BF08351000AD8B47BEFC9
:103562001AF0010AD8B47BEF1AF0030AD8B47BEF41
:103572001AF0070AD8B47BEF1AF0030AD8B47BEF2B
:103582001AF02CEF1BF02CEF1BF087C01CF088C048
:103592001DF0020E1E6E40EC1EF055EF1BF087C0B0
:1035A2001CF088C01DF0030E1E6E40EC1EF055EF9D
:1035B2001BF087C014F088C015F0000E176E020EC3
:1035C200166E67EC26F014C085F015C086F085C033
:1035D2001CF086C01DF0030E1E6E40EC1EF055EF6F
:1035E2001BF0FF0E1D6EC40E1C6E000E1E6E40EC14
:1035F2001EF055EF1BF0000E1D6E3C0E1C6E000EF1
:103602001E6E40EC1EF055EF1BF0020EFB19D8A403
:103612000DEF1BF00FEF1BF0C6EF1AF0000E1D6E40
:103622003C0E1C6E020E1E6E40EC1EF055EF1BF09F
:10363200020EFB19D8A420EF1BF022EF1BF0C6EFFD
:103642001AF0FF0E1D6EC40E1C6E020E1E6E40ECB2
:103652001EF055EF1BF0FE51836F846B8451000AFC
:10366200D8B436EF1BF055EF1BF08351000AD8B4E3
:10367200DAEF1AF0010AD8B4D0EF1AF0030AD8B47C
:10368200C6EF1AF0010AD8B4F2EF1AF0070AD8B45A
:10369200FCEF1AF0010AD8B406EF1BF0030AD8B403
:1036A20019EF1BF055EF1BF0120018C166F019C19B
:1036B20067F01AC168F01BC169F02DC066F02EC018
:1036C20067F02FC068F030C069F0810E316EFF0ED6
:1036D200326E66C033F067C034F068C035F069C03E
:1036E20036F0180E7AEF1BF0D8903632353234327B
:1036F2003332E82E75EF1BF0335031240001646F32
:10370200000E3220656F65BF90EF1BF0655109E135
:10371200170E645DD8A090EF1BF092EF1BF09CEFA8
:103722001BF02DC02DF02EC02EF02FC02FF030C078
:1037320030F060EF1CF065BFA1EF1BF0A3EF1BF0B0
:1037420014EF1CF064C031F0FF0E326EFF0E336EC8
:103752007F0E346E000E356E3166B2EF1BF0BAEF9B
:103762001BF035343532343233323232312EADEF52
:103772001BF032C060F033C061F034C062F035C07B
:1037820063F0000160516615316E61516715326E4A
:1037920062516815336E63516915346E31503210BF
:1037A20033103410D8A4D8EF1BF0DAEF1BF0DCEFA3
:1037B2001BF092EF1BF066C031F067C032F068C0B8
:1037C20033F069C034F0200EECEF1BF0D8903432A5
:1037D200333232323132E82EE7EF1BF03150321001
:1037E20033103410D8B4F8EF1BF0FAEF1BF002EFED
:1037F2001CF060516627615167236251682363514F
:103802006923601D316E611D326E621D336E631D50
:10381200346E315066173250671733506817345080
:10382200691758EF1CF066C031F067C032F068C00B
:1038320033F069C034F0200E24EF1CF0D8903432FB
:10384200333232323132E82E1FEF1CF03150321057
:1038520033103410D8A430EF1CF032EF1CF03CEFE0
:103862001CF0000E666F000E676F000E686F000E90
:10387200696F58EF1CF0D8906635316E6735326E3D
:103882006835336E6935346E31503210331034106E
:10389200D8B44EEF1CF050EF1CF058EF1CF0000EA5
:1038A200666F000E676F800E686FBF0E696F66C02D
:1038B2002DF067C02EF068C02FF069C030F0120002
:1038C200000E0001886F000E876F17EF1DF0FD518B
:1038D20009E11F0EFC5DD8A071EF1CF073EF1CF024
:1038E20075EF1CF0010EFE6FECBF81EF1CF0EC5186
:1038F20009E1650EEB5DD8A081EF1CF083EF1CF0AF
:103902009EEF1CF0EBC087F0ECC088F0FD5107E1A0
:103912000F0EFC5DD8B090EF1CF092EF1CF098EF08
:103922001CF0FC0E8727FF0E88233CEF1DF0FE0ED5
:103932008727FF0E88233CEF1DF0000E886F640E70
:10394200876F3CEF1DF0FD5107E11E0EFC5DD8B004
:10395200ADEF1CF0AFEF1CF0B1EF1CF0020EFE6FEA
:10396200FD5109E1960EFC5DD8A0BAEF1CF0BCEF48
:103972001CF005EF1DF0000E716F800E726F890E44
:10398200736F430E746F330E2E6E330E2F6E330E23
:10399200306E3F0E316E6A0E836FFF0E846FFCC075
:1039A20085F0FDC086F0835185278451862385C02A
:1039B2001CF086C01DF01E6A1F6A000E66EC1DF028
:1039C2001CC02AF01DC02BF01EC02CF01FC02DF011
:1039D20082EC13F02AC06DF02BC06EF02CC06FF099
:1039E2002DC070F021EC11F06DC079F06EC07AF04C
:1039F2006FC07BF070C07CF00EEC23F079C087F0D2
:103A02007AC088F03CEF1DF0010E886F130E876FAD
:103A12003CEF1DF0FF0E886F830E876F3CEF1DF0A9
:103A2200000E886FC80E876F3CEF1DF0FE51836F4A
:103A3200846B8451000AD8B421EF1DF03CEF1DF0D5
:103A42008351010AD8B4A4EF1CF0030AD8B468EF7A
:103A52001CF0010AD8B40BEF1DF0070AD8B40BEF23
:103A62001DF0010AD8B411EF1DF0030AD8B411EF0A
:103A72001DF03CEF1DF0000188BF49EF1DF0910ED3
:103A8200875D010E8859D8A049EF1DF04BEF1DF05C
:103A92004FEF1DF0010E886F900E876F88AF5BEFBE
:103AA2001DF0060E875DFF0E8859D8B05BEF1DF042
:103AB2005DEF1DF061EF1DF0FF0E886F060E876F40
:103AC20087C0EBF088C0ECF01200246E2450D8B40A
:103AD2006DEF1DF06FEF1DF091EF1DF01FBE76EF41
:103AE2001DF074EF1DF091EF1DF01CC020F01DC001
:103AF20021F01EC022F01FC023F0201E211E221E14
:103B0200231E202A000E21222222232220C026F058
:103B120021C027F022C028F023C029F099EF1DF020
:103B22001CC026F01DC027F01EC028F01FC029F0BF
:103B32001C501D101E101F10D8A4A2EF1DF0A4EFE0
:103B42001DF0AEEF1DF0000E1C6E000E1D6E000E7D
:103B52001E6E000E1F6E3FEF1EF0960E256EB8EF22
:103B62001DF0252AD8902932283227322632000E1B
:103B72002614206E000E2714216E000E2814226EC9
:103B8200FE0E2914236E2050211022102310D8A4D7
:103B9200CDEF1DF0CFEF1DF0B2EF1DF0DDEF1DF008
:103BA200252A010E2626000E272228222922D89015
:103BB2002932283227322632000E2614206E000EB9
:103BC2002714216E000E2814226EFF0E2914236E74
:103BD2002050211022102310D8A4F2EF1DF0F4EF90
:103BE2001DF0D1EF1DF0FCEF1DF02506D890263612
:103BF20027362836293628BE01EF1EF003EF1EF0C5
:103C02000BEF1EF0020E256009EF1EF00BEF1EF007
:103C1200F6EF1DF025B010EF1EF012EF1EF013EFBD
:103C22001EF0289ED890253225C020F0216A226AF3
:103C3200236A20C023F0226A216A206A20502612B9
:103C42002150271222502812235029122450D8B46E
:103C52002DEF1EF02FEF1EF037EF1EF01FBE36EFD6
:103C62001EF034EF1EF037EF1EF0298E26C01CF036
:103C720027C01DF028C01EF029C01FF01200000E40
:103C8200246E000E236E94EF1EF01CC021F01DC0A6
:103C920022F01CC01FF01DC020F01F1E201E1F4A54
:103CA200202A1FC023F020C024F0B5EF1EF01CC054
:103CB20021F01DC022F01CC023F01DC024F0B5EF7E
:103CC2001EF01CC021F01DC022F01CC014F01DC04B
:103CD20015F0FF0E176EFE0E166E67EC26F014C07E
:103CE20023F015C024F0B5EF1EF01CC021F01DC05A
:103CF20022F0000E246E000E236EB5EF1EF0000EB1
:103D0200226E000E216E1CC023F01DC024F0B5EF00
:103D12001EF0000E226E000E216E000E246E000EAA
:103D2200236EB5EF1EF01E501F6E206A2050000A4F
:103D3200D8B49EEF1EF08AEF1EF01F50000AD8B4CE
:103D420046EF1EF0010AD8B458EF1EF0030AD8B4A9
:103D520062EF1EF0010AD8B476EF1EF0070AD8B45B
:103D620080EF1EF08AEF1EF022BEC1EF1EF022503D
:103D720009E1420E215CD8A0C1EF1EF0C3EF1EF094
:103D8200C9EF1EF0000E226E410E216EDBEF1EF017
:103D920022AED5EF1EF0BF0E215CFF0E2258D8B026
:103DA200D5EF1EF0D7EF1EF0DBEF1EF0FF0E226EF6
:103DB200BF0E216E24BEE7EF1EF0245009E1290E4A
:103DC200235CD8A0E7EF1EF0E9EF1EF0EFEF1EF044
:103DD200000E246E280E236E01EF1FF024AEFBEFBF
:103DE2001EF0D80E235CFF0E2458D8B0FBEF1EF055
:103DF200FDEF1EF001EF1FF0FF0E246ED80E236EB2
:103E0200600E2124146E010E2220156EA4EC2CF0FB
:103E1200650E2324146E010E2420156EBEEC2CF0C8
:103E22001200000E256E23BE1BEF1FF019EF1FF0CC
:103E32002DEF1FF0231E221E211E201E1F1E1E1EDE
:103E42001D1E1C6C000E1D221E221F22202221225A
:103E520022222322010E256E1BBE34EF1FF032EF09
:103E62001FF046EF1FF01B1E1A1E191E181E171EEA
:103E7200161E151E146C000E152216221722182269
:103E820019221A221B22010E251A20EE26F0070EF5
:103E9200DE6AE806FDE21C501D101E101F102010E5
:103EA200211022102310D8B459EF1FF05BEF1FF03E
:103EB200ADEF1FF0010E246E69EF1FF0D8901C3693
:103EC2001D361E361F362036213622362336242A48
:103ED20023AE6EEF1FF070EF1FF05FEF1FF0D89070
:103EE20026362736283629362A362B362C362D36D4
:103EF2001C50145C1D5015581E5016581F50175850
:103F0200205018582150195822501A5823501B5823
:103F1200D8A08EEF1FF090EF1FF0A1EF1FF01C5002
:103F2200145E1D50155A1E50165A1F50175A205013
:103F3200185A2150195A22501A5A23501B5A2680B5
:103F4200D89023322232213220321F321E321D32C9
:103F52001C32242E70EF1FF02550D8B4B3EF1FF09F
:103F6200B5EF1FF0C5EF1FF02D1E2C1E2B1E2A1EB3
:103F7200291E281E271E266C000E272228222922EF
:103F82002A222B222C222D2226C014F027C015F023
:103F920028C016F029C017F02AC018F02BC019F05B
:103FA2002CC01AF02DC01BF01200000E1D6E000E68
:103FB2001C6E030E1E6E40EC1EF0000E0001FE6F22
:103FC200000EE86F280EE76FE7C01CF0E8C01DF096
:103FD200000E1DBEFF0E1E6E1F6E010E66EC1DF062
:103FE2001CC0A8F11DC0A9F11EC0AAF11FC0ABF1EF
:103FF200530E0101A06F100EA16FA8C1A2F1A9C1B9
:10400200A3F1AAC1A4F1ABC1A5F158EC2EF050EF77
:1040120020F0A8C12AF0A9C12BF0AAC12CF0ABC193
:104022002DF0CD0E2E6ECC0E2F6E8C0E306E3F0EFE
:10403200316E82EC13F02AC0A8F12BC0A9F12CC07A
:10404200AAF12DC0ABF1A8C179F0A9C17AF0AAC139
:104052007BF0ABC17CF00EEC23F079C0E7F07AC0C4
:10406200E8F0E7C018F0E8C019F091EC25F0230E53
:104072000101A06F100EA16FE7C0A2F1E8C0A3F189
:1040820058EC2EF03EEC1AF0000E0001FA6FFA51D5
:10409200D8B44EEF20F050EF20F048EF20F0A8C146
:1040A2006DF0A9C16EF0AAC16FF0ABC170F0000E45
:1040B2000001716F000E726F7A0E736F430E746F90
:1040C20015EC24F00001D8A069EF20F06BEF20F08E
:1040D2000AEF20F0000EE86FFA0EE76FE7C018F063
:1040E200E8C019F091EC25F0010E0101A06F100E4D
:1040F200A16FE7C0A2F1E8C0A3F158EC2EF0000EC8
:104102000001FA6F87EF20F03EEC1AF01D0E00015D
:10411200FA658EEF20F090EF20F085EF20F0010E8F
:10412200FE6F3EEC1AF01200000E256E1BBE9EEFD3
:1041320020F09CEF20F0B0EF20F01B1E1A1E191E7B
:10414200181E171E161E151E146C000E152216229E
:104152001722182219221A221B22010E256E23BEB3
:10416200B7EF20F0B5EF20F0C7EF20F0231E221E9C
:10417200211E201E1F1E1E1E1D1E1C6C000E1D2237
:104182001E221F2220222122222223221C501D1005
:104192001E101F102010211022102310D8B4D4EFAB
:1041A20020F0D6EF20F01EEF21F0010E246EE4EF96
:1041B20020F0D8901C361D361E361F36203621368A
:1041C20022362336242A23AEE9EF20F0EBEF20F04B
:1041D200DAEF20F01C50145C1D5015581E50165872
:1041E2001F501758205018582150195822501A5849
:1041F20023501B58D8A000EF21F002EF21F012EF5C
:1042020021F01C50145E1D50155A1E50165A1F5094
:10421200175A2050185A2150195A22501A5A23500C
:104222001B5AD89023322232213220321F321E32C0
:104232001D321C32242EEBEF20F02550D8B424EF8F
:1042420021F026EF21F036EF21F01B1E1A1E191E57
:10425200181E171E161E151E146C000E152216228D
:104262001722182219221A221B2214C014F015C078
:1042720015F016C016F017C017F018C018F019C0C4
:1042820019F01AC01AF01BC01BF01200D4EC28F06F
:1042920022C0E9F023C0EAF00001E951EB5D856F2D
:1042A200EA51EC59866F01012C510001E95D876FDB
:1042B20001012D510001EA59886F0A0E2E6ED70EA8
:1042C2002F6EA30E306E3C0E316E000E176E020E74
:1042D200166E87C014F088C015F067EC26F085C012
:1042E20083F086C084F014500001835F1550845B14
:1042F20083C01CF084C01DF0000E1DBEFF0E1E6E9A
:104302001F6E010E66EC1DF01CC02AF01DC02BF0C2
:104312001EC02CF01FC02DF082EC13F02AC079F0E1
:104322002BC07AF02CC07BF02DC07CF00EEC23F079
:1043320000017951896F8951800A7A0FD8A0A4EFC0
:1043420021F0A6EF21F0AAEF21F0050E896FB6EF5A
:1043520021F08951800A850FD8B0B2EF21F0B4EF75
:1043620021F0B6EF21F0FB0E896F8951E727000E8D
:1043720089BFFF0EE823E8BFC8EF21F0BD0EE75D5D
:10438200020EE859D8A0C8EF21F0CAEF21F0D0EF11
:1043920021F0020EE86FBC0EE76FE2EF21F0E8AF0A
:1043A200DCEF21F0700EE75DFE0EE859D8B0DCEFCD
:1043B20021F0DEEF21F0E2EF21F0FE0EE86F700E49
:1043C200E76FE7C018F0E8C019F091EC25F0E9C0FA
:1043D2002CF1EAC02DF11200000E196E000E186EBB
:1043E20091EC25F0000E1D6E000E1C6E030E1E6E6B
:1043F20040EC1EF0CBB800EF22F002EF22F0FBEF10
:1044020021F00001FA51D8B409EF22F00BEF22F0AB
:1044120002EF22F0000EFA6F0DEC2FF0E5C01CF057
:10442200E6C01DF01E6A1F6A000E66EC1DF01CC07D
:104432006DF01DC06EF01EC06FF01FC070F07B0EDD
:104442000001716F140E726F2E0E736F450E746F32
:1044520015EC24F00001D8A031EF22F033EF22F066
:1044620002EF22F0D6EC1FF0010E0001FE6F000EEB
:10447200FB6FF7C0EFF0F8C0F0F0F3C0EDF0F4C05E
:10448200EEF0000EFA6F0001FA51D8B44BEF22F0B1
:104492004DEF22F044EF22F0000EFA6FCBBA54EF48
:1044A20022F056EF22F068EF22F0000EEC6F000EC1
:1044B200EB6F000EE86F000EE76F000E1D6E000E30
:1044C2001C6E030E1E6E40EC1EF087EF22F01EECF7
:1044D20029F00009D8B470EF22F072EF22F07BEFDE
:1044E20022F03C0E0101A06F100EA16F58EC2EF0CD
:1044F20087EF22F0EAEC18F092EC23F03EEC1AF08F
:1045020061EC1CF047EC21F044EF22F01200000EA7
:104512001D6E1BBE91EF22F08FEF22F09BEF22F077
:104522001B1E1A1E191E186C000E19221A221B229B
:10453200010E1D6E17BEA2EF22F0A0EF22F0ACEF2B
:1045420022F0171E161E151E146C000E15221622BE
:104552001722010E1D1A000E1E6E000E1F6E000E97
:10456200206E000E216E185019101A101B10D8B4AC
:10457200BDEF22F0BFEF22F0F5EF22F0010E1C6E2C
:10458200C9EF22F0D890183619361A361B361C2A73
:104592001BAECEEF22F0D0EF22F0C3EF22F0D89084
:1045A2001E361F36203621361850145C1950155805
:1045B2001A5016581B501758D8A0E2EF22F0E4EF19
:1045C20022F0EDEF22F01850145E1950155A1A50CD
:1045D200165A1B50175A1E80D8901B321A321932A3
:1045E20018321C2ED0EF22F01D50D8B4FBEF22F06F
:1045F200FDEF22F005EF23F0211E201E1F1E1E6C70
:10460200000E1F22202221221EC014F01FC015F00E
:1046120020C016F021C017F0120000017B357C3556
:10462200826F8251D8A418EF23F01AEF23F024EFFF
:1046320023F0000E796F000E7A6F000E7B6F000E72
:104642007C6F91EF23F079C07DF07AC07EF07BC061
:104652007FF07CC080F0200E34EF23F0D8908033BE
:104662007F337E337D33E82E2FEF23F07D51816F30
:104672007B8FFF0E7917FF0E7A17FF0E7B17000E46
:104682007C17960E825F82BF4BEF23F049EF23F037
:1046920061EF23F08251800A970FD8B053EF23F0D5
:1046A20055EF23F057EF23F01AEF23F0D8907C3325
:1046B2007B337A337933823F57EF23F079EF23F05C
:1046C2001F0E826567EF23F069EF23F071EF23F08D
:1046D2001AEF23F0D89079377A377B377C37820705
:1046E2008251D8A477EF23F079EF23F06BEF23F018
:1046F2008151D8B47FEF23F081EF23F089EF23F0CB
:104702007C1F7B1F7A1F796D000E7A237B237C230B
:1047120079C079F07AC07AF07BC07BF07CC07CF003
:1047220012000001FD5107E10F0EFC5DD8B09CEFB5
:1047320023F09EEF23F0A3EF23F00101324B332B42
:10474200BAEF23F0030EFE19D8B4AAEF23F0ACEFB0
:1047520023F0BAEF23F0040EFE19D8B4B3EF23F01E
:10476200B5EF23F0BAEF23F0000E0101336F000E14
:10477200326F0101335109E1330E325DD8A0C4EF2B
:1047820023F0C6EF23F014EF24F02A4B2B2B030E59
:104792000001FE19D8B4D0EF23F0D2EF23F0ECEFF2
:1047A20023F0040EFE19D8B4D9EF23F0DBEF23F087
:1047B200ECEF23F0F751F35DF851F459D8B0E4EF80
:1047C20023F0E6EF23F0EAEF23F0030EFE6FECEFA7
:1047D20023F0040EFE6FFD5107E1240EFC5DD8B0FC
:1047E200F5EF23F0F7EF23F008EF24F001012BBFE0
:1047F20004EF24F02D0E2A5D010E2B59D8A004EFF0
:1048020024F006EF24F014EF24F008EF24F0010E58
:104812000001FE6F000E0101336F000E326F000EB9
:104822002B6F000E2A6F1200000E00016D15366EFE
:10483200000E6E15376E800E6F15386E7F0E701576
:10484200396E3650371038103910D8A42BEF24F0B7
:104852002DEF24F035EF24F0000E6D6F000E6E6F19
:10486200000E6F6F000E706F000E7115366E000E27
:104872007215376E800E7315386E7F0E7415396E91
:104882003650371038103910D8A44AEF24F04CEFC4
:1048920024F054EF24F0000E716F000E726F000EC0
:1048A200736F000E746F70AF59EF24F05BEF24F05A
:1048B20064EF24F06D6D6E1FD8B06E2B6F1FD8B0F1
:1048C2006F2B800E705774AF69EF24F06BEF24F0FA
:1048D20074EF24F0716D721FD8B0722B731FD8B0B1
:1048E200732B800E7457000E6D1B000E6E1B000E94
:1048F2006F1B800E701B000E711B000E721B000ED0
:10490200731B800E741B71516D5D72516E59735120
:104912006F5974517059D8B091EF24F093EF24F08D
:1049220096EF24F0D89097EF24F0D88012001CC1A3
:104932001EF01DC11FF01EC120F01FC121F014C0C6
:104942001EF015C01FF016C020F017C021F01EC0C7
:1049520018F01FC019F020C01AF021C01BF0180E69
:10496200B8EF24F0D8901B321A3219321832E82EDE
:10497200B3EF24F018501C6E1D6A1C501D10D8A4F1
:10498200C5EF24F0C7EF24F0E7EF24F0D8901E34EF
:10499200186E1F34196E20341A6E21341B6E185093
:1049A20019101A101B10D8A4D9EF24F0DBEF24F051
:1049B200E1EF24F0000E156E020E146E16EF25F0D4
:1049C200000E156E030E146E16EF25F01C281D1036
:1049D200D8A4EEEF24F0F0EF24F012EF25F01EC081
:1049E20018F01FC019F020C01AF021C01BF0090EE8
:1049F200D890183619361A361B36E82EF9EF24F0FD
:104A0200185019101A101B10D8B40AEF25F00DEF28
:104A120025F0010E0EEF25F0000E146E156A16EF4A
:104A220025F0000E156E040E146E120014C01BF059
:104A320015C01CF016C01DF017C01EF01806D8A035
:104A42001906182806E11928D8A42AEF25F02CEF18
:104A520025F039EF25F0000E156E000E146E90EF62
:104A620025F01B4A1C2A1D4A1E2A1806D8A0190620
:104A720060006FF0D9FF600073F0DAFFDF50D8B446
:104A820045EF25F047EF25F07AEF25F0600077F04B
:104A9200F6FF60007BF0F7FFF86A0800F5500009A6
:104AA200D8B456EF25F058EF25F07AEF25F01850DC
:104AB2001910D8B45FEF25F061EF25F07AEF25F0F9
:104AC20060006FF0D9FF600073F0DAFFDF501A6EFA
:104AD200600077F0F6FF60007BF0F7FFF86A0800ED
:104AE200F5501A18D8B478EF25F07AEF25F032EFA6
:104AF20025F060006FF0D9FF600073F0DAFFDF503D
:104B02001A6E600077F0F6FF60007BF0F7FFF86A3C
:104B12000800F5501A5C146E156AD8A0150612002A
:104B220019BE9DEF25F0195009E1280E185CD8A096
:104B32009DEF25F09FEF25F0BFEF25F019BEABEFFB
:104B420025F0BD0E185C020E1958D8A0ABEF25F067
:104B5200ADEF25F0B1EF25F0020E196EBC0E186E06
:104B620018C014F019C015F0F2EC2CF0000E156EFE
:104B7200000E146ED8EC2CF001EF26F019AECBEF3C
:104B820025F0D90E185CFF0E1958D8B0CBEF25F0DE
:104B9200CDEF25F0F5EF25F019AED9EF25F0700E27
:104BA200185CFE0E1958D8B0D9EF25F0DBEF25F0CE
:104BB200DFEF25F0FE0E196E700E186E000E156EE8
:104BC200000E146EF2EC2CF018C01AF019C01BF093
:104BD2001A1E1B1E1A4A1B2A1AC014F01BC015F0FB
:104BE200D8EC2CF001EF26F0000E156E000E146EBC
:104BF200F2EC2CF0000E156E000E146ED8EC2CF0B8
:104C02001200000EBE6E000EBD6E240EBA6E000EB5
:104C1200BB6E000EBC6E070EC66EC00EC26EF70EE5
:104C2200C36EC468C5681F0E3A01706F6069C00E1A
:104C3200506F070E806F7F0E406F000E716F000E77
:104C4200816F000E516F000E416F000E616F000EFA
:104C52005A6F000E5B6F000E6A6F000E6B6F000ED4
:104C62007A6F000E7B6F000E826F000E426F000E95
:104C7200526F000E626F000E726F4369536963696F
:104C82007369070E836F44695469646974690F0E0E
:104C9200846F1F0ECF6F090EDC6F0E0E016F0A0EAE
:104CA200E56F0D0E006F1D0EC96F100E046F070E1B
:104CB200D96F090ED16F0F0E036F130E0B6F080E13
:104CC200DB6F080ED26F1E0ED06F1200000E196E2F
:104CD20017BE70EF26F06EEF26F076EF26F0166C18
:104CE200171ED8B0172A010E196E15BE7DEF26F0D9
:104CF2007BEF26F083EF26F0146C151ED8B0152A30
:104D0200010E191A000E1B6E000E1A6E16501710A5
:104D1200D8B48EEF26F090EF26F0B8EF26F0010E11
:104D2200186E98EF26F0D89016361736182A17AE56
:104D32009DEF26F09FEF26F094EF26F0D8901A36DA
:104D42001B361650145C17501558D8A0ABEF26F03E
:104D5200ADEF26F0B2EF26F01650145E1750155A3A
:104D62001A80D89017321632182E9FEF26F019505B
:104D7200D8B4BEEF26F0C0EF26F0C4EF26F01A6CCE
:104D82001B1ED8B01B2A1AC014F01BC015F012004B
:104D92003EA0CEEF26F0D0EF26F0DAEF26F028C0C4
:104DA2001FF029C020F026C021F027C022F077ECA6
:104DB2002BF02BBEDFEF26F0E1EF26F0E7EF26F037
:104DC2002AC02FF02BC030F0EBEF26F0000E306E31
:104DD200000E2F6E000E2E6E000E2D6EFDEF26F0D1
:104DE200000E176E200E166E26C018F027C019F09E
:104DF20089EC28F02D4A2E2A2F502D5C2E50800A45
:104E02002C6E3050800A2C58D8A00AEF27F00CEFF5
:104E120027F0F1EF26F03EB011EF27F013EF27F065
:104E22001DEF27F028C01FF029C020F026C021F076
:104E320027C022F077EC2BF028C014F029C015F01F
:104E4200DBEC2BF02F501424266E30501520276EE9
:104E52001200000E4524D96EDA6A010EDA22000E23
:104E6200DF6E3D01F9A738EF27F03AEF27F04EEF5A
:104E720027F0000E4524D96EDA6A010EDA2201010A
:104E8200DF8202D84EEF27F00500FA6E9451FD6ED4
:104E92009551FE6EFF6AFA5012003D01F9A354EFDC
:104EA20027F056EF27F06AEF27F0000E4524D96E5F
:104EB200DA6A010EDA220101DF8402D86AEF27F0F2
:104EC2000500FA6E9251FD6E9351FE6EFF6AFA5022
:104ED2001200000E4524D96EDA6A010EDA22DF5082
:104EE200D8B476EF27F078EF27F087EF27F002D8D3
:104EF20085EF27F00500FA6E01019051FD6E915188
:104F0200FE6EFF6AFA50120089EF27F02CEC2EF0A9
:104F12001200000E196E15BE93EF27F091EF27F0E5
:104F220099EF27F0146C151ED8B0152A010E196ED0
:104F320017BEA0EF27F09EEF27F0A4EF27F0166C24
:104F4200171ED8B0172A16501710D8B4ABEF27F097
:104F5200ADEF27F0D1EF27F0010E186EB5EF27F075
:104F6200D89016361736182A17AEBAEF27F0BCEFCC
:104F720027F0B1EF27F01650145C17501558D8A03F
:104F8200C5EF27F0C7EF27F0CBEF27F01650145EDE
:104F92001750155AD89017321632182EBCEF27F038
:104FA2001950D8B4D7EF27F0D9EF27F0DDEF27F06B
:104FB200146C151ED8B0152A14C014F015C015F0C3
:104FC2001200000E14141C6E000E15141D6E800EBD
:104FD20016141E6E7F0E17141F6E1C501D101E100D
:104FE2001F10D8A4F7EF27F0F9EF27F001EF28F010
:104FF200000E146E000E156E000E166E000E176E69
:10500200000E18141C6E000E19141D6E800E1A1458
:105012001E6E7F0E1B141F6E1C501D101E101F10C3
:10502200D8A416EF28F018EF28F020EF28F0000E91
:10503200186E000E196E000E1A6E000E1B6E1850BE
:1050420014180FE1195015180CE11A50161809E13D
:105052001B501718D8B430EF28F032EF28F035EF94
:1050620028F0D89036EF28F0D880120039019397B3
:10507200540E146E4E0E156E26EC2FF039019399D4
:10508200320E146E570E156E21EC2FF0000E3D01FC
:10509200EC6F000EED6F000EEE6F000EEF6F000E64
:1050A200F06F000EF16FB00EF26F800EF36F000E14
:1050B200F46F8A0EF56F000EF66F000EF76F000E9A
:1050C200F86F000EF96F000EFA6FAC0E146E5E0EE2
:1050D200156E30EC2FF0AA0E146E5E0E156E2BECD0
:1050E2002FF09C0E146E5E0E156E35EC2FF0000E36
:1050F200426E000E476E000E466E080E4C6E000E9B
:10510200456E000E446E000E436E39019387120005
:1051120018501910D8B490EF28F092EF28F09BEFB6
:1051220028F018501910D8A499EF28F09BEF28F016
:10513200A0EF28F016501CEC2FF0D3EF28F020EE51
:1051420004F01850D9261950DA22DE50DE10D8B4F5
:10515200ADEF28F0AFEF28F0CAEF28F020EE04F010
:105162001850D9261950DA2210EE02F01850E12612
:105172001950E222DE50E65CE650800A1E6EDE50D6
:10518200800A1E58D8B0C8EF28F0CAEF28F0D3EF33
:1051920028F020EE02F01850D9261950DA22DE2A21
:1051A200000EDD221200000E256E000E246E485005
:1051B20049104A104B10D8B4E1EF28F0E3EF28F081
:1051C20019EF29F03C0160ABE9EF28F0EBEF28F092
:1051D20003EF29F0200E146EA10E156E070E166E47
:1051E200000E176E48C018F049C019F04AC01AF0F4
:1051F2004BC01BF088EC22F014C024F015C025F03F
:1052020019EF29F0E00E146E5E0E156EF80E166E92
:10521200FF0E176E48C018F049C019F04AC01AF0C4
:105222004BC01BF088EC22F014C024F015C025F00E
:1052320024C022F025C023F012000101304B312B93
:10524200F50E305D010E3159D8A02AEF29F02CEF6E
:1052520029F065EF29F0000E316F000E306F0DEC72
:105262002FF0E5C01CF0E6C01DF01E6A1F6A000E9A
:1052720066EC1DF01CC06DF01DC06EF01EC06FF01C
:105282001FC070F07B0E0001716F140E726F2E0E34
:10529200736F450E746F15EC24F00001D8B054EF13
:1052A20029F056EF29F065EF29F0000EEC6F000EA1
:1052B200EB6F000E1D6E000E1C6E030E1E6E40EC98
:1052C2001EF0010E66EF29F0000E12009CC1E3F001
:1052D2009DC1E4F0000E0101296F000E286F89EFD5
:1052E20029F09AC1C7F09BC1C8F0E30E0001C96F53
:1052F200000ECA6F9EC1CBF09FC1CCF090EC0EF0B5
:105302000001C751010128270001C85101012923C9
:1053120060008FF3F6FF600093F3F7FFF86A08006E
:10532200F5500009D8A498EF29F09AEF29F072EF0E
:1053320029F028C19AF129C19BF1120016C01AF076
:1053420017C01BF014C01CF015C01DF01A50186EC7
:105352001B50196E1A4A1B2A600063F0F6FF6000A8
:1053620067F0F7FF000EF86E600073F0D9FF60007F
:1053720077F0DAFF1C4A1D2A0F0EF76403D00800EB
:10538200F55007D06F00DBFFE1FF6F00DFFFE2FFA8
:10539200E750DF6EDF50D8A4D1EF29F0D3EF29F028
:1053A200A7EF29F01200A80EF66E5E0EF76E000E41
:1053B200F86E09006F00D4FFAEF109006F00D4FF50
:1053C200AFF1B20EF66E5E0EF76E000EF86E0900C9
:1053D2006F00D4FFFEF000EE00F1840EEE6AE806E4
:1053E200FDE100EEE5F0190EEE6AE806FDE100EEE1
:1053F2003AF0120EEE6AE806FDE1080ED56E000ED6
:10540200D66E000ED76E0001A4EF2EF0BF0E1C6EFA
:10541200FF0E1D6E1AC01EF01BC01FF01C501E2670
:105422001D501F221F500AE11A0E1E5CD8A01CEF4D
:105432002AF01FEF2AF0010E20EF2AF0000E206E54
:10544200216A20502110D8B429EF2AF02BEF2AF03C
:1054520032EF2AF0200E1A101A6E1B501B6E36EF16
:105462002AF01AC01AF01BC01BF01200146E4C5026
:10547200D8B43EEF2AF040EF2AF038EF2AF0390193
:1054820093B946EF2AF048EF2AF04DEF2AF0600078
:1054920053F0EAFD63EF2AF09399100E4724D96E78
:1054A200DA6A010EDA22600053F0DFFF472A070EA4
:1054B20047645EEF2AF060EF2AF062EF2AF0000EF6
:1054C200476E4C0693891200000E3E01DE6F000EFD
:1054D200DF6F000EE06F000EE16F000EE46F000E52
:1054E200E56F000EEA6F000EEC6F000EF16F580EC2
:1054F200F36F020EF46F000EF56F000EF66F000EE2
:10550200F76F000EF96F000EFA6F000EFB6F000EC0
:10551200FC6F000EFD6F000EFE6F1F0EFF6F840EFC
:04552200F86F12000C
:105528003901A19F3F0118510101246F3F01195111
:105538000101256F3F011A510101266F276B3C01BC
:1055480060ABA9EF2AF0ABEF2AF0B4EF2AF0010E16
:1055580001012027000E212322232323BDEF2AF057
:10556800FF0E01012027FF0E2123FF0E2223FF0E2D
:1055780023231100D28A000ED2BE010E146ED29ED1
:10558800550ED46EAA0ED46ED490000ED76E000EAF
:10559800D66E080ED56E550ED46EAA0ED46ED48073
:1055A80014B002D0D29E01D0D28E3901839983974C
:1055B800818F818B818D8A81888F87918983120061
:1055C800BEEC2AF080EC2EF002EC26F001EC2FF075
:1055D800D2EC2DF065EC2AF000EC2EF073EC2DF0F7
:1055E800D1EC2EF0C3EC2EF0E9EC2EF0BBEC2DF054
:1055F80016EC2EF06BEC2CF0F5EC2EF009EC2BF001
:10560800DDEC2EF037EC28F01200C00E9B6E000E79
:105618009C6E050E9D6E000E996E000E986E3901F7
:10562800A89D98506F0064FE16F0176A16C017F010
:10563800166A161001018A6F17508B6F3901A89FDF
:10564800988F680E146E5D0E156E3AEC2FF0030EEF
:105658009A6E12003901A19D3F011551486E1651ED
:10566800496E17514A6E4B6A3C0160AB3EEF2BF016
:1056780040EF2BF049EF2BF0010E01012027000E1F
:1056880021232223232352EF2BF0FF0E0101202791
:10569800FF0E2123FF0E2223FF0E23231100000EED
:1056A80000017D1B000E7E1B000E7F1B800E801BE1
:1056B80079C06DF07AC06EF07BC06FF07CC070F07E
:1056C8007DC071F07EC072F07FC073F080C074F04E
:1056D80021EC11F06DC079F06EC07AF06FC07BF0EC
:1056E80070C07CF01200000E256E000E246E88EF4C
:1056F8002BF023C016F0176A21C018F022C019F049
:1057080089EC28F0244A252A24501F24D96E2550D4
:105718002020DA6EDF50236E2350D8A496EF2BF0AA
:1057280098EF2BF07DEF2BF01200080E4C609FEFE6
:105738002BF0A1EF2BF0B8EF2BF0100E4624D96E0A
:10574800DA6A010EDA22DF503D01EA6F462A070EB7
:105758004664B1EF2BF0B3EF2BF0B5EF2BF0000E52
:10576800466E4C2ABAEF2BF039019399120027BEE6
:10577800C8EF2BF0275006E12604D8B0C6EF2BF06F
:10578800C8EF2BF0D6EF2BF026C028F027C029F061
:10579800281E291E284A292A28C026F029C027F0B1
:1057A800DAEF2BF026C026F027C027F0120014C02D
:1057B80016F015C017F0E3EF2BF0144A152A600015
:1057C80053F0D9FF600057F0DAFFDF50D8A4EFEFAD
:1057D8002BF0F1EF2BF0E1EF2BF01650145C146E68
:1057E80017501558156E12006F0060FF11F0010177
:1057F80096519711D8B403EF2CF005EF2CF011EF68
:105808002CF002D811EF2CF00500FA6E9651FD6EBF
:105818009751FE6EFF6AFA501200600047F0D8FFF9
:0258280011006D
:10582C006F0060FF12F0010198519911D8B421EF6B
:10583C002CF023EF2CF02FEF2CF002D82FEF2CF0C4
:10584C000500FA6E9851FD6E9951FE6EFF6AFA5082
:10585C00120060004BF0D8FF1100BF0E166EFF0E49
:10586C00176E14C018F015C019F0165018261750E2
:10587C00192219500AE11A0E185CD8A048EF2CF026
:10588C004BEF2CF0010E4CEF2CF0000E146E156A41
:10589C0012001450151016101710D8B458EF2CF025
:1058AC005AEF2CF062EF2CF0000E141A000E151AA1
:1058BC00000E161A800E171A14C014F015C015F02D
:1058CC0016C016F017C017F01200000EA76E000ECF
:1058DC00A86E050EA96E000EA56E000EA46E390101
:1058EC00A69DA4506F0094FE14F0156A14C015F018
:1058FC00146A14100101866F1550876F010EA66E85
:02590C00120087
:105910006F0060FF13F03901A791404A412A4150BE
:1059200009E10A0E405CD8A098EF2CF09AEF2CF019
:10593000A0EF2CF0E9EC2DF0000E416E000E406E51
:1059400060004FF0D8FF110014C016F015C017F01A
:10595000D89017321632D890173216321650696E18
:1059600014C016F0030E1616060E176ED8901636D3
:10597000172EB6EF2CF01650686E120014C016F0F9
:1059800015C017F0D89017321632D8901732163249
:1059900016506D6E14C016F0030E1616060E176E16
:1059A000D8901636172ED0EF2CF016506C6E1200D1
:1059B00014C016F015C017F0D89017321632D890D0
:1059C000173216321650616E14C016F0030E1616FA
:1059D000060E176ED8901636172EEAEF2CF01650DA
:1059E000606E120014C016F015C017F0D890173270
:1059F0001632D890173216321650656E14C016F053
:105A0000030E1616060E176ED8901636172E04EFD4
:105A10002DF01650646E12003901A9936F00D0FD6D
:105A200003F06F00D4FD04F003C001F004C002F0E5
:105A300002D825EF2DF00500FA6E01018E51FD6EA2
:105A40008F51FE6EFF6AFA50120011003901AA91BF
:105A50006F00C0FD07F06F00C4FD08F007C005F03F
:105A600008C006F002D83FEF2DF00500FA6E0101E4
:105A70008C51FD6E8D51FE6EFF6AFA5012001100BE
:105A8000186E600063F0F1FE3E01F88FF89DF8811A
:105A9000F8B14DEF2DF04FEF2DF048EF2DF0F05114
:105AA000176E166AEF511624146E000E1720156E2D
:025AB0001200E2
:105AB4003901A89F010188518911D8B464EF2DF0F0
:105AC40066EF2DF072EF2DF002D872EF2DF0050085
:105AD400FA6E8851FD6E8951FE6EFF6AFA5012000B
:105AE4001100800E3F011E6F420E1F6F000E206FCB
:105AF400040E216F000E236F000E226F010E1D6F26
:105B04001C691B693901918B918F918D3F011F8F06
:105B14001200CDAE90EF2DF092EF2DF098EF2DF016
:105B240001C0F5F002C0F6F0A2EF2DF00001F5512E
:105B3400015CF76FF6510258F86FD890F833F733D9
:105B44001200CDACA8EF2DF0AAEF2DF0B0EF2DF0A0
:105B540005C0F1F006C0F2F0BAEF2DF00001F151EA
:105B6400055CF36FF2510658F46FD890F433F333B5
:105B74001200830E726E000E736E000E716E000EB4
:105B8400706E460E146E5B0E156E44EC2FF03F01E2
:105B94005E513F0B80095E6F3901AA919A81120010
:105BA400830E766E000E776E000E756E000E746EA8
:105BB400160E146E5B0E156E49EC2FF03F015E510C
:105BC400CF0B20095E6F3901A9939983120001015B
:105BD40084518511D8B4F1EF2DF0F3EF2DF0FFEFE0
:105BE4002DF002D8FFEF2DF00500FA6E8451FD6E02
:105BF4008551FE6EFF6AFA5012001200010EA26E69
:105C0400000EA16E000EA36EF90E9F6E000E9E6E26
:105C14003901A7919781AE0E146E5E0E156E3FEC9E
:105C24002FF0E00EA06E1200000E3C01616F030E17
:105C3400626F020E636F000E646F000E656F020EDA
:105C4400666F080E676F000E686F000E696F850E31
:105C5400606F1200080E4524D96EDA6A010EDA224A
:105C64006F00A3F7DFFF452A070E45643CEF2EF0D3
:105C74003EEF2EF040EF2EF0000E456E432A120048
:105C84009AA447EF2EF049EF2EF052EF2EF09A909F
:105C94000A50996E600027F098FF9A8057EF2EF013
:105CA4000A50996E600027F098FF1200A20E0101BD
:105CB400A66F010EA76F000E9A6F000E9B6FA0C116
:105CC4009CF1A1C19DF1A60E9E6F010E9F6F67EC22
:105CD40029F012003901A19B000E486E000E496E96
:105CE400000E4A6E000E4B6E000E0101246F000E72
:105CF400256F000E266F000E276F1100000E39016C
:105D0400C06F000EC16F000EC26F000EC36F000E95
:105D1400C46F000EC56F000EC66F000EC76F120071
:105D24009A826F0060FE10F06F0064FE0FF00F5057
:105D34000B6E10500D6E0BC00EF00DC009F00EC0AE
:105D44000AF01200E4EC2AF0D28ED28CA20E146E69
:105D54005E0E156E3FEC2FF0EDEC21F0AEEF2EF061
:105D640057EF00F092EC2EF009C0FCF00AC0FDF0F1
:105D74000001D890FD33FC3315EC2FF03901A89FB6
:105D84001200050EAE6E000EAD6E000EAF6EAB6867
:105D9400000EAA6E3901A495B00EAC6E1200800EEE
:105DA400626E000E616E000E606E3F015F513F0B2C
:105DB40080095F6F1200800E666E000E656E000E25
:105DC400646E3F015F51CF0B20095F6F1200800E9C
:105DD4006A6E590E696E400E686E3F015F51F30B97
:105DE40004095F6F1200800E6E6E590E6D6E400EC8
:105DF4006C6E3F015F51FC0B01095F6F1200600E76
:105E04003901D96F000EDB6F000EDD6F080EDF6FF6
:105E1400000EDE6F1200220E40EC2DF014C0E5F0EF
:105E240015C0E6F012008AC109F08BC10AF042ECF9
:105E34002EF01200156E155037EC2AF0120014C023
:105E440096F115C097F1120014C098F115C099F19C
:105E5400120014C092F115C093F1120014C094F111
:105E640015C095F1120014C090F115C091F1120003
:105E740014C088F115C089F1120014C084F115C052
:105E840085F1120014C08CF115C08DF1120014C0FC
:105E94008EF115C08FF112002CEC2EF012000001CF
:0F5EA400FA2B1200F1FF12001200120011000180
:020000040020DA
:10000000FF0FFF0FFF0FFF0FFF0FFF0FFF0FFF0F80
:020000040030CA
:0A0000008CFFFFFF9FFFFFFFFFFFD3
:00000001FF
