:0400000057EF00F0C6
:10000800C80EC80EC80EC80EC80EC80EC80EC80E38
:10001800C80EC80EC80EC80EC80E490E010DB40C85
:10002800C80EC80EC80EC80EC80EC80EC80EC80E18
:10003800C80EC80EC80E440D350DC80EC80EC80E21
:10004800C80EC80EC80EC80E2B00C80EC80EC80EA3
:10005800C80EC80EC80EC80EC80EC80EC80EC80EE8
:10006800C80EC80EC80EC80EC80EC80EC80EC80ED8
:10007800610DC80E2B00C80EC80EC80E2B002B0031
:100088002B002B002B002B002B002B00C80ECA0DB9
:10009800C80EA30DC80EC80E2B002B002B002B007A
:0A00A800B00DC80EFF004BEF1AF078
:101000000042617474657279204C6F7700000001B2
:10101000D751800BDC6FD751D725DE6FD6AF13EFDA
:1010200008F015EF08F016EF08F0DE81DE51D8B4B5
:101030001CEF08F01EEF08F033EF08F0DE29D8A40B
:1010400024EF08F026EF08F02EEF08F0000ED46F22
:10105000000ED56F000ED66F000ED76FD68F000E24
:10106000D76F3BEF08F0000ED46F000ED56F000E67
:10107000D66F000ED76FDB51800BDD6FDC51DD19B1
:10108000D8B445EF08F047EF08F048EF08F0DC8DE2
:10109000DB51DB25DD6FDAAF50EF08F052EF08F0DF
:1010A00053EF08F0DD81DD51D8B459EF08F05BEF64
:1010B00008F070EF08F0DD29D8A461EF08F063EFC5
:1010C00008F06BEF08F0000ED86F000ED96F000E1D
:1010D000DA6F000EDB6FDA8F000EDB6F78EF08F04F
:1010E000000ED86F000ED96F000EDA6F000EDB6FA6
:1010F000DE51DD5DD8B07FEF08F081EF08F0A8EF9A
:1011000008F0DCAD86EF08F088EF08F08AEF08F011
:10111000800EDC1BDEC0DFF0DDC0DEF0DFC0DDF006
:10112000D4C0DFF0D8C0D4F0DFC0D8F0D5C0DFF035
:10113000D9C0D5F0DFC0D9F0D6C0DFF0DAC0D6F024
:10114000DFC0DAF0D7C0DFF0DBC0D7F0DFC0DBF004
:10115000000EDF6FDE51DDC036F0376A365E000EFE
:10116000375A37BEBDEF08F0375009E11A0E365C2A
:10117000D8A0BDEF08F0BFEF08F0F6EF08F0D451AB
:10118000D511D611D711D8A4C8EF08F0CBEF08F0CD
:10119000010ECCEF08F0000EDF6F000ED46F000ED2
:1011A000D56F000ED66F000ED76FDDC0DEF0FFEFFB
:1011B00008F0DFA1DEEF08F0E0EF08F0E6EF08F05E
:1011C000D890DF310109DF6FE8EF08F0D890DF3306
:1011D000D4A1EDEF08F0EFEF08F0F0EF08F0DF8FAB
:1011E000D735D733D633D533D433DE2BDD51DE5D5F
:1011F000D8A0FDEF08F0FFEF08F0D9EF08F0DCBD54
:1012000004EF09F006EF09F046EF09F0DE51D8A42B
:101210000CEF09F00EEF09F018EF09F0000ED46F93
:10122000000ED56F000ED66F000ED76F67EF0AF075
:10123000D851D427D951D523DA51D623DB51D7231E
:10124000D7A125EF09F027EF09F0D3EF09F0DFA1CF
:101250002CEF09F02EEF09F034EF09F0D890DF31D0
:101260000109DF6F36EF09F0D890DF33D4A13BEFEF
:1012700009F03DEF09F03EEF09F0DF8FD735D733A6
:10128000D633D533D433DE2BD3EF09F0D851D45D28
:10129000D951D559DA51D659D751800A366EDB511A
:1012A000800A3658D8B057EF09F059EF09F084EFAB
:1012B00009F0D451D85D366ED551D959376ED65113
:1012C000DA59386ED751DB59396EFF0E3624D46F98
:1012D000FF0E3720D56FFF0E3820D66FFF0E392056
:1012E000D76F800EDC1BDF6DDF51D8A47AEF09F0D9
:1012F0007CEF09F08CEF09F0010ED427000ED52306
:10130000D623D7238CEF09F0D851D45FD951D55BC0
:10131000DA51D65BDB51D75BD451D511D611D71139
:10132000D8A495EF09F097EF09F0CCEF09F0DF5161
:10133000D8A49DEF09F09FEF09F0CCEF09F0000E63
:10134000D46F000ED56F000ED66F000ED76F67EF0B
:101350000AF0D890D437D537D637D737DFAFB3EFC9
:1013600009F0B5EF09F0B6EF09F0D481DFA1BBEFCA
:1013700009F0BDEF09F0C1EF09F0D880DF37C3EF06
:1013800009F0D890DF37DE51D8B4C9EF09F0CBEFC0
:1013900009F0CCEF09F0DE07D6AFD1EF09F0D3EFBB
:1013A00009F0A9EF09F0000EDD6FDFAFDAEF09F009
:1013B000DCEF09F0F4EF09F0DFC036F07F0E3616EF
:1013C000D8B4E5EF09F0E7EF09F0EBEF09F0010E13
:1013D000DD6FF4EF09F0D4A1F0EF09F0F2EF09F0BE
:1013E000F4EF09F0E7EF09F0DD51D8B4FAEF09F0B6
:1013F000FCEF09F027EF0AF0010ED427000ED523E9
:10140000D623D723D7A107EF0AF009EF0AF027EF79
:101410000AF0D4C036F0D5C037F0D6C038F0D7C007
:1014200039F03934393238323732363236C0D4F0C6
:1014300037C0D5F038C0D6F039C0D7F0DE29D8B4DF
:1014400024EF0AF026EF0AF027EF0AF0DE2BDE2960
:10145000D8B42DEF0AF02FEF0AF037EF0AF0DE5183
:10146000D8A435EF0AF037EF0AF049EF0AF0000E82
:10147000D46F000ED56F000ED66F000ED76FDE5101
:10148000D8A445EF0AF047EF0AF049EF0AF0000E42
:10149000DC6FDEA14EEF0AF050EF0AF053EF0AF0D6
:1014A000D68F54EF0AF0D69FD890DE31D76FDCAFDD
:1014B0005CEF0AF05EEF0AF05FEF0AF0D78FD4C05E
:1014C000D4F0D5C0D5F0D6C0D6F0D7C0D7F0120032
:1014D0002D50800B0001C76F2D502D24CD6F2CAEE9
:1014E00074EF0AF076EF0AF077EF0AF0CD81CD5174
:1014F000D8B47DEF0AF07FEF0AF092EF0AF0CD2921
:10150000D8A485EF0AF087EF0AF08FEF0AF0000EFB
:101510002A6E000E2B6E000E2C6E000E2D6E2C8E81
:101520009AEF0AF0000E2A6E000E2B6E000E2C6E43
:10153000000E2D6E3150800BC71B31503124C86F07
:1015400030AEA5EF0AF0A7EF0AF0A8EF0AF0C881C5
:10155000C851D8B4AEEF0AF0B0EF0AF0C3EF0AF00A
:10156000C829D8A4B6EF0AF0B8EF0AF0C0EF0AF025
:10157000000E2E6E000E2F6E000E306E000E316EBD
:10158000308ECBEF0AF0000E2E6E000E2F6E000E86
:10159000306E000E316EC851D8B4D1EF0AF0D3EFDF
:1015A0000AF0DBEF0AF0CD51D8A4D9EF0AF0DBEF57
:1015B0000AF0E5EF0AF0000E2A6E000E2B6E000E08
:1015C0002C6E000E2D6E8FEF0CF030502A026F0043
:1015D000CCFFD2F06F00D0FFD3F0D251C96FCA6BED
:1015E000CB6BCC6BD351CE6FCF6BD06BD16B2F50FD
:1015F0002B026F00CCFFD2F06F00D0FFD3F0D2519E
:10160000C927000ECA23CB23CC23D351CE27000EEB
:10161000CF23D023D1232E502C026F00CCFFD2F049
:101620006F00D0FFD3F0D251C927000ECA23CB23BD
:10163000CC23D351CE27000ECF23D023D123CBC030
:10164000CCF0CAC0CBF0C9C0CAF0C96B2E502B0277
:101650006F00CCFFD2F06F00D0FFD3F0D251C9277A
:10166000D351CA23000ECB23000ECC232F502A02C5
:101670006F00CCFFD2F06F00D0FFD3F0D251C9275A
:10168000D351CA23000ECB23000ECC23CBC0CCF009
:10169000CAC0CBF0C9C0CAF0C96B2E502A026F0075
:1016A000CCFFD2F06F00D0FFD3F0D251C927D35175
:1016B000CA23000ECB23000ECC2330502B026F0028
:1016C000CCFFD2F06F00D0FFD3F0D251CE27D35150
:1016D000CF23000ED023000ED1232F502C026F00F9
:1016E000CCFFD2F06F00D0FFD3F0D251CE27D35130
:1016F000CF23000ED023000ED12330502C026F00D8
:10170000CCFFD2F06F00D0FFD3F0D251326ED35164
:10171000336E346A356A34C035F033C034F032C0C9
:1017200033F0326A3250CE273350CF233450D02397
:101730003550D123C9C032F0CAC033F0CBC034F029
:10174000CCC035F0190EAAEF0BF0D89035323432F8
:1017500033323232E82EA5EF0BF03250CE27335021
:10176000CF233450D0233550D123CBC0CCF0CAC0C6
:10177000CBF0C9C0CAF0C96BC851CDC032F0336AD2
:101780003226000E3322820E3224D26FFF0E332017
:10179000D36FE0EF0BF0D890CE37CF37D037D137BB
:1017A000CCAFD5EF0BF0D7EF0BF0D8EF0BF0CE812D
:1017B000D890C937CA37CB37CC37D207D8A0D30790
:1017C000D0AFE5EF0BF0E7EF0BF0CBEF0BF0000E37
:1017D000C86FCCAFEEEF0BF0F0EF0BF014EF0CF0A6
:1017E000FF0EC915326EFF0ECA15336EFF0ECB15F4
:1017F000346E7F0ECC15356E3250331034103510E8
:10180000D8B405EF0CF007EF0CF00BEF0CF0010E65
:10181000C86F14EF0CF0CEA110EF0CF012EF0CF02B
:1018200014EF0CF007EF0CF0C851D8B41AEF0CF01D
:101830001CEF0CF040EF0CF0010ECE27000ECF2372
:10184000D023D123D1A127EF0CF029EF0CF040EFEA
:101850000CF0CEC032F0CFC033F0D0C034F0D1C0E5
:1018600035F03534353234323332323232C0CEF0A4
:1018700033C0CFF034C0D0F035C0D1F0D24BD32B31
:10188000D3BF4BEF0CF0D35108E1D229D8A04BEFD6
:101890000CF04DEF0CF057EF0CF0000ECE6F000E79
:1018A000CF6F800ED06F7F0ED16F85EF0CF0D3BF5E
:1018B00064EF0CF0D35106E1D205D8B062EF0CF022
:1018C00064EF0CF070EF0CF0000ECE6F000ECF6FD7
:1018D000000ED06F000ED16F000EC76F85EF0CF0B9
:1018E000D2C0CDF0FF0ECE17FF0ECF177F0ED01750
:1018F000000ED117CDA17FEF0CF081EF0CF082EF3D
:101900000CF0D08FD890CD31D16FC751D113CEC04C
:101910002AF0CFC02BF0D0C02CF0D1C02DF0120097
:101920003A500001C45D186E3B50C559196EBA514A
:10193000C05D166EBB51C159176E90EF0DF019BE08
:10194000ABEF0CF0195009E1210E185CD8A0ABEFF9
:101950000CF0ADEF0CF0CEEF0CF019BEBBEF0CF0BD
:101960002C0E185C010E1958D8B0B9EF0CF0BBEF73
:101970000CF0CEEF0CF03B5007E17D0E3A5CD8B096
:10198000C4EF0CF0C6EF0CF0CEEF0CF0000E3E6E84
:10199000010E3F6E050E4C6EADEF0DF017BEDAEF87
:1019A0000CF0175009E1210E165CD8A0DAEF0CF00C
:1019B000DCEF0CF0ADEF0DF017BEEAEF0CF02C0EE3
:1019C000165C010E1758D8B0E8EF0CF0EAEF0CF0F7
:1019D000ADEF0DF0BB5107E17D0EBA5DD8B0F3EF6E
:1019E0000CF0F5EF0CF0ADEF0DF0000E3E6E010EB9
:1019F0003F6E060E4C6EADEF0DF0130E3E6403EF1E
:101A00000DF005EF0DF00BEF0DF0000E3E6E020E27
:101A10003F6EADEF0DF03E2AADEF0DF0180E3E64B7
:101A200014EF0DF016EF0DF00BEF0DF0050E4C1846
:101A3000D8A41DEF0DF01FEF0DF02AEF0DF0C551EA
:101A400009E12D0EC45DD8A028EF0DF02AEF0DF0AE
:101A500049EF0DF0060E4C18D8A431EF0DF033EF1E
:101A60000DF03EEF0DF0C15109E12D0EC05DD8A083
:101A70003CEF0DF03EEF0DF049EF0DF04B5009E15A
:101A8000B00E4A5CD8A047EF0DF049EF0DF063EFC0
:101A90000DF0450E3E644FEF0DF051EF0DF057EF96
:101AA0000DF0FF0EB76FF10EB66F5BEF0DF0000E8D
:101AB000B76F0F0EB66F000E3E6E030E3F6E010E37
:101AC0004C6E0BEF0DF0060E4C18D8A46AEF0DF01B
:101AD0006CEF0DF00BEF0DF019BE78EF0DF0195013
:101AE00009E11F0E185CD8A078EF0DF07AEF0DF029
:101AF0000BEF0DF0000E3E6E010E3F6E050E4C6EAC
:101B00000BEF0DF03E50D8B488EF0DF08AEF0DF0DA
:101B10000BEF0DF0000E3E6E000E3F6EADEF0DF0C0
:101B20003F50146E156A1550000AD8B49AEF0DF0A4
:101B3000ADEF0DF01450000AD8B49FEF0CF0010A7D
:101B4000D8B4FDEF0CF0030AD8B40EEF0DF0010A83
:101B5000D8B482EF0DF0ADEF0DF0C4C03AF0C5C0BF
:101B60003BF0C0C0BAF0C1C0BBF01200F30E2E6E45
:101B7000040E2F6EB50E306E3F0E316EB6C01CF0E7
:101B8000B7C01DF0000E1DBEFF0E1E6E1F6E010EB3
:101B9000E1EC0FF01CC02AF01DC02BF01EC02CF091
:101BA0001FC02DF068EC0AF02AC0E0F02BC0E1F075
:101BB0002CC0E2F02DC0E3F06BEC13F0C0C002F1DA
:101BC000C1C003F10101021F031F024B032B0001DF
:101BD000E0510101025F0001E1510101035B0001DD
:101BE000C45101010225066F0001C5510101032105
:101BF000076F23EF0EF007BF07EF0EF0075109E163
:101C00001A0E065DD8A007EF0EF009EF0EF00FEFE9
:101C10000EF0000E076F190E066FACEF0EF007AF57
:101C20001BEF0EF0E70E065DFF0E0759D8B01BEF55
:101C30000EF01DEF0EF044EF0EF0FF0E076FE70EF3
:101C4000066FACEF0EF04C50026F036B0351000AAD
:101C5000D8B42DEF0EF0ACEF0EF00251000AD8B45C
:101C6000FBEF0DF0010AD8B4FBEF0DF0030AD8B476
:101C7000FBEF0DF0070AD8B4FBEF0DF0030AD8B460
:101C8000FBEF0DF0ACEF0EF0ACEF0EF006C11CF068
:101C900007C11DF0020E1E6EBBEC10F0D5EF0EF06A
:101CA00006C11CF007C11DF0030E1E6EBBEC10F048
:101CB000D5EF0EF006C114F007C115F0000E176E37
:101CC000020E166EE3EC16F014C004F115C005F117
:101CD00004C11CF005C11DF0030E1E6EBBEC10F01C
:101CE000D5EF0EF0FF0E1D6EC40E1C6E000E1E6EA4
:101CF000BBEC10F0D5EF0EF0000E1D6E3C0E1C6E0E
:101D0000000E1E6EBBEC10F0D5EF0EF0020E3F1869
:101D1000D8A48DEF0EF08FEF0EF046EF0EF0000E10
:101D20001D6E3C0E1C6E020E1E6EBBEC10F0D5EF4D
:101D30000EF0020E3F18D8A4A0EF0EF0A2EF0EF0A6
:101D400046EF0EF0FF0E1D6EC40E1C6E020E1E6ED0
:101D5000BBEC10F0D5EF0EF04C50026F036B03514B
:101D6000000AD8B4B6EF0EF0D5EF0EF00251000A1B
:101D7000D8B45AEF0EF0010AD8B450EF0EF0030AAF
:101D8000D8B446EF0EF0010AD8B472EF0EF0070A8D
:101D9000D8B47CEF0EF0010AD8B486EF0EF0030A37
:101DA000D8B499EF0EF0D5EF0EF01200000E01013D
:101DB000076F000E066F92EF0FF04B5009E11F0EF8
:101DC0004A5CD8A0E6EF0EF0E8EF0EF0EAEF0EF076
:101DD000010E4C6E0001B3BFF7EF0EF0B35109E1F5
:101DE000650EB25DD8A0F7EF0EF0F9EF0EF016EF2A
:101DF0000FF0B2C006F1B3C007F14B5007E10F0E70
:101E00004A5CD8B006EF0FF008EF0FF00FEF0FF0BD
:101E10000101FC0E0627FF0E0723B7EF0FF00101AB
:101E2000FE0E0627FF0E0723B7EF0FF0000E01018D
:101E3000076F640E066FB7EF0FF04B5007E11E0EF1
:101E40004A5CD8B026EF0FF028EF0FF02AEF0FF022
:101E5000020E4C6E4B5009E1960E4A5CD8A033EF4F
:101E60000FF035EF0FF080EF0FF0000E0001D86F8C
:101E7000800ED96F890EDA6F430EDB6F000E2E6E67
:101E8000000E2F6E000E306E3F0E316E6A0E010195
:101E9000026FFF0E036F4AC004F14BC005F10251FF
:101EA00004270351052304C11CF005C11DF01E6A5F
:101EB0001F6A000EE1EC0FF01CC02AF01DC02BF0D1
:101EC0001EC02CF01FC02DF068EC0AF02AC0D4F020
:101ED0002BC0D5F02CC0D6F02DC0D7F007EC08F001
:101EE000D4C0E0F0D5C0E1F0D6C0E2F0D7C0E3F056
:101EF0006BEC13F0E0C006F1E1C007F1B7EF0FF0B3
:101F0000010E076F130E066FB7EF0FF0FF0E076F8E
:101F1000830E066FB7EF0FF0000E076FC80E066F47
:101F2000B7EF0FF04C50026F036B0351000AD8B4A7
:101F30009CEF0FF0B7EF0FF00251010AD8B41DEF7C
:101F40000FF0030AD8B4DDEF0EF0010AD8B486EF23
:101F50000FF0070AD8B486EF0FF0010AD8B48CEF5F
:101F60000FF0030AD8B48CEF0FF0B7EF0FF00101B8
:101F700007BFC4EF0FF0910E065D010E0759D8A000
:101F8000C4EF0FF0C6EF0FF0CAEF0FF0010E076FAE
:101F9000900E066F07AFD6EF0FF0060E065DFF0E30
:101FA0000759D8B0D6EF0FF0D8EF0FF0DCEF0FF0F5
:101FB000FF0E076F060E066F06C1B2F007C1B3F041
:101FC0001200246E2450D8B4E8EF0FF0EAEF0FF0BF
:101FD0000CEF10F01FBEF1EF0FF0EFEF0FF00CEF72
:101FE00010F01CC020F01DC021F01EC022F01FC048
:101FF00023F0201E211E221E231E202A000E212235
:102000002222232220C026F021C027F022C028F05F
:1020100023C029F014EF10F01CC026F01DC027F0DB
:102020001EC028F01FC029F01C501D101E101F10CC
:10203000D8A41DEF10F01FEF10F029EF10F0000EE4
:102040001C6E000E1D6E000E1E6E000E1F6EBAEF8F
:1020500010F0960E256E33EF10F0252AD890293215
:10206000283227322632000E2614206E000E271446
:10207000216E000E2814226EFE0E2914236E2050AD
:10208000211022102310D8A448EF10F04AEF10F0CE
:102090002DEF10F058EF10F0252A010E2626000E25
:1020A000272228222922D890293228322732263284
:1020B000000E2614206E000E2714216E000E281428
:1020C000226EFF0E2914236E20502110221023109F
:1020D000D8A46DEF10F06FEF10F04CEF10F077EF29
:1020E00010F02506D890263627362836293628BE01
:1020F0007CEF10F07EEF10F086EF10F0020E2560FE
:1021000084EF10F086EF10F071EF10F025B08BEF38
:1021100010F08DEF10F08EEF10F0289ED890253241
:1021200025C020F0216A226A236A20C023F0226A97
:10213000216A206A2050261221502712225028128C
:10214000235029122450D8B4A8EF10F0AAEF10F0B1
:10215000B2EF10F01FBEB1EF10F0AFEF10F0B2EF22
:1021600010F0298E26C01CF027C01DF028C01EF0DC
:1021700029C01FF01200000E246E000E236E0FEF18
:1021800011F01CC021F01DC022F01CC01FF01DC0AA
:1021900020F01F1E201E1F4A202A1FC023F020C02F
:1021A00024F030EF11F01CC021F01DC022F01CC043
:1021B00023F01DC024F030EF11F01CC021F01DC031
:1021C00022F01CC014F01DC015F0FF0E176EFE0E9D
:1021D000166EE3EC16F014C023F015C024F030EFB7
:1021E00011F01CC021F01DC022F0000E246E000E64
:1021F000236E30EF11F0000E226E000E216E1CC017
:1022000023F01DC024F030EF11F0000E226E000EFE
:10221000216E000E246E000E236E30EF11F01E5062
:102220001F6E206A2050000AD8B419EF11F005EF94
:1022300011F01F50000AD8B4C1EF10F0010AD8B451
:10224000D3EF10F0030AD8B4DDEF10F0010AD8B4D0
:10225000F1EF10F0070AD8B4FBEF10F005EF11F022
:1022600022BE3CEF11F0225009E1420E215CD8A0C1
:102270003CEF11F03EEF11F044EF11F0000E226E32
:10228000410E216E56EF11F022AE50EF11F0BF0E4D
:10229000215CFF0E2258D8B050EF11F052EF11F030
:1022A00056EF11F0FF0E226EBF0E216E24BE62EFBC
:1022B00011F0245009E1290E235CD8A062EF11F03F
:1022C00064EF11F06AEF11F0000E246E280E236EF9
:1022D0007CEF11F024AE76EF11F0D80E235CFF0EE8
:1022E0002458D8B076EF11F078EF11F07CEF11F0B0
:1022F000FF0E246ED80E236E600E2124146E010E84
:102300002220156EDEEC1AF0650E2324146E010EE9
:102310002420156EF8EC1AF0120043EC18F022C0DD
:10232000B0F023C0B1F00001B051B25D0101046F03
:102330000001B151B3590101056F0001AE51B05D0B
:102340000101066F0001AF51B1590101076F0A0E7B
:102350002E6ED70E2F6EA30E306E3C0E316E000E19
:10236000176E020E166E06C114F007C115F0E3ECED
:1023700016F004C102F105C103F114500101025F1E
:102380001550035B02C11CF003C11DF0000E1DBE01
:10239000FF0E1E6E1F6E010EE1EC0FF01CC02AF046
:1023A0001DC02BF01EC02CF01FC02DF068EC0AF0F1
:1023B0002AC0E0F02BC0E1F02CC0E2F02DC0E3F029
:1023C0006BEC13F00001E0510101086F0851800A25
:1023D0007A0FD8A0EEEF11F0F0EF11F0F4EF11F05A
:1023E000050E086F00EF12F00851800A850FD8B073
:1023F000FCEF11F0FEEF11F000EF12F0FB0E086F92
:1024000008510001AC27000E010108BFFF0E0001BA
:10241000AD23ADBF15EF12F0BD0EAC5D020EAD5990
:10242000D8A015EF12F017EF12F01DEF12F0020E08
:10243000AD6FBC0EAC6F2FEF12F0ADAF29EF12F005
:10244000700EAC5DFE0EAD59D8B029EF12F02BEF37
:1024500012F02FEF12F0FE0EAD6F700EAC6FACC02D
:1024600018F0ADC019F00DEC16F0B0C0AEF0B1C070
:10247000AFF01200000E1D6E000E1C6E030E1E6EDD
:10248000BBEC10F0000E4C6E000E0001AD6F280E7C
:10249000AC6FACC01CF0ADC01DF0000E1DBEFF0E39
:1024A0001E6E1F6E010EE1EC0FF01CC008F11DC086
:1024B00009F11EC00AF11FC00BF19AEF12F008C11A
:1024C0002AF009C12BF00AC12CF00BC12DF0CD0E62
:1024D0002E6ECC0E2F6E8C0E306E3F0E316E68EC71
:1024E0000AF02AC008F12BC009F12CC00AF12DC056
:1024F0000BF108C1E0F009C1E1F00AC1E2F00BC143
:10250000E3F06BEC13F0E0C0ACF0E1C0ADF0ACC0B8
:1025100018F0ADC019F00DEC16F0B6EC0DF0000E91
:102520000001C66FC651D8B498EF12F09AEF12F0BE
:1025300092EF12F008C12AF009C12BF00AC12CF069
:102540000BC12DF0000E2E6E000E2F6E660E306E3B
:10255000430E316E0DEC15F0D8A0B1EF12F0B3EFD1
:1025600012F05FEF12F0000E0001AD6FE60EAC6FDF
:10257000ACC018F0ADC019F00DEC16F0000E000163
:10258000C66FC5EF12F0B6EC0DF01D0E0001C6656A
:10259000CCEF12F0CEEF12F0C3EF12F0010E4C6E42
:1025A000B6EC0DF01200000E196E000E186E0DEC58
:1025B00016F0000E1D6E000E1C6E030E1E6EBBECA0
:1025C00010F0CBB8E6EF12F0E8EF12F0E1EF12F006
:1025D0000001C651D8B4EFEF12F0F1EF12F0E8EFBE
:1025E00012F0000EC66F45EC1DF0A8C01CF0A9C08B
:1025F0001DF01E6A1F6A000EE1EC0FF01CC02AF0ED
:102600001DC02BF01EC02CF01FC02DF07B0E2E6EB7
:10261000140E2F6E2E0E306E450E316E0DEC15F031
:10262000D8A015EF13F017EF13F0E8EF12F03AEC23
:1026300012F0010E4C6E000E3F6EC4C03AF0C5C0E1
:102640003BF0C0C0BAF0C1C0BBF0000E0001C66FC5
:102650000001C651D8B42FEF13F031EF13F028EF7B
:1026600013F0000EC66FCBBA38EF13F03AEF13F049
:102670004CEF13F0000EB36F000EB26F000EAD6F93
:10268000000EAC6F000E1D6E000E1C6E030E1E6E53
:10269000BBEC10F06AEF13F08DEC18F00009D8B421
:1026A00054EF13F056EF13F05EEF13F0010E2D6EA2
:1026B000100E2E6EA6EC1CF06AEF13F090EC0CF0EE
:1026C0008FEC15F0B6EC0DF0D6EC0EF08DEC11F0B1
:1026D00028EF13F012000001E235E3350101016F2C
:1026E0000151D8A476EF13F078EF13F083EF13F0D5
:1026F000000E0001E06F000EE16F000EE26F000EB1
:10270000E36FF9EF13F0E0C0E4F0E1C0E5F0E2C000
:10271000E6F0E3C0E7F0200E94EF13F00001D8904C
:10272000E733E633E533E433E82E8EEF13F0E4517C
:102730000101006F0001E28FFF0EE017FF0EE117AD
:10274000FF0EE217000EE317960E0101015F01BFB5
:10275000AEEF13F0ACEF13F0C6EF13F00151800AA7
:10276000970FD8B0B6EF13F0B8EF13F0BAEF13F03D
:1027700078EF13F00001D890E333E233E133E03334
:102780000101013FBAEF13F0E0EF13F01F0E0165F6
:10279000CCEF13F0CEEF13F0D8EF13F078EF13F087
:1027A0000001D890E037E137E237E3370101010754
:1027B0000151D8A4DEEF13F0E0EF13F0D0EF13F0E7
:1027C0000051D8B4E6EF13F0E8EF13F0F1EF13F097
:1027D0000001E31FE21FE11FE06D000EE123E22391
:1027E000E323E0C0E0F0E1C0E1F0E2C0E2F0E3C0EA
:1027F000E3F01200600087F0D9FF60008BF0DAFF91
:102800006F007BFFF6FF6F0077FFF7FFF86A0800A5
:10281000F550250AD8A40FEF14F011EF14F064EF6F
:1028200014F0600087F0D9FF60008BF0DAFFDE2A39
:10283000000EDD22000E0001A36F000EA26FA2C0E9
:10284000A6F0A3C0A7F0A469A569600087F0D9FF2E
:1028500060008BF0DAFF6F007BFFF6FF6F0077FF01
:10286000F7FFF86A0800F550250AD8A43AEF14F0EB
:102870003CEF14F055EF14F0600087F0D9FF6000D2
:102880008BF0DAFFDE2A000EDD22000E176E250E19
:10289000166E1FC018F020C019F0F8EC17F0000EEB
:1028A000206E010E1F6E86EF14F0600087F0D9FFD6
:1028B00060008BF0DAFFDE2A000EDD22000E206EB3
:1028C000000E1F6E86EF14F0600087F0D9FF6000E5
:1028D0008BF0DAFF6F007BFFF6FF6F0077FFF7FFEB
:1028E000F86A0800F550166E176A1FC018F020C06D
:1028F00019F0F8EC17F0600087F0D9FF60008BF05A
:10290000DAFFDE2A000EDD224FEF14F01200000E77
:102910001D6E1BBE90EF14F08EEF14F09AEF14F0C2
:102920001B1E1A1E191E186C000E19221A221B22B9
:10293000010E1D6E17BEA1EF14F09FEF14F0ABEF68
:1029400014F0171E161E151E146C000E15221622EA
:102950001722010E1D1A000E1E6E000E1F6E000EB5
:10296000206E000E216E185019101A101B10D8B4CA
:10297000BCEF14F0BEEF14F0F4EF14F0010E1C6E77
:10298000C8EF14F0D890183619361A361B361C2AA0
:102990001BAECDEF14F0CFEF14F0C2EF14F0D890CF
:1029A0001E361F36203621361850145C1950155823
:1029B0001A5016581B501758D8A0E1EF14F0E3EF47
:1029C00014F0ECEF14F01850145E1950155A1A5008
:1029D000165A1B50175A1E80D8901B321A321932C1
:1029E00018321C2ECFEF14F01D50D8B4FAEF14F0AB
:1029F000FCEF14F004EF15F0211E201E1F1E1E6CAC
:102A0000000E1F22202221221EC014F01FC015F02C
:102A100020C016F021C017F01200000E2A14326EEA
:102A2000000E2B14336E800E2C14346E7F0E2D147A
:102A3000356E3250331034103510D8A422EF15F013
:102A400024EF15F02CEF15F0000E2A6E000E2B6E01
:102A5000000E2C6E000E2D6E000E2E14326E000E27
:102A60002F14336E800E3014346E7F0E3114356E99
:102A70003250331034103510D8A441EF15F043EF25
:102A800015F04BEF15F0000E2E6E000E2F6E000E9F
:102A9000306E000E316E2DAE50EF15F052EF15F086
:102AA0005BEF15F02A6C2B1ED8B02B2A2C1ED8B049
:102AB0002C2A800E2D5631AE60EF15F062EF15F026
:102AC0006BEF15F02E6C2F1ED8B02F2A301ED8B009
:102AD000302A800E3156000E2A1A000E2B1A000ED4
:102AE0002C1A800E2D1A000E2E1A000E2F1A000E10
:102AF000301A800E311A2E502A5C2F502B5830502D
:102B00002C5831502D58D8B088EF15F08AEF15F0B9
:102B10008DEF15F0D8908EEF15F0D88012004B5045
:102B200007E10F0E4A5CD8B098EF15F09AEF15F058
:102B30009FEF15F00001BC4BBD2BB6EF15F0030E57
:102B40004C18D8B4A6EF15F0A8EF15F0B6EF15F0B5
:102B5000040E4C18D8B4AFEF15F0B1EF15F0B6EF86
:102B600015F0000E0001BD6F000EBC6F0001BD51DD
:102B700009E1330EBC5DD8A0C0EF15F0C2EF15F02F
:102B80000CEF16F0AA4BAB2B030E4C18D8B4CBEFBE
:102B900015F0CDEF15F0E7EF15F0040E4C18D8B492
:102BA000D4EF15F0D6EF15F0E7EF15F0C451C05D86
:102BB000C551C159D8B0DFEF15F0E1EF15F0E5EFE1
:102BC00015F0030E4C6EE7EF15F0040E4C6E4B50F3
:102BD00007E1240E4A5CD8B0F0EF15F0F2EF15F0E3
:102BE00002EF16F0ABBFFEEF15F02D0EAA5D010E41
:102BF000AB59D8A0FEEF15F000EF16F00CEF16F071
:102C000002EF16F0010E4C6E000EBD6F000EBC6F91
:102C1000000EAB6F000EAA6F120019BE19EF16F06E
:102C2000195009E1280E185CD8A019EF16F01BEF17
:102C300016F03BEF16F019BE27EF16F0BD0E185C2C
:102C4000020E1958D8A027EF16F029EF16F02DEF35
:102C500016F0020E196EBC0E186E18C014F019C0D2
:102C600015F02CEC1BF0000E156E000E146E12EC1D
:102C70001BF07DEF16F019AE47EF16F0D90E185C79
:102C8000FF0E1958D8B047EF16F049EF16F071EF64
:102C900016F019AE55EF16F0700E185CFE0E1958AE
:102CA000D8B055EF16F057EF16F05BEF16F0FE0EAA
:102CB000196E700E186E000E156E000E146E2CEC50
:102CC0001BF018C01AF019C01BF01A1E1B1E1A4A5E
:102CD0001B2A1AC014F01BC015F012EC1BF07DEF7C
:102CE00016F0000E156E000E146E2CEC1BF0000E8C
:102CF000156E000E146E12EC1BF01200000EBE6E6C
:102D0000000EBD6E240EBA6E000EBB6E000EBC6EC1
:102D1000070EC66EC00EC26EF70EC36EC468C568DD
:102D20001F0E3A01706F6069C00E506F070E806F02
:102D30007F0E406F000E716F000E816F000E516F9D
:102D4000000E416F000E616F000E5A6F000E5B6F38
:102D5000000E6A6F000E6B6F000E7A6F000E7B6FB5
:102D6000000E826F000E426F000E526F000E626FF7
:102D7000000E726F4369536963697369070E836F4D
:102D800044695469646974690F0E846F1F0ECF6FB4
:102D9000090EDC6F0E0E016F0A0EE56F0D0E006F4F
:102DA0001D0EC96F100E046F070ED96F090ED16F7B
:102DB0000F0E036F130E0B6F080EDB6F080ED26F32
:102DC0001E0ED06F1200000E196E17BEECEF16F03B
:102DD000EAEF16F0F2EF16F0166C171ED8B0172AAD
:102DE000010E196E15BEF9EF16F0F7EF16F0FFEFB2
:102DF00016F0146C151ED8B0152A010E191A000E03
:102E00001B6E000E1A6E16501710D8B40AEF17F08A
:102E10000CEF17F034EF17F0010E186E14EF17F0E7
:102E2000D89016361736182A17AE19EF17F01BEF81
:102E300017F010EF17F0D8901A361B361650145CA6
:102E400017501558D8A027EF17F029EF17F02EEFDD
:102E500017F01650145E1750155A1A80D890173272
:102E60001632182E1BEF17F01950D8B43AEF17F09E
:102E70003CEF17F040EF17F01A6C1B1ED8B01B2A5E
:102E80001AC014F01BC015F01200800E4324D96E36
:102E9000DA6A000EDA22000EDF6E3D01F9A753EF69
:102EA00017F055EF17F069EF17F0800E4324D96E35
:102EB000DA6A000EDA220001DF8202D869EF17F029
:102EC0000500FA6EF851FD6EF951FE6EFF6AFA5078
:102ED00012003D01F9A36FEF17F071EF17F085EFC6
:102EE00017F0800E4324D96EDA6A000EDA22000150
:102EF000DF8402D885EF17F00500FA6EF651FD6EFB
:102F0000F751FE6EFF6AFA501200800E4324D96E0C
:102F1000DA6A000EDA22DF50D8B491EF17F093EF9F
:102F200017F0A2EF17F002D8A0EF17F00500FA6E25
:102F30000001F451FD6EF551FE6EFF6AFA50120069
:102F4000A4EF17F066EC1CF01200390193978A0E7B
:102F5000146E2E0E156E5EEC1DF0390193994E0E17
:102F6000146E340E156E59EC1DF0000E3D01EC6F21
:102F7000000EED6F000EEE6F000EEF6F000EF06FA3
:102F8000000EF16FB00EF26F800EF36F000EF46F53
:102F90008A0EF56F000EF66F000EF76F000EF86FD9
:102FA000000EF96F000EFA6F1A0E146E3B0E156EBE
:102FB00068EC1DF0180E146E3B0E156E63EC1DF0E0
:102FC0000C0E146E3B0E156E6DEC1DF0000E406E77
:102FD000000E456E000E446E080E0001FE6F000EDE
:102FE000436E000E426E000E416E3901938712004F
:102FF00018501910D8B4FFEF17F001EF18F00AEFCE
:1030000018F018501910D8A408EF18F00AEF18F0AB
:103010000FEF18F0165054EC1DF042EF18F020EEB0
:1030200004F01850D9261950DA22DE50DE10D8B438
:103030001CEF18F01EEF18F039EF18F020EE04F036
:103040001850D9261950DA2210EE02F01850E12655
:103050001950E222DE50E65CE650800A1E6EDE5019
:10306000800A1E58D8B037EF18F039EF18F042EF49
:1030700018F020EE02F01850D9261950DA22DE2A74
:10308000000EDD221200000E256E000E246E46504A
:10309000471048104910D8B450EF18F052EF18F00C
:1030A00088EF18F03C0160AB58EF18F05AEF18F0B9
:1030B00072EF18F0200E146EA10E156E070E166E2C
:1030C000000E176E46C018F047C019F048C01AF03D
:1030D00049C01BF087EC14F014C024F015C025F093
:1030E00088EF18F0E00E146E5E0E156EF80E166E78
:1030F000FF0E176E46C018F047C019F048C01AF00E
:1031000049C01BF087EC14F014C024F015C025F062
:1031100024C022F025C023F012000001B84BB92BC7
:10312000F50EB85D010EB959D8A099EF18F09BEFD4
:1031300018F0D3EF18F0000EB96F000EB86F45EC21
:103140001DF0A8C01CF0A9C01DF01E6A1F6A000E69
:10315000E1EC0FF01CC02AF01DC02BF01EC02CF0BB
:103160001FC02DF07B0E2E6E140E2F6E2E0E306EA5
:10317000450E316E0DEC15F0D8B0C1EF18F0C3EF6D
:1031800018F0D3EF18F0000E0001B36F000EB26F0D
:10319000000E1D6E000E1C6E030E1E6EBBEC10F0BA
:1031A000010ED4EF18F0000E120027C02BF028C03B
:1031B0002CF0000E0001A16F000EA06FF3EF18F0CD
:1031C00025C01FF026C020F02B0E216E000E226EAF
:1031D00029C023F02AC024F0FAEC13F01F5000019C
:1031E000A0272050A1236000AFF0F6FF6000B3F0ED
:1031F000F7FFF86A0800F5500009D8A402EF19F0AB
:1032000004EF19F0E0EF18F0A0C025F0A1C026F0FF
:103210001200146E0001FE51D8B411EF19F013EF33
:1032200019F00AEF19F0390193B919EF19F01BEFF2
:1032300019F020EF19F0600053F0EAFD37EF19F0B4
:103240009399900E4524D96EDA6A000EDA22600056
:1032500053F0DFFF452A070E456431EF19F033EFD5
:1032600019F035EF19F0000E456E0001FE07390127
:1032700093891200000E3E01DE6F000EDF6F000E1C
:10328000E06F000EE16F000EE46F000EE56F000EC0
:10329000EA6F000EEC6F000EF16F580EF36F020E26
:1032A000F46F000EF56F000EF66F000EF76F000E54
:1032B000F96F000EFA6F000EFB6F000EFC6F000E30
:1032C000FD6F000EFE6F1F0EFF6F840EF86F120071
:1032D0003901A19F3F01185100019C6F3F01195115
:1032E00000019D6F3F011A5100019E6F9F6B3C01D1
:1032F00060AB7DEF19F07FEF19F088EF19F0010E48
:1033000000019827000E99239A239B2391EF19F02F
:10331000FF0E00019827FF0E9923FF0E9A23FF0E40
:103320009B231100D28A000ED2BE010E146ED29ED3
:10333000550ED46EAA0ED46ED490000ED76E000E29
:10334000D66E080ED56E550ED46EAA0ED46ED480ED
:1033500014B002D0D29E01D0D28E390183998397C6
:10336000818F818B818D8A81888F879189831200DB
:1033700092EC19F0B9EC1CF07EEC16F039EC1DF073
:103380000CEC1CF03AEC19F03AEC1CF0ADEC1BF034
:1033900009EC1DF0EDEC1CF021EC1DF0F5EC1BF040
:1033A00050EC1CF0A5EC1AF02DEC1DF0DDEC19F042
:1033B00015EC1DF0A5EC17F01200C00E9B6E000E70
:1033C0009C6E050E9D6E000E996E000E986E390172
:1033D000A89D98506F0064FE16F0176A16C017F08B
:1033E000166A16100001EE6F1750EF6F3901A89F93
:1033F000988FF60E146E390E156E72EC1DF0030EDA
:103400009A6E12003901A19D3F011551466E165169
:10341000476E1751486E496A3C0160AB12EF1AF0D3
:1034200014EF1AF01DEF1AF0010E00019827000E9C
:1034300099239A239B2326EF1AF0FF0E0001982769
:10344000FF0E9923FF0E9A23FF0E9B231100080EF7
:103450000001FE612EEF1AF030EF1AF048EF1AF07B
:10346000900E4424D96EDA6A000EDA22DF503D0154
:10347000EA6F442A070E446440EF1AF042EF1AF054
:1034800044EF1AF0000E446E0001FE2B4AEF1AF0D2
:10349000390193991200220EF66E3B0EF76E000E64
:1034A000F86E09006F00D4FF4CF000EE60F0670E7C
:1034B000EE6AE806FDE100EE3AF0120EEE6AE8066A
:1034C000FDE1080ED56E000ED66E000ED76E00011F
:1034D000DDEF1CF06F0060FF11F00001FA51FB11ED
:1034E000D8B475EF1AF077EF1AF083EF1AF002D81C
:1034F00083EF1AF00500FA6EFA51FD6EFB51FE6E75
:0E350000FF6AFA501200600047F0D8FF110079
:103510006F0060FF12F00001FC51FD11D8B493EF71
:103520001AF095EF1AF0A1EF1AF002D8A1EF1AF0F5
:103530000500FA6EFC51FD6EFD51FE6EFF6AFA50F9
:10354000120060004BF0D8FF1100000EA76E000EB5
:10355000A86E050EA96E000EA56E000EA46E3901B0
:10356000A69DA4506F0094FE14F0156A14C015F0C7
:10357000146A14100001EA6F1550EB6F010EA66E6D
:02358000120037
:103584006F0060FF13F03901A7913C4A3D2A3D507A
:1035940009E10A0E3C5CD8A0D2EF1AF0D4EF1AF07D
:1035A400DAEF1AF023EC1CF0000E3D6E000E3C6EB8
:1035B40060004FF0D8FF110014C016F015C017F0CA
:1035C400D89017321632D890173216321650696EC8
:1035D40014C016F0030E1616060E176ED890163683
:1035E400172EF0EF1AF01650686E120014C016F081
:1035F40015C017F0D89017321632D89017321632F9
:1036040016506D6E14C016F0030E1616060E176EC5
:10361400D8901636172E0AEF1BF016506C6E120057
:1036240014C016F015C017F0D89017321632D8907F
:10363400173216321650616E14C016F0030E1616A9
:10364400060E176ED8901636172E24EF1BF0165060
:10365400606E120014C016F015C017F0D89017321F
:103664001632D890173216321650656E14C016F002
:10367400030E1616060E176ED8901636172E3EEF4A
:103684001BF01650646E12003901A9936F00D0FD2F
:1036940003F06F00D4FD04F003C001F004C002F095
:1036A40002D85FEF1BF00500FA6E0001F251FD6EC7
:1036B400F351FE6EFF6AFA50120011003901AA910B
:1036C4006F00C0FD07F06F00C4FD08F007C005F0EF
:1036D40008C006F002D879EF1BF00500FA6E00016D
:1036E400F051FD6EF151FE6EFF6AFA5012001100A6
:1036F400186E600063F0F1FE3E01F88FF89DF881CA
:10370400F8B187EF1BF089EF1BF082EF1BF0F0514B
:10371400176E166AEF511624146E000E1720156EDC
:02372400120091
:103728003901A89F0001EC51ED11D8B49EEF1BF0B0
:10373800A0EF1BF0ACEF1BF002D8ACEF1BF00500BC
:10374800FA6EEC51FD6EED51FE6EFF6AFA501200F2
:103758001100800E3F011E6F420E1F6F000E206F7A
:10376800040E216F000E236F000E226F010E1D6FD5
:103778001C691B693901918B918F918D3F011F8FB6
:103788001200CDAECAEF1BF0CCEF1BF0D2EF1BF04E
:1037980001C0C2F002C0C3F0DCEF1BF00001C2514F
:1037A800015CC46FC3510258C56FD890C533C43388
:1037B8001200CDACE2EF1BF0E4EF1BF0EAEF1BF0D8
:1037C80005C0BEF006C0BFF0F4EF1BF00001BE510B
:1037D800055CC06FBF510658C16FD890C133C03364
:1037E8001200830E726E000E736E000E716E000E64
:1037F800706EBA0E146E370E156E7CEC1DF03F011C
:103808005E513F0B80095E6F3901AA919A811200BF
:10381800830E766E000E776E000E756E000E746E57
:103828008A0E146E370E156E81EC1DF03F015E5145
:10383800CF0B20095E6F3901A9939983120000010B
:10384800E851E911D8B42BEF1CF02DEF1CF039EF3B
:103858001CF002D839EF1CF00500FA6EE851FD6E35
:10386800E951FE6EFF6AFA5012001200010EA26EB4
:10387800000EA16E000EA36EF90E9F6E000E9E6ED6
:103888003901A79197811C0E146E3B0E156E77ECCB
:103898001DF0E00EA06E1200000E3C01616F030ED9
:1038A800626F020E636F000E646F000E656F020E8A
:1038B800666F080E676F000E686F000E696F850EE1
:1038C800606F1200880E4324D96EDA6A000EDA227D
:1038D8006F00A3F7DFFF432A070E436476EF1CF05F
:1038E80078EF1CF07AEF1CF0000E436E412A1200AC
:1038F8009AA481EF1CF083EF1CF08CEF1CF09A90D7
:103908000A50996E600027F098FF9A8091EF1CF09A
:103918000A50996E600027F098FF12003901A19BA8
:10392800000E466E000E476E000E486E000E496E81
:10393800000E00019C6F000E9D6F000E9E6F000E22
:103948009F6F11002F0E2F6E000E306E000E256E29
:10395800000E266E2DC027F02EC028F02F0E296EDF
:10396800000E2A6ED5EC18F01200000E3901C06F57
:10397800000EC16F000EC26F000EC36F000EC46F41
:10398800000EC56F000EC66F000EC76F12009A8238
:103998006F0060FE10F06F0064FE0FF00F500B6EAA
:1039A80010500D6E0BC00EF00DC009F00EC00AF0DD
:1039B8001200B8EC19F0D28ED28C120E146E3B0E97
:1039C800156E77EC1DF0D3EC12F0E7EF1CF057EF13
:1039D80000F0050EAE6E000EAD6E000EAF6EAB6859
:1039E800000EAA6E3901A495B00EAC6E1200CBEC95
:1039F8001CF009C04AF00AC04BF0D8904B324A324A
:103A08004DEC1DF03901A89F1200800E626E000E69
:103A1800616E000E606E3F015F513F0B80095F6F62
:103A28001200800E666E000E656E000E646E3F0119
:103A38005F51CF0B20095F6F1200800E6A6E590E1E
:103A4800696E400E686E3F015F51F30B04095F6FAA
:103A58001200800E6E6E590E6D6E400E6C6E3F0138
:103A68005F51FC0B01095F6F1200600E3901D96FBD
:103A7800000EDB6F000EDD6F080EDF6F000EDE6FCD
:103A88001200220E7AEC1BF014C0A8F015C0A9F0A1
:103A98001200EEC009F0EFC00AF07CEC1CF0120036
:103AA800156E155009EC19F0120014C0FAF015C083
:103AB800FBF0120014C0FCF015C0FDF0120014C099
:103AC800F6F015C0F7F0120014C0F8F015C0F9F0C0
:103AD800120014C0F4F015C0F5F0120014C0ECF098
:103AE80015C0EDF0120014C0E8F015C0E9F012009E
:103AF80014C0F0F015C0F1F0120014C0F2F015C0B7
:103B0800F3F0120066EC1CF012000001C62B120044
:063B180012001200120071
:033B200011000190
:020000040020DA
:10000000FF0FFF0FFF0FFF0FFF0FFF0FFF0FFF0F80
:020000040030CA
:0A0000008CFFFFFF9FFFFFFFFFFFD3
:00000001FF
