:0400000057EF00F0C6
:10000800CE0CCE0CCE0CCE0CCE0CCE0CCE0CCE0C18
:10001800CE0CCE0CCE0CCE0CCE0C560C3C0B790A6A
:10002800CE0CCE0CCE0CCE0CCE0CCE0CCE0CCE0CF8
:10003800CE0CCE0CCE0CA30A8E0ACE0CCE0CCE0C57
:10004800CE0CCE0CCE0CCE0C2B00CE0CCE0CCE0C87
:10005800CE0CCE0CCE0CCE0CCE0CCE0CCE0CCE0CC8
:10006800CE0CCE0CCE0CCE0CCE0CCE0CCE0CCE0CB8
:10007800B70ACE0C2B00CE0CCE0CCE0C2B002B00CE
:100088002B002B002B002B002B002B00CE0C290B58
:10009800CE0CDE0ACE0CCE0C2B002B002B002B0036
:0A00A800F10ACE0CFF00F9EF13F08F
:101000000042566F6C743A2025640A006D61696E67
:031010000A0000D3
:1010140000017951800B826F79517925886F78AFFF
:1010240016EF08F018EF08F019EF08F088818851DE
:10103400D8B41FEF08F021EF08F034EF08F0882946
:10104400D8A427EF08F029EF08F031EF08F0000EDC
:10105400766F000E776F000E786F000E796F788FC1
:101064003CEF08F0000E766F000E776F000E786F7D
:10107400000E796F7D51800B821B7D517D25836F1E
:101084007CAF47EF08F049EF08F04AEF08F083819E
:101094008351D8B450EF08F052EF08F065EF08F030
:1010A4008329D8A458EF08F05AEF08F062EF08F04B
:1010B400000E7A6F000E7B6F000E7C6F000E7D6F4A
:1010C4007C8F6DEF08F0000E7A6F000E7B6F000EC0
:1010D4007C6F000E7D6F8351D8B473EF08F075EF09
:1010E40008F07DEF08F08851D8A47BEF08F07DEF7D
:1010F40008F087EF08F0000E766F000E776F000E91
:10110400786F000E796F31EF0AF07C5176036F002F
:10111400CCFF8DF06F00D0FF8EF08D51846F856B06
:10112400866B876B8E51896F8A6B8B6B8C6B7B5153
:1011340077036F00CCFF8DF06F00D0FF8EF08D51E0
:101144008427000E8523862387238E518927000E4A
:101154008A238B238C237A5178036F00CCFF8DF084
:101164006F00D0FF8EF08D518427000E85238623D7
:1011740087238E518927000E8A238B238C2386C0D4
:1011840087F085C086F084C085F0846B7A5177033C
:101194006F00CCFF8DF06F00D0FF8EF08D5184274F
:1011A4008E518523000E8623000E87237B51760300
:1011B4006F00CCFF8DF06F00D0FF8EF08D5184272F
:1011C4008E518523000E8623000E872386C087F068
:1011D40085C086F084C085F0846B7A5176036F00F5
:1011E400CCFF8DF06F00D0FF8EF08D5184278E518F
:1011F4008523000E8623000E87237C5177036F001E
:10120400CCFF8DF06F00D0FF8EF08D5189278E5169
:101214008A23000E8B23000E8C237B5178036F00EE
:10122400CCFF8DF06F00D0FF8EF08D5189278E5149
:101234008A23000E8B23000E8C237C5178036F00CD
:10124400CCFF8DF06F00D0FF8EF08D517E6F8E51EC
:101254007F6F806B816B80C081F07FC080F07EC027
:101264007FF07E6B7E5189277F518A2380518B23A7
:1012740081518C2384C07EF085C07FF086C080F0CD
:1012840087C081F0190E4CEF09F0D8908133803378
:101294007F337E33E82E47EF09F07E5189277F5153
:1012A4008A2380518B2381518C2386C087F085C08B
:1012B40086F084C085F0846B835188C07EF07F6B98
:1012C4007E27000E7F23820E7E258D6FFF0E7F21E9
:1012D4008E6F82EF09F0D89089378A378B378C3735
:1012E40087AF77EF09F079EF09F07AEF09F0898198
:1012F400D89084378537863787378D07D8A08E07EF
:101304008BAF87EF09F089EF09F06DEF09F0000E5C
:10131400836F87AF90EF09F092EF09F0B6EF09F011
:10132400FF0E84157E6FFF0E85157F6FFF0E8615E9
:10133400806F7F0E8715816F7E517F11801181111F
:10134400D8B4A7EF09F0A9EF09F0ADEF09F0010E49
:10135400836FB6EF09F089A1B2EF09F0B4EF09F099
:10136400B6EF09F0A9EF09F08351D8B4BCEF09F046
:10137400BEEF09F0E2EF09F0010E8927000E8A237F
:101384008B238C238CA1C9EF09F0CBEF09F0E2EF9A
:1013940009F089C07EF08AC07FF08BC080F08CC0D9
:1013A40081F08135813380337F337E337EC089F091
:1013B4007FC08AF080C08BF081C08CF08D4B8E2B67
:1013C4008EBFEDEF09F08E5108E18D29D8A0EDEF25
:1013D40009F0EFEF09F0F9EF09F0000E896F000E44
:1013E4008A6F800E8B6F7F0E8C6F27EF0AF08EBF93
:1013F40006EF0AF08E5106E18D05D8B004EF0AF02D
:1014040006EF0AF012EF0AF0000E896F000E8A6FE1
:10141400000E8B6F000E8C6F000E826F27EF0AF0A8
:101424008DC088F0FF0E8917FF0E8A177F0E8B1769
:10143400000E8C1788A121EF0AF023EF0AF024EFA5
:101444000AF08B8FD89088318C6F82518C1389C0AD
:1014540076F08AC077F08BC078F08CC079F01200F7
:101464007CC094F07DC095F07EC096F07FC097F06C
:1014740080C098F081C099F082C09AF083C09BF03C
:1014840000019BBF48EF0AF04BEF0AF0010E4CEF4E
:101494000AF0000E926F936B92519311D8B455EFEA
:1014A4000AF057EF0AF067EF0AF09B1F9A1F991F83
:1014B400981F971F961F951F946D000E95239623D2
:1014C4009723982399239A239B23D5BF6CEF0AF083
:1014D4006EEF0AF06FEF0AF02392D5BF7CEF0AF0AB
:1014E400D55106E1D405D8B07AEF0AF07CEF0AF0C2
:1014F40082EF0AF0000E8F6F010E8E6F86EF0AF0F6
:10150400D4C08EF0D5C08FF0D2C090F0D3C091F08B
:1015140092519311D8A491EF0AF093EF0AF09AEF45
:101524000AF023A498EF0AF09AEF0AF09DEF0AF06C
:101534009007D8A09107000E9D6F1F0E9C6F000EA0
:1015440001011F6F23EF0BF09C07D8A09D07000E2D
:101554009C25D96E010E9D21DA6E94C060F095C071
:1015640061F096C062F097C063F098C064F099C0CF
:1015740065F09AC066F09BC067F00A0E686F000EB3
:10158400696F000E6A6F000E6B6F000E6C6F000EB9
:101594006D6F000E6E6F000E6F6F51EC0FF060C038
:1015A40084F061C085F062C086F063C087F064C0D7
:1015B40088F065C089F066C08AF067C08BF084C08B
:1015C40070F086C071F005EC17F000017051300F17
:1015D400DF6E8E07D8A08F079007D8A0910794C01C
:1015E40060F095C061F096C062F097C063F098C057
:1015F40064F099C065F09AC066F09BC067F00A0E6B
:10160400686F000E696F000E6A6F000E6B6F000E3C
:101614006C6F000E6D6F000E6E6F000E6F6F8CECB2
:101624000EF060C094F061C095F062C096F063C0A3
:1016340097F064C098F065C099F066C09AF067C0EE
:101644009BF000019DBF2FEF0BF09D5108E19C051D
:10165400D8A02FEF0BF031EF0BF061EF0BF09451AA
:10166400951196119711981199119A119B11D8A45B
:101674003EEF0BF040EF0BF0A6EF0AF08FBF4DEFFB
:101684000BF08F5106E18E05D8B04BEF0BF04DEF08
:101694000BF0A6EF0AF091BF58EF0BF0915108E15F
:1016A4009005D8A058EF0BF05AEF0BF061EF0BF058
:1016B40023B25FEF0BF061EF0BF0A6EF0AF092514B
:1016C4009311D8A468EF0BF06AEF0BF071EF0BF0F5
:1016D40023A46FEF0BF071EF0BF090EF0BF09C076E
:1016E400D8A09D0792519311D8A47BEF0BF07DEF06
:1016F4000BF083EF0BF0000E8D6F2B0E8C6F87EFCA
:101704000BF0000E8D6F2D0E8C6F000E9C25D96E84
:10171400010E9D21DA6E600033F2DFFF7AC070F0B3
:101724007BC071F0000E9C25726F010E9D21736FBA
:1017340090C074F091C075F0E7EC11F070C07AF0CD
:1017440071C07BF01200600083F2D9FF600087F261
:10175400DAFF6F007BFFF6FF6F0077FFF7FFF86A91
:101764000800F550250AD8A4BAEF0BF0BCEF0BF033
:1017740088EF0CF0600083F2D9FF600087F2DAFF93
:10178400DE2A000EDD22000E0001D36F000ED26FA0
:10179400D2C023F0D3C024F0D469D569600083F2A9
:1017A400D9FF600087F2DAFF6F007BFFF6FF6F005E
:1017B40077FFF7FFF86A0800F550640AD8B4E5EF3C
:1017C4000BF0E7EF0BF0FEEF0BF0600083F2D9FFB4
:1017D400600087F2DAFF6F007BFFF6FF6F0077FF90
:1017E400F7FFF86A0800F550690AD8A4FCEF0BF07B
:1017F400FEEF0BF048EF0CF0600083F2D9FF6000BD
:1018040087F2DAFFDE2A000EDD2260008BF2D9FFB8
:1018140060008FF2DAFF6F007CFFA4F0020EDE2678
:101824006F007CFFA5F0000EDD22600093F2D9FF6B
:10183400600097F2DAFF6F0078FFA6F06F0074FF84
:10184400A7F0000EA7BFFF0EA86FA96FAA6FAB6F1A
:10185400AC6FAD6F9EC07AF09FC07BF0A6C07CF0E9
:10186400A7C07DF0A8C07EF0A9C07FF0AAC080F018
:10187400ABC081F0ACC082F0ADC083F032EC0AF0B2
:101884007AC09EF07BC09FF0ABEF0CF0600083F257
:10189400D9FF600087F2DAFF6F007BFFF6FF6F006D
:1018A40077FFF7FFF86A0800F550250AD8A45DEF22
:1018B4000CF05FEF0CF079EF0CF0600083F2D9FFCD
:1018C400600087F2DAFFDE2A000EDD22000E616F6F
:1018D400250E606F9EC062F09FC063F0ADEC13F004
:1018E400000E00019F6F010E9E6FABEF0CF06000C5
:1018F40083F2D9FF600087F2DAFFDE2A000EDD22D0
:10190400000E9F6F000E9E6FABEF0CF0600083F231
:10191400D9FF600087F2DAFF6F007BFFF6FF6F00EC
:1019240077FFF7FFF86A0800F5500001606F616BFC
:101934009EC062F09FC063F0ADEC13F0600083F2D0
:10194400D9FF600087F2DAFFDE2A000EDD2272EF93
:101954000CF01200000E0001996F000E9A6F000E39
:101964009B6F3F0E9C6FDCC0DAF0DDC0DBF060ECF7
:1019740013F020C0DCF021C0DDF00001DC51DE5D9D
:101984009D6FDD51DF599E6F99C07AF09AC07BF04C
:101994009BC07CF09CC07DF0000E636F020E626FF2
:1019A400D8C060F0D9C061F04BEC12F09DC097F044
:1019B4009EC098F000016051975F6151985B97C099
:1019C40068F098C069F0000E69BFFF0E6A6F6B6F14
:1019D400010EB0EC0DF068C076F069C077F06AC013
:1019E40078F06BC079F00AEC08F076C08FF077C01D
:1019F40090F078C091F079C092F08BEC10F08FC029
:101A04009FF090C0A0F00001DFBF11EF0DF0DF5197
:101A140008E1DE05D8A011EF0DF013EF0DF027EF6C
:101A24000DF0D7BF21EF0DF0D75107E10A0ED65DB7
:101A3400D8B01FEF0DF021EF0DF058EF0DF0000EB0
:101A4400D76F960ED66F58EF0DF0DFBF2EEF0DF067
:101A54002CEF0DF050EF0DF0D7AF3CEF0DF0F70E7B
:101A6400D65DFF0ED759D8A03AEF0DF03CEF0DF03C
:101A740040EF0DF0000ED76F640ED66F9FC060F07C
:101A8400A0C061F0000E636F020E626F4BEC12F0A7
:101A940060C09FF061C0A0F058EF0DF0000ED76F4A
:101AA400000ED66F000EA06F000E9F6F00019F51B5
:101AB400D627A051D723D7BF69EF0DF02D0ED65DE1
:101AC400010ED759D8A069EF0DF06BEF0DF071EF4F
:101AD4000DF0010ED76F2C0ED66FA5EF0DF0D7AF1A
:101AE4007DEF0DF0380ED65DFF0ED759D8B07DEFDF
:101AF4000DF07FEF0DF085EF0DF0FF0ED76F380E70
:101B0400D66FA5EF0DF0D7BF93EF0DF0D75107E1D6
:101B14000A0ED65DD8B091EF0DF093EF0DF0A5EF5E
:101B24000DF0D7AFA1EF0DF0F70ED65DFF0ED7592C
:101B3400D8A09FEF0DF0A1EF0DF0A5EF0DF0000E72
:101B4400D76F000ED66FD6C062F0D7C063F00FEC2B
:101B540011F09DC0D8F09EC0D9F012000001706F42
:101B640000017051D8B4B9EF0DF0BBEF0DF0DDEF0B
:101B74000DF06BBFC2EF0DF0C0EF0DF0DDEF0DF017
:101B840068C06CF069C06DF06AC06EF06BC06FF035
:101B94006C1F6D1F6E1F6F1F6C2B000E6D236E2349
:101BA4006F236CC072F06DC073F06EC074F06FC0C0
:101BB40075F0E5EF0DF068C072F069C073F06AC0AB
:101BC40074F06BC075F0685169116A116B11D8A477
:101BD400EEEF0DF0F0EF0DF0FAEF0DF0000E686F80
:101BE400000E696F000E6A6F000E6B6F8BEF0EF0C4
:101BF400960E716F04EF0EF0712BD8907533743319
:101C040073337233000E72156C6F000E73156D6FA3
:101C1400000E74156E6FFE0E75156F6F6C516D119D
:101C24006E116F11D8A419EF0EF01BEF0EF0FEEF3A
:101C34000DF029EF0EF0712B010E7227000E7323A5
:101C440074237523D8907533743373337233000E51
:101C540072156C6F000E73156D6F000E74156E6F38
:101C6400FF0E75156F6F6C516D116E116F11D8A445
:101C74003EEF0EF040EF0EF01DEF0EF048EF0EF0C9
:101C84007107D890723773377437753774BF4DEF57
:101C94000EF04FEF0EF057EF0EF0020E716155EF9C
:101CA4000EF057EF0EF042EF0EF071B15CEF0EF054
:101CB4005EEF0EF05FEF0EF0749FD890713371C039
:101CC4006CF06D6B6E6B6F6B6CC06FF06E6B6D6BED
:101CD4006C6B6C5172136D5173136E5174136F519D
:101CE40075137051D8B479EF0EF07BEF0EF083EFDB
:101CF4000EF06BBF82EF0EF080EF0EF083EF0EF06C
:101D0400758F72C068F073C069F074C06AF075C0F2
:101D14006BF01200000E0001716F6FBF96EF0EF0B2
:101D240094EF0EF0A8EF0EF06F1F6E1F6D1F6C1F67
:101D34006B1F6A1F691F686D000E69236A236B237A
:101D44006C236D236E236F23010E716F67BFAFEF9A
:101D54000EF0ADEF0EF0C1EF0EF0671F661F651FAA
:101D6400641F631F621F611F606D000E6123622385
:101D740063236423652366236723010E711B20EE0E
:101D840072F0070EDE6AE806FDE2685169116A1115
:101D94006B116C116D116E116F11D8B4D4EF0EF07C
:101DA400D6EF0EF028EF0FF0010E706FE4EF0EF097
:101DB400D890683769376A376B376C376D376E3749
:101DC4006F37702B6FAFE9EF0EF0EBEF0EF0DAEF39
:101DD4000EF0D89072377337743775377637773794
:101DE400783779376851605D695161596A51625930
:101DF4006B5163596C5164596D5165596E516659F3
:101E04006F516759D8A009EF0FF00BEF0FF01CEFDB
:101E14000FF06851605F6951615B6A51625B6B519D
:101E2400635B6C51645B6D51655B6E51665B6F51B6
:101E3400675B7281D8906F336E336D336C336B3361
:101E44006A3369336833702FEBEF0EF07151D8B4F5
:101E54002EEF0FF030EF0FF040EF0FF0791F781FE7
:101E6400771F761F751F741F731F726D000E732307
:101E740074237523762377237823792372C060F043
:101E840073C061F074C062F075C063F076C064F032
:101E940077C065F078C066F079C067F01200000E74
:101EA400216E000167BF5BEF0FF059EF0FF06DEF8C
:101EB4000FF0671F661F651F641F631F621F611F8A
:101EC400606D000E6123622363236423652366230C
:101ED4006723010E216E6FBF74EF0FF072EF0FF0E6
:101EE40084EF0FF06F1F6E1F6D1F6C1F6B1F6A1F37
:101EF400691F686D000E69236A236B236C236D23AD
:101F04006E236F23685169116A116B116C116D1185
:101F14006E116F11D8B491EF0FF093EF0FF0DBEF68
:101F24000FF0010E206EA1EF0FF0D89068376937DB
:101F34006A376B376C376D376E376F37202A6FAF60
:101F4400A6EF0FF0A8EF0FF097EF0FF06851605D68
:101F5400695161596A5162596B5163596C516459A1
:101F64006D5165596E5166596F516759D8A0BDEFCF
:101F74000FF0BFEF0FF0CFEF0FF06851605F6951C2
:101F8400615B6A51625B6B51635B6C51645B6D5165
:101F9400655B6E51665B6F51675BD8906F336E33D0
:101FA4006D336C336B336A3369336833202EA8EF97
:101FB4000FF02150D8B4E1EF0FF0E3EF0FF0F3EF9F
:101FC4000FF0671F661F651F641F631F621F611F79
:101FD400606D000E612362236323642365236623FB
:101FE400672360C060F061C061F062C062F063C0EA
:101FF40063F064C064F065C065F066C066F067C0F5
:1020040067F01200000E0001696F67BF0EEF10F059
:102014000CEF10F018EF10F0671F661F651F646D5A
:10202400000E652366236723010E696F63BF1FEFEC
:1020340010F01DEF10F029EF10F0631F621F611FF5
:10204400606D000E612362236323010E691B000E81
:102054006A6F000E6B6F000E6C6F000E6D6F645133
:10206400651166116711D8B43AEF10F03CEF10F027
:1020740072EF10F0010E686F46EF10F0D8906437DD
:10208400653766376737682B67AF4BEF10F04DEF56
:1020940010F040EF10F0D8906A376B376C376D371B
:1020A4006451605D65516159665162596751635964
:1020B400D8A05FEF10F061EF10F06AEF10F06451F8
:1020C400605F6551615B6651625B6751635B6A8106
:1020D400D8906733663365336433682F4DEF10F05F
:1020E4006951D8B478EF10F07AEF10F082EF10F065
:1020F4006D1F6C1F6B1F6A6D000E6B236C236D23A9
:102104006AC060F06BC061F06CC062F06DC063F0D7
:102114001200000191359235216E2150D8A495EF1B
:1021240010F097EF10F0A1EF10F0000E8F6F000E7B
:10213400906F000E916F000E926F0EEF11F08FC032
:1021440093F090C094F091C095F092C096F0200E58
:10215400B1EF10F0D8909633953394339333E82E3F
:10216400ACEF10F09351206E918FFF0E8F17FF0E7E
:102174009017FF0E9117000E9217960E215E21BE46
:10218400C8EF10F0C6EF10F0DEEF10F02150800A17
:10219400970FD8B0D0EF10F0D2EF10F0D4EF10F0CA
:1021A40097EF10F0D8909233913390338F33213ED0
:1021B400D4EF10F0F6EF10F01F0E2164E4EF10F0EE
:1021C400E6EF10F0EEEF10F097EF10F0D8908F37A5
:1021D40090379137923721062150D8A4F4EF10F0AC
:1021E400F6EF10F0E8EF10F02050D8B4FCEF10F048
:1021F400FEEF10F006EF11F0921F911F901F8F6DEC
:10220400000E9023912392238FC08FF090C090F002
:1022140091C091F092C092F01200000163BF1CEFD4
:1022240011F0635109E1090E625DD8A01CEF11F0B1
:102234001EEF11F03EEF11F063BF2AEF11F063516E
:1022440009E1650E625DD8A02AEF11F02CEF11F0C0
:1022540030EF11F0000E636F640E626F62C020F005
:1022640063C021F099EC17F0000E216E000E206E71
:102274007EEC17F081EF11F063AF4AEF11F0F80E26
:10228400625DFF0E6359D8B04AEF11F04CEF11F0C4
:1022940075EF11F063AF58EF11F09C0E625DFF0E05
:1022A4006359D8B058EF11F05AEF11F05EEF11F006
:1022B400FF0E636F9C0E626F000E216E000E206E87
:1022C40099EC17F062C064F063C065F00001641F0C
:1022D400651F644B652B64C020F065C021F07EEC63
:1022E40017F081EF11F0000E216E000E206E99ECB4
:1022F40017F0000E216E000E206E7EEC17F0120017
:10230400000EBE6E000EBD6E240EBA6E000EBB6EC5
:10231400000EBC6E070EC66EC00EC26EF70EC36E04
:10232400C468C5681F0E3A01706F6069C00E506FB3
:10233400070E806F7F0E406F000E716F000E816F6D
:10234400000E516F000E416F000E616F000E5A6F48
:10235400000E5B6F000E6A6F000E6B6F000E7A6FDB
:10236400000E7B6F000E826F000E426F000E526FE4
:10237400000E626F000E726F43695369636973697B
:10238400070E836F44695469646974690F0E846F1E
:102394001F0ECF6F090EDC6F0E0E016F0A0EE56F74
:1023A4000D0E006F1D0EC96F100E046F070ED96F4E
:1023B400090ED16F0F0E036F130E0B6F080EDB6F38
:1023C400080ED26F1E0ED06F120023A0ECEF11F096
:1023D400EEEF11F0F8EF11F072C069F073C06AF01B
:1023E40070C06BF071C06CF09DEC16F0000175BF0D
:1023F400FEEF11F000EF12F006EF12F074C078F067
:1024040075C079F00AEF12F0000E796F000E786F44
:10241400000E776F000E766F1DEF12F0000E616FE5
:10242400200E606F70C062F071C063F0ADEC13F009
:102434000001764B772B7851765D7751800A226EB6
:102444007951800A2258D8A02AEF12F02CEF12F00A
:1024540010EF12F023B031EF12F033EF12F03DEF32
:1024640012F072C069F073C06AF070C06BF071C092
:102474006CF09DEC16F072C020F073C021F026ECD5
:1024840017F0000178512024706F79512120716F69
:102494001200000E0001656F63BF55EF12F053EF99
:1024A40012F05BEF12F0626D631FD8B0632B010E64
:1024B400656F61BF62EF12F060EF12F068EF12F027
:1024C400606D611FD8B0612B010E651B000E676F34
:1024D400000E666F62516311D8B473EF12F075EF9A
:1024E40012F09DEF12F0010E646F7DEF12F0D890A0
:1024F40062376337642B63AF82EF12F084EF12F01C
:1025040079EF12F0D890663767376251605D635196
:102514006159D8A090EF12F092EF12F097EF12F0F9
:102524006251605F6351615B6681D890633362334B
:10253400642F84EF12F06551D8B4A3EF12F0A5EF25
:1025440012F0A9EF12F0666D671FD8B0672B66C052
:1025540060F067C061F01200B00E3624D96EDA6AFA
:10256400000EDA22000EDF6E3D01F9A7BCEF12F077
:10257400BEEF12F0D2EF12F0B00E3624D96EDA6A42
:10258400000EDA220001DF8202D8D2EF12F0050039
:10259400FA6EF351FD6EF451FE6EFF6AFA501200AA
:1025A4003D01F9A3D8EF12F0DAEF12F0EEEF12F0DA
:1025B400B00E3624D96EDA6A000EDA220001DF8406
:1025C40002D8EEEF12F00500FA6EF151FD6EF251F1
:1025D400FE6EFF6AFA501200B00E3624D96EDA6A23
:1025E400000EDA22DF50D8B4FAEF12F0FCEF12F04A
:1025F4000BEF13F002D809EF13F00500FA6E000197
:10260400EF51FD6EF051FE6EFF6AFA5012000DEFAD
:1026140013F06BEC18F01200390193975C0E206EE6
:10262400250E216E66EC19F039019399C60E206EC1
:102634002D0E216E61EC19F0000E3D01EC6F000EC1
:10264400ED6F000EEE6F000EEF6F000EF06F000ED8
:10265400F16FB00EF26F800EF36F000EF46F8A0EFE
:10266400F56F000EF66F000EF76F000EF86F000E98
:10267400F96F000EFA6F320E206E330E216E70EC7D
:1026840019F0300E206E330E216E6BEC19F0240E0F
:10269400206E330E216E75EC19F0000E336E000EB1
:1026A400386E000E376E080E3F6E000E366E000E4A
:1026B400356E000E346E390193871200000E00014E
:1026C4006F6F000E6E6F39503A103B103C10D8B447
:1026D4006EEF13F070EF13F0A8EF13F03C0160AB52
:1026E40076EF13F078EF13F091EF13F0200E000162
:1026F400606FA10E616F070E626F000E636F39C0C9
:1027040064F03AC065F03BC066F03CC067F004EC8E
:1027140010F060C06EF061C06FF0A8EF13F0E00E2F
:102724000001606F5E0E616FF80E626FFF0E636FE3
:1027340039C064F03AC065F03BC066F03CC067F055
:1027440004EC10F060C06EF061C06FF06EC020F059
:102754006FC021F01200000162516311D8B4B5EFCB
:1027640013F0B7EF13F0C0EF13F062516311D8A464
:10277400BEEF13F0C0EF13F0C5EF13F060515CEC43
:1027840019F0F8EF13F020EE09F06251D9266351E5
:10279400DA22DE50DE10D8B4D2EF13F0D4EF13F007
:1027A400EFEF13F020EE09F06251D9266351DA22DB
:1027B40010EE03F06251E1266351E222DE50E65C42
:1027C400E650800A686FDE50800A6859D8B0EDEF91
:1027D40013F0EFEF13F0F8EF13F020EE03F0625173
:1027E400D9266351DA22DE2A000EDD2212001C0EE5
:1027F400F66E330EF76E000EF86E00EEF7F010EE84
:1028040008F009006F00D7FFEEFFE550E150F9E151
:102814003A0EF66E330EF76E000EF86E09006F0076
:10282400D4FF40F000EE00F1200EEE6AE806FDE170
:1028340000EEB0F0310EEE6AE806FDE100EE23F0A2
:102844001A0EEE6AE806FDE1080ED56E000ED66E8D
:10285400000ED76E0001E4EF18F022C1AEF023C1E0
:10286400AFF0000E0001D16F000ED06F4DEF14F0E9
:1028740020C19EF021C19FF0AE0EA06F000EA16F8B
:1028840024C1A2F025C1A3F0A5EC0BF000019E51D8
:10289400D0279F51D1236000BBF2F6FF6000BFF246
:1028A400F7FFF86A0800F5500009D8A45CEF14F0AB
:1028B4005EEF14F03AEF14F0D0C020F1D1C021F152
:1028C4001200220E44EC17F020C0E1F021C0E2F027
:1028D4004AEC19F0F00E0001E15D0A0EE259D8A0AD
:1028E40076EF14F078EF14F063EF14F00001E05188
:1028F400D8B47FEF14F081EF14F078EF14F0000EE9
:10290400E06F0C0E0101266F100E276F97EC18F084
:10291400000E0001DF6F960EDE6FACEC0CF0C1EC24
:1029240016F078EF14F01200206E3F50D8B49DEFEB
:1029340014F09FEF14F097EF14F0390193B9A5EF59
:1029440014F0A7EF14F0ACEF14F0600083F0EAFD8C
:10295400C2EF14F09399C00E3824D96EDA6A000ECF
:10296400DA22600083F0DFFF382A070E3864BDEFF7
:1029740014F0BFEF14F0C1EF14F0000E386E3F06F0
:1029840093891200000E3E01DE6F000EDF6F000E11
:10299400E06F000EE16F000EE46F000EE56F000EB5
:1029A400EA6F000EEC6F000EF16F580EF36F020E1B
:1029B400F46F000EF56F000EF66F000EF76F000E49
:1029C400F96F000EFA6F000EFB6F000EFC6F000E25
:1029D400FD6F000EFE6F1F0EFF6F840EF86F120066
:1029E4003901A19F3F0118510001CC6F3F011951DA
:1029F4000001CD6F3F011A510001CE6FCF6B3C0136
:102A040060AB07EF15F009EF15F012EF15F0010EAA
:102A14000001C827000EC923CA23CB231BEF15F0DE
:102A2400FF0E0001C827FF0EC923FF0ECA23FF0EA5
:102A3400CB2311006F0060FF17F06F00E8FF18F060
:102A44006F00ECFF19F00001F551F611D8B42DEF29
:102A540015F02FEF15F03BEF15F002D83BEF15F012
:102A64000500FA6EF551FD6EF651FE6EFF6AFA50DE
:102A74001200600067F0FBFF600063F0FAFF600083
:062A84005FF0D8FF110015
:102A8C006F0060FF1AF06F00E8FF1BF06F00ECFFA7
:102A9C001CF03D503E10D8B456EF15F058EF15F021
:102AAC0064EF15F002D864EF15F00500FA6E3D5096
:102ABC00FD6E3E50FE6EFF6AFA501200600073F01D
:102ACC00FBFF60006FF0FAFF60006BF0D8FF1100A5
:102ADC006F0060FF1DF06F00E8FF1EF06F00ECFF51
:102AEC001FF03901A791274A282A285009E10A0E1C
:102AFC00275CD8A084EF15F086EF15F08CEF15F05D
:102B0C00FAEC17F0000E286E000E276E60007FF0B6
:102B1C00FBFF60007BF0FAFF600077F0D8FF11003C
:102B2C00D28A000ED2BE010E206ED29E550ED46EED
:102B3C00AA0ED46ED490000ED76E000ED66E080E70
:102B4C00D56E550ED46EAA0ED46ED48020B002D0A1
:102B5C00D29E01D0D28E390183998397818F818B3C
:102B6C00818D8A81888F8791898312006F00E8FF9D
:102B7C0003F06F00ECFF04F03901A9936F00D0FD56
:102B8C0005F06F00D4FD06F005C001F006C002F0A0
:102B9C0002D8DBEF15F00500FA6E0001ED51FD6E69
:102BAC00EE51FE6EFF6AFA501200600013F0FBFF4C
:102BBC0060000FF0FAFF11006F00E8FF09F06F00E2
:102BCC00ECFF0AF03901AA916F00C0FD0BF06F0009
:102BDC00C4FD0CF00BC007F00CC008F002D801EFDC
:102BEC0016F00500FA6E0001EB51FD6EEC51FE6E15
:102BFC00FF6AFA50120060002BF0FBFF600027F018
:102C0C00FAFF110096EC15F0C0EC18F082EC11F004
:102C1C003EEC19F0E3EC17F0C4EC14F03FEC18F0B8
:102C2C00B4EC17F00EEC19F0F2EC18F026EC19F0ED
:102C3C00CCEC17F055EC18F062EC17F032EC19F004
:102C4C002DEC16F01AEC19F00EEC13F01200C00E6D
:102C5C009B6E000E9C6E050E9D6E000E996E000E06
:102C6C00986E3901A89D98506F0064FE60F00001C9
:102C7C00616B60C061F0606B6011E96F6151EA6F6C
:102C8C003901A89F988F000E206E320E216E7AECBF
:102C9C0019F0030E9A6E12006F00E8FF15F06F002A
:102CAC00ECFF16F03901A89F0001E751E811D8B4E8
:102CBC0062EF16F064EF16F070EF16F002D870EFBA
:102CCC0016F00500FA6EE751FD6EE851FE6EFF6AD4
:102CDC00FA50120060005BF0FBFF600057F0FAFF47
:022CEC001100D5
:102CF0003901A19D3F011551396E16513A6E175198
:102D00003B6E3C6A3C0160AB88EF16F08AEF16F030
:102D100093EF16F0010E0001C827000EC923CA2345
:102D2000CB239CEF16F0FF0E0001C827FF0EC9232E
:102D3000FF0ECA23FF0ECB231100000E00016F6FA0
:102D4000000E6E6FB0EF16F06DC060F0616B6BC07F
:102D500062F06CC063F0ADEC13F000016E4B6F2BB2
:102D60006E516925D96E6F516A21DA6EDF506D6F31
:102D70006D51D8A4BEEF16F0C0EF16F0A4EF16F018
:102D800012004050206E216A2150000AD8B4CBEFC7
:102D900016F0E2EF16F02050000AD8B4E2EF16F079
:102DA000010AD8B4E2EF16F0030AD8B4E2EF16F045
:102DB000010AD8B4E2EF16F0070AD8B4E2EF16F031
:102DC000E2EF16F01200080E3F60E9EF16F0EBEFAD
:102DD00016F002EF17F0C00E3724D96EDA6A000E33
:102DE000DA22DF503D01EA6F372A070E3764FBEF26
:102DF00016F0FDEF16F0FFEF16F0000E376E3F2ACB
:102E000004EF17F0390193991200000171BF13EF1D
:102E100017F0715106E17005D8B011EF17F013EFFC
:102E200017F021EF17F070C072F071C073F0721FCD
:102E3000731F724B732B72C070F073C071F025EF6B
:102E400017F070C070F071C071F0120020C060F017
:102E500021C061F02EEF17F0204A212A600083F094
:102E6000D9FF600087F0DAFFDF50D8A43AEF17F0FF
:102E70003CEF17F02CEF17F000016051205C206E42
:102E800061512158216E1200226E60008BF0F1FE1C
:102E90003E01F88FF89DF881F8B151EF17F053EF2C
:102EA00017F04CEF17F0F0510001616F606B3E01BD
:102EB000EF5100016025206E3E01000E00016121EE
:102EC000216E1200000EA76E000EA86E050EA96EF0
:102ED000000EA56E000EA46E3901A69DA4506F00D1
:102EE00094FE20F0216A20C021F0206A2010000109
:102EF000E56F2150E66F010EA66E120020C060F053
:102F000021C061F00001D89061336033D890613303
:102F100060336051616E20C060F0030E6017060ED2
:102F2000616FD8906037612F91EF17F06051606E3C
:102F3000120020C060F021C061F00001D890613320
:102F40006033D890613360336051656E20C060F0AB
:102F5000030E6017060E616FD8906037612FACEFDB
:102F600017F06051646E1200800E3F011E6F420E1A
:102F70001F6F000E206F040E216F000E236F000ED6
:102F8000226F010E1D6F1C691B693901918B918F96
:102F9000918D3F011F8F1200830E726E000E736EB3
:102FA000000E716E000E706E500E206E300E216E8F
:102FB00084EC19F03F015E513F0B80095E6F3901CF
:102FC000AA919A811200830E766E000E776E000E23
:102FD000756E000E746E220E206E300E216E89EC1E
:102FE00019F03F015E51CF0B20095E6F3901A993A3
:102FF000998312000001E351E411D8B402EF18F0F4
:1030000004EF18F010EF18F002D810EF18F00500D8
:10301000FA6EE351FD6EE451FE6EFF6AFA50120043
:103020001200CDAE16EF18F018EF18F01EEF18F0E2
:1030300001C02FF002C030F027EF18F02F50015CD4
:10304000316E30500258326ED89032323132120026
:10305000CDAC2DEF18F02FEF18F035EF18F007C0BA
:103060002BF008C02CF03EEF18F02B50075C2D6EB3
:103070002C5008582E6ED8902E322D321200010E90
:10308000A26E000EA16E000EA36EF90E9F6E000ED2
:103090009E6E3901A7919781340E206E330E216EFA
:1030A0007FEC19F0E00EA06E1200000E3C01616F83
:1030B000030E626F020E636F000E646F000E656F89
:1030C000020E666F080E676F000E686F000E696F64
:1030D000850E606F1200B80E3624D96EDA6A000EC3
:1030E000DA226F00A3F7DFFF362A070E36647BEF84
:1030F00018F07DEF18F07FEF18F0000E366E342ACE
:1031000012009AA486EF18F088EF18F091EF18F0EB
:103110009A900E50996E600037F098FF9A8096EF63
:1031200018F00E50996E600037F098FF1200280ECC
:1031300001012A6F010E2B6F000E206F000E216F10
:1031400026C122F127C123F12A0E246F010E256F1B
:063150002FEC14F0120048
:103158003901A19B000E396E000E3A6E000E3B6ECF
:10316800000E3C6E000E0001CC6F000ECD6F000EFD
:10317800CE6F000ECF6F1100000E3901C06F000E28
:10318800C16F000EC26F000EC36F000EC46F000E39
:10319800C56F000EC66F000EC76F12009A826F00CF
:1031A80060FE14F06F0064FE13F013500F6E14509D
:1031B800116E0FC012F011C00DF012C00EF0120007
:1031C80008EC16F0D28ED28C2A0E206E330E216EA9
:1031D8007FEC19F063EC14F057EF00F0050EAE6EBB
:1031E800000EAD6E000EAF6EAB68000EAA6E390110
:1031F800A495B00EAC6E1200D2EC18F00DC029F0F8
:103208000EC02AF0D8902A32293255EC19F039012B
:10321800A89F1200800E626E000E616E000E606E36
:103228003F015F513F0B80095F6F1200800E666E91
:10323800000E656E000E646E3F015F51CF0B2009D2
:103248005F6F1200800E6A6E590E696E400E686ECE
:103258003F015F51F30B04095F6F1200800E6E6E21
:10326800590E6D6E400E6C6E3F015F51FC0B0109EB
:103278005F6F1200600E3901D96F000EDB6F000E10
:10328800DD6F080EDF6F000EDE6F1200010E010108
:10329800266F100E276FFF0E296F286997EC18F01C
:1032A8001200E9C00DF0EAC00EF081EC18F012002F
:1032B800216E215096EC14F0120020C0F5F021C0C8
:1032C800F6F0120020C03DF021C03EF0120020C0F0
:1032D800F1F021C0F2F0120020C0F3F021C0F4F0A8
:1032E800120020C0EFF021C0F0F0120020C0E7F07B
:1032F80021C0E8F0120020C0E3F021C0E4F0120081
:1033080020C0EBF021C0ECF0120020C0EDF021C08D
:10331800EEF012006400960038FF2C016BEC18F0F8
:0E33280012000001E02B120012001200120031
:0333380011000180
:020000040020DA
:10000000FF0FFF0FFF0FFF0FFF0FFF0FFF0FFF0F80
:020000040030CA
:0A0000008CFFFFFF9FFFFFFFFFFFD3
:00000001FF
