:0400000057EF00F0C6
:10000800B418B418B418B418B418B418B418B41888
:10001800B418B418B418B418B4183D188C163F1690
:10002800B418B418B418B418B418B418B418B41868
:10003800B418B418B41810170117B418B418B418B1
:10004800B418B418B418B4182B00B418B418B418E9
:10005800B418B418B418B418B418B418B418B41838
:10006800B418B418B418B418B418B418B418B41828
:10007800E316B4182B00B418B418B4182B002B00CE
:100088002B002B002B002B002B002B00B418CC17B7
:10009800B418A517B418B4182B002B002B002B008C
:0A00A800B217B418FF0091EF2EF01C
:101000000043757276654C656674436F756E743A0D
:101010002025752020207C202020005265736574D7
:10102000204375727665436F756E742120207C2095
:1010300020200043757276655269676874436F7546
:101040006E743A2025750A0073746172416363659A
:101050006C506F7765723A2025640A00526F756E86
:101060006454696D653A2025660A0A0053746F70EE
:1010700020526576657273650A00526576657273F3
:101080006552696774680A00526576657273654CCB
:101090006566740A00494E46004E414E00696E6610
:0910A000006E616E006C66000038
:1010AA00000E0001AA6F000EA96F85C0BBF086C0B2
:1010BA00BCF087C0BDF088C0BEF0BEBF69EF08F0C3
:1010CA0067EF08F07FEF08F0000EAA6F010EA96F14
:1010DA00BBC014F0BCC015F0BDC016F0BEC017F0FE
:1010EA0059EC2EF014C0BBF015C0BCF016C0BDF010
:1010FA0017C0BEF0000E0001C26F000EC16F3AC0E9
:10110A00ADF03BC0AEF0A951AA11D8A48FEF08F0F8
:10111A0091EF08F098EF08F03EA496EF08F098EFE8
:10112A0008F0B2EF08F0A951AA11D8A49FEF08F06D
:10113A00A1EF08F0A7EF08F0000E906F2B0E8F6F4B
:10114A00ABEF08F0000E906F2D0E8F6F8FC03EF13F
:10115A00C14BC22BAD07D8A0AE07BBC014F0BCC0B0
:10116A0015F0BDC016F0BEC017F0E5EC24F014046B
:10117A001510D8A4C3EF08F0C5EF08F01CEF09F06A
:10118A00BF0E00018A6FFF0E8B6F89518C6F8D6BBA
:10119A008A518C278B518D238D510AE11A0E8C5D51
:1011AA00D8A0DAEF08F0DDEF08F0010EDEEF08F064
:1011BA00000E916F926B91519211D8B4E7EF08F03B
:1011CA00E9EF08F0F7EF08F03E0EC125146E010EA4
:1011DA00C221156E950E166E100E176EBCEC2BF012
:1011EA0003EF09F03E0EC125146E010EC221156EE1
:1011FA009D0E166E100E176EBCEC2BF00001FD0E44
:10120A00AD27FF0EAE2383C026F084C027F03E0E22
:10121A00286E010E296EADC02AF0AEC02BF05CEC30
:10122A0028F026C083F027C084F0ABEF0EF0BBC0D5
:10123A0014F0BCC015F0BDC016F0BEC017F0E5EC46
:10124A0024F014501510D8A42DEF09F02FEF09F04F
:10125A0086EF09F0BF0E00018A6FFF0E8B6F89516E
:10126A008C6F8D6B8A518C278B518D238D510AE19E
:10127A001A0E8C5DD8A044EF09F047EF09F0010E71
:10128A0048EF09F0000E936F946B93519411D8B400
:10129A0051EF09F053EF09F061EF09F03E0EC12555
:1012AA00146E010EC221156E990E166E100E176E6F
:1012BA00BCEC2BF06DEF09F03E0EC125146E010E49
:1012CA00C221156EA10E166E100E176EBCEC2BF015
:1012DA000001FD0EAD27FF0EAE2383C026F084C0A9
:1012EA0027F03E0E286E010E296EADC02AF0AEC060
:1012FA002BF05CEC28F026C083F027C084F0ABEF1B
:10130A000EF0000E0001C36F000EC46F800EC56F91
:10131A003F0EC66F000EC06F000EBF6FBBC014F049
:10132A00BCC015F0BDC016F0BEC017F0000E186E96
:10133A00000E196E000E1A6E000E1B6E75EC29F067
:10134A00D8B0AAEF09F0ACEF09F031EF0AF0CBEF11
:10135A0009F0C3C02AF0C4C02BF0C5C02CF0C6C027
:10136A002DF0000E2E6E000E2F6E200E306E410EE6
:10137A00316E01EC14F02AC0C3F02BC0C4F02CC0AB
:10138A00C5F02DC0C6F00001BF4BC02BBBC06DF02D
:10139A00BCC06EF0BDC06FF0BEC070F0000E2E6E05
:1013AA00000E2F6E200E306E410E316EC3C02AF031
:1013BA00C4C02BF0C5C02CF0C6C02DF001EC14F04F
:1013CA002AC071F02BC072F02CC073F02DC074F0DB
:1013DA0062EC24F00001D8B0F5EF09F0F7EF09F05C
:1013EA00AEEF09F017EF0AF0C3C02AF0C4C02BF021
:1013FA00C5C02CF0C6C02DF0000E2E6E000E2F6E4A
:10140A00200E306E410E316E29EC16F02AC0C3F060
:10141A002BC0C4F02CC0C5F02DC0C6F00001BF0718
:10142A00D8A0C007BBC06DF0BCC06EF0BDC06FF0E5
:10143A00BEC070F0C3C071F0C4C072F0C5C073F012
:10144A00C6C074F062EC24F00001D8A02FEF0AF0B5
:10145A0031EF0AF0F9EF09F089C01AF01B6AF1ECD2
:10146A002BF01A500001B06FB0C0AFF0670EB01980
:10147A00D8A442EF0AF044EF0AF06AEF0AF03C50AF
:10148A003D10D8A44BEF0AF04DEF0AF051EF0AF0E5
:10149A00000E3D6E010E3C6E3DBE5EEF0AF03D5001
:1014AA0006E13C04D8B05CEF0AF05EEF0AF064EFA4
:1014BA000AF0000EAC6F060EAB6F73EF0AF03CC079
:1014CA00ABF03DC0ACF073EF0AF03DBE6FEF0AF02F
:1014DA0071EF0AF05EEF0AF064EF0AF0670EB019D6
:1014EA00D8A47AEF0AF07CEF0AF0ABEF0AF0C0AFAB
:1014FA008AEF0AF0FC0EBF5DFF0EC059D8A088EF34
:10150A000AF08AEF0AF0A9EF0AF0FF0E8A6FFF0EBF
:10151A008B6FABC08CF0ACC08DF08A518C278B518D
:10152A008D23BF518C5D8D51800A8E6FC051800A08
:10153A008E59D8A0A3EF0AF0A5EF0AF0A9EF0AF096
:10154A00660EAF6FABEF0AF0650EAF6FABC0A1F0DE
:10155A00ACC0A2F0670EB019D8A4B6EF0AF0B8EF83
:10156A000AF0C8EF0AF0660EAF19D8A4BFEF0AF066
:10157A00C1EF0AF0CAEF0AF0C0BFC8EF0AF0C6EF1F
:10158A000AF0CAEF0AF0A14BA22B660EAF19D8A433
:10159A00D1EF0AF0D3EF0AF0F3EF0AF0C0BFDAEFA7
:1015AA000AF0D8EF0AF0E6EF0AF0000EC36F000E59
:1015BA00C46F800EC56F3F0EC66F000EC06F000E5F
:1015CA00BF6F670EB019D8B4EDEF0AF0EFEF0AF06B
:1015DA00F3EF0AF0BF51A127C051A223000EBA6F40
:1015EA00000EB96FBBC0B1F0BCC0B2F0BDC0B3F061
:1015FA00BEC0B4F0C3C0A3F0C4C0A4F0C5C0A5F077
:10160A00C6C0A6F084EF0BF0B1C02AF0B2C02BF02E
:10161A00B3C02CF0B4C02DF0C3C02EF0C4C02FF05C
:10162A00C5C030F0C6C031F029EC16F02AC036F039
:10163A002BC037F02CC038F02DC039F06AEC19F005
:10164A0036C0B5F037C0B6F038C0B7F039C0B8F018
:10165A00B5C079F0B6C07AF0B7C07BF0B8C07CF0FC
:10166A00DEEC23F079C0A7F07AC0A8F0B1C079F017
:10167A00B2C07AF0B3C07BF0B4C07CF0C3C02EF025
:10168A00C4C02FF0C5C030F0C6C031F0B5C02AF0D2
:10169A00B6C02BF0B7C02CF0B8C02DF001EC14F096
:1016AA002AC07DF02BC07EF02CC07FF02DC080F0C8
:1016BA003DEC2DF079C0B1F07AC0B2F07BC0B3F046
:1016CA007CC0B4F0C3C02AF0C4C02BF0C5C02CF053
:1016DA00C6C02DF0000E2E6E000E2F6E200E306E3C
:1016EA00410E316E29EC16F02AC0C3F02BC0C4F0AB
:1016FA002CC0C5F02DC0C6F00001B94BBA2BA151C0
:10170A00B95DBA51800A8A6FA251800A8A59D8A053
:10171A0091EF0BF093EF0BF009EF0BF0C3C02AF037
:10172A00C4C02BF0C5C02CF0C6C02DF0000E2E6E22
:10173A00000E2F6EA00E306E400E316E01EC14F0CA
:10174A002AC0B5F02BC0B6F02CC0B7F02DC0B8F047
:10175A00B1C06DF0B2C06EF0B3C06FF0B4C070F03B
:10176A00B5C071F0B6C072F0B7C073F0B8C074F00B
:10177A0062EC24F00001D8B0C5EF0BF0C7EF0BF014
:10178A00D1EF0BF0000EB56F000EB66F000EB76FFB
:10179A00000EB86FFAEF0BF0B1C014F0B2C015F03A
:1017AA00B3C016F0B4C017F0B5C018F0B6C019F03F
:1017BA00B7C01AF0B8C01BF075EC29F0D8A0E8EF52
:1017CA000BF0EAEF0BF0FAEF0BF00001A7B1F0EF24
:1017DA000BF0F2EF0BF0FAEF0BF0000EB56F000E04
:1017EA00B66F000EB76F000EB86FBBC06DF0BCC00D
:1017FA006EF0BDC06FF0BEC070F0B5C071F0B6C07B
:10180A0072F0B7C073F0B8C074F0A0EC11F06DC0FC
:10181A00B1F06EC0B2F06FC0B3F070C0B4F0B1C036
:10182A006DF0B2C06EF0B3C06FF0B4C070F0000ECD
:10183A002E6E000E2F6E200E306E410E316EA3C03A
:10184A002AF0A4C02BF0A5C02CF0A6C02DF001EC04
:10185A0014F02AC071F02BC072F02CC073F02DC0A6
:10186A0074F062EC24F00001D8A03EEF0CF040EFD7
:10187A000CF068EF0CF0BF4BC02BA3C02AF0A4C039
:10188A002BF0A5C02CF0A6C02DF0000E2E6E000E77
:10189A002F6E200E306E410E316E01EC14F02AC00C
:1018AA00A3F02BC0A4F02CC0A5F02DC0A6F0660EA4
:1018BA000001AF19D8A464EF0CF066EF0CF068EFE2
:1018CA000CF0A14BA22BA3C0C3F0A4C0C4F0A5C0C6
:1018DA00C5F0A6C0C6F0650EAF19D8B477EF0CF004
:1018EA0079EF0CF07FEF0CF0BFC09FF0C0C0A0F002
:1018FA0083EF0CF0000EA06F000E9F6F000E9E6F1C
:10190A00000E9D6F000E9C6F000E9B6F000EBA6F4B
:10191A00000EB96F7FEF0DF0B1C02AF0B2C02BF004
:10192A00B3C02CF0B4C02DF0C3C02EF0C4C02FF049
:10193A00C5C030F0C6C031F029EC16F02AC036F026
:10194A002BC037F02CC038F02DC039F06AEC19F0F2
:10195A0036C0B5F037C0B6F038C0B7F039C0B8F005
:10196A00B5C079F0B6C07AF0B7C07BF0B8C07CF0E9
:10197A00DEEC23F079C0A7F07AC0A8F03EB8C8EF31
:10198A000CF0CAEF0CF0E8EF0CF00001A751A81117
:10199A00D8A4D2EF0CF0D4EF0CF0E8EF0CF0670EFD
:1019AA00B019D8A4DBEF0CF0DDEF0CF0E8EF0CF087
:1019BA00A0BFE4EF0CF0E2EF0CF0E8EF0CF09B4B69
:1019CA009C2B33EF0DF000019D519E11D8A4F0EF2E
:1019DA000CF0F2EF0CF01CEF0DF0A0BFF9EF0CF0D9
:1019EA00F7EF0CF01CEF0DF03E0EC125D96E010E7B
:1019FA00C221DA6E2E0EDF6EC14BC22BAD07D8A004
:101A0A00AE07000E9E6F010E9D6F1CEF0DF03E0E8D
:101A1A00C125D96E010EC221DA6E300EDF6EC14BBE
:101A2A00C22BAD07D8A0AE079B07D8A09C079B5135
:101A3A009C11D8A423EF0DF025EF0DF00CEF0DF05B
:101A4A003E0EC125D96E010EC221DA6EA751300FA2
:101A5A00DF6EC14BC22BAD07D8A0AE07B1C079F07B
:101A6A00B2C07AF0B3C07BF0B4C07CF0C3C02EF031
:101A7A00C4C02FF0C5C030F0C6C031F0B5C02AF0DE
:101A8A00B6C02BF0B7C02CF0B8C02DF001EC14F0A2
:101A9A002AC07DF02BC07EF02CC07FF02DC080F0D4
:101AAA003DEC2DF079C0B1F07AC0B2F07BC0B3F052
:101ABA007CC0B4F0C3C02AF0C4C02BF0C5C02CF05F
:101ACA00C6C02DF0000E2E6E000E2F6E200E306E48
:101ADA00410E316E29EC16F02AC0C3F02BC0C4F0B7
:101AEA002CC0C5F02DC0C6F000019F07D8A0A007E2
:101AFA00B94BBA2BA151B95DBA51800A8A6FA2516A
:101B0A00800A8A59D8B08CEF0DF08EEF0DF09CEF59
:101B1A000DF0C2BF9AEF0DF0C25109E14B0EC15D43
:101B2A00D8A09AEF0DF09CEF0DF091EF0CF09D51BB
:101B3A009E11D8A4A3EF0DF0A5EF0DF0B6EF0DF0AE
:101B4A003EA8AAEF0DF0ACEF0DF0B6EF0DF03E0E89
:101B5A00C125D96E010EC221DA6E2E0EDF6EC14B7F
:101B6A00C22B3E0EC125D96E010EC221DA6E000EBD
:101B7A00DF6E650EAF19D8A4C5EF0DF0C7EF0DF0F3
:101B8A0099EF0EF0000EBA6F4F0EB96F3E0EB925DF
:101B9A00D96E010EBA21DA6E000EDF6E000EAA6F40
:101BAA00000EA96FC0BFDEEF0DF0DCEF0DF0E6EF1F
:101BBA000DF0000EAA6F010EA96FBF6DC01FD8B03D
:101BCA00C02B000EAC6F020EAB6F17EF0EF0B90709
:101BDA00D8A0BA073E0EB925D96E010EBA21DA6E1F
:101BEA00BFC014F0C0C015F0000E176E0A0E166EB4
:101BFA001DEC29F01450300FDF6EBFC014F0C0C0C6
:101C0A0015F0000E176E0A0E166EFAEC27F014C0C5
:101C1A00BFF015C0C0F00001AB07D8A0AC07AD07F4
:101C2A00D8A0AE07BF51C011D8A41EEF0EF020EF06
:101C3A000EF0ECEF0DF0ACBF2DEF0EF0AC5106E15B
:101C4A00AB05D8B02BEF0EF02DEF0EF0ECEF0DF048
:101C5A00B907D8A0BA07A951AA11D8A437EF0EF02C
:101C6A0039EF0EF03FEF0EF0000E966F2B0E956FC8
:101C7A0043EF0EF0000E966F2D0E956F3E0EB925AE
:101C8A00D96E010EBA21DA6E600057F2DFFFAD0796
:101C9A00D8A0AE07B907D8A0BA07BF0E8A6FFF0E41
:101CAA008B6F89518C6F8D6B8A518C278B518D2349
:101CBA008D510AE11A0E8C5DD8A066EF0EF069EF1D
:101CCA000EF0010E6AEF0EF0000E996F9A6B9951A1
:101CDA009A11D8A473EF0EF075EF0EF07BEF0EF0A9
:101CEA00000E986F650E976F7FEF0EF0000E986FDB
:101CFA00450E976F3E0EB925D96E010EBA21DA6EDE
:101D0A0060005FF2DFFFAD07D8A0AE073E0EC12527
:101D1A00146E010EC221156E3E0EB925166E010E05
:101D2A00BA21176EBCEC2BF083C026F084C027F0D2
:101D3A003E0E286E010E296EADC02AF0AEC02BF001
:101D4A005CEC28F026C083F027C084F01200600003
:101D5A0027F3D9FF60002BF3DAFF6F007BFFF6FF52
:101D6A006F0077FFF7FFF86A0800F550250AD8A434
:101D7A00C1EF0EF0C3EF0EF07DEF11F0600027F314
:101D8A00D9FF60002BF3DAFFDE2A000EDD22000EF7
:101D9A003B6E000E3A6E3AC03EF03BC03FF03C68E4
:101DAA003D68600027F3D9FF60002BF3DAFF6F006C
:101DBA007BFFF6FF6F0077FFF7FFF86A0800F55020
:101DCA001A6E1B6AF1EC2BF01A500001E76FE7510B
:101DDA00D8B4F2EF0EF0F4EF0EF03CEF0FF0600023
:101DEA0027F3D9FF60002BF3DAFF6F0078FFCDF0FD
:101DFA006F0074FFCEF0010ECD27000ECE236000D7
:101E0A0037F3F6FF60003BF3F7FFF86A0800F55076
:101E1A001A6E1B6AF1EC2BF01A500001E86FE851B8
:101E2A00D8B41AEF0FF01CEF0FF03CEF0FF0600080
:101E3A0027F3D9FF60002BF3DAFF6F0078FFCDF0AC
:101E4A006F0074FFCEF0020ECD27000ECE23600085
:101E5A0037F3F6FF60003BF3F7FFF86A0800F55026
:101E6A001A6E1B6AF1EC2BF01A500001E96F600040
:101E7A0027F3D9FF60002BF3DAFF6F007BFFF6FF31
:101E8A006F0077FFF7FFF86A0800F550640AD8B4C4
:101E9A0051EF0FF053EF0FF06AEF0FF0600027F3E6
:101EAA00D9FF60002BF3DAFF6F007BFFF6FF6F00AC
:101EBA0077FFF7FFF86A0800F550690AD8A468EFB7
:101ECA000FF06AEF0FF0B4EF0FF0600027F3D9FFBD
:101EDA0060002BF3DAFFDE2A000EDD2260002FF30A
:101EEA00D9FF600033F3DAFF6F007CFFCDF0020EFA
:101EFA00DE266F007CFFCEF0000EDD22600037F395
:101F0A00D9FF60003BF3DAFF6F0078FFD1F06F0072
:101F1A0074FFD2F0000ED2BFFF0ED36FD46FD56F0D
:101F2A00D66FD76FD86FC7C060F0C8C061F0D1C094
:101F3A0062F0D2C063F0D3C064F0D4C065F0D5C0FB
:101F4A0066F0D6C067F0D7C068F0D8C069F0F7EC81
:101F5A0017F060C0C7F061C0C8F09FEF11F0660EBD
:101F6A00E719D8A4BBEF0FF0BDEF0FF00FEF10F099
:101F7A00600027F3D9FF60002BF3DAFF6F007BFFC5
:101F8A00F6FF6F0077FFF7FFF86A08006F00D4FFCB
:101F9A00EAF0600027F3D9FF60002BF3DAFFDE2AAC
:101FAA00000EDD2260002FF3D9FF600033F3DAFF61
:101FBA006F007CFFCDF0040EDE266F007CFFCEF0B2
:101FCA00000EDD22600037F3D9FF60003BF3DAFF31
:101FDA006F0078FFE3F06F0078FFE4F06F0078FF9E
:101FEA00E5F06F0078FFE6F0C7C083F0C8C084F060
:101FFA00E3C085F0E4C086F0E5C087F0E6C088F06B
:10200A00EAC089F055EC08F083C0C7F084C0C8F074
:10201A009FEF11F0E70E146E000E156EA50E166EE8
:10202A00100E176E000E196E020E186E64EC25F073
:10203A0014501510D8A424EF10F026EF10F0D9EFA1
:10204A0010F0600027F3D9FF60002BF3DAFF6F006E
:10205A0078FFCDF06F0074FFCEF0010E0001CD279E
:10206A00000ECE23600037F3F6FF60003BF3F7FF64
:10207A00F86A08006F00D4FFEAF0BF0ECD6FFF0EBA
:10208A00CE6F600027F3D9FF60002BF3DAFF6F00F1
:10209A007BFFF6FF6F0077FFF7FFF86A0800F5503D
:1020AA00CF6FD06BCD51CF27CE51D023D0510AE17B
:1020BA001A0ECF5DD8A064EF10F067EF10F0010E92
:1020CA0068EF10F0000EE16FE26BE151E211D8B453
:1020DA0071EF10F073EF10F097EF10F060002FF32C
:1020EA00D9FF600033F3DAFF6F007CFFCDF0040EF6
:1020FA00DE266F007CFFCEF0000EDD22600037F393
:10210A00D9FF60003BF3DAFF6F0078FFE3F06F005E
:10211A0078FFE4F06F0078FFE5F06F0078FFE6F0F3
:10212A00B9EF10F060002FF3D9FF600033F3DAFF44
:10213A006F007CFFCDF0040EDE266F007CFFCEF030
:10214A00000EDD22600037F3D9FF60003BF3DAFFAF
:10215A006F0078FFE3F06F0078FFE4F06F0078FF1C
:10216A00E5F06F0078FFE6F0020E600027F3D9FF72
:10217A0060002BF3DAFFDE26000EDD22C7C083F0F3
:10218A00C8C084F0E3C085F0E4C086F0E5C087F0FB
:10219A00E6C088F0EAC089F055EC08F083C0C7F0C1
:1021AA0084C0C8F09FEF11F0600027F3D9FF6000E8
:1021BA002BF3DAFF6F007BFFF6FF6F0077FFF7FF65
:1021CA00F86A0800F550750AD8A4EEEF10F0F0EF9F
:1021DA0010F03CEF11F0600027F3D9FF60002BF3F9
:1021EA00DAFFDE2A000EDD2260002FF3D9FF60003D
:1021FA0033F3DAFF6F007CFFCDF0020EDE266F00AC
:10220A007CFFCEF0000EDD22600037F3D9FF6000BC
:10221A003BF3DAFF6F0078FFCFF06F0074FFD0F066
:10222A00CFC0D9F0D0C0DAF00001DB6BDC6BDD6B1C
:10223A00DE6BDF6BE06BC7C060F0C8C061F0D9C06D
:10224A0062F0DAC063F0DBC064F0DCC065F0DDC0C8
:10225A0066F0DEC067F0DFC068F0E0C069F075ECD8
:10226A001AF060C0C7F061C0C8F09FEF11F06000BB
:10227A0027F3D9FF60002BF3DAFF6F007BFFF6FF2D
:10228A006F0077FFF7FFF86A0800F550250AD8A40F
:10229A0051EF11F053EF11F06DEF11F0600027F3D9
:1022AA00D9FF60002BF3DAFFDE2A000EDD22000ED2
:1022BA00176E250E166EC7C018F0C8C019F06CEC60
:1022CA002AF0000E0001C86F010EC76F9FEF11F0D0
:1022DA00600027F3D9FF60002BF3DAFFDE2A000E35
:1022EA00DD22000E0001C86F000EC76F9FEF11F0CC
:1022FA00600027F3D9FF60002BF3DAFF6F007BFF42
:10230A00F6FF6F0077FFF7FFF86A0800F550166EC0
:10231A00176AC7C018F0C8C019F06CEC2AF0600040
:10232A0027F3D9FF60002BF3DAFFDE2A000EDD2245
:10233A0066EF11F0120000017051800B756F705139
:10234A007025776F6FAFACEF11F0AEEF11F0AFEF12
:10235A0011F077817751D8B4B5EF11F0B7EF11F0DA
:10236A00CCEF11F07729D8A4BDEF11F0BFEF11F02F
:10237A00C7EF11F0000E6D6F000E6E6F000E6F6FDB
:10238A00000E706F6F8F000E706FD4EF11F0000E99
:10239A006D6F000E6E6F000E6F6F000E706F7451CE
:1023AA00800B766F75517619D8B4DEEF11F0E0EF35
:1023BA0011F0E1EF11F0758D74517425766F73AFDA
:1023CA00E9EF11F0EBEF11F0ECEF11F076817651B5
:1023DA00D8B4F2EF11F0F4EF11F009EF12F0762908
:1023EA00D8A4FAEF11F0FCEF11F004EF12F0000E8E
:1023FA00716F000E726F000E736F000E746F738F21
:10240A00000E746F11EF12F0000E716F000E726FF2
:10241A00000E736F000E746F7751765DD8B018EFA7
:10242A0012F01AEF12F041EF12F075AD1FEF12F031
:10243A0021EF12F023EF12F0800E751B77C078F0AF
:10244A0076C077F078C076F06DC078F071C06DF024
:10245A0078C071F06EC078F072C06EF078C072F019
:10246A006FC078F073C06FF078C073F070C078F006
:10247A0074C070F078C074F0000E786F775176C02F
:10248A0036F0376A365E000E375A37BE56EF12F00C
:10249A00375009E11A0E365CD8A056EF12F058EF01
:1024AA0012F08FEF12F06D516E116F117011D8A4E6
:1024BA0061EF12F064EF12F0010E65EF12F0000EF8
:1024CA00786F000E6D6F000E6E6F000E6F6F000E4C
:1024DA00706F76C077F098EF12F078A177EF12F06C
:1024EA0079EF12F07FEF12F0D89078310109786F06
:1024FA0081EF12F0D89078336DA186EF12F088EF51
:10250A0012F089EF12F0788F703570336F336E33B3
:10251A006D33772B7651775DD8A096EF12F098EF4E
:10252A0012F072EF12F075BD9DEF12F09FEF12F0EC
:10253A00DFEF12F07751D8A4A5EF12F0A7EF12F04F
:10254A00B1EF12F0000E6D6F000E6E6F000E6F6F1E
:10255A00000E706F00EF14F071516D2772516E23E7
:10256A0073516F237451702370A1BEEF12F0C0EF44
:10257A0012F06CEF13F078A1C5EF12F0C7EF12F06A
:10258A00CDEF12F0D89078310109786FCFEF12F0C1
:10259A00D89078336DA1D4EF12F0D6EF12F0D7EFBE
:1025AA0012F0788F703570336F336E336D33772B4B
:1025BA006CEF13F071516D5D72516E5973516F5911
:1025CA007051800A366E7451800A3658D8B0F0EFCE
:1025DA0012F0F2EF12F01DEF13F06D51715D366ECD
:1025EA006E517259376E6F517359386E70517459F2
:1025FA00396EFF0E36246D6FFF0E37206E6FFF0E99
:10260A0038206F6FFF0E3920706F800E751B786D42
:10261A007851D8A413EF13F015EF13F025EF13F048
:10262A00010E6D27000E6E236F23702325EF13F022
:10263A0071516D5F72516E5B73516F5B7451705B58
:10264A006D516E116F117011D8A42EEF13F030EF87
:10265A0013F065EF13F07851D8A436EF13F038EF82
:10266A0013F065EF13F0000E6D6F000E6E6F000E23
:10267A006F6F000E706F00EF14F0D8906D376E37E1
:10268A006F37703778AF4CEF13F04EEF13F04FEF10
:10269A0013F06D8178A154EF13F056EF13F05AEF4F
:1026AA0013F0D88078375CEF13F0D89078377751E9
:1026BA00D8B462EF13F064EF13F065EF13F0770705
:1026CA006FAF6AEF13F06CEF13F042EF13F0000EE6
:1026DA00766F78AF73EF13F075EF13F08DEF13F099
:1026EA0078C036F07F0E3616D8B47EEF13F080EF3E
:1026FA0013F084EF13F0010E766F8DEF13F06DA1D6
:10270A0089EF13F08BEF13F08DEF13F080EF13F0D6
:10271A007651D8B493EF13F095EF13F0C0EF13F09E
:10272A00010E6D27000E6E236F23702370A1A0EF98
:10273A0013F0A2EF13F0C0EF13F06DC036F06EC0C5
:10274A0037F06FC038F070C039F039343932383266
:10275A003732363236C06DF037C06EF038C06FF09F
:10276A0039C070F07729D8B4BDEF13F0BFEF13F07A
:10277A00C0EF13F0772B7729D8B4C6EF13F0C8EF60
:10278A0013F0D0EF13F07751D8A4CEEF13F0D0EFB7
:10279A0013F0E2EF13F0000E6D6F000E6E6F000E75
:1027AA006F6F000E706F7751D8A4DEEF13F0E0EF71
:1027BA0013F0E2EF13F0000E756F77A1E7EF13F055
:1027CA00E9EF13F0ECEF13F06F8FEDEF13F06F9F5B
:1027DA00D8907731706F75AFF5EF13F0F7EF13F00C
:1027EA00F8EF13F0708F6DC06DF06EC06EF06FC0B1
:1027FA006FF070C070F012002D50800B0001606FF6
:10280A002D502D24666F2CAE0DEF14F00FEF14F03F
:10281A0010EF14F066816651D8B416EF14F018EF71
:10282A0014F02BEF14F06629D8A41EEF14F020EF51
:10283A0014F028EF14F0000E2A6E000E2B6E000E14
:10284A002C6E000E2D6E2C8E33EF14F0000E2A6EB5
:10285A00000E2B6E000E2C6E000E2D6E3150800B6A
:10286A00601B31503124616F30AE3EEF14F040EFFF
:10287A0014F041EF14F061816151D8B447EF14F0BC
:10288A0049EF14F05CEF14F06129D8A44FEF14F06B
:10289A0051EF14F059EF14F0000E2E6E000E2F6E49
:1028AA00000E306E000E316E308E64EF14F0000EA2
:1028BA002E6E000E2F6E000E306E000E316E6151BC
:1028CA00D8B46AEF14F06CEF14F074EF14F0665198
:1028DA00D8A472EF14F074EF14F07EEF14F0000E27
:1028EA002A6E000E2B6E000E2C6E000E2D6E28EF37
:1028FA0016F030502A026F00CCFF6BF06F00D0FF49
:10290A006CF06B51626F636B646B656B6C51676FD4
:10291A00686B696B6A6B2F502B026F00CCFF6BF0F0
:10292A006F00D0FF6CF06B516227000E63236423A3
:10293A0065236C516727000E682369236A232E508A
:10294A002C026F00CCFF6BF06F00D0FF6CF06B5164
:10295A006227000E6323642365236C516727000EE8
:10296A00682369236A2364C065F063C064F062C0A7
:10297A0063F0626B2E502B026F00CCFF6BF06F007E
:10298A00D0FF6CF06B5162276C516323000E6423F5
:10299A00000E65232F502A026F00CCFF6BF06F00E8
:1029AA00D0FF6CF06B5162276C516323000E6423D5
:1029BA00000E652364C065F063C064F062C063F012
:1029CA00626B2E502A026F00CCFF6BF06F00D0FFB3
:1029DA006CF06B5162276C516323000E6423000E66
:1029EA00652330502B026F00CCFF6BF06F00D0FFD5
:1029FA006CF06B5167276C516823000E6923000E37
:102A0A006A232F502C026F00CCFF6BF06F00D0FFAF
:102A1A006CF06B5167276C516823000E6923000E16
:102A2A006A2330502C026F00CCFF6BF06F00D0FF8E
:102A3A006CF06B51326E6C51336E346A356A34C045
:102A4A0035F033C034F032C033F0326A325067277F
:102A5A00335068233450692335506A2362C032F0F8
:102A6A0063C033F064C034F065C035F0190E43EF2B
:102A7A0015F0D8903532343233323232E82E3EEF06
:102A8A0015F0325067273350682334506923355084
:102A9A006A2364C065F063C064F062C063F0626B6D
:102AAA00615166C032F0336A3226000E3322820E3A
:102ABA0032246B6FFF0E33206C6F79EF15F0D890CC
:102ACA006737683769376A3765AF6EEF15F070EFA9
:102ADA0015F071EF15F06781D89062376337643764
:102AEA0065376B07D8A06C0769AF7EEF15F080EFEA
:102AFA0015F064EF15F0000E616F65AF87EF15F002
:102B0A0089EF15F0ADEF15F0FF0E6215326EFF0E6C
:102B1A006315336EFF0E6415346E7F0E6515356EC0
:102B2A003250331034103510D8B49EEF15F0A0EFA0
:102B3A0015F0A4EF15F0010E616FADEF15F067A166
:102B4A00A9EF15F0ABEF15F0ADEF15F0A0EF15F00A
:102B5A006151D8B4B3EF15F0B5EF15F0D9EF15F010
:102B6A00010E6727000E682369236A236AA1C0EF52
:102B7A0015F0C2EF15F0D9EF15F067C032F068C052
:102B8A0033F069C034F06AC035F035343532343246
:102B9A003332323232C067F033C068F034C069F081
:102BAA0035C06AF06B4B6C2B6CBFE4EF15F06C51BF
:102BBA0008E16B29D8A0E4EF15F0E6EF15F0F0EF85
:102BCA0015F0000E676F000E686F800E696F7F0E3A
:102BDA006A6F1EEF16F06CBFFDEF15F06C5106E13F
:102BEA006B05D8B0FBEF15F0FDEF15F009EF16F005
:102BFA00000E676F000E686F000E696F000E6A6F35
:102C0A00000E606F1EEF16F06BC066F0FF0E6717BE
:102C1A00FF0E68177F0E6917000E6A1766A118EF74
:102C2A0016F01AEF16F01BEF16F0698FD89066317E
:102C3A006A6F60516A1367C02AF068C02BF069C0D6
:102C4A002CF06AC02DF012002D50800B0001646F29
:102C5A002D502D246B6F2CAE35EF16F037EF16F092
:102C6A0038EF16F06B816B51D8B43EEF16F040EF97
:102C7A0016F055EF16F06B29D8A446EF16F048EF78
:102C8A0016F050EF16F0000E2A6E000E2B6E000E94
:102C9A002C6E000E2D6E2C8E000E2D6E5DEF16F032
:102CAA00000E2A6E000E2B6E000E2C6E000E2D6E7C
:102CBA003150800B641B315031246C6F30AE68EF99
:102CCA0016F06AEF16F06BEF16F06C816C51D8B4FF
:102CDA0071EF16F073EF16F088EF16F06C29D8A48E
:102CEA0079EF16F07BEF16F083EF16F0000E2E6EDA
:102CFA00000E2F6E000E306E000E316E308E000EFA
:102D0A00316E90EF16F0000E2E6E000E2F6E000E32
:102D1A00306E000E316E2E502F1030103110D8A4A4
:102D2A0099EF16F09BEF16F0B3EF16F0000E2A6E2D
:102D3A00000E2B6E000E2C6E000E2D6E800E2C12C5
:102D4A007F0E2D1264512D122AC02AF02BC02BF0AF
:102D5A002CC02CF02DC02DF0F6EF17F06B51D8A433
:102D6A00B9EF16F0BBEF16F0C5EF16F0000E2A6E9B
:102D7A00000E2B6E000E2C6E000E2D6EF6EF17F065
:102D8A006C516BC032F0336A325E000E335A7F0EDA
:102D9A003224656F000E3320666F2AC060F02BC0A4
:102DAA0061F02CC062F02DC063F0000E2A6E000E96
:102DBA002B6E000E2C6E000E2D6E000E676F000E2D
:102DCA00686F000E696F000E6A6F000E6C6F26EF57
:102DDA0017F06C51D8B4F4EF16F0F6EF16F00DEFC9
:102DEA0017F0D8906037613762376337D8902A3640
:102DFA002B362C362D366AAF05EF17F007EF17F092
:102E0A0008EF17F02A80D8906737683769376A372A
:102E1A002E50605D2F5061593050625931506359BC
:102E2A00D8A01AEF17F01CEF17F025EF17F06A8DEC
:102E3A002E50605F2F50615B3050625B3150635B94
:102E4A006C2B190E6C652CEF17F02EEF17F0EEEFC6
:102E5A0016F06051611162116311D8B437EF17F09F
:102E6A0039EF17F051EF17F0678151EF17F0D8904B
:102E7A002A362B362C362D366AAF46EF17F048EF36
:102E8A0017F049EF17F02A80D89067376837693703
:102E9A006A376507D8A066072CAE56EF17F058EFC9
:102EAA0017F03CEF17F0000E6C6F6AAF5FEF17F088
:102EBA0061EF17F085EF17F0FF0E6715326EFF0E00
:102ECA006815336EFF0E6915346E7F0E6A15356EFE
:102EDA003250331034103510D8B476EF17F078EF3B
:102EEA0017F07CEF17F0010E6C6F85EF17F02AA030
:102EFA0081EF17F083EF17F085EF17F078EF17F0EF
:102F0A006C51D8B48BEF17F08DEF17F0B1EF17F0C3
:102F1A00010E2A26000E2B222C222D222DA098EFFC
:102F2A0017F09AEF17F0B1EF17F02AC032F02BC062
:102F3A0033F02CC034F02DC035F03534353234320C
:102F4A003332323232C02AF033C02BF034C02CF084
:102F5A0035C02DF0654B662B66BFBCEF17F0665186
:102F6A0008E16529D8A0BCEF17F0BEEF17F0C9EF4A
:102F7A0017F0000E666F6569000E2A6E000E2B6E42
:102F8A00000E2C6E000E2D6E66BFD6EF17F066513E
:102F9A0006E16505D8B0D4EF17F0D6EF17F0E4EFE5
:102FAA0017F0000E666F000E656F000E2A6E000E97
:102FBA002B6E000E2C6E000E2D6E000E646F65C017
:102FCA006BF06BA1EBEF17F0EDEF17F0F0EF17F0E6
:102FDA002C8EF1EF17F02C9ED8906B312D6EA7EF47
:102FEA0016F0120062C072F063C073F064C074F02D
:102FFA0065C075F066C076F067C077F068C078F093
:10300A0069C079F0000179BF0DEF18F010EF18F0E0
:10301A00010E11EF18F0000E706F716B7051711183
:10302A00D8B41AEF18F01CEF18F02CEF18F0791F2B
:10303A00781F771F761F751F741F731F726D000E1E
:10304A0073237423752376237723782379233DBE4C
:10305A0031EF18F033EF18F034EF18F03E923DBE1E
:10306A0041EF18F03D5006E13C04D8B03FEF18F0AC
:10307A0041EF18F047EF18F0000E6D6F010E6C6FFC
:10308A004BEF18F03CC06CF03DC06DF03AC06EF0EA
:10309A003BC06FF070517111D8A456EF18F058EF79
:1030AA0018F05FEF18F03EA45DEF18F05FEF18F02C
:1030BA0062EF18F06E07D8A06F07000E7B6F4F0EF5
:1030CA007A6F000E01018D6FE8EF18F07A07D8A029
:1030DA007B073E0E7A25D96E010E7B21DA6E72C00D
:1030EA0014F073C015F074C016F075C017F076C0EE
:1030FA0018F077C019F078C01AF079C01BF00A0EE0
:10310A001C6E000E1D6E000E1E6E000E1F6E000E4F
:10311A00206E000E216E000E226E000E236EC6EC8B
:10312A0020F014C031F015C032F016C033F017C0C9
:10313A0034F018C035F019C036F01AC037F01BC089
:10314A0038F031C026F033C027F0A5EC2DF0265018
:10315A00300FDF6E00016C07D8A06D076E07D8A08C
:10316A006F0772C014F073C015F074C016F075C002
:10317A0017F076C018F077C019F078C01AF079C045
:10318A001BF00A0E1C6E000E1D6E000E1E6E000E47
:10319A001F6E000E206E000E216E000E226E000EB3
:1031AA00236E3EEC1FF014C072F015C073F016C007
:1031BA0074F017C075F018C076F019C077F01AC00D
:1031CA0078F01BC079F000017BBFF4EF18F07B5157
:1031DA0008E17A05D8A0F4EF18F0F6EF18F026EF18
:1031EA0019F07251731174117511761177117811E2
:1031FA007911D8A403EF19F005EF19F06BEF18F065
:10320A006DBF12EF19F06D5106E16C05D8B010EFE1
:10321A0019F012EF19F06BEF18F06FBF1DEF19F0EC
:10322A006F5108E16E05D8A01DEF19F01FEF19F0D4
:10323A0026EF19F03EB224EF19F026EF19F06BEFE2
:10324A0018F070517111D8A42DEF19F02FEF19F061
:10325A0036EF19F03EA434EF19F036EF19F055EFB6
:10326A0019F07A07D8A07B0770517111D8A440EFE2
:10327A0019F042EF19F048EF19F0000E6B6F2B0EA0
:10328A006A6F4CEF19F0000E6B6F2D0E6A6F3E0ECF
:10329A007A25D96E010E7B21DA6E6000ABF1DFFF71
:1032AA0060C026F061C027F03E0E7A25286E010E16
:1032BA007B21296E6EC02AF06FC02BF05CEC28F0DF
:1032CA0026C060F027C061F0120018C179F019C158
:1032DA007AF01AC17BF01BC17CF036C079F037C096
:1032EA007AF038C07BF039C07CF0810E00016D6F36
:1032FA00FF0E6E6F79C06FF07AC070F07BC071F00C
:10330A007CC072F0180E8FEF19F0D89072337133B7
:10331A0070336F33E82E8AEF19F06F516D25776F8E
:10332A00000E6E21786F78BFA4EF19F0785109E189
:10333A00170E775DD8A0A4EF19F0A6EF19F0B0EF39
:10334A0019F036C036F037C037F038C038F039C017
:10335A0039F074EF1AF078BFB5EF19F0B7EF19F03A
:10336A0028EF1AF077C06DF0FF0E6E6FFF0E6F6FC9
:10337A007F0E706F000E716F6D67C6EF19F0CEEF9A
:10338A0019F07135713370336F336E336D2FC1EFAE
:10339A0019F06EC073F06FC074F070C075F071C030
:1033AA0076F00001735179156D6F74517A156E6F4D
:1033BA0075517B156F6F76517C15706F6D516E115B
:1033CA006F117011D8A4ECEF19F0EEEF19F0F0EFCD
:1033DA0019F0A6EF19F079C06DF07AC06EF07BC0D3
:1033EA006FF07CC070F0200E00EF1AF0D8907033A6
:1033FA006F336E336D33E82EFBEF19F06D516E119A
:10340A006F117011D8B40CEF1AF00EEF1AF016EF14
:10341A001AF07351792774517A2375517B237651A7
:10342A007C23731D6D6F741D6E6F751D6F6F761D16
:10343A00706F6D5179176E517A176F517B177051F2
:10344A007C176CEF1AF079C06DF07AC06EF07BC011
:10345A006FF07CC070F0200E38EF1AF0D8907033FD
:10346A006F336E336D33E82E33EF1AF06D516E11F0
:10347A006F117011D8A444EF1AF046EF1AF050EF0A
:10348A001AF0000E796F000E7A6F000E7B6F000E35
:10349A007C6F6CEF1AF0D89079356D6F7A356E6F54
:1034AA007B356F6F7C35706F6D516E116F117011B6
:1034BA00D8B462EF1AF064EF1AF06CEF1AF0000E4B
:1034CA00796F000E7A6F800E7B6FBF0E7C6F79C0AA
:1034DA0036F07AC037F07BC038F07CC039F0120081
:1034EA003DBE7AEF1AF07CEF1AF07DEF1AF03E92A9
:1034FA003DBE8AEF1AF03D5006E13C04D8B088EF91
:10350A001AF08AEF1AF091EF1AF0000E00016B6FB1
:10351A00010E6A6F95EF1AF03CC06AF03DC06BF07D
:10352A003AC06CF03BC06DF062C06EF063C06FF0E1
:10353A0064C070F065C071F066C072F067C073F065
:10354A0068C074F069C075F0000E0001776F4F0E05
:10355A00766F000E01018D6F2AEF1BF07607D8A057
:10356A0077073E0E7625D96E010E7721DA6E6EC088
:10357A0014F06FC015F070C016F071C017F072C069
:10358A0018F073C019F074C01AF075C01BF00A0E57
:10359A001C6E000E1D6E000E1E6E000E1F6E000EBB
:1035AA00206E000E216E000E226E000E236EC7ECF6
:1035BA0026F014C031F015C032F016C033F017C02F
:1035CA0034F018C035F019C036F01AC037F01BC0F5
:1035DA0038F03150300FDF6E00016A07D8A06B0750
:1035EA006C07D8A06D076EC014F06FC015F070C0DC
:1035FA0016F071C017F072C018F073C019F074C0D9
:10360A001AF075C01BF00A0E1C6E000E1D6E000E1D
:10361A001E6E000E1F6E000E206E000E216E000E32
:10362A00226E000E236EDEEC25F014C06EF015C07B
:10363A006FF016C070F017C071F018C072F019C0A0
:10364A0073F01AC074F01BC075F00001765177113F
:10365A00D8B432EF1BF034EF1BF064EF1BF06E515D
:10366A006F11701171117211731174117511D8A43F
:10367A0041EF1BF043EF1BF0B3EF1AF06BBF50EFB3
:10368A001BF06B5106E16A05D8B04EEF1BF050EF04
:10369A001BF0B3EF1AF06DBF5BEF1BF06D5108E141
:1036AA006C05D8A05BEF1BF05DEF1BF064EF1BF01D
:1036BA003EB262EF1BF064EF1BF0B3EF1AF060C08A
:1036CA0026F061C027F03E0E7625286E010E77217E
:1036DA00296E6CC02AF06DC02BF05CEC28F026C075
:1036EA0060F027C061F01200000E0001886F000E22
:1036FA00876F29EF1CF0FE5109E11F0EFD5DD8A06E
:10370A0089EF1BF08BEF1BF08DEF1BF0000EFC6FA7
:10371A00F0BF99EF1BF0F05109E1740EEF5DD8A0EC
:10372A0099EF1BF09BEF1BF04EEF1CF0EFC087F0F8
:10373A00F0C088F0FE5107E10F0EFD5DD8B0A8EF8A
:10374A001BF0AAEF1BF0B0EF1BF0FC0E8727FF0E51
:10375A0088234EEF1CF0FE0E8727FF0E88234EEFBC
:10376A001CF0FE5107E11E0EFD5DD8B0BFEF1BF045
:10377A00C1EF1BF0C3EF1BF0010EFC6FFE5109E114
:10378A00960EFD5DD8A0CCEF1BF0CEEF1BF017EF25
:10379A001CF0000E716F800E726F890E736F430EEC
:1037AA00746F9A0E2E6E990E2F6E590E306E3F0E52
:1037BA00316E6A0E836FFF0E846FFDC085F0FEC006
:1037CA0086F0835185278451862385C01CF086C0E4
:1037DA001DF01E6A1F6A000E64EC1EF01CC02AF05F
:1037EA001DC02BF01EC02CF01FC02DF001EC14F0F0
:1037FA002AC06DF02BC06EF02CC06FF02DC070F097
:10380A00A0EC11F06DC079F06EC07AF06FC07BF059
:10381A0070C07CF0DEEC23F079C087F07AC088F0C3
:10382A004EEF1CF0010E886F130E876F4EEF1CF0DF
:10383A00FF0E886F830E876F4EEF1CF0000E886FA5
:10384A00C80E876F4EEF1CF0FC51836F846B845156
:10385A00000AD8B433EF1CF04EEF1CF08351000A73
:10386A00D8B4B6EF1BF0010AD8B480EF1BF0030AF4
:10387A00D8B41DEF1CF0010AD8B41DEF1CF0070ADA
:10388A00D8B423EF1CF0010AD8B423EF1CF04EEF92
:10389A001CF0000188BF5BEF1CF0910E875D010EE2
:1038AA008859D8A05BEF1CF05DEF1CF061EF1CF0AB
:1038BA00010E886F900E876F88AF6DEF1CF0060EB1
:1038CA00875DFF0E8859D8B06DEF1CF06FEF1CF0C2
:1038DA0073EF1CF0FF0E886F060E876F87C0EFF03C
:1038EA0088C0F0F01200000E00018B6F000E8A6F84
:1038FA00F3EF1CF083C088F084C089F083C086F09F
:10390A0084C087F0861F871F864B872B86C08AF064
:10391A0087C08BF014EF1DF083C088F084C089F053
:10392A0083C08AF084C08BF014EF1DF083C088F046
:10393A0084C089F0000E2E6E000E2F6EA00E306E1F
:10394A003F0E316E83C086F084C087F0861F871FC2
:10395A00864B872B86C01CF087C01DF0000E1DBE4B
:10396A00FF0E1E6E1F6E010E64EC1EF01CC02AF0C4
:10397A001DC02BF01EC02CF01FC02DF029EC16F034
:10398A002AC079F02BC07AF02CC07BF02DC07CF0D5
:10399A00DEEC23F079C08AF07AC08BF014EF1DF0C8
:1039AA0083C088F084C089F0000E8B6F000E8A6F86
:1039BA0014EF1DF0000E896F000E886F83C08AF025
:1039CA0084C08BF014EF1DF0000E896F000E886F13
:1039DA00000E8B6F000E8A6F14EF1DF08551866FF3
:1039EA00876B8751000AD8B4FDEF1CF0E9EF1CF091
:1039FA008651000AD8B47FEF1CF0010AD8B491EFBF
:103A0A001CF0030AD8B49BEF1CF0010AD8B4D5EF16
:103A1A001CF0070AD8B4DFEF1CF0E9EF1CF0000134
:103A2A0089BF21EF1DF0895109E1420E885DD8A0B6
:103A3A0021EF1DF023EF1DF029EF1DF0000E896F15
:103A4A00410E886F3BEF1DF089AF35EF1DF0BF0EB9
:103A5A00885DFF0E8959D8B035EF1DF037EF1DF09C
:103A6A003BEF1DF0FF0E896FBF0E886F8BBF47EFCC
:103A7A001DF08B5109E1290E8A5DD8A047EF1DF090
:103A8A0049EF1DF04FEF1DF0000E8B6F280E8A6F65
:103A9A0061EF1DF08BAF5BEF1DF0D80E8A5DFF0E54
:103AAA008B59D8B05BEF1DF05DEF1DF061EF1DF093
:103ABA00FF0E8B6FD80E8A6F600E8825146E010E6A
:103ACA008921156EE2EC2EF0650E00018A25146E2E
:103ADA00010E8B21156EFCEC2EF012003EEF1EF04B
:103AEA00010136510001F75D166E010137510001DF
:103AFA00F859176E010134510001F55D186E010184
:103B0A0035510001F659196E17BE95EF1DF0175081
:103B1A0009E11F0E165CD8A095EF1DF097EF1DF076
:103B2A00BBEF1DF017BEA5EF1DF02C0E165C010EA3
:103B3A001758D8B0A3EF1DF0A5EF1DF0BBEF1DF08D
:103B4A000101375107E17D0E365DD8B0AFEF1DF0A8
:103B5A00B1EF1DF0BBEF1DF0000E406E010E416E7D
:103B6A00040E0001FC6FFA2B5BEF1EF019BEC7EFC3
:103B7A001DF0195009E11F0E185CD8A0C7EF1DF0FF
:103B8A00C9EF1DF05BEF1EF019BED7EF1DF02C0E2A
:103B9A00185C010E1958D8B0D5EF1DF0D7EF1DF0FB
:103BAA005BEF1EF00101355107E17D0E345DD8B09F
:103BBA00E1EF1DF0E3EF1DF05BEF1EF0000E406E2B
:103BCA00010E416E050E0001FC6FF92B5BEF1EF032
:103BDA000E0E4064F3EF1DF0F5EF1DF0FBEF1DF044
:103BEA00000E406E020E416E5BEF1EF0402A5BEF44
:103BFA001EF0130E406404EF1EF006EF1EF0FBEFFA
:103C0A001DF00001F85109E12D0EF75DD8A010EF63
:103C1A001EF012EF1EF028EF1EF0F65109E12D0EEC
:103C2A00F55DD8A01BEF1EF01DEF1EF028EF1EF069
:103C3A002D0EFD5D010EFE59D8A026EF1EF028EFCD
:103C4A001EF05BEF1EF0000E406E030E416E000E7A
:103C5A00FC6F5BEF1EF04050D8B436EF1EF038EF21
:103C6A001EF0FBEF1DF0000E406E000E416E5BEF82
:103C7A001EF04150146E156A1550000AD8B448EF68
:103C8A001EF05BEF1EF01450000AD8B475EF1DF059
:103C9A00010AD8B4EDEF1DF0030AD8B4FEEF1DF007
:103CAA00010AD8B430EF1EF05BEF1EF0F7C036F110
:103CBA00F8C037F1F5C034F1F6C035F11200246EC0
:103CCA002450D8B46BEF1EF06DEF1EF08FEF1EF08C
:103CDA001FBE74EF1EF072EF1EF08FEF1EF01CC0B5
:103CEA0020F01DC021F01EC022F01FC023F0201EAC
:103CFA00211E221E231E202A000E212222222322D6
:103D0A0020C026F021C027F022C028F023C029F0C5
:103D1A0097EF1EF01CC026F01DC027F01EC028F029
:103D2A001FC029F01C501D101E101F10D8A4A0EF90
:103D3A001EF0A2EF1EF0ACEF1EF0000E1C6E000E7D
:103D4A001D6E000E1E6E000E1F6E3DEF1FF0960ECA
:103D5A00256EB6EF1EF0252AD8902932283227324E
:103D6A002632000E2614206E000E2714216E000E35
:103D7A002814226EFE0E2914236E205021102210C0
:103D8A002310D8A4CBEF1EF0CDEF1EF0B0EF1EF03B
:103D9A00DBEF1EF0252A010E2626000E27222822F6
:103DAA002922D8902932283227322632000E2614A8
:103DBA00206E000E2714216E000E2814226EFF0EAC
:103DCA002914236E2050211022102310D8A4F0EFBA
:103DDA001EF0F2EF1EF0CFEF1EF0FAEF1EF02506EE
:103DEA00D890263627362836293628BEFFEF1EF009
:103DFA0001EF1FF009EF1FF0020E256007EF1FF019
:103E0A0009EF1FF0F4EF1EF025B00EEF1FF010EFD0
:103E1A001FF011EF1FF0289ED890253225C020F000
:103E2A00216A226A236A20C023F0226A216A206A50
:103E3A0020502612215027122250281223502912CC
:103E4A002450D8B42BEF1FF02DEF1FF035EF1FF0E1
:103E5A001FBE34EF1FF032EF1FF035EF1FF0298E2F
:103E6A0026C01CF027C01DF028C01EF029C01FF074
:103E7A001200000E256E23BE47EF1FF045EF1FF01C
:103E8A0059EF1FF0231E221E211E201E1F1E1E1E5A
:103E9A001D1E1C6C000E1D221E221F222022212202
:103EAA0022222322010E256E1BBE60EF1FF05EEF59
:103EBA001FF072EF1FF01B1E1A1E191E181E171E66
:103ECA00161E151E146C000E152216221722182211
:103EDA0019221A221B22010E251A20EE26F0070E9D
:103EEA00DE6AE806FDE21C501D101E101F1020108D
:103EFA00211022102310D8B485EF1FF087EF1FF08E
:103F0A00D9EF1FF0010E246E95EF1FF0D8901C36E2
:103F1A001D361E361F362036213622362336242AEF
:103F2A0023AE9AEF1FF09CEF1FF08BEF1FF0D89093
:103F3A0026362736283629362A362B362C362D367B
:103F4A001C50145C1D5015581E5016581F501758F7
:103F5A00205018582150195822501A5823501B58CB
:103F6A00D8A0BAEF1FF0BCEF1FF0CDEF1FF01C5026
:103F7A00145E1D50155A1E50165A1F50175A2050BB
:103F8A00185A2150195A22501A5A23501B5A26805D
:103F9A00D89023322232213220321F321E321D3271
:103FAA001C32242E9CEF1FF02550D8B4DFEF1FF0EF
:103FBA00E1EF1FF0F1EF1FF02D1E2C1E2B1E2A1E03
:103FCA00291E281E271E266C000E27222822292297
:103FDA002A222B222C222D2226C014F027C015F0CB
:103FEA0028C016F029C017F02AC018F02BC019F003
:103FFA002CC01AF02DC01BF012000001F551F75D1C
:10400A008E6FF651F8598F6F33EF20F08FBF17EF8D
:10401A0020F08F5109E1290E8E5DD8A017EF20F00C
:10402A0019EF20F01FEF20F0000E8F6F280E8E6F11
:10403A00A0EF20F08FAF2BEF20F0D80E8E5DFF0E91
:10404A008F59D8B02BEF20F02DEF20F050EF20F051
:10405A00FF0E8F6FD80E8E6FA0EF20F0FC518C6F81
:10406A008D6B8D51000AD8B43DEF20F0A0EF20F0FF
:10407A008C51000AD8B40BEF20F0010AD8B40BEF28
:10408A0020F0050AD8B40BEF20F0010AD8B40BEFE0
:10409A0020F0A0EF20F0A0EF20F08EC083F08FC0B8
:1040AA0084F0020E856F78EC1CF0C5EF20F08EC00C
:1040BA0083F08FC084F0030E856F78EC1CF0C5EF97
:1040CA0020F0FF0E846FCE0E836F000E856F78ECA2
:1040DA001CF0C5EF20F0000E846F320E836F000EC5
:1040EA00856F78EC1CF0C5EF20F0020E4118D8A4B9
:1040FA0081EF20F083EF20F05CEF20F0000E846F58
:10410A00320E836F020E856F78EC1CF0C5EF20F03B
:10411A00020E4118D8A494EF20F096EF20F05CEF3D
:10412A0020F0FF0E846FCE0E836F020E856F78EC3F
:10413A001CF0C5EF20F0FC518C6F8D6B8D51000A7D
:10414A00D8B4AAEF20F0C5EF20F08C51000AD8B4F9
:10415A005CEF20F0010AD8B452EF20F0030AD8B479
:10416A0066EF20F0010AD8B470EF20F0070AD8B43D
:10417A007AEF20F0010AD8B48DEF20F0C5EF20F0D5
:10418A001200000E256E1BBECFEF20F0CDEF20F0FF
:10419A00E1EF20F01B1E1A1E191E181E171E161EEE
:1041AA00151E146C000E1522162217221822192227
:1041BA001A221B22010E256E23BEE8EF20F0E6EF3D
:1041CA0020F0F8EF20F0231E221E211E201E1F1EA3
:1041DA001E1E1D1E1C6C000E1D221E221F222022C6
:1041EA002122222223221C501D101E101F102010D3
:1041FA00211022102310D8B405EF21F007EF21F087
:10420A004FEF21F0010E246E15EF21F0D8901C36E5
:10421A001D361E361F362036213622362336242AEC
:10422A0023AE1AEF21F01CEF21F00BEF21F01C5006
:10423A00145C1D5015581E5016581F501758205000
:10424A0018582150195822501A5823501B58D8A0D0
:10425A0031EF21F033EF21F043EF21F01C50145ECF
:10426A001D50155A1E50165A1F50175A2050185AC8
:10427A002150195A22501A5A23501B5AD8902332C5
:10428A002232213220321F321E321D321C32242E9B
:10429A001CEF21F02550D8B455EF21F057EF21F04B
:1042AA0067EF21F01B1E1A1E191E181E171E161E56
:1042BA00151E146C000E1522162217221822192216
:1042CA001A221B2214C014F015C015F016C016F0DD
:1042DA0017C017F018C018F019C019F01AC01AF050
:1042EA001BC01BF012000001FE5107E10F0EFD5D1D
:1042FA00D8B082EF21F084EF21F089EF21F001019B
:10430A00384B392BA0EF21F0020EFC19D8B490EFEC
:10431A0021F092EF21F0A0EF21F0030EFC19D8B49E
:10432A0099EF21F09BEF21F0A0EF21F0000E01019F
:10433A00396F000E386F0101395109E1330E385DCA
:10434A00D8A0AAEF21F0ACEF21F01EEF22F02C4BFF
:10435A002D2B020E0001FC19D8B4B6EF21F0B8EFEC
:10436A0021F0E2EF21F0030EFC19D8B4BFEF21F0DF
:10437A00C1EF21F0E2EF21F0F751F55DF851F6595E
:10438A00D8B0CAEF21F0CCEF21F0D8EF21F07A0EA5
:10439A000101AC6F100EAD6F66EC30F0020E000139
:1043AA00FC6FE2EF21F0880E0101AC6F100EAD6FC9
:1043BA0066EC30F0030E0001FC6FFE5107E1240E9B
:1043CA00FD5DD8B0EBEF21F0EDEF21F0FCEF21F02D
:1043DA0001012DBFFAEF21F02D0E2C5D010E2D5992
:1043EA00D8A0FAEF21F0FCEF21F01EEF22F06C0EBC
:1043FA000101AC6F100EAD6F66EC30F00001F751A1
:10440A00F55DF851F659D8B00DEF22F00FEF22F012
:10441A0013EF22F0040EFC6F15EF22F0050EFC6F6D
:10442A00000E0101396F000E386F000E2D6F000E5D
:10443A002C6F1200B7EC2AF022C0EDF023C0EEF088
:10444A000001ED51EF5D856FEE51F059866F010164
:10445A002E510001ED5D876F01012F510001EE59C8
:10446A00886F0A0E2E6ED70E2F6EA30E306E3C0E7C
:10447A00316E000E176E020E166E87C014F088C0D9
:10448A0015F0FAEC27F085C083F086C084F014504A
:10449A000001835F1550845B83C01CF084C01DF04B
:1044AA00000E1DBEFF0E1E6E1F6E010E64EC1EF086
:1044BA001CC02AF01DC02BF01EC02CF01FC02DF00E
:1044CA0001EC14F02AC079F02BC07AF02CC07BF0F2
:1044DA002DC07CF0DEEC23F000017951896F8951FF
:1044EA00800A7C0FD8A07CEF22F07EEF22F082EFC8
:1044FA0022F0030E896F8EEF22F08951800A830F12
:10450A00D8B08AEF22F08CEF22F08EEF22F0FD0E67
:10451A00896F8951EB27000E89BFFF0EEC23ECBF90
:10452A00A0EF22F0BD0EEB5D020EEC59D8A0A0EF71
:10453A0022F0A2EF22F0A8EF22F0020EEC6FBC0EDE
:10454A00EB6FBAEF22F0ECAFB4EF22F0700EEB5D36
:10455A00FE0EEC59D8B0B4EF22F0B6EF22F0BAEF63
:10456A0022F0FE0EEC6F700EEB6FEBC018F0ECC091
:10457A0019F056EC26F0EDC02EF1EEC02FF1120024
:10458A00000E196E000E186E56EC26F0000E000191
:10459A00846F000E836F030E856F78EC1CF0CBB826
:1045AA00D9EF22F0DBEF22F0D4EF22F00001FB5129
:1045BA00D8B4E2EF22F0E4EF22F0DBEF22F0000EB3
:1045CA00FB6F1BEC31F02AC11CF02BC11DF01E6AD7
:1045DA001F6A000E64EC1EF01CC06DF01DC06EF068
:1045EA001EC06FF01FC070F0A40E0001716F700E34
:1045FA00726F3D0E736F450E746F62EC24F000010A
:10460A00D8A00AEF23F00CEF23F0DBEF22F01CEC2A
:10461A002AF0F7C036F1F8C037F1F5C034F1F6C028
:10462A0035F1000E0001FB6F0001FB51D8B420EFF9
:10463A0023F022EF23F019EF23F0000EFB6FCBBA21
:10464A0029EF23F02BEF23F03DEF23F0000EF06F5C
:10465A00000EEF6F000EEC6F000EEB6F000E846F12
:10466A00000E836F030E856F78EC1CF057EF23F072
:10467A0001EC2BF00009D8B445EF23F047EF23F003
:10468A0049EF23F057EF23F073EC1DF078EC21F09B
:10469A0002EC20F079EC1BF01FEC22F02FEC27F053
:1046AA0019EF23F01200000E1D6E1BBE61EF23F0FE
:1046BA005FEF23F06BEF23F01B1E1A1E191E186CF6
:1046CA00000E19221A221B22010E1D6E17BE72EF4E
:1046DA0023F070EF23F07CEF23F0171E161E151E31
:1046EA00146C000E152216221722010E1D1A000E36
:1046FA001E6E000E1F6E000E206E000E216E1850E8
:10470A0019101A101B10D8B48DEF23F08FEF23F075
:10471A00C5EF23F0010E1C6E99EF23F0D8901836DE
:10472A0019361A361B361C2A1BAE9EEF23F0A0EF51
:10473A0023F093EF23F0D8901E361F362036213609
:10474A001850145C195015581A5016581B501758FF
:10475A00D8A0B2EF23F0B4EF23F0BDEF23F0185046
:10476A00145E1950155A1A50165A1B50175A1E80A1
:10477A00D8901B321A32193218321C2EA0EF23F0AD
:10478A001D50D8B4CBEF23F0CDEF23F0D5EF23F0B3
:10479A00211E201E1F1E1E6C000E1F2220222122F7
:1047AA001EC014F01FC015F020C016F021C017F06B
:1047BA00120000017B357C35826F8251D8A4E8EF64
:1047CA0023F0EAEF23F0F4EF23F0000E796F000EE6
:1047DA007A6F000E7B6F000E7C6F61EF24F079C058
:1047EA007DF07AC07EF07BC07FF07CC080F0200E26
:1047FA0004EF24F0D89080337F337E337D33E82E64
:10480A00FFEF23F07D51816F7B8FFF0E7917FF0E2B
:10481A007A17FF0E7B17000E7C17960E825F82BFF7
:10482A001BEF24F019EF24F031EF24F08251800AB3
:10483A00970FD8B023EF24F025EF24F027EF24F0C8
:10484A00EAEF23F0D8907C337B337A337933823F93
:10485A0027EF24F049EF24F01F0E826537EF24F08A
:10486A0039EF24F041EF24F0EAEF23F0D8907937BA
:10487A007A377B377C3782078251D8A447EF24F0F6
:10488A0049EF24F03BEF24F08151D8B44FEF24F0E4
:10489A0051EF24F059EF24F07C1F7B1F7A1F796DAA
:1048AA00000E7A237B237C2379C079F07AC07AF0D0
:1048BA007BC07BF07CC07CF01200000E00016D15FD
:1048CA00366E000E6E15376E800E6F15386E7F0EBF
:1048DA007015396E3650371038103910D8A478EF61
:1048EA0024F07AEF24F082EF24F0000E6D6F000EB0
:1048FA006E6F000E6F6F000E706F000E7115366EC0
:10490A00000E7215376E800E7315386E7F0E741591
:10491A00396E3650371038103910D8A497EF24F072
:10492A0099EF24F0A1EF24F0000E716F000E726F60
:10493A00000E736F000E746F70AFA6EF24F0A8EF2D
:10494A0024F0B1EF24F06D6D6E1FD8B06E2B6F1F7F
:10495A00D8B06F2B800E705774AFB6EF24F0B8EF53
:10496A0024F0C1EF24F0716D721FD8B0722B731F3F
:10497A00D8B0732B800E7457000E6D1B000E6E1B81
:10498A00000E6F1B800E701B000E711B000E721B37
:10499A00000E731B800E741B71516D5D72516E593E
:1049AA0073516F5974517059D8B0DEEF24F0E0EFAB
:1049BA0024F0E3EF24F0D890E4EF24F0D88012003A
:1049CA001CC11EF01DC11FF01EC120F01FC121F025
:1049DA0014C01EF015C01FF016C020F017C021F039
:1049EA001EC018F01FC019F020C01AF021C01BF019
:1049FA00180E05EF25F0D8901B321A3219321832E8
:104A0A00E82E00EF25F018501C6E1D6A1C501D1070
:104A1A00D8A412EF25F014EF25F034EF25F0D89042
:104A2A001E34186E1F34196E20341A6E21341B6E10
:104A3A00185019101A101B10D8A426EF25F028EFC9
:104A4A0025F02EEF25F0000E156E020E146E63EFA0
:104A5A0025F0000E156E030E146E63EF25F01C2868
:104A6A001D10D8A43BEF25F03DEF25F05FEF25F0B0
:104A7A001EC018F01FC019F020C01AF021C01BF088
:104A8A00090ED890183619361A361B36E82E46EF14
:104A9A0025F0185019101A101B10D8B457EF25F02A
:104AAA005AEF25F0010E5BEF25F0000E146E156A21
:104ABA0063EF25F0000E156E040E146E120014C07A
:104ACA001BF015C01CF016C01DF017C01EF018060A
:104ADA00D8A01906182806E11928D8A477EF25F0D6
:104AEA0079EF25F086EF25F0000E156E000E146E94
:104AFA00DDEF25F01B4A1C2A1D4A1E2A1806D8A0DB
:104B0A00190660006FF0D9FF600073F0DAFFDF501A
:104B1A00D8B492EF25F094EF25F0C7EF25F06000A6
:104B2A0077F0F6FF60007BF0F7FFF86A0800F550AF
:104B3A000009D8B4A3EF25F0A5EF25F0C7EF25F0BB
:104B4A0018501910D8B4ACEF25F0AEEF25F0C7EF26
:104B5A0025F060006FF0D9FF600073F0DAFFDF50D4
:104B6A001A6E600077F0F6FF60007BF0F7FFF86AD4
:104B7A000800F5501A18D8B4C5EF25F0C7EF25F08C
:104B8A007FEF25F060006FF0D9FF600073F0DAFF65
:104B9A00DF501A6E600077F0F6FF60007BF0F7FFD7
:104BAA00F86A0800F5501A5C146E156AD8A0150642
:104BBA00120020EE24F0070EDE6AE806FDE21C5021
:104BCA001D101E101F102010211022102310D8B4FF
:104BDA00F1EF25F0F3EF25F045EF26F0010E2C6EEC
:104BEA0001EF26F0D8901C361D361E361F362036A9
:104BFA002136223623362C2A23AE06EF26F008EF7A
:104C0A0026F0F7EF25F0D8902436253626362736B3
:104C1A00283629362A362B361C50145C1D50155856
:104C2A001E5016581F5017582050185821501958FE
:104C3A0022501A5823501B58D8A026EF26F028EFE6
:104C4A0026F039EF26F01C50145E1D50155A1E50DE
:104C5A00165A1F50175A2050185A2150195A2250C2
:104C6A001A5A23501B5A2480D890233222322132D6
:104C7A0020321F321E321D321C322C2E08EF26F033
:104C8A0024C014F025C015F026C016F027C017F06E
:104C9A0028C018F029C019F02AC01AF02BC01BF03E
:104CAA00120019BE62EF26F0195009E1640E185C71
:104CBA00D8A062EF26F064EF26F084EF26F019BE42
:104CCA0070EF26F0BD0E185C020E1958D8A070EFCE
:104CDA0026F072EF26F076EF26F0020E196EBC0E61
:104CEA00186E18C014F019C015F030EC2FF0000E31
:104CFA00156E000E146E16EC2FF0C6EF26F019AEE4
:104D0A0090EF26F09D0E185CFF0E1958D8B090EF60
:104D1A0026F092EF26F0BAEF26F019AE9EEF26F0B3
:104D2A00700E185CFE0E1958D8B09EEF26F0A0EF50
:104D3A0026F0A4EF26F0FE0E196E700E186E000E05
:104D4A00156E000E146E30EC2FF018C01AF019C050
:104D5A001BF01A1E1B1E1A4A1B2A1AC014F01BC06B
:104D6A0015F016EC2FF0C6EF26F0000E156E000EA9
:104D7A00146E30EC2FF0000E156E000E146E16EC49
:104D8A002FF012001C501D101E101F102010211091
:104D9A0022102310D8B4D4EF26F0D6EF26F01EEF57
:104DAA0027F0010E246EE4EF26F0D8901C361D364B
:104DBA001E361F362036213622362336242A23AEC3
:104DCA00E9EF26F0EBEF26F0DAEF26F01C50145C40
:104DDA001D5015581E5016581F5017582050185855
:104DEA002150195822501A5823501B58D8A000EFA6
:104DFA0027F002EF27F012EF27F01C50145E1D5027
:104E0A00155A1E50165A1F50175A2050185A215018
:104E1A00195A22501A5A23501B5AD8902332223236
:104E2A00213220321F321E321D321C32242EEBEF69
:104E3A0026F014C014F015C015F016C016F017C0ED
:104E4A0017F018C018F019C019F01AC01AF01BC0D0
:104E5A001BF01200E10E0001FD5D010EFE59D8A003
:104E6A0039EF27F03BEF27F094EF27F0F50EF15DCD
:104E7A00010EF259D8A044EF27F046EF27F094EF3D
:104E8A0027F0000E176E640E166EF1C014F0F2C011
:104E9A0015F04AEC2BF014C01CF015C01DF01E6A68
:104EAA001F6A000E64EC1EF01CC0B4F11DC0B5F1FF
:104EBA001EC0B6F11FC0B7F11B0E0101AC6F100E78
:104ECA00AD6F66EC30F0010E0101AC6F100EAD6FE4
:104EDA00FAC0AEF1AF6B66EC30F0330E0101AC6F85
:104EEA00100EAD6FF9C0AEF1AF6B66EC30F05C0E30
:104EFA000101AC6F100EAD6FB4C1AEF1B5C1AFF127
:104F0A00B6C1B0F1B7C1B1F166EC30F0000E0001E4
:104F1A00F26F000EF16F000EF96F000EFA6F1200B9
:104F2A00000EBE6E000EBD6E240EBA6E000EBB6E73
:104F3A00000EBC6E070EC66EC00EC26EF70EC36EB2
:104F4A00C468C5681F0E3A01706F6069C00E506F61
:104F5A00070E806F7F0E406F000E716F000E816F1B
:104F6A00000E516F000E416F000E616F000E5A6FF6
:104F7A00000E5B6F000E6A6F000E6B6F000E7A6F89
:104F8A00000E7B6F000E826F000E426F000E526F92
:104F9A00000E626F000E726F436953696369736929
:104FAA00070E836F44695469646974690F0E846FCC
:104FBA001F0ECF6F090EDC6F0E0E016F0A0EE56F22
:104FCA000D0E006F1D0EC96F100E046F070ED96FFC
:104FDA00090ED16F0F0E036F130E0B6F080EDB6FE6
:104FEA00080ED26F1E0ED06F1200000E196E17BE79
:104FFA0003EF28F001EF28F009EF28F0166C171ECE
:10500A00D8B0172A010E196E15BE10EF28F00EEF50
:10501A0028F016EF28F0146C151ED8B0152A010EC8
:10502A00191A000E1B6E000E1A6E16501710D8B4FD
:10503A0021EF28F023EF28F04BEF28F0010E186E2D
:10504A002BEF28F0D89016361736182A17AE30EFFD
:10505A0028F032EF28F027EF28F0D8901A361B36BE
:10506A001650145C17501558D8A03EEF28F040EFA0
:10507A0028F045EF28F01650145E1750155A1A807A
:10508A00D89017321632182E32EF28F01950D8B4A9
:10509A0051EF28F053EF28F057EF28F01A6C1B1E37
:1050AA00D8B01B2A1AC014F01BC015F012003EA07B
:1050BA0061EF28F063EF28F06DEF28F028C01FF0A9
:1050CA0029C020F026C021F027C022F061EC2DF083
:1050DA002BBE72EF28F074EF28F07AEF28F02AC07E
:1050EA002FF02BC030F07EEF28F0000E306E000E4D
:1050FA002F6E000E2E6E000E2D6E90EF28F0000E11
:10510A00176E200E166E26C018F027C019F06CEC28
:10511A002AF02D4A2E2A2F502D5C2E50800A2C6EF2
:10512A003050800A2C58D8A09DEF28F09FEF28F025
:10513A0084EF28F03EB0A4EF28F0A6EF28F0B0EFF5
:10514A0028F028C01FF029C020F026C021F027C06F
:10515A0022F061EC2DF028C014F029C015F0E4EC1F
:10516A002DF02F501424266E30501520276E120071
:10517A00000E4524D96EDA6A010EDA22000EDF6EBD
:10518A003D01F9A7CBEF28F0CDEF28F0E1EF28F0A9
:10519A00000E4524D96EDA6A010EDA220101DF8295
:1051AA0002D8E1EF28F00500FA6E9E51FD6E9F517C
:1051BA00FE6EFF6AFA5012003D01F9A3E7EF28F0EC
:1051CA00E9EF28F0FDEF28F0000E4524D96EDA6ADF
:1051DA00010EDA220101DF8402D8FDEF28F0050072
:1051EA00FA6E9C51FD6E9D51FE6EFF6AFA501200D6
:1051FA00000E4524D96EDA6A010EDA22DF50D8B4DD
:10520A0009EF29F00BEF29F01AEF29F002D818EF6D
:10521A0029F00500FA6E01019A51FD6E9B51FE6E4E
:10522A00FF6AFA5012001CEF29F03AEC30F0120033
:10523A00000E196E15BE26EF29F024EF29F02CEF87
:10524A0029F0146C151ED8B0152A010E196E17BE56
:10525A0033EF29F031EF29F037EF29F0166C171EDA
:10526A00D8B0172A16501710D8B43EEF29F040EFDD
:10527A0029F064EF29F0010E186E48EF29F0D89052
:10528A0016361736182A17AE4DEF29F04FEF29F0C8
:10529A0044EF29F01650145C17501558D8A058EF4F
:1052AA0029F05AEF29F05EEF29F01650145E1750D4
:1052BA00155AD89017321632182E4FEF29F0195076
:1052CA00D8B46AEF29F06CEF29F070EF29F0146C6A
:1052DA00151ED8B0152A14C014F015C015F0120006
:1052EA00000E14141C6E000E15141D6E800E16147A
:1052FA001E6E7F0E17141F6E1C501D101E101F10DD
:10530A00D8A48AEF29F08CEF29F094EF29F0000E47
:10531A00146E000E156E000E166E000E176E000E3D
:10532A0018141C6E000E19141D6E800E1A141E6EAF
:10533A007F0E1B141F6E1C501D101E101F10D8A4A8
:10534A00A9EF29F0ABEF29F0B3EF29F0000E186EA0
:10535A00000E196E000E1A6E000E1B6E18501418ED
:10536A000FE1195015180CE11A50161809E11B50D3
:10537A001718D8B4C3EF29F0C5EF29F0C8EF29F000
:10538A00D890C9EF29F0D8801200390193977A0E84
:10539A00146E510E156E34EC31F039019399060EE4
:1053AA00146E5B0E156E2FEC31F0000E3D01EC6FA2
:1053BA00000EED6F000EEE6F000EEF6F000EF06F35
:1053CA00000EF16FB00EF26F800EF36F000EF46FE5
:1053DA008A0EF56F000EF66F000EF76F000EF86F6B
:1053EA00000EF96F000EFA6FCA0E146E620E156E79
:1053FA003EEC31F0C80E146E620E156E39EC31F0C7
:10540A00C20E146E620E156E43EC31F0000E426E3F
:10541A00000E476E000E466E080E4C6E000E456E6C
:10542A00000E446E000E436E390193871200000E7F
:10543A000001846F000E836F030E856F78EC1CF0F9
:10544A00000E0001EC6F580EEB6F000E0101B56FF4
:10545A00000EB46F0C0E0001EB27000EEC23EBC01C
:10546A0018F0ECC019F056EC26F0000E0001FB6FA4
:10547A00FB51D8B443EF2AF045EF2AF03DEF2AF06A
:10548A000101B44BB52BB5BF54EF2AF0B55109E170
:10549A000D0EB45DD8A054EF2AF056EF2AF02FEF84
:1054AA002AF0480EAC6F100EAD6FEBC0AEF1ECC037
:1054BA00AFF166EC30F0000E0001FB6F120EFB65D7
:1054CA0069EF2AF06BEF2AF063EF2AF01200185006
:1054DA001910D8B473EF2AF075EF2AF07EEF2AF08C
:1054EA0018501910D8A47CEF2AF07EEF2AF083EF27
:1054FA002AF016502AEC31F0B6EF2AF020EE04F02A
:10550A001850D9261950DA22DE50DE10D8B490EF9E
:10551A002AF092EF2AF0ADEF2AF020EE04F01850AC
:10552A00D9261950DA2210EE02F01850E126195045
:10553A00E222DE50E65CE650800A1E6EDE50800AE9
:10554A001E58D8B0ABEF2AF0ADEF2AF0B6EF2AF02A
:10555A0020EE02F01850D9261950DA22DE2A000E5F
:10556A00DD221200000E256E000E246E48504910EE
:10557A004A104B10D8B4C4EF2AF0C6EF2AF0FCEF59
:10558A002AF03C0160ABCCEF2AF0CEEF2AF0E6EF2E
:10559A002AF0200E146EA10E156E070E166E000E5E
:1055AA00176E48C018F049C019F04AC01AF04BC02B
:1055BA001BF058EC23F014C024F015C025F0FCEFC2
:1055CA002AF0E00E146E5E0E156EF80E166EFF0EC1
:1055DA00176E48C018F049C019F04AC01AF04BC0FB
:1055EA001BF058EC23F014C024F015C025F024C099
:1055FA0022F025C023F012000101324B332BF50EA5
:10560A00325D010E3359D8A00DEF2BF00FEF2BF0BE
:10561A0048EF2BF0000E336F000E326F1BEC31F0A7
:10562A002AC11CF02BC11DF01E6A1F6A000E64EC11
:10563A001EF01CC06DF01DC06EF01EC06FF01FC0C2
:10564A0070F0A40E0001716F700E726F3D0E736FD1
:10565A00450E746F62EC24F00001D8B037EF2BF0DE
:10566A0039EF2BF048EF2BF0000EF06F000EEF6FC2
:10567A00000E846F000E836F030E856F78EC1CF0AA
:10568A00010E49EF2BF0000E1200000E1A6E000EEA
:10569A00196E16501710D8B455EF2BF057EF2BF0A0
:1056AA007FEF2BF0010E186E5FEF2BF0D8901636B5
:1056BA001736182A17AE64EF2BF066EF2BF05BEF64
:1056CA002BF0D89019361A361650145C1750155804
:1056DA00D8A072EF2BF074EF2BF079EF2BF0165065
:1056EA00145E1750155A1980D89017321632182E90
:1056FA0066EF2BF019C014F01AC015F01200A6C1FB
:10570A00AAF1A7C1ABF1000E0101296F000E286FA3
:10571A00A6EF2BF0A4C1C7F0A5C1C8F0AA0E0001DC
:10572A00C96F010ECA6FA8C1CBF0A9C1CCF0ACEC0D
:10573A000EF00001C751010128270001C8510101DB
:10574A0029236000ABF6F6FF6000AFF6F7FFF86AB0
:10575A000800F5500009D8A4B5EF2BF0B7EF2BF0ED
:10576A008FEF2BF028C1A4F129C1A5F1120016C0B0
:10577A001AF017C01BF014C01CF015C01DF01A5007
:10578A00186E1B50196E1A4A1B2A600063F0F6FF46
:10579A00600067F0F7FF000EF86E600073F0D9FF43
:1057AA00600077F0DAFF1C4A1D2A0F0EF76403D057
:1057BA000800F55007D06F00DBFFE1FF6F00DFFF45
:1057CA00E2FFE750DF6EDF50D8A4EEEF2BF0F0EFE8
:1057DA002BF0C4EF2BF01200BF0E1C6EFF0E1D6ED5
:1057EA001AC01EF01BC01FF01C501E261D501F227F
:1057FA001F500AE11A0E1E5CD8A006EF2CF009EF22
:10580A002CF0010E0AEF2CF0000E206E216A2050B7
:10581A002110D8B413EF2CF015EF2CF01CEF2CF05C
:10582A00200E1A101A6E1B501B6E20EF2CF01AC095
:10583A001AF01BC01BF01200146E4C50D8B428EF9B
:10584A002CF02AEF2CF022EF2CF0390193B930EF2B
:10585A002CF032EF2CF037EF2CF0600053F0EAFD19
:10586A004DEF2CF09399100E4724D96EDA6A010E87
:10587A00DA22600053F0DFFF472A070E476448EF39
:10588A002CF04AEF2CF04CEF2CF0000E476E4C0631
:10589A0093891200000E3E01DE6F000EDF6F000ECC
:1058AA00E06F000EE16F000EE46F000EE56F000E70
:1058BA00EA6F000EEC6F000EF16F580EF36F020ED6
:1058CA00F46F000EF56F000EF66F000EF76F000E04
:1058DA00F96F000EFA6F000EFB6F000EFC6F000EE0
:1058EA00FD6F000EFE6F1F0EFF6F840EF86F120021
:1058FC003901A19F3F0118510101246F3F0119513A
:10590C000101256F3F011A510101266F276B3C01E4
:10591C0060AB93EF2CF095EF2CF09EEF2CF0010E7A
:10592C0001012027000E212322232323A7EF2CF093
:10593C00FF0E01012027FF0E2123FF0E2223FF0E55
:10594C0023231100D28A000ED2BE010E146ED29EF9
:10595C00550ED46EAA0ED46ED490000ED76E000ED7
:10596C00D66E080ED56E550ED46EAA0ED46ED4809B
:10597C0014B002D0D29E01D0D28E39018399839774
:10598C00818F818B818D8A81888F87918983120089
:10599C00A8EC2CF08EEC30F095EC27F00FEC31F0FD
:1059AC00E0EC2FF04FEC2CF00EEC30F0B1EC2FF0D3
:1059BC00DFEC30F0D1EC30F0F7EC30F0C9EC2FF03C
:1059CC0024EC30F075EC2EF003EC31F0F3EC2CF011
:1059DC00EBEC30F0CAEC29F01200C00E9B6E000EFE
:1059EC009C6E050E9D6E000E996E000E986E390120
:1059FC00A89D98506F0064FE16F0176A16C017F039
:105A0C00166A16100101946F1750956F3901A89FF3
:105A1C00988F840E146E610E156E48EC31F0030EE7
:105A2C009A6E12003901A19D3F011551486E165115
:105A3C00496E17514A6E4B6A3C0160AB28EF2DF052
:105A4C002AEF2DF033EF2DF0010E01012027000E6F
:105A5C002123222323233CEF2DF0FF0E01012027CD
:105A6C00FF0E2123FF0E2223FF0E23231100000E15
:105A7C0000017D1B000E7E1B000E7F1B800E801B09
:105A8C0079C06DF07AC06EF07BC06FF07CC070F0A6
:105A9C007DC071F07EC072F07FC073F080C074F076
:105AAC00A0EC11F06DC079F06EC07AF06FC07BF095
:105ABC0070C07CF01200000E256E000E246E72EF8A
:105ACC002DF023C016F0176A21C018F022C019F06F
:105ADC006CEC2AF0244A252A24501F24D96E255018
:105AEC002020DA6EDF50236E2350D8A480EF2DF0E7
:105AFC0082EF2DF067EF2DF01200080E4C6089EF4D
:105B0C002DF08BEF2DF0A2EF2DF0100E4624D96E58
:105B1C00DA6A010EDA22DF503D01EA6F462A070EDF
:105B2C0046649BEF2DF09DEF2DF09FEF2DF0000EB6
:105B3C00466E4C2AA4EF2DF039019399120027BE22
:105B4C00B2EF2DF0275006E12604D8B0B0EF2DF0BF
:105B5C00B2EF2DF0C0EF2DF026C028F027C029F0B1
:105B6C00281E291E284A292A28C026F029C027F0D9
:0E5B7C00C4EF2DF026C026F027C027F012003F
:105B8C006F0060FF13F03901A7910001F34BF42B68
:105B9C00F45109E10A0EF35DD8A0D7EF2DF0D9EF3F
:105BAC002DF0E0EF2DF0F7EC2FF0000E0001F46F6C
:105BBC00000EF36F60004FF0D8FF110014C016F008
:105BCC0015C017F0ECEF2DF0144A152A600053F0B5
:105BDC00D9FF600057F0DAFFDF50D8A4F8EF2DF0B2
:105BEC00FAEF2DF0EAEF2DF01650145C146E1750EE
:065BFC001558156E1200A1
:105C04006F0060FF11F00101A051A111D8B40DEF94
:105C14002EF00FEF2EF01BEF2EF002D81BEF2EF01C
:105C24000500FA6EA051FD6EA151FE6EFF6AFA5096
:0A5C34001200600047F0D8FF1100D5
:105C40006F0060FF12F00101A251A311D8B42BEF35
:105C50002EF02DEF2EF039EF2EF002D839EF2EF086
:105C60000500FA6EA251FD6EA351FE6EFF6AFA5056
:105C7000120060004BF0D8FF1100BF0E166EFF0E31
:105C8000176E14C018F015C019F0165018261750CA
:105C9000192219500AE11A0E185CD8A052EF2EF002
:105CA00055EF2EF0010E56EF2EF0000E146E156A11
:105CB00012001450151016101710D8B462EF2EF001
:105CC00064EF2EF06CEF2EF0000E141A000E151A71
:105CD000000E161A800E171A14C014F015C015F015
:105CE00016C016F017C017F01200000EA76E000EB7
:105CF000A86E050EA96E000EA56E000EA46E3901E9
:105D0000A69DA4506F0094FE14F0156A14C015F0FF
:105D1000146A14100101906F1550916F010EA66E58
:105D2000120000EE00F18E0EEE6AE806FDE100EED4
:105D3000EBF0140EEE6AE806FDE100EE3AF0120E0A
:105D4000EE6AE806FDE1080ED56E000ED66E000E76
:105D5000D76E0001B2EF30F0CDAEB1EF2EF0B3EF61
:105D60002EF0B9EF2EF001C03CF102C03DF1C6EFBC
:105D70002EF001013C51015C0001F76F01013D5122
:105D800002580001F86FD890F833F7331200CDAC09
:105D9000CCEF2EF0CEEF2EF0D4EF2EF005C03AF17E
:105DA00006C03BF1E1EF2EF001013A51055C000124
:105DB000F56F01013B5106580001F66FD890F6339C
:105DC000F533120014C016F015C017F0D890173232
:105DD0001632D890173216321650696E14C016F06B
:105DE000030E1616060E176ED8901636172EF4EF01
:105DF0002EF01650686E120014C016F015C017F081
:105E0000D89017321632D8901732163216506D6E5F
:105E100014C016F0030E1616060E176ED89016361E
:105E2000172E0EEF2FF016506C6E120014C016F0E5
:105E300015C017F0D89017321632D8901732163294
:105E40001650616E14C016F0030E1616060E176E6D
:105E5000D8901636172E28EF2FF01650606E1200CD
:105E600014C016F015C017F0D89017321632D8901B
:105E7000173216321650656E14C016F0030E161641
:105E8000060E176ED8901636172E42EF2FF01650CA
:105E9000646E12003901A9936F00D0FD03F06F000A
:105EA000D4FD04F003C001F004C002F002D863EF97
:105EB0002FF00500FA6E01019851FD6E9951FE6EAA
:105EC000FF6AFA50120011003901AA916F00C0FD5B
:105ED00007F06F00C4FD08F007C005F008C006F029
:105EE00002D87DEF2FF00500FA6E01019651FD6E8C
:105EF0009751FE6EFF6AFA5012001100186E600092
:105F000063F0F1FE3E01F88FF89DF881F8B18BEF58
:105F10002FF08DEF2FF086EF2FF0F051176E166AED
:0E5F2000EF511624146E000E1720156E12009D
:105F30003901A89F010192519311D8B4A2EF2FF01B
:105F4000A4EF2FF0B0EF2FF002D8B0EF2FF0050044
:105F5000FA6E9251FD6E9351FE6EFF6AFA50120076
:105F60001100800E3F011E6F420E1F6F000E206F4A
:105F7000040E216F000E236F000E226F010E1D6FA5
:105F80001C691B693901918B918F918D3F011F8F86
:105F90001200830E726E000E736E000E716E000E94
:105FA000706E8E0E146E5D0E156E52EC31F03F0168
:105FB0005E513F0B80095E6F3901AA919A811200F0
:105FC000830E766E000E776E000E756E000E746E88
:105FD000580E146E5D0E156E57EC31F03F015E5198
:105FE000CF0B20095E6F3901A9939983120001013B
:105FF0008E518F11D8B4FFEF2FF001EF30F00DEF7D
:1060000030F002D80DEF30F00500FA6E8E51FD6EC3
:106010008F51FE6EFF6AFA5012001200010EA26E3E
:10602000000EA16E000EA36EF90E9F6E000E9E6E06
:106030003901A7919781CC0E146E620E156E4DEC4E
:1060400031F0E00EA06E1200000E3C01616F030EF5
:10605000626F020E636F000E646F000E656F020EBA
:10606000666F080E676F000E686F000E696F850E11
:10607000606F1200080E4524D96EDA6A010EDA222A
:106080006F00A3F7DFFF452A070E45644AEF30F0A3
:106090004CEF30F04EEF30F0000E456E432A120008
:1060A0009AA455EF30F057EF30F060EF30F09A904F
:1060B0000A50996E600027F098FF9A8065EF30F0E3
:1060C0000A50996E600027F098FF1200AE0E010191
:1060D000B26F010EB36F000EA46F000EA56FACC1BE
:1060E000A6F1ADC1A7F1B20EA86F010EA96F84ECA5
:1060F0002BF012003901A19B000E486E000E496E74
:10610000000E4A6E000E4B6E000E0101246F000E51
:10611000256F000E266F000E276F1100000E39014B
:10612000C06F000EC16F000EC26F000EC36F000E75
:10613000C46F000EC56F000EC66F000EC76F120051
:106140009A826F0060FE10F06F0064FE0FF00F5037
:106150000B6E10500D6E0BC00EF00DC009F00EC08E
:106160000AF01200CEEC2CF0D28ED28CB80E146E47
:10617000620E156E4DEC31F0C5EC22F0BCEF30F044
:1061800057EF00F0A0EC30F009C0FDF00AC0FEF0BF
:106190000001D890FE33FD3323EC31F03901A89F84
:1061A0001200050EAE6E000EAD6E000EAF6EAB6847
:1061B000000EAA6E3901A495B00EAC6E1200800ECE
:1061C000626E000E616E000E606E3F015F513F0B0C
:1061D00080095F6F1200800E666E000E656E000E05
:1061E000646E3F015F51CF0B20095F6F1200800E7C
:1061F0006A6E590E696E400E686E3F015F51F30B77
:1062000004095F6F1200800E6E6E590E6D6E400EA7
:106210006C6E3F015F51FC0B01095F6F1200600E55
:106220003901D96F000EDB6F000EDD6F080EDF6FD6
:10623000000EDE6F1200220E7EEC2FF014C02AF149
:1062400015C02BF1120094C109F095C10AF050EC71
:1062500030F01200156E155021EC2CF0120014C015
:10626000A0F115C0A1F1120014C0A2F115C0A3F154
:10627000120014C09CF115C09DF1120014C09EF1D3
:1062800015C09FF1120014C09AF115C09BF11200C5
:1062900014C092F115C093F1120014C08EF115C014
:1062A0008FF1120014C096F115C097F1120014C0BE
:1062B00098F115C099F112000001FB2BF14BF22B64
:0E62C00012003AEC30F0120012001200120030
:0262D0001100BB
:020000040020DA
:10000000FF0FFF0FFF0FFF0FFF0FFF0FFF0FFF0F80
:020000040030CA
:0A0000008CFFFFFF9FFFFFFFFFFFD3
:00000001FF
