:0400000057EF00F0C6
:100008001F191F191F191F191F191F191F191F1928
:100018001F191F191F191F191F19A818F516A81637
:100028001F191F191F191F191F191F191F191F1908
:100038001F191F191F197A176B171F191F191F1955
:100048001F191F191F191F192B001F191F191F19F5
:100058001F191F191F191F191F191F191F191F19D8
:100068001F191F191F191F191F191F191F191F19C8
:100078004D171F192B001F191F191F192B002B00B3
:100088002B002B002B002B002B002B001F193618E0
:100098001F190F181F191F192B002B002B002B00DD
:0A00A8001C181F19FF0065EF2FF070
:101000000043757276654C656674436F756E743A0D
:101010002025752020207C202020005265736574D7
:10102000204375727665436F756E742120207C2095
:1010300020200043757276655269676874436F7546
:101040006E743A2025750A0073746172416363659A
:101050006C506F7765723A2025640A00526F756E86
:101060006454696D653A2025660A0A0053746F70EE
:1010700020526576657273650A00526576657273F3
:101080006552696774680A00466F6C6C6F7720520E
:10109000696768740A00466F6C6C6F77204C6566F0
:1010A000740A00526576657273654C6566740A0051
:1010B000456E646520466F6C6C6F770A00726174D0
:1010C000696F3A202666202020005374726169748B
:1010D0000A00494E46004E414E00696E66006E6140
:1010E0006E006C660000000E0001AA6F000EA96F72
:1010F00085C0BBF086C0BCF087C0BDF088C0BEF024
:10110000BEBF87EF08F085EF08F09DEF08F0000EF6
:10111000AA6F010EA96FBBC014F0BCC015F0BDC012
:1011200016F0BEC017F02DEC2FF014C0BBF015C0A8
:10113000BCF016C0BDF017C0BEF0000E0001C26FBB
:10114000000EC16F2AC1ADF02BC1AEF0A951AA119A
:10115000D8A4ADEF08F0AFEF08F0B6EF08F03CA46C
:10116000B4EF08F0B6EF08F0D0EF08F0A951AA11DB
:10117000D8A4BDEF08F0BFEF08F0C5EF08F0000EEF
:10118000906F2B0E8F6FC9EF08F0000E906F2D0E31
:101190008F6F8FC045F1C14BC22BAD07D8A0AE07F2
:1011A000BBC014F0BCC015F0BDC016F0BEC017F037
:1011B00004EC26F014041510D8A4E1EF08F0E3EFD6
:1011C00008F03AEF09F0BF0E00018A6FFF0E8B6F37
:1011D00089518C6F8D6B8A518C278B518D238D514A
:1011E0000AE11A0E8C5DD8A0F8EF08F0FBEF08F0CA
:1011F000010EFCEF08F0000E916F926B915192116D
:10120000D8B405EF09F007EF09F015EF09F0450E26
:10121000C125146E010EC221156ED20E166E100E6F
:10122000176E8CEC2CF021EF09F0450EC125146EE1
:10123000010EC221156EDA0E166E100E176E8CECB2
:101240002CF00001FD0EAD27FF0EAE2383C026F06B
:1012500084C027F0450E286E010E296EADC02AF01D
:10126000AEC02BF07BEC29F026C083F027C084F0C1
:10127000C9EF0EF0BBC014F0BCC015F0BDC016F035
:10128000BEC017F004EC26F014501510D8A44BEF94
:1012900009F04DEF09F0A4EF09F0BF0E00018A6FCD
:1012A000FF0E8B6F89518C6F8D6B8A518C278B5100
:1012B0008D238D510AE11A0E8C5DD8A062EF09F0E2
:1012C00065EF09F0010E66EF09F0000E936F946B65
:1012D00093519411D8B46FEF09F071EF09F07FEFDB
:1012E00009F0450EC125146E010EC221156ED60EF1
:1012F000166E100E176E8CEC2CF08BEF09F0450E6D
:10130000C125146E010EC221156EDE0E166E100E72
:10131000176E8CEC2CF00001FD0EAD27FF0EAE23F6
:1013200083C026F084C027F0450E286E010E296E7A
:10133000ADC02AF0AEC02BF07BEC29F026C083F0C4
:1013400027C084F0C9EF0EF0000E0001C36F000E3D
:10135000C46F800EC56F3F0EC66F000EC06F000ECB
:10136000BF6FBBC014F0BCC015F0BDC016F0BEC04E
:1013700017F0000E186E000E196E000E1A6E000E99
:101380001B6E94EC2AF0D8B0C8EF09F0CAEF09F050
:101390004FEF0AF0E9EF09F0C3C02AF0C4C02BF008
:1013A000C5C02CF0C6C02DF0000E2E6E000E2F6EA4
:1013B000200E306E410E316E20EC14F02AC0C3F0C6
:1013C0002BC0C4F02CC0C5F02DC0C6F00001BF4B2F
:1013D000C02BBBC06DF0BCC06EF0BDC06FF0BEC016
:1013E00070F0000E2E6E000E2F6E200E306E410E2D
:1013F000316EC3C02AF0C4C02BF0C5C02CF0C6C0EB
:101400002DF020EC14F02AC071F02BC072F02CC02B
:1014100073F02DC074F081EC25F00001D8B013EF0B
:101420000AF015EF0AF0CCEF09F035EF0AF0C3C06F
:101430002AF0C4C02BF0C5C02CF0C6C02DF0000EA1
:101440002E6E000E2F6E200E306E410E316E48EC67
:1014500016F02AC0C3F02BC0C4F02CC0C5F02DC0BC
:10146000C6F00001BF07D8A0C007BBC06DF0BCC06C
:101470006EF0BDC06FF0BEC070F0C3C071F0C4C0EC
:1014800072F0C5C073F0C6C074F081EC25F00001A5
:10149000D8A04DEF0AF04FEF0AF017EF0AF089C01D
:1014A0001AF01B6AF2EC2CF01A500001B06FB0C0B9
:1014B000AFF0670EB019D8A460EF0AF062EF0AF03F
:1014C00088EF0AF03A503B10D8A469EF0AF06BEFAE
:1014D0000AF06FEF0AF0000E3B6E010E3A6E3BBE53
:1014E0007CEF0AF03B5006E13A04D8B07AEF0AF0FC
:1014F0007CEF0AF082EF0AF0000EAC6F060EAB6FC5
:1015000091EF0AF03AC0ABF03BC0ACF091EF0AF0BB
:101510003BBE8DEF0AF08FEF0AF07CEF0AF082EF0E
:101520000AF0670EB019D8A498EF0AF09AEF0AF003
:10153000C9EF0AF0C0AFA8EF0AF0FC0EBF5DFF0EC6
:10154000C059D8A0A6EF0AF0A8EF0AF0C7EF0AF03A
:10155000FF0E8A6FFF0E8B6FABC08CF0ACC08DF0AE
:101560008A518C278B518D23BF518C5D8D51800A00
:101570008E6FC051800A8E59D8A0C1EF0AF0C3EF18
:101580000AF0C7EF0AF0660EAF6FC9EF0AF0650EFA
:10159000AF6FABC0A1F0ACC0A2F0670EB019D8A479
:1015A000D4EF0AF0D6EF0AF0E6EF0AF0660EAF19B4
:1015B000D8A4DDEF0AF0DFEF0AF0E8EF0AF0C0BFD1
:1015C000E6EF0AF0E4EF0AF0E8EF0AF0A14BA22BF5
:1015D000660EAF19D8A4EFEF0AF0F1EF0AF011EFA1
:1015E0000BF0C0BFF8EF0AF0F6EF0AF004EF0BF0D3
:1015F000000EC36F000EC46F800EC56F3F0EC66F26
:10160000000EC06F000EBF6F670EB019D8B40BEF9D
:101610000BF00DEF0BF011EF0BF0BF51A127C051F4
:10162000A223000EBA6F000EB96FBBC0B1F0BCC0F0
:10163000B2F0BDC0B3F0BEC0B4F0C3C0A3F0C4C02C
:10164000A4F0C5C0A5F0C6C0A6F0A2EF0BF0B1C0D3
:101650002AF0B2C02BF0B3C02CF0B4C02DF0C3C040
:101660002EF0C4C02FF0C5C030F0C6C031F048EC39
:1016700016F02AC036F02BC037F02CC038F02DC041
:1016800039F040EC1DF036C0B5F037C0B6F038C0C8
:10169000B7F039C0B8F0B5C079F0B6C07AF0B7C0CD
:1016A0007BF0B8C07CF0FDEC24F079C0A7F07AC0E4
:1016B000A8F0B1C079F0B2C07AF0B3C07BF0B4C08A
:1016C0007CF0C3C02EF0C4C02FF0C5C030F0C6C03F
:1016D00031F0B5C02AF0B6C02BF0B7C02CF0B8C0BE
:1016E0002DF020EC14F02AC07DF02BC07EF02CC031
:1016F0007FF02DC080F00FEC2EF079C0B1F07AC0F1
:10170000B2F07BC0B3F07CC0B4F0C3C02AF0C4C058
:101710002BF0C5C02CF0C6C02DF0000E2E6E000EB2
:101720002F6E200E306E410E316E48EC16F02AC03E
:10173000C3F02BC0C4F02CC0C5F02DC0C6F0000112
:10174000B94BBA2BA151B95DBA51800A8A6FA25127
:10175000800A8A59D8A0AFEF0BF0B1EF0BF027EF5A
:101760000BF0C3C02AF0C4C02BF0C5C02CF0C6C01B
:101770002DF0000E2E6E000E2F6EA00E306E400E5D
:10178000316E20EC14F02AC0B5F02BC0B6F02CC09E
:10179000B7F02DC0B8F0B1C06DF0B2C06EF0B3C0FC
:1017A0006FF0B4C070F0B5C071F0B6C072F0B7C0E1
:1017B00073F0B8C074F081EC25F00001D8B0E3EF0D
:1017C0000BF0E5EF0BF0EFEF0BF0000EB56F000E36
:1017D000B66F000EB76F000EB86F18EF0CF0B1C007
:1017E00014F0B2C015F0B3C016F0B4C017F0B5C015
:1017F00018F0B6C019F0B7C01AF0B8C01BF094ECDE
:101800002AF0D8A006EF0CF008EF0CF018EF0CF05F
:101810000001A7B10EEF0CF010EF0CF018EF0CF078
:10182000000EB56F000EB66F000EB76F000EB86FEA
:10183000BBC06DF0BCC06EF0BDC06FF0BEC070F03C
:10184000B5C071F0B6C072F0B7C073F0B8C074F034
:10185000BFEC11F06DC0B1F06EC0B2F06FC0B3F06C
:1018600070C0B4F0B1C06DF0B2C06EF0B3C06FF034
:10187000B4C070F0000E2E6E000E2F6E200E306E73
:10188000410E316EA3C02AF0A4C02BF0A5C02CF0ED
:10189000A6C02DF020EC14F02AC071F02BC072F01D
:1018A0002CC073F02DC074F081EC25F00001D8A09D
:1018B0005CEF0CF05EEF0CF086EF0CF0BF4BC02B32
:1018C000A3C02AF0A4C02BF0A5C02CF0A6C02DF018
:1018D000000E2E6E000E2F6E200E306E410E316EF9
:1018E00020EC14F02AC0A3F02BC0A4F02CC0A5F06B
:1018F0002DC0A6F0660E0001AF19D8A482EF0CF03F
:1019000084EF0CF086EF0CF0A14BA22BA3C0C3F028
:10191000A4C0C4F0A5C0C5F0A6C0C6F0650EAF193E
:10192000D8B495EF0CF097EF0CF09DEF0CF0BFC022
:101930009FF0C0C0A0F0A1EF0CF0000EA06F000E51
:101940009F6F000E9E6F000E9D6F000E9C6F000E2D
:101950009B6F000EBA6F000EB96F9DEF0DF0B1C016
:101960002AF0B2C02BF0B3C02CF0B4C02DF0C3C02D
:101970002EF0C4C02FF0C5C030F0C6C031F048EC26
:1019800016F02AC036F02BC037F02CC038F02DC02E
:1019900039F040EC1DF036C0B5F037C0B6F038C0B5
:1019A000B7F039C0B8F0B5C079F0B6C07AF0B7C0BA
:1019B0007BF0B8C07CF0FDEC24F079C0A7F07AC0D1
:1019C000A8F03CB8E6EF0CF0E8EF0CF006EF0DF0F5
:1019D0000001A751A811D8A4F0EF0CF0F2EF0CF021
:1019E00006EF0DF0670EB019D8A4F9EF0CF0FBEF7D
:1019F0000CF006EF0DF0A0BF02EF0DF000EF0DF0C0
:101A000006EF0DF09B4B9C2B51EF0DF000019D510B
:101A10009E11D8A40EEF0DF010EF0DF03AEF0DF07F
:101A2000A0BF17EF0DF015EF0DF03AEF0DF0450EDA
:101A3000C125D96E010EC221DA6E2E0EDF6EC14BAA
:101A4000C22BAD07D8A0AE07000E9E6F010E9D6F92
:101A50003AEF0DF0450EC125D96E010EC221DA6EA6
:101A6000300EDF6EC14BC22BAD07D8A0AE079B076F
:101A7000D8A09C079B519C11D8A441EF0DF043EFD7
:101A80000DF02AEF0DF0450EC125D96E010EC221D1
:101A9000DA6EA751300FDF6EC14BC22BAD07D8A055
:101AA000AE07B1C079F0B2C07AF0B3C07BF0B4C079
:101AB0007CF0C3C02EF0C4C02FF0C5C030F0C6C04B
:101AC00031F0B5C02AF0B6C02BF0B7C02CF0B8C0CA
:101AD0002DF020EC14F02AC07DF02BC07EF02CC03D
:101AE0007FF02DC080F00FEC2EF079C0B1F07AC0FD
:101AF000B2F07BC0B3F07CC0B4F0C3C02AF0C4C065
:101B00002BF0C5C02CF0C6C02DF0000E2E6E000EBE
:101B10002F6E200E306E410E316E48EC16F02AC04A
:101B2000C3F02BC0C4F02CC0C5F02DC0C6F000011E
:101B30009F07D8A0A007B94BBA2BA151B95DBA51E4
:101B4000800A8A6FA251800A8A59D8B0AAEF0DF094
:101B5000ACEF0DF0BAEF0DF0C2BFB8EF0DF0C2510F
:101B600009E14B0EC15DD8A0B8EF0DF0BAEF0DF052
:101B7000AFEF0CF09D519E11D8A4C1EF0DF0C3EF53
:101B80000DF0D4EF0DF03CA8C8EF0DF0CAEF0DF04A
:101B9000D4EF0DF0450EC125D96E010EC221DA6ECB
:101BA0002E0EDF6EC14BC22B450EC125D96E010E24
:101BB000C221DA6E000EDF6E650EAF19D8A4E3EF16
:101BC0000DF0E5EF0DF0B7EF0EF0000EBA6F4F0E0F
:101BD000B96F450EB925D96E010EBA21DA6E000E25
:101BE000DF6E000EAA6F000EA96FC0BFFCEF0DF0F4
:101BF000FAEF0DF004EF0EF0000EAA6F010EA96FC0
:101C0000BF6DC01FD8B0C02B000EAC6F020EAB6F03
:101C100035EF0EF0B907D8A0BA07450EB925D96E31
:101C2000010EBA21DA6EBFC014F0C0C015F0000E6C
:101C3000176E0A0E166E3CEC2AF01450300FDF6E51
:101C4000BFC014F0C0C015F0000E176E0A0E166E5D
:101C500019EC29F014C0BFF015C0C0F00001AB07AB
:101C6000D8A0AC07AD07D8A0AE07BF51C011D8A40B
:101C70003CEF0EF03EEF0EF00AEF0EF0ACBF4BEF74
:101C80000EF0AC5106E1AB05D8B049EF0EF04BEFCA
:101C90000EF00AEF0EF0B907D8A0BA07A951AA11A1
:101CA000D8A455EF0EF057EF0EF05DEF0EF0000EDA
:101CB000966F2B0E956F61EF0EF0000E966F2D0E46
:101CC000956F450EB925D96E010EBA21DA6E600006
:101CD00057F2DFFFAD07D8A0AE07B907D8A0BA0703
:101CE000BF0E8A6FFF0E8B6F89518C6F8D6B8A517F
:101CF0008C278B518D238D510AE11A0E8C5DD8A053
:101D000084EF0EF087EF0EF0010E88EF0EF0000E5C
:101D1000996F9A6B99519A11D8A491EF0EF093EFA5
:101D20000EF099EF0EF0000E986F650E976F9DEF15
:101D30000EF0000E986F450E976F450EB925D96EBF
:101D4000010EBA21DA6E60005FF2DFFFAD07D8A0A6
:101D5000AE07450EC125146E010EC221156E450E4B
:101D6000B925166E010EBA21176E8CEC2CF083C0CB
:101D700026F084C027F0450E286E010E296EADC0F6
:101D80002AF0AEC02BF07BEC29F026C083F027C0F0
:101D900084F01200600027F3D9FF60002BF3DAFF14
:101DA0006F007BFFF6FF6F0077FFF7FFF86A080010
:101DB000F550250AD8A4DFEF0EF0E1EF0EF09CEF0E
:101DC00011F0600027F3D9FF60002BF3DAFFDE2A61
:101DD000000EDD22000E01012B6F000E2A6F2AC1BA
:101DE0003CF02BC13DF03A683B68600027F3D9FF17
:101DF00060002BF3DAFF6F007BFFF6FF6F0077FFC9
:101E0000F7FFF86A0800F5501A6E1B6AF2EC2CF026
:101E10001A500001E76FE751D8B411EF0FF013EF3C
:101E20000FF05BEF0FF0600027F3D9FF60002BF39A
:101E3000DAFF6F0078FFCDF06F0074FFCEF0010E77
:101E4000CD27000ECE23600037F3F6FF60003BF392
:101E5000F7FFF86A0800F5501A6E1B6AF2EC2CF0D6
:101E60001A500001E86FE851D8B439EF0FF03BEF9A
:101E70000FF05BEF0FF0600027F3D9FF60002BF34A
:101E8000DAFF6F0078FFCDF06F0074FFCEF0020E26
:101E9000CD27000ECE23600037F3F6FF60003BF342
:101EA000F7FFF86A0800F5501A6E1B6AF2EC2CF086
:101EB0001A500001E96F600027F3D9FF60002BF38F
:101EC000DAFF6F007BFFF6FF6F0077FFF7FFF86A1E
:101ED0000800F550640AD8B470EF0FF072EF0FF0FD
:101EE00089EF0FF0600027F3D9FF60002BF3DAFFD2
:101EF0006F007BFFF6FF6F0077FFF7FFF86A0800BF
:101F0000F550690AD8A487EF0FF089EF0FF0D3EFEF
:101F10000FF0600027F3D9FF60002BF3DAFFDE2A11
:101F2000000EDD2260002FF3D9FF600033F3DAFFEB
:101F30006F007CFFCDF0020EDE266F007CFFCEF03E
:101F4000000EDD22600037F3D9FF60003BF3DAFFBB
:101F50006F0078FFD1F06F0074FFD2F0000ED2BF97
:101F6000FF0ED36FD46FD56FD66FD76FD86FC7C042
:101F700060F0C8C061F0D1C062F0D2C063F0D3C0DD
:101F800064F0D4C065F0D5C066F0D6C067F0D7C0A5
:101F900068F0D8C069F089EC19F060C0C7F061C082
:101FA000C8F0BEEF11F0660EE719D8A4DAEF0FF013
:101FB000DCEF0FF02EEF10F0600027F3D9FF600088
:101FC0002BF3DAFF6F007BFFF6FF6F0077FFF7FF61
:101FD000F86A08006F00D4FFEAF0600027F3D9FF29
:101FE00060002BF3DAFFDE2A000EDD2260002FF303
:101FF000D9FF600033F3DAFF6F007CFFCDF0040EF1
:10200000DE266F007CFFCEF0000EDD22600037F38D
:10201000D9FF60003BF3DAFF6F0078FFE3F06F0059
:1020200078FFE4F06F0078FFE5F06F0078FFE6F0EE
:10203000C7C083F0C8C084F0E3C085F0E4C086F078
:10204000E5C087F0E6C088F0EAC089F073EC08F0DC
:1020500083C0C7F084C0C8F0BEEF11F0E70E146E65
:10206000000E156EE20E166E100E176E000E196E33
:10207000020E186E83EC26F014501510D8A443EF0E
:1020800010F045EF10F0F8EF10F0600027F3D9FFE3
:1020900060002BF3DAFF6F0078FFCDF06F0074FF64
:1020A000CEF0010E0001CD27000ECE23600037F3E5
:1020B000F6FF60003BF3F7FFF86A08006F00D4FFFB
:1020C000EAF0BF0ECD6FFF0ECE6F600027F3D9FF91
:1020D00060002BF3DAFF6F007BFFF6FF6F0077FFE6
:1020E000F7FFF86A0800F550CF6FD06BCD51CF27BE
:1020F000CE51D023D0510AE11A0ECF5DD8A083EF84
:1021000010F086EF10F0010E87EF10F0000EE16F77
:10211000E26BE151E211D8B490EF10F092EF10F0C1
:10212000B6EF10F060002FF3D9FF600033F3DAFF51
:102130006F007CFFCDF0040EDE266F007CFFCEF03A
:10214000000EDD22600037F3D9FF60003BF3DAFFB9
:102150006F0078FFE3F06F0078FFE4F06F0078FF26
:10216000E5F06F0078FFE6F0D8EF10F060002FF395
:10217000D9FF600033F3DAFF6F007CFFCDF0040E6F
:10218000DE266F007CFFCEF0000EDD22600037F30C
:10219000D9FF60003BF3DAFF6F0078FFE3F06F00D8
:1021A00078FFE4F06F0078FFE5F06F0078FFE6F06D
:1021B000020E600027F3D9FF60002BF3DAFFDE2662
:1021C000000EDD22C7C083F0C8C084F0E3C085F0F4
:1021D000E4C086F0E5C087F0E6C088F0EAC089F088
:1021E00073EC08F083C0C7F084C0C8F0BEEF11F0F4
:1021F000600027F3D9FF60002BF3DAFF6F007BFF4D
:10220000F6FF6F0077FFF7FFF86A0800F550750AD0
:10221000D8A40DEF11F00FEF11F05BEF11F060009B
:1022200027F3D9FF60002BF3DAFFDE2A000EDD2250
:1022300060002FF3D9FF600033F3DAFF6F007CFFFB
:10224000CDF0020EDE266F007CFFCEF0000EDD2208
:10225000600037F3D9FF60003BF3DAFF6F0078FFCF
:10226000CFF06F0074FFD0F0CFC0D9F0D0C0DAF05B
:102270000001DB6BDC6BDD6BDE6BDF6BE06BC7C023
:1022800060F0C8C061F0D9C062F0DAC063F0DBC0B2
:1022900064F0DCC065F0DDC066F0DEC067F0DFC072
:1022A00068F0E0C069F04BEC1EF060C0C7F061C0A0
:1022B000C8F0BEEF11F0600027F3D9FF60002BF3E8
:1022C000DAFF6F007BFFF6FF6F0077FFF7FFF86A1A
:1022D0000800F550250AD8A470EF11F072EF11F044
:1022E0008CEF11F0600027F3D9FF60002BF3DAFFC9
:1022F000DE2A000EDD22000E176E250E166EC7C0F8
:1023000018F0C8C019F03CEC2BF0000E0001C86FAB
:10231000010EC76FBEEF11F0600027F3D9FF600018
:102320002BF3DAFFDE2A000EDD22000E0001C86F5B
:10233000000EC76FBEEF11F0600027F3D9FF6000F9
:102340002BF3DAFF6F007BFFF6FF6F0077FFF7FFDD
:10235000F86A0800F550166E176AC7C018F0C8C0B2
:1023600019F03CEC2BF0600027F3D9FF60002BF351
:10237000DAFFDE2A000EDD2285EF11F012000001E7
:102380007051800B756F70517025776F6FAFCBEF09
:1023900011F0CDEF11F0CEEF11F077817751D8B475
:1023A000D4EF11F0D6EF11F0EBEF11F07729D8A4AC
:1023B000DCEF11F0DEEF11F0E6EF11F0000E6D6FC3
:1023C000000E6E6F000E6F6F000E706F6F8F000E3D
:1023D000706FF3EF11F0000E6D6F000E6E6F000E58
:1023E0006F6F000E706F7451800B766F7551761998
:1023F000D8B4FDEF11F0FFEF11F000EF12F0758D82
:1024000074517425766F73AF08EF12F00AEF12F073
:102410000BEF12F076817651D8B411EF12F013EF72
:1024200012F028EF12F07629D8A419EF12F01BEF62
:1024300012F023EF12F0000E716F000E726F000E9B
:10244000736F000E746F738F000E746F30EF12F0A5
:10245000000E716F000E726F000E736F000E746FBE
:102460007751765DD8B037EF12F039EF12F060EFA8
:1024700012F075AD3EEF12F040EF12F042EF12F0A5
:10248000800E751B77C078F076C077F078C076F054
:102490006DC078F071C06DF078C071F06EC078F0EA
:1024A00072C06EF078C072F06FC078F073C06FF0D9
:1024B00078C073F070C078F074C070F078C074F0B9
:1024C000000E786F775176C036F0376A365E000EB0
:1024D000375A37BE75EF12F0375009E11A0E365CE5
:1024E000D8A075EF12F077EF12F0AEEF12F06D5149
:1024F0006E116F117011D8A480EF12F083EF12F0FB
:10250000010E84EF12F0000E786F000E6D6F000E5A
:102510006E6F000E6F6F000E706F76C077F0B7EFC2
:1025200012F078A196EF12F098EF12F09EEF12F0F1
:10253000D89078310109786FA0EF12F0D8907833F5
:102540006DA1A5EF12F0A7EF12F0A8EF12F0788FAF
:10255000703570336F336E336D33772B7651775D13
:10256000D8A0B5EF12F0B7EF12F091EF12F075BDF1
:10257000BCEF12F0BEEF12F0FEEF12F07751D8A4CC
:10258000C4EF12F0C6EF12F0D0EF12F0000E6D6F34
:10259000000E6E6F000E6F6F000E706F1FEF14F065
:1025A00071516D2772516E2373516F2374517023D3
:1025B00070A1DDEF12F0DFEF12F08BEF13F078A1D6
:1025C000E4EF12F0E6EF12F0ECEF12F0D890783171
:1025D0000109786FEEEF12F0D89078336DA1F3EF28
:1025E00012F0F5EF12F0F6EF12F0788F70357033CD
:1025F0006F336E336D33772B8BEF13F071516D5D4D
:1026000072516E5973516F597051800A366E745100
:10261000800A3658D8B00FEF13F011EF13F03CEFEB
:1026200013F06D51715D366E6E517259376E6F5188
:102630007359386E70517459396EFF0E36246D6FB0
:10264000FF0E37206E6FFF0E38206F6FFF0E3920A0
:10265000706F800E751B786D7851D8A432EF13F02F
:1026600034EF13F044EF13F0010E6D27000E6E23CC
:102670006F23702344EF13F071516D5F72516E5BE5
:1026800073516F5B7451705B6D516E116F117011EE
:10269000D8A44DEF13F04FEF13F084EF13F07851FF
:1026A000D8A455EF13F057EF13F084EF13F0000E9A
:1026B0006D6F000E6E6F000E6F6F000E706F1FEF6C
:1026C00014F0D8906D376E376F37703778AF6BEF87
:1026D00013F06DEF13F06EEF13F06D8178A173EFCF
:1026E00013F075EF13F079EF13F0D88078377BEFA4
:1026F00013F0D89078377751D8B481EF13F083EF87
:1027000013F084EF13F077076FAF89EF13F08BEFBF
:1027100013F061EF13F0000E766F78AF92EF13F0C5
:1027200094EF13F0ACEF13F078C036F07F0E36164E
:10273000D8B49DEF13F09FEF13F0A3EF13F0010E49
:10274000766FACEF13F06DA1A8EF13F0AAEF13F0C2
:10275000ACEF13F09FEF13F07651D8B4B2EF13F053
:10276000B4EF13F0DFEF13F0010E6D27000E6E23B0
:102770006F23702370A1BFEF13F0C1EF13F0DFEFF1
:1027800013F06DC036F06EC037F06FC038F070C017
:1027900039F03934393238323732363236C06DF0AA
:1027A00037C06EF038C06FF039C070F07729D8B4F8
:1027B000DCEF13F0DEEF13F0DFEF13F0772B772968
:1027C000D8B4E5EF13F0E7EF13F0EFEF13F0775124
:1027D000D8A4EDEF13F0EFEF13F001EF14F0000EBB
:1027E0006D6F000E6E6F000E6F6F000E706F775181
:1027F000D8A4FDEF13F0FFEF13F001EF14F0000E7B
:10280000756F77A106EF14F008EF14F00BEF14F0DA
:102810006F8F0CEF14F06F9FD8907731706F75AF9A
:1028200014EF14F016EF14F017EF14F0708F6DC062
:102830006DF06EC06EF06FC06FF070C070F012007F
:102840002D50800B0001606F2D502D24666F2CAE33
:102850002CEF14F02EEF14F02FEF14F06681665178
:10286000D8B435EF14F037EF14F04AEF14F06629BE
:10287000D8A43DEF14F03FEF14F047EF14F0000E32
:102880002A6E000E2B6E000E2C6E000E2D6E2C8EFE
:1028900052EF14F0000E2A6E000E2B6E000E2C6EFE
:1028A000000E2D6E3150800B601B31503124616F52
:1028B00030AE5DEF14F05FEF14F060EF14F0618163
:1028C0006151D8B466EF14F068EF14F07BEF14F0A8
:1028D0006129D8A46EEF14F070EF14F078EF14F0C3
:1028E000000E2E6E000E2F6E000E306E000E316E3A
:1028F000308E83EF14F0000E2E6E000E2F6E000E41
:10290000306E000E316E6151D8B489EF14F08BEF48
:1029100014F093EF14F06651D8A491EF14F093EFF4
:1029200014F09DEF14F0000E2A6E000E2B6E000EB8
:102930002C6E000E2D6E47EF16F030502A026F00FD
:10294000CCFF6BF06F00D0FF6CF06B51626F636B6C
:10295000646B656B6C51676F686B696B6A6B2F504A
:102960002B026F00CCFF6BF06F00D0FF6CF06B514F
:102970006227000E6323642365236C516727000ED2
:10298000682369236A232E502C026F00CCFF6BF062
:102990006F00D0FF6CF06B516227000E632364233D
:1029A00065236C516727000E682369236A2364C07E
:1029B00065F063C064F062C063F0626B2E502B025E
:1029C0006F00CCFF6BF06F00D0FF6CF06B51622793
:1029D0006C516323000E6423000E65232F502A02DE
:1029E0006F00CCFF6BF06F00D0FF6CF06B51622773
:1029F0006C516323000E6423000E652364C065F0F0
:102A000063C064F062C063F0626B2E502A026F00F4
:102A1000CCFF6BF06F00D0FF6CF06B5162276C51F4
:102A20006323000E6423000E652330502B026F00D9
:102A3000CCFF6BF06F00D0FF6CF06B5167276C51CF
:102A40006823000E6923000E6A232F502C026F00AA
:102A5000CCFF6BF06F00D0FF6CF06B5167276C51AF
:102A60006823000E6923000E6A2330502C026F0089
:102A7000CCFF6BF06F00D0FF6CF06B51326E6C517D
:102A8000336E346A356A34C035F033C034F032C046
:102A900033F0326A32506727335068233450692349
:102AA00035506A2362C032F063C033F064C034F042
:102AB00065C035F0190E62EF15F0D890353234321A
:102AC00033323232E82E5DEF15F032506727335043
:102AD00068233450692335506A2364C065F063C0AD
:102AE00064F062C063F0626B615166C032F0336AB9
:102AF0003226000E3322820E32246B6FFF0E3320FB
:102B00006C6F98EF15F0D8906737683769376A3778
:102B100065AF8DEF15F08FEF15F090EF15F0678131
:102B2000D89062376337643765376B07D8A06C0776
:102B300069AF9DEF15F09FEF15F083EF15F0000ED4
:102B4000616F65AFA6EF15F0A8EF15F0CCEF15F0AB
:102B5000FF0E6215326EFF0E6315336EFF0E6415A5
:102B6000346E7F0E6515356E3250331034103510CB
:102B7000D8B4BDEF15F0BFEF15F0C3EF15F0010E9F
:102B8000616FCCEF15F067A1C8EF15F0CAEF15F033
:102B9000CCEF15F0BFEF15F06151D8B4D2EF15F0BE
:102BA000D4EF15F0F8EF15F0010E6727000E68233B
:102BB00069236A236AA1DFEF15F0E1EF15F0F8EF62
:102BC00015F067C032F068C033F069C034F06AC0F5
:102BD00035F03534353234323332323232C067F088
:102BE00033C068F034C069F035C06AF06B4B6C2BB1
:102BF0006CBF03EF16F06C5108E16B29D8A003EF0E
:102C000016F005EF16F00FEF16F0000E676F000ECE
:102C1000686F800E696F7F0E6A6F3DEF16F06CBFB4
:102C20001CEF16F06C5106E16B05D8B01AEF16F0E8
:102C30001CEF16F028EF16F0000E676F000E686F9D
:102C4000000E696F000E6A6F000E606F3DEF16F0A8
:102C50006BC066F0FF0E6717FF0E68177F0E6917CF
:102C6000000E6A1766A137EF16F039EF16F03AEF4B
:102C700016F0698FD89066316A6F60516A1367C029
:102C80002AF068C02BF069C02CF06AC02DF0120049
:102C90002D50800B0001646F2D502D246B6F2CAED6
:102CA00054EF16F056EF16F057EF16F06B816B519C
:102CB000D8B45DEF16F05FEF16F074EF16F06B29E5
:102CC000D8A465EF16F067EF16F06FEF16F0000E60
:102CD0002A6E000E2B6E000E2C6E000E2D6E2C8EAA
:102CE000000E2D6E7CEF16F0000E2A6E000E2B6E7D
:102CF000000E2C6E000E2D6E3150800B641B315077
:102D000031246C6F30AE87EF16F089EF16F08AEF42
:102D100016F06C816C51D8B490EF16F092EF16F06B
:102D2000A7EF16F06C29D8A498EF16F09AEF16F0DA
:102D3000A2EF16F0000E2E6E000E2F6E000E306EFB
:102D4000000E316E308E000E316EAFEF16F0000EB9
:102D50002E6E000E2F6E000E306E000E316E2E5055
:102D60002F1030103110D8A4B8EF16F0BAEF16F0CB
:102D7000D2EF16F0000E2A6E000E2B6E000E2C6E97
:102D8000000E2D6E800E2C127F0E2D1264512D120E
:102D90002AC02AF02BC02BF02CC02CF02DC02DF017
:102DA00015EF18F06B51D8A4D8EF16F0DAEF16F043
:102DB000E4EF16F0000E2A6E000E2B6E000E2C6E45
:102DC000000E2D6E15EF18F06C516BC032F0336AA7
:102DD000325E000E335A7F0E3224656F000E3320B0
:102DE000666F2AC060F02BC061F02CC062F02DC06D
:102DF00063F0000E2A6E000E2B6E000E2C6E000E7D
:102E00002D6E000E676F000E686F000E696F000E6A
:102E10006A6F000E6C6F45EF17F06C51D8B413EF6A
:102E200017F015EF17F02CEF17F0D89060376137D7
:102E300062376337D8902A362B362C362D366AAF58
:102E400024EF17F026EF17F027EF17F02A80D8901D
:102E50006737683769376A372E50605D2F50615980
:102E60003050625931506359D8A039EF17F03BEF19
:102E700017F044EF17F06A8D2E50605F2F50615BA2
:102E80003050625B3150635B6C2B190E6C654BEFFD
:102E900017F04DEF17F00DEF17F06051611162114F
:102EA0006311D8B456EF17F058EF17F070EF17F022
:102EB000678170EF17F0D8902A362B362C362D36D6
:102EC0006AAF65EF17F067EF17F068EF17F02A8029
:102ED000D8906737683769376A376507D8A06607BB
:102EE0002CAE75EF17F077EF17F05BEF17F0000ED1
:102EF0006C6F6AAF7EEF17F080EF17F0A4EF17F05A
:102F0000FF0E6715326EFF0E6815336EFF0E6915E2
:102F1000346E7F0E6A15356E325033103410351012
:102F2000D8B495EF17F097EF17F09BEF17F0010E5D
:102F30006C6FA4EF17F02AA0A0EF17F0A2EF17F024
:102F4000A4EF17F097EF17F06C51D8B4AAEF17F071
:102F5000ACEF17F0D0EF17F0010E2A26000E2B224F
:102F60002C222D222DA0B7EF17F0B9EF17F0D0EFDC
:102F700017F02AC032F02BC033F02CC034F02DC033
:102F800035F03534353234323332323232C02AF011
:102F900033C02BF034C02CF035C02DF0654B662BC0
:102FA00066BFDBEF17F0665108E16529D8A0DBEFBB
:102FB00017F0DDEF17F0E8EF17F0000E666F6569A8
:102FC000000E2A6E000E2B6E000E2C6E000E2D6E63
:102FD00066BFF5EF17F0665106E16505D8B0F3EF6F
:102FE00017F0F5EF17F003EF18F0000E666F000E04
:102FF000656F000E2A6E000E2B6E000E2C6E000EFA
:103000002D6E000E646F65C06BF06BA10AEF18F0B7
:103010000CEF18F00FEF18F02C8E10EF18F02C9E1C
:10302000D8906B312D6EC6EF16F0120061EF19F0DB
:103030003A510001F75D0101B86F3B510001F859A9
:103040000101B96F38510001F55D0101BA6F3951C5
:103050000001F6590101BB6FB9BF38EF18F0B95143
:1030600009E11F0EB85DD8A038EF18F03AEF18F05C
:103070005DEF18F0B9BF48EF18F02C0EB85D010EE7
:10308000B959D8B046EF18F048EF18F05DEF18F0D6
:103090003B5107E17D0E3A5DD8B051EF18F053EF88
:1030A00018F05DEF18F0000E0001F96F010EFB6FD4
:1030B000040EFC6F432A80EF19F0BBBF69EF18F0D4
:1030C000BB5109E11F0EBA5DD8A069EF18F06BEF94
:1030D00018F080EF19F0BBBF79EF18F02C0EBA5D35
:1030E000010EBB59D8B077EF18F079EF18F080EFE8
:1030F00019F0395107E17D0E385DD8B082EF18F034
:1031000084EF18F080EF19F0000E0001F96F010E46
:10311000FB6F050EFC6F422A80EF19F00E0E0001C6
:10312000F96595EF18F097EF18F09DEF18F0000E85
:10313000F96F020EFB6F80EF19F0F92B80EF19F099
:10314000130E0001F965A7EF18F0A9EF18F09DEF35
:1031500018F0F85109E12D0EF75DD8A0B2EF18F084
:10316000B4EF18F0CAEF18F0F65109E12D0EF55D35
:10317000D8A0BDEF18F0BFEF18F0CAEF18F02D0E71
:10318000FD5D010EFE59D8A0C8EF18F0CAEF18F087
:1031900080EF19F0000EF96F030EFB6FF5C016F00B
:1031A000F6C017F0F7C014F0F8C015F01AEC2CF0C8
:1031B00014C01CF015C01DF01E6A1F6A000E4AECF8
:1031C00020F01CC0BCF11DC0BDF11EC0BEF11FC06F
:1031D000BFF1BD0E0101AE6F100EAF6FBCC1B0F1FB
:1031E000BDC1B1F1BEC1B2F1BFC1B3F13AEC31F032
:1031F000BCC16DF0BDC16EF0BEC16FF0BFC170F05B
:10320000000E0001716F000E726F000E736F400EA2
:10321000746F81EC25F00001D8A011EF19F013EFC5
:1032200019F021EF19F0880E0101AE6F100EAF6F8B
:103230003AEC31F0000E0101356F000E346F4DEFA6
:1032400019F0000E6D6F000E6E6F000E6F6F000EA6
:10325000706FBCC171F0BDC172F0BEC173F0BFC16F
:1032600074F081EC25F00001D8A039EF19F03BEFA4
:1032700019F044EF19F0960E0101AE6F100EAF6F0A
:103280003AEC31F01AEF19F0000EFC6FCA0E010192
:10329000AE6F100EAF6F3AEC31F0000E0001FC6F14
:1032A00080EF19F00001F951D8B459EF19F05BEF34
:1032B00019F09DEF18F0000EF96F000EFB6F80EF14
:1032C00019F00001FB510101B66FB76BB751000A4D
:1032D000D8B46DEF19F080EF19F0B651000AD8B4E8
:1032E00018EF18F0010AD8B48EEF18F0030AD8B41A
:1032F000A0EF18F0010AD8B452EF19F080EF19F0DE
:10330000F7C03AF1F8C03BF1F5C038F1F6C039F139
:10331000120062C072F063C073F064C074F065C0E4
:1033200075F066C076F067C077F068C078F069C065
:1033300079F0000179BF9FEF19F0A2EF19F0010EAB
:10334000A3EF19F0000E706F716B70517111D8B44A
:10335000ACEF19F0AEEF19F0BEEF19F0791F781F3E
:10336000771F761F751F741F731F726D000E7323F6
:103370007423752376237723782379233BBEC3EF09
:1033800019F0C5EF19F0C6EF19F03C923BBED3EF30
:1033900019F03B5006E13A04D8B0D1EF19F0D3EF61
:1033A00019F0D9EF19F0000E6D6F010E6C6FDDEFA3
:1033B00019F03AC06CF03BC06DF02AC16EF02BC121
:1033C0006FF070517111D8A4E8EF19F0EAEF19F01D
:1033D000F1EF19F03CA4EFEF19F0F1EF19F0F4EF71
:1033E00019F06E07D8A06F07000E7B6F4F0E7A6F33
:1033F000000E0101946F7AEF1AF07A07D8A07B07CC
:10340000450E7A25D96E010E7B21DA6E72C014F05A
:1034100073C015F074C016F075C017F076C018F0C0
:1034200077C019F078C01AF079C01BF00A0E1C6E34
:10343000000E1D6E000E1E6E000E1F6E000E206E22
:10344000000E216E000E226E000E236EE8EC21F0BD
:1034500014C031F015C032F016C033F017C034F08C
:1034600018C035F019C036F01AC037F01BC038F05C
:1034700031C026F033C027F079EC2EF02650300F03
:10348000DF6E00016C07D8A06D076E07D8A06F072C
:1034900072C014F073C015F074C016F075C017F048
:1034A00076C018F077C019F078C01AF079C01BF018
:1034B0000A0E1C6E000E1D6E000E1E6E000E1F6E9C
:1034C000000E206E000E216E000E226E000E236E86
:1034D00024EC21F014C072F015C073F016C074F023
:1034E00017C075F018C076F019C077F01AC078F0E0
:1034F0001BC079F000017BBF86EF1AF07B5108E119
:103500007A05D8A086EF1AF088EF1AF0B8EF1AF013
:103510007251731174117511761177117811791137
:10352000D8A495EF1AF097EF1AF0FDEF19F06DBFE0
:10353000A4EF1AF06D5106E16C05D8B0A2EF1AF0B5
:10354000A4EF1AF0FDEF19F06FBFAFEF1AF06F5153
:1035500008E16E05D8A0AFEF1AF0B1EF1AF0B8EF9E
:103560001AF03CB2B6EF1AF0B8EF1AF0FDEF19F00E
:1035700070517111D8A4BFEF1AF0C1EF1AF0C8EF63
:103580001AF03CA4C6EF1AF0C8EF1AF0E7EF1AF0F1
:103590007A07D8A07B0770517111D8A4D2EF1AF026
:1035A000D4EF1AF0DAEF1AF0000E6B6F2B0E6A6F81
:1035B000DEEF1AF0000E6B6F2D0E6A6F450E7A2546
:1035C000D96E010E7B21DA6E6000ABF1DFFF60C0C7
:1035D00026F061C027F0450E7A25286E010E7B216A
:1035E000296E6EC02AF06FC02BF07BEC29F026C04C
:1035F00060F027C061F012000001F551F75D010194
:10360000B86F0001F651F8590101B96F30EF1BF0A6
:10361000B9BF14EF1BF0B95109E1290EB85DD8A06C
:1036200014EF1BF016EF1BF01CEF1BF0000EB96F30
:10363000280EB86FD2EF1BF0B9AF28EF1BF0D80EF1
:10364000B85DFF0EB959D8B028EF1BF02AEF1BF078
:103650004FEF1BF0FF0EB96FD80EB86FD2EF1BF013
:103660000001FC510101B66FB76BB751000AD8B425
:103670003CEF1BF0D2EF1BF0B651000AD8B408EFB4
:103680001BF0010AD8B408EF1BF0050AD8B408EF04
:103690001BF0010AD8B408EF1BF0D2EF1BF0D2EFF9
:1036A0001BF0B8C183F0B9C184F0020E0001856F30
:1036B0004FEC1FF001EF1CF0B8C183F0B9C184F0EA
:1036C000030E0001856F4FEC1FF001EF1CF0FF0EA1
:1036D0000001846FCE0E836F000E856F4FEC1FF0DC
:1036E00001EF1CF0000E0001846F320E836F000E9C
:1036F000856F4FEC1FF001EF1CF0020E0001FB196B
:10370000D8A485EF1BF087EF1BF05CEF1BF0000ED9
:10371000846F320E836F020E856F4FEC1FF001EF46
:103720001CF0020E0001FB19D8A499EF1BF09BEFCF
:103730001BF05CEF1BF0FF0E846FCE0E836F020E4A
:10374000856F4FEC1FF001EF1CF00001F7513208BC
:103750000101B86F0001F851D8A0E82A0008010162
:10376000B96F5CEF1BF00001F55132080101B86F31
:103770000001F651D8A0E82A00080101B96FB8C1CC
:10378000B6F1B9C1B7F1B61FB71FB64BB72BB6C16B
:1037900083F0B7C184F0030E0001856F4FEC1FF07A
:1037A00001EF1CF00001FC510101B66FB76BB7517E
:1037B000000AD8B4DEEF1BF001EF1CF0B651000A8E
:1037C000D8B45CEF1BF0010AD8B451EF1BF0030A28
:1037D000D8B467EF1BF0010AD8B472EF1BF0070AE8
:1037E000D8B47DEF1BF0010AD8B491EF1BF0030AA7
:1037F000D8B4A5EF1BF0010AD8B4B3EF1BF001EF6A
:103800001CF0060E0001FC19D8B409EF1CF00BEFF8
:103810001CF014EF1CF0070EFC19D8A412EF1CF0DA
:1038200014EF1CF032EF1CF00101355109E1640E78
:10383000345DD8A01EEF1CF020EF1CF030EF1CF020
:10384000000E0001FC6F000E0101356F000E346F99
:10385000B00EAE6F100EAF6F3AEC31F032EF1CF0DD
:10386000344B352B1200000E0001886F000E876F5D
:10387000E9EF1CF0FE5109E11F0EFD5DD8A043EFFA
:103880001CF045EF1CF047EF1CF0000EFC6F41BE32
:1038900053EF1CF0415009E1740E405CD8A053EF87
:1038A0001CF055EF1CF016EF1DF040C087F041C032
:1038B00088F0FE5107E10F0EFD5DD8B062EF1CF0FD
:1038C00064EF1CF06AEF1CF0FC0E8727FF0E8823C4
:1038D00016EF1DF0FE0E8727FF0E882316EF1DF052
:1038E000FE5107E11E0EFD5DD8B079EF1CF07BEFB5
:1038F0001CF07DEF1CF0010EFC6FFE5109E1960EED
:10390000FD5DD8A086EF1CF088EF1CF0D1EF1CF015
:10391000000E716F800E726F890E736F430E746F9D
:10392000000E2E6E000E2F6E000E306E000E316EE9
:103930006A0E836FFF0E846FFDC085F0FEC086F0B7
:10394000835185278451862385C01CF086C01DF0D5
:103950001E6A1F6A000E4AEC20F01CC02AF01DC02F
:103960002BF01EC02CF01FC02DF020EC14F02AC04C
:103970006DF02BC06EF02CC06FF02DC070F0BFEC5E
:1039800011F06DC079F06EC07AF06FC07BF070C03E
:103990007CF0FDEC24F079C087F07AC088F016EF57
:1039A0001DF0010E886F130E876F16EF1DF0FF0ECE
:1039B000886F830E876F16EF1DF0000E886FC80E9C
:1039C000876F16EF1DF0000E886FFA0E876F16EFE7
:1039D0001DF0FC51836F846B8451000AD8B4F3EF5F
:1039E0001CF016EF1DF08351000AD8B470EF1CF0E4
:1039F000010AD8B43AEF1CF0030AD8B4D7EF1CF090
:103A0000010AD8B4D7EF1CF0070AD8B4DDEF1CF0D8
:103A1000010AD8B4DDEF1CF0030AD8B4E3EF1CF0C0
:103A2000010AD8B4E3EF1CF016EF1DF0000188BFC7
:103A300023EF1DF0910E875D010E8859D8A023EF6A
:103A40001DF025EF1DF029EF1DF0010E886F900E7F
:103A5000876F88AF35EF1DF0060E875DFF0E885922
:103A6000D8B035EF1DF037EF1DF03BEF1DF0FF0E26
:103A7000886F060E876F87C040F088C041F0120043
:103A800018C179F019C17AF01AC17BF01BC17CF022
:103A900036C079F037C07AF038C07BF039C07CF09E
:103AA000810E00016D6FFF0E6E6F79C06FF07AC0EE
:103AB00070F07BC071F07CC072F0180E65EF1DF0E5
:103AC000D8907233713370336F33E82E60EF1DF08E
:103AD0006F516D25776F000E6E21786F78BF7AEF8A
:103AE0001DF0785109E1170E775DD8A07AEF1DF02F
:103AF0007CEF1DF086EF1DF036C036F037C037F092
:103B000038C038F039C039F04AEF1EF078BF8BEF7B
:103B10001DF08DEF1DF0FEEF1DF077C06DF0FF0E74
:103B20006E6FFF0E6F6F7F0E706F000E716F6D679F
:103B30009CEF1DF0A4EF1DF07135713370336F33BE
:103B40006E336D2F97EF1DF06EC073F06FC074F081
:103B500070C075F071C076F00001735179156D6F0A
:103B600074517A156E6F75517B156F6F76517C1598
:103B7000706F6D516E116F117011D8A4C2EF1DF0EE
:103B8000C4EF1DF0C6EF1DF07CEF1DF079C06DF0A5
:103B90007AC06EF07BC06FF07CC070F0200ED6EF64
:103BA0001DF0D89070336F336E336D33E82ED1EF44
:103BB0001DF06D516E116F117011D8B4E2EF1DF050
:103BC000E4EF1DF0ECEF1DF07351792774517A2367
:103BD00075517B2376517C23731D6D6F741D6E6F41
:103BE000751D6F6F761D706F6D5179176E517A1755
:103BF0006F517B1770517C1742EF1EF079C06DF04A
:103C00007AC06EF07BC06FF07CC070F0200E0EEFBB
:103C10001EF0D89070336F336E336D33E82E09EF9A
:103C20001EF06D516E116F117011D8A41AEF1EF0B5
:103C30001CEF1EF026EF1EF0000E796F000E7A6F5B
:103C4000000E7B6F000E7C6F42EF1EF0D89079352E
:103C50006D6F7A356E6F7B356F6F7C35706F6D5120
:103C60006E116F117011D8B438EF1EF03AEF1EF0DC
:103C700042EF1EF0000E796F000E7A6F800E7B6FA0
:103C8000BF0E7C6F79C036F07AC037F07BC038F059
:103C90007CC039F012003BBE50EF1EF052EF1EF018
:103CA00053EF1EF03C923BBE60EF1EF03B5006E12E
:103CB0003A04D8B05EEF1EF060EF1EF067EF1EF022
:103CC000000E00016B6F010E6A6F6BEF1EF03AC0C1
:103CD0006AF03BC06BF02AC16CF02BC16DF062C082
:103CE0006EF063C06FF064C070F065C071F066C0C4
:103CF00072F067C073F068C074F069C075F0000EB0
:103D00000001776F4F0E766F000E0101946F00EF88
:103D10001FF07607D8A07707450E7625D96E010EDD
:103D20007721DA6E6EC014F06FC015F070C016F017
:103D300071C017F072C018F073C019F074C01AF097
:103D400075C01BF00A0E1C6E000E1D6E000E1E6E5E
:103D5000000E1F6E000E206E000E216E000E226EF1
:103D6000000E236EE6EC27F014C031F015C032F0DF
:103D700016C033F017C034F018C035F019C036F053
:103D80001AC037F01BC038F03150300FDF6E000121
:103D90006A07D8A06B076C07D8A06D076EC014F037
:103DA0006FC015F070C016F071C017F072C018F037
:103DB00073C019F074C01AF075C01BF00A0E1C6EA7
:103DC000000E1D6E000E1E6E000E1F6E000E206E89
:103DD000000E216E000E226E000E236EFDEC26F00A
:103DE00014C06EF015C06FF016C070F017C071F0FF
:103DF00018C072F019C073F01AC074F01BC075F0CF
:103E0000000176517711D8B408EF1FF00AEF1FF0C8
:103E10003AEF1FF06E516F11701171117211731121
:103E200074117511D8A417EF1FF019EF1FF089EF67
:103E30001EF06BBF26EF1FF06B5106E16A05D8B08C
:103E400024EF1FF026EF1FF089EF1EF06DBF31EF5A
:103E50001FF06D5108E16C05D8A031EF1FF033EF72
:103E60001FF03AEF1FF03CB238EF1FF03AEF1FF0AF
:103E700089EF1EF060C026F061C027F0450E762560
:103E8000286E010E7721296E6CC02AF06DC02BF0D0
:103E90007BEC29F026C060F027C061F01200000E14
:103EA00000018B6F000E8A6FCAEF1FF083C088F08D
:103EB00084C089F083C086F084C087F0861F871F86
:103EC000864B872B86C08AF087C08BF0EBEF1FF004
:103ED00083C088F084C089F083C08AF084C08BF0EE
:103EE000EBEF1FF083C088F084C089F0000E2E6EC7
:103EF000000E2F6EA00E306E3F0E316E83C086F026
:103F000084C087F0861F871F864B872B86C01CF0D6
:103F100087C01DF0000E1DBEFF0E1E6E1F6E010E2F
:103F20004AEC20F01CC02AF01DC02BF01EC02CF063
:103F30001FC02DF048EC16F02AC079F02BC07AF0A3
:103F40002CC07BF02DC07CF0FDEC24F079C08AF011
:103F50007AC08BF0EBEF1FF083C088F084C089F04B
:103F6000000E8B6F000E8A6FEBEF1FF0000E896F53
:103F7000000E886F83C08AF084C08BF0EBEF1FF0D7
:103F8000000E896F000E886F000E8B6F000E8A6F17
:103F9000EBEF1FF08551866F876B8751000AD8B40D
:103FA000D4EF1FF0C0EF1FF08651000AD8B456EFCF
:103FB0001FF0010AD8B468EF1FF0030AD8B472EFFB
:103FC0001FF0010AD8B4ACEF1FF0070AD8B4B6EF5F
:103FD0001FF0C0EF1FF0000189BFF8EF1FF08951FB
:103FE00009E1420E885DD8A0F8EF1FF0FAEF1FF04C
:103FF00000EF20F0000E896F410E886F12EF20F065
:1040000089AF0CEF20F0BF0E885DFF0E8959D8B044
:104010000CEF20F00EEF20F012EF20F0FF0E896F72
:10402000BF0E886F8BBF1EEF20F08B5109E1290E68
:104030008A5DD8A01EEF20F020EF20F026EF20F0C0
:10404000000E8B6F280E8A6F38EF20F08BAF32EFA7
:1040500020F0D80E8A5DFF0E8B59D8B032EF20F0D9
:1040600034EF20F038EF20F0FF0E8B6FD80E8A6F00
:10407000600E8825146E010E8921156EB6EC2FF0A6
:10408000650E00018A25146E010E8B21156ED0EC91
:104090002FF01200246E2450D8B451EF20F053EFCB
:1040A00020F075EF20F01FBE5AEF20F058EF20F0FF
:1040B00075EF20F01CC020F01DC021F01EC022F0C2
:1040C0001FC023F0201E211E221E231E202A000EA8
:1040D00021222222232220C026F021C027F022C044
:1040E00028F023C029F07DEF20F01CC026F01DC071
:1040F00027F01EC028F01FC029F01C501D101E10F4
:104100001F10D8A486EF20F088EF20F092EF20F067
:10411000000E1C6E000E1D6E000E1E6E000E1F6E39
:1041200023EF21F0960E256E9CEF20F0252AD890E3
:104130002932283227322632000E2614206E000E35
:104140002714216E000E2814226EFE0E2914236EF1
:104150002050211022102310D8A4B1EF20F0B3EF8B
:1041600020F096EF20F0C1EF20F0252A010E262640
:10417000000E272228222922D890293228322732DD
:104180002632000E2614206E000E2714216E000E1B
:104190002814226EFF0E2914236E205021102210A5
:1041A0002310D8A4D6EF20F0D8EF20F0B5EF20F000
:1041B000E0EF20F02506D890263627362836293617
:1041C00028BEE5EF20F0E7EF20F0EFEF20F0020E41
:1041D0002560EDEF20F0EFEF20F0DAEF20F025B0D2
:1041E000F4EF20F0F6EF20F0F7EF20F0289ED890C3
:1041F000253225C020F0216A226A236A20C023F0DC
:10420000226A216A206A2050261221502712225049
:104210002812235029122450D8B411EF21F013EFA3
:1042200021F01BEF21F01FBE1AEF21F018EF21F053
:104230001BEF21F0298E26C01CF027C01DF028C0DE
:104240001EF029C01FF01200000E256E23BE2DEFB8
:1042500021F02BEF21F03FEF21F0231E221E211E23
:10426000201E1F1E1E1E1D1E1C6C000E1D221E2247
:104270001F222022212222222322010E256E1BBE74
:1042800046EF21F044EF21F058EF21F01B1E1A1EDB
:10429000191E181E171E161E151E146C000E152250
:1042A00016221722182219221A221B22010E251A61
:1042B00020EE26F0070EDE6AE806FDE21C501D1017
:1042C0001E101F102010211022102310D8B46BEFE5
:1042D00021F06DEF21F0BFEF21F0010E246E7BEF96
:1042E00021F0D8901C361D361E361F36203621365A
:1042F00022362336242A23AE80EF21F082EF21F0EC
:1043000071EF21F0D89026362736283629362A36FE
:104310002B362C362D361C50145C1D5015581E5053
:1043200016581F501758205018582150195822500D
:104330001A5823501B58D8A0A0EF21F0A2EF21F06B
:10434000B3EF21F01C50145E1D50155A1E50165A22
:104350001F50175A2050185A2150195A22501A5AD1
:1043600023501B5A2680D890233222322132203209
:104370001F321E321D321C32242E82EF21F02550B6
:10438000D8B4C5EF21F0C7EF21F0D7EF21F02D1EF3
:104390002C1E2B1E2A1E291E281E271E266C000ED0
:1043A0002722282229222A222B222C222D2226C013
:1043B00014F027C015F028C016F029C017F02AC045
:1043C00018F02BC019F02CC01AF02DC01BF01200F1
:1043D000000E256E1BBEF1EF21F0EFEF21F003EF91
:1043E00022F01B1E1A1E191E181E171E161E151E41
:1043F000146C000E152216221722182219221A22D6
:104400001B22010E256E23BE0AEF22F008EF22F0D8
:104410001AEF22F0231E221E211E201E1F1E1E1E0A
:104420001D1E1C6C000E1D221E221F222022212276
:10443000222223221C501D101E101F10201021109C
:1044400022102310D8B427EF22F029EF22F071EFC9
:1044500022F0010E246E37EF22F0D8901C361D3664
:104460001E361F362036213622362336242A23AE26
:104470003CEF22F03EEF22F02DEF22F01C50145CB6
:104480001D5015581E5016581F50175820501858B8
:104490002150195822501A5823501B58D8A053EFB6
:1044A00022F055EF22F065EF22F01C50145E1D50F3
:1044B000155A1E50165A1F50175A2050185A21507C
:1044C000195A22501A5A23501B5AD890233222329A
:1044D000213220321F321E321D321C32242E3EEF7A
:1044E00022F02550D8B477EF22F079EF22F089EF4F
:1044F00022F01B1E1A1E191E181E171E161E151E30
:10450000146C000E152216221722182219221A22C4
:104510001B2214C014F015C015F016C016F017C0F9
:1045200017F018C018F019C019F01AC01AF01BC003
:104530001BF012000001FE5107E10F0EFD5DD8B027
:10454000A4EF22F0A6EF22F0ABEF22F001013C4BEA
:104550003D2BC2EF22F0020EFC19D8B4B2EF22F0CC
:10456000B4EF22F0C2EF22F0030EFC19D8B4BBEF77
:1045700022F0BDEF22F0C2EF22F0000E01013D6FEC
:10458000000E3C6F01013D5109E1330E3C5DD8A0A6
:10459000CCEF22F0CEEF22F040EF23F02E4B2F2B6A
:1045A000020E0001FC19D8B4D8EF22F0DAEF22F0A5
:1045B00004EF23F0030EFC19D8B4E1EF22F0E3EF8F
:1045C00022F004EF23F0F751F55DF851F659D8B019
:1045D000ECEF22F0EEEF22F0FAEF22F07A0E01017A
:1045E000AE6F100EAF6F3AEC31F0020E0001FC6FAF
:1045F00004EF23F0A30E0101AE6F100EAF6F3AEC83
:1046000031F0030E0001FC6FFE5107E1240EFD5D49
:10461000D8B00DEF23F00FEF23F01EEF23F00101D0
:104620002FBF1CEF23F02D0E2E5D010E2F59D8A0A9
:104630001CEF23F01EEF23F040EF23F06C0E01017E
:10464000AE6F100EAF6F3AEC31F00001F751F55D2F
:10465000F851F659D8B02FEF23F031EF23F035EFB2
:1046600023F0040EFC6F37EF23F0050EFC6F000EF5
:1046700001013D6F000E3C6F000E2F6F000E2E6F7C
:10468000120087EC2BF022C03EF023C03FF03E50DA
:10469000405C0001856F3F504158866F01013051E9
:1046A0003E5C0001876F010131513F580001886F66
:1046B0000A0E2E6ED70E2F6EA30E306E3C0E316E8C
:1046C000000E176E020E166E87C014F088C015F02B
:1046D00019EC29F085C083F086C084F014500001E5
:1046E000835F1550845B83C01CF084C01DF0000EF6
:1046F0001DBEFF0E1E6E1F6E010E4AEC20F01CC088
:104700002AF01DC02BF01EC02CF01FC02DF020EC95
:1047100014F02AC079F02BC07AF02CC07BF02DC0A9
:104720007CF0FDEC24F000017951896F8951800AF9
:104730007C0FD8A09EEF23F0A0EF23F0A4EF23F08E
:10474000030E896FB0EF23F08951800A830FD8B030
:10475000ACEF23F0AEEF23F0B0EF23F0FD0E896F46
:104760008951F127000E89BFFF0EF223F2BFC2EF7D
:1047700023F0BD0EF15D020EF259D8A0C2EF23F076
:10478000C4EF23F0CAEF23F0020EF26FBC0EF16FFC
:10479000DCEF23F0F2AFD6EF23F0700EF15DFE0EEA
:1047A000F259D8B0D6EF23F0D8EF23F0DCEF23F0A6
:1047B000FE0EF26F700EF16FF1C018F0F2C019F03A
:1047C00075EC27F03EC030F13FC031F11200000E11
:1047D000196E000E186E75EC27F0000E0001846F44
:1047E000000E836F030E856F4FEC1FF0CBB8FBEF0D
:1047F00023F0FDEF23F0F6EF23F00001FA51D8B4D7
:1048000004EF24F006EF24F0FDEF23F0000EFA6F22
:10481000F1EC31F02CC11CF02DC11DF01E6A1F6A95
:10482000000E4AEC20F01CC06DF01DC06EF01EC0E2
:104830006FF01FC070F0A40E0001716F700E726FE8
:104840003D0E736F450E746F81EC25F00001D8A00A
:104850002CEF24F02EEF24F0FDEF23F0F7C03AF117
:10486000F8C03BF1F5C038F1F6C039F1000EFA6F2F
:104870000001FA51D8B43FEF24F041EF24F038EFB3
:1048800024F0000EFA6FCBBA48EF24F04AEF24F080
:104890005CEF24F0000E416E000E406E000EF26FD1
:1048A000000EF16F000E846F000E836F030E856F94
:1048B0004FEC1FF076EF24F0D1EC2BF00009D8B4C8
:1048C00064EF24F066EF24F068EF24F076EF24F034
:1048D00016EC18F09AEC22F0FCEC1AF033EC1CF019
:1048E00041EC23F04EEC28F038EF24F01200000EDB
:1048F0001D6E1BBE80EF24F07EEF24F08AEF24F0C3
:104900001B1E1A1E191E186C000E19221A221B22B9
:10491000010E1D6E17BE91EF24F08FEF24F09BEF78
:1049200024F0171E161E151E146C000E15221622DA
:104930001722010E1D1A000E1E6E000E1F6E000EB5
:10494000206E000E216E185019101A101B10D8B4CA
:10495000ACEF24F0AEEF24F0E4EF24F0010E1C6E77
:10496000B8EF24F0D890183619361A361B361C2AA0
:104970001BAEBDEF24F0BFEF24F0B2EF24F0D890CF
:104980001E361F36203621361850145C1950155823
:104990001A5016581B501758D8A0D1EF24F0D3EF57
:1049A00024F0DCEF24F01850145E1950155A1A50F8
:1049B000165A1B50175A1E80D8901B321A321932C1
:1049C00018321C2EBFEF24F01D50D8B4EAEF24F0AB
:1049D000ECEF24F0F4EF24F0211E201E1F1E1E6CAD
:1049E000000E1F22202221221EC014F01FC015F02D
:1049F00020C016F021C017F0120000017B357C3575
:104A0000826F8251D8A407EF25F009EF25F013EF4C
:104A100025F0000E796F000E7A6F000E7B6F000E8E
:104A20007C6F80EF25F079C07DF07AC07EF07BC08E
:104A30007FF07CC080F0200E23EF25F0D8908033EB
:104A40007F337E337D33E82E1EEF25F07D51816F5D
:104A50007B8FFF0E7917FF0E7A17FF0E7B17000E64
:104A60007C17960E825F82BF3AEF25F038EF25F073
:104A700050EF25F08251800A970FD8B042EF25F011
:104A800044EF25F046EF25F009EF25F0D8907C3370
:104A90007B337A337933823F46EF25F068EF25F098
:104AA0001F0E826556EF25F058EF25F060EF25F0D8
:104AB00009EF25F0D89079377A377B377C37820732
:104AC0008251D8A466EF25F068EF25F05AEF25F063
:104AD0008151D8B46EEF25F070EF25F078EF25F016
:104AE0007C1F7B1F7A1F796D000E7A237B237C232A
:104AF00079C079F07AC07AF07BC07BF07CC07CF022
:104B00001200000E00016D15366E000E6E15376E28
:104B1000800E6F15386E7F0E7015396E3650371057
:104B200038103910D8A497EF25F099EF25F0A1EFB0
:104B300025F0000E6D6F000E6E6F000E6F6F000E91
:104B4000706F000E7115366E000E7215376E800E86
:104B50007315386E7F0E7415396E36503710381055
:104B60003910D8A4B6EF25F0B8EF25F0C0EF25F046
:104B7000000E716F000E726F000E736F000E746F77
:104B800070AFC5EF25F0C7EF25F0D0EF25F06D6DC4
:104B90006E1FD8B06E2B6F1FD8B06F2B800E705762
:104BA00074AFD5EF25F0D7EF25F0E0EF25F0716D6C
:104BB000721FD8B0722B731FD8B0732B800E74572E
:104BC000000E6D1B000E6E1B000E6F1B800E701B07
:104BD000000E711B000E721B000E731B800E741BE7
:104BE00071516D5D72516E5973516F597451705995
:104BF000D8B0FDEF25F0FFEF25F002EF26F0D890BA
:104C000003EF26F0D88012001CC11EF01DC11FF05A
:104C10001EC120F01FC121F014C01EF015C01FF0EE
:104C200016C020F017C021F01EC018F01FC019F0E8
:104C300020C01AF021C01BF0180E24EF26F0D890E7
:104C40001B321A3219321832E82E1FEF26F0185094
:104C50001C6E1D6A1C501D10D8A431EF26F033EFD6
:104C600026F053EF26F0D8901E34186E1F34196EBC
:104C700020341A6E21341B6E185019101A101B1094
:104C8000D8A445EF26F047EF26F04DEF26F0000EB2
:104C9000156E020E146E82EF26F0000E156E030ED6
:104CA000146E82EF26F01C281D10D8A45AEF26F0AF
:104CB0005CEF26F07EEF26F01EC018F01FC019F042
:104CC00020C01AF021C01BF0090ED89018361936F2
:104CD0001A361B36E82E65EF26F0185019101A10F8
:104CE0001B10D8B476EF26F079EF26F0010E7AEF9C
:104CF00026F0000E146E156A82EF26F0000E156E77
:104D0000040E146E120014C01BF015C01CF016C067
:104D10001DF017C01EF01806D8A01906182806E1C5
:104D20001928D8A496EF26F098EF26F0A5EF26F0E4
:104D3000000E156E000E146EFCEF26F01B4A1C2AA6
:104D40001D4A1E2A1806D8A0190660006FF0D9FF68
:104D5000600073F0DAFFDF50D8B4B1EF26F0B3EFA4
:104D600026F0E6EF26F0600077F0F6FF60007BF0BB
:104D7000F7FFF86A0800F5500009D8B4C2EF26F032
:104D8000C4EF26F0E6EF26F018501910D8B4CBEF98
:104D900026F0CDEF26F0E6EF26F060006FF0D9FFA9
:104DA000600073F0DAFFDF501A6E600077F0F6FFF4
:104DB00060007BF0F7FFF86A0800F5501A18D8B4C5
:104DC000E4EF26F0E6EF26F09EEF26F060006FF0AD
:104DD000D9FF600073F0DAFFDF501A6E600077F0E1
:104DE000F6FF60007BF0F7FFF86A0800F5501A5CE8
:104DF000146E156AD8A01506120020EE24F0070ED6
:104E0000DE6AE806FDE21C501D101E101F10201067
:104E1000211022102310D8B410EF27F012EF27F042
:104E200064EF27F0010E2C6E20EF27F0D8901C368F
:104E30001D361E361F3620362136223623362C2AC2
:104E400023AE25EF27F027EF27F016EF27F0D890B5
:104E50002436253626362736283629362A362B3666
:104E60001C50145C1D5015581E5016581F501758D2
:104E7000205018582150195822501A5823501B58A6
:104E8000D8A045EF27F047EF27F058EF27F01C5048
:104E9000145E1D50155A1E50165A1F50175A205096
:104EA000185A2150195A22501A5A23501B5A24803A
:104EB000D89023322232213220321F321E321D324C
:104EC0001C322C2E27EF27F024C014F025C015F03B
:104ED00026C016F027C017F028C018F029C019F016
:104EE0002AC01AF02BC01BF0120019BE81EF27F068
:104EF000195009E1640E185CD8A081EF27F083EF08
:104F000027F0A3EF27F019BE8FEF27F0BD0E185C36
:104F1000020E1958D8A08FEF27F091EF27F095EFE8
:104F200027F0020E196EBC0E186E18C014F019C0CE
:104F300015F004EC30F0000E156E000E146EEAEC65
:104F40002FF0E5EF27F019AEAFEF27F09D0E185CBC
:104F5000FF0E1958D8B0AFEF27F0B1EF27F0D9EF17
:104F600027F019AEBDEF27F0700E185CFE0E195831
:104F7000D8B0BDEF27F0BFEF27F0C3EF27F0FE0E4C
:104F8000196E700E186E000E156E000E146E04EC85
:104F900030F018C01AF019C01BF01A1E1B1E1A4A56
:104FA0001B2A1AC014F01BC015F0EAEC2FF0E5EF35
:104FB00027F0000E156E000E146E04EC30F0000E9B
:104FC000156E000E146EEAEC2FF012001C501D102E
:104FD0001E101F102010211022102310D8B4F3EF40
:104FE00027F0F5EF27F03DEF28F0010E246E03EFD8
:104FF00028F0D8901C361D361E361F362036213636
:1050000022362336242A23AE08EF28F00AEF28F0B0
:10501000F9EF27F01C50145C1D5015581E501658FF
:105020001F501758205018582150195822501A58FC
:1050300023501B58D8A01FEF28F021EF28F031EFA4
:1050400028F01C50145E1D50155A1E50165A1F5041
:10505000175A2050185A2150195A22501A5A2350C0
:105060001B5AD89023322232213220321F321E3274
:105070001D321C32242E0AEF28F014C014F015C083
:1050800015F016C016F017C017F018C018F019C0A8
:1050900019F01AC01AF01BC01BF01200E10E00013B
:1050A000FD5D010EFE59D8A058EF28F05AEF28F008
:1050B000B3EF28F0F50EF35D010EF459D8A063EFBD
:1050C00028F065EF28F0B3EF28F0000E176E640E9D
:1050D000166EF3C014F0F4C015F01AEC2CF014C0E6
:1050E0001CF015C01DF01E6A1F6A000E4AEC20F06D
:1050F0001CC0B6F11DC0B7F11EC0B8F11FC0B9F198
:105100001B0E0101AE6F100EAF6F3AEC31F0010EC5
:105110000101AE6F100EAF6F43C0B0F1B16B3AEC4E
:1051200031F0330E0101AE6F100EAF6F42C0B0F11F
:10513000B16B3AEC31F05C0E0101AE6F100EAF6F47
:10514000B6C1B0F1B7C1B1F1B8C1B2F1B9C1B3F1F3
:105150003AEC31F0000E0001F46F000EF36F000E18
:10516000426E000E436E1200000EBE6E000EBD6E4B
:10517000240EBA6E000EBB6E000EBC6E070EC66E1D
:10518000C00EC26EF70EC36EC468C5681F0E3A012A
:10519000706F6069C00E506F070E806F7F0E406F9A
:1051A000000E716F000E816F000E516F000E416F87
:1051B000000E616F000E5A6F000E5B6F000E6A6F7B
:1051C000000E6B6F000E7A6F000E7B6F000E826F09
:1051D000000E426F000E526F000E626F000E726F73
:1051E0004369536963697369070E836F446954693E
:1051F000646974690F0E846F1F0ECF6F090EDC6F28
:105200000E0E016F0A0EE56F0D0E006F1D0EC96FB9
:10521000100E046F070ED96F090ED16F0F0E036FBA
:10522000130E0B6F080EDB6F080ED26F1E0ED06FC1
:105230001200000E196E17BE22EF29F020EF29F0A0
:1052400028EF29F0166C171ED8B0172A010E196E18
:1052500015BE2FEF29F02DEF29F035EF29F0146C52
:10526000151ED8B0152A010E191A000E1B6E000E5D
:105270001A6E16501710D8B440EF29F042EF29F0FB
:105280006AEF29F0010E186E4AEF29F0D890163611
:105290001736182A17AE4FEF29F051EF29F046EFD5
:1052A00029F0D8901A361B361650145C1750155832
:1052B000D8A05DEF29F05FEF29F064EF29F01650D8
:1052C000145E1750155A1A80D89017321632182EBD
:1052D00051EF29F01950D8B470EF29F072EF29F08E
:1052E00076EF29F01A6C1B1ED8B01B2A1AC014F0D6
:1052F0001BC015F012003CA080EF29F082EF29F0CE
:105300008CEF29F028C01FF029C020F026C021F022
:1053100027C022F057EC2EF02BBE91EF29F093EF2F
:1053200029F099EF29F02AC02FF02BC030F09DEF23
:1053300029F0000E306E000E2F6E000E2E6E000E45
:105340002D6EAFEF29F0000E176E200E166E26C0E0
:1053500018F027C019F03CEC2BF02D4A2E2A2F50C4
:105360002D5C2E50800A2C6E3050800A2C58D8A00C
:10537000BCEF29F0BEEF29F0A3EF29F03CB0C3EF5A
:1053800029F0C5EF29F0CFEF29F028C01FF029C080
:1053900020F026C021F027C022F057EC2EF028C0C4
:1053A00014F029C015F0B8EC2EF02F501424266EFE
:1053B00030501520276E1200000E4624D96EDA6A8E
:1053C000010EDA22000EDF6E3D01F9A7EAEF29F0A7
:1053D000ECEF29F000EF2AF0000E4624D96EDA6ACD
:1053E000010EDA220101DF8202D800EF2AF0050067
:1053F000FA6EA551FD6EA651FE6EFF6AFA501200BC
:105400003D01F9A306EF2AF008EF2AF01CEF2AF07D
:10541000000E4624D96EDA6A010EDA220101DF8419
:1054200002D81CEF2AF00500FA6EA351FD6EA451BC
:10543000FE6EFF6AFA501200000E4624D96EDA6A38
:10544000010EDA22DF50D8B428EF2AF02AEF2AF032
:1054500039EF2AF002D837EF2AF00500FA6E010181
:10546000A151FD6EA251FE6EFF6AFA5012003BEF91
:105470002AF00EEC31F01200000E196E15BE45EF49
:105480002AF043EF2AF04BEF2AF0146C151ED8B027
:10549000152A010E196E17BE52EF2AF050EF2AF0AE
:1054A00056EF2AF0166C171ED8B0172A1650171090
:1054B000D8B45DEF2AF05FEF2AF083EF2AF0010EF7
:1054C000186E67EF2AF0D89016361736182A17AEDE
:1054D0006CEF2AF06EEF2AF063EF2AF01650145C9E
:1054E00017501558D8A077EF2AF079EF2AF07DEF02
:1054F0002AF01650145E1750155AD89017321632EB
:10550000182E6EEF2AF01950D8B489EF2AF08BEFDD
:105510002AF08FEF2AF0146C151ED8B0152A14C08B
:1055200014F015C015F01200000E14141C6E000EBD
:1055300015141D6E800E16141E6E7F0E17141F6E2E
:105540001C501D101E101F10D8A4A9EF2AF0ABEF9D
:105550002AF0B3EF2AF0000E146E000E156E000E46
:10556000166E000E176E000E18141C6E000E191425
:105570001D6E800E1A141E6E7F0E1B141F6E1C50A3
:105580001D101E101F10D8A4C8EF2AF0CAEF2AF071
:10559000D2EF2AF0000E186E000E196E000E1A6E71
:1055A000000E1B6E185014180FE1195015180CE15D
:1055B0001A50161809E11B501718D8B4E2EF2AF058
:1055C000E4EF2AF0E7EF2AF0D890E8EF2AF0D8804D
:1055D000120039019397B80E146E530E156E0AEC33
:1055E00032F039019399660E146E5C0E156E05EC5F
:1055F00032F0000E3D01EC6F000EED6F000EEE6F0D
:10560000000EEF6F000EF06F000EF16FB00EF26F34
:10561000800EF36F000EF46F8A0EF56F000EF66FBA
:10562000000EF76F000EF86F000EF96F000EFA6FA4
:10563000760E146E640E156E14EC32F0740E146E49
:10564000640E156E0FEC32F06E0E146E640E156E55
:1056500019EC32F0000E0101446F000E486E000E8E
:10566000476E080EAB6F000E466E000E456E000EC4
:10567000446E39019387120018501910D8B443EFC3
:105680002BF045EF2BF04EEF2BF018501910D8A44B
:105690004CEF2BF04EEF2BF053EF2BF0165000ECAD
:1056A00032F086EF2BF020EE04F01850D926195076
:1056B000DA22DE50DE10D8B460EF2BF062EF2BF070
:1056C0007DEF2BF020EE04F01850D9261950DA2285
:1056D00010EE02F01850E1261950E222DE50E65C8E
:1056E000E650800A1E6EDE50800A1E58D8B07BEF4E
:1056F0002BF07DEF2BF086EF2BF020EE02F0185010
:10570000D9261950DA22DE2A000EDD221200000E00
:10571000256E000E246E49504A104B104C10D8B420
:1057200094EF2BF096EF2BF0CCEF2BF03C0160AB1D
:105730009CEF2BF09EEF2BF0B6EF2BF0200E146EAB
:10574000A10E156E070E166E000E176E49C018F0EA
:105750004AC019F04BC01AF04CC01BF077EC24F093
:1057600014C024F015C025F0CCEF2BF0E00E146E21
:105770005E0E156EF80E166EFF0E176E49C018F00D
:105780004AC019F04BC01AF04CC01BF077EC24F063
:1057900014C024F015C025F024C022F025C023F049
:1057A00012000101364B372BF50E365D010E3759CD
:1057B000D8A0DDEF2BF0DFEF2BF018EF2CF0000E70
:1057C000376F000E366FF1EC31F02CC11CF02DC19B
:1057D0001DF01E6A1F6A000E4AEC20F01CC06DF01E
:1057E0001DC06EF01EC06FF01FC070F0A40E00014F
:1057F000716F700E726F3D0E736F450E746F81EC9A
:1058000025F00001D8B007EF2CF009EF2CF018EFCD
:105810002CF0000E416E000E406E000E846F000EE4
:10582000836F030E856F4FEC1FF0010E19EF2CF004
:10583000000E1200000E1A6E000E196E1650171090
:10584000D8B425EF2CF027EF2CF04FEF2CF0010E01
:10585000186E2FEF2CF0D89016361736182A17AE80
:1058600034EF2CF036EF2CF02BEF2CF0D8901936CB
:105870001A361650145C17501558D8A042EF2CF069
:1058800044EF2CF049EF2CF01650145E1750155AC7
:105890001980D89017321632182E36EF2CF019C016
:1058A00014F01AC015F01200EDC0ACF1EEC0ADF16D
:1058B000000E0101296F000E286F76EF2CF0EBC06F
:1058C000C7F0ECC0C8F0AC0E0001C96F010ECA6F82
:1058D000EFC0CBF0F0C0CCF0CAEC0EF00001C75125
:1058E000010128270001C851010129236000B3F6F6
:1058F000F6FF6000B7F6F7FFF86A0800F5500009F8
:10590000D8A485EF2CF087EF2CF05FEF2CF028C1A6
:10591000EBF029C1ECF0120016C01AF017C01BF012
:1059200014C01CF015C01DF01A50186E1B50196ED3
:105930001A4A1B2A600063F0F6FF600067F0F7FF69
:10594000000EF86E600073F0D9FF600077F0DAFFA8
:105950001C4A1D2A0F0EF76403D00800F55007D02B
:105960006F00DBFFE1FF6F00DFFFE2FFE750DF6E5C
:10597000DF50D8A4BEEF2CF0C0EF2CF094EF2CF049
:105980001200146E0101AB51D8B4C9EF2CF0CBEF6B
:105990002CF0C2EF2CF0390193B9D1EF2CF0D3EFFA
:1059A0002CF0D8EF2CF0600053F0EAFDEFEF2CF074
:1059B0009399100E4824D96EDA6A010EDA2260003B
:1059C00053F0DFFF482A070E4864E9EF2CF0EBEFB5
:1059D0002CF0EDEF2CF0000E486E0101AB07390101
:1059E00093891200BF0E1C6EFF0E1D6E1AC01EF0B2
:1059F0001BC01FF01C501E261D501F221F500AE105
:105A00001A0E1E5CD8A007EF2DF00AEF2DF0010E44
:105A10000BEF2DF0000E206E216A20502110D8B41B
:105A200014EF2DF016EF2DF01DEF2DF0200E1A10B3
:105A30001A6E1B501B6E21EF2DF01AC01AF01BC0FE
:105A40001BF01200000E3E01DE6F000EDF6F000E35
:105A5000E06F000EE16F000EE46F000EE56F000EC8
:105A6000EA6F000EEC6F000EF16F580EF36F020E2E
:105A7000F46F000EF56F000EF66F000EF76F000E5C
:105A8000F96F000EFA6F000EFB6F000EFC6F000E38
:105A9000FD6F000EFE6F1F0EFF6F840EF86F120079
:105AA0003901A19F3F0118510101246F3F01195194
:105AB0000101256F3F011A510101266F276B3C013F
:105AC00060AB65EF2DF067EF2DF070EF2DF0010E5C
:105AD00001012027000E21232223232379EF2DF01B
:105AE000FF0E01012027FF0E2123FF0E2223FF0EB0
:105AF00023231100D28A000ED2BE010E146ED29E54
:105B0000550ED46EAA0ED46ED490000ED76E000E31
:105B1000D66E080ED56E550ED46EAA0ED46ED480F5
:105B200014B002D0D29E01D0D28E390183998397CE
:105B3000818F818B818D8A81888F879189831200E3
:105B40007AEC2DF064EC31F0B4EC28F0E5EC31F0B7
:105B5000B4EC30F022EC2DF0E2EC30F085EC30F0DB
:105B6000B5EC31F0A7EC31F0CDEC31F09DEC30F03C
:105B7000F8EC30F049EC2FF0D9EC31F0C5EC2DF019
:105B8000C1EC31F0E9EC2AF01200C00E9B6E000E61
:105B90009C6E050E9D6E000E996E000E986E39017A
:105BA000A89D98506F0064FE16F0176A16C017F093
:105BB000166A161001019B6F17509C6F3901A89F40
:105BC000988F300E146E630E156E1EEC32F0030EBD
:105BD0009A6E12003901A19D3F011551496E16516F
:105BE0004A6E17514B6E4C6A3C0160ABFAEF2DF0D8
:105BF000FCEF2DF005EF2EF0010E01012027000E25
:105C00002123222323230EEF2EF0FF0E0101202754
:105C1000FF0E2123FF0E2223FF0E23231100000E6F
:105C200000017D1B000E7E1B000E7F1B800E801B63
:105C300079C06DF07AC06EF07BC06FF07CC070F000
:105C40007DC071F07EC072F07FC073F080C074F0D0
:105C5000BFEC11F06DC079F06EC07AF06FC07BF0D0
:105C600070C07CF01200080E0101AB613AEF2EF01B
:105C70003CEF2EF054EF2EF0100E4724D96EDA6A66
:105C8000010EDA22DF503D01EA6F472A070E476412
:105C90004CEF2EF04EEF2EF050EF2EF0000E476E30
:105CA0000101AB2B56EF2EF0390193991200000E33
:105CB000256E000E246E68EF2EF023C016F0176AD2
:105CC00021C018F022C019F03CEC2BF0244A252A00
:105CD00024501F24D96E25502020DA6EDF50236E09
:105CE0002350D8A476EF2EF078EF2EF05DEF2EF053
:105CF000120027BE86EF2EF0275006E12604D8B00A
:105D000084EF2EF086EF2EF094EF2EF026C028F0D0
:105D100027C029F0281E291E284A292A28C026F033
:105D200029C027F098EF2EF026C026F027C027F0D4
:025D300012005F
:105D34006F0060FF13F03901A79101013E4B3F2B27
:105D44003F5109E10A0E3E5DD8A0ABEF2EF0ADEF56
:105D54002EF0B4EF2EF0CBEC30F0000E01013F6FCB
:105D6400000E3E6F60004FF0D8FF110014C016F013
:105D740015C017F0C0EF2EF0144A152A600053F036
:105D8400D9FF600057F0DAFFDF50D8A4CCEF2EF033
:105D9400CEEF2EF0BEEF2EF01650145C146E17509A
:065DA4001558156E1200F7
:105DAC006F0060FF11F00101A751A811D8B4E1EF09
:105DBC002EF0E3EF2EF0EFEF2EF002D8EFEF2EF0F7
:105DCC000500FA6EA751FD6EA851FE6EFF6AFA50DF
:0A5DDC001200600047F0D8FF11002C
:105DE8006F0060FF12F00101A951AA11D8B4FFEFAA
:105DF8002EF001EF2FF00DEF2FF002D80DEF2FF05E
:105E08000500FA6EA951FD6EAA51FE6EFF6AFA509E
:105E1800120060004BF0D8FF1100BF0E166EFF0E87
:105E2800176E14C018F015C019F016501826175020
:105E3800192219500AE11A0E185CD8A026EF2FF083
:105E480029EF2FF0010E2AEF2FF0000E146E156ABD
:105E580012001450151016101710D8B436EF2FF082
:105E680038EF2FF040EF2FF0000E141A000E151A1D
:105E7800000E161A800E171A14C014F015C015F06B
:105E880016C016F017C017F01200000EA76E000E0D
:105E9800A86E050EA96E000EA56E000EA46E39013F
:105EA800A69DA4506F0094FE14F0156A14C015F056
:105EB800146A14100101976F1550986F010EA66EA1
:105EC800120000EE00F1950EEE6AE806FDE100EE24
:105ED800F1F00E0EEE6AE806FDE100EE3AF0130E60
:105EE800EE6AE806FDE1080ED56E000ED66E000ECD
:105EF800D76E000188EF31F0CDAE85EF2FF087EF38
:105F08002FF08DEF2FF001C042F102C043F19AEF5C
:105F18002FF001014251015C0001F76F010143516B
:105F280002580001F86FD890F833F7331200CDAC5F
:105F3800A0EF2FF0A2EF2FF0A8EF2FF005C040F14F
:105F480006C041F1B5EF2FF001014051055C000199
:105F5800F56F0101415106580001F66FD890F633EC
:105F6800F533120014C016F015C017F0D890173288
:105F78001632D890173216321650696E14C016F0C1
:105F8800030E1616060E176ED8901636172EC8EF83
:105F98002FF01650686E120014C016F015C017F0D6
:105FA800D89017321632D8901732163216506D6EB6
:105FB80014C016F0030E1616060E176ED890163675
:105FC800172EE2EF2FF016506C6E120014C016F068
:105FD80015C017F0D89017321632D89017321632EB
:105FE8001650616E14C016F0030E1616060E176EC4
:105FF800D8901636172EFCEF2FF01650606E120050
:1060080014C016F015C017F0D89017321632D89071
:10601800173216321650656E14C016F0030E161697
:10602800060E176ED8901636172E16EF30F016504B
:10603800646E12003901A9936F00D0FD03F06F0060
:10604800D4FD04F003C001F004C002F002D837EF19
:1060580030F00500FA6E01019F51FD6EA051FE6EF1
:10606800FF6AFA50120011003901AA916F00C0FDB1
:1060780007F06F00C4FD08F007C005F008C006F07F
:1060880002D851EF30F00500FA6E01019D51FD6E06
:106098009E51FE6EFF6AFA5012001100186E6000E1
:1060A80063F0F1FE3E01F88FF89DF881F8B15FEFDB
:1060B80030F061EF30F05AEF30F0F051176E166A99
:0E60C800EF511624146E000E1720156E1200F4
:1060D8003901A89F010199519A11D8B476EF30F08F
:1060E80078EF30F084EF30F002D884EF30F005001C
:1060F800FA6E9951FD6E9A51FE6EFF6AFA501200BF
:106108001100800E3F011E6F420E1F6F000E206FA0
:10611800040E216F000E236F000E226F010E1D6FFB
:106128001C691B693901918B918F918D3F011F8FDC
:106138001200830E726E000E736E000E716E000EEA
:10614800706E360E146E5F0E156E28EC32F03F013D
:106158005E513F0B80095E6F3901AA919A81120046
:10616800830E766E000E776E000E756E000E746EDE
:10617800000E146E5F0E156E2DEC32F03F015E516D
:10618800CF0B20095E6F3901A99399831200010191
:1061980095519611D8B4D3EF30F0D5EF30F0E1EF48
:1061A80030F002D8E1EF30F00500FA6E9551FD6E3F
:1061B8009651FE6EFF6AFA5012001200010EA26E8E
:1061C800000EA16E000EA36EF90E9F6E000E9E6E5D
:1061D8003901A7919781780E146E640E156E23EC21
:1061E80032F0E00EA06E1200000E3C01616F030E4B
:1061F800626F020E636F000E646F000E656F020E11
:10620800666F080E676F000E686F000E696F850E67
:10621800606F1200080E4624D96EDA6A010EDA227F
:106228006F00A3F7DFFF462A070E46641EEF31F022
:1062380020EF31F022EF31F0000E466E442A1200B2
:106248009AA429EF31F02BEF31F034EF31F09A9026
:106258000A50996E600027F098FF9A8039EF31F064
:106268000A50996E600027F098FF1200B00E0101E5
:10627800B46F010EB56F000E0001EB6F000EEC6FEE
:10628800AEC1EDF0AFC1EEF0B40EEF6F010EF06FDE
:0662980054EC2CF0120092
:1062A0003901A19B000E496E000E4A6E000E4B6E26
:1062B000000E4C6E000E0101246F000E256F000EC3
:1062C000266F000E276F1100000E3901C06F000EFF
:1062D000C16F000EC26F000EC36F000EC46F000EC0
:1062E000C56F000EC66F000EC76F12009A826F0056
:1062F00060FE10F06F0064FE0FF00F500B6E105038
:106300000D6E0BC00EF00DC009F00EC00AF01200A9
:10631000A0EC2DF0D28ED28C640E146E640E156E2D
:1063200023EC32F0E7EC23F092EF31F057EF00F07E
:1063300076EC31F009C0FDF00AC0FEF00001D89003
:10634000FE33FD33F9EC31F03901A89F1200050E40
:10635000AE6E000EAD6E000EAF6EAB68000EAA6E94
:106360003901A495B00EAC6E1200800E626E000E64
:10637000616E000E606E3F015F513F0B80095F6FE1
:106380001200800E666E000E656E000E646E3F0198
:106390005F51CF0B20095F6F1200800E6A6E590E9D
:1063A000696E400E686E3F015F51F30B04095F6F29
:1063B0001200800E6E6E590E6D6E400E6C6E3F01B7
:1063C0005F51FC0B01095F6F1200600E3901D96F3C
:1063D000000EDB6F000EDD6F080EDF6F000EDE6F4C
:1063E0001200220E52EC30F014C02CF115C02DF129
:1063F00012009BC109F09CC10AF024EC31F012009C
:10640000156E1550C1EC2CF0120014C0A7F115C088
:10641000A8F1120014C0A9F115C0AAF1120014C00D
:10642000A3F115C0A4F1120014C0A5F115C0A6F186
:10643000120014C0A1F115C0A2F1120014C099F10C
:1064400015C09AF1120014C095F115C096F1120012
:1064500014C09DF115C09EF1120014C09FF115C02B
:10646000A0F112000001FA2BF34BF42B12000EECFA
:0A64700031F01200120012001200B9
:02647C0011000D
:020000040020DA
:10000000FF0FFF0FFF0FFF0FFF0FFF0FFF0FFF0F80
:020000040030CA
:0A0000008CFFFFFF9FFFFFFFFFFFD3
:00000001FF
