:0400000057EF00F0C6
:10000800E709E709E709E709E709E709E709E70968
:10001800E709E709E709E709E70978093908EC0773
:10002800E709E709E709E709E709E709E709E70948
:10003800E709E709E7097D086E08E709E709E7091D
:10004800E709E709E709E7092B00E709E709E709ED
:10005800E709E709E709E709E709E709E709E70918
:10006800E709E709E709E709E709E709E709E70908
:100078009A08E7092B00E709E709E7092B002B0095
:100088002B002B002B002B002B002B00E709F80876
:10009800E709A808E709E7092B002B002B002B002C
:1000A800B608E709FF00BBEF10F00001AF51800B65
:1000B800B46FAF51AF25B66FAEAF65EF00F067EF25
:1000C80000F068EF00F0B681B651D8B46EEF00F0DA
:1000D80070EF00F085EF00F0B629D8A476EF00F0B5
:1000E80078EF00F080EF00F0000EAC6F000EAD6FFF
:1000F800000EAE6F000EAF6FAE8F000EAF6F8DEFBC
:1001080000F0000EAC6F000EAD6F000EAE6F000E6B
:10011800AF6FB351800BB56FB451B519D8B497EF21
:1001280000F099EF00F09AEF00F0B48DB351B325C9
:10013800B56FB2AFA2EF00F0A4EF00F0A5EF00F0AA
:10014800B581B551D8B4ABEF00F0ADEF00F0C2EF18
:1001580000F0B529D8A4B3EF00F0B5EF00F0BDEF7B
:1001680000F0000EB06F000EB16F000EB26F000EFF
:10017800B36FB28F000EB36FCAEF00F0000EB06F0E
:10018800000EB16F000EB26F000EB36FB651B55DC1
:10019800D8B0D1EF00F0D3EF00F0FAEF00F0B4AD33
:1001A800D8EF00F0DAEF00F0DCEF00F0800EB41BBF
:1001B800B6C0B7F0B5C0B6F0B7C0B5F0ACC0B7F0D0
:1001C800B0C0ACF0B7C0B0F0ADC0B7F0B1C0ADF0E2
:1001D800B7C0B1F0AEC0B7F0B2C0AEF0B7C0B2F0C1
:1001E800AFC0B7F0B3C0AFF0B7C0B3F0000EB76F91
:1001F800B651B5C036F0376A365E000E375A37BE8C
:100208000FEF01F0375009E11A0E365CD8A00FEF56
:1002180001F011EF01F048EF01F0AC51AD11AE1152
:10022800AF11D8A41AEF01F01DEF01F0010E1EEF77
:1002380001F0000EB76F000EAC6F000EAD6F000E30
:10024800AE6F000EAF6FB5C0B6F051EF01F0B7A1B9
:1002580030EF01F032EF01F038EF01F0D890B7310C
:100268000109B76F3AEF01F0D890B733ACA13FEF6F
:1002780001F041EF01F042EF01F0B78FAF35AF3336
:10028800AE33AD33AC33B62BB551B65DD8A04FEF16
:1002980001F051EF01F02BEF01F0B4BD56EF01F082
:1002A80058EF01F098EF01F0B651D8A45EEF01F0D5
:1002B80060EF01F06AEF01F0000EAC6F000EAD6F59
:1002C800000EAE6F000EAF6FB9EF02F0B051AC2761
:1002D800B151AD23B251AE23B351AF23AFA177EFE4
:1002E80001F079EF01F025EF02F0B7A17EEF01F000
:1002F80080EF01F086EF01F0D890B7310109B76FB0
:1003080088EF01F0D890B733ACA18DEF01F08FEFF3
:1003180001F090EF01F0B78FAF35AF33AE33AD33A7
:10032800AC33B62B25EF02F0B051AC5DB151AD59ED
:10033800B251AE59AF51800A366EB351800A365861
:10034800D8B0A9EF01F0ABEF01F0D6EF01F0AC5156
:10035800B05D366EAD51B159376EAE51B259386E87
:10036800AF51B359396EFF0E3624AC6FFF0E3720EC
:10037800AD6FFF0E3820AE6FFF0E3920AF6F800EC5
:10038800B41BB76DB751D8A4CCEF01F0CEEF01F094
:10039800DEEF01F0010EAC27000EAD23AE23AF2334
:1003A800DEEF01F0B051AC5FB151AD5BB251AE5B65
:1003B800B351AF5BAC51AD11AE11AF11D8A4E7EF9B
:1003C80001F0E9EF01F01EEF02F0B751D8A4EFEF0A
:1003D80001F0F1EF01F01EEF02F0000EAC6F000E1D
:1003E800AD6F000EAE6F000EAF6FB9EF02F0D89090
:1003F800AC37AD37AE37AF37B7AF05EF02F007EF21
:1004080002F008EF02F0AC81B7A10DEF02F00FEF98
:1004180002F013EF02F0D880B73715EF02F0D8904A
:10042800B737B651D8B41BEF02F01DEF02F01EEF3C
:1004380002F0B607AEAF23EF02F025EF02F0FBEFB4
:1004480001F0000EB56FB7AF2CEF02F02EEF02F0FF
:1004580046EF02F0B7C036F07F0E3616D8B437EF45
:1004680002F039EF02F03DEF02F0010EB56F46EFF2
:1004780002F0ACA142EF02F044EF02F046EF02F0C6
:1004880039EF02F0B551D8B44CEF02F04EEF02F05C
:1004980079EF02F0010EAC27000EAD23AE23AF2397
:1004A800AFA159EF02F05BEF02F079EF02F0ACC0B8
:1004B80036F0ADC037F0AEC038F0AFC039F03934DF
:1004C800393238323732363236C0ACF037C0ADF058
:1004D80038C0AEF039C0AFF0B629D8B476EF02F024
:1004E80078EF02F079EF02F0B62BB629D8B47FEF97
:1004F80002F081EF02F089EF02F0B651D8A487EF3D
:1005080002F089EF02F09BEF02F0000EAC6F000ED4
:10051800AD6F000EAE6F000EAF6FB651D8A497EF57
:1005280002F099EF02F09BEF02F0000EB46FB6A153
:10053800A0EF02F0A2EF02F0A5EF02F0AE8FA6EF57
:1005480002F0AE9FD890B631AF6FB4AFAEEF02F005
:10055800B0EF02F0B1EF02F0AF8FACC0ACF0ADC0BD
:10056800ADF0AEC0AEF0AFC0AFF012002D50800BB2
:1005780000019F6F2D502D24A56F2CAEC6EF02F001
:10058800C8EF02F0C9EF02F0A581A551D8B4CFEFAA
:1005980002F0D1EF02F0E4EF02F0A529D8A4D7EFDA
:1005A80002F0D9EF02F0E1EF02F0000E2A6E000E21
:1005B8002B6E000E2C6E000E2D6E2C8EECEF02F0C2
:1005C800000E2A6E000E2B6E000E2C6E000E2D6E85
:1005D8003150800B9F1B31503124A06F30AEF7EFA4
:1005E80002F0F9EF02F0FAEF02F0A081A051D8B4BE
:1005F80000EF03F002EF03F015EF03F0A029D8A4F1
:1006080008EF03F00AEF03F012EF03F0000E2E6E6E
:10061800000E2F6E000E306E000E316E308E1DEF04
:1006280003F0000E2E6E000E2F6E000E306E000EC0
:10063800316EA051D8B423EF03F025EF03F02DEF6E
:1006480003F0A551D8A42BEF03F02DEF03F037EFFB
:1006580003F0000E2A6E000E2B6E000E2C6E000E9C
:100668002D6EE1EF04F030502A026F00CCFFAAF0A3
:100678006F00D0FFABF0AA51A16FA26BA36BA46B64
:10068800AB51A66FA76BA86BA96B2F502B026F00FD
:10069800CCFFAAF06F00D0FFABF0AA51A127000E43
:1006A800A223A323A423AB51A627000EA723A82384
:1006B800A9232E502C026F00CCFFAAF06F00D0FFA8
:1006C800ABF0AA51A127000EA223A323A423AB5168
:1006D800A627000EA723A823A923A3C0A4F0A2C07D
:1006E800A3F0A1C0A2F0A16B2E502B026F00CCFF8B
:1006F800AAF06F00D0FFABF0AA51A127AB51A223FB
:10070800000EA323000EA4232F502A026F00CCFF53
:10071800AAF06F00D0FFABF0AA51A127AB51A223DA
:10072800000EA323000EA423A3C0A4F0A2C0A3F02C
:10073800A1C0A2F0A16B2E502A026F00CCFFAAF034
:100748006F00D0FFABF0AA51A127AB51A223000E36
:10075800A323000EA42330502B026F00CCFFAAF075
:100768006F00D0FFABF0AA51A627AB51A723000E0C
:10077800A823000EA9232F502C026F00CCFFAAF04B
:100788006F00D0FFABF0AA51A627AB51A723000EEC
:10079800A823000EA92330502C026F00CCFFAAF02A
:1007A8006F00D0FFABF0AA51326EAB51336E346A92
:1007B800356A34C035F033C034F032C033F0326AB1
:1007C8003250A6273350A7233450A8233550A923E5
:1007D800A1C032F0A2C033F0A3C034F0A4C035F0F9
:1007E800190EFCEF03F0D8903532343233323232FE
:1007F800E82EF7EF03F03250A6273350A7233450E2
:10080800A8233550A923A3C0A4F0A2C0A3F0A1C077
:10081800A2F0A16BA051A5C032F0336A3226000EB7
:100828003322820E3224AA6FFF0E3320AB6F32EFD1
:1008380004F0D890A637A737A837A937A4AF27EF71
:1008480004F029EF04F02AEF04F0A681D890A1372C
:10085800A237A337A437AA07D8A0AB07A8AF37EFAA
:1008680004F039EF04F01DEF04F0000EA06FA4AF00
:1008780040EF04F042EF04F066EF04F0FF0EA1151C
:10088800326EFF0EA215336EFF0EA315346E7F0E67
:10089800A415356E3250331034103510D8B457EFD4
:1008A80004F059EF04F05DEF04F0010EA06F66EF5D
:1008B80004F0A6A162EF04F064EF04F066EF04F020
:1008C80059EF04F0A051D8B46CEF04F06EEF04F0C7
:1008D80092EF04F0010EA627000EA723A823A92350
:1008E800A9A179EF04F07BEF04F092EF04F0A6C021
:1008F80032F0A7C033F0A8C034F0A9C035F03534C1
:10090800353234323332323232C0A6F033C0A7F037
:1009180034C0A8F035C0A9F0AA4BAB2BABBF9DEFF4
:1009280004F0AB5108E1AA29D8A09DEF04F09FEF8D
:1009380004F0A9EF04F0000EA66F000EA76F800E5A
:10094800A86F7F0EA96FD7EF04F0ABBFB6EF04F026
:10095800AB5106E1AA05D8B0B4EF04F0B6EF04F045
:10096800C2EF04F0000EA66F000EA76F000EA86F6E
:10097800000EA96F000E9F6FD7EF04F0AAC0A5F074
:10098800FF0EA617FF0EA7177F0EA817000EA917B0
:10099800A5A1D1EF04F0D3EF04F0D4EF04F0A88FB1
:1009A800D890A531A96F9F51A913A6C02AF0A7C056
:1009B8002BF0A8C02CF0A9C02DF012003A5000016D
:1009C8009C5D186E3B509D59196E9251985D166E3C
:1009D80093519959176EE2EF05F019BEFDEF04F037
:1009E800195009E11F0E185CD8A0FDEF04F0FFEFC5
:1009F80004F020EF05F019BE0DEF05F02C0E185C81
:100A0800010E1958D8B00BEF05F00DEF05F020EFE7
:100A180005F03B5007E17D0E3A5CD8B016EF05F0C3
:100A280018EF05F020EF05F0000E3E6E010E3F6E48
:100A3800050E4C6EFFEF05F017BE2CEF05F01750B2
:100A480009E11F0E165CD8A02CEF05F02EEF05F07B
:100A5800FFEF05F017BE3CEF05F02C0E165C010EFB
:100A68001758D8B03AEF05F03CEF05F0FFEF05F066
:100A7800935107E17D0E925DD8B045EF05F047EF41
:100A880005F0FFEF05F0000E3E6E010E3F6E060EFC
:100A98004C6EFFEF05F0130E3E6455EF05F057EF6F
:100AA80005F05DEF05F0000E3E6E020E3F6EFFEFA3
:100AB80005F03E2AFFEF05F0180E3E6466EF05F0DC
:100AC80068EF05F05DEF05F0050E4C18D8A46FEF40
:100AD80005F071EF05F07CEF05F09D5109E12D0E51
:100AE8009C5DD8A07AEF05F07CEF05F09BEF05F050
:100AF800060E4C18D8A483EF05F085EF05F090EFAB
:100B080005F0995109E12D0E985DD8A08EEF05F0FA
:100B180090EF05F09BEF05F04B5009E1970E4A5C0A
:100B2800D8A099EF05F09BEF05F0B5EF05F0450E5D
:100B38003E64A1EF05F0A3EF05F0A9EF05F0FF0E65
:100B48008F6FF10E8E6FADEF05F0000E8F6F0F0EE9
:100B58008E6F000E3E6E030E3F6E010E4C6E5DEF03
:100B680005F0060E4C18D8A4BCEF05F0BEEF05F052
:100B78005DEF05F019BECAEF05F0195009E11F0E27
:100B8800185CD8A0CAEF05F0CCEF05F05DEF05F0D2
:100B9800000E3E6E010E3F6E050E4C6E5DEF05F0C9
:100BA8003E50D8B4DAEF05F0DCEF05F05DEF05F064
:100BB800000E3E6E000E3F6EFFEF05F03F50146EC4
:100BC800156A1550000AD8B4ECEF05F0FFEF05F0F0
:100BD8001450000AD8B4F1EF04F0010AD8B44FEF6A
:100BE80005F0030AD8B460EF05F0010AD8B4D4EFD1
:100BF80005F0FFEF05F09CC03AF09DC03BF098C0AF
:100C080092F099C093F01200F30E2E6E040E2F6E20
:100C1800B50E306E3F0E316E8EC01CF08FC01DF0C9
:100C2800000E1DBEFF0E1E6E1F6E010E29EC08F091
:100C38001CC02AF01DC02BF01EC02CF01FC02DF0C8
:100C4800BAEC02F02AC0B8F02BC0B9F02CC0BAF048
:100C58002DC0BBF096EC0BF098C0C2F099C0C3F061
:100C68000001C21FC31FC24BC32BB851C25FB95189
:100C7800C35B9C51C225C66F9D51C321C76F6DEFE1
:100C880006F0C7BF51EF06F0C75109E11A0EC65D5D
:100C9800D8A051EF06F053EF06F059EF06F0000E1A
:100CA800C76F190EC66FF6EF06F0C7AF65EF06F00F
:100CB800E70EC65DFF0EC759D8B065EF06F067EFBF
:100CC80006F08EEF06F0FF0EC76FE70EC66FF6EF61
:100CD80006F04C50C26FC36BC351000AD8B477EF0B
:100CE80006F0F6EF06F0C251000AD8B445EF06F058
:100CF800010AD8B445EF06F0030AD8B445EF06F068
:100D0800070AD8B445EF06F0030AD8B445EF06F051
:100D1800F6EF06F0F6EF06F0C6C01CF0C7C01DF0EF
:100D2800020E1E6E03EC09F01FEF07F0C6C01CF0A0
:100D3800C7C01DF0030E1E6E03EC09F01FEF07F08D
:100D4800C6C014F0C7C015F0000E176E020E166E5E
:100D580053EC0EF014C0C4F015C0C5F0C4C01CF0AC
:100D6800C5C01DF0030E1E6E03EC09F01FEF07F05F
:100D7800FF0E1D6EC40E1C6E000E1E6E03EC09F0F5
:100D88001FEF07F0000E1D6E3C0E1C6E000E1E6E4F
:100D980003EC09F01FEF07F0020E3F18D8A4D7EFB5
:100DA80006F0D9EF06F090EF06F0000E1D6E3C0E2F
:100DB8001C6E020E1E6E03EC09F01FEF07F0020E08
:100DC8003F18D8A4EAEF06F0ECEF06F090EF06F033
:100DD800FF0E1D6EC40E1C6E020E1E6E03EC09F093
:100DE8001FEF07F04C50C26FC36BC351000AD8B451
:100DF80000EF07F01FEF07F0C251000AD8B4A4EFC4
:100E080006F0010AD8B49AEF06F0030AD8B490EFB6
:100E180006F0010AD8B4BCEF06F0070AD8B4C6EF4A
:100E280006F0010AD8B4D0EF06F0030AD8B4E3EF0D
:100E380006F01FEF07F01200000E0001C76F000E4A
:100E4800C66FD6EF07F04B5009E11F0E4A5CD8A0D9
:100E580030EF07F032EF07F034EF07F0010E4C6E79
:100E68008BBF40EF07F08B5109E1650E8A5DD8A072
:100E780040EF07F042EF07F05DEF07F08AC0C6F0D9
:100E88008BC0C7F04B5007E10F0E4A5CD8B04FEF4C
:100E980007F051EF07F057EF07F0FC0EC627FF0EDB
:100EA800C723FFEF07F0FE0EC627FF0EC723FFEF8D
:100EB80007F0000EC76F640EC66FFFEF07F04B50C8
:100EC80007E11E0E4A5CD8B06CEF07F06EEF07F032
:100ED80070EF07F0020E4C6E4B5009E1960E4A5C1B
:100EE800D8A079EF07F07BEF07F0C4EF07F0000E0A
:100EF800B06F800EB16F890EB26F430EB36F000EE4
:100F08002E6E000E2F6E000E306E3F0E316E6A0E82
:100F1800C26FFF0EC36F4AC0C4F04BC0C5F0C251C8
:100F2800C427C351C523C4C01CF0C5C01DF01E6A28
:100F38001F6A000E29EC08F01CC02AF01DC02BF017
:100F48001EC02CF01FC02DF0BAEC02F02AC0ACF085
:100F58002BC0ADF02CC0AEF02DC0AFF059EC00F0B6
:100F6800ACC0B8F0ADC0B9F0AEC0BAF0AFC0BBF01D
:100F780096EC0BF0B8C0C6F0B9C0C7F0FFEF07F0A9
:100F8800010EC76F130EC66FFFEF07F0FF0EC76F96
:100F9800830EC66FFFEF07F0000EC76FC80EC66F4F
:100FA800FFEF07F04C50C26FC36BC351000AD8B4AF
:100FB800E0EF07F0FFEF07F0C251000AD8B463EF83
:100FC80007F0010AD8B463EF07F0030AD8B427EF93
:100FD80007F0010AD8B4CAEF07F0070AD8B4CAEF75
:100FE80007F0010AD8B4D0EF07F0030AD8B4D0EF5D
:100FF80007F0FFEF07F00001C7BF0CEF08F0910EF4
:10100800C65D010EC759D8A00CEF08F00EEF08F026
:1010180012EF08F0010EC76F900EC66FC7AF1EEF34
:1010280008F0060EC65DFF0EC759D8B01EEF08F0CF
:1010380020EF08F024EF08F0FF0EC76F060EC66F0A
:10104800C6C08AF0C7C08BF01200246E2450D8B4F2
:1010580030EF08F032EF08F054EF08F01FBE39EF18
:1010680008F037EF08F054EF08F01CC020F01DC05E
:1010780021F01EC022F01FC023F0201E211E221EB8
:10108800231E202A000E21222222232220C026F0FD
:1010980021C027F022C028F023C029F05CEF08F017
:1010A8001CC026F01DC027F01EC028F01FC029F064
:1010B8001C501D101E101F10D8A465EF08F067EF14
:1010C80008F071EF08F0000E1C6E000E1D6E000E89
:1010D8001E6E000E1F6E02EF09F0960E256E7BEF56
:1010E80008F0252AD8902932283227322632000ED5
:1010F8002614206E000E2714216E000E2814226E6E
:10110800FE0E2914236E2050211022102310D8A47B
:1011180090EF08F092EF08F075EF08F0A0EF08F0F4
:10112800252A010E2626000E272228222922D890B9
:101138002932283227322632000E2614206E000E5D
:101148002714216E000E2814226EFF0E2914236E18
:101158002050211022102310D8A4B5EF08F0B7EFC3
:1011680008F094EF08F0BFEF08F02506D89026366F
:1011780027362836293628BEC4EF08F0C6EF08F00F
:10118800CEEF08F0020E2560CCEF08F0CEEF08F0A5
:10119800B9EF08F025B0D3EF08F0D5EF08F0D6EF97
:1011A80008F0289ED890253225C020F0216A226AAE
:1011B800236A20C023F0226A216A206A205026125E
:1011C8002150271222502812235029122450D8B413
:1011D800F0EF08F0F2EF08F0FAEF08F01FBEF9EFB1
:1011E80008F0F7EF08F0FAEF08F0298E26C01CF097
:1011F80027C01DF028C01EF029C01FF01200000EE5
:10120800246E000E236E57EF09F01CC021F01DC09C
:1012180022F01CC01FF01DC020F01F1E201E1F4AF8
:10122800202A1FC023F020C024F078EF09F01CC04A
:1012380021F01DC022F01CC023F01DC024F078EF5F
:1012480009F01CC021F01DC022F01CC014F01DC004
:1012580015F0FF0E176EFE0E166E53EC0EF014C04E
:1012680023F015C024F078EF09F01CC021F01DC050
:1012780022F0000E246E000E236E78EF09F0000EA7
:10128800226E000E216E1CC023F01DC024F078EFE2
:1012980009F0000E226E000E216E000E246E000E64
:1012A800236E78EF09F01E501F6E206A2050000A46
:1012B800D8B461EF09F04DEF09F01F50000AD8B417
:1012C80009EF09F0010AD8B41BEF09F0030AD8B4F2
:1012D80025EF09F0010AD8B439EF09F0070AD8B4A4
:1012E80043EF09F04DEF09F022BE84EF09F02250D8
:1012F80009E1420E215CD8A084EF09F086EF09F0DD
:101308008CEF09F0000E226E410E216E9EEF09F05F
:1013180022AE98EF09F0BF0E215CFF0E2258D8B01C
:1013280098EF09F09AEF09F09EEF09F0FF0E226E90
:10133800BF0E216E24BEAAEF09F0245009E1290E40
:10134800235CD8A0AAEF09F0ACEF09F0B2EF09F0DE
:10135800000E246E280E236EC4EF09F024AEBEEFF3
:1013680009F0D80E235CFF0E2458D8B0BEEF09F060
:10137800C0EF09F0C4EF09F0FF0E246ED80E236EFB
:10138800600E2124146E010E2220156E87EC11F0D8
:10139800650E2324146E010E2420156EA1EC11F0A5
:1013A80012005FEC0FF022C088F023C089F0000122
:1013B80088518A5DC46F89518B59C56F8651885D84
:1013C800C66F87518959C76F0A0E2E6ED70E2F6EBA
:1013D800A30E306E3C0E316E000E176E020E166EA6
:1013E800C6C014F0C7C015F053EC0EF0C4C0C2F06C
:1013F800C5C0C3F014500001C25F1550C35BC2C022
:101408001CF0C3C01DF0000E1DBEFF0E1E6E1F6E29
:10141800010E29EC08F01CC02AF01DC02BF01EC0DC
:101428002CF01FC02DF0BAEC02F02AC0B8F02BC087
:10143800B9F02CC0BAF02DC0BBF096EC0BF000014F
:10144800B851C86FC851800A7A0FD8A02EEF0AF099
:1014580030EF0AF034EF0AF0050EC86F40EF0AF0DB
:10146800C851800A850FD8B03CEF0AF03EEF0AF069
:1014780040EF0AF0FB0EC86FC8518427000EC8BFA2
:10148800FF0E852385BF52EF0AF0BD0E845D020E64
:101498008559D8A052EF0AF054EF0AF05AEF0AF033
:1014A800020E856FBC0E846F6CEF0AF085AF66EF95
:1014B8000AF0700E845DFE0E8559D8B066EF0AF00A
:1014C80068EF0AF06CEF0AF0FE0E856F700E846FFD
:1014D80084C018F085C019F01AEC0DF088C086F0A9
:1014E80089C087F01200000E1D6E000E1C6E030EE0
:1014F8001E6E03EC09F0000E4C6E000E0001856FA5
:10150800280E846F84C01CF085C01DF0000E1DBE1F
:10151800FF0E1E6E1F6E010E29EC08F01CC0C8F0ED
:101528001DC0C9F01EC0CAF01FC0CBF0D7EF0AF02B
:10153800C8C02AF0C9C02BF0CAC02CF0CBC02DF00F
:10154800CD0E2E6ECC0E2F6E8C0E306E3F0E316E81
:10155800BAEC02F02AC0C8F02BC0C9F02CC0CAF0FF
:101568002DC0CBF0C8C0B8F0C9C0B9F0CAC0BAF035
:10157800CBC0BBF096EC0BF0B8C084F0B9C085F0D6
:1015880084C018F085C019F01AEC0DF008EC06F0CC
:10159800000E00019E6F9E51D8B4D5EF0AF0D7EF28
:1015A8000AF0CFEF0AF0C8C014F0C9C015F0CAC0DD
:1015B80016F0CBC017F0000E186E000E196E7A0EDA
:1015C8001A6E430E1B6E1AEC0CF0D8A0EEEF0AF060
:1015D800F0EF0AF09CEF0AF0000E0001856FFA0E9A
:1015E800846F84C018F085C019F01AEC0DF0000E55
:1015F80000019E6F02EF0BF008EC06F01D0E0001D3
:101608009E6509EF0BF00BEF0BF000EF0BF0010EEE
:101618004C6E08EC06F01200000E1D6E1BBE19EF92
:101628000BF017EF0BF023EF0BF01B1E1A1E191E01
:10163800186C000E19221A221B22010E1D6E17BEED
:101648002AEF0BF028EF0BF034EF0BF0171E161EE5
:10165800151E146C000E152216221722010E1D1AD3
:10166800000E1E6E000E1F6E000E206E000E216E04
:10167800185019101A101B10D8B445EF0BF047EF8B
:101688000BF07DEF0BF0010E1C6E51EF0BF0D890B4
:10169800183619361A361B361C2A1BAE56EF0BF0B5
:1016A80058EF0BF04BEF0BF0D8901E361F36203654
:1016B80021361850145C195015581A5016581B50DA
:1016C8001758D8A06AEF0BF06CEF0BF075EF0BF022
:1016D8001850145E1950155A1A50165A1B50175A9A
:1016E8001E80D8901B321A32193218321C2E58EF2D
:1016F8000BF01D50D8B483EF0BF085EF0BF08DEF96
:101708000BF0211E201E1F1E1E6C000E1F22202201
:1017180021221EC014F01FC015F020C016F021C0F1
:1017280017F012000001BA35BB35C16FC151D8A4FA
:10173800A0EF0BF0A2EF0BF0ACEF0BF0000EB86FC0
:10174800000EB96F000EBA6F000EBB6F19EF0CF0E8
:10175800B8C0BCF0B9C0BDF0BAC0BEF0BBC0BFF0E5
:10176800200EBCEF0BF0D890BF33BE33BD33BC3373
:10177800E82EB7EF0BF0BC51C06FBA8FFF0EB81749
:10178800FF0EB917FF0EBA17000EBB17960EC15FF2
:10179800C1BFD3EF0BF0D1EF0BF0E9EF0BF0C15164
:1017A800800A970FD8B0DBEF0BF0DDEF0BF0DFEF1F
:1017B8000BF0A2EF0BF0D890BB33BA33B933B83380
:1017C800C13FDFEF0BF001EF0CF01F0EC165EFEF2B
:1017D8000BF0F1EF0BF0F9EF0BF0A2EF0BF0D89054
:1017E800B837B937BA37BB37C107C151D8A4FFEFEB
:1017F8000BF001EF0CF0F3EF0BF0C051D8B407EF8A
:101808000CF009EF0CF011EF0CF0BB1FBA1FB91F59
:10181800B86D000EB923BA23BB23B8C0B8F0B9C05D
:10182800B9F0BAC0BAF0BBC0BBF01200000E141475
:101838001C6E000E15141D6E800E16141E6E7F0E83
:1018480017141F6E1C501D101E101F10D8A42FEF48
:101858000CF031EF0CF039EF0CF0000E146E000EA6
:10186800156E000E166E000E176E000E18141C6E04
:10187800000E19141D6E800E1A141E6E7F0E1B1496
:101888001F6E1C501D101E101F10D8A44EEF0CF018
:1018980050EF0CF058EF0CF0000E186E000E196E99
:1018A800000E1A6E000E1B6E17AE5DEF0CF05FEFA8
:1018B8000CF068EF0CF0146C151ED8B0152A161E23
:1018C800D8B0162A800E17561BAE6DEF0CF06FEFCE
:1018D8000CF078EF0CF0186C191ED8B0192A1A1EE3
:1018E800D8B01A2A800E1B56000E141A000E151AAC
:1018F800000E161A800E171A000E181A000E191A62
:10190800000E1A1A800E1B1A1850145C195015581C
:101918001A5016581B501758D8B095EF0CF097EF7F
:101928000CF09AEF0CF0D8909BEF0CF0D8801200D6
:101938004B5007E10F0E4A5CD8B0A5EF0CF0A7EFAB
:101948000CF0ACEF0CF00001944B952BC3EF0CF0AE
:10195800030E4C18D8B4B3EF0CF0B5EF0CF0C3EF8E
:101968000CF0040E4C18D8B4BCEF0CF0BEEF0CF021
:10197800C3EF0CF0000E0001956F000E946F00018C
:10198800955109E1330E945DD8A0CDEF0CF0CFEF5F
:101998000CF019EF0DF0824B832B030E4C18D8B4C2
:1019A800D8EF0CF0DAEF0CF0F4EF0CF0040E4C1852
:1019B800D8B4E1EF0CF0E3EF0CF0F4EF0CF09C512D
:1019C800985D9D519959D8B0ECEF0CF0EEEF0CF002
:1019D800F2EF0CF0030E4C6EF4EF0CF0040E4C6EAC
:1019E8004B5007E1240E4A5CD8B0FDEF0CF0FFEF36
:1019F8000CF00FEF0DF083BF0BEF0DF02D0E825D95
:101A0800010E8359D8A00BEF0DF00DEF0DF019EF73
:101A18000DF00FEF0DF0010E4C6E000E956F000EDD
:101A2800946F000E836F000E826F120019BE26EFAE
:101A38000DF0195009E1280E185CD8A026EF0DF01A
:101A480028EF0DF048EF0DF019BE34EF0DF0BD0E84
:101A5800185C020E1958D8A034EF0DF036EF0DF0CF
:101A68003AEF0DF0020E196EBC0E186E18C014F085
:101A780019C015F0D5EC11F0000E156E000E146E9D
:101A8800BBEC11F08AEF0DF019AE54EF0DF0D90E42
:101A9800185CFF0E1958D8B054EF0DF056EF0DF042
:101AA8007EEF0DF019AE62EF0DF0700E185CFE0EB1
:101AB8001958D8B062EF0DF064EF0DF068EF0DF033
:101AC800FE0E196E700E186E000E156E000E146E56
:101AD800D5EC11F018C01AF019C01BF01A1E1B1E05
:101AE8001A4A1B2A1AC014F01BC015F0BBEC11F0DF
:101AF8008AEF0DF0000E156E000E146ED5EC11F085
:101B0800000E156E000E146EBBEC11F01200000EE4
:101B1800BE6E000EBD6E240EBA6E000EBB6E000EB9
:101B2800BC6E070EC66EC00EC26EF70EC36EC468DA
:101B3800C5681F0E3A01706F6069C00E506F070EBE
:101B4800806F7F0E406F000E716F000E816F000E68
:101B5800516F000E416F000E616F000E5A6F000E3C
:101B68005B6F000E6A6F000E6B6F000E7A6F000ECF
:101B78007B6F000E826F000E426F000E526F000ED8
:101B8800626F000E726F4369536963697369070E68
:101B9800836F44695469646974690F0E846F1F0EFA
:101BA800CF6F090EDC6F0E0E016F0A0EE56F0D0E7A
:101BB800006F1D0EC96F100E046F070ED96F090E46
:101BC800D16F0F0E036F130E0B6F080EDB6F080E2D
:101BD800D26F1E0ED06F1200600E4324D96EDA6ADF
:101BE800000EDA22000EDF6E3D01F9A7FEEF0DF0C0
:101BF80000EF0EF015EF0EF0600E4324D96EDA6A8E
:101C0800000EDA220001DF8202D815EF0EF005007F
:101C1800FA6EDC51FD6EDD51FE6EF850FF6EFA5023
:101C280012003D01F9A31BEF0EF01DEF0EF032EF8D
:101C38000EF0600E4324D96EDA6A000EDA22000133
:101C4800DF8402D832EF0EF00500FA6EDA51FD6E2D
:101C5800DB51FE6EF850FF6EFA501200600E4324FE
:101C6800D96EDA6A000EDA22DF50D8B43EEF0EF0F1
:101C780040EF0EF050EF0EF002D84EEF0EF00500D8
:101C88000001FA6ED851FD6ED951FE6EF850FF6E04
:101C9800FA50120052EF0EF0C4EC12F01200000ECF
:101CA800196E17BE5CEF0EF05AEF0EF062EF0EF0F1
:101CB800166C171ED8B0172A010E196E15BE69EFDB
:101CC8000EF067EF0EF06FEF0EF0146C151ED8B023
:101CD800152A010E191A000E1B6E000E1A6E1650E8
:101CE8001710D8B47AEF0EF07CEF0EF0A4EF0EF0D8
:101CF800010E186E84EF0EF0D89016361736182A93
:101D080017AE89EF0EF08BEF0EF080EF0EF0D89043
:101D18001A361B361650145C17501558D8A097EF72
:101D28000EF099EF0EF09EEF0EF01650145E17505D
:101D3800155A1A80D89017321632182E8BEF0EF0DB
:101D48001950D8B4AAEF0EF0ACEF0EF0B0EF0EF0C9
:101D58001A6C1B1ED8B01B2A1AC014F01BC015F031
:101D68001200000E196E000E186E1AEC0DF0000E1F
:101D78001D6E000E1C6E030E1E6E03EC09F0CBB830
:101D8800C8EF0EF0CAEF0EF0C3EF0EF077EC0AF0D2
:101D9800010E4C6E000E3F6E9CC03AF09DC03BF0A9
:101DA80098C092F099C093F0000E00019E6F000158
:101DB8009E51D8B4E2EF0EF0E4EF0EF0DBEF0EF038
:101DC800000E9E6FCBBAEBEF0EF0EDEF0EF0FFEFCB
:101DD8000EF0000E8B6F000E8A6F000E856F000EDE
:101DE800846F000E1D6E000E1C6E030E1E6E03EC3B
:101DF80009F00BEF0FF0E2EC04F09CEC0CF008ECAF
:101E080006F020EC07F0D5EC09F0DBEF0EF012003D
:101E180039019397E00E146E1B0E156E9CEC13F0AF
:101E2800390193992E0E146E210E156E97EC13F04E
:101E3800000E3D01EC6F000EED6F000EEE6F000E10
:101E4800EF6F000EF06F000EF16FB00EF26F800EA4
:101E5800F36F000EF46F8A0EF56F000EF66F000E2A
:101E6800F76F000EF86F000EF96F000EFA6F960EFE
:101E7800146E270E156EA6EC13F0940E146E270E32
:101E8800156EA1EC13F0880E146E270E156EABECD0
:101E980013F0000E406E000E456E000E446E080EE4
:101EA8000001E26F000E436E000E426E000E416E9E
:101EB800390193871200000E256E000E246E4650DD
:101EC800471048104910D8B46CEF0FF06EEF0FF0C0
:101ED800A4EF0FF03C0160AB74EF0FF076EF0FF05A
:101EE8008EEF0FF0200E146EA10E156E070E166EF3
:101EF800000E176E46C018F047C019F048C01AF017
:101F080049C01BF010EC0BF014C024F015C025F0EC
:101F1800A4EF0FF0E00E146E5E0E156EF80E166E3E
:101F2800FF0E176E46C018F047C019F048C01AF0E7
:101F380049C01BF010EC0BF014C024F015C025F0BC
:101F480024C022F025C023F01200000E3E01DE6FEF
:101F5800000EDF6F000EE06F000EE16F000EE46F01
:101F6800000EE56F000EEA6F000EEC6F000EF16FC9
:101F7800580EF36F020EF46F000EF56F000EF66F39
:101F8800000EF76F000EF96F000EFA6F000EFB6F70
:101F9800000EFC6F000EFD6F000EFE6F1F0EFF6F30
:061FA800840EF86F120028
:101FB0003901A19F3F01185100017C6F3F01195168
:101FC00000017D6F3F011A5100017E6F7F6B3C0164
:101FD00060ABEDEF0FF0EFEF0FF0F8EF0FF0010E49
:101FE00000017827000E79237A237B2301EF10F07C
:101FF000FF0E00017827FF0E7923FF0E7A23FF0ED4
:102000007B231100D28A000ED2BE010E146ED29E26
:10201000550ED46EAA0ED46ED490000ED76E000E5C
:10202000D66E080ED56E550ED46EAA0ED46ED48020
:1020300014B002D0D29E01D0D28E390183998397F9
:10204000818F818B818D8A81888F8791898312000E
:1020500002EC10F004EC13F08BEC0DF084EC13F0B8
:1020600081EC12F0A9EC0FF098EC12F00AEC12F0EF
:1020700054EC13F038EC13F06CEC13F06AEC12F043
:10208000AEEC12F018EC11F078EC13F04DEC10F00F
:1020900060EC13F00CEC0FF01200C00E9B6E000E03
:1020A0009C6E050E9D6E000E996E000E986E3901A5
:1020B000A89D98506F0064FE16F0176A16C017F0BE
:1020C000166A16100001D26F1750D36F3901A89FFE
:1020D000988F8C0E146E260E156EB0EC13F0030E56
:1020E0009A6E12003901A19D3F011551466E16519D
:1020F000476E1751486E496A3C0160AB82EF10F0A1
:1021000084EF10F08DEF10F0010E00017827000E23
:1021100079237A237B2396EF10F0FF0E00017827B6
:10212000FF0E7923FF0E7A23FF0E7B231100080E8A
:102130000001E2619EEF10F0A0EF10F0B8EF10F098
:10214000700E4424D96EDA6A000EDA22DF503D01A7
:10215000EA6F442A070E4464B0EF10F0B2EF10F0BB
:10216000B4EF10F0000E446E0001E22BBAEF10F055
:102170003901939912009E0EF66E270EF76E000E2F
:10218000F86E09006F00D4FF4CF000EE60F03F0ED7
:10219000EE6AE806FDE100EE3AF0120EEE6AE8069D
:1021A000FDE1080ED56E000ED66E000ED76E000E45
:1021B000F86E000128EF13F06F0060FF11F00001CE
:1021C000DE51DF11D8B4E7EF10F0E9EF10F0F6EFD1
:1021D00010F002D8F6EF10F00500FA6EDE51FD6E39
:1021E000DF51FE6EF850FF6EFA501200600047F0AB
:1021F000D8FF11006F0060FF12F00001E051E11103
:10220000D8B405EF11F007EF11F014EF11F002D878
:1022100014EF11F00500FA6EE051FD6EE151FE6E13
:10222000F850FF6EFA50120060004BF0D8FF11001A
:10223000000EA76E000EA86E050EA96E000EA56E0C
:10224000000EA46E3901A69DA4506F0094FE14F0F8
:10225000156A14C015F0146A14100001CE6F1550E1
:10226000CF6F010EA66E12006F0060FF13F03901F0
:10227000A7913C4A3D2A3D5009E10A0E3C5CD8A09A
:1022800044EF11F046EF11F04CEF11F022EC12F098
:10229000000E3D6E000E3C6E60004FF0D8FF110046
:1022A0003901A9936F00D0FD03F06F00D4FD04F055
:1022B00003C001F004C002F002D86AEF11F005007B
:1022C0000001FA6ED651FD6ED751FE6EF850FF6ECA
:0622D000FA50120011009B
:1022D8003901AA916F00C0FD07F06F00C4FD08F036
:1022E80007C005F008C006F002D886EF11F0050017
:1022F8000001FA6ED451FD6ED551FE6EF850FF6E96
:10230800FA501200110014C016F015C017F0D8903A
:1023180017321632D890173216321650696E14C01A
:1023280016F0030E1616060E176ED8901636172ED0
:1023380099EF11F01650686E120014C016F015C00F
:1023480017F0D89017321632D89017321632165026
:102358006D6E14C016F0030E1616060E176ED89082
:102368001636172EB3EF11F016506C6E120014C00B
:1023780016F015C017F0D89017321632D8901732C9
:1023880016321650616E14C016F0030E1616060E9D
:10239800176ED8901636172ECDEF11F01650606EC6
:1023A800120014C016F015C017F0D8901732163264
:1023B800D890173216321650656E14C016F0030EF8
:1023C8001616060E176ED8901636172EE7EF11F070
:0623D8001650646E1200B5
:1023E0003901A89F0001D051D111D8B4FAEF11F0F2
:1023F000FCEF11F009EF12F002D809EF12F005001E
:10240000FA6ED051FD6ED151FE6EF850FF6EFA504B
:1024100012001100800E3F011E6F420E1F6F000E52
:10242000206F040E216F000E236F000E226F010E2D
:102430001D6F1C691B693901918B918F918D3F0133
:102440001F8F12000001CC51CD11D8B42AEF12F029
:102450002CEF12F039EF12F002D839EF12F005002C
:10246000FA6ECC51FD6ECD51FE6EF850FF6EFA50F3
:1024700012001200CDAE3FEF12F041EF12F047EF25
:1024800012F001C09AF002C09BF051EF12F000016F
:102490009A51015C9C6F9B5102589D6FD8909D335F
:1024A0009C331200CDAC57EF12F059EF12F05FEFF2
:1024B00012F005C096F006C097F069EF12F0000127
:1024C0009651055C986F97510658996FD89099333B
:1024D00098331200830E726E000E736E000E716ED2
:1024E000000E706EA40E146E240E156EBAEC13F06E
:1024F0003F015E513F0B80095E6F3901AA919A81BD
:102500001200830E766E000E776E000E756E000E52
:10251000746E740E146E240E156EBFEC13F03F0132
:102520005E51CF0B20095E6F3901A9939983120088
:10253000010EA26E000EA16E000EA36EF90E9F6E2C
:10254000000E9E6E3901A7919781980E146E270E8A
:10255000156EB5EC13F0E00EA06E1200000E3C01FB
:10256000616F030E626F020E636F000E646F000EE8
:10257000656F020E666F080E676F000E686F000EC3
:10258000696F850E606F1200680E4324D96EDA6A97
:10259000000EDA226F00A3F7DFFF432A070E436421
:1025A000D4EF12F0D6EF12F0D8EF12F0000E436E17
:1025B000412A12009AA4DFEF12F0E1EF12F0EAEFE5
:1025C00012F09A900A50996E600027F098FF9A8056
:1025D000EFEF12F00A50996E600027F098FF12009A
:1025E0003901A19B000E466E000E476E000E486E2C
:1025F000000E496E000E00017C6F000E7D6F000E14
:102600007E6F000E7F6F1100000E3901C06F000E4B
:10261000C16F000EC26F000EC36F000EC46F000EBC
:10262000C56F000EC66F000EC76F12009A826F0052
:1026300060FE10F06F0064FE0FF00F500B6E105034
:102640000D6E0BC00EF00DC009F00EC00AF01200A6
:1026500028EC10F0D28ED28C8E0E146E270E156ED2
:10266000B5EC13F0B5EC0EF032EF13F057EF00F0CD
:10267000050EAE6E000EAD6E000EAF6EAB68000EB6
:10268000AA6E3901A495B00EAC6E120016EC13F0D0
:1026900009C04AF00AC04BF0D8904B324A3290EC55
:1026A00013F03901A89F1200800E626E000E616E59
:1026B000000E606E3F015F513F0B80095F6F12009B
:1026C000800E666E000E656E000E646E3F015F51F7
:1026D000CF0B20095F6F1200800E6A6E590E696E73
:1026E000400E686E3F015F51F30B04095F6F1200EB
:1026F000800E6E6E590E6D6E400E6C6E3F015F5116
:10270000FC0B01095F6F1200600E3901D96F000EDA
:10271000DB6F000EDD6F080EDF6F000EDE6F120044
:10272000D2C009F0D3C00AF0DAEC12F0120014C0E3
:10273000DEF015C0DFF0120014C0E0F015C0E1F0CB
:10274000120014C0DAF015C0DBF0120014C0DCF087
:1027500015C0DDF0120014C0D8F015C0D9F0120079
:1027600014C0D0F015C0D1F0120014C0CCF015C0C8
:10277000CDF0120014C0D4F015C0D5F0120014C072
:10278000D6F015C0D7F01200C4EC12F01200000110
:0A2790009E2B12001200120012002E
:03279C0011000128
:020000040020DA
:10000000FF0FFF0FFF0FFF0FFF0FFF0FFF0FFF0F80
:020000040030CA
:0A0000008CFFFFFF9FFFFFFFFFFFD3
:00000001FF
