:0400000057EF00F0C6
:10000800E50FE50FE50FE50FE50FE50FE50FE50F48
:10001800E50FE50FE50FE50FE50F6F0FF00DA30DE9
:10002800E50FE50FE50FE50FE50FE50FE50FE50F28
:10003800E50FE50FE50F520E430EE50FE50FE50F4F
:10004800E50FE50FE50FE50F2B00E50FE50FE50FD1
:10005800E50FE50FE50FE50FE50FE50FE50FE50FF8
:10006800E50FE50FE50FE50FE50FE50FE50FE50FE8
:100078006F0EE50F2B00E50FE50FE50F2B002B00AA
:100088002B002B002B002B002B002B00E50FE60E7E
:10009800E50FBF0EE50FE50F2B002B002B002B0003
:0A00A800CC0EE50FFF00FAEF1CF08C
:10100000004F7574207C20644C3D202564207C209A
:1010100064523D202564002020204375727665527D
:10102000696768740020202043757276654C656698
:101030007400416674657243757276650A0064696E
:1010400073744C3D2025640A0064697374523D201A
:1010500025640A004F757443757276650A00496EFF
:1010600043757276650A00003650800B0001B36F3D
:1010700036503624B56F35AE40EF08F042EF08F039
:1010800043EF08F0B581B551D8B449EF08F04BEF04
:1010900008F060EF08F0B529D8A451EF08F053EF3D
:1010A00008F05BEF08F0000E336E000E346E000E99
:1010B000356E000E366E358E000E366E68EF08F017
:1010C000000E336E000E346E000E356E000E366E5E
:1010D0003A50800BB46FB351B419D8B472EF08F022
:1010E00074EF08F075EF08F0B38D3A503A24B46FFE
:1010F00039AE7DEF08F07FEF08F080EF08F0B481A3
:10110000B451D8B486EF08F088EF08F09DEF08F0EE
:10111000B429D8A48EEF08F090EF08F098EF08F00B
:10112000000E376E000E386E000E396E000E3A6EED
:10113000398E000E3A6EA5EF08F0000E376E000EE5
:10114000386E000E396E000E3A6EB551B45DD8B0EF
:10115000ACEF08F0AEEF08F0D5EF08F0B3ADB3EFA9
:1011600008F0B5EF08F0B7EF08F0800EB31BB5C07C
:10117000B6F0B4C0B5F0B6C0B4F033C0B6F037C006
:1011800033F0B6C037F034C0B6F038C034F0B6C073
:1011900038F035C0B6F039C035F0B6C039F036C0D9
:1011A000B6F03AC036F0B6C03AF0000EB66FB551A0
:1011B000B4C0AFF0B06BAF5F000EB05BB0BFEAEF92
:1011C00008F0B05109E11A0EAF5DD8A0EAEF08F0BF
:1011D000ECEF08F023EF09F03350341035103610DF
:1011E000D8A4F5EF08F0F8EF08F0010EF9EF08F0D9
:1011F000000EB66F000E336E000E346E000E356EAC
:10120000000E366EB4C0B5F02CEF09F0B6A10BEFAE
:1012100009F00DEF09F013EF09F0D890B63101098C
:10122000B66F15EF09F0D890B63333A01AEF09F076
:101230001CEF09F01DEF09F0B68F36343632353227
:1012400034323332B52BB451B55DD8A02AEF09F052
:101250002CEF09F006EF09F0B3BD31EF09F033EFE1
:1012600009F073EF09F0B551D8A439EF09F03BEF5D
:1012700009F045EF09F0000E336E000E346E000EDB
:10128000356E000E366E94EF0AF037503326385024
:101290003422395035223A50362236A052EF09F026
:1012A00054EF09F000EF0AF0B6A159EF09F05BEF37
:1012B00009F061EF09F0D890B6310109B66F63EF1C
:1012C00009F0D890B63333A068EF09F06AEF09F05F
:1012D0006BEF09F0B68F3634363235323432333272
:1012E000B52B00EF0AF03750335C38503458395082
:1012F00035583650800AAF6F3A50800AAF59D8B08F
:1013000084EF09F086EF09F0B1EF09F03350375C54
:10131000AF6F34503858B06F35503958B16F3650C0
:101320003A58B26FFF0EAF25336EFF0EB021346E08
:10133000FF0EB121356EFF0EB221366E800EB31B4B
:10134000B66DB651D8A4A7EF09F0A9EF09F0B9EF2F
:1013500009F0010E3326000E342235223622B9EF71
:1013600009F03750335E3850345A3950355A3A50B4
:10137000365A3350341035103610D8A4C2EF09F065
:10138000C4EF09F0F9EF09F0B651D8A4CAEF09F09B
:10139000CCEF09F0F9EF09F0000E336E000E346E59
:1013A000000E356E000E366E94EF0AF0D89033368C
:1013B000343635363636B6AFE0EF09F0E2EF09F0F5
:1013C000E3EF09F03380B6A1E8EF09F0EAEF09F0A6
:1013D000EEEF09F0D880B637F0EF09F0D890B637C5
:1013E000B551D8B4F6EF09F0F8EF09F0F9EF09F0CC
:1013F000B50735AEFEEF09F000EF0AF0D6EF09F0C1
:10140000000EB46FB6AF07EF0AF009EF0AF021EF54
:101410000AF0B6C0AFF07F0EAF17D8B412EF0AF0E3
:1014200014EF0AF018EF0AF0010EB46F21EF0AF082
:1014300033A01DEF0AF01FEF0AF021EF0AF014EFBE
:101440000AF0B451D8B427EF0AF029EF0AF054EFAC
:101450000AF0010E3326000E34223522362236A041
:1014600034EF0AF036EF0AF054EF0AF033C0AFF071
:1014700034C0B0F035C0B1F036C0B2F0B235B233DE
:10148000B133B033AF33AFC033F0B0C034F0B1C01C
:1014900035F0B2C036F0B529D8B451EF0AF053EFA9
:1014A0000AF054EF0AF0B52BB529D8B45AEF0AF078
:1014B0005CEF0AF064EF0AF0B551D8A462EF0AF0CD
:1014C00064EF0AF076EF0AF0000E336E000E346E11
:1014D000000E356E000E366EB551D8A472EF0AF0CC
:1014E00074EF0AF076EF0AF0000EB36FB5A17BEF50
:1014F0000AF07DEF0AF080EF0AF0358E81EF0AF0F6
:10150000359ED890B531366EB3AF89EF0AF08BEFC8
:101510000AF08CEF0AF0368E33C033F034C034F06A
:1015200035C035F036C036F012002A50800B00016D
:10153000A26F2A502A24A86F29AEA1EF0AF0A3EFC8
:101540000AF0A4EF0AF0A881A851D8B4AAEF0AF0D3
:10155000ACEF0AF0BFEF0AF0A829D8A4B2EF0AF066
:10156000B4EF0AF0BCEF0AF0000E276E000E286EF2
:10157000000E296E000E2A6E298EC7EF0AF0000EAB
:10158000276E000E286E000E296E000E2A6E2E5059
:10159000800BA21B2E502E24A36F2DAED2EF0AF08B
:1015A000D4EF0AF0D5EF0AF0A381A351D8B4DBEF52
:1015B0000AF0DDEF0AF0F0EF0AF0A329D8A4E3EF78
:1015C0000AF0E5EF0AF0EDEF0AF0000E2B6E000EC8
:1015D0002C6E000E2D6E000E2E6E2D8EF8EF0AF082
:1015E000000E2B6E000E2C6E000E2D6E000E2E6E59
:1015F000A351D8B4FEEF0AF000EF0BF008EF0BF0A8
:10160000A851D8A406EF0BF008EF0BF012EF0BF087
:10161000000E276E000E286E000E296E000E2A6E38
:10162000BCEF0CF02D5027026F00CCFFADF06F0027
:10163000D0FFAEF0AD51A46FA56BA66BA76BAE51FA
:10164000A96FAA6BAB6BAC6B2C5028026F00CCFF60
:10165000ADF06F00D0FFAEF0AD51A427000EA52372
:10166000A623A723AE51A927000EAA23AB23AC23A0
:101670002B5029026F00CCFFADF06F00D0FFAEF011
:10168000AD51A427000EA523A623A723AE51A92759
:10169000000EAA23AB23AC23A6C0A7F0A5C0A6F0DA
:1016A000A4C0A5F0A46B2B5028026F00CCFFADF0B6
:1016B0006F00D0FFAEF0AD51A427AE51A523000EB0
:1016C000A623000EA7232C5027026F00CCFFADF0FD
:1016D0006F00D0FFAEF0AD51A427AE51A523000E90
:1016E000A623000EA723A6C0A7F0A5C0A6F0A4C0FD
:1016F000A5F0A46B2B5027026F00CCFFADF06F005C
:10170000D0FFAEF0AD51A427AE51A523000EA62305
:10171000000EA7232D5028026F00CCFFADF06F0004
:10172000D0FFAEF0AD51A927AE51AA23000EAB23D6
:10173000000EAC232C5029026F00CCFFADF06F00DF
:10174000D0FFAEF0AD51A927AE51AA23000EAB23B6
:10175000000EAC232D5029026F00CCFFADF06F00BE
:10176000D0FFAEF0AD512F6EAE51306E316A326A9D
:1017700031C032F030C031F02FC030F02F6A2F501E
:10178000A9273050AA233150AB233250AC23A4C038
:101790002FF0A5C030F0A6C031F0A7C032F0190E6E
:1017A000D7EF0BF0D8903232313230322F32E82E70
:1017B000D2EF0BF02F50A9273050AA233150AB2382
:1017C0003250AC23A6C0A7F0A5C0A6F0A4C0A5F0D7
:1017D000A46BA351A8C02FF0306A2F26000E302230
:1017E000820E2F24AD6FFF0E3020AE6F0DEF0CF088
:1017F000D890A937AA37AB37AC37A7AF02EF0CF0B8
:1018000004EF0CF005EF0CF0A981D890A437A537B0
:10181000A637A737AD07D8A0AE07ABAF12EF0CF0D5
:1018200014EF0CF0F8EF0BF0000EA36FA7AF1BEF57
:101830000CF01DEF0CF041EF0CF0FF0EA4152F6E15
:10184000FF0EA515306EFF0EA615316E7F0EA71583
:10185000326E2F50301031103210D8B432EF0CF0FD
:1018600034EF0CF038EF0CF0010EA36F41EF0CF0E9
:10187000A9A13DEF0CF03FEF0CF041EF0CF034EF7D
:101880000CF0A351D8B447EF0CF049EF0CF06DEF1A
:101890000CF0010EA927000EAA23AB23AC23ACA1A8
:1018A00054EF0CF056EF0CF06DEF0CF0A9C02FF0D8
:1018B000AAC030F0ABC031F0ACC032F032343232BA
:1018C000313230322F322FC0A9F030C0AAF031C0EF
:1018D000ABF032C0ACF0AD4BAE2BAEBF78EF0CF03E
:1018E000AE5108E1AD29D8A078EF0CF07AEF0CF0FA
:1018F00084EF0CF0000EA96F000EAA6F800EAB6F84
:101900007F0EAC6FB2EF0CF0AEBF91EF0CF0AE51AA
:1019100006E1AD05D8B08FEF0CF091EF0CF09DEF24
:101920000CF0000EA96F000EAA6F000EAB6F000E38
:10193000AC6F000EA26FB2EF0CF0ADC0A8F0FF0EBE
:10194000A917FF0EAA177F0EAB17000EAC17A8A1A0
:10195000ACEF0CF0AEEF0CF0AFEF0CF0AB8FD8901B
:10196000A831AC6FA251AC13A9C027F0AAC028F0CF
:10197000ABC029F0ACC02AF0120033C0B2F034C0C2
:10198000B3F035C0B4F036C0B5F037C0B6F038C0EB
:10199000B7F039C0B8F03AC0B9F00001B9BFD3EF21
:1019A0000CF0D6EF0CF0010ED7EF0CF0000EB06F7C
:1019B000B16BB051B111D8B4E0EF0CF0E2EF0CF024
:1019C000F2EF0CF0B91FB81FB71FB61FB51FB41F39
:1019D000B31FB26D000EB323B423B523B623B723D0
:1019E000B823B9233CBEF7EF0CF0F9EF0CF0FAEF97
:1019F0000CF03D923CBE07EF0DF03C5006E13B047D
:101A0000D8B005EF0DF007EF0DF00DEF0DF0000E63
:101A1000AD6F010EAC6F11EF0DF03BC0ACF03CC0F0
:101A2000ADF082C0AEF083C0AFF0B051B111D8A418
:101A30001CEF0DF01EEF0DF025EF0DF03DA423EF90
:101A40000DF025EF0DF028EF0DF0AE07D8A0AF0791
:101A5000000EBB6F1F0EBA6F000E01011F6FAEEFBD
:101A60000DF0BA07D8A0BB07000EBA25D96E010E3B
:101A7000BB21DA6EB2C014F0B3C015F0B4C016F0DA
:101A8000B5C017F0B6C018F0B7C019F0B8C01AF05A
:101A9000B9C01BF00A0E1C6E000E1D6E000E1E6EED
:101AA000000E1F6E000E206E000E216E000E226EC4
:101AB000000E236EB2EC13F014C0A2F015C0A3F018
:101AC00016C0A4F017C0A5F018C0A6F019C0A7F062
:101AD0001AC0A8F01BC0A9F0A2C026F0A4C027F02D
:101AE00049EC1CF02650300FDF6E0001AC07D8A087
:101AF000AD07AE07D8A0AF07B2C014F0B3C015F061
:101B0000B4C016F0B5C017F0B6C018F0B7C019F0E1
:101B1000B8C01AF0B9C01BF00A0E1C6E000E1D6E84
:101B2000000E1E6E000E1F6E000E206E000E216E47
:101B3000000E226E000E236EEEEC12F014C0B2F016
:101B400015C0B3F016C0B4F017C0B5F018C0B6F0A9
:101B500019C0B7F01AC0B8F01BC0B9F00001BBBF84
:101B6000BAEF0DF0BB5108E1BA05D8A0BAEF0DF0FD
:101B7000BCEF0DF0ECEF0DF0B251B311B411B51193
:101B8000B611B711B811B911D8A4C9EF0DF0CBEF48
:101B90000DF031EF0DF0ADBFD8EF0DF0AD5106E116
:101BA000AC05D8B0D6EF0DF0D8EF0DF031EF0DF059
:101BB000AFBFE3EF0DF0AF5108E1AE05D8A0E3EF02
:101BC0000DF0E5EF0DF0ECEF0DF03DB2EAEF0DF0AA
:101BD000ECEF0DF031EF0DF0B051B111D8A4F3EFEF
:101BE0000DF0F5EF0DF0FCEF0DF03DA4FAEF0DF068
:101BF000FCEF0DF01BEF0EF0BA07D8A0BB07B051F9
:101C0000B111D8A406EF0EF008EF0EF00EEF0EF0B3
:101C1000000EAB6F2B0EAA6F12EF0EF0000EAB6F23
:101C20002D0EAA6F000EBA25D96E010EBB21DA6EF9
:101C30006000ABF2DFFF31C026F032C027F0000EAB
:101C4000BA25286E010EBB21296EAEC02AF0AFC0A6
:101C50002BF0DAEC18F026C031F027C032F0120079
:101C60006000FBF2D9FF6000FFF2DAFF6F007BFF3C
:101C7000F6FF6F0077FFF7FFF86A0800F550250AB6
:101C8000D8A445EF0EF047EF0EF013EF0FF0600011
:101C9000FBF2D9FF6000FFF2DAFFDE2A000EDD2240
:101CA000000E0001836F000E826F82C03DF083C082
:101CB0003EF03B683C686000FBF2D9FF6000FFF239
:101CC000DAFF6F007BFFF6FF6F0077FFF7FFF86A20
:101CD0000800F550640AD8B470EF0EF072EF0EF001
:101CE00089EF0EF06000FBF2D9FF6000FFF2DAFF2F
:101CF0006F007BFFF6FF6F0077FFF7FFF86A0800C1
:101D0000F550690AD8A487EF0EF089EF0EF0D3EFF3
:101D10000EF06000FBF2D9FF6000FFF2DAFFDE2A6E
:101D2000000EDD22600003F3D9FF600007F3DAFF45
:101D30006F007CFFC2F0020EDE266F007CFFC3F056
:101D4000000EDD2260000BF3D9FF60000FF3DAFF15
:101D50006F0078FFC4F06F0074FFC5F0000EC5BFC0
:101D6000FF0EC66FC76FC86FC96FCA6FCB6FBCC09D
:101D700031F0BDC032F0C4C033F0C5C034F0C6C0CD
:101D800035F0C7C036F0C8C037F0C9C038F0CAC097
:101D900039F0CBC03AF0BDEC0CF031C0BCF032C031
:101DA000BDF035EF0FF06000FBF2D9FF6000FFF2ED
:101DB000DAFF6F007BFFF6FF6F0077FFF7FFF86A2F
:101DC0000800F550250AD8A4E8EF0EF0EAEF0EF06F
:101DD00004EF0FF06000FBF2D9FF6000FFF2DAFFC2
:101DE000DE2A000EDD22000E176E250E166EBCC018
:101DF00018F0BDC019F0EDEC19F0000E0001BD6F38
:101E0000010EBC6F35EF0FF06000FBF2D9FF6000F0
:101E1000FFF2DAFFDE2A000EDD22000EBD6F000E9B
:101E2000BC6F35EF0FF06000FBF2D9FF6000FFF2EE
:101E3000DAFF6F007BFFF6FF6F0077FFF7FFF86AAE
:101E40000800F550166E176ABCC018F0BDC019F036
:101E5000EDEC19F06000FBF2D9FF6000FFF2DAFF51
:101E6000DE2A000EDD22FDEF0EF0120012EF10F060
:101E700092519A5DDE6F93519B59DF6F9051965D41
:101E8000E06F91519759E16F010ED46F100ED56F2D
:101E9000DEC0D6F0DFC0D7F0E0C0D8F0E1C0D9F0A6
:101EA000CAEC1EF00001DFBF5FEF0FF0DF5109E168
:101EB000330EDE5DD8A05FEF0FF061EF0FF06FEF34
:101EC0000FF0000E9C6F010E9E6F030E9F6F250E8C
:101ED000D46F100ED56FCAEC1EF089EF0FF0E1BF82
:101EE0007BEF0FF0E15109E1330EE05DD8A07BEF0D
:101EF0000FF07DEF0FF089EF0FF0000E9C6F010ED9
:101F00009E6F040E9F6F170ED46F100ED56FCAEC24
:101F10001EF0470E0001D46F100ED56FCAEC1EF0F4
:101F200030EF10F0050E9C6598EF0FF09AEF0FF070
:101F3000A6EF0FF0000E9C6F020E9E6F5E0ED46F28
:101F4000100ED56FCAEC1EF030EF10F09C2B30EF66
:101F500010F0140E9C65AFEF0FF0B1EF0FF0A6EF8D
:101F60000FF0030E9F19D8A4B8EF0FF0BAEF0FF0DF
:101F7000C6EF0FF03E0ED46F100ED56F9AC0D6F09C
:101F80009BC0D7F0CAEC1EF0D9EF0FF0030E9F19DB
:101F9000D8A4CDEF0FF0CFEF0FF0D9EF0FF0490E2F
:101FA000D46F100ED56F96C0D6F097C0D7F0CAEC9C
:101FB0001EF000019B5109E1280E9A5DD8A0E3EFC5
:101FC0000FF0E5EF0FF0F0EF0FF0975107E1280E5B
:101FD000965DD8B0EEEF0FF0F0EF0FF030EF10F0AD
:101FE000000E9C6F030E9E6F000E9F6F320ED46F1B
:101FF000100ED56FCAEC1EF030EF10F0140E9C6579
:1020000004EF10F006EF10F0A6EF0FF0000E9C6F3B
:10201000000E9E6F540ED46F100ED56FCAEC1EF0DA
:1020200030EF10F000019E51DC6FDD6BDD51000AD6
:10203000D8B41DEF10F030EF10F0DC51000AD8B426
:1020400038EF0FF0010AD8B492EF0FF0030AD8B4BA
:10205000A9EF0FF0010AD8B4FEEF0FF030EF10F047
:102060009AC092F09BC093F096C090F097C091F008
:102070001200000E226E000E216E000E246E000E65
:10208000236EA7EF10F01CC01FF01DC020F01F1E14
:10209000201E1F4A202A1FC021F020C022F01CC091
:1020A00023F01DC024F0C8EF10F01CC01FF01DC0AD
:1020B00020F01F1E201E1F4A202A1FC021F020C012
:1020C00022F01CC01FF01DC020F01F1E201E1F4A42
:1020D000202A1FC023F020C024F0C8EF10F01CC03D
:1020E0001FF01DC020F01F1E201E1F4A202A1FC0E7
:1020F00021F020C022F01CC014F01DC015F0000E0D
:10210000176E030E166E78EC18F014C023F015C08D
:1021100024F0C8EF10F01CC01FF01DC020F01F1EDF
:10212000201E1F4A202A1FC021F020C022F0C8EF25
:1021300010F01CC01FF01DC020F01F1E201E1F4AE3
:10214000202A1FC023F020C024F0C8EF10F01E503A
:102150001F6E206A2050000AD8B4B1EF10F0C8EF0B
:1021600010F01F50000AD8B443EF10F0010AD8B4A1
:1021700055EF10F0030AD8B46FEF10F0010AD8B48D
:102180008BEF10F0070AD8B499EF10F0C8EF10F0F9
:1021900022BED4EF10F0225009E1420E215CD8A0FB
:1021A000D4EF10F0D6EF10F0DCEF10F0000E226E3E
:1021B000410E216EEEEF10F022AEE8EF10F0BF0EF0
:1021C000215CFF0E2258D8B0E8EF10F0EAEF10F0D3
:1021D000EEEF10F0FF0E226EBF0E216E24BEFAEF5E
:1021E00010F0245009E12E0E235CD8A0FAEF10F075
:1021F000FCEF10F002EF11F0000E246E2D0E236E96
:1022000014EF11F024AE0EEF11F0D30E235CFF0E8D
:102210002458D8B00EEF11F010EF11F014EF11F0B8
:10222000FF0E246ED30E236E21506008146E2250D0
:10223000D8A0E82A0108156E15EC1DF0235065089A
:10224000146E2450D8A0E82A0108156E2FEC1DF05A
:102250001200000E0001C46F000EC36FC9EF11F031
:10226000A15109E1290EA05DD8A039EF11F03BEF93
:1022700011F03DEF11F0000E9F6FA15107E1280E04
:10228000A05DD8B046EF11F048EF11F05EEF11F00D
:102290008DBF53EF11F08D5108E18C05D8A053EF9D
:1022A00011F055EF11F05EEF11F08CC0C3F08DC04E
:1022B000C4F0C307D8A0C407EAEF11F0A15107E1A9
:1022C000140EA05DD8B067EF11F069EF11F0EAEFDE
:1022D00011F08CC0C3F08DC0C4F0FE0EC327FF0EFA
:1022E000C423EAEF11F0A15107E1280EA05DD8B098
:1022F0007CEF11F07EEF11F080EF11F0010E9F6F77
:10230000000E376E000E386E160E396E430E3A6EA2
:10231000CD0E2B6ECC0E2C6E4C0E2D6E3F0E2E6EF7
:10232000A0C019F0A1C01AF01B6A1C6A000E14ECC0
:1023300012F019C027F01AC028F01BC029F01CC0E9
:102340002AF095EC0AF027C033F028C034F029C0F9
:1023500035F02AC036F034EC08F033C0B7F034C0A2
:10236000B8F035C0B9F036C0BAF09DEC16F0B7C081
:10237000C3F0B8C0C4F0EAEF11F0FF0EC46F6A0EEC
:10238000C36FEAEF11F0000EC46F960EC36FEAEF51
:1023900011F09F51C16FC26BC251000AD8B4D3EF84
:1023A00011F0EAEF11F0C151000AD8B473EF11F047
:1023B000010AD8B430EF11F0030AD8B4BDEF11F020
:1023C000010AD8B4C3EF11F0070AD8B4C3EF11F073
:1023D000EAEF11F00001C4BFF7EF11F0910EC35DF9
:1023E000010EC459D8A0F7EF11F0F9EF11F0FDEF8D
:1023F00011F0010EC46F900EC36FC4AF09EF12F05D
:10240000060EC35DFF0EC459D8B009EF12F00BEFF2
:1024100012F00FEF12F0FF0EC46F060EC36FC3C0B1
:102420008CF0C4C08DF01200216E2150D8B41BEF87
:1024300012F01DEF12F03FEF12F01CBE24EF12F06D
:1024400022EF12F03FEF12F019C01DF01AC01EF07B
:102450001BC01FF01CC020F01D1E1E1E1F1E201EB4
:102460001D2A000E1E221F2220221DC023F01EC086
:1024700024F01FC025F020C026F047EF12F019C04D
:1024800023F01AC024F01BC025F01CC026F0195000
:102490001A101B101C10D8A450EF12F052EF12F0BB
:1024A0005CEF12F0000E196E000E1A6E000E1B6E1D
:1024B000000E1C6EEDEF12F0960E226E66EF12F01B
:1024C000222AD8902632253224322332000E2314B9
:1024D0001D6E000E24141E6E000E25141F6EFE0EBF
:1024E0002614206E1D501E101F102010D8A47BEF44
:1024F00012F07DEF12F060EF12F08BEF12F0222A53
:10250000010E2326000E242225222622D8902632D0
:10251000253224322332000E23141D6E000E2414A3
:102520001E6E000E25141F6EFF0E2614206E1D5009
:102530001E101F102010D8A4A0EF12F0A2EF12F06E
:102540007FEF12F0AAEF12F02206D890233624363D
:102550002536263625BEAFEF12F0B1EF12F0B9EFF7
:1025600012F0020E2260B7EF12F0B9EF12F0A4EFF2
:1025700012F022B0BEEF12F0C0EF12F0C1EF12F075
:10258000259ED890223222C01DF01E6A1F6A206A42
:102590001DC020F01F6A1E6A1D6A1D5023121E50A6
:1025A00024121F502512205026122150D8B4DBEFE0
:1025B00012F0DDEF12F0E5EF12F01CBEE4EF12F0C6
:1025C000E2EF12F0E5EF12F0268E23C019F024C0DE
:1025D0001AF025C01BF026C01CF01200000E256E5C
:1025E00023BEF7EF12F0F5EF12F009EF13F0231E00
:1025F000221E211E201E1F1E1E1E1D1E1C6C000ED4
:102600001D221E221F222022212222222322010EED
:10261000256E1BBE10EF13F00EEF13F022EF13F038
:102620001B1E1A1E191E181E171E161E151E146CB0
:10263000000E152216221722182219221A221B22F6
:10264000010E251A20EE26F0070EDE6AE806FDE2EE
:102650001C501D101E101F102010211022102310BE
:10266000D8B435EF13F037EF13F089EF13F0010E04
:10267000246E45EF13F0D8901C361D361E361F36DB
:102680002036213622362336242A23AE4AEF13F091
:102690004CEF13F03BEF13F0D89026362736283650
:1026A00029362A362B362C362D361C50145C1D50FC
:1026B00015581E5016581F501758205018582150A2
:1026C000195822501A5823501B58D8A06AEF13F0FB
:1026D0006CEF13F07DEF13F01C50145E1D50155A73
:1026E0001E50165A1F50175A2050185A2150195A66
:1026F00022501A5A23501B5A2680D8902332223255
:10270000213220321F321E321D321C32242E4CEF59
:1027100013F02550D8B48FEF13F091EF13F0A1EF21
:1027200013F02D1E2C1E2B1E2A1E291E281E271EAE
:10273000266C000E2722282229222A222B222C2234
:102740002D2226C014F027C015F028C016F029C08D
:1027500017F02AC018F02BC019F02CC01AF02DC0A9
:102760001BF01200000E256E1BBEBBEF13F0B9EF7D
:1027700013F0CDEF13F01B1E1A1E191E181E171E84
:10278000161E151E146C000E152216221722182272
:1027900019221A221B22010E256E23BED4EF13F03C
:1027A000D2EF13F0E4EF13F0231E221E211E201E91
:1027B0001F1E1E1E1D1E1C6C000E1D221E221F220F
:1027C00020222122222223221C501D101E101F1005
:1027D0002010211022102310D8B4F1EF13F0F3EFE2
:1027E00013F03BEF14F0010E246E01EF14F0D890BB
:1027F0001C361D361E361F3620362136223623362D
:10280000242A23AE06EF14F008EF14F0F7EF13F0CC
:102810001C50145C1D5015581E5016581F50175848
:10282000205018582150195822501A5823501B581C
:10283000D8A01DEF14F01FEF14F02FEF14F01C5070
:10284000145E1D50155A1E50165A1F50175A20500C
:10285000185A2150195A22501A5A23501B5AD890EC
:1028600023322232213220321F321E321D321C32DC
:10287000242E08EF14F02550D8B441EF14F043EFA4
:1028800014F053EF14F01B1E1A1E191E181E171EEB
:10289000161E151E146C000E152216221722182261
:1028A00019221A221B2214C014F015C015F016C0EC
:1028B00016F017C017F018C018F019C019F01AC098
:1028C0001AF01BC01BF0120000018A518C5DC36F0F
:1028D0008B518D59C46F88518A5DC56F89518B5951
:1028E000C66F38EC1AF022C08AF023C08BF0CD0EF0
:1028F0002B6ECC0E2C6E4C0E2D6E3D0E2E6E0001EE
:10290000C551C35DC16FC651C459C26FC1C019F072
:10291000C2C01AF0000E1ABEFF0E1B6E1C6E010E16
:1029200014EC12F019C027F01AC028F01BC029F0CF
:102930001CC02AF095EC0AF027C0B7F028C0B8F008
:1029400029C0B9F02AC0BAF09DEC16F00001B751C9
:10295000C76FC751800A7C0FD8A0B1EF14F0B3EF56
:1029600014F0B7EF14F0030EC76FC3EF14F0C751A4
:10297000800A830FD8B0BFEF14F0C1EF14F0C3EF9B
:1029800014F0FD0EC76F8651C725866F000EC7BFB6
:10299000FF0E8721876F87BFD7EF14F0590E865D32
:1029A000020E8759D8A0D7EF14F0D9EF14F0DFEF5B
:1029B00014F0020E876F580E866FF1EF14F087AF98
:1029C000EBEF14F0D40E865DFE0E8759D8B0EBEF16
:1029D00014F0EDEF14F0F1EF14F0FE0E876FD40E4B
:1029E000866F86C018F087C019F0A3EC17F08AC074
:1029F00088F08BC089F01200000196519A5D276E15
:102A000097519B59286E27C014F028C015F0000E6E
:102A1000176E020E166E78EC18F014C027F015C071
:102A200028F06CEF15F027C01CF028C01DF0020E36
:102A30001E6E39EC10F08EEF15F027C01CF028C088
:102A40001DF0030E1E6E39EC10F08EEF15F096514E
:102A50009A5D97519B59D8B030EF15F032EF15F0D1
:102A60003CEF15F0FF0E1D6EBF0E1C6E030E1E6EAA
:102A700039EC10F08EEF15F0000E1D6E410E1C6E3D
:102A8000030E1E6E39EC10F08EEF15F0020E9E193B
:102A9000D8A44DEF15F04FEF15F01DEF15F0000E17
:102AA0001D6E410E1C6E000E1E6E39EC10F08EEF86
:102AB00015F0020E9E19D8A460EF15F062EF15F024
:102AC0001DEF15F0FF0E1D6EBF0E1C6E000E1E6E6C
:102AD00039EC10F08EEF15F000019F51256E266A3B
:102AE0002650000AD8B477EF15F08EEF15F0255078
:102AF000000AD8B41DEF15F0010AD8B413EF15F091
:102B0000030AD8B427EF15F0010AD8B446EF15F040
:102B1000070AD8B459EF15F08EEF15F01200CBA8C4
:102B200094EF15F096EF15F08FEF15F07FEC1FF096
:102B300084C019F085C01AF01B6A1C6A000E14ECE0
:102B400012F019C027F01AC028F01BC029F01CC0D1
:102B50002AF0A40E2B6E700E2C6E3D0E2D6E450EBF
:102B60002E6E21EC17F0D8A0B8EF15F0BAEF15F0E3
:102B700096EF15F09AC092F09BC093F096C090F03B
:102B800097C091F000019D51D8B4C9EF15F0CBEF7B
:102B900015F0C2EF15F0000E9D6FCBAAD2EF15F025
:102BA000D4EF15F0E3EF15F0000E00018D6F000E6D
:102BB0008C6F000E1D6E000E1C6E030E1E6E39EC27
:102BC00010F016EF16F0220EB2EC1DF014C019F042
:102BD00015C01AF01B6A1C6A000E14EC12F019C022
:102BE00027F01AC028F01BC029F01CC02AF0A40E40
:102BF0002B6E700E2C6E3D0E2D6E450E2E6E21EC42
:102C000017F0D8B006EF16F008EF16F00AEF16F03E
:102C1000D4EF15F036EC0FF082EC1AF0FCEC14F067
:102C200029EC11F064EC14F0C2EF15F01200000E64
:102C30001D6E1BBE20EF16F01EEF16F02AEF16F0E9
:102C40001B1E1A1E191E186C000E19221A221B2296
:102C5000010E1D6E17BE31EF16F02FEF16F03BEF91
:102C600016F0171E161E151E146C000E15221622C5
:102C70001722010E1D1A000E1E6E000E1F6E000E92
:102C8000206E000E216E185019101A101B10D8B4A7
:102C90004CEF16F04EEF16F084EF16F0010E1C6E9E
:102CA00058EF16F0D890183619361A361B361C2AEB
:102CB0001BAE5DEF16F05FEF16F052EF16F0D890F6
:102CC0001E361F36203621361850145C1950155800
:102CD0001A5016581B501758D8A071EF16F073EF02
:102CE00016F07CEF16F01850145E1950155A1A5051
:102CF000165A1B50175A1E80D8901B321A3219329E
:102D000018321C2E5FEF16F01D50D8B48AEF16F063
:102D10008CEF16F094EF16F0211E201E1F1E1E6C65
:102D2000000E1F22202221221EC014F01FC015F009
:102D300020C016F021C017F012000001B935BA35D5
:102D4000C06FC051D8A4A7EF16F0A9EF16F0B3EFEB
:102D500016F0000EB76F000EB86F000EB96F000EC0
:102D6000BA6F20EF17F0B7C0BBF0B8C0BCF0B9C065
:102D7000BDF0BAC0BEF0200EC3EF16F0D890BE333F
:102D8000BD33BC33BB33E82EBEEF16F0BB51BF6F73
:102D9000B98FFF0EB717FF0EB817FF0EB917000E49
:102DA000BA17960EC05FC0BFDAEF16F0D8EF16F074
:102DB000F0EF16F0C051800A970FD8B0E2EF16F08E
:102DC000E4EF16F0E6EF16F0A9EF16F0D890BA335C
:102DD000B933B833B733C03FE6EF16F008EF17F05A
:102DE0001F0EC065F6EF16F0F8EF16F000EF17F0C3
:102DF000A9EF16F0D890B737B837B937BA37C00748
:102E0000C051D8A406EF17F008EF17F0FAEF16F04C
:102E1000BF51D8B40EEF17F010EF17F018EF17F0FE
:102E2000BA1FB91FB81FB76D000EB823B923BA2354
:102E3000B7C0B7F0B8C0B8F0B9C0B9F0BAC0BAF00E
:102E40001200000E27142F6E000E2814306E800E14
:102E50002914316E7F0E2A14326E2F50301031102B
:102E60003210D8A436EF17F038EF17F040EF17F014
:102E7000000E276E000E286E000E296E000E2A6EC0
:102E8000000E2B142F6E000E2C14306E800E2D149D
:102E9000316E7F0E2E14326E2F50301031103210E2
:102EA000D8A455EF17F057EF17F05FEF17F0000EAB
:102EB0002B6E000E2C6E000E2D6E000E2E6E2AAEA6
:102EC00064EF17F066EF17F06FEF17F0276C281E0E
:102ED000D8B0282A291ED8B0292A800E2A562EAE0C
:102EE00074EF17F076EF17F07FEF17F02B6C2C1EB6
:102EF000D8B02C2A2D1ED8B02D2A800E2E56000EAA
:102F0000271A000E281A000E291A800E2A1A000EFF
:102F10002B1A000E2C1A000E2D1A800E2E1A2B5072
:102F2000275C2C5028582D5029582E502A58D8B09C
:102F30009CEF17F09EEF17F0A1EF17F0D890A2EFDB
:102F400017F0D880120019BEAFEF17F0195009E141
:102F5000020E185CD8A0AFEF17F0B1EF17F0D1EF69
:102F600017F019BEBDEF17F0590E185C020E195874
:102F7000D8A0BDEF17F0BFEF17F0C3EF17F0020EA8
:102F8000196E580E186E18C014F019C015F063ECC5
:102F90001DF0000E156E000E146E49EC1DF012EFC0
:102FA00018F019AEDCEF17F01828FF0E1958D8B03A
:102FB000DCEF17F0DEEF17F006EF18F019AEEAEFCE
:102FC00017F0D40E185CFE0E1958D8B0EAEF17F0BF
:102FD000ECEF17F0F0EF17F0FE0E196ED40E186E2E
:102FE000000E156E000E146E63EC1DF018C01AF082
:102FF00019C01BF01A1E1B1E1A4A1B2A1AC014F0F5
:103000001BC015F049EC1DF012EF18F0000E156E04
:10301000000E146E63EC1DF0000E156E000E146EA3
:1030200049EC1DF01200000EBE6E000EBD6E240EA7
:10303000BA6E000EBB6E000EBC6E070EC66EC00EE2
:10304000C26EF70EC36EC468C5681F0E3A01706F7A
:103050006069C00E506F070E806F7F0E406F000ECC
:10306000716F000E816F000E516F000E416F000EE8
:10307000616F000E5A6F000E5B6F000E6A6F000EDC
:103080006B6F000E7A6F000E7B6F000E826F000E6A
:10309000426F000E526F000E626F000E726F436936
:1030A000536963697369070E836F4469546964697E
:1030B00074690F0E846F1F0ECF6F090EDC6F0E0E3A
:1030C000016F0A0EE56F0D0E006F1D0EC96F100E19
:1030D000046F070ED96F090ED16F0F0E036F130E19
:1030E0000B6F080EDB6F080ED26F1E0ED06F120032
:1030F000000E196E17BE81EF18F07FEF18F087EF02
:1031000018F0166C171ED8B0172A010E196E15BECE
:103110008EEF18F08CEF18F094EF18F0146C151E69
:10312000D8B0152A010E191A000E1B6E000E1A6E69
:1031300016501710D8B49FEF18F0A1EF18F0C9EF90
:1031400018F0010E186EA9EF18F0D8901636173641
:10315000182A17AEAEEF18F0B0EF18F0A5EF18F080
:10316000D8901A361B361650145C17501558D8A034
:10317000BCEF18F0BEEF18F0C3EF18F01650145E55
:103180001750155A1A80D89017321632182EB0EFF1
:1031900018F01950D8B4CFEF18F0D1EF18F0D5EFE0
:1031A00018F01A6C1B1ED8B01B2A1AC014F01BC0D2
:1031B00015F012003DA0DFEF18F0E1EF18F0EBEF93
:1031C00018F028C01FF029C020F026C021F027C029
:1031D00022F005EC1CF02BBEF0EF18F0F2EF18F027
:1031E000F8EF18F02AC02FF02BC030F0FCEF18F0E9
:1031F000000E306E000E2F6E000E2E6E000E2D6E25
:103200000EEF19F0000E176E200E166E26C018F085
:1032100027C019F0EDEC19F02D4A2E2A2F502D5C05
:103220002E50800A2C6E3050800A2C58D8A01BEFEC
:1032300019F01DEF19F002EF19F03DB022EF19F06F
:1032400024EF19F02EEF19F028C01FF029C020F04C
:1032500026C021F027C022F005EC1CF028C014F095
:1032600029C015F069EC1CF02F501424266E305044
:103270001520276E1200600E4524D96EDA6A000E02
:10328000DA22000EDF6E3D01F9A749EF19F04BEF8E
:1032900019F05FEF19F0600E4524D96EDA6A000E5E
:1032A000DA220001DF8202D85FEF19F00500FA6E22
:1032B000F251FD6EF351FE6EFF6AFA5012003D01AD
:1032C000F9A365EF19F067EF19F07BEF19F0600EC5
:1032D0004524D96EDA6A000EDA220001DF8402D8B2
:1032E0007BEF19F00500FA6EF051FD6EF151FE6EA4
:1032F000FF6AFA501200600E4524D96EDA6A000E99
:10330000DA22DF50D8B487EF19F089EF19F098EF7F
:1033100019F002D896EF19F00500FA6E0001EE518F
:10332000FD6EEF51FE6EFF6AFA5012009AEF19F02F
:103330009EEC1EF0120039019397760E146E320E39
:10334000156E98EC1FF0390193994E0E146E380EDD
:10335000156E93EC1FF0000E3D01EC6F000EED6F4B
:10336000000EEE6F000EEF6F000EF06F000EF16FAB
:10337000B00EF26F800EF36F000EF46F8A0EF56FD1
:10338000000EF66F000EF76F000EF86F000EF96F6B
:10339000000EFA6F8E0E146E3F0E156EA2EC1FF02B
:1033A0008C0E146E3F0E156E9DEC1FF0800E146E89
:1033B0003F0E156EA7EC1FF0000E426E000E476E1A
:1033C000000E466E080E4C6E000E456E000E446EEA
:1033D000000E436E39019387120018501910D8B4AB
:1033E000F4EF19F0F6EF19F0FFEF19F0185019107B
:1033F000D8A4FDEF19F0FFEF19F004EF1AF0165002
:103400008EEC1FF037EF1AF020EE04F01850D9269A
:103410001950DA22DE50DE10D8B411EF1AF013EF93
:103420001AF02EEF1AF020EE04F01850D926195099
:10343000DA2210EE02F01850E1261950E222DE5096
:10344000E65CE650800A1E6EDE50800A1E58D8B038
:103450002CEF1AF02EEF1AF037EF1AF020EE02F0F0
:103460001850D9261950DA22DE2A000EDD22120069
:10347000000E256E000E246E485049104A104B1065
:10348000D8B445EF1AF047EF1AF07DEF1AF03C017F
:1034900060AB4DEF1AF04FEF1AF067EF1AF0200E05
:1034A000146EA10E156E070E166E000E176E48C034
:1034B00018F049C019F04AC01AF04BC01BF017ECC5
:1034C00016F014C024F015C025F07DEF1AF0E00EC0
:1034D000146E5E0E156EF80E166EFF0E176E48C057
:1034E00018F049C019F04AC01AF04BC01BF017EC95
:1034F00016F014C024F015C025F024C022F025C019
:1035000023F012000001A15107E10A0EA05DD8B01E
:103510008CEF1AF08EEF1AF091EF1AF0412A9CEF1F
:103520001AF0020E9F19D8B498EF1AF09AEF1AF019
:103530009CEF1AF0000E416E190E4164A2EF1AF0D2
:10354000A4EF1AF0B5EF1AF0020E9F6FA15109E136
:10355000290EA05DD8A0AFEF1AF0B1EF1AF0B5EFC9
:103560001AF0000E9F6F000E416E1200CEC0D2F016
:10357000CFC0D3F0000E0001816F000E806FD4EF3A
:103580001AF0CCC0BCF0CDC0BDF0D20EBE6F000EA4
:10359000BF6FD0C0C0F0D1C0C1F030EC0EF0000160
:1035A000BC518027BD51812360004BF3F6FF6000C2
:1035B0004FF3F7FFF86A0800F5500009D8A4E3EFCD
:1035C0001AF0E5EF1AF0C1EF1AF080C0CCF081C01C
:1035D000CDF01200146E4C50D8B4F1EF1AF0F3EFA6
:1035E0001AF0EBEF1AF0390193B9F9EF1AF0FBEF8B
:1035F0001AF000EF1BF0600053F0EAFD16EF1BF02D
:103600009399700E4724D96EDA6A000EDA226000B0
:1036100053F0DFFF472A070E476411EF1BF013EF4B
:103620001BF015EF1BF0000E476E4C06938912003D
:10363000000E3E01DE6F000EDF6F000EE06F000E29
:10364000E16F000EE46F000EE56F000EEA6F000EF2
:10365000EC6F000EF16F580EF36F020EF46F000E58
:10366000F56F000EF66F000EF76F000EF96F000E8B
:10367000FA6F000EFB6F000EFC6F000EFD6F000E68
:10368000FE6F1F0EFF6F840EF86F12003901A19FAD
:103690003F01185100017C6F3F01195100017D6FFE
:1036A0003F011A5100017E6F7F6B3C0160AB5BEF05
:1036B0001BF05DEF1BF066EF1BF0010E0001782799
:1036C000000E79237A237B236FEF1BF0FF0E00019E
:1036D0007827FF0E7923FF0E7A23FF0E7B2311003C
:1036E000D28A000ED2BE010E146ED29E550ED46E3A
:1036F000AA0ED46ED490000ED76E000ED66E080EB1
:10370000D56E550ED46EAA0ED46ED48014B002D0ED
:10371000D29E01D0D28E390183998397818F818B7C
:10372000818D888F8A8187918983120070EC1BF0CC
:10373000F2EC1EF013EC18F073EC1FF044EC1EF0EA
:1037400018EC1BF072EC1EF0E5EC1DF035EC1FF0F0
:1037500043EC1FF05BEC1FF02DEC1EF088EC1EF02C
:10376000C1EC1CF067EC1FF0BBEC1BF04FEC1FF042
:103770009BEC19F01200C00E9B6E000E9C6E050EA5
:103780009D6E000E996E000E986E3901A89D98509E
:103790006F0064FE16F0176A16C017F0166A16104E
:1037A0000001EC6F1750ED6F3901A89F988F4C0EF8
:1037B000146E3E0E156EACEC1FF0030E9A6E1200E6
:1037C0003901A19D3F011551486E1651496E17519F
:1037D0004A6E4B6A3C0160ABF0EF1BF0F2EF1BF05E
:1037E000FBEF1BF0010E00017827000E79237A23EE
:1037F0007B2304EF1CF0FF0E00017827FF0E7923D6
:10380000FF0E7A23FF0E7B231100000E256E000EA3
:10381000246E16EF1CF023C016F0176A21C018F0B2
:1038200022C019F0EDEC19F0244A252A24501F2457
:10383000D96E25502020DA6EDF50236E2350D8A495
:1038400024EF1CF026EF1CF00BEF1CF01200080E0A
:103850004C602DEF1CF02FEF1CF046EF1CF0700EAB
:103860004624D96EDA6A000EDA22DF503D01EA6F93
:10387000462A070E46643FEF1CF041EF1CF043EF71
:103880001CF0000E466E4C2A48EF1CF0390193994B
:10389000120027BE56EF1CF0275006E12604D8B0D0
:1038A00054EF1CF056EF1CF064EF1CF026C028F01B
:1038B00027C029F0281E291E284A292A28C026F0B8
:1038C00029C027F068EF1CF026C026F027C027F09B
:1038D000120014C016F015C017F071EF1CF0144A56
:1038E000152A600053F0D9FF600057F0DAFFDF506F
:1038F000D8A47DEF1CF07FEF1CF06FEF1CF016508A
:10390000145C146E17501558156E12006F0060FF8E
:1039100011F00001F451F511D8B491EF1CF093EFC0
:103920001CF09FEF1CF002D89FEF1CF00500FA6E10
:10393000F451FD6EF551FE6EFF6AFA501200600000
:0639400047F0D8FF110062
:103948006F0060FF12F00001F651F711D8B4AFEF25
:103958001CF0B1EF1CF0BDEF1CF002D8BDEF1CF05D
:103968000500FA6EF651FD6EF751FE6EFF6AFA50C9
:10397800120060004BF0D8FF1100000EA76E000E79
:10398800A86E050EA96E000EA56E000EA46E390174
:10399800A69DA4506F0094FE14F0156A14C015F08B
:1039A800146A14100001E86F1550E96F010EA66E35
:0239B8001200FB
:1039BC006F0060FF13F03901A7913F4A402A405035
:1039CC0009E10A0E3F5CD8A0EEEF1CF0F0EF1CF002
:1039DC00F6EF1CF05BEC1EF0000E406E000E3F6E1E
:1039EC0060004FF0D8FF110000EE00F1200EEE6ADF
:1039FC00E806FDE100EE60F0420EEE6AE806FDE13D
:103A0C0000EE3BF0110EEE6AE806FDE1080ED56EF5
:103A1C00000ED66E000ED76E000116EF1FF014C00C
:103A2C0016F015C017F0D89017321632D8901732FE
:103A3C0016321650696E14C016F0030E1616060ECA
:103A4C00176ED8901636172E27EF1DF01650686E8D
:103A5C00120014C016F015C017F0D8901732163299
:103A6C00D8901732163216506D6E14C016F0030E25
:103A7C001616060E176ED8901636172E41EF1DF03F
:103A8C0016506C6E120014C016F015C017F0D890BA
:103A9C0017321632D890173216321650616E14C087
:103AAC0016F0030E1616060E176ED8901636172E35
:103ABC005BEF1DF01650606E120014C016F015C0AE
:103ACC0017F0D89017321632D8901732163216508B
:103ADC00656E14C016F0030E1616060E176ED890EF
:0E3AEC001636172E75EF1DF01650646E120080
:103AFC003901A9936F00D0FD0BF06F00D4FD0CF0D1
:103B0C000BC009F00CC00AF002D897EF1DF00500AD
:103B1C00FA6E0001E451FD6EE551FE6EFF6AFA503B
:103B2C00120011003901AA916F00C0FD0FF06F0057
:103B3C00C4FD10F00FC00DF010C00EF002D8B1EFA4
:103B4C001DF00500FA6E0001E251FD6EE351FE6EB0
:103B5C00FF6AFA5012001100186E600063F0F1FE5B
:103B6C003E01F88FF89DF881F8B1BFEF1DF0C1EF61
:103B7C001DF0BAEF1DF0F051176E166AEF511624B6
:0A3B8C00146E000E1720156E1200D3
:103B98003901A89F0001EA51EB11D8B4D6EF1DF006
:103BA800D8EF1DF0E4EF1DF002D8E4EF1DF005009A
:103BB800FA6EEA51FD6EEB51FE6EFF6AFA50120082
:103BC8001100800E3F011E6F420E1F6F000E206F06
:103BD800040E216F000E236F000E226F010E1D6F61
:103BE8001C691B693901918B918F918D3F011F8F42
:103BF8001200CDAE02EF1EF004EF1EF00AEF1EF029
:103C080009C098F00AC099F014EF1EF0000198510D
:103C1800095C9A6F99510A589B6FD8909B339A33D5
:103C28001200CDAC1AEF1EF01CEF1EF022EF1EF0B2
:103C38000DC094F00EC095F02CEF1EF000019451C9
:103C48000D5C966F95510E58976FD89097339633B1
:103C58001200830E726E000E736E000E716E000EEF
:103C6800706E2A0E146E3C0E156EB6EC1FF03F01F6
:103C78005E513F0B80095E6F3901AA919A8112004B
:103C8800830E766E000E776E000E756E000E746EE3
:103C9800FA0E146E3B0E156EBBEC1FF03F015E5121
:103CA800CF0B20095E6F3901A99399831200000197
:103CB800E651E711D8B463EF1EF065EF1EF071EF1F
:103CC8001EF002D871EF1EF00500FA6EE651FD6E87
:103CD800E751FE6EFF6AFA5012001200010EA26E42
:103CE800000EA16E000EA36EF90E9F6E000E9E6E62
:103CF8003901A7919781900E146E3F0E156EB1ECA5
:103D08001FF0E00EA06E1200000E3C01616F030E62
:103D1800626F020E636F000E646F000E656F020E15
:103D2800666F080E676F000E686F000E696F850E6C
:103D3800606F1200680E4524D96EDA6A000EDA2226
:103D48006F00A3F7DFFF452A070E4564AEEF1EF0AC
:103D5800B0EF1EF0B2EF1EF0000E456E432A1200BF
:103D68009AA4B9EF1EF0BBEF1EF0C4EF1EF09A90B4
:103D78000250996E600007F098FF9A80C9EF1EF014
:103D88000250996E600007F098FF1200D60E0001ED
:103D9800DA6F000EDB6F000ECC6F000ECD6FD4C053
:103DA800CEF0D5C0CFF0DA0ED06F000ED16FB6ECE2
:103DB8001AF012003901A19B000E486E000E496EE0
:103DC800000E4A6E000E4B6E000E00017C6F000E56
:103DD8007D6F000E7E6F000E7F6F1100000E39019F
:103DE800C06F000EC16F000EC26F000EC36F000ED1
:103DF800C46F000EC56F000EC66F000EC76F1200AD
:103E08009A826F0060FE08F06F0064FE07F00750AA
:103E1800036E0850056E03C006F005C001F006C029
:103E280002F0120096EC1BF0D28ED28C860E146E25
:103E38003F0E156EB1EC1FF08FEC15F020EF1FF060
:103E480057EF00F004EC1FF001C0A0F002C0A1F091
:103E58000001D890A133A03387EC1FF03901A89F47
:103E68001200050EAE6E000EAD6E000EAF6EAB68A2
:103E7800000EAA6E3901A495B00EAC6E1200800E29
:103E8800626E000E616E000E606E3F015F513F0B67
:103E980080095F6F1200800E666E000E656E000E60
:103EA800646E3F015F51CF0B20095F6F1200800ED7
:103EB8006A6E590E696E400E686E3F015F51F30BD2
:103EC80004095F6F1200800E6E6E590E6D6E400E03
:103ED8006C6E3F015F51FC0B01095F6F1200600EB1
:103EE8003901D96F000EDB6F000EDD6F080EDF6F32
:103EF800000EDE6F1200220EB2EC1DF014C084F02A
:103F080015C085F01200ECC001F0EDC002F0B4EC71
:103F18001EF01200156E1550EAEC1AF0120014C0CB
:103F2800F4F015C0F5F0120014C0F6F015C0F7F063
:103F3800120014C0F0F015C0F1F0120014C0F2F035
:103F480015C0F3F0120014C0EEF015C0EFF0120027
:103F580014C0EAF015C0EBF0120014C0E6F015C06A
:103F6800E7F0120014C0E2F015C0E3F0120014C02C
:103F7800E4F015C0E5F012009EEC1EF012000001FE
:0A3F88009D2B12001200120012001F
:023F940011001A
:020000040020DA
:10000000FF0FFF0FFF0FFF0FFF0FFF0FFF0FFF0F80
:020000040030CA
:0A0000008CFFFFFF9FFFFFFFFFFFD3
:00000001FF
