:0400000057EF00F0C6
:100008006A116A116A116A116A116A116A116A1110
:100018006A116A116A116A116A11F410AF0F000FA0
:100028006A116A116A116A116A116A116A116A11F0
:100038006A116A116A11290F150F6A116A116A117A
:100048006A116A116A116A112B006A116A116A1120
:100058006A116A116A116A116A116A116A116A11C0
:100068006A116A116A116A116A116A116A116A11B0
:100078003D0F6A112B006A116A116A112B002B00BF
:100088002B002B002B002B002B002B006A11D40F08
:100098006A11640F6A116A112B002B002B002B00C8
:0A00A800770F6A11FF0067EF20F0E8
:10100000004F7574207C20644C3D202564207C209A
:1010100064523D202564002020204375727665527D
:10102000696768740020202043757276654C656698
:10103000740042566F6C743A2025750A00496E435D
:07104000757276650A0000DD
:1010480000019251800B9B6F925192259D6F91AF39
:1010580030EF08F032EF08F033EF08F09D819D5132
:10106800D8B439EF08F03BEF08F050EF08F09D29AD
:10107800D8A441EF08F043EF08F04BEF08F0000E5A
:101088008F6F000E906F000E916F000E926F918F10
:10109800000E926F58EF08F0000E8F6F000E906FE1
:1010A800000E916F000E926F9651800B9C6F9B51B2
:1010B8009C19D8B462EF08F064EF08F065EF08F007
:1010C8009B8D965196259C6F95AF6DEF08F06FEF4D
:1010D80008F070EF08F09C819C51D8B476EF08F0C6
:1010E80078EF08F08DEF08F09C29D8A47EEF08F07F
:1010F80080EF08F088EF08F0000E936F000E946FF1
:10110800000E956F000E966F958F000E966F95EFF7
:1011180008F0000E936F000E946F000E956F000E8E
:10112800966F9D519C5DD8B09CEF08F09EEF08F03B
:10113800C5EF08F09BADA3EF08F0A5EF08F0A7EF07
:1011480008F0800E9B1B9DC09EF09CC09DF09EC029
:101158009CF08FC09EF093C08FF09EC093F090C01B
:101168009EF094C090F09EC094F091C09EF095C0FF
:1011780091F09EC095F092C09EF096C092F09EC0ED
:1011880096F0000E9E6F9D519CC097F0986B975FEC
:10119800000E985B98BFDAEF08F0985109E11A0E33
:1011A800975DD8A0DAEF08F0DCEF08F013EF09F04C
:1011B8008F51901191119211D8A4E5EF08F0E8EF42
:1011C80008F0010EE9EF08F0000E9E6F000E8F6F19
:1011D800000E906F000E916F000E926F9CC09DF0F4
:1011E8001CEF09F09EA1FBEF08F0FDEF08F003EFFC
:1011F80009F0D8909E3101099E6F05EF09F0D8904B
:101208009E338FA10AEF09F00CEF09F00DEF09F0FA
:101218009E8F92359233913390338F339D2B9C510F
:101228009D5DD8A01AEF09F01CEF09F0F6EF08F061
:101238009BBD21EF09F023EF09F063EF09F09D5101
:10124800D8A429EF09F02BEF09F035EF09F0000ECB
:101258008F6F000E906F000E916F000E926F84EFEB
:101268000AF093518F2794519023955191239651C9
:10127800922392A142EF09F044EF09F0F0EF09F050
:101288009EA149EF09F04BEF09F051EF09F0D89012
:101298009E3101099E6F53EF09F0D8909E338FA1BC
:1012A80058EF09F05AEF09F05BEF09F09E8F92357D
:1012B8009233913390338F339D2BF0EF09F0935194
:1012C8008F5D94519059955191599251800A976F19
:1012D8009651800A9759D8B074EF09F076EF09F063
:1012E800A1EF09F08F51935D976F90519459986FC2
:1012F80091519559996F925196599A6FFF0E97256A
:101308008F6FFF0E9821906FFF0E9921916FFF0E3E
:101318009A21926F800E9B1B9E6D9E51D8A497EFC9
:1013280009F099EF09F0A9EF09F0010E8F27000ED7
:10133800902391239223A9EF09F093518F5F945141
:10134800905B9551915B9651925B8F5190119111E1
:101358009211D8A4B2EF09F0B4EF09F0E9EF09F05F
:101368009E51D8A4BAEF09F0BCEF09F0E9EF09F0F3
:10137800000E8F6F000E906F000E916F000E926F2F
:1013880084EF0AF0D8908F379037913792379EAF15
:10139800D0EF09F0D2EF09F0D3EF09F08F819EA1C9
:1013A800D8EF09F0DAEF09F0DEEF09F0D8809E37C0
:1013B800E0EF09F0D8909E379D51D8B4E6EF09F0D8
:1013C800E8EF09F0E9EF09F09D0791AFEEEF09F0BA
:1013D800F0EF09F0C6EF09F0000E9C6F9EAFF7EF33
:1013E80009F0F9EF09F011EF0AF09EC097F07F0EAF
:1013F8009717D8B402EF0AF004EF0AF008EF0AF0E2
:10140800010E9C6F11EF0AF08FA10DEF0AF00FEF9C
:101418000AF011EF0AF004EF0AF09C51D8B417EF64
:101428000AF019EF0AF044EF0AF0010E8F27000EB8
:1014380090239123922392A124EF0AF026EF0AF039
:1014480044EF0AF08FC097F090C098F091C099F0DF
:1014580092C09AF09A359A3399339833973397C054
:101468008FF098C090F099C091F09AC092F09D29A1
:10147800D8B441EF0AF043EF0AF044EF0AF09D2B8D
:101488009D29D8B44AEF0AF04CEF0AF054EF0AF05D
:101498009D51D8A452EF0AF054EF0AF066EF0AF013
:1014A800000E8F6F000E906F000E916F000E926FFE
:1014B8009D51D8A462EF0AF064EF0AF066EF0AF0D3
:1014C800000E9B6F9DA16BEF0AF06DEF0AF070EFB5
:1014D8000AF0918F71EF0AF0919FD8909D31926F29
:1014E8009BAF79EF0AF07BEF0AF07CEF0AF0928F5E
:1014F8008FC08FF090C090F091C091F092C092F0A0
:10150800120000017951800B826F79517925886F1B
:1015180078AF91EF0AF093EF0AF094EF0AF0888120
:101528008851D8B49AEF0AF09CEF0AF0AFEF0AF0AE
:101538008829D8A4A2EF0AF0A4EF0AF0ACEF0AF0C9
:10154800000E766F000E776F000E786F000E796FC1
:10155800788FB7EF0AF0000E766F000E776F000EE7
:10156800786F000E796F7D51800B821B7D517D2530
:10157800836F7CAFC2EF0AF0C4EF0AF0C5EF0AF040
:1015880083818351D8B4CBEF0AF0CDEF0AF0E0EFB6
:101598000AF08329D8A4D3EF0AF0D5EF0AF0DDEFDB
:1015A8000AF0000E7A6F000E7B6F000E7C6F000E43
:1015B8007D6F7C8FE8EF0AF0000E7A6F000E7B6F6C
:1015C800000E7C6F000E7D6F8351D8B4EEEF0AF0E9
:1015D800F0EF0AF0F8EF0AF08851D8A4F6EF0AF015
:1015E800F8EF0AF002EF0BF0000E766F000E776F3F
:1015F800000E786F000E796FACEF0CF07C5176031B
:101608006F00CCFF8DF06F00D0FF8EF08D51846F8E
:10161800856B866B876B8E51896F8A6B8B6B8C6B36
:101628007B5177036F00CCFF8DF06F00D0FF8EF0F9
:101638008D518427000E8523862387238E51892781
:10164800000E8A238B238C237A5178036F00CCFFFA
:101658008DF06F00D0FF8EF08D518427000E85230A
:10166800862387238E518927000E8A238B238C2378
:1016780086C087F085C086F084C085F0846B7A5177
:1016880077036F00CCFF8DF06F00D0FF8EF08D5187
:1016980084278E518523000E8623000E87237B51D5
:1016A80076036F00CCFF8DF06F00D0FF8EF08D5168
:1016B80084278E518523000E8623000E872386C03B
:1016C80087F085C086F084C085F0846B7A517603F4
:1016D8006F00CCFF8DF06F00D0FF8EF08D51842706
:1016E8008E518523000E8623000E87237C517703B5
:1016F8006F00CCFF8DF06F00D0FF8EF08D518927E1
:101708008E518A23000E8B23000E8C237B51780385
:101718006F00CCFF8DF06F00D0FF8EF08D518927C0
:101728008E518A23000E8B23000E8C237C51780364
:101738006F00CCFF8DF06F00D0FF8EF08D517E6F63
:101748008E517F6F806B816B80C081F07FC080F08D
:101758007EC07FF07E6B7E5189277F518A2380511E
:101768008B2381518C2384C07EF085C07FF086C096
:1017780080F087C081F0190EC7EF0BF0D890813345
:1017880080337F337E33E82EC2EF0BF07E518927FA
:101798007F518A2380518B2381518C2386C087F007
:1017A80085C086F084C085F0846B835188C07EF044
:1017B8007F6B7E27000E7F23820E7E258D6FFF0EA6
:1017C8007F218E6FFDEF0BF0D89089378A378B37E2
:1017D8008C3787AFF2EF0BF0F4EF0BF0F5EF0BF06F
:1017E8008981D89084378537863787378D07D8A081
:1017F8008E078BAF02EF0CF004EF0CF0E8EF0BF064
:10180800000E836F87AF0BEF0CF00DEF0CF031EF8C
:101818000CF0FF0E84157E6FFF0E85157F6FFF0E8F
:101828008615806F7F0E8715816F7E517F1180111D
:101838008111D8B422EF0CF024EF0CF028EF0CF053
:10184800010E836F31EF0CF089A12DEF0CF02FEF13
:101858000CF031EF0CF024EF0CF08351D8B437EFD3
:101868000CF039EF0CF05DEF0CF0010E8927000E3B
:101878008A238B238C238CA144EF0CF046EF0CF0C9
:101888005DEF0CF089C07EF08AC07FF08BC080F0DD
:101898008CC081F08135813380337F337E337EC0C5
:1018A80089F07FC08AF080C08BF081C08CF08D4BAE
:1018B8008E2B8EBF68EF0CF08E5108E18D29D8A0D1
:1018C80068EF0CF06AEF0CF074EF0CF0000E896F03
:1018D800000E8A6F800E8B6F7F0E8C6FA2EF0CF05C
:1018E8008EBF81EF0CF08E5106E18D05D8B07FEFE9
:1018F8000CF081EF0CF08DEF0CF0000E896F000EEC
:101908008A6F000E8B6F000E8C6F000E826FA2EF35
:101918000CF08DC088F0FF0E8917FF0E8A177F0E16
:101928008B17000E8C1788A19CEF0CF09EEF0CF023
:101938009FEF0CF08B8FD89088318C6F82518C136D
:1019480089C076F08AC077F08BC078F08CC079F0C7
:1019580012007CC094F07DC095F07EC096F07FC0E8
:1019680097F080C098F081C099F082C09AF083C047
:101978009BF000019BBFC3EF0CF0C6EF0CF0010E0B
:10198800C7EF0CF0000E926F936B92519311D8B47D
:10199800D0EF0CF0D2EF0CF0E2EF0CF09B1F9A1F87
:1019A800991F981F971F961F951F946D000E9523DA
:1019B80096239723982399239A239B23D7BFE7EF4E
:1019C8000CF0E9EF0CF0EAEF0CF02392D7BFF7EF39
:1019D8000CF0D75106E1D605D8B0F5EF0CF0F7EFCB
:1019E8000CF0FDEF0CF0000E8F6F010E8E6F01EF03
:1019F8000DF0D6C08EF0D7C08FF0D4C090F0D5C00F
:101A080091F092519311D8A40CEF0DF00EEF0DF058
:101A180015EF0DF023A413EF0DF015EF0DF018EFEF
:101A28000DF09007D8A09107000E9D6F1F0E9C6FB8
:101A3800000E01011F6F9EEF0DF09C07D8A09D07B7
:101A4800000E9C25D96E010E9D21DA6E94C060F0BF
:101A580095C061F096C062F097C063F098C064F0DA
:101A680099C065F09AC066F09BC067F00A0E686F6F
:101A7800000E696F000E6A6F000E6B6F000E6C6FC0
:101A8800000E6D6F000E6E6F000E6F6FE7EC15F0B5
:101A980060C084F061C085F062C086F063C087F0E2
:101AA80064C088F065C089F066C08AF067C08BF0B2
:101AB80084C070F086C071F0EEEC1FF00001705128
:101AC800300FDF6E8E07D8A08F079007D8A0910738
:101AD80094C060F095C061F096C062F097C063F062
:101AE80098C064F099C065F09AC066F09BC067F032
:101AF8000A0E686F000E696F000E6A6F000E6B6F3A
:101B0800000E6C6F000E6D6F000E6E6F000E6F6F23
:101B180068EC14F060C094F061C095F062C096F073
:101B280063C097F064C098F065C099F066C09AF0F9
:101B380067C09BF000019DBFAAEF0DF09D5108E121
:101B48009C05D8A0AAEF0DF0ACEF0DF0DCEF0DF07E
:101B58009451951196119711981199119A119B11F9
:101B6800D8A4B9EF0DF0BBEF0DF021EF0DF08FBF4A
:101B7800C8EF0DF08F5106E18E05D8B0C6EF0DF015
:101B8800C8EF0DF021EF0DF091BFD3EF0DF091519B
:101B980008E19005D8A0D3EF0DF0D5EF0DF0DCEFFC
:101BA8000DF023B2DAEF0DF0DCEF0DF021EF0DF0C0
:101BB80092519311D8A4E3EF0DF0E5EF0DF0ECEF9F
:101BC8000DF023A4EAEF0DF0ECEF0DF00BEF0EF0A3
:101BD8009C07D8A09D0792519311D8A4F6EF0DF059
:101BE800F8EF0DF0FEEF0DF0000E8D6F2B0E8C6FE1
:101BF80002EF0EF0000E8D6F2D0E8C6F000E9C25DF
:101C0800D96E010E9D21DA6E600033F2DFFF7AC0D3
:101C180070F07BC071F0000E9C25726F010E9D2143
:101C2800736F90C074F091C075F01BEC1BF070C01E
:101C38007AF071C07BF01200600083F2D9FF600077
:101C480087F2DAFF6F007BFFF6FF6F0077FFF7FF81
:101C5800F86A0800F550250AD8A435EF0EF037EFDA
:101C68000EF067EF0FF0600083F2D9FF600087F293
:101C7800DAFFDE2A000EDD22000E0001D56F000E0D
:101C8800D46FD4C023F0D5C024F0D669D7696000DA
:101C980083F2D9FF600087F2DAFF6F007BFFF6FF5F
:101CA8006F0077FFF7FFF86A0800F550640AD8B4A8
:101CB80060EF0EF062EF0EF079EF0EF0600083F245
:101CC800D9FF600087F2DAFF6F007BFFF6FF6F0035
:101CD80077FFF7FFF86A0800F550690AD8A477EF8C
:101CE8000EF079EF0EF0C4EF0EF0600083F2D9FF2A
:101CF800600087F2DAFFDE2A000EDD2260008BF238
:101D0800D9FF60008FF2DAFF6F007CFFA4F0020EAB
:101D1800DE266F007CFFA5F0000EDD22600093F246
:101D2800D9FF600097F2DAFF6F0078FF20F16F00AB
:101D380074FF21F10101000E21BFFF0E226F236FF6
:101D4800246F256F266F276F9EC07AF09FC07BF0A7
:101D580020C17CF021C17DF022C17EF023C17FF03B
:101D680024C180F025C181F026C182F027C183F00B
:101D7800ADEC0CF07AC09EF07BC09FF08AEF0FF0BC
:101D8800600083F2D9FF600087F2DAFF6F007BFF03
:101D9800F6FF6F0077FFF7FFF86A0800F550750A3D
:101DA800D8A4D9EF0EF0DBEF0EF027EF0FF06000AC
:101DB80083F2D9FF600087F2DAFFDE2A000EDD2207
:101DC80060008BF2D9FF60008FF2DAFF6F007CFFB2
:101DD800A4F0020EDE266F007CFFA5F0000EDD22C7
:101DE800600093F2D9FF600097F2DAFF6F0078FF86
:101DF800A6F06F0074FFA7F0A6C028F1A7C029F1CC
:101E080001012A6B2B6B2C6B2D6B2E6B2F6B9EC0DD
:101E18007AF09FC07BF028C17CF029C17DF02AC1EF
:101E28007EF02BC17FF02CC180F02DC181F02EC136
:101E380082F02FC183F0B4EC11F07AC09EF07BC021
:101E48009FF08AEF0FF0600083F2D9FF600087F2FD
:101E5800DAFF6F007BFFF6FF6F0077FFF7FFF86A86
:101E68000800F550250AD8A43CEF0FF03EEF0FF01C
:101E780058EF0FF0600083F2D9FF600087F2DAFFB5
:101E8800DE2A000EDD22000E616F250E606F9EC0F7
:101E980062F09FC063F0E1EC1CF0000E00019F6F40
:101EA800010E9E6F8AEF0FF0600083F2D9FF600089
:101EB80087F2DAFFDE2A000EDD22000E9F6F000E89
:101EC8009E6F8AEF0FF0600083F2D9FF600087F2FF
:101ED800DAFF6F007BFFF6FF6F0077FFF7FFF86A06
:101EE8000800F5500001606F616B9EC062F09FC0F2
:101EF80063F0E1EC1CF0600083F2D9FF600087F228
:101F0800DAFFDE2A000EDD2251EF0FF012007DEF1E
:101F180010F00001E251E65D0101386F0001E35164
:101F2800E7590101396F0001E051E45D01013A6FA1
:101F38000001E151E55901013B6F39BFADEF0FF0E9
:101F4800395109E1290E385DD8A0ADEF0FF0AFEF98
:101F58000FF0E7EF0FF039BFBDEF0FF02C0E385D33
:101F6800010E3959D8B0BBEF0FF0BDEF0FF0E7EF16
:101F78000FF00001E35107E1960EE25DD8B0C7EF1C
:101F88000FF0C9EF0FF0E7EF0FF0000EE96F010E49
:101F9800EB6F040EEC6F010E0101306F100E316F04
:101FA80038C132F139C133F13AC134F13BC135F1AD
:101FB800D3EC21F0250E0101306F100E316FD3ECF8
:101FC80021F09CEF10F001013BBFF4EF0FF03B5103
:101FD80009E1290E3A5DD8A0F4EF0FF0F6EF0FF003
:101FE8009CEF10F03BBF04EF10F02C0E3A5D010E91
:101FF8003B59D8B002EF10F004EF10F09CEF10F04E
:102008000001E15107E1960EE05DD8B00EEF10F047
:1020180010EF10F09CEF10F0000EE96F010EEB6F5F
:10202800050EEC6F010E0101306F100E316F38C1D3
:1020380032F139C133F13AC134F13BC135F1D3EC56
:1020480021F0170E0101306F100E316FD3EC21F023
:102058009CEF10F00F0E0001E96535EF10F037EF37
:1020680010F044EF10F0000EE96F020EEB6F3D0E1A
:102078000101306F100E316FD3EC21F09CEF10F09E
:10208800E92B9CEF10F01E0E0001E9654EEF10F0F1
:1020980050EF10F044EF10F0E75109E1280EE65D2B
:1020A800D8A059EF10F05BEF10F066EF10F0E55193
:1020B80007E1280EE45DD8B064EF10F066EF10F089
:1020C8009CEF10F0000EE96F030EEB6F000EEC6F43
:1020D8009CEF10F0320E0001E96575EF10F077EF14
:1020E80010F044EF10F0000EE96F000EEB6F9CEF5C
:1020F80010F00001EB510101366F376B3751000AC0
:10210800D8B489EF10F09CEF10F03651000AD8B41B
:102118008DEF0FF0010AD8B42EEF10F0030AD8B4EF
:1021280047EF10F0010AD8B46EEF10F09CEF10F0F2
:10213800E6C0E2F0E7C0E3F0E4C0E0F0E5C0E1F0BB
:102148001200000E0001AC6F000EAB6F65EF11F0CE
:10215800EE5109E1290EED5DD8A0B5EF10F0B7EF0B
:1021680010F0B9EF10F0000EEC6FDFBFC4EF10F005
:10217800DF5108E1DE05D8A0C4EF10F0C6EF10F07B
:10218800D0EF10F0DEC0ABF0DFC0ACF0FE0EAB2736
:10219800FF0EAC238AEF11F0DFBFDBEF10F0DF5149
:1021A80008E1DE05D8A0DBEF10F0DDEF10F08AEFD4
:1021B80011F0EE5107E1140EED5DD8B0E6EF10F026
:1021C800E8EF10F08AEF11F0DEC0ABF0DFC0ACF042
:1021D800FC0EAB27FF0EAC238AEF11F0EE5107E19E
:1021E800280EED5DD8B0FBEF10F0FDEF10F0FFEF1B
:1021F80010F0010EEC6FEE5109E1650EED5DD8A00F
:1022080008EF11F00AEF11F053EF11F0000E936F81
:10221800000E946F480E956F430E966F000E7A6FFE
:10222800000E7B6F400E7C6F3F0E7D6F9C0EA76F7C
:10223800FF0EA86FEDC0A9F0EEC0AAF0A751A9271C
:10224800A851AA23A9C068F0AAC069F06A6B6B6B91
:10225800000EB7EC12F068C076F069C077F06AC07B
:1022680078F06BC079F085EC0AF076C08FF077C013
:1022780090F078C091F079C092F024EC08F08FC00B
:102288009FF090C0A0F091C0A1F092C0A2F05AECCB
:1022980018F09FC0ABF0A0C0ACF08AEF11F0000EB0
:1022A800AC6FC80EAB6F8AEF11F0FF0EAC6F6A0E01
:1022B800AB6F8AEF11F0000EAC6FB40EAB6F8AEF04
:1022C80011F0EC51A76FA86BA851000AD8B46FEFB2
:1022D80011F08AEF11F0A751000AD8B4F2EF10F00C
:1022E800010AD8B4ACEF10F0030AD8B459EF11F0D2
:1022F800010AD8B459EF11F0070AD8B45FEF11F00A
:10230800010AD8B45FEF11F08AEF11F00001ACBFF9
:1023180097EF11F0910EAB5D010EAC59D8A097EF75
:1023280011F099EF11F09DEF11F0010EAC6F900EC6
:10233800AB6FACAFA9EF11F0380EAB5DFF0EAC5927
:10234800D8B0A9EF11F0ABEF11F0AFEF11F0FF0E1D
:10235800AC6F380EAB6FABC0DEF0ACC0DFF0120074
:102368000001D7BFBAEF11F0BCEF11F0BDEF11F0CB
:102378002392D7BFCAEF11F0D75106E1D605D8B0DE
:10238800C8EF11F0CAEF11F0D0EF11F0000E8D6F09
:10239800010E8C6FD4EF11F0D6C08CF0D7C08DF041
:1023A800D4C08EF0D5C08FF07CC090F07DC091F085
:1023B8007EC092F07FC093F080C094F081C095F009
:1023C80082C096F083C097F0000E996F1F0E986F29
:1023D800000E01011F6F68EF12F09807D8A0990747
:1023E800000E9825D96E010E9921DA6E90C060F022
:1023F80091C061F092C062F093C063F094C064F041
:1024080095C065F096C066F097C067F00A0E686FD1
:10241800000E696F000E6A6F000E6B6F000E6C6F16
:10242800000E6D6F000E6E6F000E6F6F4DEC1AF0A0
:1024380060C084F061C085F062C086F063C087F038
:1024480064C088F065C089F066C08AF067C08BF008
:1024580000018451300FDF6E8C07D8A08D078E07DE
:10246800D8A08F0790C060F091C061F092C062F070
:1024780093C063F094C064F095C065F096C066F0B0
:1024880097C067F00A0E686F000E696F000E6A6FDA
:10249800000E6B6F000E6C6F000E6D6F000E6E6F8E
:1024A800000E6F6F61EC19F060C090F061C091F0A0
:1024B80062C092F063C093F064C094F065C095F078
:1024C80066C096F067C097F0000198519911D8B48A
:1024D80070EF12F072EF12F0A2EF12F0905191111A
:1024E800921193119411951196119711D8A47FEF19
:1024F80012F081EF12F0F1EF11F08DBF8EEF12F0B4
:102508008D5106E18C05D8B08CEF12F08EEF12F0E9
:10251800F1EF11F08FBF99EF12F08F5108E18E059E
:10252800D8A099EF12F09BEF12F0A2EF12F023B2AD
:10253800A0EF12F0A2EF12F0F1EF11F07AC070F0F4
:102548007BC071F0000E9825726F010E9921736F90
:102558008EC074F08FC075F01BEC1BF070C07AF061
:1025680071C07BF012000001706F00017051D8B487
:10257800C0EF12F0C2EF12F0E4EF12F06BBFC9EF38
:1025880012F0C7EF12F0E4EF12F068C06CF069C007
:102598006DF06AC06EF06BC06FF06C1F6D1F6E1F20
:1025A8006F1F6C2B000E6D236E236F236CC072F0AF
:1025B8006DC073F06EC074F06FC075F0ECEF12F080
:1025C80068C072F069C073F06AC074F06BC075F0CF
:1025D800685169116A116B11D8A4F5EF12F0F7EF81
:1025E80012F001EF13F0000E686F000E696F000E15
:1025F8006A6F000E6B6F92EF13F0960E716F0BEF10
:1026080013F0712BD8907533743373337233000E13
:1026180072156C6F000E73156D6F000E74156E6F6A
:10262800FE0E75156F6F6C516D116E116F11D8A478
:1026380020EF13F022EF13F005EF13F030EF13F053
:10264800712B010E7227000E732374237523D89003
:102658007533743373337233000E72156C6F000E5A
:1026680073156D6F000E74156E6FFF0E75156F6F15
:102678006C516D116E116F11D8A445EF13F047EF2F
:1026880013F024EF13F04FEF13F07107D89072375F
:1026980073377437753774BF54EF13F056EF13F070
:1026A8005EEF13F0020E71615CEF13F05EEF13F052
:1026B80049EF13F071B163EF13F065EF13F066EFB4
:1026C80013F0749FD890713371C06CF06D6B6E6BA2
:1026D8006F6B6CC06FF06E6B6D6B6C6B6C517213C3
:1026E8006D5173136E5174136F5175137051D8B4C3
:1026F80080EF13F082EF13F08AEF13F06BBF89EFCE
:1027080013F087EF13F08AEF13F0758F72C068F03B
:1027180073C069F074C06AF075C06BF01200000EE7
:102728000001706F000E6F6FE8EF13F068C06DF076
:1027380069C06EF068C06BF069C06CF06B1F6C1FED
:102748006B4B6C2B6BC06FF06CC070F009EF14F022
:1027580068C06DF069C06EF068C06FF069C070F055
:1027680009EF14F068C06DF069C06EF068C060F0E1
:1027780069C061F0FF0E636FFE0E626F7FEC1BF0A5
:1027880060C06FF061C070F009EF14F068C06DF0C0
:1027980069C06EF0000E706F000E6F6F09EF14F0D5
:1027A800000E6E6F000E6D6F68C06FF069C070F03C
:1027B80009EF14F0000E6E6F000E6D6F000E706F53
:1027C800000E6F6F09EF14F06A516B6F6C6B6C51F0
:1027D800000AD8B4F2EF13F0DEEF13F06B51000AE1
:1027E800D8B49AEF13F0010AD8B4ACEF13F0030A87
:1027F800D8B4B6EF13F0010AD8B4CAEF13F0070A39
:10280800D8B4D4EF13F0DEEF13F000016EBF16EF6B
:1028180014F06E5109E1420E6D5DD8A016EF14F068
:1028280018EF14F01EEF14F0000E6E6F410E6D6F6E
:1028380030EF14F06EAF2AEF14F0BF0E6D5DFF0E8F
:102848006E59D8B02AEF14F02CEF14F030EF14F0D2
:10285800FF0E6E6FBF0E6D6F70BF3CEF14F07051BE
:1028680009E1290E6F5DD8A03CEF14F03EEF14F09B
:1028780044EF14F0000E706F280E6F6F56EF14F0CF
:1028880070AF50EF14F0D80E6F5DFF0E7059D8B0CE
:1028980050EF14F052EF14F056EF14F0FF0E706F73
:1028A800D80E6F6F600E6D25206E010E6E21216EA1
:1028B80082EC20F0650E00016F25206E010E70215C
:1028C800216E9DEC20F01200000E0001716F6FBFA9
:1028D80072EF14F070EF14F084EF14F06F1F6E1F96
:1028E8006D1F6C1F6B1F6A1F691F686D000E6923BF
:1028F8006A236B236C236D236E236F23010E716F84
:1029080067BF8BEF14F089EF14F09DEF14F0671F89
:10291800661F651F641F631F621F611F606D000EC5
:102928006123622363236423652366236723010EDF
:10293800711B20EE72F0070EDE6AE806FDE26851B0
:1029480069116A116B116C116D116E116F11D8B488
:10295800B0EF14F0B2EF14F004EF15F0010E706F41
:10296800C0EF14F0D890683769376A376B376C371F
:102978006D376E376F37702B6FAFC5EF14F0C7EF39
:1029880014F0B6EF14F0D890723773377437753780
:1029980076377737783779376851605D695161598B
:1029A8006A5162596B5163596C5164596D5165593B
:1029B8006E5166596F516759D8A0E5EF14F0E7EFEB
:1029C80014F0F8EF14F06851605F6951615B6A5167
:1029D800625B6B51635B6C51645B6D51655B6E51FF
:1029E800665B6F51675B7281D8906F336E336D335E
:1029F8006C336B336A3369336833702FC7EF14F065
:102A08007151D8B40AEF15F00CEF15F01CEF15F062
:102A1800791F781F771F761F751F741F731F726DBC
:102A2800000E732374237523762377237823792361
:102A380072C060F073C061F074C062F075C063F07A
:102A480076C064F077C065F078C066F079C067F04A
:102A580012000001E451E65D736FE551E759746FA8
:102A68005EEF15F074BF42EF15F0745109E11F0EC7
:102A7800735DD8A042EF15F044EF15F04AEF15F05A
:102A8800000E746F1E0E736FC1EF15F074AF56EF22
:102A980015F0E20E735DFF0E7459D8B056EF15F0BD
:102AA80058EF15F07BEF15F0FF0E746FE20E736FA1
:102AB800C1EF15F0EC51716F726B7251000AD8B406
:102AC80068EF15F0C1EF15F07151000AD8B436EF70
:102AD80015F0010AD8B436EF15F0050AD8B436EF68
:102AE80015F0010AD8B436EF15F0C1EF15F0C1EFB3
:102AF80015F073C068F074C069F0020E6A6F93EC49
:102B080013F0E6EF15F073C068F074C069F0030EB7
:102B18006A6F93EC13F0E6EF15F0000E696F280E5C
:102B2800686F000E6A6F93EC13F0E6EF15F0020E73
:102B3800EB19D8A4A2EF15F0A4EF15F087EF15F064
:102B4800000E696F410E686F020E6A6F93EC13F006
:102B5800E6EF15F0020EEB19D8A4B5EF15F0B7EFB4
:102B680015F087EF15F0FF0E696FBF0E686F020E44
:102B78006A6F93EC13F0E6EF15F0EC51716F726B1E
:102B88007251000AD8B4CBEF15F0E6EF15F0715189
:102B9800000AD8B487EF15F0010AD8B47DEF15F014
:102BA800030AD8B491EF15F0010AD8B491EF15F0E3
:102BB800070AD8B49BEF15F0010AD8B4AEEF15F0A8
:102BC800E6EF15F01200000E216E000167BFF1EF6D
:102BD80015F0EFEF15F003EF16F0671F661F651F7E
:102BE800641F631F621F611F606D000E61236223F3
:102BF80063236423652366236723010E216E6FBF59
:102C08000AEF16F008EF16F01AEF16F06F1F6E1F96
:102C18006D1F6C1F6B1F6A1F691F686D000E69238B
:102C28006A236B236C236D236E236F23685169110C
:102C38006A116B116C116D116E116F11D8B427EFF9
:102C480016F029EF16F071EF16F0010E206E37EF2F
:102C580016F0D890683769376A376B376C376D3735
:102C68006E376F37202A6FAF3CEF16F03EEF16F045
:102C78002DEF16F06851605D695161596A516259CA
:102C88006B5163596C5164596D5165596E51665950
:102C98006F516759D8A053EF16F055EF16F065EF4E
:102CA80016F06851605F6951615B6A51625B6B51F4
:102CB800635B6C51645B6D51655B6E51665B6F5114
:102CC800675BD8906F336E336D336C336B336A3315
:102CD80069336833202E3EEF16F02150D8B477EFD1
:102CE80016F079EF16F089EF16F0671F661F651F5B
:102CF800641F631F621F611F606D000E61236223E2
:102D08006323642365236623672360C060F061C082
:102D180061F062C062F063C063F064C064F065C0D3
:102D280065F066C066F067C067F012000001DC510C
:102D3800DE5DA96FDD51DF59AA6FDA51DC5DAB6F3B
:102D4800DB51DD59AC6F94EC1CF020C0DCF021C0E5
:102D5800DDF0CD0E00017A6FCC0E7B6FCC0E7C6F50
:102D68003C0E7D6F000E636F020E626FABC060F0A9
:102D7800ACC061F07FEC1BF0A9C0A7F0AAC0A8F016
:102D880000016051A75F6151A85BA7C068F0A8C0A7
:102D980069F0000E69BFFF0E6A6F6B6F010EB7EC2A
:102DA80012F068C076F069C077F06AC078F06BC03E
:102DB80079F085EC0AF076C09FF077C0A0F078C073
:102DC800A1F079C0A2F05AEC18F000019F51AD6F44
:102DD800AD51800A7D0FD8A0F4EF16F0F6EF16F08B
:102DE800FAEF16F0020EAD6F06EF17F0AD51800A3C
:102DF800820FD8B002EF17F004EF17F006EF17F0C4
:102E0800FE0EAD6FD851AD25D86F000EADBFFF0EC9
:102E1800D921D96FD9BF1AEF17F0F50ED85D010E79
:102E2800D959D8A01AEF17F01CEF17F022EF17F0B6
:102E3800010ED96FF40ED86F34EF17F0D9AF2EEF1B
:102E480017F0D40ED85DFE0ED959D8B02EEF17F072
:102E580030EF17F034EF17F0FE0ED96FD40ED86F9D
:102E6800D8C062F0D9C063F0DAEC19F0DCC0DAF04F
:102E7800DDC0DBF0120089EC22F0320E0101306F68
:102E8800100E316FEFC032F1F0C033F1D3EC21F006
:102E9800EFC068F0F0C069F000016A6B6B6B000E60
:102EA800B7EC12F068C076F069C077F06AC078F0C5
:102EB8006BC079F0000E00017A6F000E7B6F400E38
:102EC8007C6F450E7D6FDEEC18F00001D8A06FEF27
:102ED80017F071EF17F03FEF17F0E6C0E2F0E7C028
:102EE800E3F0E4C0E0F0E5C0E1F0000EEA6F0001B5
:102EF800EA51D8B482EF17F084EF17F07BEF17F0A0
:102F0800000EEA6F640EE8658CEF17F08EEF17F08D
:102F1800C5EF17F0000EE86F89EC22F0EFC068F0FB
:102F2800F0C069F000016A6B6B6B000EB7EC12F031
:102F380068C076F069C077F06AC078F06BC079F045
:102F4800000E00017A6F000E7B6F400E7C6F450EFD
:102F58007D6FDEEC18F00001D8B0B5EF17F0B7EFD1
:102F680017F0C6EF17F0000EDF6F000EDE6F000ED1
:102F7800696F000E686F030E6A6F93EC13F0D2EF5F
:102F880017F0E82B8BEC0FF02DEC1DF02DEC15F065
:102F9800A5EC10F09AEC16F07BEF17F01200000E7B
:102FA8000001696F67BFDDEF17F0DBEF17F0E7EFA0
:102FB80017F0671F661F651F646D000E6523662383
:102FC8006723010E696F63BFEEEF17F0ECEF17F0A0
:102FD800F8EF17F0631F621F611F606D000E612319
:102FE80062236323010E691B000E6A6F000E6B6F6C
:102FF800000E6C6F000E6D6F6451651166116711DC
:10300800D8B409EF18F00BEF18F041EF18F0010EE3
:10301800686F15EF18F0D8906437653766376737EB
:10302800682B67AF1AEF18F01CEF18F00FEF18F0C5
:10303800D8906A376B376C376D376451605D65516E
:1030480061596651625967516359D8A02EEF18F03B
:1030580030EF18F039EF18F06451605F6551615B2B
:103068006651625B6751635B6A81D89067336633E8
:1030780065336433682F1CEF18F06951D8B447EFF3
:1030880018F049EF18F051EF18F06D1F6C1F6B1F07
:103098006A6D000E6B236C236D236AC060F06BC0F1
:1030A80061F06CC062F06DC063F012000001A135E0
:1030B800A235216E2150D8A464EF18F066EF18F0FD
:1030C80070EF18F0000E9F6F000EA06F000EA16F3A
:1030D800000EA26FDDEF18F09FC0A3F0A0C0A4F00F
:1030E800A1C0A5F0A2C0A6F0200E80EF18F0D890DD
:1030F800A633A533A433A333E82E7BEF18F0A351EE
:10310800206EA18FFF0E9F17FF0EA017FF0EA117AD
:10311800000EA217960E215E21BE97EF18F095EFCC
:1031280018F0ADEF18F02150800A970FD8B09FEF34
:1031380018F0A1EF18F0A3EF18F066EF18F0D89088
:10314800A233A133A0339F33213EA3EF18F0C5EF7C
:1031580018F01F0E2164B3EF18F0B5EF18F0BDEFAB
:1031680018F066EF18F0D8909F37A037A137A2372C
:1031780021062150D8A4C3EF18F0C5EF18F0B7EF17
:1031880018F02050D8B4CBEF18F0CDEF18F0D5EFE9
:1031980018F0A21FA11FA01F9F6D000EA023A1233E
:1031A800A2239FC09FF0A0C0A0F0A1C0A1F0A2C020
:1031B800A2F01200000E000176157E6F000E771542
:1031C8007F6F800E7815806F7F0E7915816F7E5125
:1031D8007F1180118111D8A4F4EF18F0F6EF18F0E0
:1031E800FEEF18F0000E766F000E776F000E786F06
:1031F800000E796F000E7A157E6F000E7B157F6FBB
:10320800800E7C15806F7F0E7D15816F7E517F113A
:1032180080118111D8A413EF19F015EF19F01DEFE3
:1032280019F0000E7A6F000E7B6F000E7C6F000E97
:103238007D6F79AF22EF19F024EF19F02DEF19F017
:10324800766D771FD8B0772B781FD8B0782B800E83
:1032580079577DAF32EF19F034EF19F03DEF19F0DF
:103268007A6D7B1FD8B07B2B7C1FD8B07C2B800E4F
:103278007D57000E761B000E771B000E781B800E04
:10328800791B000E7A1B000E7B1B000E7C1B800E28
:103298007D1B7A51765D7B5177597C5178597D51E8
:1032A8007959D8B05AEF19F05CEF19F05FEF19F0BF
:1032B800D89060EF19F0D880120020EE70F0070E59
:1032C800DE6AE806FDE20001685169116A116B11B6
:1032D8006C116D116E116F11D8B475EF19F077EF8D
:1032E80019F0C9EF19F0010E786F85EF19F0D89031
:1032F800683769376A376B376C376D376E376F37B2
:10330800782B6FAF8AEF19F08CEF19F07BEF19F07B
:10331800D890703771377237733774377537763797
:1033280077376851605D695161596A5162596B51CB
:1033380063596C5164596D5165596E5166596F5195
:103348006759D8A0AAEF19F0ACEF19F0BDEF19F042
:103358006851605F6951615B6A51625B6B51635B85
:103368006C51645B6D51655B6E51665B6F51675B59
:103378007081D8906F336E336D336C336B336A332F
:1033880069336833782F8CEF19F070C060F071C022
:1033980061F072C062F073C063F074C064F075C00D
:1033A80065F076C066F077C067F01200000163BF71
:1033B800E7EF19F0635109E1330E625DD8A0E7EF3A
:1033C80019F0E9EF19F009EF1AF063BFF5EF19F0FA
:1033D800F50E625D010E6359D8A0F5EF19F0F7EF0D
:1033E80019F0FBEF19F0010E636FF40E626F62C003
:1033F80020F063C021F0D3EC20F0000E216E000E07
:10340800206EB8EC20F04CEF1AF063AF15EF1AF00D
:10341800CE0E625DFF0E6359D8B015EF1AF017EFA4
:103428001AF040EF1AF063AF23EF1AF0D40E625D82
:10343800FE0E6359D8B023EF1AF025EF1AF029EFE2
:103448001AF0FE0E636FD40E626F000E216E000E2E
:10345800206ED3EC20F062C064F063C065F0000118
:10346800641F651F644B652B64C020F065C021F0A4
:10347800B8EC20F04CEF1AF0000E216E000E206E12
:10348800D3EC20F0000E216E000E206EB8EC20F078
:1034980012000001685169116A116B116C116D11EC
:1034A8006E116F11D8B45BEF1AF05DEF1AF0A5EF4B
:1034B8001AF0010E206E6BEF1AF0D8906837693752
:1034C8006A376B376C376D376E376F37202A6FAFB7
:1034D80070EF1AF072EF1AF061EF1AF06851605D40
:1034E800695161596A5162596B5163596C516459F8
:1034F8006D5165596E5166596F516759D8A087EF5C
:103508001AF089EF1AF099EF1AF06851605F695163
:10351800615B6A51625B6B51635B6C51645B6D51BB
:10352800655B6E51665B6F51675BD8906F336E3326
:103538006D336C336B336A3369336833202E72EF23
:103548001AF060C060F061C061F062C062F063C0F0
:1035580063F064C064F065C065F066C066F067C07B
:1035680067F01200000EBE6E000EBD6E240EBA6E1D
:10357800000EBB6E000EBC6E070EC66EC00EC26E8D
:10358800F70EC36EC468C5681F0E3A01706F606994
:10359800C00E506F070E806F7F0E406F000E716F68
:1035A800000E816F000E516F000E416F000E616FAB
:1035B800000E5A6F000E5B6F000E6A6F000E6B6F85
:1035C800000E7A6F000E7B6F000E826F000E426F46
:1035D800000E526F000E626F000E726F43695369DE
:1035E80063697369070E836F446954696469746910
:1035F8000F0E846F1F0ECF6F090EDC6F0E0E016F5A
:103608000A0EE56F0D0E006F1D0EC96F100E046FC8
:10361800070ED96F090ED16F0F0E036F130E0B6FC4
:10362800080EDB6F080ED26F1E0ED06F120023A09B
:1036380020EF1BF022EF1BF02CEF1BF072C069F09B
:1036480073C06AF070C06BF071C06CF083EC1FF04F
:10365800000175BF32EF1BF034EF1BF03AEF1BF09F
:1036680074C078F075C079F03EEF1BF0000E796FEA
:10367800000E786F000E776F000E766F51EF1BF01B
:10368800000E616F200E606F70C062F071C063F051
:10369800E1EC1CF00001764B772B7851765D775181
:1036A800800A226E7951800A2258D8A05EEF1BF05A
:1036B80060EF1BF044EF1BF023B065EF1BF067EFE2
:1036C8001BF071EF1BF072C069F073C06AF070C034
:1036D8006BF071C06CF083EC1FF072C020F073C007
:1036E80021F00FEC20F0000178512024706F7951FF
:1036F8002120716F1200000E0001656F63BF89EF12
:103708001BF087EF1BF08FEF1BF0626D631FD8B0C3
:10371800632B010E656F61BF96EF1BF094EF1BF0F2
:103728009CEF1BF0606D611FD8B0612B010E651B0B
:10373800000E676F000E666F62516311D8B4A7EF71
:103748001BF0A9EF1BF0D1EF1BF0010E646FB1EF76
:103758001BF0D89062376337642B63AFB6EF1BF06A
:10376800B8EF1BF0ADEF1BF0D890663767376251A2
:10377800605D63516159D8A0C4EF1BF0C6EF1BF020
:10378800CBEF1BF06251605F6351615B6681D8903B
:1037980063336233642FB8EF1BF06551D8B4D7EFA9
:1037A8001BF0D9EF1BF0DDEF1BF0666D671FD8B07B
:1037B800672B66C060F067C061F01200B20E31245A
:1037C800D96EDA6A000EDA22000EDF6E3D01F9A723
:1037D800F0EF1BF0F2EF1BF006EF1CF0B20E3124F5
:1037E800D96EDA6A000EDA220001DF8202D806EF0B
:1037F8001CF00500FA6EFD51FD6EFE51FE6EFF6A6B
:10380800FA5012003D01F9A30CEF1CF00EEF1CF06A
:1038180022EF1CF0B20E3124D96EDA6A000EDA22D9
:103828000001DF8402D822EF1CF00500FA6EFB517C
:10383800FD6EFC51FE6EFF6AFA501200B20E312482
:10384800D96EDA6A000EDA22DF50D8B42EEF1CF0F7
:1038580030EF1CF03FEF1CF002D83DEF1CF00500E4
:10386800FA6E0001F951FD6EFA51FE6EFF6AFA50C8
:10387800120041EF1CF0A7EC21F0120039019397D8
:10388800C40E206E370E216EA2EC22F039019399F6
:10389800980E206E3F0E216E9DEC22F0000E3D0129
:1038A800EC6F000EED6F000EEE6F000EEF6F000E66
:1038B800F06F000EF16FB00EF26F800EF36F000E16
:1038C800F46F8A0EF56F000EF66F000EF76F000E9C
:1038D800F86F000EF96F000EFA6FA20E206E450EFB
:1038E800216EACEC22F0A00E206E450E216EA7ECE6
:1038F80022F0940E206E450E216EB1EC22F0000EDF
:103908002E6E000E336E000E326E080E406E000EE4
:10391800316E000E306E000E2F6E39019387120043
:10392800000E00016F6F000E6E6F345035103610A8
:103938003710D8B4A2EF1CF0A4EF1CF0DCEF1CF099
:103948003C0160ABAAEF1CF0ACEF1CF0C5EF1CF01B
:10395800200E0001606FA10E616F070E626F000EEE
:10396800636F34C064F035C065F036C066F037C0A8
:1039780067F0D3EC17F060C06EF061C06FF0DCEF59
:103988001CF0E00E0001606F5E0E616FF80E626F52
:10399800FF0E636F34C064F035C065F036C066F062
:1039A80037C067F0D3EC17F060C06EF061C06FF0FD
:1039B8006EC020F06FC021F0120000016251631147
:1039C800D8B4E9EF1CF0EBEF1CF0F4EF1CF06251F7
:1039D8006311D8A4F2EF1CF0F4EF1CF0F9EF1CF01F
:1039E800605198EC22F02CEF1DF020EE09F06251A6
:1039F800D9266351DA22DE50DE10D8B406EF1DF066
:103A080008EF1DF023EF1DF020EE09F06251D926D2
:103A18006351DA2210EE03F06251E1266351E2228B
:103A2800DE50E65CE650800A686FDE50800A68590E
:103A3800D8B021EF1DF023EF1DF02CEF1DF020EE84
:103A480003F06251D9266351DA22DE2A000EDD2204
:103A580012000001EE5107E10A0EED5DD8B037EF14
:103A68001DF039EF1DF03CEF1DF02D2A47EF1DF03A
:103A7800020EEC19D8B443EF1DF045EF1DF047EFE7
:103A88001DF0000E2D6E320E2D644DEF1DF04FEF20
:103A98001DF06FEF1DF0E651E45DE751E559D8B030
:103AA80058EF1DF05AEF1DF05EEF1DF0020EEC6F9F
:103AB80060EF1DF0030EEC6FEE5109E11F0EED5D96
:103AC800D8A069EF1DF06BEF1DF06FEF1DF0000E31
:103AD800EC6F000E2D6E1200AAC0AEF0ABC0AFF0B6
:103AE800000E0001D36F000ED26F8EEF1DF0A8C03C
:103AF8009EF0A9C09FF0AE0EA06F000EA16FACC0E3
:103B0800A2F0ADC0A3F020EC0EF000019E51D22728
:103B18009F51D3236000BBF2F6FF6000BFF2F7FFAE
:103B2800F86A0800F5500009D8A49DEF1DF09FEF32
:103B38001DF07BEF1DF0D2C0A8F0D3C0A9F0120091
:103B4800206E4050D8B4ABEF1DF0ADEF1DF0A5EFDF
:103B58001DF0390193B9B3EF1DF0B5EF1DF0BAEFC1
:103B68001DF0600083F0EAFDD0EF1DF09399C20EBE
:103B78003324D96EDA6A000EDA22600083F0DFFFA0
:103B8800332A070E3364CBEF1DF0CDEF1DF0CFEFD6
:103B98001DF0000E336E400693891200000E3E01A0
:103BA800DE6F000EDF6F000EE06F000EE16F000E9B
:103BB800E46F000EE56F000EEA6F000EEC6F000E6A
:103BC800F16F580EF36F020EF46F000EF56F000ED2
:103BD800F66F000EF76F000EF96F000EFA6F000E09
:103BE800FB6F000EFC6F000EFD6F000EFE6F1F0EC8
:103BF800FF6F840EF86F12003901A19F3F01185121
:103C08000001CE6F3F0119510001CF6F3F011A51DA
:103C18000001D06FD16B3C0160AB15EF1EF017EFC0
:103C28001EF020EF1EF0010E0001CA27000ECB2364
:103C3800CC23CD2329EF1EF0FF0E0001CA27FF0E6B
:103C4800CB23FF0ECC23FF0ECD2311006F0060FFA6
:103C580017F06F00E8FF18F06F00ECFF19F03C5008
:103C68003D10D8B43AEF1EF03CEF1EF048EF1EF0BE
:103C780002D848EF1EF00500FA6E3C50FD6E3D502C
:103C8800FE6EFF6AFA501200600067F0FBFF6000EA
:103C980063F0FAFF60005FF0D8FF11006F0060FF6B
:103CA8001AF06F00E8FF1BF06F00ECFF1CF03E50AD
:103CB8003F10D8B462EF1EF064EF1EF070EF1EF0F4
:103CC80002D870EF1EF00500FA6E3E50FD6E3F50B0
:103CD800FE6EFF6AFA501200600073F0FBFF60008E
:103CE8006FF0FAFF60006BF0D8FF11006F0060FF03
:103CF8001DF06F00E8FF1EF06F00ECFF1FF03901A8
:103D0800A791274A282A285009E10A0E275CD8A03B
:103D180090EF1EF092EF1EF098EF1EF064EC21F089
:103D2800000E286E000E276E60007FF0FBFF60001B
:103D38007BF0FAFF600077F0D8FF1100D28A000EFE
:103D4800D2BE010E206ED29E550ED46EAA0ED46E2F
:103D5800D490000ED76E000ED66E080ED56E550E96
:103D6800D46EAA0ED46ED48020B002D0D29E01D0D8
:103D7800D28E390183998397818F818B818D8A8136
:103D8800888F8791898312006F00E8FF03F06F0026
:103D9800ECFF04F03901A9936F00D0FD05F06F0026
:103DA800D4FD06F005C001F006C002F002D8E7EF26
:103DB8001EF00500FA6E0001F751FD6EF851FE6E17
:103DC800FF6AFA501200600013F0FBFF60000FF06A
:103DD800FAFF11006F00E8FF09F06F00ECFF0AF02E
:103DE8003901AA916F00C0FD0BF06F00C4FD0CF003
:103DF8000BC007F00CC008F002D80DEF1FF005004B
:103E0800FA6E0001F551FD6EF651FE6EFF6AFA502A
:103E1800120060002BF0FBFF600027F0FAFF110092
:103E2800A2EC1EF0FCEC21F0B6EC1AF07DEC22F0CE
:103E38004DEC21F0D2EC1DF07BEC21F0EEEC20F003
:103E48004DEC22F03FEC22F065EC22F036EC21F04C
:103E580091EC21F04BEC20F071EC22F039EC1FF0E2
:103E680059EC22F042EC1CF01200C00E9B6E000EC2
:103E78009C6E050E9D6E000E996E000E986E3901AF
:103E8800A89D98506F0064FE60F00001616B60C0EF
:103E980061F0606B60113A6E61513B6E3901A89F09
:103EA800988F600E206E440E216EB6EC22F0030E41
:103EB8009A6E12003901A19D3F011551346E1651B9
:103EC800356E1751366E376A3C0160AB6EEF1FF0E6
:103ED80070EF1FF079EF1FF0010E0001CA27000EE6
:103EE800CB23CC23CD2382EF1FF0FF0E0001CA277E
:103EF800FF0ECB23FF0ECC23FF0ECD231100000EA7
:103F080000016F6F000E6E6F96EF1FF06DC060F0CE
:103F1800616B6BC062F06CC063F0E1EC1CF00001F7
:103F28006E4B6F2B6E516925D96E6F516A21DA6E0F
:103F3800DF506D6F6D51D8A4A4EF1FF0A6EF1FF0EE
:063F48008AEF1FF01200D9
:103F50006F00E8FF15F06F00ECFF16F03901A89F25
:103F600038503910D8B4B7EF1FF0B9EF1FF0C5EFD4
:103F70001FF002D8C5EF1FF00500FA6E3850FD6E35
:103F80003950FE6EFF6AFA50120060005BF0FBFFD2
:103F9000600057F0FAFF1100080E4060D2EF1FF0EA
:103FA000D4EF1FF0EBEF1FF0C20E3224D96EDA6AA5
:103FB000000EDA22DF503D01EA6F322A070E32642A
:103FC000E4EF1FF0E6EF1FF0E8EF1FF0000E326E97
:103FD000402AEDEF1FF0390193991200000171BFE3
:103FE000FCEF1FF0715106E17005D8B0FAEF1FF039
:103FF000FCEF1FF00AEF20F070C072F071C073F098
:10400000721F731F724B732B72C070F073C071F00C
:104010000EEF20F070C070F071C071F0120020C07F
:1040200060F021C061F017EF20F0204A212A6000E3
:1040300083F0D9FF600087F0DAFFDF50D8A423EFC8
:1040400020F025EF20F015EF20F000016051205CFA
:10405000206E61512158216E1200226E60008BF09B
:10406000F1FE3E01F88FF89DF881F8B13AEF20F0AB
:104070003CEF20F035EF20F0F0510001616F606BF4
:104080003E01EF5100016025206E3E01000E00014F
:104090006121216E1200000EA76E000EA86E050EA3
:1040A000A96E000EA56E000EA46E3901A69DA45047
:1040B0006F0094FE20F0216A20C021F0206A2010B9
:1040C0000001F36F2150F46F010EA66E120000EE96
:1040D00000F1200EEE6AE806FDE100EEB2F03D0EC2
:1040E000EE6AE806FDE100EE23F0150EEE6AE80642
:1040F000FDE1080ED56E000ED66E000ED76E0001E3
:1041000020EF22F020C060F021C061F00001D890C3
:1041100061336033D890613360336051696E20C081
:1041200060F0030E6017060E616FD8906037612F44
:1041300095EF20F06051686E120020C060F021C041
:1041400061F00001D89061336033D89061336033FF
:1041500060516D6E20C060F0030E6017060E616F37
:10416000D8906037612FB0EF20F060516C6E120074
:1041700020C060F021C061F00001D890613360334D
:10418000D890613360336051616E20C060F0030EDF
:104190006017060E616FD8906037612FCBEF20F06B
:1041A0006051606E120020C060F021C061F000011B
:1041B000D89061336033D890613360336051656E5D
:1041C00020C060F0030E6017060E616FD890603754
:1041D000612FE6EF20F06051646E1200800E3F0107
:1041E0001E6F420E1F6F000E206F040E216F000E17
:1041F000236F000E226F010E1D6F1C691B693901B0
:10420000918B918F918D3F011F8F1200CDAE0BEFDF
:1042100021F00DEF21F013EF21F001C02BF002C0CF
:104220002CF01DEF21F02B50015C0001E66F2C50AB
:104230000258E76FD890E733E6331200CDAC23EF96
:1042400021F025EF21F02BEF21F007C029F008C065
:104250002AF035EF21F02950075C0001E46F2A5065
:104260000858E56FD890E533E4331200830E726E80
:10427000000E736E000E716E000E706E3C0E206E9E
:10428000420E216EC0EC22F03F015E513F0B8009CF
:104290005E6F3901AA919A811200830E766E000E2C
:1042A000776E000E756E000E746E0C0E206E420E50
:1042B000216EC5EC22F03F015E51CF0B20095E6FED
:1042C0003901A993998312000001F151F211D8B478
:1042D0006CEF21F06EEF21F07AEF21F002D87AEF47
:1042E00021F00500FA6EF151FD6EF251FE6EFF6A8B
:1042F000FA5012001200010EA26E000EA16E000E06
:10430000A36EF90E9F6E000E9E6E3901A7919781E4
:10431000A40E206E450E216EBBEC22F0E00EA06EC6
:104320001200000E3C01616F030E626F020E636F9C
:10433000000E646F000E656F020E666F080E676FE9
:10434000000E686F000E696F850E606F1200BA0E66
:104350003124D96EDA6A000EDA226F00A3F7DFFF8C
:10436000312A070E3164B7EF21F0B9EF21F0BBEF2E
:1043700021F0000E316E2F2A12009AA4C2EF21F014
:10438000C4EF21F0CDEF21F09A900E50996E6000AD
:1043900037F098FF9A80D2EF21F00E50996E6000AE
:1043A00037F098FF1200320E0001B06F010EB16FAE
:1043B000000EA86F000EA96F30C1AAF031C1ABF09A
:0E43C000B00EAC6F000EAD6F70EC1DF0120071
:1043D0003901A19B000E346E000E356E000E366E54
:1043E000000E376E000E0001CE6F000ECF6F000E74
:1043F000D06F000ED16F1100000E3901C06F000E9A
:10440000C16F000EC26F000EC36F000EC46F000EAE
:10441000C56F000EC66F000EC76F12009A826F0044
:1044200060FE14F06F0064FE13F013500F6E145012
:10443000116E0FC012F011C00DF012C00EF012007C
:1044400014EC1FF0D28ED28C9A0E206E450E216E87
:10445000BBEC22F03FEC17F02AEF22F057EF00F010
:104460000EEC22F00DC0EDF00EC0EEF00001D89081
:10447000EE33ED3391EC22F03901A89F1200050EC6
:10448000AE6E000EAD6E000EAF6EAB68000EAA6E83
:104490003901A495B00EAC6E1200800E626E000E53
:1044A000616E000E606E3F015F513F0B80095F6FD0
:1044B0001200800E666E000E656E000E646E3F0187
:1044C0005F51CF0B20095F6F1200800E6A6E590E8C
:1044D000696E400E686E3F015F51F30B04095F6F18
:1044E0001200800E6E6E590E6D6E400E6C6E3F01A6
:1044F0005F51FC0B01095F6F1200600E3901D96F2B
:10450000000EDB6F000EDD6F080EDF6F000EDE6F3A
:104510001200220E2DEC20F020C0EFF021C0F0F0B0
:1045200012003AC00DF03BC00EF0BDEC21F01200BD
:10453000216E2150A4EC1DF0120020C03CF021C0DF
:104540003DF0120020C03EF021C03FF0120020C01C
:10455000FBF021C0FCF0120020C0FDF021C0FEF0F5
:10456000120020C0F9F021C0FAF0120020C038F08B
:1045700021C039F0120020C0F1F021C0F2F0120089
:1045800020C0F5F021C0F6F0120020C0F7F021C0E5
:10459000F8F01200A7EC21F012000001EA2B120043
:0645A000120012001200DF
:0245A800110000
:020000040030CA
:0A0000008CFFFFFF9FFFFFFFFFFFD3
:00000001FF
