:0400000057EF00F0C6
:100008000F110F110F110F110F110F110F110F11E8
:100018000F110F110F110F110F119510730FAF0E54
:100028000F110F110F110F110F110F110F110F11C8
:100038000F110F110F11D90EC40E0F110F110F113F
:100048000F110F110F110F112B000F110F110F119D
:100058000F110F110F110F110F110F110F110F1198
:100068000F110F110F110F110F110F110F110F1188
:10007800EE0E0F112B000F110F110F112B002B007B
:100088002B002B002B002B002B002B000F11600FD7
:100098000F11150F0F110F112B002B002B002B0028
:0A00A800280F0F11FF00AAEF1FF050
:101000000053746F7020526576657273650A0052E2
:1010100065766572736552696774680A0052657611
:10102000657273654C6566740A00313073207061B7
:10103000737365640A0042566F6C743A2025750A12
:10104000000000019251800B9B6F925192259D6F81
:1010500091AF2DEF08F02FEF08F030EF08F09D81F1
:101060009D51D8B436EF08F038EF08F04DEF08F096
:101070009D29D8A43EEF08F040EF08F048EF08F0B3
:10108000000E8F6F000E906F000E916F000E926F2A
:10109000918F000E926F55EF08F0000E8F6F000ECB
:1010A000906F000E916F000E926F9651800B9C6FA7
:1010B0009B519C19D8B45FEF08F061EF08F062EF24
:1010C00008F09B8D965196259C6F95AF6AEF08F0BE
:1010D0006CEF08F06DEF08F09C819C51D8B473EF71
:1010E00008F075EF08F08AEF08F09C29D8A47BEF90
:1010F00008F07DEF08F085EF08F0000E936F000E0A
:10110000946F000E956F000E966F958F000E966F80
:1011100092EF08F0000E936F000E946F000E956F23
:10112000000E966F9D519C5DD8B099EF08F09BEF33
:1011300008F0C2EF08F09BADA0EF08F0A2EF08F0B6
:10114000A4EF08F0800E9B1B9DC09EF09CC09DF0FC
:101150009EC09CF08FC09EF093C08FF09EC093F015
:1011600090C09EF094C090F09EC094F091C09EF00C
:1011700095C091F09EC095F092C09EF096C092F0FE
:101180009EC096F0000E9E6F9D519CC097F0986B8C
:10119000975F000E985B98BFD7EF08F0985109E170
:1011A0001A0E975DD8A0D7EF08F0D9EF08F010EF2E
:1011B00009F08F51901191119211D8A4E2EF08F02B
:1011C000E5EF08F0010EE6EF08F0000E9E6F000E4E
:1011D0008F6F000E906F000E916F000E926F9CC08B
:1011E0009DF019EF09F09EA1F8EF08F0FAEF08F072
:1011F00000EF09F0D8909E3101099E6F02EF09F0CF
:10120000D8909E338FA107EF09F009EF09F00AEF9C
:1012100009F09E8F92359233913390338F339D2B0B
:101220009C519D5DD8A017EF09F019EF09F0F3EF7D
:1012300008F09BBD1EEF09F020EF09F060EF09F008
:101240009D51D8A426EF09F028EF09F032EF09F0FC
:10125000000E8F6F000E906F000E916F000E926F58
:1012600081EF0AF093518F27945190239551912348
:101270009651922392A13FEF09F041EF09F0EDEF73
:1012800009F09EA146EF09F048EF09F04EEF09F092
:10129000D8909E3101099E6F50EF09F0D8909E338F
:1012A0008FA155EF09F057EF09F058EF09F09E8F25
:1012B00092359233913390338F339D2BEDEF09F0BC
:1012C00093518F5D94519059955191599251800A43
:1012D000976F9651800A9759D8B071EF09F073EF64
:1012E00009F09EEF09F08F51935D976F90519459DB
:1012F000986F91519559996F925196599A6FFF0E27
:1013000097258F6FFF0E9821906FFF0E9921916F97
:10131000FF0E9A21926F800E9B1B9E6D9E51D8A44A
:1013200094EF09F096EF09F0A6EF09F0010E8F2770
:10133000000E902391239223A6EF09F093518F5F23
:101340009451905B9551915B9651925B8F519011A6
:1013500091119211D8A4AFEF09F0B1EF09F0E6EFC7
:1013600009F09E51D8A4B7EF09F0B9EF09F0E6EF04
:1013700009F0000E8F6F000E906F000E916F000E3F
:10138000926F81EF0AF0D8908F379037913792376C
:101390009EAFCDEF09F0CFEF09F0D0EF09F08F81CC
:1013A0009EA1D5EF09F0D7EF09F0DBEF09F0D88067
:1013B0009E37DDEF09F0D8909E379D51D8B4E3EF0A
:1013C00009F0E5EF09F0E6EF09F09D0791AFEBEFCB
:1013D00009F0EDEF09F0C3EF09F0000E9C6F9EAF2E
:1013E000F4EF09F0F6EF09F00EEF0AF09EC097F067
:1013F0007F0E9717D8B4FFEF09F001EF0AF005EF61
:101400000AF0010E9C6F0EEF0AF08FA10AEF0AF0AE
:101410000CEF0AF00EEF0AF001EF0AF09C51D8B47D
:1014200014EF0AF016EF0AF041EF0AF0010E8F27D1
:10143000000E90239123922392A121EF0AF023EF33
:101440000AF041EF0AF08FC097F090C098F091C079
:1014500099F092C09AF09A359A339933983397332A
:1014600097C08FF098C090F099C091F09AC092F018
:101470009D29D8B43EEF0AF040EF0AF041EF0AF0A0
:101480009D2B9D29D8B447EF0AF049EF0AF051EFA0
:101490000AF09D51D8A44FEF0AF051EF0AF063EF24
:1014A0000AF0000E8F6F000E906F000E916F000E0D
:1014B000926F9D51D8A45FEF0AF061EF0AF063EFDD
:1014C0000AF0000E9B6F9DA168EF0AF06AEF0AF028
:1014D0006DEF0AF0918F6EEF0AF0919FD8909D31D9
:1014E000926F9BAF76EF0AF078EF0AF079EF0AF08F
:1014F000928F8FC08FF090C090F091C091F092C009
:1015000092F0120000017951800B826F7951792598
:10151000886F78AF8EEF0AF090EF0AF091EF0AF043
:1015200088818851D8B497EF0AF099EF0AF0ACEFB0
:101530000AF08829D8A49FEF0AF0A1EF0AF0A9EFDA
:101540000AF0000E766F000E776F000E786F000EB7
:10155000796F788FB4EF0AF0000E766F000E776F18
:10156000000E786F000E796F7D51800B821B7D51CC
:101570007D25836F7CAFBFEF0AF0C1EF0AF0C2EFA9
:101580000AF083818351D8B4C8EF0AF0CAEF0AF099
:10159000DDEF0AF08329D8A4D0EF0AF0D2EF0AF0E9
:1015A000DAEF0AF0000E7A6F000E7B6F000E7C6F90
:1015B000000E7D6F7C8FE5EF0AF0000E7A6F000E53
:1015C0007B6F000E7C6F000E7D6F8351D8B4EBEF04
:1015D0000AF0EDEF0AF0F5EF0AF08851D8A4F3EF26
:1015E0000AF0F5EF0AF0FFEF0AF0000E766F000E3A
:1015F000776F000E786F000E796FA9EF0CF07C51B9
:1016000076036F00CCFF8DF06F00D0FF8EF08D5110
:10161000846F856B866B876B8E51896F8A6B8B6B42
:101620008C6B7B5177036F00CCFF8DF06F00D0FF88
:101630008EF08D518427000E8523862387238E51BB
:101640008927000E8A238B238C237A5178036F001D
:10165000CCFF8DF06F00D0FF8EF08D518427000EEF
:101660008523862387238E518927000E8A238B2387
:101670008C2386C087F085C086F084C085F0846B9B
:101680007A5177036F00CCFF8DF06F00D0FF8EF0A2
:101690008D5184278E518523000E8623000E8723CB
:1016A0007B5176036F00CCFF8DF06F00D0FF8EF082
:1016B0008D5184278E518523000E8623000E8723AB
:1016C00086C087F085C086F084C085F0846B7A512F
:1016D00076036F00CCFF8DF06F00D0FF8EF08D5140
:1016E00084278E518523000E8623000E87237C518C
:1016F00077036F00CCFF8DF06F00D0FF8EF08D511F
:1017000089278E518A23000E8B23000E8C237B5158
:1017100078036F00CCFF8DF06F00D0FF8EF08D51FD
:1017200089278E518A23000E8B23000E8C237C5137
:1017300078036F00CCFF8DF06F00D0FF8EF08D51DD
:101740007E6F8E517F6F806B816B80C081F07FC018
:1017500080F07EC07FF07E6B7E5189277F518A2387
:1017600080518B2381518C2384C07EF085C07FF013
:1017700086C080F087C081F0190EC4EF0BF0D890BE
:10178000813380337F337E33E82EBFEF0BF07E5101
:1017900089277F518A2380518B2381518C2386C0D6
:1017A00087F085C086F084C085F0846B835188C043
:1017B0007EF07F6B7E27000E7F23820E7E258D6F4D
:1017C000FF0E7F218E6FFAEF0BF0D89089378A37A2
:1017D0008B378C3787AFEFEF0BF0F1EF0BF0F2EFB9
:1017E0000BF08981D89084378537863787378D0706
:1017F000D8A08E078BAFFFEF0BF001EF0CF0E5EFF9
:101800000BF0000E836F87AF08EF0CF00AEF0CF0BF
:101810002EEF0CF0FF0E84157E6FFF0E85157F6F87
:10182000FF0E8615806F7F0E8715816F7E517F11A9
:1018300080118111D8B41FEF0CF021EF0CF025EFCF
:101840000CF0010E836F2EEF0CF089A12AEF0CF043
:101850002CEF0CF02EEF0CF021EF0CF08351D8B4EC
:1018600034EF0CF036EF0CF05AEF0CF0010E892734
:10187000000E8A238B238C238CA141EF0CF043EFC5
:101880000CF05AEF0CF089C07EF08AC07FF08BC05C
:1018900080F08CC081F08135813380337F337E339B
:1018A0007EC089F07FC08AF080C08BF081C08CF050
:1018B0008D4B8E2B8EBF65EF0CF08E5108E18D297C
:1018C000D8A065EF0CF067EF0CF071EF0CF0000E94
:1018D000896F000E8A6F800E8B6F7F0E8C6F9FEF6B
:1018E0000CF08EBF7EEF0CF08E5106E18D05D8B066
:1018F0007CEF0CF07EEF0CF08AEF0CF0000E896F9D
:10190000000E8A6F000E8B6F000E8C6F000E826FC0
:101910009FEF0CF08DC088F0FF0E8917FF0E8A171D
:101920007F0E8B17000E8C1788A199EF0CF09BEFA0
:101930000CF09CEF0CF08B8FD89088318C6F82511B
:101940008C1389C076F08AC077F08BC078F08CC099
:1019500079F0120000017951800B866F7951792559
:101960008D6F78AFB6EF0CF0B8EF0CF0B9EF0CF06C
:101970008D818D51D8B4BFEF0CF0C1EF0CF0D6EFD4
:101980000CF08D29D8A4C7EF0CF0C9EF0CF0D1EF03
:101990000CF0000E766F000E776F000E786F000E61
:1019A000796F788F000E796FDEEF0CF0000E766F96
:1019B000000E776F000E786F000E796F7D51800BEF
:1019C000861B7D517D258E6F7CAFE9EF0CF0EBEF30
:1019D0000CF0ECEF0CF08E818E51D8B4F2EF0CF0DD
:1019E000F4EF0CF009EF0DF08E29D8A4FAEF0CF00B
:1019F000FCEF0CF004EF0DF0000E7A6F000E7B6F21
:101A0000000E7C6F000E7D6F7C8F000E7D6F11EFDE
:101A10000DF0000E7A6F000E7B6F000E7C6F000ED3
:101A20007D6F7A517B117C117D11D8A41AEF0DF0D6
:101A30001CEF0DF034EF0DF0000E766F000E776F97
:101A4000000E786F000E796F800E78137F0E791379
:101A50008651791376C076F077C077F078C078F049
:101A600079C079F077EF0EF08D51D8A43AEF0DF0F0
:101A70003CEF0DF046EF0DF0000E766F000E776F25
:101A8000000E786F000E796F77EF0EF08E518DC0DB
:101A90007EF07F6B7E5F000E7F5B7F0E7E25876F03
:101AA000000E7F21886F76C082F077C083F078C007
:101AB00084F079C085F0000E766F000E776F000E0F
:101AC000786F000E796F000E896F000E8A6F000E1E
:101AD0008B6F000E8C6F000E8E6FA7EF0DF08E5186
:101AE000D8B475EF0DF077EF0DF08EEF0DF0D890C4
:101AF0008237833784378537D8907637773778378A
:101B000079378CAF86EF0DF088EF0DF089EF0DF08F
:101B10007681D89089378A378B378C377A51825DB6
:101B20007B5183597C5184597D518559D8A09BEFB5
:101B30000DF09DEF0DF0A6EF0DF08C8D7A51825FC8
:101B40007B51835B7C51845B7D51855B8E2B190EB1
:101B50008E65ADEF0DF0AFEF0DF06FEF0DF0825130
:101B6000831184118511D8B4B8EF0DF0BAEF0DF0E0
:101B7000D2EF0DF08981D2EF0DF0D890763777371C
:101B8000783779378CAFC7EF0DF0C9EF0DF0CAEF9A
:101B90000DF07681D89089378A378B378C37870755
:101BA000D8A0880778AFD7EF0DF0D9EF0DF0BDEFD3
:101BB0000DF0000E8E6F8CAFE0EF0DF0E2EF0DF048
:101BC00006EF0EF0FF0E89157E6FFF0E8A157F6FF0
:101BD000FF0E8B15806F7F0E8C15816F7E517F11EC
:101BE00080118111D8B4F7EF0DF0F9EF0DF0FDEF92
:101BF0000DF0010E8E6F06EF0EF076A102EF0EF0E3
:101C000004EF0EF006EF0EF0F9EF0DF08E51D8B4A0
:101C10000CEF0EF00EEF0EF032EF0EF0010E762705
:101C2000000E77237823792379A119EF0EF01BEFAB
:101C30000EF032EF0EF076C07EF077C07FF078C005
:101C400080F079C081F08135813380337F337E33FA
:101C50007EC076F07FC077F080C078F081C079F0E8
:101C6000874B882B88BF3DEF0EF0885108E187290C
:101C7000D8A03DEF0EF03FEF0EF04AEF0EF0000E51
:101C8000886F8769000E766F000E776F000E786F91
:101C9000000E796F88BF57EF0EF0885106E1870577
:101CA000D8B055EF0EF057EF0EF065EF0EF0000EC6
:101CB000886F000E876F000E766F000E776F000E34
:101CC000786F000E796F000E866F87C08DF08DA142
:101CD0006CEF0EF06EEF0EF071EF0EF0788F72EF8A
:101CE0000EF0789FD8908D31796F28EF0DF01200AB
:101CF000000E0001AC6F000EAB6F48EF0FF03F50CD
:101D000009E1290E3E5CD8A088EF0EF08AEF0EF0B4
:101D10008CEF0EF0000E336EDDBF98EF0EF0DD514C
:101D200009E1650EDC5DD8A098EF0EF09AEF0EF099
:101D30006DEF0FF0DDBFA5EF0EF0DD5108E1DC0522
:101D4000D8A0A5EF0EF0A7EF0EF0B1EF0EF0DCC0BB
:101D5000ABF0DDC0ACF0FE0EAB27FF0EAC236DEF99
:101D60000FF0DDBFBCEF0EF0DD5108E1DC05D8A0BF
:101D7000BCEF0EF0BEEF0EF0D3EF0EF03F5007E1D8
:101D8000140E3E5CD8B0C7EF0EF0C9EF0EF0D3EFE3
:101D90000EF0DCC0ABF0DDC0ACF0FC0EAB27FF0EEC
:101DA000AC236DEF0FF06DEF0FF03F5007E1280E01
:101DB0003E5CD8B0DEEF0EF0E0EF0EF0E2EF0EF09A
:101DC000010E336E3F5009E1970E3E5CD8A0EBEF59
:101DD0000EF0EDEF0EF036EF0FF0000E936F000EE9
:101DE000946F7A0E956F430E966F660E7A6F660E3D
:101DF0007B6F660E7C6F3F0E7D6F6A0EA76FFF0EC6
:101E0000A86F3EC0A9F03FC0AAF0A751A927A851CA
:101E1000AA23A9C068F0AAC069F06A6B6B6B000EB8
:101E200055EC13F068C076F069C077F06AC078F0BE
:101E30006BC079F082EC0AF076C08FF077C090F03A
:101E400078C091F079C092F021EC08F08FC09FF03B
:101E500090C0A0F091C0A1F092C0A2F06EEC17F07B
:101E60009FC0ABF0A0C0ACF06DEF0FF0000EAC6FF8
:101E7000FA0EAB6F6DEF0FF0FF0EAC6F830EAB6F12
:101E80006DEF0FF0000EAC6FD20EAB6F6DEF0FF079
:101E90003350A76FA86BA851000AD8B452EF0FF0C7
:101EA0006DEF0FF0A751000AD8B4D5EF0EF0010A7C
:101EB000D8B47FEF0EF0030AD8B43CEF0FF0010A5C
:101EC000D8B43CEF0FF0070AD8B442EF0FF0010A84
:101ED000D8B442EF0FF06DEF0FF00001ACBF7AEF16
:101EE0000FF0910EAB5D010EAC59D8A07AEF0FF058
:101EF0007CEF0FF080EF0FF0010EAC6F900EAB6F28
:101F0000ACAF8CEF0FF0060EAB5DFF0EAC59D8B046
:101F10008CEF0FF08EEF0FF092EF0FF0FF0EAC6F23
:101F2000060EAB6FABC0DCF0ACC0DDF01200000100
:101F3000D3BF9DEF0FF09FEF0FF0A0EF0FF02292B5
:101F4000D3BFADEF0FF0D35106E1D205D8B0ABEF60
:101F50000FF0ADEF0FF0B3EF0FF0000E8E6F010E2C
:101F60008D6FB7EF0FF0D2C08DF0D3C08EF0D0C020
:101F70008FF0D1C090F07DC091F07EC092F07FC014
:101F800093F080C094F081C095F082C096F083C039
:101F900097F084C098F0000E9A6F1F0E996F000E94
:101FA00001011F6F4BEF10F09907D8A09A07000EA0
:101FB0009925D96E010E9A21DA6E91C060F092C017
:101FC00061F093C062F094C063F095C064F096C075
:101FD00065F097C066F098C067F00A0E686F000E53
:101FE000696F000E6A6F000E6B6F000E6C6F000E53
:101FF0006D6F000E6E6F000E6F6F61EC19F060C0B8
:1020000085F061C086F062C087F063C088F064C06C
:1020100089F065C08AF066C08BF067C08CF0000163
:102020008551300FDF6E8D07D8A08E078F07D8A09F
:10203000900791C060F092C061F093C062F094C0CC
:1020400063F095C064F096C065F097C066F098C0E4
:1020500067F00A0E686F000E696F000E6A6F000E5F
:102060006B6F000E6C6F000E6D6F000E6E6F000ECA
:102070006F6F75EC18F060C091F061C092F062C0B3
:1020800093F063C094F064C095F065C096F066C0AC
:1020900097F067C098F0000199519A11D8B453EFA6
:1020A00010F055EF10F085EF10F09151921193114F
:1020B00094119511961197119811D8A462EF10F010
:1020C00064EF10F0D4EF0FF08EBF71EF10F08E516F
:1020D00006E18D05D8B06FEF10F071EF10F0D4EF7E
:1020E0000FF090BF7CEF10F0905108E18F05D8A061
:1020F0007CEF10F07EEF10F085EF10F022B283EF4E
:1021000010F085EF10F0D4EF0FF07BC070F07CC0C2
:1021100071F0000E9925726F010E9A21736F8FC0B6
:1021200074F090C075F02FEC1AF070C07BF071C0A5
:102130007CF01200600077F2D9FF60007BF2DAFFDA
:102140006F007BFFF6FF6F0077FFF7FFF86A08006C
:10215000F550250AD8A4AFEF10F0B1EF10F067EFFB
:1021600011F0600077F2D9FF60007BF2DAFFDE2A1F
:10217000000EDD22000E0001D16F000ED06FD0C026
:1021800022F0D1C023F0D269D369600077F2D9FF81
:1021900060007BF2DAFF6F007BFFF6FF6F0077FFD6
:1021A000F7FFF86A0800F550750AD8A4DAEF10F0C6
:1021B000DCEF10F027EF11F0600077F2D9FF60003C
:1021C0007BF2DAFFDE2A000EDD2260007FF2D9FF0B
:1021D000600083F2DAFF6F007CFFA1F0020EDE26C2
:1021E0006F007CFFA2F0000EDD22600087F2D9FFB5
:1021F00060008BF2DAFF6F0078FFA3F06F0074FFCE
:10220000A4F0A3C0A5F0A4C0A6F0A76BA86BA96B0F
:10221000AA6BAB6BAC6B9BC07BF09CC07CF0A5C089
:102220007DF0A6C07EF0A7C07FF0A8C080F0A9C056
:1022300081F0AAC082F0ABC083F0ACC084F097EC10
:102240000FF07BC09BF07CC09CF08AEF11F0600027
:1022500077F2D9FF60007BF2DAFF6F007BFFF6FFB9
:102260006F0077FFF7FFF86A0800F550250AD8A439
:102270003CEF11F03EEF11F058EF11F0600077F2F3
:10228000D9FF60007BF2DAFFDE2A000EDD22000EAD
:10229000616F250E606F9BC062F09CC063F0F5EC2F
:1022A0001BF0000E00019C6F010E9B6F8AEF11F076
:1022B000600077F2D9FF60007BF2DAFFDE2A000EC1
:1022C000DD22000E9C6F000E9B6F8AEF11F0600004
:1022D00077F2D9FF60007BF2DAFF6F007BFFF6FF39
:1022E0006F0077FFF7FFF86A0800F5500001606F94
:1022F000616B9BC062F09CC063F0F5EC1BF060006A
:1023000077F2D9FF60007BF2DAFFDE2A000EDD22D1
:1023100051EF11F012002C502E5C0001A96F2D50CE
:102320002F58AA6F000E7A6F000E7B6FA00E7C6F85
:102330003F0E7D6FA9C068F0AAC069F0000E69BFAA
:10234000FF0E6A6F6B6F010E55EC13F068C076F0EC
:1023500069C077F06AC078F06BC079F0AAEC0CF035
:1023600076C09FF077C0A0F078C0A1F079C0A2F04D
:102370006EEC17F09FC0A9F0A0C0AAF0E8EF11F032
:10238000AABFCCEF11F0AA5109E1290EA95DD8A08E
:10239000CCEF11F0CEEF11F0D4EF11F0000EAA6FD8
:1023A000280EA96F4CEF12F0AAAFE0EF11F0D80E93
:1023B000A95DFF0EAA59D8B0E0EF11F0E2EF11F0DD
:1023C00006EF12F0FF0EAA6FD80EA96F4CEF12F0B5
:1023D00033500001A76FA86BA851000AD8B4F3EFDF
:1023E00011F04CEF12F0A751000AD8B4C0EF11F071
:1023F000010AD8B4C0EF11F0050AD8B4C0EF11F04B
:10240000010AD8B4C0EF11F04CEF12F04CEF12F00B
:10241000A9C068F0AAC069F0020E6A6F31EC14F02E
:1024200071EF12F0A9C068F0AAC069F0030E6A6FDC
:1024300031EC14F071EF12F0000E696F410E686F0D
:10244000000E6A6F31EC14F071EF12F0020E3218C8
:10245000D8A42DEF12F02FEF12F012EF12F0000EB1
:10246000696F370E686F020E6A6F31EC14F071EF0E
:1024700012F0020E3218D8A440EF12F042EF12F020
:1024800012EF12F0FF0E696FC90E686F020E6A6FCD
:1024900031EC14F071EF12F03350A76FA86BA85114
:1024A000000AD8B456EF12F071EF12F0A751000AEB
:1024B000D8B412EF12F0010AD8B408EF12F0030AF0
:1024C000D8B41CEF12F0010AD8B41CEF12F0070ABE
:1024D000D8B426EF12F0010AD8B439EF12F071EF38
:1024E00012F012002FEF13F028502E5C0001606FE5
:1024F00029502F58616FE2512C5C626FE3512D58C7
:10250000636F61BF8DEF12F0615109E1290E605DCB
:10251000D8A08DEF12F08FEF12F0B0EF12F061BF84
:102520009DEF12F02C0E605D010E6159D8B09BEF4B
:1025300012F09DEF12F0B0EF12F0295007E1960E65
:10254000285CD8B0A6EF12F0A8EF12F0B0EF12F0AE
:10255000000E306E010E326E040E336E4CEF13F02F
:1025600063BFBCEF12F0635109E1290E625DD8A090
:10257000BCEF12F0BEEF12F04CEF13F063BFCCEFE4
:1025800012F02C0E625D010E6359D8B0CAEF12F042
:10259000CCEF12F04CEF13F0E35107E1960EE25D41
:1025A000D8B0D5EF12F0D7EF12F04CEF13F0000EC9
:1025B000306E010E326E050E336E4CEF13F0190EB5
:1025C0003064E5EF12F0E7EF12F0EDEF12F0000EDD
:1025D000306E020E326E4CEF13F0302A4CEF13F0D7
:1025E000190E3064F6EF12F0F8EF12F0EDEF12F082
:1025F0002F5009E1230E2E5CD8A001EF13F003EF5A
:1026000013F019EF13F02D5009E1230E2C5CD8A024
:102610000CEF13F00EEF13F019EF13F03F5009E138
:10262000B50E3E5CD8A017EF13F019EF13F04CEF86
:1026300013F0000E306E030E326E000E336E4CEF50
:1026400013F0050E306427EF13F029EF13F0EDEFD0
:1026500012F0000E306E000E326E4CEF13F032505E
:10266000206E216A2150000AD8B439EF13F04CEFE4
:1026700013F02050000AD8B474EF12F0010AD8B455
:10268000DFEF12F0030AD8B4F0EF12F0010AD8B469
:1026900021EF13F04CEF13F02EC028F02FC029F0DB
:1026A0002CC0E2F02DC0E3F012000001706F0001B9
:1026B0007051D8B45EEF13F060EF13F082EF13F0B7
:1026C0006BBF67EF13F065EF13F082EF13F068C094
:1026D0006CF069C06DF06AC06EF06BC06FF06C1F7B
:1026E0006D1F6E1F6F1F6C2B000E6D236E236F23EB
:1026F0006CC072F06DC073F06EC074F06FC075F096
:102700008AEF13F068C072F069C073F06AC074F0A9
:102710006BC075F0685169116A116B11D8A493EF01
:1027200013F095EF13F09FEF13F0000E686F000E9B
:10273000696F000E6A6F000E6B6F30EF14F0960E2B
:10274000716FA9EF13F0712BD89075337433733315
:102750007233000E72156C6F000E73156D6F000EE4
:1027600074156E6FFE0E75156F6F6C516D116E11D5
:102770006F11D8A4BEEF13F0C0EF13F0A3EF13F066
:10278000CEEF13F0712B010E7227000E732374230A
:102790007523D8907533743373337233000E72150A
:1027A0006C6F000E73156D6F000E74156E6FFF0E5B
:1027B00075156F6F6C516D116E116F11D8A4E3EF29
:1027C00013F0E5EF13F0C2EF13F0EDEF13F0710724
:1027D000D890723773377437753774BFF2EF13F0D0
:1027E000F4EF13F0FCEF13F0020E7161FAEF13F047
:1027F000FCEF13F0E7EF13F071B101EF14F003EF0A
:1028000014F004EF14F0749FD890713371C06CF021
:102810006D6B6E6B6F6B6CC06FF06E6B6D6B6C6B1A
:102820006C5172136D5173136E5174136F51751394
:102830007051D8B41EEF14F020EF14F028EF14F00C
:102840006BBF27EF14F025EF14F028EF14F0758F0D
:1028500072C068F073C069F074C06AF075C06BF044
:102860001200000E0001706F000E6F6F86EF14F003
:1028700068C06DF069C06EF068C06BF069C06CF044
:102880006B1F6C1F6B4B6C2B6BC06FF06CC070F0D0
:10289000A7EF14F068C06DF069C06EF068C06FF00B
:1028A00069C070F0A7EF14F068C06DF069C06EF0F9
:1028B00068C060F069C061F0FF0E636FFE0E626F6A
:1028C00093EC1AF060C06FF061C070F0A7EF14F0E5
:1028D00068C06DF069C06EF0000E706F000E6F6F13
:1028E000A7EF14F0000E6E6F000E6D6F68C06FF0F2
:1028F00069C070F0A7EF14F0000E6E6F000E6D6FE0
:10290000000E706F000E6F6FA7EF14F06A516B6FBF
:102910006C6B6C51000AD8B490EF14F07CEF14F09B
:102920006B51000AD8B438EF14F0010AD8B44AEF5A
:1029300014F0030AD8B454EF14F0010AD8B468EFC5
:1029400014F0070AD8B472EF14F07CEF14F0000111
:102950006EBFB4EF14F06E5109E1420E6D5DD8A068
:10296000B4EF14F0B6EF14F0BCEF14F0000E6E6F7D
:10297000410E6D6FCEEF14F06EAFC8EF14F0BF0EC6
:102980006D5DFF0E6E59D8B0C8EF14F0CAEF14F0A9
:10299000CEEF14F0FF0E6E6FBF0E6D6F70BFDAEFEB
:1029A00014F0705109E1290E6F5DD8A0DAEF14F030
:1029B000DCEF14F0E2EF14F0000E706F280E6F6F72
:1029C000F4EF14F070AFEEEF14F0D80E6F5DFF0E61
:1029D0007059D8B0EEEF14F0F0EF14F0F4EF14F0FB
:1029E000FF0E706FD80E6F6F600E6D25206E010E9A
:1029F0006E21216EC5EC1FF0650E00016F25206E63
:102A0000010E7021216EE0EC1FF01200000E00019B
:102A1000636F000E626FEEEC18F0000E0001696F3C
:102A2000000E686F030E6A6F31EC14F0CBB81BEF29
:102A300015F01DEF15F016EF15F03150D8B423EF57
:102A400015F025EF15F01DEF15F0000E316E3EEC80
:102A500021F024C068F025C069F000016A6B6B6B3F
:102A6000000E55EC13F068C076F069C077F06AC0CC
:102A700078F06BC079F09A0E00017A6F990E7B6F37
:102A8000990E7C6F440E7D6FF2EC17F00001D8A018
:102A90004CEF15F04EEF15F01DEF15F08BEC1CF020
:102AA0002EC028F02FC029F02CC0E2F02DC0E3F09A
:102AB000000E316E3150D8B460EF15F062EF15F0B2
:102AC0005AEF15F0000E316ECBBA69EF15F06BEFCF
:102AD00015F07EEF15F0000E0001DD6F000EDC6FCB
:102AE000000E276E000E266E000E696F000E686FD6
:102AF000030E6A6F31EC14F0B2EF15F00001D44B05
:102B0000D52BD5BF8DEF15F0E90ED45D030ED55949
:102B1000D8A08DEF15F08FEF15F09AEF15F0000E9D
:102B2000D56F000ED46F2A0E0101286F100E296F89
:102B300016EC21F041EC1CF00009D8B4A2EF15F01E
:102B4000A4EF15F0A6EF15F0B2EF15F072EC12F04D
:102B500058EC16F08BEC11F078EC0EF0B3EC15F0AD
:102B60005AEF15F012000001DA51DC5DA96FDB515C
:102B7000DD59AA6FD851DA5DAB6FD951DB59AC6F13
:102B8000A8EC1BF020C0DAF021C0DBF0CD0E000174
:102B90007A6FCC0E7B6FCC0E7C6F3C0E7D6F000E7F
:102BA000636F020E626FABC060F0ACC061F093EC7B
:102BB0001AF0A9C0A7F0AAC0A8F000016051A75F51
:102BC0006151A85BA7C068F0A8C069F0000E69BF9A
:102BD000FF0E6A6F6B6F010E55EC13F068C076F054
:102BE00069C077F06AC078F06BC079F082EC0AF0C7
:102BF00076C09FF077C0A0F078C0A1F079C0A2F0B5
:102C00006EEC17F000019F51AD6FAD51800A7C0F43
:102C1000D8A00DEF16F00FEF16F013EF16F0030E1D
:102C2000AD6F1FEF16F0AD51800A830FD8B01BEFC8
:102C300016F01DEF16F01FEF16F0FD0EAD6F2650CB
:102C4000AD25266E000EADBFFF0E2720276E27BED6
:102C500033EF16F0BD0E265C020E2758D8A033EFD6
:102C600016F035EF16F03BEF16F0020E276EBC0E95
:102C7000266E4DEF16F027AE47EF16F0700E265C6D
:102C8000FE0E2758D8B047EF16F049EF16F04DEF7B
:102C900016F0FE0E276E700E266E26C062F027C05C
:102CA00063F0EEEC18F0DAC0D8F0DBC0D9F0120017
:102CB0003F5007E10F0E3E5CD8B061EF16F063EFB6
:102CC00016F068EF16F00001E44BE52B6DEF16F0FF
:102CD000000E0001E56F000EE46FE55109E1330ECF
:102CE000E45DD8A076EF16F078EF16F0E6EF16F078
:102CF000D64BD72B020E3318D8B481EF16F083EFE2
:102D000016F0ABEF16F0030E3318D8B48AEF16F0B6
:102D10008CEF16F0ABEF16F02E502C5C2F502D5888
:102D2000D8B095EF16F097EF16F0A2EF16F00F0E51
:102D30000101286F100E296F16EC21F0020E336E80
:102D4000ABEF16F01D0E0101286F100E296F16EC67
:102D500021F0030E336E3F5007E11F0E3E5CD8B0EA
:102D6000B4EF16F0B6EF16F0C5EF16F00001D7BFBE
:102D7000C3EF16F02D0ED65D010ED759D8A0C3EFC4
:102D800016F0C5EF16F0E6EF16F0010E0101286F00
:102D9000100E296F16EC21F02E502C5C2F502D5860
:102DA000D8B0D5EF16F0D7EF16F0DBEF16F0040E23
:102DB000336EDDEF16F0050E336E000E0001E56F89
:102DC000000EE46F000ED76F000ED66F1200000EDB
:102DD0000001696F67BFF1EF16F0EFEF16F0FBEF40
:102DE00016F0671F661F651F646D000E652366235E
:102DF0006723010E696F63BF02EF17F000EF17F052
:102E00000CEF17F0631F621F611F606D000E6123DE
:102E100062236323010E691B000E6A6F000E6B6F45
:102E2000000E6C6F000E6D6F6451651166116711B5
:102E3000D8B41DEF17F01FEF17F055EF17F0010E84
:102E4000686F29EF17F0D8906437653766376737B2
:102E5000682B67AF2EEF17F030EF17F023EF17F066
:102E6000D8906A376B376C376D376451605D655148
:102E700061596651625967516359D8A042EF17F002
:102E800044EF17F04DEF17F06451605F6551615BDF
:102E90006651625B6751635B6A81D89067336633C2
:102EA00065336433682F30EF17F06951D8B45BEFA6
:102EB00017F05DEF17F065EF17F06D1F6C1F6B1FBC
:102EC0006A6D000E6B236C236D236AC060F06BC0CB
:102ED00061F06CC062F06DC063F012000001A135BA
:102EE000A235216E2150D8A478EF17F07AEF17F0B1
:102EF00084EF17F0000E9F6F000EA06F000EA16F01
:102F0000000EA26FF1EF17F09FC0A3F0A0C0A4F0D5
:102F1000A1C0A5F0A2C0A6F0200E94EF17F0D890A3
:102F2000A633A533A433A333E82E8FEF17F0A351B4
:102F3000206EA18FFF0E9F17FF0EA017FF0EA11787
:102F4000000EA217960E215E21BEABEF17F0A9EF7F
:102F500017F0C1EF17F02150800A970FD8B0B3EFE8
:102F600017F0B5EF17F0B7EF17F07AEF17F0D8902A
:102F7000A233A133A0339F33213EB7EF17F0D9EF2F
:102F800017F01F0E2164C7EF17F0C9EF17F0D1EF4C
:102F900017F07AEF17F0D8909F37A037A137A237F4
:102FA00021062150D8A4D7EF17F0D9EF17F0CBEFB7
:102FB00017F02050D8B4DFEF17F0E1EF17F0E9EF8A
:102FC00017F0A21FA11FA01F9F6D000EA023A12319
:102FD000A2239FC09FF0A0C0A0F0A1C0A1F0A2C0FA
:102FE000A2F01200000E000176157E6F000E77151C
:102FF0007F6F800E7815806F7F0E7915816F7E51FF
:103000007F1180118111D8A408EF18F00AEF18F091
:1030100012EF18F0000E766F000E776F000E786FCB
:10302000000E796F000E7A157E6F000E7B157F6F94
:10303000800E7C15806F7F0E7D15816F7E517F1114
:1030400080118111D8A427EF18F029EF18F031EF83
:1030500018F0000E7A6F000E7B6F000E7C6F000E72
:103060007D6F79AF36EF18F038EF18F041EF18F0B8
:10307000766D771FD8B0772B781FD8B0782B800E5D
:1030800079577DAF46EF18F048EF18F051EF18F080
:103090007A6D7B1FD8B07B2B7C1FD8B07C2B800E29
:1030A0007D57000E761B000E771B000E781B800EDE
:1030B000791B000E7A1B000E7B1B000E7C1B800E02
:1030C0007D1B7A51765D7B5177597C5178597D51C2
:1030D0007959D8B06EEF18F070EF18F073EF18F060
:1030E000D89074EF18F0D880120020EE70F0070E20
:1030F000DE6AE806FDE20001685169116A116B1190
:103100006C116D116E116F11D8B489EF18F08BEF3F
:1031100018F0DDEF18F0010E786F99EF18F0D890E5
:10312000683769376A376B376C376D376E376F378B
:10313000782B6FAF9EEF18F0A0EF18F08FEF18F01C
:10314000D890703771377237733774377537763771
:1031500077376851605D695161596A5162596B51A5
:1031600063596C5164596D5165596E5166596F516F
:103170006759D8A0BEEF18F0C0EF18F0D1EF18F0E3
:103180006851605F6951615B6A51625B6B51635B5F
:103190006C51645B6D51655B6E51665B6F51675B33
:1031A0007081D8906F336E336D336C336B336A3309
:1031B00069336833782FA0EF18F070C060F071C0E9
:1031C00061F072C062F073C063F074C064F075C0E7
:1031D00065F076C066F077C067F01200000163BF4B
:1031E000FBEF18F0635109E1650E625DD8A0FBEFBB
:1031F00018F0FDEF18F01DEF19F063BF09EF19F09B
:10320000BD0E625D020E6359D8A009EF19F00BEFF5
:1032100019F00FEF19F0020E636FBC0E626F62C0FF
:1032200020F063C021F016EC20F0000E216E000E9D
:10323000206EFBEC1FF060EF19F063AF29EF19F07F
:103240009C0E625DFF0E6359D8B029EF19F02BEF89
:1032500019F054EF19F063AF37EF19F0700E625D9B
:10326000FE0E6359D8B037EF19F039EF19F03DEF82
:1032700019F0FE0E636F700E626F000E216E000E6D
:10328000206E16EC20F062C064F063C065F00001AF
:10329000641F651F644B652B64C020F065C021F07E
:1032A000FBEC1FF060EF19F0000E216E000E206E97
:1032B00016EC20F0000E216E000E206EFBEC1FF0CD
:1032C00012000001685169116A116B116C116D11C6
:1032D0006E116F11D8B46FEF19F071EF19F0B9EFEB
:1032E00019F0010E206E7FEF19F0D890683769371A
:1032F0006A376B376C376D376E376F37202A6FAF91
:1033000084EF19F086EF19F075EF19F06851605DE0
:10331000695161596A5162596B5163596C516459D1
:103320006D5165596E5166596F516759D8A09BEF21
:1033300019F09DEF19F0ADEF19F06851605F695118
:10334000615B6A51625B6B51635B6C51645B6D5195
:10335000655B6E51665B6F51675BD8906F336E3300
:103360006D336C336B336A3369336833202E86EFE9
:1033700019F060C060F061C061F062C062F063C0CB
:1033800063F064C064F065C065F066C066F067C055
:1033900067F01200000EBE6E000EBD6E240EBA6EF7
:1033A000000EBB6E000EBC6E070EC66EC00EC26E67
:1033B000F70EC36EC468C5681F0E3A01706F60696E
:1033C000C00E506F070E806F7F0E406F000E716F42
:1033D000000E816F000E516F000E416F000E616F85
:1033E000000E5A6F000E5B6F000E6A6F000E6B6F5F
:1033F000000E7A6F000E7B6F000E826F000E426F20
:10340000000E526F000E626F000E726F43695369B7
:1034100063697369070E836F4469546964697469E9
:103420000F0E846F1F0ECF6F090EDC6F0E0E016F33
:103430000A0EE56F0D0E006F1D0EC96F100E046FA2
:10344000070ED96F090ED16F0F0E036F130E0B6F9E
:10345000080EDB6F080ED26F1E0ED06F120022A076
:1034600034EF1AF036EF1AF040EF1AF072C069F03C
:1034700073C06AF070C06BF071C06CF00BEC1FF0A1
:10348000000175BF46EF1AF048EF1AF04EEF1AF040
:1034900074C079F075C07AF052EF1AF0000E7A6FAE
:1034A000000E796F000E786F000E776F65EF1AF0DF
:1034B000000E616F200E606F70C062F071C063F02B
:1034C000F5EC1BF00001774B782B7951775D785143
:1034D000800A766F7A51800A7659D8A072EF1AF076
:1034E00074EF1AF058EF1AF022B079EF1AF07BEF70
:1034F0001AF085EF1AF072C069F073C06AF070C0FC
:103500006BF071C06CF00BEC1FF072C020F073C058
:1035100021F070EC1FF0000179512024706F7A5176
:103520002120716F1200000E0001656F63BF9DEFD7
:103530001AF09BEF1AF0A3EF1AF0626D631FD8B078
:10354000632B010E656F61BFAAEF1AF0A8EF1AF0A6
:10355000B0EF1AF0606D611FD8B0612B010E651BD2
:10356000000E676F000E666F62516311D8B4BBEF37
:103570001AF0BDEF1AF0E5EF1AF0010E646FC5EF17
:103580001AF0D89062376337642B63AFCAEF1AF032
:10359000CCEF1AF0C1EF1AF0D89066376737625156
:1035A000605D63516159D8A0D8EF1AF0DAEF1AF0D4
:1035B000DFEF1AF06251605F6351615B6681D89002
:1035C00063336233642FCCEF1AF06551D8B4EBEF5C
:1035D0001AF0EDEF1AF0F1EF1AF0666D671FD8B030
:1035E000672B66C060F067C061F01200AE0E372432
:1035F000D96EDA6A000EDA22000EDF6E3D01F9A7FD
:1036000004EF1BF006EF1BF01AEF1BF0AE0E372491
:10361000D96EDA6A000EDA220001DF8202D81AEFD0
:103620001BF00500FA6EFA51FD6EFB51FE6EFF6A4B
:10363000FA5012003D01F9A320EF1BF022EF1BF01E
:1036400036EF1BF0AE0E3724D96EDA6A000EDA229E
:103650000001DF8402D836EF1BF00500FA6EF85146
:10366000FD6EF951FE6EFF6AFA501200AE0E37245D
:10367000D96EDA6A000EDA22DF50D8B442EF1BF0BE
:1036800044EF1BF053EF1BF002D851EF1BF0050085
:10369000FA6E0001F651FD6EF751FE6EFF6AFA50A8
:1036A000120055EF1BF0EAEC20F01200390193975D
:1036B000EC0E206E350E216EEEEC21F0390193995F
:1036C0005E0E206E3E0E216EE9EC21F0000E3D01F3
:1036D000EC6F000EED6F000EEE6F000EEF6F000E40
:1036E000F06F000EF16FB00EF26F800EF36F000EF0
:1036F000F46F8A0EF56F000EF66F000EF76F000E76
:10370000F86F000EF96F000EFA6F380E206E440E3F
:10371000216EF8EC21F0360E206E440E216EF3EC93
:1037200021F02C0E206E440E216EFDEC21F0000ED7
:10373000346E000E396E000E386E080E406E000EAC
:10374000376E000E366E000E356E3901938712000B
:10375000000E00016F6F000E6E6F3A503B103C1070
:103760003D10D8B4B6EF1BF0B8EF1BF0F0EF1BF034
:103770003C0160ABBEEF1BF0C0EF1BF0D9EF1BF0BC
:10378000200E0001606FA10E616F070E626F000EC8
:10379000636F3AC064F03BC065F03CC066F03DC06A
:1037A00067F0E7EC16F060C06EF061C06FF0F0EF0C
:1037B0001BF0E00E0001606F5E0E616FF80E626F2D
:1037C000FF0E636F3AC064F03BC065F03CC066F02A
:1037D0003DC067F0E7EC16F060C06EF061C06FF0BE
:1037E0006EC020F06FC021F0120000016251631121
:1037F000D8B4FDEF1BF0FFEF1BF008EF1CF0625197
:103800006311D8A406EF1CF008EF1CF00DEF1CF0BC
:103810006051E4EC21F040EF1CF020EE09F0625121
:10382000D9266351DA22DE50DE10D8B41AEF1CF02C
:103830001CEF1CF037EF1CF020EE09F06251D92686
:103840006351DA2210EE03F06251E1266351E22265
:10385000DE50E65CE650800A686FDE50800A6859E8
:10386000D8B035EF1CF037EF1CF040EF1CF020EE25
:1038700003F06251D9266351DA22DE2A000EDD22DE
:1038800012000001E04BE12BF50EE05D010EE15965
:10389000D8A04DEF1CF04FEF1CF089EF1CF0000E8C
:1038A000E16F000EE06F3EEC21F024C068F025C00F
:1038B00069F000016A6B6B6B000E55EC13F068C089
:1038C00076F069C077F06AC078F06BC079F09A0E34
:1038D00000017A6F990E7B6F990E7C6F440E7D6F9D
:1038E000F2EC17F00001D8B078EF1CF07AEF1CF082
:1038F00089EF1CF0000EDD6F000EDC6F000E696FAB
:10390000000E686F030E6A6F31EC14F0010E8AEF3F
:103910001CF0000E1200000E0001696F000E686FAF
:10392000030E6A6F31EC14F0000E276E4B0E266EFC
:10393000000E0001726F000E716F190E2626000E28
:10394000272226C062F027C063F0EEEC18F0000ECC
:10395000316E3150D8B4AFEF1CF0B1EF1CF0A9EFCD
:103960001CF00001714B722B72BFC0EF1CF0725142
:1039700009E1060E715DD8A0C0EF1CF0C2EF1CF08B
:103980009DEF1CF0000E316E190E3164CAEF1CF071
:10399000CCEF1CF0C4EF1CF0120022C126F123C1B1
:1039A00027F1000E0001CF6F000ECE6FEBEF1CF081
:1039B00020C19BF021C19CF0260E9D6F010E9E6FD1
:1039C00024C19FF025C1A0F09AEC10F000019B519A
:1039D000CE279C51CF2360009BF4F6FF60009FF43C
:1039E000F7FFF86A0800F5500009D8A4FAEF1CF0B8
:1039F000FCEF1CF0D8EF1CF0CEC020F1CFC021F1BD
:103A00001200206E4050D8B408EF1DF00AEF1DF0F0
:103A100002EF1DF0390193B910EF1DF012EF1DF008
:103A200017EF1DF0600083F0EAFD2DEF1DF0939974
:103A3000BE0E3924D96EDA6A000EDA22600083F0F5
:103A4000DFFF392A070E396428EF1DF02AEF1DF039
:103A50002CEF1DF0000E396E400693891200000E07
:103A60003E01DE6F000EDF6F000EE06F000EE16FB3
:103A7000000EE46F000EE56F000EEA6F000EEC6FB3
:103A8000000EF16F580EF36F020EF46F000EF56F1B
:103A9000000EF66F000EF76F000EF96F000EFA6F52
:103AA000000EFB6F000EFC6F000EFD6F000EFE6F30
:0A3AB0001F0EFF6F840EF86F120066
:103ABC003901A19F3F0118510001CA6F3F011951F3
:103ACC000001CB6F3F011A510001CC6FCD6B3C0153
:103ADC0060AB73EF1DF075EF1DF07EEF1DF0010E66
:103AEC000001C627000EC723C823C92387EF1DF08A
:103AFC00FF0E0001C627FF0EC723FF0EC823FF0EC3
:103B0C00C92311006F0060FF17F06F00E8FF18F079
:103B1C006F00ECFF19F00001FC51FD11D8B499EFC6
:103B2C001DF09BEF1DF0A7EF1DF002D8A7EF1DF0C5
:103B3C000500FA6EFC51FD6EFD51FE6EFF6AFA50E7
:103B4C001200600067F0FBFF600063F0FAFF60009A
:063B5C005FF0D8FF11002C
:103B64006F0060FF1AF06F00E8FF1BF06F00ECFFBE
:103B74001CF00001FE51FF11D8B4C3EF1DF0C5EFD6
:103B84001DF0D1EF1DF002D8D1EF1DF00500FA6E43
:103B9400FE51FD6EFF51FE6EFF6AFA501200600086
:103BA40073F0FBFF60006FF0FAFF60006BF0D8FF6A
:023BB4001100FE
:103BB8006F0060FF1DF06F00E8FF1EF06F00ECFF64
:103BC8001FF03901A7912A4A2B2A2B5009E10A0E26
:103BD8002A5CD8A0F2EF1DF0F4EF1DF0FAEF1DF00B
:103BE800A7EC20F0000E2B6E000E2A6E60007FF00E
:103BF800FBFF60007BF0FAFF600077F0D8FF110050
:103C0800D28A000ED2BE010E206ED29E550ED46E00
:103C1800AA0ED46ED490000ED76E000ED66E080E83
:103C2800D56E550ED46EAA0ED46ED48020B002D0B4
:103C3800D29E01D0D28E390183998397818F818B4F
:103C4800818D8A81888F8791898312006F00E8FFB0
:103C580003F06F00ECFF04F03901A9936F00D0FD69
:103C680005F06F00D4FD06F005C001F006C002F0B3
:103C780002D849EF1EF00500FA6E0001F451FD6EFE
:103C8800F551FE6EFF6AFA501200600013F0FBFF58
:103C980060000FF0FAFF11006F00E8FF09F06F00F5
:103CA800ECFF0AF03901AA916F00C0FD0BF06F001C
:103CB800C4FD0CF00BC007F00CC008F002D86FEF81
:103CC8001EF00500FA6E0001F251FD6EF351FE6E12
:103CD800FF6AFA50120060002BF0FBFF600027F02B
:103CE800FAFF110004EC1EF051EC21F0CAEC19F0B7
:103CF800D1EC21F090EC20F02FEC1DF0BEEC20F080
:103D080031EC20F0A1EC21F085EC21F0B9EC21F0A8
:103D180079EC20F0D4EC20F08EEC1FF0C5EC21F00B
:103D28009BEC1EF0ADEC21F056EC1BF01200C00E1F
:103D38009B6E000E9C6E050E9D6E000E996E000E19
:103D4800986E3901A89D98506F0064FE60F00001DC
:103D5800616B60C061F0606B6011F06F6151F16F71
:103D68003901A89F988F260E206E430E216E02EC13
:103D780022F0030E9A6E12006F00E8FF15F06F0034
:103D8800ECFF16F03901A89F0001EE51EF11D8B4ED
:103D9800D0EF1EF0D2EF1EF0DEEF1EF002D8DEEFFD
:103DA8001EF00500FA6EEE51FD6EEF51FE6EFF6AD1
:103DB800FA50120060005BF0FBFF600057F0FAFF5A
:023DC8001100E8
:103DCC003901A19D3F0115513A6E16513B6E1751A9
:103DDC003C6E3D6A3C0160ABF6EF1EF0F8EF1EF056
:103DEC0001EF1FF0010E0001C627000EC723C823E8
:103DFC00C9230AEF1FF0FF0E0001C627FF0EC723D1
:103E0C00FF0EC823FF0EC9231100000E00016F6FB7
:103E1C00000E6E6F1EEF1FF06DC060F0616B6BC01B
:103E2C0062F06CC063F0F5EC1BF000016E4B6F2B75
:103E3C006E516925D96E6F516A21DA6EDF506D6F44
:103E4C006D51D8A42CEF1FF02EEF1FF012EF1FF0C6
:103E5C001200080E406035EF1FF037EF1FF04EEFE9
:103E6C001FF0BE0E3824D96EDA6A000EDA22DF504B
:103E7C003D01EA6F382A070E386447EF1FF049EF0F
:103E8C001FF04BEF1FF0000E386E402A50EF1FF062
:103E9C003901939912000001626F60008BF1F1FE01
:103EAC003E01F88FF89DF881F8B15FEF1FF061EFDC
:103EBC001FF05AEF1FF0F0510001616F606B3E0173
:103ECC00EF5100016025206E3E01000E00016121C2
:103EDC00216E120020C060F021C061F078EF1FF05D
:103EEC00204A212A600083F0D9FF600087F0DAFFB6
:103EFC00DF50D8A484EF1FF086EF1FF076EF1FF091
:103F0C0000016051205C206E61512158216E12001D
:103F1C00000EA76E000EA86E050EA96E000EA56E03
:103F2C00000EA46E3901A69DA4506F0094FE20F0E3
:103F3C00216A20C021F0206A20100001EC6F215072
:103F4C00ED6F010EA66E120000EE00F1200EEE6A6F
:103F5C00E806FDE100EEAEF03C0EEE6AE806FDE18F
:103F6C0000EE22F01E0EEE6AE806FDE1080ED56E9C
:103F7C00000ED66E000ED76E000175EF21F020C03A
:103F8C0060F021C061F00001D89061336033D890AB
:103F9C00613360336051696E20C060F0030E6017AE
:103FAC00060E616FD8906037612FD8EF1FF060510B
:103FBC00686E120020C060F021C061F00001D89042
:103FCC0061336033D8906133603360516D6E20C0C3
:103FDC0060F0030E6017060E616FD8906037612F8A
:103FEC00F3EF1FF060516C6E120020C060F021C026
:103FFC0061F00001D89061336033D8906133603345
:10400C006051616E20C060F0030E6017060E616F88
:10401C00D8906037612F0EEF20F06051606E120067
:10402C0020C060F021C061F00001D8906133603392
:10403C00D890613360336051656E20C060F0030E20
:10404C006017060E616FD8906037612F29EF20F052
:10405C006051646E1200800E3F011E6F420E1F6F86
:10406C00000E206F040E216F000E236F000E226FC6
:10407C00010E1D6F1C691B693901918B918F918DFC
:10408C003F011F8F1200CDAE4EEF20F050EF20F00D
:10409C0056EF20F001C0E8F002C0E9F060EF20F02C
:1040AC000001E851015C2E6EE95102582F6ED89038
:1040BC002F322E321200CDAC66EF20F068EF20F0DC
:1040CC006EEF20F007C0E6F008C0E7F078EF20F0C4
:1040DC000001E651075C2C6EE75108582D6ED89004
:1040EC002D322C321200830E726E000E736E000E87
:1040FC00716E000E706EC20E206E400E216E0CECB6
:10410C0022F03F015E513F0B80095E6F3901AA918D
:10411C009A811200830E766E000E776E000E756E0D
:10412C00000E746E920E206E400E216E11EC22F079
:10413C003F015E51CF0B20095E6F3901A993998322
:10414C0012000001EA51EB11D8B4AFEF20F0B1EF3F
:10415C0020F0BDEF20F002D8BDEF20F00500FA6E84
:10416C00EA51FD6EEB51FE6EFF6AFA50120012001E
:10417C00010EA26E000EA16E000EA36EF90E9F6EC4
:10418C00000E9E6E3901A79197813A0E206E440E57
:10419C00216E07EC22F0E00EA06E1200000E3C0126
:1041AC00616F030E626F020E636F000E646F000E80
:1041BC00656F020E666F080E676F000E686F000E5B
:1041CC00696F850E606F1200B60E3724D96EDA6AED
:1041DC00000EDA226F00A3F7DFFF372A070E3764D1
:1041EC00FAEF20F0FCEF20F0FEEF20F0000E376E1F
:1041FC00352A12009AA405EF21F007EF21F010EFF9
:10420C0021F09A900E50996E600037F098FF9A80CA
:10421C0015EF21F00E50996E600037F098FF1200E8
:10422C002A0E01012C6F010E2D6F000E206F000E57
:10423C00216F28C122F129C123F12C0E246F010E0C
:10424C00256FCDEC1CF012003901A19B000E3A6ECB
:10425C00000E3B6E000E3C6E000E3D6E000E00011B
:10426C00CA6F000ECB6F000ECC6F000ECD6F11001D
:10427C00220E51EC1FF020C024F021C025F0360E88
:10428C000101286F100E296F24C02AF125C02BF1D3
:10429C0016EC21F01200000E3901C06F000EC16F38
:1042AC00000EC26F000EC36F000EC46F000EC56F00
:1042BC00000EC66F000EC76F12009A826F0060FE70
:1042CC0014F06F0064FE13F013500F6E1450116E47
:1042DC000FC012F011C00DF012C00EF0120076ECEF
:1042EC001EF0D28ED28C320E206E440E216E07EC54
:1042FC0022F006EC15F07FEF21F057EF00F0050EE1
:10430C00AE6E000EAD6E000EAF6EAB68000EAA6EF8
:10431C003901A495B00EAC6E120063EC21F00DC007
:10432C003EF00EC03FF0D8903F323E32DDEC21F033
:10433C003901A89F1200800E626E000E616E000E95
:10434C00606E3F015F513F0B80095F6F1200800E62
:10435C00666E000E656E000E646E3F015F51CF0BF2
:10436C0020095F6F1200800E6A6E590E696E400E46
:10437C00686E3F015F51F30B04095F6F1200800EF2
:10438C006E6E590E6D6E400E6C6E3F015F51FC0BE4
:10439C0001095F6F1200600E3901D96F000EDB6FDF
:1043AC00000EDD6F080EDF6F000EDE6F1200F0C026
:1043BC000DF0F1C00EF000EC21F01200216E215036
:1043CC0001EC1DF0120020C0FCF021C0FDF0120029
:1043DC0020C0FEF021C0FFF0120020C0F8F021C078
:1043EC00F9F0120020C0FAF021C0FBF0120020C03E
:1043FC00F6F021C0F7F0120020C0EEF021C0EFF073
:10440C00120020C0EAF021C0EBF0120020C0F2F044
:10441C0021C0F3F0120020C0F4F021C0F5F012001E
:10442C00EAEC20F01200312A1200120012001200E5
:02443C0011006D
:020000040030CA
:0A0000008CFFFFFF9FFFFFFFFFFFD3
:00000001FF
