:0400000057EF00F0C6
:100008008517851785178517851785178517851708
:100018008517851785178517851712176215151502
:1000280085178517851785178517851785178517E8
:10003800851785178517D615C71585178517851749
:1000480085178517851785172B0085178517851739
:1000580085178517851785178517851785178517B8
:1000680085178517851785178517851785178517A8
:100078000F1685172B008517851785172B002B0062
:100088002B002B002B002B002B002B008517A11613
:1000980085177A16851785172B002B002B002B0048
:0A00A80087168517FF003AEF2CF0D1
:10100000004F7574207C20644C3D202564207C209A
:1010100064523D20256400437572766554696D65A0
:101020003A2025640A0020202043757276655269B3
:101030006768740A0053746F702052657665727326
:10104000650A005265766572736552696774680A4D
:101050000020202043757276654C6566740A005244
:101060006576657273654C6566740A0052696768D7
:1010700074204F7574210A0046726F6E74204F758C
:1010800074210A00416674657243757276650A00C0
:101090004C656674204F7574210A0042566F6C745B
:1010A0003A2025660A004F757443757276650A000A
:1010B000496E43757276650A00494E46004E414EB0
:0D10C00000696E66006E616E006C660000D7
:1010CE00000E0001AA6F000EA96F85C0BBF086C08E
:1010DE00BCF087C0BDF088C0BEF0BEBF7BEF08F08D
:1010EE0079EF08F091EF08F0000EAA6F010EA96FCC
:1010FE00BBC014F0BCC015F0BDC016F0BEC017F0DA
:10110E00E5EC2BF014C0BBF015C0BCF016C0BDF062
:10111E0017C0BEF0000E0001C26F000EC16FE5C019
:10112E00ADF0E6C0AEF0A951AA11D8A4A1EF08F017
:10113E00A3EF08F0AAEF08F03CA4A8EF08F0AAEF7E
:10114E0008F0C4EF08F0A951AA11D8A4B1EF08F025
:10115E00B3EF08F0B9EF08F0000E906F2B0E8F6F03
:10116E00BDEF08F0000E906F2D0E8F6F8FC03AF10D
:10117E00C14BC22BAD07D8A0AE07BBC014F0BCC08C
:10118E0015F0BDC016F0BEC017F028EC24F0140404
:10119E001510D8A4D5EF08F0D7EF08F02EEF09F010
:1011AE00BF0E00018A6FFF0E8B6F89518C6F8D6B96
:1011BE008A518C278B518D238D510AE11A0E8C5D2D
:1011CE00D8A0ECEF08F0EFEF08F0010EF0EF08F00A
:1011DE00000E916F926B91519211D8B4F9EF08F005
:1011EE00FBEF08F009EF09F03A0EC125146E010E5F
:1011FE00C221156EB90E166E100E176E69EC29F01F
:10120E0015EF09F03A0EC125146E010EC221156EAE
:10121E00C10E166E100E176E69EC29F00001FD0E50
:10122E00AD27FF0EAE2383C026F084C027F03A0E02
:10123E00286E010E296EADC02AF0AEC02BF059EC0F
:10124E0026F026C083F027C084F0BDEF0EF0BBC0A1
:10125E0014F0BCC015F0BDC016F0BEC017F028ECDF
:10126E0024F014501510D8A43FEF09F041EF09F007
:10127E0098EF09F0BF0E00018A6FFF0E8B6F895138
:10128E008C6F8D6B8A518C278B518D238D510AE17A
:10129E001A0E8C5DD8A056EF09F059EF09F0010E29
:1012AE005AEF09F0000E936F946B93519411D8B4CA
:1012BE0063EF09F065EF09F073EF09F03A0EC125FF
:1012CE00146E010EC221156EBD0E166E100E176E27
:1012DE0069EC29F07FEF09F03A0EC125146E010E6C
:1012EE00C221156EC50E166E100E176E69EC29F022
:1012FE000001FD0EAD27FF0EAE2383C026F084C085
:10130E0027F03A0E286E010E296EADC02AF0AEC03F
:10131E002BF059EC26F026C083F027C084F0BDEFE9
:10132E000EF0000E0001C36F000EC46F800EC56F6D
:10133E003F0EC66F000EC06F000EBF6FBBC014F025
:10134E00BCC015F0BDC016F0BEC017F0000E186E72
:10135E00000E196E000E1A6E000E1B6E72EC27F048
:10136E00D8B0BCEF09F0BEEF09F043EF0AF0DDEFA5
:10137E0009F0C3C02AF0C4C02BF0C5C02CF0C6C003
:10138E002DF0000E2E6E000E2F6E200E306E410EC2
:10139E00316EB1EC13F02AC0C3F02BC0C4F02CC0D8
:1013AE00C5F02DC0C6F00001BF4BC02BBBC06DF009
:1013BE00BCC06EF0BDC06FF0BEC070F0000E2E6EE1
:1013CE00000E2F6E200E306E410E316EC3C02AF00D
:1013DE00C4C02BF0C5C02CF0C6C02DF0B1EC13F07C
:1013EE002AC071F02BC072F02CC073F02DC074F0B7
:1013FE00A5EC23F00001D8B007EF0AF009EF0AF0D0
:10140E00C0EF09F029EF0AF0C3C02AF0C4C02BF0D8
:10141E00C5C02CF0C6C02DF0000E2E6E000E2F6E25
:10142E00200E306E410E316ED9EC15F02AC0C3F08D
:10143E002BC0C4F02CC0C5F02DC0C6F00001BF07F4
:10144E00D8A0C007BBC06DF0BCC06EF0BDC06FF0C1
:10145E00BEC070F0C3C071F0C4C072F0C5C073F0EE
:10146E00C6C074F0A5EC23F00001D8A041EF0AF03D
:10147E0043EF0AF00BEF0AF089C01AF01B6A9EECDC
:10148E0029F01A500001B06FB0C0AFF0670EB0195E
:10149E00D8A454EF0AF056EF0AF07CEF0AF03A5057
:1014AE003B10D8A45DEF0AF05FEF0AF063EF0AF08D
:1014BE00000E3B6E010E3A6E3BBE70EF0AF03B50D3
:1014CE0006E13A04D8B06EEF0AF070EF0AF076EF4C
:1014DE000AF0000EAC6F060EAB6F85EF0AF03AC045
:1014EE00ABF03BC0ACF085EF0AF03BBE81EF0AF0EB
:1014FE0083EF0AF070EF0AF076EF0AF0670EB0197C
:10150E00D8A48CEF0AF08EEF0AF0BDEF0AF0C0AF50
:10151E009CEF0AF0FC0EBF5DFF0EC059D8A09AEFEB
:10152E000AF09CEF0AF0BBEF0AF0FF0E8A6FFF0E77
:10153E008B6FABC08CF0ACC08DF08A518C278B5169
:10154E008D23BF518C5D8D51800A8E6FC051800AE4
:10155E008E59D8A0B5EF0AF0B7EF0AF0BBEF0AF03C
:10156E00660EAF6FBDEF0AF0650EAF6FABC0A1F0A8
:10157E00ACC0A2F0670EB019D8A4C8EF0AF0CAEF3B
:10158E000AF0DAEF0AF0660EAF19D8A4D1EF0AF01E
:10159E00D3EF0AF0DCEF0AF0C0BFDAEF0AF0D8EFB3
:1015AE000AF0DCEF0AF0A14BA22B660EAF19D8A4FD
:1015BE00E3EF0AF0E5EF0AF005EF0BF0C0BFECEF3A
:1015CE000AF0EAEF0AF0F8EF0AF0000EC36F000E11
:1015DE00C46F800EC56F3F0EC66F000EC06F000E3B
:1015EE00BF6F670EB019D8B4FFEF0AF001EF0BF022
:1015FE0005EF0BF0BF51A127C051A223000EBA6F09
:10160E00000EB96FBBC0B1F0BCC0B2F0BDC0B3F03C
:10161E00BEC0B4F0C3C0A3F0C4C0A4F0C5C0A5F052
:10162E00C6C0A6F096EF0BF0B1C02AF0B2C02BF0F8
:10163E00B3C02CF0B4C02DF0C3C02EF0C4C02FF038
:10164E00C5C030F0C6C031F0D9EC15F02AC036F066
:10165E002BC037F02CC038F02DC039F09CEC1AF0AE
:10166E0036C0B5F037C0B6F038C0B7F039C0B8F0F4
:10167E00B5C079F0B6C07AF0B7C07BF0B8C07CF0D8
:10168E0021EC23F079C0A7F07AC0A8F0B1C079F0B0
:10169E00B2C07AF0B3C07BF0B4C07CF0C3C02EF001
:1016AE00C4C02FF0C5C030F0C6C031F0B5C02AF0AE
:1016BE00B6C02BF0B7C02CF0B8C02DF0B1EC13F0C3
:1016CE002AC07DF02BC07EF02CC07FF02DC080F0A4
:1016DE00E9EC2AF079C0B1F07AC0B2F07BC0B3F079
:1016EE007CC0B4F0C3C02AF0C4C02BF0C5C02CF02F
:1016FE00C6C02DF0000E2E6E000E2F6E200E306E18
:10170E00410E316ED9EC15F02AC0C3F02BC0C4F0D7
:10171E002CC0C5F02DC0C6F00001B94BBA2BA1519B
:10172E00B95DBA51800A8A6FA251800A8A59D8A02F
:10173E00A3EF0BF0A5EF0BF01BEF0BF0C3C02AF0DD
:10174E00C4C02BF0C5C02CF0C6C02DF0000E2E6EFE
:10175E00000E2F6EA00E306E400E316EB1EC13F0F7
:10176E002AC0B5F02BC0B6F02CC0B7F02DC0B8F023
:10177E00B1C06DF0B2C06EF0B3C06FF0B4C070F017
:10178E00B5C071F0B6C072F0B7C073F0B8C074F0E7
:10179E00A5EC23F00001D8B0D7EF0BF0D9EF0BF08A
:1017AE00E3EF0BF0000EB56F000EB66F000EB76FC5
:1017BE00000EB86F0CEF0CF0B1C014F0B2C015F003
:1017CE00B3C016F0B4C017F0B5C018F0B6C019F01B
:1017DE00B7C01AF0B8C01BF072EC27F0D8A0FAEF21
:1017EE000BF0FCEF0BF00CEF0CF00001A7B102EFC9
:1017FE000CF004EF0CF00CEF0CF0000EB56F000EB9
:10180E00B66F000EB76F000EB86FBBC06DF0BCC0E8
:10181E006EF0BDC06FF0BEC070F0B5C071F0B6C056
:10182E0072F0B7C073F0B8C074F050EC11F06DC028
:10183E00B1F06EC0B2F06FC0B3F070C0B4F0B1C012
:10184E006DF0B2C06EF0B3C06FF0B4C070F0000EA9
:10185E002E6E000E2F6E200E306E410E316EA3C016
:10186E002AF0A4C02BF0A5C02CF0A6C02DF0B1EC30
:10187E0013F02AC071F02BC072F02CC073F02DC083
:10188E0074F0A5EC23F00001D8A050EF0CF052EF4D
:10189E000CF07AEF0CF0BF4BC02BA3C02AF0A4C003
:1018AE002BF0A5C02CF0A6C02DF0000E2E6E000E53
:1018BE002F6E200E306E410E316EB1EC13F02AC039
:1018CE00A3F02BC0A4F02CC0A5F02DC0A6F0660E80
:1018DE000001AF19D8A476EF0CF078EF0CF07AEF88
:1018EE000CF0A14BA22BA3C0C3F0A4C0C4F0A5C0A2
:1018FE00C5F0A6C0C6F0650EAF19D8B489EF0CF0CE
:10190E008BEF0CF091EF0CF0BFC09FF0C0C0A0F0B9
:10191E0095EF0CF0000EA06F000E9F6F000E9E6FE5
:10192E00000E9D6F000E9C6F000E9B6F000EBA6F27
:10193E00000EB96F91EF0DF0B1C02AF0B2C02BF0CE
:10194E00B3C02CF0B4C02DF0C3C02EF0C4C02FF025
:10195E00C5C030F0C6C031F0D9EC15F02AC036F053
:10196E002BC037F02CC038F02DC039F09CEC1AF09B
:10197E0036C0B5F037C0B6F038C0B7F039C0B8F0E1
:10198E00B5C079F0B6C07AF0B7C07BF0B8C07CF0C5
:10199E0021EC23F079C0A7F07AC0A8F03CB8DAEFBA
:1019AE000CF0DCEF0CF0FAEF0CF00001A751A811CF
:1019BE00D8A4E4EF0CF0E6EF0CF0FAEF0CF0670EA3
:1019CE00B019D8A4EDEF0CF0EFEF0CF0FAEF0CF02D
:1019DE00A0BFF6EF0CF0F4EF0CF0FAEF0CF09B4B0F
:1019EE009C2B45EF0DF000019D519E11D8A402EFE6
:1019FE000DF004EF0DF02EEF0DF0A0BF0BEF0DF07C
:101A0E0009EF0DF02EEF0DF03A0EC125D96E010E35
:101A1E00C221DA6E2E0EDF6EC14BC22BAD07D8A0DF
:101A2E00AE07000E9E6F010E9D6F2EEF0DF03A0E5B
:101A3E00C125D96E010EC221DA6E300EDF6EC14B9A
:101A4E00C22BAD07D8A0AE079B07D8A09C079B5111
:101A5E009C11D8A435EF0DF037EF0DF01EEF0DF001
:101A6E003A0EC125D96E010EC221DA6EA751300F82
:101A7E00DF6EC14BC22BAD07D8A0AE07B1C079F057
:101A8E00B2C07AF0B3C07BF0B4C07CF0C3C02EF00D
:101A9E00C4C02FF0C5C030F0C6C031F0B5C02AF0BA
:101AAE00B6C02BF0B7C02CF0B8C02DF0B1EC13F0CF
:101ABE002AC07DF02BC07EF02CC07FF02DC080F0B0
:101ACE00E9EC2AF079C0B1F07AC0B2F07BC0B3F085
:101ADE007CC0B4F0C3C02AF0C4C02BF0C5C02CF03B
:101AEE00C6C02DF0000E2E6E000E2F6E200E306E24
:101AFE00410E316ED9EC15F02AC0C3F02BC0C4F0E4
:101B0E002CC0C5F02DC0C6F000019F07D8A0A007BD
:101B1E00B94BBA2BA151B95DBA51800A8A6FA25145
:101B2E00800A8A59D8B09EEF0DF0A0EF0DF0AEEFFF
:101B3E000DF0C2BFACEF0DF0C25109E14B0EC15D0D
:101B4E00D8A0ACEF0DF0AEEF0DF0A3EF0CF09D5161
:101B5E009E11D8A4B5EF0DF0B7EF0DF0C8EF0DF054
:101B6E003CA8BCEF0DF0BEEF0DF0C8EF0DF03A0E35
:101B7E00C125D96E010EC221DA6E2E0EDF6EC14B5B
:101B8E00C22B3A0EC125D96E010EC221DA6E000E9D
:101B9E00DF6E650EAF19D8A4D7EF0DF0D9EF0DF0AB
:101BAE00ABEF0EF0000EBA6F4F0EB96F3A0EB925AD
:101BBE00D96E010EBA21DA6E000EDF6E000EAA6F1C
:101BCE00000EA96FC0BFF0EF0DF0EEEF0DF0F8EFC5
:101BDE000DF0000EAA6F010EA96FBF6DC01FD8B019
:101BEE00C02B000EAC6F020EAB6F29EF0EF0B907D3
:101BFE00D8A0BA073A0EB925D96E010EBA21DA6EFF
:101C0E00BFC014F0C0C015F0000E176E0A0E166E8F
:101C1E001AEC27F01450300FDF6EBFC014F0C0C0A6
:101C2E0015F0000E176E0A0E166EF7EC25F014C0A6
:101C3E00BFF015C0C0F00001AB07D8A0AC07AD07D0
:101C4E00D8A0AE07BF51C011D8A430EF0EF032EFBE
:101C5E000EF0FEEF0DF0ACBF3FEF0EF0AC5106E113
:101C6E00AB05D8B03DEF0EF03FEF0EF0FEEF0DF0EE
:101C7E00B907D8A0BA07A951AA11D8A449EF0EF0F6
:101C8E004BEF0EF051EF0EF0000E966F2B0E956F80
:101C9E0055EF0EF0000E966F2D0E956F3A0EB9257C
:101CAE00D96E010EBA21DA6E600057F2DFFFAD0772
:101CBE00D8A0AE07B907D8A0BA07BF0E8A6FFF0E1D
:101CCE008B6F89518C6F8D6B8A518C278B518D2325
:101CDE008D510AE11A0E8C5DD8A078EF0EF07BEFD5
:101CEE000EF0010E7CEF0EF0000E996F9A6B99516B
:101CFE009A11D8A485EF0EF087EF0EF08DEF0EF04F
:101D0E00000E986F650E976F91EF0EF0000E986FA4
:101D1E00450E976F3A0EB925D96E010EBA21DA6EBD
:101D2E0060005FF2DFFFAD07D8A0AE073A0EC12507
:101D3E00146E010EC221156E3A0EB925166E010EE5
:101D4E00BA21176E69EC29F083C026F084C027F003
:101D5E003A0E286E010E296EADC02AF0AEC02BF0E1
:101D6E0059EC26F026C083F027C084F012006000E4
:101D7E0027F3D9FF60002BF3DAFF6F007BFFF6FF2E
:101D8E006F0077FFF7FFF86A0800F550250AD8A410
:101D9E00D3EF0EF0D5EF0EF02DEF11F0600027F31C
:101DAE00D9FF60002BF3DAFFDE2A000EDD22000ED3
:101DBE000001E66F000EE56FE5C03CF0E6C03DF0B9
:101DCE003A683B68600027F3D9FF60002BF3DAFF17
:101DDE006F007BFFF6FF6F0077FFF7FFF86A0800D2
:101DEE00F5501A6E1B6A9EEC29F01A500001DF6F37
:101DFE00DF51D8B405EF0FF007EF0FF04FEF0FF0F4
:101E0E00600027F3D9FF60002BF3DAFF6F0078FF35
:101E1E00CDF06F0074FFCEF0010ECD27000ECE2355
:101E2E00600037F3F6FF60003BF3F7FFF86A080037
:101E3E00F5501A6E1B6A9EEC29F01A500001E06FE5
:101E4E00E051D8B42DEF0FF02FEF0FF04FEF0FF052
:101E5E00600027F3D9FF60002BF3DAFF6F0078FFE5
:101E6E00CDF06F0074FFCEF0020ECD27000ECE2304
:101E7E00600037F3F6FF60003BF3F7FFF86A0800E7
:101E8E00F5501A6E1B6A9EEC29F01A500001E16F94
:101E9E00600027F3D9FF60002BF3DAFF6F007BFFA2
:101EAE00F6FF6F0077FFF7FFF86A0800F550640A37
:101EBE00D8B464EF0FF066EF0FF07DEF0FF0600017
:101ECE0027F3D9FF60002BF3DAFF6F007BFFF6FFDD
:101EDE006F0077FFF7FFF86A0800F550690AD8A47B
:101EEE007BEF0FF07DEF0FF0C7EF0FF0600027F3E1
:101EFE00D9FF60002BF3DAFFDE2A000EDD22600030
:101F0E002FF3D9FF600033F3DAFF6F007CFFCDF0C3
:101F1E00020EDE266F007CFFCEF0000EDD2260008A
:101F2E0037F3D9FF60003BF3DAFF6F0078FFD1F093
:101F3E006F0074FFD2F0000ED2BFFF0ED36FD46FBE
:101F4E00D56FD66FD76FD86FC7C060F0C8C061F0BD
:101F5E00D1C062F0D2C063F0D3C064F0D4C065F0DB
:101F6E00D5C066F0D6C067F0D7C068F0D8C069F0AB
:101F7E0029EC19F060C0C7F061C0C8F04FEF11F046
:101F8E00660EDF19D8A4CEEF0FF0D0EF0FF022EFD0
:101F9E0010F0600027F3D9FF60002BF3DAFF6F001B
:101FAE007BFFF6FF6F0077FFF7FFF86A08006F0000
:101FBE00D4FFE2F0600027F3D9FF60002BF3DAFFC5
:101FCE00DE2A000EDD2260002FF3D9FF600033F30E
:101FDE00DAFF6F007CFFCDF0040EDE266F007CFF73
:101FEE00CEF0000EDD22600037F3D9FF60003BF328
:101FFE00DAFF6F0078FFDBF06F0078FFDCF06F0028
:10200E0078FFDDF06F0078FFDEF0C7C083F0C8C048
:10201E0084F0DBC085F0DCC086F0DDC087F0DEC06A
:10202E0088F0E2C089F067EC08F083C0C7F084C086
:10203E00C8F04FEF11F0DF0E146E000E156EC90EC4
:10204E00166E100E176E000E196E020E186EA7EC9D
:10205E0024F014501510D8A437EF10F039EF10F00B
:10206E00ECEF10F0600027F3D9FF60002BF3DAFFDE
:10207E006F0078FFCDF06F0074FFCEF0010E0001FF
:10208E00CD27000ECE23600037F3F6FF60003BF342
:10209E00F7FFF86A08006F00D4FFE2F0BF0ECD6FB5
:1020AE00FF0ECE6F600027F3D9FF60002BF3DAFF2F
:1020BE006F007BFFF6FF6F0077FFF7FFF86A0800EF
:1020CE00F550CF6FD06BCD51CF27CE51D023D051FD
:1020DE000AE11A0ECF5DD8A077EF10F07AEF10F06C
:1020EE00010E7BEF10F0000ED96FDA6BD951DA11B9
:1020FE00D8B484EF10F086EF10F0AAEF10F0600065
:10210E002FF3D9FF600033F3DAFF6F007CFFCDF0C1
:10211E00040EDE266F007CFFCEF0000EDD22600086
:10212E0037F3D9FF60003BF3DAFF6F0078FFDBF087
:10213E006F0078FFDCF06F0078FFDDF06F0078FF46
:10214E00DEF0CCEF10F060002FF3D9FF600033F318
:10215E00DAFF6F007CFFCDF0040EDE266F007CFFF1
:10216E00CEF0000EDD22600037F3D9FF60003BF3A6
:10217E00DAFF6F0078FFDBF06F0078FFDCF06F00A6
:10218E0078FFDDF06F0078FFDEF0020E600027F3BF
:10219E00D9FF60002BF3DAFFDE26000EDD22C7C06A
:1021AE0083F0C8C084F0DBC085F0DCC086F0DDC0F3
:1021BE0087F0DEC088F0E2C089F067EC08F083C0DB
:1021CE00C7F084C0C8F04FEF11F0600027F3D9FFBD
:1021DE0060002BF3DAFF6F007BFFF6FF6F0077FFD7
:1021EE00F7FFF86A0800F550250AD8A401EF11F0A0
:1021FE0003EF11F01DEF11F0600027F3D9FF60001F
:10220E002BF3DAFFDE2A000EDD22000E176E250EEE
:10221E00166EC7C018F0C8C019F019EC28F0000EE1
:10222E000001C86F010EC76F4FEF11F0600027F36A
:10223E00D9FF60002BF3DAFFDE2A000EDD22000E3E
:10224E000001C86F000EC76F4FEF11F0600027F34B
:10225E00D9FF60002BF3DAFF6F007BFFF6FF6F00F4
:10226E0077FFF7FFF86A0800F550166E176AC7C0B9
:10227E0018F0C8C019F019EC28F0600027F3D9FF48
:10228E0060002BF3DAFFDE2A000EDD2216EF11F0CE
:10229E00120000017051800B756F70517025776FB1
:1022AE006FAF5CEF11F05EEF11F05FEF11F0778121
:1022BE007751D8B465EF11F067EF11F07CEF11F0A4
:1022CE007729D8A46DEF11F06FEF11F077EF11F0C1
:1022DE00000E6D6F000E6E6F000E6F6F000E706F42
:1022EE006F8F000E706F84EF11F0000E6D6F000E89
:1022FE006E6F000E6F6F000E706F7451800B766FE5
:10230E0075517619D8B48EEF11F090EF11F091EF60
:10231E0011F0758D74517425766F73AF99EF11F0BE
:10232E009BEF11F09CEF11F076817651D8B4A2EFAD
:10233E0011F0A4EF11F0B9EF11F07629D8A4AAEF9D
:10234E0011F0ACEF11F0B4EF11F0000E716F000E42
:10235E00726F000E736F000E746F738F000E746FBA
:10236E00C1EF11F0000E716F000E726F000E736FE1
:10237E00000E746F7751765DD8B0C8EF11F0CAEFCA
:10238E0011F0F1EF11F075ADCFEF11F0D1EF11F0BB
:10239E00D3EF11F0800E751B77C078F076C077F012
:1023AE0078C076F06DC078F071C06DF078C071F0C5
:1023BE006EC078F072C06EF078C072F06FC078F0B8
:1023CE0073C06FF078C073F070C078F074C070F0A6
:1023DE0078C074F0000E786F775176C036F0376A99
:1023EE00365E000E375A37BE06EF12F0375009E14F
:1023FE001A0E365CD8A006EF12F008EF12F03FEF7F
:10240E0012F06D516E116F117011D8A411EF12F000
:10241E0014EF12F0010E15EF12F0000E786F000E91
:10242E006D6F000E6E6F000E6F6F000E706F76C0C8
:10243E0077F048EF12F078A127EF12F029EF12F0A3
:10244E002FEF12F0D89078310109786F31EF12F03A
:10245E00D89078336DA136EF12F038EF12F039EFD5
:10246E0012F0788F703570336F336E336D33772B88
:10247E007651775DD8A046EF12F048EF12F022EFBA
:10248E0012F075BD4DEF12F04FEF12F08FEF12F00C
:10249E007751D8A455EF12F057EF12F061EF12F00A
:1024AE00000E6D6F000E6E6F000E6F6F000E706F70
:1024BE00B0EF13F071516D2772516E2373516F236C
:1024CE007451702370A16EEF12F070EF12F01CEFCA
:1024DE0013F078A175EF12F077EF12F07DEF12F096
:1024EE00D89078310109786F7FEF12F0D890783359
:1024FE006DA184EF12F086EF12F087EF12F0788F55
:10250E00703570336F336E336D33772B1CEF13F0E2
:10251E0071516D5D72516E5973516F597051800AC0
:10252E00366E7451800A3658D8B0A0EF12F0A2EF72
:10253E0012F0CDEF12F06D51715D366E6E51725913
:10254E00376E6F517359386E70517459396EFF0E64
:10255E0036246D6FFF0E37206E6FFF0E38206F6FB3
:10256E00FF0E3920706F800E751B786D7851D8A4D0
:10257E00C3EF12F0C5EF12F0D5EF12F0010E6D277A
:10258E00000E6E236F237023D5EF12F071516D5F25
:10259E0072516E5B73516F5B7451705B6D516E1146
:1025AE006F117011D8A4DEEF12F0E0EF12F015EFFC
:1025BE0013F07851D8A4E6EF12F0E8EF12F015EF11
:1025CE0013F0000E6D6F000E6E6F000E6F6F000E2B
:1025DE00706FB0EF13F0D8906D376E376F3770376E
:1025EE0078AFFCEF12F0FEEF12F0FFEF12F06D81FC
:1025FE0078A104EF13F006EF13F00AEF13F0D88072
:10260E0078370CEF13F0D89078377751D8B412EFA3
:10261E0013F014EF13F015EF13F077076FAF1AEFF7
:10262E0013F01CEF13F0F2EF12F0000E766F78AF8E
:10263E0023EF13F025EF13F03DEF13F078C036F0D3
:10264E007F0E3616D8B42EEF13F030EF13F034EFB2
:10265E0013F0010E766F3DEF13F06DA139EF13F00D
:10266E003BEF13F03DEF13F030EF13F07651D8B48B
:10267E0043EF13F045EF13F070EF13F0010E6D27DB
:10268E00000E6E236F23702370A150EF13F052EFE4
:10269E0013F070EF13F06DC036F06EC037F06FC0F0
:1026AE0038F070C039F03934393238323732363288
:1026BE0036C06DF037C06EF038C06FF039C070F0B4
:1026CE007729D8B46DEF13F06FEF13F070EF13F0AE
:1026DE00772B7729D8B476EF13F078EF13F080EFDD
:1026EE0013F07751D8A47EEF13F080EF13F092EF32
:1026FE0013F0000E6D6F000E6E6F000E6F6F000EFA
:10270E00706F7751D8A48EEF13F090EF13F092EF15
:10271E0013F0000E756F77A197EF13F099EF13F08A
:10272E009CEF13F06F8F9DEF13F06F9FD890773162
:10273E00706F75AFA5EF13F0A7EF13F0A8EF13F0BE
:10274E00708F6DC06DF06EC06EF06FC06FF070C0A8
:10275E0070F012002D50800B0001606F2D502D2453
:10276E00666F2CAEBDEF13F0BFEF13F0C0EF13F09A
:10277E0066816651D8B4C6EF13F0C8EF13F0DBEFE5
:10278E0013F06629D8A4CEEF13F0D0EF13F0D8EFE4
:10279E0013F0000E2A6E000E2B6E000E2C6E000E25
:1027AE002D6E2C8EE3EF13F0000E2A6E000E2B6EA4
:1027BE00000E2C6E000E2D6E3150800B601B3150B2
:1027CE003124616F30AEEEEF13F0F0EF13F0F1EF56
:1027DE0013F061816151D8B4F7EF13F0F9EF13F0F4
:1027EE000CEF14F06129D8A4FFEF13F001EF14F0F1
:1027FE0009EF14F0000E2E6E000E2F6E000E306ECE
:10280E00000E316E308E14EF14F0000E2E6E000E90
:10281E002F6E000E306E000E316E6151D8B41AEF6D
:10282E0014F01CEF14F024EF14F06651D8A422EF2C
:10283E0014F024EF14F02EEF14F0000E2A6E000E9A
:10284E002B6E000E2C6E000E2D6ED8EF15F0305044
:10285E002A026F00CCFF6BF06F00D0FF6CF06B5153
:10286E00626F636B646B656B6C51676F686B696BE2
:10287E006A6B2F502B026F00CCFF6BF06F00D0FFF6
:10288E006CF06B516227000E6323642365236C5139
:10289E006727000E682369236A232E502C026F00CF
:1028AE00CCFF6BF06F00D0FF6CF06B516227000E07
:1028BE006323642365236C516727000E6823692305
:1028CE006A2364C065F063C064F062C063F0626B3B
:1028DE002E502B026F00CCFF6BF06F00D0FF6CF010
:1028EE006B5162276C516323000E6423000E652327
:1028FE002F502A026F00CCFF6BF06F00D0FF6CF0F0
:10290E006B5162276C516323000E6423000E652306
:10291E0064C065F063C064F062C063F0626B2E50F9
:10292E002A026F00CCFF6BF06F00D0FF6CF06B5182
:10293E0062276C516323000E6423000E6523305012
:10294E002B026F00CCFF6BF06F00D0FF6CF06B5161
:10295E0067276C516823000E6923000E6A232F50DF
:10296E002C026F00CCFF6BF06F00D0FF6CF06B5140
:10297E0067276C516823000E6923000E6A233050BE
:10298E002C026F00CCFF6BF06F00D0FF6CF06B5120
:10299E00326E6C51336E346A356A34C035F033C0E2
:1029AE0034F032C033F0326A325067273350682326
:1029BE003450692335506A2362C032F063C033F05D
:1029CE0064C034F065C035F0190EF3EF14F0D890F2
:1029DE003532343233323232E82EEEEF14F03250DA
:1029EE006727335068233450692335506A2364C0F7
:1029FE0065F063C064F062C063F0626B615166C0E3
:102A0E0032F0336A3226000E3322820E32246B6F7E
:102A1E00FF0E33206C6F29EF15F0D89067376837AB
:102A2E0069376A3765AF1EEF15F020EF15F021EF0D
:102A3E0015F06781D89062376337643765376B0757
:102A4E00D8A06C0769AF2EEF15F030EF15F014EF2C
:102A5E0015F0000E616F65AF37EF15F039EF15F019
:102A6E005DEF15F0FF0E6215326EFF0E6315336EBD
:102A7E00FF0E6415346E7F0E6515356E32503310B1
:102A8E0034103510D8B44EEF15F050EF15F054EF5A
:102A9E0015F0010E616F5DEF15F067A159EF15F09E
:102AAE005BEF15F05DEF15F050EF15F06151D8B4F6
:102ABE0063EF15F065EF15F089EF15F0010E67273E
:102ACE00000E682369236A236AA170EF15F072EF76
:102ADE0015F089EF15F067C032F068C033F069C0A9
:102AEE0034F06AC035F03534353234323332323266
:102AFE0032C067F033C068F034C069F035C06AF098
:102B0E006B4B6C2B6CBF94EF15F06C5108E16B297D
:102B1E00D8A094EF15F096EF15F0A0EF15F0000E7B
:102B2E00676F000E686F800E696F7F0E6A6FCEEF53
:102B3E0015F06CBFADEF15F06C5106E16B05D8B01A
:102B4E00ABEF15F0ADEF15F0B9EF15F0000E676FA6
:102B5E00000E686F000E696F000E6A6F000E606FD8
:102B6E00CEEF15F06BC066F0FF0E6717FF0E6817FD
:102B7E007F0E6917000E6A1766A1C8EF15F0CAEF2F
:102B8E0015F0CBEF15F0698FD89066316A6F6051F2
:102B9E006A1367C02AF068C02BF069C02CF06AC0B7
:102BAE002DF012002D50800B0001646F2D502D243E
:102BBE006B6F2CAEE5EF15F0E7EF15F0E8EF15F0C3
:102BCE006B816B51D8B4EEEF15F0F0EF15F005EF09
:102BDE0016F06B29D8A4F6EF15F0F8EF15F000EF0C
:102BEE0016F0000E2A6E000E2B6E000E2C6E000ECE
:102BFE002D6E2C8E000E2D6E0DEF16F0000E2A6E21
:102C0E00000E2B6E000E2C6E000E2D6E3150800BB2
:102C1E00641B315031246C6F30AE18EF16F01AEF82
:102C2E0016F01BEF16F06C816C51D8B421EF16F034
:102C3E0023EF16F038EF16F06C29D8A429EF16F012
:102C4E002BEF16F033EF16F0000E2E6E000E2F6ED9
:102C5E00000E306E000E316E308E000E316E40EF73
:102C6E0016F0000E2E6E000E2F6E000E306E000E41
:102C7E00316E2E502F1030103110D8A449EF16F0AF
:102C8E004BEF16F063EF16F0000E2A6E000E2B6E51
:102C9E00000E2C6E000E2D6E800E2C127F0E2D123D
:102CAE0064512D122AC02AF02BC02BF02CC02CF010
:102CBE002DC02DF0A6EF17F06B51D8A469EF16F0CA
:102CCE006BEF16F075EF16F0000E2A6E000E2B6EDF
:102CDE00000E2C6E000E2D6EA6EF17F06C516BC011
:102CEE0032F0336A325E000E335A7F0E3224656F35
:102CFE00000E3320666F2AC060F02BC061F02CC02E
:102D0E0062F02DC063F0000E2A6E000E2B6E000EC8
:102D1E002C6E000E2D6E000E676F000E686F000E8B
:102D2E00696F000E6A6F000E6C6FD6EF16F06C5165
:102D3E00D8B4A4EF16F0A6EF16F0BDEF16F0D890AB
:102D4E006037613762376337D8902A362B362C3688
:102D5E002D366AAFB5EF16F0B7EF16F0B8EF16F0E6
:102D6E002A80D8906737683769376A372E50605D8A
:102D7E002F5061593050625931506359D8A0CAEF63
:102D8E0016F0CCEF16F0D5EF16F06A8D2E50605F70
:102D9E002F50615B3050625B3150635B6C2B190EB0
:102DAE006C65DCEF16F0DEEF16F09EEF16F060515C
:102DBE00611162116311D8B4E7EF16F0E9EF16F066
:102DCE0001EF17F0678101EF17F0D8902A362B36F6
:102DDE002C362D366AAFF6EF16F0F8EF16F0F9EF47
:102DEE0016F02A80D8906737683769376A376507D3
:102DFE00D8A066072CAE06EF17F008EF17F0ECEF31
:102E0E0016F0000E6C6F6AAF0FEF17F011EF17F0A0
:102E1E0035EF17F0FF0E6715326EFF0E6815336E25
:102E2E00FF0E6915346E7F0E6A15356E32503310F3
:102E3E0034103510D8B426EF17F028EF17F02CEF1A
:102E4E0017F0010E6C6F35EF17F02AA031EF17F067
:102E5E0033EF17F035EF17F028EF17F06C51D8B4A9
:102E6E003BEF17F03DEF17F061EF17F0010E2A263A
:102E7E00000E2B222C222D222DA048EF17F04AEF08
:102E8E0017F061EF17F02AC032F02BC033F02CC0D0
:102E9E0034F02DC035F035343532343233323232EF
:102EAE0032C02AF033C02BF034C02CF035C02DF0D8
:102EBE00654B662B66BF6CEF17F0665108E165290E
:102ECE00D8A06CEF17F06EEF17F079EF17F0000E39
:102EDE00666F6569000E2A6E000E2B6E000E2C6E4C
:102EEE00000E2D6E66BF86EF17F0665106E1650582
:102EFE00D8B084EF17F086EF17F094EF17F0000EAE
:102F0E00666F000E656F000E2A6E000E2B6E000EA1
:102F1E002C6E000E2D6E000E646F65C06BF06BA1F3
:102F2E009BEF17F09DEF17F0A0EF17F02C8EA1EF8F
:102F3E0017F02C9ED8906B312D6E57EF16F01200B5
:102F4E0001EF19F00001F151F55D0101B06F0001C3
:102F5E00F251F6590101B16F0001EF51F35D01011C
:102F6E00B26F0001F051F4590101B36FB1BFC9EF57
:102F7E0017F0B15109E1290EB05DD8A0C9EF17F0D5
:102F8E00CBEF17F004EF18F0B1BFD9EF17F0B15136
:102F9E0007E1C80EB05DD8B0D7EF17F0D9EF17F034
:102FAE0004EF18F00001F25107E1960EF15DD8B072
:102FBE00E3EF17F0E5EF17F004EF18F0000EF76FE0
:102FCE00010EFB6F040EFC6FF92B010E0101A66FB3
:102FDE00100EA76FB0C1A8F1B1C1A9F1B2C1AAF18B
:102FEE00B3C1ABF110EC2EF0510E0101A66F100E15
:102FFE00A76F10EC2EF020EF19F00101B3BF11EF07
:10300E0018F0B35109E1290EB25DD8A011EF18F0F6
:10301E0013EF18F020EF19F0B3BF21EF18F0B351F2
:10302E0007E1C80EB25DD8B01FEF18F021EF18F00F
:10303E0020EF19F00001F05107E1960EEF5DD8B0C8
:10304E002BEF18F02DEF18F020EF19F0000EF76FA0
:10305E00010EFB6F050EFC6FF82B010E0101A66F22
:10306E00100EA76FB0C1A8F1B1C1A9F1B2C1AAF1FA
:10307E00B3C1ABF110EC2EF0260E0101A66F100EAF
:10308E00A76F10EC2EF020EF19F00001F751D8B415
:10309E0053EF18F055EF18F062EF18F0000EF76FBF
:1030AE00020EFB6FB00E0101A66F100EA76F10EC93
:1030BE002EF020EF19F00001F72B20EF19F0220E61
:1030CE000001F7656DEF18F06FEF18F062EF18F072
:1030DE00040EFC19D8A476EF18F078EF18F083EFF1
:1030EE0018F0F65109E12D0EF55DD8A081EF18F01C
:1030FE0083EF18F0A2EF18F0050EFC19D8A48AEF92
:10310E0018F08CEF18F097EF18F0F45109E12D0E2E
:10311E00F35DD8A095EF18F097EF18F0A2EF18F026
:10312E002D0EFD5D010EFE59D8A0A0EF18F0A2EFF6
:10313E0018F062EF18F0F65107E12D0EF55DD8B0DC
:10314E00ABEF18F0ADEF18F0B6EF18F0900E0101DE
:10315E00A66F100EA76F10EC2EF0D1EF18F0F451F1
:10316E0007E12D0EF35DD8B0BFEF18F0C1EF18F0E8
:10317E00CAEF18F06C0E0101A66F100EA76F10ECBF
:10318E002EF0D1EF18F0780E0101A66F100EA76F7A
:10319E0010EC2EF0170E0101A66F100EA76FF7C0E0
:1031AE00A8F1A96B10EC2EF0000E0001F76F030EC4
:1031BE00FB6F000EFC6F840E0101A66F100EA76F41
:1031CE0010EC2EF062EF18F00001F751D8B4F2EFC8
:1031DE0018F0F4EF18F062EF18F0000EF76F000E13
:1031EE00FB6FA60E0101A66F100EA76F10EC2EF04E
:1031FE0020EF19F00001FB510101AE6FAF6BAF5123
:10320E00000AD8B40DEF19F020EF19F0AE51000AF4
:10321E00D8B4A9EF17F0010AD8B44CEF18F0030A8E
:10322E00D8B466EF18F0010AD8B4EBEF18F020EF1F
:10323E0019F0F5C0F1F0F6C0F2F0F3C0EFF0F4C003
:10324E00F0F0120062C072F063C073F064C074F0EC
:10325E0065C075F066C076F067C077F068C078F02C
:10326E0069C079F0000179BF3FEF19F042EF19F014
:10327E00010E43EF19F0000E706F716B70517111EA
:10328E00D8B44CEF19F04EEF19F05EEF19F0791F2C
:10329E00781F771F761F751F741F731F726D000EB8
:1032AE0073237423752376237723782379233BBEE8
:1032BE0063EF19F065EF19F066EF19F03C923BBE23
:1032CE0073EF19F03B5006E13A04D8B071EF19F0E4
:1032DE0073EF19F079EF19F0000E6D6F010E6C6F30
:1032EE007DEF19F03AC06CF03BC06DF0E5C06EF0AA
:1032FE00E6C06FF070517111D8A488EF19F08AEF03
:10330E0019F091EF19F03CA48FEF19F091EF19F02D
:10331E0094EF19F06E07D8A06F07000E7B6F4F0E5B
:10332E007A6F000E0101896F1AEF1AF07A07D8A092
:10333E007B073A0E7A25D96E010E7B21DA6E72C0AA
:10334E0014F073C015F074C016F075C017F076C087
:10335E0018F077C019F078C01AF079C01BF00A0E79
:10336E001C6E000E1D6E000E1E6E000E1F6E000EE9
:10337E00206E000E216E000E226E000E236E1DECCE
:10338E0020F014C031F015C032F016C033F017C063
:10339E0034F018C035F019C036F01AC037F01BC023
:1033AE0038F031C026F033C027F051EC2BF0265008
:1033BE00300FDF6E00016C07D8A06D076E07D8A026
:1033CE006F0772C014F073C015F074C016F075C09C
:1033DE0017F076C018F077C019F078C01AF079C0DF
:1033EE001BF00A0E1C6E000E1D6E000E1E6E000EE1
:1033FE001F6E000E206E000E216E000E226E000E4D
:10340E00236E59EC1FF014C072F015C073F016C085
:10341E0074F017C075F018C076F019C077F01AC0A6
:10342E0078F01BC079F000017BBF26EF1AF07B51BC
:10343E0008E17A05D8A026EF1AF028EF1AF058EF17
:10344E001AF072517311741175117611771178117A
:10345E007911D8A435EF1AF037EF1AF09DEF19F065
:10346E006DBF44EF1AF06D5106E16C05D8B042EF16
:10347E001AF044EF1AF09DEF19F06FBF4FEF1AF0EC
:10348E006F5108E16E05D8A04FEF1AF051EF1AF008
:10349E0058EF1AF03CB256EF1AF058EF1AF09DEFB3
:1034AE0019F070517111D8A45FEF1AF061EF1AF094
:1034BE0068EF1AF03CA466EF1AF068EF1AF087EF87
:1034CE001AF07A07D8A07B0770517111D8A472EF49
:1034DE001AF074EF1AF07AEF1AF0000E6B6F2B0ED3
:1034EE006A6F7EEF1AF0000E6B6F2D0E6A6F3A0E3A
:1034FE007A25D96E010E7B21DA6E6000ABF1DFFF0B
:10350E0060C026F061C027F03A0E7A25286E010EB3
:10351E007B21296E6EC02AF06FC02BF059EC26F07D
:10352E0026C060F027C061F0120018C179F019C1F1
:10353E007AF01AC17BF01BC17CF036C079F037C02F
:10354E007AF038C07BF039C07CF0810E00016D6FCF
:10355E00FF0E6E6F79C06FF07AC070F07BC071F0A5
:10356E007CC072F0180EC1EF1AF0D890723371331E
:10357E0070336F33E82EBCEF1AF06F516D25776FF5
:10358E00000E6E21786F78BFD6EF1AF0785109E1F0
:10359E00170E775DD8A0D6EF1AF0D8EF1AF0E2EF3B
:1035AE001AF036C036F037C037F038C038F039C0B0
:1035BE0039F0A6EF1BF078BFE7EF1AF0E9EF1AF03B
:1035CE005AEF1BF077C06DF0FF0E6E6FFF0E6F6F30
:1035DE007F0E706F000E716F6D67F8EF1AF000EFCF
:1035EE001BF07135713370336F336E336D2FF3EF14
:1035FE001AF06EC073F06FC074F070C075F071C0C9
:10360E0076F00001735179156D6F74517A156E6FE6
:10361E0075517B156F6F76517C15706F6D516E11F4
:10362E006F117011D8A41EEF1BF020EF1BF022EFCC
:10363E001BF0D8EF1AF079C06DF07AC06EF07BC037
:10364E006FF07CC070F0200E32EF1BF0D89070330C
:10365E006F336E336D33E82E2DEF1BF06D516E11FF
:10366E006F117011D8B43EEF1BF040EF1BF048EF16
:10367E001BF07351792774517A2375517B23765140
:10368E007C23731D6D6F741D6E6F751D6F6F761DB0
:10369E00706F6D5179176E517A176F517B1770518C
:1036AE007C179EEF1BF079C06DF07AC06EF07BC078
:1036BE006FF07CC070F0200E6AEF1BF0D890703364
:1036CE006F336E336D33E82E65EF1BF06D516E1157
:1036DE006F117011D8A476EF1BF078EF1BF082EF0C
:1036EE001BF0000E796F000E7A6F000E7B6F000ECE
:1036FE007C6F9EEF1BF0D89079356D6F7A356E6FBB
:10370E007B356F6F7C35706F6D516E116F1170114F
:10371E00D8B494EF1BF096EF1BF09EEF1BF0000E4B
:10372E00796F000E7A6F800E7B6FBF0E7C6F79C043
:10373E0036F07AC037F07BC038F07CC039F012001A
:10374E00000E0001886F000E876F5DEF1CF0FE51BA
:10375E0009E11F0EFD5DD8A0B7EF1BF0B9EF1BF00E
:10376E00BBEF1BF0000EFC6FEEBFC7EF1BF0EE5170
:10377E0009E1470EED5DD8A0C7EF1BF0C9EF1BF0B6
:10378E00E4EF1BF0EDC087F0EEC088F0FE5107E1CC
:10379E000F0EFD5DD8B0D6EF1BF0D8EF1BF0DEEFAD
:1037AE001BF0FC0E8727FF0E882382EF1CF0FE0E07
:1037BE008727FF0E882382EF1CF0000E886F460EBF
:1037CE00876F82EF1CF0FE5107E11E0EFD5DD8B033
:1037DE00F3EF1BF0F5EF1BF0F7EF1BF0010EFC6F94
:1037EE00FE5109E1AF0EFD5DD8A000EF1CF002EF17
:1037FE001CF04BEF1CF0000E716F800E726F890E75
:10380E00736F430E746FCD0E2E6ECC0E2F6ECC0ECC
:10381E00306E3E0E316E510E836FFF0E846FFDC003
:10382E0085F0FEC086F0835185278451862385C09E
:10383E001CF086C01DF01E6A1F6A000EA7EC1DF05C
:10384E001CC02AF01DC02BF01EC02CF01FC02DF086
:10385E00B1EC13F02AC06DF02BC06EF02CC06FF0DF
:10386E002DC070F050EC11F06DC079F06EC07AF092
:10387E006FC07BF070C07CF021EC23F079C087F034
:10388E007AC088F082EF1CF0010E886F130E876FDE
:10389E0082EF1CF0FF0E886F830E876F82EF1CF095
:1038AE00000E886FC80E876F82EF1CF0FC51836F7D
:1038BE00846B8451000AD8B467EF1CF082EF1CF0C1
:1038CE008351000AD8B4EAEF1BF0010AD8B4AEEF68
:1038DE001BF0030AD8B451EF1CF0010AD8B451EF13
:1038EE001CF0070AD8B457EF1CF0010AD8B457EFF2
:1038FE001CF082EF1CF0000188BF8FEF1CF0910EC0
:10390E00875D010E8859D8A08FEF1CF091EF1CF047
:10391E0095EF1CF0010E886F900E876F88AFA1EFA8
:10392E001CF0060E875DFF0E8859D8B0A1EF1CF073
:10393E00A3EF1CF0A7EF1CF0FF0E886F060E876F2B
:10394E0087C0EDF088C0EEF01200000E00018B6F04
:10395E00000E8A6F27EF1DF083C088F084C089F0B7
:10396E0083C086F084C087F0861F871F864B872B07
:10397E0086C08AF087C08BF048EF1DF083C088F0B8
:10398E0084C089F083C08AF084C08BF048EF1DF0AC
:10399E0083C088F084C089F0000E2E6E000E2F6E4C
:1039AE00A00E306E3F0E316E83C086F084C087F05D
:1039BE00861F871F864B872B86C01CF087C01DF085
:1039CE00000E1DBEFF0E1E6E1F6E010EA7EC1DF02B
:1039DE001CC02AF01DC02BF01EC02CF01FC02DF0F5
:1039EE00D9EC15F02AC079F02BC07AF02CC07BF000
:1039FE002DC07CF021EC23F079C08AF07AC08BF0D8
:103A0E0048EF1DF083C088F084C089F0000E8B6FE4
:103A1E00000E8A6F48EF1DF0000E896F000E886F42
:103A2E0083C08AF084C08BF048EF1DF0000E896FC2
:103A3E00000E886F000E8B6F000E8A6F48EF1DF020
:103A4E008551866F876B8751000AD8B431EF1DF010
:103A5E001DEF1DF08651000AD8B4B3EF1CF0010A19
:103A6E00D8B4C5EF1CF0030AD8B4CFEF1CF0010A8E
:103A7E00D8B409EF1DF0070AD8B413EF1DF01DEFEF
:103A8E001DF0000189BF55EF1DF0895109E1420E6D
:103A9E00885DD8A055EF1DF057EF1DF05DEF1DF0BE
:103AAE00000E896F410E886F6FEF1DF089AF69EFC1
:103ABE001DF0BF0E885DFF0E8959D8B069EF1DF05D
:103ACE006BEF1DF06FEF1DF0FF0E896FBF0E886F4D
:103ADE008BBF7BEF1DF08B5109E1290E8A5DD8A0BB
:103AEE007BEF1DF07DEF1DF083EF1DF0000E8B6F51
:103AFE00280E8A6F95EF1DF08BAF8FEF1DF0D80E4D
:103B0E008A5DFF0E8B59D8B08FEF1DF091EF1DF02F
:103B1E0095EF1DF0FF0E8B6FD80E8A6F600E882505
:103B2E00146E010E8921156E8BEC2CF0650E0001C2
:103B3E008A25146E010E8B21156EA5EC2CF0120049
:103B4E00246E2450D8B4AEEF1DF0B0EF1DF0D2EFBE
:103B5E001DF01FBEB7EF1DF0B5EF1DF0D2EF1DF03B
:103B6E001CC020F01DC021F01EC022F01FC023F08B
:103B7E00201E211E221E231E202A000E212222225A
:103B8E00232220C026F021C027F022C028F023C017
:103B9E0029F0DAEF1DF01CC026F01DC027F01EC064
:103BAE0028F01FC029F01C501D101E101F10D8A485
:103BBE00E3EF1DF0E5EF1DF0EFEF1DF0000E1C6EB4
:103BCE00000E1D6E000E1E6E000E1F6E80EF1EF09C
:103BDE00960E256EF9EF1DF0252AD890293228323F
:103BEE0027322632000E2614206E000E2714216E68
:103BFE00000E2814226EFE0E2914236E2050211062
:103C0E0022102310D8A40EEF1EF010EF1EF0F3EFCB
:103C1E001DF01EEF1EF0252A010E2626000E27226D
:103C2E0028222922D8902932283227322632000E15
:103C3E002614206E000E2714216E000E2814226EFC
:103C4E00FF0E2914236E2050211022102310D8A409
:103C5E0033EF1EF035EF1EF012EF1EF03DEF1EF0AB
:103C6E002506D890263627362836293628BE42EF26
:103C7E001EF044EF1EF04CEF1EF0020E25604AEFD0
:103C8E001EF04CEF1EF037EF1EF025B051EF1EF078
:103C9E0053EF1EF054EF1EF0289ED890253225C00B
:103CAE0020F0216A226A236A20C023F0226A216A48
:103CBE00206A2050261221502712225028122350FB
:103CCE0029122450D8B46EEF1EF070EF1EF078EF6C
:103CDE001EF01FBE77EF1EF075EF1EF078EF1EF090
:103CEE00298E26C01CF027C01DF028C01EF029C04A
:103CFE001FF012000001F351F55D8E6FF451F6596D
:103D0E008F6FB2EF1EF08FBF96EF1EF08F5109E14D
:103D1E001F0E8E5DD8A096EF1EF098EF1EF09EEF50
:103D2E001EF0000E8F6F1E0E8E6F33EF1FF08FAFD3
:103D3E00AAEF1EF0E20E8E5DFF0E8F59D8B0AAEFDD
:103D4E001EF0ACEF1EF0CFEF1EF0FF0E8F6FE20EE7
:103D5E008E6F33EF1FF0FC518C6F8D6B8D51000AFF
:103D6E00D8B4BCEF1EF033EF1FF08C51000AD8B45C
:103D7E008AEF1EF0010AD8B48AEF1EF0050AD8B4F5
:103D8E008AEF1EF0010AD8B48AEF1EF033EF1FF04F
:103D9E0033EF1FF08EC083F08FC084F0020E856F5C
:103DAE00ACEC1CF058EF1FF08EC083F08FC084F087
:103DBE00030E856FACEC1CF058EF1FF0FF0E846FF6
:103DCE00C40E836F000E856FACEC1CF058EF1FF025
:103DDE00000E846F3C0E836F000E856FACEC1CF0F2
:103DEE0058EF1FF0020EFB19D8A400EF1FF002EFE0
:103DFE001FF00CEF1FF0000E846F3C0E836F020E4F
:103E0E00856FACEC1CF058EF1FF0FF0E846FFB0EAD
:103E1E00836F030E856FACEC1CF058EF1FF0020E93
:103E2E00FB19D8A41DEF1FF01FEF1FF029EF1FF095
:103E3E00FF0E846FC40E836F020E856FACEC1CF008
:103E4E0058EF1FF0000E846F050E836F030E856F03
:103E5E00ACEC1CF058EF1FF0FC518C6F8D6B8D513C
:103E6E00000AD8B43DEF1FF058EF1FF08C51000A36
:103E7E00D8B4DBEF1EF0010AD8B4D1EF1EF0030A5E
:103E8E00D8B4E5EF1EF0010AD8B4EFEF1EF0070A22
:103E9E00D8B4F9EF1EF0010AD8B416EF1FF058EFA0
:103EAE001FF01200000E256E23BE62EF1FF060EFB2
:103EBE001FF074EF1FF0231E221E211E201E1F1E38
:103ECE001E1E1D1E1C6C000E1D221E221F222022D5
:103EDE00212222222322010E256E1BBE7BEF1FF014
:103EEE0079EF1FF08DEF1FF01B1E1A1E191E181EE4
:103EFE00171E161E151E146C000E152216221722E2
:103F0E00182219221A221B22010E251A20EE26F043
:103F1E00070EDE6AE806FDE21C501D101E101F1073
:103F2E002010211022102310D8B4A0EF1FF0A2EF02
:103F3E001FF0F4EF1FF0010E246EB0EF1FF0D890BB
:103F4E001C361D361E361F362036213622362336B7
:103F5E00242A23AEB5EF1FF0B7EF1FF0A6EF1FF028
:103F6E00D89026362736283629362A362B362C3642
:103F7E002D361C50145C1D5015581E5016581F50CF
:103F8E001758205018582150195822501A5823509B
:103F9E001B58D8A0D5EF1FF0D7EF1FF0E8EF1FF09A
:103FAE001C50145E1D50155A1E50165A1F50175A8B
:103FBE002050185A2150195A22501A5A23501B5A5F
:103FCE002680D89023322232213220321F321E32E6
:103FDE001D321C32242EB7EF1FF02550D8B4FAEF45
:103FEE001FF0FCEF1FF00CEF20F02D1E2C1E2B1ED1
:103FFE002A1E291E281E271E266C000E2722282266
:10400E0029222A222B222C222D2226C014F027C050
:10401E0015F028C016F029C017F02AC018F02BC0D2
:10402E0019F02CC01AF02DC01BF01200000E256ED8
:10403E001BBE26EF20F024EF20F038EF20F01B1EE1
:10404E001A1E191E181E171E161E151E146C000E93
:10405E00152216221722182219221A221B22010EAD
:10406E00256E23BE3FEF20F03DEF20F04FEF20F006
:10407E00231E221E211E201E1F1E1E1E1D1E1C6CF8
:10408E00000E1D221E221F22202221222222232246
:10409E001C501D101E101F10201021102210231056
:1040AE00D8B45CEF20F05EEF20F0A6EF20F0010E0A
:1040BE00246E6CEF20F0D8901C361D361E361F363F
:1040CE002036213622362336242A23AE71EF20F0F5
:1040DE0073EF20F062EF20F01C50145C1D50155849
:1040EE001E5016581F501758205018582150195846
:1040FE0022501A5823501B58D8A088EF20F08AEF70
:10410E0020F09AEF20F01C50145E1D50155A1E50D0
:10411E00165A1F50175A2050185A2150195A225009
:10412E001A5A23501B5AD89023322232213220326F
:10413E001F321E321D321C32242E73EF20F02550FA
:10414E00D8B4ACEF20F0AEEF20F0BEEF20F01B1E87
:10415E001A1E191E181E171E161E151E146C000E82
:10416E00152216221722182219221A221B2214C0D7
:10417E0014F015C015F016C016F017C017F018C0C1
:10418E0018F019C019F01AC01AF01BC01BF012005B
:10419E0064EC28F022C0EBF023C0ECF00001EB51F0
:1041AE00ED5D856FEC51EE59866F01012C510001CA
:1041BE00EB5D876F01012D510001EC59886F0A0EDE
:1041CE002E6ED70E2F6EA30E306E3C0E316E000E7D
:1041DE00176E020E166E87C014F088C015F0F7EC3D
:1041EE0025F085C083F086C084F014500001835FF3
:1041FE001550845B83C01CF084C01DF0000E1DBEE4
:10420E00FF0E1E6E1F6E010EA7EC1DF01CC02AF0D5
:10421E001DC02BF01EC02CF01FC02DF0B1EC13F002
:10422E002AC079F02BC07AF02CC07BF02DC07CF028
:10423E0021EC23F000017951896F8951800A7D0F9D
:10424E00D8A02CEF21F02EEF21F032EF21F0020E4C
:10425E00896F3EEF21F08951800A820FD8B03AEF74
:10426E0021F03CEF21F03EEF21F0FE0E896F8951D7
:10427E00E927000E89BFFF0EEA23EABF50EF21F0B7
:10428E00BD0EE95D020EEA59D8A050EF21F052EFB3
:10429E0021F058EF21F0020EEA6FBC0EE96F6AEFC3
:1042AE0021F0EAAF64EF21F0700EE95DFE0EEA59DF
:1042BE00D8B064EF21F066EF21F06AEF21F0FE0E28
:1042CE00EA6F700EE96FE9C018F0EAC019F021EC40
:1042DE0025F0EBC02CF1ECC02DF112000001FE51C7
:1042EE0007E10F0EFD5DD8B07FEF21F081EF21F0D9
:1042FE0086EF21F00101344B352B9DEF21F0020E9C
:10430E00FC19D8B48DEF21F08FEF21F09DEF21F045
:10431E00030EFC19D8B496EF21F098EF21F09DEF23
:10432E0021F0000E0101356F000E346F0101355181
:10433E0009E1330E345DD8A0A7EF21F0A9EF21F0EB
:10434E000CEF22F02A4B2B2B020E0001FC19D8B4D5
:10435E00B3EF21F0B5EF21F0DFEF21F0030EFC19E2
:10436E00D8B4BCEF21F0BEEF21F0DFEF21F0F55114
:10437E00F35DF651F459D8B0C7EF21F0C9EF21F033
:10438E00D5EF21F0430E0101A66F100EA76F10ECB2
:10439E002EF0020E0001FC6FDFEF21F05F0E010127
:1043AE00A66F100EA76F10EC2EF0030E0001FC6F1F
:1043BE00FE5107E1240EFD5DD8B0E8EF21F0EAEFE3
:1043CE0021F0F9EF21F001012BBFF7EF21F02D0EB7
:1043DE002A5D010E2B59D8A0F7EF21F0F9EF21F04D
:1043EE000CEF22F0350E0101A66F100EA76F10EC28
:1043FE002EF0000E0001FC6F000E0101356F000E55
:10440E00346F000E2B6F000E2A6F1200000E196E05
:10441E00000E186E21EC25F0000E0001846F000EC8
:10442E00836F030E856FACEC1CF0CBB821EF22F03E
:10443E0023EF22F01CEF22F00001FA51D8B42AEF3C
:10444E0022F02CEF22F023EF22F0000EFA6FF7ECA1
:10445E0028F0E7C01CF0E8C01DF01E6A1F6A000EAF
:10446E00A7EC1DF01CC06DF01DC06EF01EC06FF0ED
:10447E001FC070F0660E0001716F660E726F260E11
:10448E00736F450E746FA5EC23F00001D8A052EFA8
:10449E0022F054EF22F023EF22F0F5C0F1F0F6C037
:1044AE00F2F0F3C0EFF0F4C0F0F0000EFA6F00017E
:1044BE00FA51D8B465EF22F067EF22F05EEF22F0EA
:1044CE00000EFA6FCBBA6EEF22F070EF22F082EF91
:1044DE0022F0000EEE6F000EED6F000EEA6F000E72
:1044EE00E96F000E846F000E836F030E856FACECC8
:1044FE001CF09AEF22F0AEEC28F00009D8B48AEF47
:10450E0022F08CEF22F08EEF22F09AEF22F0A7EC41
:10451E0017F075EC21F081EC1EF0A7EC1BF0CFEC40
:10452E0020F05EEF22F01200000E1D6E1BBEA4EFF7
:10453E0022F0A2EF22F0AEEF22F01B1E1A1E191E61
:10454E00186C000E19221A221B22010E1D6E17BEA8
:10455E00B5EF22F0B3EF22F0BFEF22F0171E161EBA
:10456E00151E146C000E152216221722010E1D1A8E
:10457E00000E1E6E000E1F6E000E206E000E216EBF
:10458E00185019101A101B10D8B4D0EF22F0D2EF19
:10459E0022F008EF23F0010E1C6EDCEF22F0D89013
:1045AE00183619361A361B361C2A1BAEE1EF22F0CE
:1045BE00E3EF22F0D6EF22F0D8901E361F362036CB
:1045CE0021361850145C195015581A5016581B5095
:1045DE001758D8A0F5EF22F0F7EF22F000EF23F0F6
:1045EE001850145E1950155A1A50165A1B50175A55
:1045FE001E80D8901B321A32193218321C2EE3EF5D
:10460E0022F01D50D8B40EEF23F010EF23F018EF68
:10461E0023F0211E201E1F1E1E6C000E1F222022A4
:10462E0021221EC014F01FC015F020C016F021C0AC
:10463E0017F0120000017B357C35826F8251D8A4B1
:10464E002BEF23F02DEF23F037EF23F0000E796FD1
:10465E00000E7A6F000E7B6F000E7C6FA4EF23F0BE
:10466E0079C07DF07AC07EF07BC07FF07CC080F098
:10467E00200E47EF23F0D89080337F337E337D3387
:10468E00E82E42EF23F07D51816F7B8FFF0E79175D
:10469E00FF0E7A17FF0E7B17000E7C17960E825FA9
:1046AE0082BF5EEF23F05CEF23F074EF23F08251B4
:1046BE00800A970FD8B066EF23F068EF23F06AEF09
:1046CE0023F02DEF23F0D8907C337B337A3379337C
:1046DE00823F6AEF23F08CEF23F01F0E82657AEF94
:1046EE0023F07CEF23F084EF23F02DEF23F0D8900E
:1046FE0079377A377B377C3782078251D8A48AEF95
:10470E0023F08CEF23F07EEF23F08151D8B492EF9B
:10471E0023F094EF23F09CEF23F07C1F7B1F7A1F76
:10472E00796D000E7A237B237C2379C079F07AC0D1
:10473E007AF07BC07BF07CC07CF01200000E000192
:10474E006D15366E000E6E15376E800E6F15386E47
:10475E007F0E7015396E3650371038103910D8A4B8
:10476E00BBEF23F0BDEF23F0C5EF23F0000E6D6F0E
:10477E00000E6E6F000E6F6F000E706F000E7115D3
:10478E00366E000E7215376E800E7315386E7F0EF4
:10479E007415396E3650371038103910D8A4DAEF38
:1047AE0023F0DCEF23F0E4EF23F0000E716F000E28
:1047BE00726F000E736F000E746F70AFE9EF23F01F
:1047CE00EBEF23F0F4EF23F06D6D6E1FD8B06E2B70
:1047DE006F1FD8B06F2B800E705774AFF9EF23F0A8
:1047EE00FBEF23F004EF24F0716D721FD8B0722B23
:1047FE00731FD8B0732B800E7457000E6D1B000EF6
:10480E006E1B000E6F1B800E701B000E711B000EB8
:10481E00721B000E731B800E741B71516D5D7251F5
:10482E006E5973516F5974517059D8B021EF24F0ED
:10483E0023EF24F026EF24F0D89027EF24F0D88031
:10484E0012001CC11EF01DC11FF01EC120F01FC1A1
:10485E0021F014C01EF015C01FF016C020F017C0B6
:10486E0021F01EC018F01FC019F020C01AF021C090
:10487E001BF0180E48EF24F0D8901B321A32193262
:10488E001832E82E43EF24F018501C6E1D6A1C508F
:10489E001D10D8A455EF24F057EF24F077EF24F035
:1048AE00D8901E34186E1F34196E20341A6E2134AF
:1048BE001B6E185019101A101B10D8A469EF24F093
:1048CE006BEF24F071EF24F0000E156E020E146ED5
:1048DE00A6EF24F0000E156E030E146EA6EF24F054
:1048EE001C281D10D8A47EEF24F080EF24F0A2EF38
:1048FE0024F01EC018F01FC019F020C01AF021C0FD
:10490E001BF0090ED890183619361A361B36E82EBB
:10491E0089EF24F0185019101A101B10D8B49AEF02
:10492E0024F09DEF24F0010E9EEF24F0000E146E85
:10493E00156AA6EF24F0000E156E040E146E12000A
:10494E0014C01BF015C01CF016C01DF017C01EF0D1
:10495E001806D8A01906182806E11928D8A4BAEF07
:10496E0024F0BCEF24F0C9EF24F0000E156E000EFB
:10497E00146E20EF25F01B4A1C2A1D4A1E2A18060B
:10498E00D8A0190660006FF0D9FF600073F0DAFF4F
:10499E00DF50D8B4D5EF24F0D7EF24F00AEF25F08E
:1049AE00600077F0F6FF60007BF0F7FFF86A080012
:1049BE00F5500009D8B4E6EF24F0E8EF24F00AEF42
:1049CE0025F018501910D8B4EFEF24F0F1EF24F0C1
:1049DE000AEF25F060006FF0D9FF600073F0DAFF88
:1049EE00DF501A6E600077F0F6FF60007BF0F7FF85
:1049FE00F86A0800F5501A18D8B408EF25F00AEF37
:104A0E0025F0C2EF24F060006FF0D9FF600073F064
:104A1E00DAFFDF501A6E600077F0F6FF60007BF071
:104A2E00F7FFF86A0800F5501A5C146E156AD8A0E4
:104A3E001506120019BE2DEF25F0195009E1280EAA
:104A4E00185CD8A02DEF25F02FEF25F04FEF25F0B5
:104A5E0019BE3BEF25F0BD0E185C020E1958D8A0FA
:104A6E003BEF25F03DEF25F041EF25F0020E196EDC
:104A7E00BC0E186E18C014F019C015F0D9EC2CF03D
:104A8E00000E156E000E146EBFEC2CF091EF25F09B
:104A9E0019AE5BEF25F0D90E185CFF0E1958D8B081
:104AAE005BEF25F05DEF25F085EF25F019AE69EF90
:104ABE0025F0700E185CFE0E1958D8B069EF25F06F
:104ACE006BEF25F06FEF25F0FE0E196E700E186E5F
:104ADE00000E156E000E146ED9EC2CF018C01AF0E4
:104AEE0019C01BF01A1E1B1E1A4A1B2A1AC014F0DC
:104AFE001BC015F0BFEC2CF091EF25F0000E156EDB
:104B0E00000E146ED9EC2CF0000E156E000E146E05
:104B1E00BFEC2CF01200000EBE6E000EBD6E240E09
:104B2E00BA6E000EBB6E000EBC6E070EC66EC00EC9
:104B3E00C26EF70EC36EC468C5681F0E3A01706F61
:104B4E006069C00E506F070E806F7F0E406F000EB3
:104B5E00716F000E816F000E516F000E416F000ECF
:104B6E00616F000E5A6F000E5B6F000E6A6F000EC3
:104B7E006B6F000E7A6F000E7B6F000E826F000E51
:104B8E00426F000E526F000E626F000E726F43691D
:104B9E00536963697369070E836F44695469646965
:104BAE0074690F0E846F1F0ECF6F090EDC6F0E0E21
:104BBE00016F0A0EE56F0D0E006F1D0EC96F100E00
:104BCE00046F070ED96F090ED16F0F0E036F130E00
:104BDE000B6F080EDB6F080ED26F1E0ED06F120019
:104BEE00000E196E17BE00EF26F0FEEF25F006EF51
:104BFE0026F0166C171ED8B0172A010E196E15BEA8
:104C0E000DEF26F00BEF26F013EF26F0146C151EA9
:104C1E00D8B0152A010E191A000E1B6E000E1A6E50
:104C2E0016501710D8B41EEF26F020EF26F048EFDE
:104C3E0026F0010E186E28EF26F0D890163617368D
:104C4E00182A17AE2DEF26F02FEF26F024EF26F0C0
:104C5E00D8901A361B361650145C17501558D8A01B
:104C6E003BEF26F03DEF26F042EF26F01650145E95
:104C7E001750155A1A80D89017321632182E2FEF59
:104C8E0026F01950D8B44EEF26F050EF26F054EF20
:104C9E0026F01A6C1B1ED8B01B2A1AC014F01BC0AB
:104CAE0015F012003CA05EEF26F060EF26F06AEFE2
:104CBE0026F028C01FF029C020F026C021F027C002
:104CCE0022F00DEC2BF02BBE6FEF26F071EF26F0DD
:104CDE0077EF26F02AC02FF02BC030F07BEF26F0B6
:104CEE00000E306E000E2F6E000E2E6E000E2D6E0C
:104CFE008DEF26F0000E176E200E166E26C018F0E1
:104D0E0027C019F019EC28F02D4A2E2A2F502D5CB1
:104D1E002E50800A2C6E3050800A2C58D8A09AEF54
:104D2E0026F09CEF26F081EF26F03CB0A1EF26F0A6
:104D3E00A3EF26F0ADEF26F028C01FF029C020F01B
:104D4E0026C021F027C022F00DEC2BF028C014F065
:104D5E0029C015F071EC2BF02F501424266E305014
:104D6E001520276E1200000E4524D96EDA6A010E48
:104D7E00DA22000EDF6E3D01F9A7C8EF26F0CAEF6A
:104D8E0026F0DEEF26F0000E4524D96EDA6A010E0B
:104D9E00DA220101DF8202D8DEEF26F00500FA6E7C
:104DAE009A51FD6E9B51FE6EFF6AFA5012003D0144
:104DBE00F9A3E4EF26F0E6EF26F0FAEF26F0000E68
:104DCE004524D96EDA6A010EDA220101DF8402D897
:104DDE00FAEF26F00500FA6E9851FD6E9951FE6EAF
:104DEE00FF6AFA501200000E4524D96EDA6A010EDF
:104DFE00DA22DF50D8B406EF27F008EF27F017EFCE
:104E0E0027F002D815EF27F00500FA6E0101965132
:104E1E00FD6E9751FE6EFF6AFA50120019EF27F0E1
:104E2E00E4EC2DF01200000E196E15BE23EF27F0E4
:104E3E0021EF27F029EF27F0146C151ED8B0152A94
:104E4E00010E196E17BE30EF27F02EEF27F034EF5C
:104E5E0027F0166C171ED8B0172A16501710D8B494
:104E6E003BEF27F03DEF27F061EF27F0010E186EB4
:104E7E0045EF27F0D89016361736182A17AE4AEF98
:104E8E0027F04CEF27F041EF27F01650145C175027
:104E9E001558D8A055EF27F057EF27F05BEF27F006
:104EAE001650145E1750155AD89017321632182E07
:104EBE004CEF27F01950D8B467EF27F069EF27F0C1
:104ECE006DEF27F0146C151ED8B0152A14C014F00F
:104EDE0015C015F01200000E14141C6E000E1514E1
:104EEE001D6E800E16141E6E7F0E17141F6E1C5034
:104EFE001D101E101F10D8A487EF27F089EF27F082
:104F0E0091EF27F0000E146E000E156E000E166E49
:104F1E00000E176E000E18141C6E000E19141D6E66
:104F2E00800E1A141E6E7F0E1B141F6E1C501D1049
:104F3E001E101F10D8A4A6EF27F0A8EF27F0B0EF91
:104F4E0027F0000E186E000E196E000E1A6E000E6F
:104F5E001B6E185014180FE1195015180CE11A5049
:104F6E00161809E11B501718D8B4C0EF27F0C2EF7E
:104F7E0027F0C5EF27F0D890C6EF27F0D8801200A3
:104F8E0039019397740E146E4D0E156ED6EC2EF0ED
:104F9E00390193995E0E146E560E156ED1EC2EF0ED
:104FAE00000E3D01EC6F000EED6F000EEE6F000E69
:104FBE00EF6F000EF06F000EF16FB00EF26F800EFD
:104FCE00F36F000EF46F8A0EF56F000EF66F000E83
:104FDE00F76F000EF86F000EF96F000EFA6F0E0EDF
:104FEE00146E5E0E156EE0EC2EF00C0E146E5E0E50
:104FFE00156EDBEC2EF0060E146E5E0E156EE5ECE5
:10500E002EF0000E426E000E476E000E466E080E1B
:10501E004C6E000E456E000E446E000E436E39014E
:10502E009387120018501910D8B420EF28F022EFF1
:10503E0028F02BEF28F018501910D8A429EF28F0DB
:10504E002BEF28F030EF28F01650CCEC2EF063EF5B
:10505E0028F020EE04F01850D9261950DA22DE502E
:10506E00DE10D8B43DEF28F03FEF28F05AEF28F0CD
:10507E0020EE04F01850D9261950DA2210EE02F064
:10508E001850E1261950E222DE50E65CE650800A06
:10509E001E6EDE50800A1E58D8B058EF28F05AEF18
:1050AE0028F063EF28F020EE02F01850D9261950A0
:1050BE00DA22DE2A000EDD221200000E256E000E10
:1050CE00246E485049104A104B10D8B471EF28F096
:1050DE0073EF28F0A9EF28F03C0160AB79EF28F0D0
:1050EE007BEF28F093EF28F0200E146EA10E156EB4
:1050FE00070E166E000E176E48C018F049C019F054
:10510E004AC01AF04BC01BF09BEC22F014C024F0E6
:10511E0015C025F0A9EF28F0E00E146E5E0E156E88
:10512E00F80E166EFF0E176E48C018F049C019F033
:10513E004AC01AF04BC01BF09BEC22F014C024F0B6
:10514E0015C025F024C022F025C023F01200010165
:10515E00324B332BF50E325D010E3359D8A0BAEF18
:10516E0028F0BCEF28F0F5EF28F0000E336F000E9C
:10517E00326FF7EC28F0E7C01CF0E8C01DF01E6A95
:10518E001F6A000EA7EC1DF01CC06DF01DC06EF066
:10519E001EC06FF01FC070F0660E0001716F660EBC
:1051AE00726F260E736F450E746FA5EC23F000011F
:1051BE00D8B0E4EF28F0E6EF28F0F5EF28F0000E77
:1051CE00EE6F000EED6F000E846F000E836F030EF8
:1051DE00856FACEC1CF0010EF6EF28F0000E1200FD
:1051EE00220E28EC2DF014C0E7F015C0E8F0E7C051
:1051FE001CF0E8C01DF01E6A1F6A000EA7EC1DF021
:10520E001CC02AF01DC02BF01EC02CF01FC02DF0AC
:10521E00CD0E2E6ECC0E2F6ECC0E306E430E316E2A
:10522E00D9EC15F02AC0AEF12BC0AFF12CC0B0F105
:10523E002DC0B1F19B0E0101A66F100EA76FAEC16E
:10524E00A8F1AFC1A9F1B0C1AAF1B1C1ABF110EC97
:10525E002EF01200A2C1E3F0A3C1E4F0000E010192
:10526E00296F000E286F53EF29F0A0C1C7F0A1C11E
:10527E00C8F0E30E0001C96F000ECA6FA4C1CBF0D7
:10528E00A5C1CCF0BEEC0EF00001C75101012827DC
:10529E000001C8510101292360008FF3F6FF600061
:1052AE0093F3F7FFF86A0800F5500009D8A462EFEF
:1052BE0029F064EF29F03CEF29F028C1A0F129C1B3
:1052CE00A1F1120016C01AF017C01BF014C01CF08A
:1052DE0015C01DF01A50186E1B50196E1A4A1B2A53
:1052EE00600063F0F6FF600067F0F7FF000EF86EE7
:1052FE00600073F0D9FF600077F0DAFF1C4A1D2AB8
:10530E000F0EF76403D00800F55007D06F00DBFFD7
:10531E00E9FF6F00DFFFEAFFEF50DF6EDF50D8A42A
:10532E009BEF29F09DEF29F071EF29F01200BF0ECF
:10533E001C6EFF0E1D6E1AC01EF01BC01FF01C50FF
:10534E001E261D501F221F500AE11A0E1E5CD8A0E9
:10535E00B3EF29F0B6EF29F0010EB7EF29F0000EEA
:10536E00206E216A20502110D8B4C0EF29F0C2EF70
:10537E0029F0C9EF29F0200E1A101A6E1B501B6E61
:10538E00CDEF29F01AC01AF01BC01BF01200146EDC
:10539E004C50D8B4D5EF29F0D7EF29F0CFEF29F044
:1053AE00390193B9DDEF29F0DFEF29F0E4EF29F0B1
:1053BE00600053F0EAFDFAEF29F09399100E47249E
:1053CE00D96EDA6A010EDA22600053F0DFFF472A47
:1053DE00070E4764F5EF29F0F7EF29F0F9EF29F002
:1053EE00000E476E4C0693891200000E3E01DE6FD2
:1053FE00000EDF6F000EE06F000EE16F000EE46F27
:10540E00000EE56F000EEA6F000EEC6F000EF16FEE
:10541E00580EF36F020EF46F000EF56F000EF66F5E
:10542E00000EF76F000EF96F000EFA6F000EFB6F95
:10543E00000EFC6F000EFD6F000EFE6F1F0EFF6F55
:10544E00840EF86F12003901A19F3F01185101011E
:10545E00246F3F0119510101256F3F011A510101BE
:10546E00266F276B3C0160AB3FEF2AF041EF2AF02D
:10547E004AEF2AF0010E01012027000E21232223DC
:10548E00232353EF2AF0FF0E01012027FF0E2123C5
:10549E00FF0E2223FF0E23231100D28A000ED2BE4E
:1054AE00010E146ED29E550ED46EAA0ED46ED490EA
:1054BE00000ED76E000ED66E080ED56E550ED46E3B
:1054CE00AA0ED46ED48014B002D0D29E01D0D28E49
:1054DE00390183998397818F818B818D8A81888F02
:1054EE0087918983120054EC2AF038EC2EF092EC5E
:1054FE0025F0B9EC2EF08AEC2DF0FCEC29F0B8EC8E
:10550E002DF05BEC2DF089EC2EF07BEC2EF0A1EC67
:10551E002EF073EC2DF0CEEC2DF001EC2CF0ADEC6A
:10552E002EF09FEC2AF095EC2EF0C7EC27F012002F
:10553E00C00E9B6E000E9C6E050E9D6E000E996E3B
:10554E00000E986E3901A89D98506F0064FE16F0FB
:10555E00176A16C017F0166A16100101906F1750D1
:10556E00916F3901A89F988FD80E146E5C0E156E30
:10557E00EAEC2EF0030E9A6E12003901A19D3F0146
:10558E001551486E1651496E17514A6E4B6A3C01C1
:10559E0060ABD4EF2AF0D6EF2AF0DFEF2AF0010E3F
:1055AE0001012027000E212322232323E8EF2AF0D6
:1055BE00FF0E01012027FF0E2123FF0E2223FF0ED7
:1055CE0023231100000E00017D1B000E7E1B000E1A
:1055DE007F1B800E801B79C06DF07AC06EF07BC091
:1055EE006FF07CC070F07DC071F07EC072F07FC035
:1055FE0073F080C074F050EC11F06DC079F06EC095
:10560E007AF06FC07BF070C07CF01200000E256E39
:10561E00000E246E1EEF2BF023C016F0176A21C069
:10562E0018F022C019F019EC28F0244A252A24502B
:10563E001F24D96E25502020DA6EDF50236E2350A2
:10564E00D8A42CEF2BF02EEF2BF013EF2BF0120033
:10565E00080E4C6035EF2BF037EF2BF04EEF2BF0A2
:10566E00100E4624D96EDA6A010EDA22DF503D01A1
:10567E00EA6F462A070E466447EF2BF049EF2BF0F0
:10568E004BEF2BF0000E466E4C2A50EF2BF03901EB
:10569E009399120027BE5EEF2BF0275006E12604E9
:1056AE00D8B05CEF2BF05EEF2BF06CEF2BF026C03A
:1056BE0028F027C029F0281E291E284A292A28C08A
:1056CE0026F029C027F070EF2BF026C026F027C059
:1056DE0027F0120014C016F015C017F079EF2BF05A
:1056EE00144A152A600053F0D9FF600057F0DAFF14
:1056FE00DF50D8A485EF2BF087EF2BF077EF2BF050
:10570E001650145C146E17501558156E12006F005B
:10571E0060FF11F001019C519D11D8B499EF2BF04F
:10572E009BEF2BF0A7EF2BF002D8A7EF2BF0050085
:10573E00FA6E9C51FD6E9D51FE6EFF6AFA5012007C
:08574E00600047F0D8FF1100D4
:105758006F0060FF12F001019E519F11D8B4B7EF9E
:105768002BF0B9EF2BF0C5EF2BF002D8C5EF2BF0DB
:105778000500FA6E9E51FD6E9F51FE6EFF6AFA504B
:10578800120060004BF0D8FF1100BF0E166EFF0E1E
:10579800176E14C018F015C019F0165018261750B7
:1057A800192219500AE11A0E185CD8A0DEEF2BF066
:1057B800E1EF2BF0010EE2EF2BF0000E146E156AEC
:1057C80012001450151016101710D8B4EEEF2BF065
:1057D800F0EF2BF0F8EF2BF0000E141A000E151A4C
:1057E800000E161A800E171A14C014F015C015F002
:1057F80016C016F017C017F01200000EA76E000EA4
:10580800A86E050EA96E000EA56E000EA46E3901D5
:10581800A69DA4506F0094FE14F0156A14C015F0EC
:10582800146A141001018C6F15508D6F010EA66E4D
:0258380012005C
:10583C006F0060FF13F03901A791404A412A415093
:10584C0009E10A0E405CD8A02EEF2CF030EF2CF0C2
:10585C0036EF2CF0A1EC2DF0000E416E000E406ED8
:10586C0060004FF0D8FF110000EE00F18A0EEE6AD6
:10587C00E806FDE100EEE5F01A0EEE6AE806FDE141
:10588C0000EE3AF0120EEE6AE806FDE1080ED56E57
:10589C00000ED66E000ED76E00015CEF2EF0CDAE72
:1058AC005AEF2CF05CEF2CF062EF2CF001C038F1C9
:1058BC0002C039F16FEF2CF001013851015C00018D
:1058CC00F56F0101395102580001F66FD890F6338B
:1058DC00F5331200CDAC75EF2CF077EF2CF07DEF9B
:1058EC002CF005C036F106C037F18AEF2CF001011F
:1058FC003651055C0001F36F010137510658000168
:10590C00F46FD890F433F333120014C016F015C0B2
:10591C0017F0D89017321632D8901732163216501C
:10592C00696E14C016F0030E1616060E176ED8907C
:10593C001636172E9DEF2CF01650686E120014C000
:10594C0016F015C017F0D89017321632D8901732BF
:10595C00163216506D6E14C016F0030E1616060E87
:10596C00176ED8901636172EB7EF2CF016506C6EAB
:10597C00120014C016F015C017F0D890173216325A
:10598C00D890173216321650616E14C016F0030EF2
:10599C001616060E176ED8901636172ED1EF2CF061
:1059AC001650606E120014C016F015C017F0D89087
:1059BC0017321632D890173216321650656E14C044
:1059CC0016F0030E1616060E176ED8901636172EF6
:0A59DC00EBEF2CF01650646E120081
:1059E8003901A9936F00D0FD03F06F00D4FD04F0D6
:1059F80003C001F004C002F002D80DEF2DF005003D
:105A0800FA6E01019451FD6E9551FE6EFF6AFA50CF
:105A1800120011003901AA916F00C0FD07F06F0054
:105A2800C4FD08F007C005F008C006F002D827EF4B
:105A38002DF00500FA6E01019251FD6E9351FE6E34
:105A4800FF6AFA5012001100186E600063F0F1FE50
:105A58003E01F88FF89DF881F8B135EF2DF037EF5A
:105A68002DF030EF2DF0F051176E166AEF51162415
:0A5A7800146E000E1720156E1200C8
:105A84003901A89F01018E518F11D8B44CEF2DF02C
:105A94004EEF2DF05AEF2DF002D85AEF2DF00500FD
:105AA400FA6E8E51FD6E8F51FE6EFF6AFA5012002F
:105AB4001100800E3F011E6F420E1F6F000E206FFB
:105AC400040E216F000E236F000E226F010E1D6F56
:105AD4001C691B693901918B918F918D3F011F8F37
:105AE4001200830E726E000E736E000E716E000E45
:105AF400706EE00E146E580E156EF4EC2EF03F012D
:105B04005E513F0B80095E6F3901AA919A811200A0
:105B1400830E766E000E776E000E756E000E746E38
:105B2400AA0E146E580E156EF9EC2EF03F015E515C
:105B3400CF0B20095E6F3901A993998312000101EB
:105B44008A518B11D8B4A9EF2DF0ABEF2DF0B7EF3C
:105B54002DF002D8B7EF2DF00500FA6E8A51FD6ED4
:105B64008B51FE6EFF6AFA5012001200010EA26EF3
:105B7400000EA16E000EA36EF90E9F6E000E9E6EB7
:105B84003901A7919781100E146E5E0E156EEFEC1D
:105B94002EF0E00EA06E1200000E3C01616F030EA9
:105BA400626F020E636F000E646F000E656F020E6B
:105BB400666F080E676F000E686F000E696F850EC2
:105BC400606F1200080E4524D96EDA6A010EDA22DB
:105BD4006F00A3F7DFFF452A070E4564F4EF2DF0AD
:105BE400F6EF2DF0F8EF2DF0000E456E432A12006B
:105BF4009AA4FFEF2DF001EF2EF00AEF2EF09A9009
:105C04000A50996E600027F098FF9A800FEF2EF0EB
:105C14000A50996E600027F098FF1200A80E010147
:105C2400AC6F010EAD6F000EA06F000EA16FA6C188
:105C3400A2F1A7C1A3F1AC0EA46F010EA56F31ECC4
:105C440029F012003901A19B000E486E000E496E26
:105C5400000E4A6E000E4B6E000E0101246F000E02
:105C6400256F000E266F000E276F1100000E3901FC
:105C7400C06F000EC16F000EC26F000EC36F000E26
:105C8400C46F000EC56F000EC66F000EC76F120002
:105C94009A826F0060FE10F06F0064FE0FF00F50E8
:105CA4000B6E10500D6E0BC00EF00DC009F00EC03F
:105CB4000AF012007AEC2AF0D28ED28CFC0E146E0A
:105CC4005D0E156EEFEC2EF00DEC22F066EF2EF06B
:105CD40057EF00F04AEC2EF009C0FDF00AC0FEF0C8
:105CE4000001D890FE33FD33C5EC2EF03901A89F96
:105CF4001200050EAE6E000EAD6E000EAF6EAB68F8
:105D0400000EAA6E3901A495B00EAC6E1200800E7E
:105D1400626E000E616E000E606E3F015F513F0BBC
:105D240080095F6F1200800E666E000E656E000EB5
:105D3400646E3F015F51CF0B20095F6F1200800E2C
:105D44006A6E590E696E400E686E3F015F51F30B27
:105D540004095F6F1200800E6E6E590E6D6E400E58
:105D64006C6E3F015F51FC0B01095F6F1200600E06
:105D74003901D96F000EDB6F000EDD6F080EDF6F87
:105D8400000EDE6F120090C109F091C10AF0FAEC26
:105D94002DF01200156E1550CEEC29F0120014C02F
:105DA4009CF115C09DF1120014C09EF115C09FF125
:105DB400120014C098F115C099F1120014C09AF1A0
:105DC40015C09BF1120014C096F115C097F1120092
:105DD40014C08EF115C08FF1120014C08AF115C0E1
:105DE4008BF1120014C092F115C093F1120014C08B
:105DF40094F115C095F112000001FA2B3E4A3F2A96
:0E5E04001200E4EC2DF0120012001200120049
:025E140011007B
:020000040020DA
:10000000FF0FFF0FFF0FFF0FFF0FFF0FFF0FFF0F80
:020000040030CA
:0A0000008CFFFFFF9FFFFFFFFFFFD3
:00000001FF
