:0400000057EF00F0C6
:10000800DB0FDB0FDB0FDB0FDB0FDB0FDB0FDB0F98
:10001800DB0FDB0FDB0FDB0FDB0F600F2E0E6A0D24
:10002800DB0FDB0FDB0FDB0FDB0FDB0FDB0FDB0F78
:10003800DB0FDB0FDB0F940D7F0DDB0FDB0FDB0F0F
:10004800DB0FDB0FDB0FDB0F2B00DB0FDB0FDB0F17
:10005800DB0FDB0FDB0FDB0FDB0FDB0FDB0FDB0F48
:10006800DB0FDB0FDB0FDB0FDB0FDB0FDB0FDB0F38
:10007800A90DDB0F2B00DB0FDB0FDB0F2B002B0099
:100088002B002B002B002B002B002B00DB0F1B0E53
:10009800DB0FD00DDB0FDB0F2B002B002B002B0011
:0A00A800E30DDB0FFF0040EF1DF039
:101000000074656D70434E54204F766572666C6F48
:10101000770042566F6C743A2025750A0000000173
:101020009251800B9B6F925192259D6F91AF1BEF58
:1010300008F01DEF08F01EEF08F09D819D51D8B417
:1010400024EF08F026EF08F03BEF08F09D29D8A424
:101050002CEF08F02EEF08F036EF08F0000E8F6F3F
:10106000000E906F000E916F000E926F918F000E28
:10107000926F43EF08F0000E8F6F000E906F000E1E
:10108000916F000E926F9651800B9C6F9B519C1933
:10109000D8B44DEF08F04FEF08F050EF08F09B8DFB
:1010A000965196259C6F95AF58EF08F05AEF08F0CF
:1010B0005BEF08F09C819C51D8B461EF08F063EFBE
:1010C00008F078EF08F09C29D8A469EF08F06BEFDE
:1010D00008F073EF08F0000E936F000E946F000E8F
:1010E000956F000E966F958F000E966F80EF08F04B
:1010F000000E936F000E946F000E956F000E966FAA
:101100009D519C5DD8B087EF08F089EF08F0B0EFF3
:1011100008F09BAD8EEF08F090EF08F092EF08F02A
:10112000800E9B1B9DC09EF09CC09DF09EC09CF0BD
:101130008FC09EF093C08FF09EC093F090C09EF041
:1011400094C090F09EC094F091C09EF095C091F034
:101150009EC095F092C09EF096C092F09EC096F010
:10116000000E9E6F9D519CC097F0986B975F000E8C
:10117000985B98BFC5EF08F0985109E11A0E975D8A
:10118000D8A0C5EF08F0C7EF08F0FEEF08F08F51C8
:10119000901191119211D8A4D0EF08F0D3EF08F07C
:1011A000010ED4EF08F0000E9E6F000E8F6F000E40
:1011B000906F000E916F000E926F9CC09DF007EF34
:1011C00009F09EA1E6EF08F0E8EF08F0EEEF08F076
:1011D000D8909E3101099E6FF0EF08F0D8909E33B1
:1011E0008FA1F5EF08F0F7EF08F0F8EF08F09E8F09
:1011F00092359233913390338F339D2B9C519D5D6B
:10120000D8A005EF09F007EF09F0E1EF08F09BBD6A
:101210000CEF09F00EEF09F04EEF09F09D51D8A444
:1012200014EF09F016EF09F020EF09F0000E8F6FB0
:10123000000E906F000E916F000E926F6FEF0AF02C
:1012400093518F2794519023955191239651922336
:1012500092A12DEF09F02FEF09F0DBEF09F09EA12D
:1012600034EF09F036EF09F03CEF09F0D8909E31E9
:1012700001099E6F3EEF09F0D8909E338FA143EF96
:1012800009F045EF09F046EF09F09E8F9235923351
:10129000913390338F339D2BDBEF09F093518F5DAA
:1012A00094519059955191599251800A976F965146
:1012B000800A9759D8B05FEF09F061EF09F08CEF21
:1012C00009F08F51935D976F90519459986F915198
:1012D0009559996F925196599A6FFF0E97258F6F76
:1012E000FF0E9821906FFF0E9921916FFF0E9A21AA
:1012F000926F800E9B1B9E6D9E51D8A482EF09F0C9
:1013000084EF09F094EF09F0010E8F27000E90236F
:101310009123922394EF09F093518F5F9451905B46
:101320009551915B9651925B8F5190119111921151
:10133000D8A49DEF09F09FEF09F0D4EF09F09E517A
:10134000D8A4A5EF09F0A7EF09F0D4EF09F0000E3B
:101350008F6F000E906F000E916F000E926F6FEF07
:101360000AF0D8908F379037913792379EAFBBEF06
:1013700009F0BDEF09F0BEEF09F08F819EA1C3EF28
:1013800009F0C5EF09F0C9EF09F0D8809E37CBEF1F
:1013900009F0D8909E379D51D8B4D1EF09F0D3EF22
:1013A00009F0D4EF09F09D0791AFD9EF09F0DBEF19
:1013B00009F0B1EF09F0000E9C6F9EAFE2EF09F06B
:1013C000E4EF09F0FCEF09F09EC097F07F0E97174D
:1013D000D8B4EDEF09F0EFEF09F0F3EF09F0010EEB
:1013E0009C6FFCEF09F08FA1F8EF09F0FAEF09F01C
:1013F000FCEF09F0EFEF09F09C51D8B402EF0AF0CE
:1014000004EF0AF02FEF0AF0010E8F27000E902351
:101410009123922392A10FEF0AF011EF0AF02FEF20
:101420000AF08FC097F090C098F091C099F092C0E8
:101430009AF09A359A3399339833973397C08FF04F
:1014400098C090F099C091F09AC092F09D29D8B4BC
:101450002CEF0AF02EEF0AF02FEF0AF09D2B9D29BA
:10146000D8B435EF0AF037EF0AF03FEF0AF09D519C
:10147000D8A43DEF0AF03FEF0AF051EF0AF0000E5A
:101480008F6F000E906F000E916F000E926F9D5146
:10149000D8A44DEF0AF04FEF0AF051EF0AF0000E1A
:1014A0009B6F9DA156EF0AF058EF0AF05BEF0AF030
:1014B000918F5CEF0AF0919FD8909D31926F9BAF16
:1014C00064EF0AF066EF0AF067EF0AF0928F8FC0C0
:1014D0008FF090C090F091C091F092C092F0120005
:1014E00000017951800B826F79517925886F78AF2F
:1014F0007CEF0AF07EEF0AF07FEF0AF088818851D6
:10150000D8B485EF0AF087EF0AF09AEF0AF088293D
:10151000D8A48DEF0AF08FEF0AF097EF0AF0000ED3
:10152000766F000E776F000E786F000E796F788FF0
:10153000A2EF0AF0000E766F000E776F000E786F44
:10154000000E796F7D51800B821B7D517D25836F4D
:101550007CAFADEF0AF0AFEF0AF0B0EF0AF0838195
:101560008351D8B4B6EF0AF0B8EF0AF0CBEF0AF027
:101570008329D8A4BEEF0AF0C0EF0AF0C8EF0AF042
:10158000000E7A6F000E7B6F000E7C6F000E7D6F79
:101590007C8FD3EF0AF0000E7A6F000E7B6F000E87
:1015A0007C6F000E7D6F8351D8B4D9EF0AF0DBEF6A
:1015B0000AF0E3EF0AF08851D8A4E1EF0AF0E3EF74
:1015C0000AF0EDEF0AF0000E766F000E776F000E56
:1015D000786F000E796F97EF0CF07C5176036F00F7
:1015E000CCFF8DF06F00D0FF8EF08D51846F856B36
:1015F000866B876B8E51896F8A6B8B6B8C6B7B5183
:1016000077036F00CCFF8DF06F00D0FF8EF08D510F
:101610008427000E8523862387238E518927000E79
:101620008A238B238C237A5178036F00CCFF8DF0B3
:101630006F00D0FF8EF08D518427000E8523862306
:1016400087238E518927000E8A238B238C2386C003
:1016500087F085C086F084C085F0846B7A5177036B
:101660006F00CCFF8DF06F00D0FF8EF08D5184277E
:101670008E518523000E8623000E87237B5176032F
:101680006F00CCFF8DF06F00D0FF8EF08D5184275E
:101690008E518523000E8623000E872386C087F097
:1016A00085C086F084C085F0846B7A5176036F0024
:1016B000CCFF8DF06F00D0FF8EF08D5184278E51BE
:1016C0008523000E8623000E87237C5177036F004D
:1016D000CCFF8DF06F00D0FF8EF08D5189278E5199
:1016E0008A23000E8B23000E8C237B5178036F001E
:1016F000CCFF8DF06F00D0FF8EF08D5189278E5179
:101700008A23000E8B23000E8C237C5178036F00FC
:10171000CCFF8DF06F00D0FF8EF08D517E6F8E511B
:101720007F6F806B816B80C081F07FC080F07EC056
:101730007FF07E6B7E5189277F518A2380518B23D6
:1017400081518C2384C07EF085C07FF086C080F0FC
:1017500087C081F0190EB2EF0BF0D890813380333F
:101760007F337E33E82EADEF0BF07E5189277F511A
:101770008A2380518B2381518C2386C087F085C0BA
:1017800086F084C085F0846B835188C07EF07F6BC7
:101790007E27000E7F23820E7E258D6FFF0E7F2118
:1017A0008E6FE8EF0BF0D89089378A378B378C37FC
:1017B00087AFDDEF0BF0DFEF0BF0E0EF0BF089818F
:1017C000D89084378537863787378D07D8A08E071E
:1017D0008BAFEDEF0BF0EFEF0BF0D3EF0BF0000E54
:1017E000836F87AFF6EF0BF0F8EF0BF01CEF0CF008
:1017F000FF0E84157E6FFF0E85157F6FFF0E861519
:10180000806F7F0E8715816F7E517F11801181114E
:10181000D8B40DEF0CF00FEF0CF013EF0CF0010E3D
:10182000836F1CEF0CF089A118EF0CF01AEF0CF08D
:101830001CEF0CF00FEF0CF08351D8B422EF0CF03A
:1018400024EF0CF048EF0CF0010E8927000E8A23DC
:101850008B238C238CA12FEF0CF031EF0CF048EF91
:101860000CF089C07EF08AC07FF08BC080F08CC005
:1018700081F08135813380337F337E337EC089F0C0
:101880007FC08AF080C08BF081C08CF08D4B8E2B96
:101890008EBF53EF0CF08E5108E18D29D8A053EF85
:1018A0000CF055EF0CF05FEF0CF0000E896F000E9E
:1018B0008A6F800E8B6F7F0E8C6F8DEF0CF08EBF5A
:1018C0006CEF0CF08E5106E18D05D8B06AEF0CF08C
:1018D0006CEF0CF078EF0CF0000E896F000E8A6F41
:1018E000000E8B6F000E8C6F000E826F8DEF0CF070
:1018F0008DC088F0FF0E8917FF0E8A177F0E8B1799
:10190000000E8C1788A187EF0CF089EF0CF08AEF9E
:101910000CF08B8FD89088318C6F82518C1389C0DA
:1019200076F08AC077F08BC078F08CC079F0120026
:10193000000E0001AC6F000EAB6F68EF0DF0E851C8
:1019400009E1290EE75DD8A0A8EF0CF0AAEF0CF092
:10195000ACEF0CF0000E366EDEBFB8EF0CF0DE51CF
:1019600009E17E0EDD5DD8A0B8EF0CF0BAEF0CF007
:101970008DEF0DF0DEBFC5EF0CF0DE5108E1DD05A7
:10198000D8A0C5EF0CF0C7EF0CF0D1EF0CF0DDC024
:10199000ABF0DEC0ACF0FE0EAB27FF0EAC238DEF3C
:1019A0000DF0DEBFDCEF0CF0DE5108E1DD05D8A064
:1019B000DCEF0CF0DEEF0CF0F3EF0CF0E85107E198
:1019C000140EE75DD8B0E7EF0CF0E9EF0CF0F3EFA1
:1019D0000CF0DDC0ABF0DEC0ACF0FC0EAB27FF0EB0
:1019E000AC238DEF0DF08DEF0DF0E85107E1280EDF
:1019F000E75DD8B0FEEF0CF000EF0DF002EF0DF058
:101A0000010E366EE85109E1970EE75DD8A00BEFA5
:101A10000DF00DEF0DF056EF0DF0000E936F000E70
:101A2000946F610E956F430E966F000E7A6F000EE5
:101A30007B6F400E7C6F3F0E7D6F6A0EA76FFF0EAF
:101A4000A86FE7C0A9F0E8C0AAF0A751A927A8513C
:101A5000AA23A9C068F0AAC069F06A6B6B6B000E7C
:101A6000ABEC0FF068C076F069C077F06AC078F030
:101A70006BC079F070EC0AF076C08FF077C090F010
:101A800078C091F079C092F00FEC08F08FC09FF011
:101A900090C0A0F091C0A1F092C0A2F0C7EC14F0E9
:101AA0009FC0ABF0A0C0ACF08DEF0DF0000EAC6F9E
:101AB000E10EAB6F8DEF0DF0FF0EAC6F6A0EAB6FEA
:101AC0008DEF0DF0000EAC6FC80EAB6F8DEF0DF00B
:101AD0003650A76FA86BA851000AD8B472EF0DF06A
:101AE0008DEF0DF0A751000AD8B4F5EF0CF0010A04
:101AF000D8B49FEF0CF0030AD8B45CEF0DF0010AE4
:101B0000D8B45CEF0DF0070AD8B462EF0DF0010A0B
:101B1000D8B462EF0DF08DEF0DF00001ACBF9AEF7D
:101B20000DF0910EAB5D010EAC59D8A09AEF0DF0FF
:101B30009CEF0DF0A0EF0DF0010EAC6F900EAB6FAF
:101B4000ACAFACEF0DF0060EAB5DFF0EAC59D8B0EC
:101B5000ACEF0DF0AEEF0DF0B2EF0DF0FF0EAC6F8D
:101B6000060EAB6FABC0DDF0ACC0DEF012000001C2
:101B7000D4BFBDEF0DF0BFEF0DF0C0EF0DF022921E
:101B8000D4BFCDEF0DF0D45106E1D305D8B0CBEFE3
:101B90000DF0CDEF0DF0D3EF0DF0000E8E6F010EB6
:101BA0008D6FD7EF0DF0D3C08DF0D4C08EF0D1C0C3
:101BB0008FF0D2C090F07DC091F07EC092F07FC0D7
:101BC00093F080C094F081C095F082C096F083C0FD
:101BD00097F084C098F0000E9A6F1F0E996F000E58
:101BE00001011F6F6BEF0EF09907D8A09A07000E46
:101BF0009925D96E010E9A21DA6E91C060F092C0DB
:101C000061F093C062F094C063F095C064F096C038
:101C100065F097C066F098C067F00A0E686F000E16
:101C2000696F000E6A6F000E6B6F000E6C6F000E16
:101C30006D6F000E6E6F000E6F6FBAEC16F060C025
:101C400085F061C086F062C087F063C088F064C030
:101C500089F065C08AF066C08BF067C08CF0000127
:101C60008551300FDF6E8D07D8A08E078F07D8A063
:101C7000900791C060F092C061F093C062F094C090
:101C800063F095C064F096C065F097C066F098C0A8
:101C900067F00A0E686F000E696F000E6A6F000E23
:101CA0006B6F000E6C6F000E6D6F000E6E6F000E8E
:101CB0006F6FCEEC15F060C091F061C092F062C021
:101CC00093F063C094F064C095F065C096F066C070
:101CD00097F067C098F0000199519A11D8B473EF4A
:101CE0000EF075EF0EF0A5EF0EF0915192119311D9
:101CF00094119511961197119811D8A482EF0EF0B6
:101D000084EF0EF0F4EF0DF08EBF91EF0EF08E51D8
:101D100006E18D05D8B08FEF0EF091EF0EF0F4EFE5
:101D20000DF090BF9CEF0EF0905108E18F05D8A008
:101D30009CEF0EF09EEF0EF0A5EF0EF022B2A3EF97
:101D40000EF0A5EF0EF0F4EF0DF07BC070F07CC04C
:101D500071F0000E9925726F010E9A21736F8FC07A
:101D600074F090C075F088EC17F070C07BF071C013
:101D70007CF01200600077F2D9FF60007BF2DAFF9E
:101D80006F007BFFF6FF6F0077FFF7FFF86A080030
:101D9000F550250AD8A4CFEF0EF0D1EF0EF087EF63
:101DA0000FF0600077F2D9FF60007BF2DAFFDE2AE5
:101DB000000EDD22000E0001D26F000ED16FD1C0E7
:101DC00022F0D2C023F0D369D469600077F2D9FF42
:101DD00060007BF2DAFF6F007BFFF6FF6F0077FF9A
:101DE000F7FFF86A0800F550750AD8A4FAEF0EF06C
:101DF000FCEF0EF047EF0FF0600077F2D9FF6000C4
:101E00007BF2DAFFDE2A000EDD2260007FF2D9FFCE
:101E1000600083F2DAFF6F007CFFA1F0020EDE2685
:101E20006F007CFFA2F0000EDD22600087F2D9FF78
:101E300060008BF2DAFF6F0078FFA3F06F0074FF91
:101E4000A4F0A3C0A5F0A4C0A6F0A76BA86BA96BD3
:101E5000AA6BAB6BAC6B9BC07BF09CC07CF0A5C04D
:101E60007DF0A6C07EF0A7C07FF0A8C080F0A9C01A
:101E700081F0AAC082F0ABC083F0ACC084F0B7ECB4
:101E80000DF07BC09BF07CC09CF0AAEF0FF06000CF
:101E900077F2D9FF60007BF2DAFF6F007BFFF6FF7D
:101EA0006F0077FFF7FFF86A0800F550250AD8A4FD
:101EB0005CEF0FF05EEF0FF078EF0FF0600077F25D
:101EC000D9FF60007BF2DAFFDE2A000EDD22000E71
:101ED000616F250E606F9BC062F09CC063F0ABEC3D
:101EE00019F0000E00019C6F010E9B6FAAEF0FF01E
:101EF000600077F2D9FF60007BF2DAFFDE2A000E85
:101F0000DD22000E9C6F000E9B6FAAEF0FF06000A9
:101F100077F2D9FF60007BF2DAFF6F007BFFF6FFFC
:101F20006F0077FFF7FFF86A0800F5500001606F57
:101F3000616B9BC062F09CC063F0ABEC19F0600079
:101F400077F2D9FF60007BF2DAFFDE2A000EDD2295
:101F500071EF0FF012000001706F00017051D8B4E2
:101F6000B4EF0FF0B6EF0FF0D8EF0FF06BBFBDEF8F
:101F70000FF0BBEF0FF0D8EF0FF068C06CF069C046
:101F80006DF06AC06EF06BC06FF06C1F6D1F6E1F3E
:101F90006F1F6C2B000E6D236E236F236CC072F0CD
:101FA0006DC073F06EC074F06FC075F0E0EF0FF0AD
:101FB00068C072F069C073F06AC074F06BC075F0ED
:101FC000685169116A116B11D8A4E9EF0FF0EBEFBA
:101FD0000FF0F5EF0FF0000E686F000E696F000E46
:101FE0006A6F000E6B6F86EF10F0960E716FFFEF49
:101FF0000FF0712BD8907533743373337233000E36
:1020000072156C6F000E73156D6F000E74156E6F88
:10201000FE0E75156F6F6C516D116E116F11D8A496
:1020200014EF10F016EF10F0F9EF0FF024EF10F0AE
:10203000712B010E7227000E732374237523D89021
:102040007533743373337233000E72156C6F000E78
:1020500073156D6F000E74156E6FFF0E75156F6F33
:102060006C516D116E116F11D8A439EF10F03BEF68
:1020700010F018EF10F043EF10F07107D89072379E
:1020800073377437753774BF48EF10F04AEF10F0AC
:1020900052EF10F0020E716150EF10F052EF10F09D
:1020A0003DEF10F071B157EF10F059EF10F05AEF0B
:1020B00010F0749FD890713371C06CF06D6B6E6BC3
:1020C0006F6B6CC06FF06E6B6D6B6C6B6C517213E1
:1020D0006D5173136E5174136F5175137051D8B4E1
:1020E00074EF10F076EF10F07EEF10F06BBF7DEF25
:1020F00010F07BEF10F07EEF10F0758F72C068F07B
:1021000073C069F074C06AF075C06BF0120039EFEB
:1021100011F02A50305C0001606F2B503158616F14
:1021200028502E5C626F29502F58636F61BFA2EF59
:1021300010F0615109E1290E605DD8A0A2EF10F006
:10214000A4EF10F0C5EF10F061BFB2EF10F02C0E4D
:10215000605D010E6159D8B0B0EF10F0B2EF10F031
:10216000C5EF10F02B5007E1960E2A5CD8B0BBEFFC
:1021700010F0BDEF10F0C5EF10F0000E336E010E41
:10218000356E040E366E56EF11F063BFD1EF10F0CE
:10219000635109E1290E625DD8A0D1EF10F0D3EFB1
:1021A00010F056EF11F063BFE1EF10F02C0E625DFE
:1021B000010E6359D8B0DFEF10F0E1EF10F056EFE9
:1021C00011F0295007E1960E285CD8B0EAEF10F024
:1021D000ECEF10F056EF11F0000E336E010E356E7D
:1021E000050E366E56EF11F0140E3364FAEF10F050
:1021F000FCEF10F002EF11F0000E336E020E356EA0
:1022000056EF11F0332A56EF11F0190E33640BEF2D
:1022100011F00DEF11F002EF11F0315009E1230E32
:10222000305CD8A016EF11F018EF11F023EF11F089
:102230002F5007E1230E2E5CD8B021EF11F023EFD1
:1022400011F056EF11F0000E336E030E356E000ED6
:10225000366E56EF11F0050E336431EF11F033EFA7
:1022600011F002EF11F0000E336E000E356E56EFD6
:1022700011F03550206E216A2150000AD8B443EF86
:1022800011F056EF11F02050000AD8B489EF10F089
:10229000010AD8B4F4EF10F0030AD8B405EF11F036
:1022A000010AD8B42BEF11F056EF11F030C02AF02C
:1022B00031C02BF02EC028F02FC029F01200000EE4
:1022C0000001706F000E6F6FB4EF11F068C06DF019
:1022D00069C06EF068C06BF069C06CF06B1F6C1F5A
:1022E0006B4B6C2B6BC06FF06CC070F0D5EF11F0C6
:1022F00068C06DF069C06EF068C06FF069C070F0C2
:10230000D5EF11F068C06DF069C06EF068C060F084
:1023100069C061F0FF0E636FFE0E626FECEC17F0A8
:1023200060C06FF061C070F0D5EF11F068C06DF063
:1023300069C06EF0000E706F000E6F6FD5EF11F078
:10234000000E6E6F000E6D6F68C06FF069C070F0A8
:10235000D5EF11F0000E6E6F000E6D6F000E706FF6
:10236000000E6F6FD5EF11F06A516B6F6C6B6C5193
:10237000000AD8B4BEEF11F0AAEF11F06B51000AB9
:10238000D8B466EF11F0010AD8B478EF11F0030A5F
:10239000D8B482EF11F0010AD8B496EF11F0070A11
:1023A000D8B4A0EF11F0AAEF11F000016EBFE2EF78
:1023B00011F06E5109E1420E6D5DD8A0E2EF11F00F
:1023C000E4EF11F0EAEF11F0000E6E6F410E6D6F49
:1023D000FCEF11F06EAFF6EF11F0BF0E6D5DFF0E6A
:1023E0006E59D8B0F6EF11F0F8EF11F0FCEF11F0E4
:1023F000FF0E6E6FBF0E6D6F70BF08EF12F0705161
:1024000009E1290E6F5DD8A008EF12F00AEF12F073
:1024100010EF12F0000E706F280E6F6F22EF12F0A7
:1024200070AF1CEF12F0D80E6F5DFF0E7059D8B070
:102430001CEF12F01EEF12F022EF12F0FF0E706F81
:10244000D80E6F6F600E6D25206E010E6E21216E0D
:102450005BEC1DF0650E00016F25206E010E7021F2
:10246000216E76EC1DF012002E50305C0001736F6F
:102470002F503158746F65EF12F074BF49EF12F0AE
:10248000745109E1290E735DD8A049EF12F04BEFAA
:1024900012F051EF12F0000E746F280E736FC8EF38
:1024A00012F074AF5DEF12F0D80E735DFF0E745929
:1024B000D8B05DEF12F05FEF12F082EF12F0FF0E76
:1024C000746FD80E736FC8EF12F03650716F726B65
:1024D0007251000AD8B46FEF12F0C8EF12F07151C8
:1024E000000AD8B43DEF12F0010AD8B43DEF12F063
:1024F000050AD8B43DEF12F0010AD8B43DEF12F04E
:10250000C8EF12F0C8EF12F073C068F074C069F041
:10251000020E6A6F5FEC11F0EDEF12F073C068F01D
:1025200074C069F0030E6A6F5FEC11F0EDEF12F00A
:10253000000E696F410E686F000E6A6F5FEC11F05C
:10254000EDEF12F0020E3518D8A4A9EF12F0ABEFA0
:1025500012F08EEF12F0000E696F370E686F020EE8
:102560006A6F5FEC11F0EDEF12F0020E3518D8A48F
:10257000BCEF12F0BEEF12F08EEF12F0FF0E696F9B
:10258000C90E686F020E6A6F5FEC11F0EDEF12F08A
:102590003650716F726B7251000AD8B4D2EF12F0DC
:1025A000EDEF12F07151000AD8B48EEF12F0010A6B
:1025B000D8B484EF12F0030AD8B498EF12F0010AED
:1025C000D8B498EF12F0070AD8B4A2EF12F0010ABB
:1025D000D8B4B5EF12F0EDEF12F01200000E0001CA
:1025E000636F000E626F47EC16F0000E0001696F1A
:1025F000000E686F030E6A6F5FEC11F0CBB803EF4B
:1026000013F005EF13F0FEEF12F03450D8B40BEFD7
:1026100013F00DEF13F005EF13F0000E346ED4EC51
:102620001EF024C068F025C069F000016A6B6B6B76
:10263000000EABEC0FF068C076F069C077F06AC0AE
:1026400078F06BC079F09A0E00017A6F990E7B6F6B
:10265000990E7C6F440E7D6F4BEC15F00001D8A0F5
:1026600034EF13F036EF13F005EF13F0E8EC1CF045
:1026700030C02AF031C02BF02EC028F02FC029F036
:10268000000E346E3450D8B448EF13F04AEF13F014
:1026900042EF13F0000E346ECBBA51EF13F053EF4C
:1026A00013F066EF13F0000E0001DE6F000EDD6F19
:1026B000000E276E000E266E000E696F000E686F0A
:1026C000030E6A6F5FEC11F09AEF13F00001D54B27
:1026D000D62BD6BF75EF13F0E90ED55D030ED65994
:1026E000D8A075EF13F077EF13F082EF13F0000E20
:1026F000D66F000ED56F010E0101266F100E276FE9
:10270000ACEC1EF0F7EC19F00009D8B48AEF13F026
:102710008CEF13F08EEF13F09AEF13F087EC10F0BC
:10272000AFEC18F034EC12F098EC0CF09BEC13F0DA
:1027300042EF13F012000001DB51DD5DA96FDC51A7
:10274000DE59AA6FD951DB5DAB6FDA51DC59AC6F42
:102750005EEC19F020C0DBF021C0DCF0CD0E0001F2
:102760007A6FCC0E7B6FCC0E7C6F3C0E7D6F000EB3
:10277000636F020E626FABC060F0ACC061F0ECEC56
:1027800017F0A9C0A7F0AAC0A8F000016051A75F88
:102790006151A85BA7C068F0A8C069F0000E69BFCE
:1027A000FF0E6A6F6B6F010EABEC0FF068C076F036
:1027B00069C077F06AC078F06BC079F070EC0AF00D
:1027C00076C09FF077C0A0F078C0A1F079C0A2F0E9
:1027D000C7EC14F000019F51AD6FAD51800A7B0F23
:1027E000D8A0F5EF13F0F7EF13F0FBEF13F0040EA2
:1027F000AD6F07EF14F0AD51800A840FD8B003EF2E
:1028000014F005EF14F007EF14F0FC0EAD6F265036
:10281000AD25266E000EADBFFF0E2720276E27BE0A
:102820001BEF14F0590E265C020E2758D8A01BEFA0
:1028300014F01DEF14F023EF14F0020E276E580E63
:10284000266E35EF14F027AE2FEF14F0700E265CD5
:10285000FE0E2758D8B02FEF14F031EF14F035EFFB
:1028600014F0FE0E276E700E266E26C062F027C092
:1028700063F047EC16F0DBC0D9F0DCC0DAF01200F0
:10288000000E0001696F67BF4AEF14F048EF14F0C3
:1028900054EF14F0671F661F651F646D000E6523FB
:1028A00066236723010E696F63BF5BEF14F059EF76
:1028B00014F065EF14F0631F621F611F606D000E5E
:1028C000612362236323010E691B000E6A6F000EF1
:1028D0006B6F000E6C6F000E6D6F645165116611A9
:1028E0006711D8B476EF14F078EF14F0AEEF14F06F
:1028F000010E686F82EF14F0D89064376537663741
:102900006737682B67AF87EF14F089EF14F07CEF1F
:1029100014F0D8906A376B376C376D376451605D4F
:10292000655161596651625967516359D8A09BEF4F
:1029300014F09DEF14F0A6EF14F06451605F655140
:10294000615B6651625B6751635B6A81D8906733F4
:10295000663365336433682F89EF14F06951D8B456
:10296000B4EF14F0B6EF14F0BEEF14F06D1F6C1F4F
:102970006B1F6A6D000E6B236C236D236AC060F0C1
:102980006BC061F06CC062F06DC063F012000001BA
:10299000A135A235216E2150D8A4D1EF14F0D3EF88
:1029A00014F0DDEF14F0000E9F6F000EA06F000E0C
:1029B000A16F000EA26F4AEF15F09FC0A3F0A0C058
:1029C000A4F0A1C0A5F0A2C0A6F0200EEDEF14F077
:1029D000D890A633A533A433A333E82EE8EF14F040
:1029E000A351206EA18FFF0E9F17FF0EA017FF0EA1
:1029F000A117000EA217960E215E21BE04EF15F05E
:102A000002EF15F01AEF15F02150800A970FD8B099
:102A10000CEF15F00EEF15F010EF15F0D3EF14F0EA
:102A2000D890A233A133A0339F33213E10EF15F08D
:102A300032EF15F01F0E216420EF15F022EF15F094
:102A40002AEF15F0D3EF14F0D8909F37A037A137B5
:102A5000A23721062150D8A430EF15F032EF15F03F
:102A600024EF15F02050D8B438EF15F03AEF15F0F8
:102A700042EF15F0A21FA11FA01F9F6D000EA02303
:102A8000A123A2239FC09FF0A0C0A0F0A1C0A1F0ED
:102A9000A2C0A2F01200000E000176157E6F000E9B
:102AA00077157F6F800E7815806F7F0E7915816F97
:102AB0007E517F1180118111D8A461EF15F063EF71
:102AC00015F06BEF15F0000E766F000E776F000EAD
:102AD000786F000E796F000E7A157E6F000E7B15F1
:102AE0007F6F800E7C15806F7F0E7D15816F7E510C
:102AF0007F1180118111D8A480EF15F082EF15F0BD
:102B00008AEF15F0000E7A6F000E7B6F000E7C6F5F
:102B1000000E7D6F79AF8FEF15F091EF15F09AEF02
:102B200015F0766D771FD8B0772B781FD8B0782B3B
:102B3000800E79577DAF9FEF15F0A1EF15F0AAEF4A
:102B400015F07A6D7B1FD8B07B2B7C1FD8B07C2B07
:102B5000800E7D57000E761B000E771B000E781B33
:102B6000800E791B000E7A1B000E7B1B000E7C1B57
:102B7000800E7D1B7A51765D7B5177597C51785957
:102B80007D517959D8B0C7EF15F0C9EF15F0CCEFEA
:102B900015F0D890CDEF15F0D880120020EE70F02F
:102BA000070EDE6AE806FDE20001685169116A114C
:102BB0006B116C116D116E116F11D8B4E2EF15F03D
:102BC000E4EF15F036EF16F0010E786FF2EF15F026
:102BD000D890683769376A376B376C376D376E371F
:102BE0006F37782B6FAFF7EF15F0F9EF15F0E8EFCF
:102BF00015F0D8907037713772377337743775376F
:102C0000763777376851605D695161596A51625909
:102C10006B5163596C5164596D5165596E516659C8
:102C20006F516759D8A017EF16F019EF16F02AEF79
:102C300016F06851605F6951615B6A51625B6B516C
:102C4000635B6C51645B6D51655B6E51665B6F518C
:102C5000675B7081D8906F336E336D336C336B3339
:102C60006A3369336833782FF9EF15F070C060F07C
:102C700071C061F072C062F073C063F074C064F040
:102C800075C065F076C066F077C067F0120000018D
:102C900063BF54EF16F0635109E1650E625DD8A081
:102CA00054EF16F056EF16F076EF16F063BF62EFB2
:102CB00016F0590E625D020E6359D8A062EF16F04D
:102CC00064EF16F068EF16F0020E636F580E626F35
:102CD00062C020F063C021F0ACEC1DF0000E216E4C
:102CE000000E206E91EC1DF0B9EF16F063AF82EF8D
:102CF00016F09C0E625DFF0E6359D8B082EF16F09D
:102D000084EF16F0ADEF16F063AF90EF16F0700E93
:102D1000625DFE0E6359D8B090EF16F092EF16F098
:102D200096EF16F0FE0E636F700E626F000E216E4E
:102D3000000E206EACEC1DF062C064F063C065F064
:102D40000001641F651F644B652B64C020F065C0E3
:102D500021F091EC1DF0B9EF16F0000E216E000E7F
:102D6000206EACEC1DF0000E216E000E206E91EC7A
:102D70001DF012000001685169116A116B116C118C
:102D80006D116E116F11D8B4C8EF16F0CAEF16F0BE
:102D900012EF17F0010E206ED8EF16F0D8906837BA
:102DA00069376A376B376C376D376E376F37202A64
:102DB0006FAFDDEF16F0DFEF16F0CEEF16F06851D3
:102DC000605D695161596A5162596B5163596C5127
:102DD00064596D5165596E5166596F516759D8A044
:102DE000F4EF16F0F6EF16F006EF17F06851605F9B
:102DF0006951615B6A51625B6B51635B6C51645BEF
:102E00006D51655B6E51665B6F51675BD8906F3338
:102E10006E336D336C336B336A3369336833202E12
:102E2000DFEF16F060C060F061C061F062C062F078
:102E300063C063F064C064F065C065F066C066F0AE
:102E400067C067F01200000EBE6E000EBD6E240E4D
:102E5000BA6E000EBB6E000EBC6E070EC66EC00EC4
:102E6000C26EF70EC36EC468C5681F0E3A01706F5C
:102E70006069C00E506F070E806F7F0E406F000EAE
:102E8000716F000E816F000E516F000E416F000ECA
:102E9000616F000E5A6F000E5B6F000E6A6F000EBE
:102EA0006B6F000E7A6F000E7B6F000E826F000E4C
:102EB000426F000E526F000E626F000E726F436918
:102EC000536963697369070E836F44695469646960
:102ED00074690F0E846F1F0ECF6F090EDC6F0E0E1C
:102EE000016F0A0EE56F0D0E006F1D0EC96F100EFB
:102EF000046F070ED96F090ED16F0F0E036F130EFB
:102F00000B6F080EDB6F080ED26F1E0ED06F120013
:102F100022A08DEF17F08FEF17F099EF17F072C026
:102F200069F073C06AF070C06BF071C06CF081EC36
:102F30001CF0000175BF9FEF17F0A1EF17F0A7EF8E
:102F400017F074C079F075C07AF0ABEF17F0000E8F
:102F50007A6F000E796F000E786F000E776FBEEFFC
:102F600017F0000E616F200E606F70C062F071C0CC
:102F700063F0ABEC19F00001774B782B7951775D5A
:102F80007851800A766F7A51800A7659D8A0CBEFB3
:102F900017F0CDEF17F0B1EF17F022B0D2EF17F026
:102FA000D4EF17F0DEEF17F072C069F073C06AF06B
:102FB00070C06BF071C06CF081EC1CF072C020F03E
:102FC00073C021F006EC1DF0000179512024706FD0
:102FD0007A512120716F1200000E0001656F63BFEE
:102FE000F6EF17F0F4EF17F0FCEF17F0626D631FC8
:102FF000D8B0632B010E656F61BF03EF18F001EFCE
:1030000018F009EF18F0606D611FD8B0612B010E48
:10301000651B000E676F000E666F62516311D8B4B6
:1030200014EF18F016EF18F03EEF18F0010E646F71
:103030001EEF18F0D89062376337642B63AF23EF2D
:1030400018F025EF18F01AEF18F0D89066376737A8
:103050006251605D63516159D8A031EF18F033EFD0
:1030600018F038EF18F06251605F6351615B668160
:10307000D89063336233642F25EF18F06551D8B4CC
:1030800044EF18F046EF18F04AEF18F0666D671F2E
:10309000D8B0672B66C060F067C061F01200AF0E59
:1030A0003A24D96EDA6A000EDA22000EDF6E3D0194
:1030B000F9A75DEF18F05FEF18F073EF18F0AF0E9F
:1030C0003A24D96EDA6A000EDA220001DF8202D8D1
:1030D00073EF18F00500FA6EF951FD6EFA51FE6EAD
:1030E000FF6AFA5012003D01F9A379EF18F07BEF67
:1030F00018F08FEF18F0AF0E3A24D96EDA6A000E8E
:10310000DA220001DF8402D88FEF18F00500FA6E92
:10311000F751FD6EF851FE6EFF6AFA501200AF0EC5
:103120003A24D96EDA6A000EDA22DF50D8B49BEF67
:1031300018F09DEF18F0ACEF18F002D8AAEF18F0D5
:103140000500FA6E0001F551FD6EF651FE6EFF6A44
:10315000FA501200AEEF18F080EC1EF012000001E1
:10316000E85107E10F0EE75DD8B0B9EF18F0BBEFFB
:1031700018F0BCEF18F0322A320E3264C2EF18F0A9
:10318000C4EF18F00AEF19F0D74BD82B020E3618FF
:10319000D8B4CDEF18F0CFEF18F0E9EF18F0030E28
:1031A0003618D8B4D6EF18F0D8EF18F0E9EF18F0C9
:1031B00030502E5C31502F58D8B0E1EF18F0E3EFCB
:1031C00018F0E7EF18F0020E366EE9EF18F0030E74
:1031D000366EE85107E11F0EE75DD8B0F2EF18F048
:1031E000F4EF18F002EF19F0D8BF00EF19F02D0E30
:1031F000D75D010ED859D8A000EF19F002EF19F0F1
:103200000AEF19F0000E366E000E326E000ED86F07
:10321000000ED76F1200390193979E0E206E300E6C
:10322000216E85EC1FF0390193994A0E206E390EFC
:10323000216E80EC1FF0000E3D01EC6F000EED6F73
:10324000000EEE6F000EEF6F000EF06F000EF16FCC
:10325000B00EF26F800EF36F000EF46F8A0EF56FF2
:10326000000EF66F000EF76F000EF86F000EF96F8C
:10327000000EFA6F660E206E3F0E216E8FEC1FF06F
:10328000640E206E3F0E216E8AEC1FF05A0E206EE7
:103290003F0E216E94EC1FF0000E376E000E3C6E58
:1032A000000E3B6E080E0001FF6F000E3A6E000E1E
:1032B000396E000E386E390193871200000E00013E
:1032C0006F6F000E6E6F3D503E103F104010D8B42F
:1032D0006CEF19F06EEF19F0A6EF19F03C0160AB3E
:1032E00074EF19F076EF19F08FEF19F0200E00014E
:1032F000606FA10E616F070E626F000E636F3DC0BD
:1033000064F03EC065F03FC066F040C067F040EC3E
:1033100014F060C06EF061C06FF0A6EF19F0E00E1F
:103320000001606F5E0E616FF80E626FFF0E636FDB
:103330003DC064F03EC065F03FC066F040C067F03D
:1033400040EC14F060C06EF061C06FF06EC020F011
:103350006FC021F01200000162516311D8B4B3EFC5
:1033600019F0B5EF19F0BEEF19F062516311D8A44E
:10337000BCEF19F0BEEF19F0C3EF19F060517BEC10
:103380001FF0F6EF19F020EE09F06251D9266351D3
:10339000DA22DE50DE10D8B4D0EF19F0D2EF19F0F7
:1033A000EDEF19F020EE09F06251D9266351DA22CF
:1033B00010EE03F06251E1266351E222DE50E65C3A
:1033C000E650800A686FDE50800A6859D8B0EBEF8B
:1033D00019F0EDEF19F0F6EF19F020EE03F062515D
:1033E000D9266351DA22DE2A000EDD221200000106
:1033F000E14BE22BE25109E1650EE15DD8A003EF5C
:103400001AF005EF1AF03FEF1AF0000EE26F000E0F
:10341000E16FD4EC1EF024C068F025C069F0000113
:103420006A6B6B6B000EABEC0FF068C076F069C096
:1034300077F06AC078F06BC079F09A0E00017A6F6D
:10344000990E7B6F990E7C6F440E7D6F4BEC15F0DF
:103450000001D8B02EEF1AF030EF1AF03FEF1AF05B
:10346000000EDE6F000EDD6F000E696F000E686FDC
:10347000030E6A6F5FEC11F0010E40EF1AF0000EC0
:10348000120022C1ADF023C1AEF0000E0001D06FDA
:10349000000ECF6F5FEF1AF020C19BF021C19CF0AE
:1034A000AD0E9D6F000E9E6F24C19FF025C1A0F050
:1034B000BAEC0EF000019B51CF279C51D023600045
:1034C000B7F2F6FF6000BBF2F7FFF86A0800F550AC
:1034D0000009D8A46EEF1AF070EF1AF04CEF1AF052
:1034E000CFC020F1D0C021F11200206E0001FF51A9
:1034F000D8B47DEF1AF07FEF1AF076EF1AF03901A9
:1035000093B985EF1AF087EF1AF08CEF1AF060008C
:1035100083F0EAFDA3EF1AF09399BF0E3C24D96E15
:10352000DA6A000EDA22600083F0DFFF3C2A070E21
:103530003C649DEF1AF09FEF1AF0A1EF1AF0000E15
:103540003C6E0001FF07390193891200000E3E0115
:10355000DE6F000EDF6F000EE06F000EE16F000EF9
:10356000E46F000EE56F000EEA6F000EEC6F000EC8
:10357000F16F580EF36F020EF46F000EF56F000E30
:10358000F66F000EF76F000EF96F000EFA6F000E67
:10359000FB6F000EFC6F000EFD6F000EFE6F1F0E26
:1035A000FF6F840EF86F12003901A19F3F0118517F
:1035B0000001CB6F3F0119510001CC6F3F011A513F
:1035C0000001CD6FCE6B3C0160ABE9EF1AF0EBEF81
:1035D0001AF0F4EF1AF0010E0001C727000EC823FD
:1035E000C923CA23FDEF1AF0FF0E0001C727FF0E03
:1035F000C823FF0EC923FF0ECA2311006F0060FF0E
:1036000017F06F00E8FF18F06F00ECFF19F00001F1
:10361000FB51FC11D8B40FEF1BF011EF1BF01DEFA5
:103620001BF002D81DEF1BF00500FA6EFB51FD6E7A
:10363000FC51FE6EFF6AFA501200600067F0FBFF5B
:0E364000600063F0FAFF60005FF0D8FF110039
:103650006F0060FF1AF06F00E8FF1BF06F00ECFFD7
:103660001CF00001FD51FE11D8B439EF1BF03BEF07
:103670001BF047EF1BF002D847EF1BF00500FA6E76
:10368000FD51FD6EFE51FE6EFF6AFA5012006000A1
:1036900073F0FBFF60006FF0FAFF60006BF0D8FF83
:0236A000110017
:1036A4006F0060FF1DF06F00E8FF1EF06F00ECFF7D
:1036B4001FF03901A7912C4A2D2A2D5009E10A0E39
:1036C4002C5CD8A068EF1BF06AEF1BF070EF1BF0C6
:1036D4003DEC1EF0000E2D6E000E2C6E60007FF08F
:1036E400FBFF60007BF0FAFF600077F0D8FF110069
:1036F400D28A000ED2BE010E206ED29E550ED46E1A
:10370400AA0ED46ED490000ED76E000ED66E080E9C
:10371400D56E550ED46EAA0ED46ED48020B002D0CD
:10372400D29E01D0D28E390183998397818F818B68
:10373400818D8A81888F8791898312006F00E8FFC9
:1037440003F06F00ECFF04F03901A9936F00D0FD82
:1037540005F06F00D4FD06F005C001F006C002F0CC
:1037640002D8BFEF1BF00500FA6E0001F351FD6EA5
:10377400F451FE6EFF6AFA501200600013F0FBFF72
:1037840060000FF0FAFF11006F00E8FF09F06F000E
:10379400ECFF0AF03901AA916F00C0FD0BF06F0035
:1037A400C4FD0CF00BC007F00CC008F002D8E5EF24
:1037B4001BF00500FA6E0001F151FD6EF251FE6E30
:1037C400FF6AFA50120060002BF0FBFF600027F044
:1037D400FAFF11007AEC1BF0E7EC1EF023EC17F073
:1037E40068EC1FF026EC1EF0A6EC1AF054EC1EF068
:1037F400C7EC1DF038EC1FF02AEC1FF050EC1FF062
:103804000FEC1EF06AEC1EF024EC1DF05CEC1FF0D3
:1038140011EC1CF044EC1FF00BEC19F01200C00E7C
:103824009B6E000E9C6E050E9D6E000E996E000E32
:10383400986E3901A89D98506F0064FE60F00001F5
:10384400616B60C061F0606B6011EF6F6151F06F8C
:103854003901A89F988F360E206E3E0E216E99EC8A
:103864001FF0030E9A6E12006F00E8FF15F06F0050
:10387400ECFF16F03901A89F0001ED51EE11D8B408
:1038840046EF1CF048EF1CF054EF1CF002D854EF44
:103894001CF00500FA6EED51FD6EEE51FE6EFF6AEE
:1038A400FA50120060005BF0FBFF600057F0FAFF73
:0238B400110001
:1038B8003901A19D3F0115513D6E16513E6E1751BC
:1038C8003F6E406A3C0160AB6CEF1CF06EEF1CF081
:1038D80077EF1CF0010E0001C727000EC823C9238B
:1038E800CA2380EF1CF0FF0E0001C727FF0EC82374
:1038F800FF0EC923FF0ECA231100000E00016F6FCF
:10390800000E6E6F94EF1CF06DC060F0616B6BC0C1
:1039180062F06CC063F0ABEC19F000016E4B6F2BDA
:103928006E516925D96E6F516A21DA6EDF506D6F5D
:103938006D51D8A4A2EF1CF0A4EF1CF088EF1CF086
:103948001200080E0001FF61ACEF1CF0AEEF1CF096
:10395800C6EF1CF0BF0E3B24D96EDA6A000EDA22DD
:10396800DF503D01EA6F3B2A070E3B64BEEF1CF0B7
:10397800C0EF1CF0C2EF1CF0000E3B6E0001FF2BE5
:10398800C8EF1CF03901939912000001626F6000C2
:103998008BF1F1FE3E01F88FF89DF881F8B1D7EF71
:1039A8001CF0D9EF1CF0D2EF1CF0F0510001616F50
:1039B800606B3E01EF5100016025206E3E01000E54
:1039C80000016121216E1200000E276EFA0E266E8C
:1039D80026C062F027C063F047EC16F0000E000125
:1039E800696F000E686F030E6A6F5FEC11F0000ECE
:1039F800346E180E346403EF1DF005EF1DF0FDEF73
:103A08001CF0120020C060F021C061F00EEF1DF024
:103A1800204A212A600083F0D9FF600087F0DAFF8E
:103A2800DF50D8A41AEF1DF01CEF1DF00CEF1DF0AD
:103A380000016051205C206E61512158216E1200F6
:103A4800000EA76E000EA86E050EA96E000EA56EDC
:103A5800000EA46E3901A69DA4506F0094FE20F0BC
:103A6800216A20C021F0206A20100001EB6F21504C
:103A7800EC6F010EA66E120000EE00F1200EEE6A49
:103A8800E806FDE100EEAFF03A0EEE6AE806FDE169
:103A980000EE22F01F0EEE6AE806FDE1080ED56E74
:103AA800000ED66E000ED76E00010BEF1FF020C07F
:103AB80060F021C061F00001D89061336033D89084
:103AC800613360336051696E20C060F0030E601787
:103AD800060E616FD8906037612F6EEF1DF0605150
:103AE800686E120020C060F021C061F00001D8901B
:103AF80061336033D8906133603360516D6E20C09C
:103B080060F0030E6017060E616FD8906037612F62
:103B180089EF1DF060516C6E120020C060F021C06A
:103B280061F00001D89061336033D890613360331D
:103B38006051616E20C060F0030E6017060E616F61
:103B4800D8906037612FA4EF1DF06051606E1200AD
:103B580020C060F021C061F00001D890613360336B
:103B6800D890613360336051656E20C060F0030EF9
:103B78006017060E616FD8906037612FBFEF1DF098
:103B88006051646E1200800E3F011E6F420E1F6F5F
:103B9800000E206F040E216F000E236F000E226F9F
:103BA800010E1D6F1C691B693901918B918F918DD5
:103BB8003F011F8F1200CDAEE4EF1DF0E6EF1DF0C0
:103BC800ECEF1DF001C0E5F002C0E6F0F6EF1DF0E5
:103BD8000001E551015C306EE6510258316ED89013
:103BE800313230321200CDACFCEF1DF0FEEF1DF08B
:103BF80004EF1EF007C0E3F008C0E4F00EEF1EF07B
:103C08000001E351075C2E6EE45108582F6ED890DE
:103C18002F322E321200830E726E000E736E000E5B
:103C2800716E000E706EEE0E206E3B0E216EA3ECD0
:103C38001FF03F015E513F0B80095E6F3901AA9169
:103C48009A811200830E766E000E776E000E756EE6
:103C5800000E746EBE0E206E3B0E216EA8EC1FF097
:103C68003F015E51CF0B20095E6F3901A9939983FB
:103C780012000001E951EA11D8B445EF1EF047EFF0
:103C88001EF053EF1EF002D853EF1EF00500FA6E37
:103C9800E951FD6EEA51FE6EFF6AFA5012001200F9
:103CA800010EA26E000EA16E000EA36EF90E9F6E9D
:103CB800000E9E6E3901A7919781680E206E3F0E07
:103CC800216E9EEC1FF0E00EA06E1200000E3C016B
:103CD800616F030E626F020E636F000E646F000E59
:103CE800656F020E666F080E676F000E686F000E34
:103CF800696F850E606F1200B70E3A24D96EDA6AC2
:103D0800000EDA226F00A3F7DFFF3A2A070E3A64A3
:103D180090EF1EF092EF1EF094EF1EF0000E3A6E38
:103D2800382A12009AA49BEF1EF09DEF1EF0A6EF12
:103D38001EF09A900E50996E600037F098FF9A80A6
:103D4800ABEF1EF00E50996E600037F098FF12002E
:103D5800280E01012A6F010E2B6F000E206F000E36
:103D6800216F26C122F127C123F12A0E246F010EEB
:103D7800256F41EC1AF012003901A19B000E3D6E2F
:103D8800000E3E6E000E3F6E000E406E000E0001EB
:103D9800CB6F000ECC6F000ECD6F000ECE6F1100F2
:103DA800220EC9EC1CF020C024F021C025F0120E10
:103DB8000101266F100E276F24C028F125C029F1B4
:103DC800ACEC1EF01200000E3901C06F000EC16F7E
:103DD800000EC26F000EC36F000EC46F000EC56FD9
:103DE800000EC66F000EC76F12009A826F0060FE49
:103DF80014F06F0064FE13F013500F6E1450116E20
:103E08000FC012F011C00DF012C00EF01200ECEC51
:103E18001BF0D28ED28C600E206E3F0E216E9EEC6F
:103E28001FF0EEEC12F015EF1FF057EF00F0F9EC71
:103E38001EF00DC0E7F00EC0E8F00001D890E8339E
:103E4800E73374EC1FF03901A89F1200050EAE6E1F
:103E5800000EAD6E000EAF6EAB68000EAA6E390193
:103E6800A495B00EAC6E1200800E626E000E616EEC
:103E7800000E606E3F015F513F0B80095F6F1200BB
:103E8800800E666E000E656E000E646E3F015F5117
:103E9800CF0B20095F6F1200800E6A6E590E696E93
:103EA800400E686E3F015F51F30B04095F6F12000B
:103EB800800E6E6E590E6D6E400E6C6E3F015F5136
:103EC800FC0B01095F6F1200600E3901D96F000EFB
:103ED800DB6F000EDD6F080EDF6F000EDE6F120065
:103EE800EFC00DF0F0C00EF096EC1EF01200216E3F
:103EF800215075EC1AF0120020C0FBF021C0FCF034
:103F0800120020C0FDF021C0FEF0120020C0F7F022
:103F180021C0F8F0120020C0F9F021C0FAF0120018
:103F280020C0F5F021C0F6F0120020C0EDF021C04D
:103F3800EEF0120020C0E9F021C0EAF0120020C023
:103F4800F1F021C0F2F0120020C0F3F021C0F4F02B
:103F5800120080EC1EF01200342A12001200120027
:023F6800120045
:023F6C00110042
:020000040030CA
:0A0000008CFFFFFF9FFFFFFFFFFFD3
:00000001FF
